:10000000000002203D6A0100656A0100676A010084
:10001000696A01006B6A01006D6A0100000000005E
:100020000000000000000000000000006F6A0100F6
:10003000716A010000000000736A0100756A010026
:10004000776A0100776A0100DD680100A16801009C
:10005000B5680100776A0100495901008970010003
:10006000A5640100AD640100B5640100776A010078
:10007000776A0100776A0100776A0100776A0100F8
:10008000776A0100776A0100776A0100776A0100E8
:10009000776A0100776A0100776A0100776A0100D8
:1000A000776A0100776A0100BD640100C564010040
:1000B000776A0100776A010000000000000000007C
:1000C000776A0100776A0100776A0100C968010058
:1000D000776A0100776A0100776A0100776A010098
:1000E00005690100000000000000000000000000A1
:1000F00000000000776A010000000000F1680100C4
:1001000000000000000000000000000000000000EF
:1001100000000000000000000000000000000000DF
:1001200000000000000000000000000000000000CF
:1001300000000000000000000000000000000000BF
:1001400000000000000000000000000000000000AF
:10015000000000000000000000000000000000009F
:10016000000000000000000000000000000000008F
:10017000000000000000000000000000000000007F
:10018000000000000000000000000000000000006F
:10019000000000000000000000000000000000005F
:1001A000000000000000000000000000000000004F
:1001B000000000000000000000000000000000003F
:1001C000000000000000000000000000000000002F
:1001D000000000000000000000000000000000001F
:1001E000000000000000000000000000000000000F
:1001F00000000000000000000000000000000000FF
:100200002DE9F04F85B003910778A7F10903042B7E
:10021000044607F07F0200F10100F5D9202AF3D04F
:100220002B2F04BF677804462D2F75D09FED427B9E
:100230008DED007B4FF000084FF000099FB34FF0A9
:10024000000C25464FF0000ADFF8FCB0644619E0C8
:1002500019F04AFE80468946304619F0DBFD4246D9
:100260004B4619F08BFC5246804689465B46DDE9D9
:1002700000013CB319F062FFCDE90001A44615F876
:10028000017F7FB1A7F13006092E52465B464046FA
:100290004946DDD9CCB92E2F17D115F8017F01249D
:1002A000002FEFD12C4642464B46DDE9000119F004
:1002B0001BFE80468946039B404649461C6005B0AC
:1002C000BDE8F08F4FF0010CD9E72C46BCF1000FD0
:1002D00029D042464B46DDE9000119F005FE07F042
:1002E000DF07452F80468946E5D10399681C0A221D
:1002F00019F028FC1449024600201AF0A5F902461C
:100300000B464046494619F0EFFD80468946404677
:10031000494605B0BDE8F08F9FED097B67788DED0C
:10032000007B013486E7DFF824904FF00008404658
:10033000494605B0BDE8F08F000000000000F03F26
:10034000000000000000F0BF000024400000F87F23
:100350002DE9F047002314460022804689461AF012
:1003600035F828B109F1004399462D232370013453
:1003700000220023404649461AF01EF828B13022D8
:10038000002322706370BDE8F0874046494618F0AC
:100390001DF91AF059F873A3D3E90023074649461B
:1003A00040461AF013F800284ED170A3D3E9002379
:1003B000404649461AF028F8002845D10E2F07F18B
:1003C000010540F3B980A7F10E06324600206249CC
:1003D0001AF03AF902460B464046494619F0AEFE7D
:1003E00000225E4B19F0CAFB1AF06AF9002DA7F142
:1003F0000F0E4FF0010C4DDD594FDFF878810122CF
:1004000045F6F3294FF02E0A494508BF40454FF005
:1004100030030AD3B0EB080061EB0901494508BF7E
:10042000404503F10103F5D2DBB2237050EA01032A
:1004300004F101084AD1954252DD0132102A4FD011
:10044000444677E90289DFE7002F33DB3A46002094
:1004500041491AF0F9F802460B464046494619F060
:100460006DFE3BA3D3E90023804689460125002683
:100470004046494619F038FD0022384B19F07EFB02
:100480001AF01EF9002DBC464FF0FF3E37464FF0E4
:100490000006B1DC234630224FF02E0803F8022B71
:1004A00084F80180FC4345D01C4403F8012BA3428F
:1004B000FBD1A1E77A42002027491AF0C5F802468D
:1004C0000B464046494619F00FFDCAE7954202F136
:1004D000010204BF84F801A004F10208102AAFD180
:1004E0006EB14246302102F8011BC2F10103734490
:1004F0004344002BF7DC2EEAEE7301339844BCF141
:10050000010F12D0BCF1000F4FF0650388F80030E6
:10051000C5BF2B2388F8013008F1010108F1020161
:100520006046BDE8F04710F087BC002388F8003033
:10053000BDE8F0871C465FE7C7F10E0200200649C0
:100540001AF082F83E4602460B46012790E700BFAC
:100550000000901EC4BCD642000024400000E03FD2
:10056000E0B101008DEDB5A0F7C6B03E50EFE2D688
:10057000E41A4B4400407A1070B54FF0FF3006F09B
:1005800057FA04466FF07F4006F052FA06462046BE
:1005900019F030FC00220C4B19F0A6FC0446304642
:1005A0000D4619F027FC06A3D3E9002319F0C6FD78
:1005B00002460B462046294619F0E0FA70BD00BFFE
:1005C0000000E0DFFFFF6F430000F03D000000008F
:1005D0002DE9F04F1D461389AB4288BF536885B0A3
:1005E00004468CBF53F82500002090468A4606F04A
:1005F00093FE0022904B19F077FC19F025FFB8F814
:1006000008206B1C9A4288BFD8F8042006468CBF8D
:1006100052F82300002006F07FFE0022864B19F0DE
:1006200063FC19F011FFB8F808300235AB4288BFFF
:10063000D8F8043007468CBF53F82500002006F098
:100640006BFE002EC4E9006740F3E280002F40F308
:10065000DF8071A3D3E90023002584F8285017F028
:10066000D7FE002200238046894619F0AFFE40B134
:100670004046494668A3D3E9002319F07FFA804633
:10068000894667A3D3E900234046494619F0BCFEDA
:10069000C0B165A3D3E900234046494619F0A0FE46
:1006A00080B101234046494684F8283060A3D3E94D
:1006B000002319F063FA58A3D3E9002317F0A8FE2A
:1006C0008046894600225D4B4046494619F00CFCA5
:1006D00017F0D2FB01F1004300221946564B19F0E6
:1006E00003FC19F0B1FE49460546404617F080FB71
:1006F0000022514B19F0F8FB19F0A6FEDAF804308D
:100700004F49B3F80CB0B3F80AA0A56007FB0BF390
:1007100003EB010806FB0AF6019388FB05234FEA69
:10072000124C00960E444CEA034C06EA010383FB8C
:10073000009A06EB0C0E0EEA010ED346CA468EFB5B
:1007400000675246CDE90267120C42EA0B42DDE92E
:1007500002AB0CEA010C8CFB00674FEA16495646C7
:100760000A40360C46EA0B4649EA074982FB05ABCC
:100770005F46C144B0445646CDE90267039FE0603E
:10078000360C09EA010908EA010846EA074689FB2E
:1007900005AB334488FB0556CDE9025655462D0C72
:1007A00045EA0B45DDE902AB0B40AC4403EAE377D5
:1007B0000CEA010C554623EAE37367454FEA1545F9
:1007C00002EAE276A8BF674645EA0B45634522EA9E
:1007D000E272B8BF6346AE444E450EEA010EA8BFB2
:1007E0004E464A45B8BF4A467745A8BF7746734547
:1007F000B8BF73464645A8BF4646C4E905634245AF
:10080000B8BF424600980199206261622761E261A7
:10081000204605B0BDE8F08FEA2E4454FB21194074
:10082000F4D64354FB21F93F320D337F7CD912407B
:10083000EA2E4454FB2109400000F0400000E03F54
:100840000000FFFF000000002DE9F04F2DED028BAE
:10085000044683B0C06819F0DDFA804620698946F5
:1008600019F0D8FA824660698B4619F0D3FA02462D
:1008700001F1004306460F464046494617F05AFD2F
:1008800019F02AFEE062054617F00CFC019028469C
:1008900017F0BCFB019B0546184619F0CDFA4246FD
:1008A0004B4619F021FB80462846894619F0C4FAC8
:1008B00032463B4619F018FB02460B464046494675
:1008C00019F05AF902460B465046594617F032FDC8
:1008D00019F002FE002208EE100A002330463946C5
:1008E00019F092FD28B3B5EEC08AF1EE10FA1CDDC6
:1008F00011A7D7E9006718EE100A19F09DFA024611
:100900000B463046394619F037F932463B4619F066
:1009100035F919F0E1FDA062E38843F00203E380BA
:1009200003B0BDEC028BBDE8F08F05A7D7E90067E7
:10093000E1E784ED0A8AEFE7EA2E4454FB21F93F10
:10094000EA2E4454FB21F9BF494A21F00043934267
:100950002DE9704304460D4649DC464A93420E4653
:100960000EDC3FA3D3E9002319F008F90022424B23
:1009700019F04AFD00284AD020462946BDE8708378
:100980003E4A934239DCB3F1804F40DD17F02CFA38
:100990002246804689462B462046294619F0A4FA6D
:1009A0000022354B19F0EAF818F0BAF842464B46E7
:1009B00019F0E4F802460B4600202F4919F0BEFB5F
:1009C000424604460D464B464046494619F0D6F885
:1009D00002460B462046294619F0D0F802F040F8AE
:1009E000002E08DC01F100431946BDE87083024681
:1009F0000B4619F0C3F8BDE8708317F0F5F902F063
:100A00002FF819A3D3E9002319F0B8F8E8E7224634
:100A10002B462046294619F067FA8046894620462B
:100A2000294617F0E1F9002204460D46124B4046D4
:100A3000494619F0A3F818F073F800220E4B19F08C
:100A40009DF802460B464046494619F077FB224680
:100A50002B4619F093F800F0A7FAC1E7AFF3008036
:100A60009C7500883CE4377EEF39FAFE422EE63F63
:100A7000FFFFEF7FFFFF2F3E0000F03F0000B0417F
:100A80002DE9F84FBE4B21F000469E4204460D462C
:100A90008A460EDDBB4B9E4200F3B18000F0AC8075
:100AA000BAF1000F40F3EA8099A1D1E90001BDE855
:100AB000F88FB54B9E4200F3BA80A3F1DE739E42DD
:100AC00040F3A5804FF0FF3B22462B4620462946A7
:100AD00019F00AFA02460B468046894619F004FAD4
:100AE0008DA3D3E9002306460F4619F0FDF98CA328
:100AF000D3E9002319F042F832463B4619F0F4F9E5
:100B000089A3D3E9002319F039F832463B4619F09E
:100B1000EBF987A3D3E9002319F030F832463B46BE
:100B200019F0E2F984A3D3E9002319F027F832463B
:100B30003B4619F0D9F982A3D3E9002319F01EF836
:100B400042464B4619F0D0F97FA3D3E900238046F3
:100B500089463046394619F0C7F97DA3D3E9002309
:100B600019F00AF832463B4619F0BEF97AA3D3E9E8
:100B7000002319F001F832463B4619F0B5F978A385
:100B8000D3E9002318F0F8FF32463B4619F0ACF9E0
:100B900075A3D3E9002318F0EFFF32463B4619F066
:100BA000A3F902460B464046494618F0E7FF2246A5
:100BB0002B4619F099F9BBF1FF3F02460B4661D075
:100BC000724B734E4FEACB0B5B44D3E9002318F012
:100BD000D3FF22462B4618F0CFFFB34402460B4604
:100BE000DBE9000118F0C8FFBAF1000F0DDA01F1DE
:100BF00000431946BDE8F88F00283FF451AF224664
:100C00002B462046294618F0B9FFBDE8F88F58A3B7
:100C1000D3E9002318F0B2FF00225E4B19F0F4FB79
:100C200000283FF44FAF20462946BDE8F88F17F063
:100C3000DBF8594B9E4204460D4629DCA3F55023B0
:100C40009E424EDC02460B4618F098FF0022514BA4
:100C500018F092FF002206460F464FF080432046D0
:100C6000294618F08BFF02460B463046394619F0EC
:100C700065FA4FF0000B04460D4625E73EA1D1E989
:100C80000001C2E72046294618F076FFBDE8F88F3C
:100C9000424B9E421ADC0022414B18F06DFF0022AD
:100CA00006460F463E4B2046294619F01DF9002204
:100CB000384B18F063FF02460B463046394619F0B0
:100CC0003DFA4FF0020B04460D46FDE602460B4688
:100CD0000020344919F032FA4FF0030B04460D4658
:100CE000F2E600222B4B18F047FF002206460F4683
:100CF000284B2046294618F041FF02460B46304655
:100D0000394619F01BFA4FF0010B04460D46DBE69D
:100D1000182D4454FB21F93F11DA22E33AAD903FFC
:100D2000EB0D76244B7BA93F513DD0A0660DB13F22
:100D30006E204CC5CD45B73FFF8300922449C23F8A
:100D40000D5555555555D53F2F6C6A2C44B4A2BF4F
:100D50009AFDDE522DDEAD3F6D9A74AFF2B0B33F17
:100D6000711623FEC671BC3FC4EB98999999C93F8F
:100D70009C7500883CE4377E182D4454FB21F9BF54
:100D8000FFFF0F440000F07FFFFFDB3F08B20100D0
:100D9000E8B101000000F03FFFFFF23FFF7F03409A
:100DA0000000F83F0000F0BF2DE9F041C1F30A5701
:100DB000A7F2FF35132D02460B460C468846064621
:100DC00020DC002D4ADB364F2F4101EA070C5CEA9C
:100DD000000C1CD030A3D3E9002318F0CFFE002272
:100DE000002319F011FB48B1002C04DD4FF48013EF
:100DF00043FA05F5A84428EA0704002621463046B0
:100E0000BDE8F081332D06DDB5F5806F38D0104692
:100E10001946BDE8F081A7F213474FF0FF3C2CFACA
:100E200007F70742F3D01CA3D3E9002318F0A6FE6E
:100E30000022002319F0E8FA0028DFD0002C09DD99
:100E4000142D22D00123C5F1340503FA05F5AE199E
:100E500028BF984426EA07064446CFE70EA3D3E905
:100E6000002318F08BFE0022002319F0CDFA002891
:100E7000C4D0002C0CDB264305D00026094CBDE76E
:100E800018F07CFEC5E73446B8E704F10108E1E755
:100E900000264FF00044B1E79C7500883CE4377EA3
:100EA000FFFF0F000000F03F2DE9F041C1F30A57AA
:100EB000A7F2FF35132D02460B460C468846064620
:100EC0001DDC002D3CDB364F2F4101EA070C5CEAAC
:100ED000000C19D030A3D3E9002318F04FFE0022F4
:100EE000002319F091FAC8B3002C04DA4FF48013F0
:100EF00043FA05F5A84428EA070400262EE0332D1E
:100F000006DDB5F5806F2DD010461946BDE8F0819D
:100F1000A7F213474FF0FF3C2CFA07F70742F3D034
:100F20001DA3D3E9002318F029FE0022002319F0A5
:100F30006BFA98B1002C21DB26EA070644460DE047
:100F400015A3D3E9002318F019FE0022002319F09D
:100F50005BFA18B1002C08DB0026344621463046E7
:100F6000BDE8F08118F00AFED0E724F000430D4AF6
:100F70001E43002E18BF14460026EFE7142D08D09C
:100F80000123C5F1340503FA05F5AE1928BF9844CD
:100F9000D2E704F10108CFE79C7500883CE4377E76
:100FA000FFFF0F000000F0BF2DE9F04FD84B994232
:100FB00087B08046894643DDD64B99420E4600F302
:100FC000F480D54B994240F32D819FEDBB7B8DED95
:100FD000047B4FEA215A0446AAF2FF3ACF4BC6F3EC
:100FE00013069E4246F07F5500F3128145F44015EA
:100FF000204629460022CA4B18F0BEFD00220446B6
:101000000D46C84B18F070FF22462B4618F06CFFB7
:10101000A046CDE90201A946CDE90001002E3AD152
:10102000002200232046294619F0C6F9002800F0C6
:101030001B81BAF1000F40F0858100200021B8E04B
:10104000B94B21F000449C420A460FDD0022B74B09
:1010500019F0B2F9002800F0AF8000220023002030
:10106000B34919F06BF807B0BDE8F08FB14B9C4263
:1010700040F3AF80B04B1A449A4240F2D380002232
:10108000A84B18F031FF42464B4618F02DFFCDE932
:1010900000014FF0000A00224FF0804340464946CD
:1010A00018F06CFD02460B464046494619F046F8DA
:1010B00002460B4606460F4618F016FF80A3D3E9FA
:1010C000002304460D4618F00FFF7FA3D3E9002349
:1010D00018F054FD22462B4618F006FF7CA3D3E9F6
:1010E000002318F04BFD22462B4618F0FDFE7AA394
:1010F000D3E9002318F042FD22462B4618F0F4FEF7
:1011000077A3D3E9002318F039FD22462B4618F0C7
:10111000EBFE75A3D3E9002318F030FD22462B46E1
:1011200018F0E2FE72A3D3E9002318F027FD22464F
:101130002B4618F0D9FEDDE9002318F01FFD3246DA
:101140003B4618F0D1FE04460D46BAF1000F00F000
:10115000A880504618F05EFE67A3D3E900238246BC
:101160008B4618F0C1FE66A3D3E9002306460F465E
:101170005046594618F0B8FEDDE9042318F0FEFC8D
:1011800022462B4618F0FAFC02460B46DDE9000128
:1011900018F0F2FC42464B4618F0EEFC02460B46B5
:1011A0003046394618F0E8FC03E002460B4618F0DA
:1011B000E5FC07B0BDE8F08F42464B464046494645
:1011C00018F0DAFC02460B4618F0B8FF07B0BDE88D
:1011D000F08F0022594B18F0D1FC0022002319F0A7
:1011E00013F910B1564B9C4262DD42464B464046D5
:1011F000494618F079FE00224A4B18F075FE024667
:101200000B464046494618F0B7FC07B0BDE8F08FE2
:1012100045F40015C6F5801620462946B6100AF199
:10122000010AE7E600223E4B4046494618F0A6FC7C
:101230004FEA215AAAF2FF3ABAF1000F04460D46CE
:101240000E4640F3BD8042464B4618F095FC0246E0
:101250000B460020324918F08FFC22462B4618F02E
:101260006DFFCDE90401B9E627A3D3E900232046A9
:10127000294618F039FE02460B460020284918F08E
:101280007BFCDDE9022318F02FFE06460F46BAF17B
:10129000000F75D102460B462046294618F06CFC1B
:1012A00087E702460B46DDE9000118F065FCA6E77A
:1012B000404649467DE700BF0000000000000000F6
:1012C00044523EDF12F1C23F9FC678D0099AC33F15
:1012D000DE03CB966446C73FAF788E1DC571CC3F09
:1012E000599322942449D23F04FA97999999D93F66
:1012F000935555555555E53F0000E0FE422EE63F1B
:10130000763C7935EF39EA3D555555555555E53F0C
:101310007982DA3FFFFFEF7FFFFF3F439DA006008A
:101320000000F03F0000E03FFFFFEF3F0000F0BF94
:10133000000050C3FFFF1F3E3C412D4000005043C2
:10134000FFFF8F3C504618F065FD24A3D3E900232E
:1013500006460F4618F0C8FDDDE9042318F00EFC20
:1013600020A3D3E9002304460D463046394618F041
:10137000BBFD02460B462046294618F0FFFB18E746
:10138000504618F047FD17A3D3E9002382468B4649
:1013900018F0AAFD11A3D3E90023804689465046E0
:1013A000594618F0A1FDDDE9042318F0E7FB0246D9
:1013B0000B463046394618F0DFFB22462B4674E7D1
:1013C0000022054B18F0D8FB02460B464046494622
:1013D00018F0D2FB41E700BF0000F03F763C7935C2
:1013E000EF39EA3D0000E0FE422EE63F000000003B
:1013F00008B517F06DF804A3D3E9002318F09EFE9A
:1014000008BD00BFAFF30080EF39FAFE422EE63F81
:101410002DE9F043DFF8B4808BB004460D4601F0AF
:10142000F7F898F90030013306460F462CD02246D3
:101430002B462046294618F0F1FF814620BB204666
:10144000294616F0D1FC1FA3D3E9002318F0DCFFD6
:10145000D0B1194A98F90030CDF820900321CDE998
:101460000445CDE90245CDE9001293B113490020AE
:10147000022BCDE9060111D118F00CFB22230360E9
:10148000089B9BB9DDE90667304639460BB0BDE8DD
:10149000F0830B4B4FF06042CDE90623684618F00D
:1014A00075F90028E8D0089B002BEBD018F0F2FA71
:1014B000089B0360E6E700BFFCC401000000F07F6A
:1014C000FFFFEF477DF8B98FCE3386400F02002033
:1014D0002DE9F043DFF8E4808BB004460D4601F0BF
:1014E00047F998F90030013306460F4633D02046BD
:1014F000294618F045F970B32CA3D3E90023204600
:10150000294618F081FF814650BB2AA3D3E9002366
:101510002046294618F05AFFE8B198F90030204AD1
:10152000CDF82090002000210426022BCDE90445AF
:10153000CDE902450096CDE90601019229D0684621
:1015400018F024F928B3089B1BB118F0A3FA089BE4
:101550000360DDE90667304639460BB0BDE8F0832D
:101560000F4A98F90030019203210022CDE9044589
:10157000CDE90245009108922BB90A4B4FF0604229
:10158000CDE90623DBE708490020022BCDE906015F
:10159000D5D118F07FFA22230360D4E7AFF300809F
:1015A00004C50100FFFFEF470000F07FEF39FAFEAE
:1015B000422E864051302DD5104987C00F020020A1
:1015C0002DE9F04FDFF82C938DB006460F461446F8
:1015D0001D4601F09DFC99F90080B8F1FF3FCDE96F
:1015E000000136D022462B462046294618F016FF29
:1015F000834670BB32463B463046394618F00EFFF4
:101600008246002840F0A28030463946002200235E
:1016100018F0D2FE10B3002200232046294618F00D
:10162000CBFE8346002867D09FEDA77B0122AC4B01
:10163000CDF828A00292CDE90467CDE906458DEDED
:10164000087B0393B8F1000F41D09FEDA17B8DED96
:10165000007BDDE900010DB0BDE8F08FDDE90001A0
:1016600018F08EF88046002800F08D804FF0000AB8
:101670004FF0000BDDE9000152465B4618F09CFE7E
:101680000028E6D03046394618F07AF80028E0D035
:101690002046294618F074F80028DAD099F900306D
:1016A0008F4A039204210022022BCDE90467CDE981
:1016B0000645CDE908AB02910A9203D002A818F0C2
:1016C00065F850B918F0E6F92223036005E002A896
:1016D00018F05CF8002800F09B800A9B1BB118F002
:1016E000D9F90A9B03609DED087B8DED007BDDE958
:1016F00000010DB0BDE8F08F2046294618F040F8F3
:101700000028A6D0002200232046294618F05EFEBD
:1017100000289ED0724A99F90030CDF828B00121F6
:10172000CDE90467CDE90645CDE90212002B74D05E
:101730006C490020022BCDE9080172D118F0AAF9FA
:10174000212303600A9B002BCDD0C8E70022002391
:101750002046294618F030FE00283FF47AAF624B4D
:101760005F49CDF828B000220120B8F1020FCDE981
:1017700004670290CDE90645CDE908230391A6D17F
:10178000CDE9002365E73046394617F0F9FF002818
:101790003FF46CAF2046294617F0F2FF00283FF4D3
:1017A00065AFDDE900231046194618F037FE99F9B8
:1017B00000A000286BD10323DFF824C10A9029463A
:1017C000204602930022494BCDF80CC0CDE90645D6
:1017D000CDE9046718F088FB04460D46BAF1000F06
:1017E00025D1DFF814B14FF0604A002200233046C3
:1017F0003946CDE908AB18F0E9FD38BB02A817F06F
:10180000C5FF00289ED118F045F92223036099E70F
:1018100018F040F9212303605FE79FED2B7B8DEDEE
:10182000087B02A817F0B2FF00288BD186E79FED56
:101830002A7B00220023304639468DED087B18F0C4
:10184000C5FDA0B9BAF1020FDDD0D7E72046294681
:1018500017F0A4FF22462B4618F0AEFDA0B9244B8A
:1018600099F900A04FF06042CDE90823EAE720464D
:10187000294617F093FF22462B4618F09DFD18B914
:10188000184B0022CDE9082399F900A0DAE70122DC
:10189000134BCDF828800292CDE90467CDE90645C7
:1018A0000393BAF1000FB8D0002200231046194666
:1018B00018F044FCBAF1020FCDE908013FF43EAF45
:1018C000AFE700BFAFF300800000000000000000A1
:1018D000000000000000F03F000000000000F07F6A
:1018E0001CC501000000F0FF0000F03F0000E03FD9
:1018F000FFFFEFC70F020020FFFFEF4700000000CF
:101900002DE9F84FC44E21F00043B34204460D4682
:101910000DDD03F1404303F58013034340F0B9802C
:10192000002940F3408100200021BDE8F88FBB4E24
:10193000B34208DCBA4A934200F3B5809CA1D1E9D6
:101940000001BDE8F88F0029C0F2708102460B4605
:101950000020B44918F010F90022B34B18F0C4FA73
:1019600004460D4617F0DCF893A3D3E9002389461B
:1019700080462946204618F0B7FA91A3D3E9002300
:1019800018F0FCF822462B4618F0AEFA8EA3D3E9E5
:10199000002318F0F1F822462B4618F0A5FA8CA384
:1019A000D3E9002318F0EAF822462B4618F09CFAF7
:1019B00089A3D3E9002318F0DFF822462B4618F05C
:1019C00093FA87A3D3E9002318F0D8F822462B46D0
:1019D00018F08AFA84A3D3E9002382468B46204676
:1019E000294618F081FA82A3D3E9002318F0C4F83D
:1019F00022462B4618F078FA7FA3D3E9002318F08B
:101A0000BDF822462B4618F06FFA7DA3D3E90023D8
:101A100018F0B2F822462B4618F066FA0022814BE5
:101A200018F0ACF802460B465046594618F086FBB3
:101A300042464B4618F058FA002682468B463246FC
:101A40004B463046494618F04FFA02460B462046B0
:101A5000294618F091F8324604460D464B4640465A
:101A6000494618F08BF802460B462046294618F0E6
:101A700065FB02460B465046594618F07FF8324641
:101A80004B4618F07BF802460B4618F077F8BDE895
:101A9000F88F02460B4618F06FF802460B4618F016
:101AA0004DFBBDE8F88F02460B4618F01DFA42A325
:101AB000D3E9002306460F4618F016FA40A3D3E9EF
:101AC000002318F05BF832463B4618F00DFA3EA3AF
:101AD000D3E9002318F050F832463B4618F004FAD8
:101AE0003BA3D3E9002318F049F832463B4618F0EF
:101AF000FBF939A3D3E9002318F03EF832463B4600
:101B000018F0F2F936A3D3E9002318F037F832467B
:101B10003B4618F0E9F934A3D3E90023804689460F
:101B20003046394618F0E0F931A3D3E9002318F024
:101B300023F832463B4618F0D7F92FA3D3E9002308
:101B400018F01CF832463B4618F0CEF92CA3D3E926
:101B5000002318F011F832463B4618F0C5F9002270
:101B6000304B18F00BF802460B464046494618F039
:101B7000E5FA22462B4618F0B7F902460B4622A199
:101B8000D1E9000117F0F8FF02460B46204629462E
:101B900017F0F2FF02460B4605A1D1E9000117F04C
:101BA000EBFFBDE8F88F1AA1D1E9000179E700BF8A
:101BB000182D4454FB21F93F09F7FD0DE13D023F8B
:101BC00088B20175E0EF493F3B8F68B52882A43F9A
:101BD0005544880E55C1C93F7D6FEB0312D6D43FE3
:101BE000555555555555C53F82922EB1C5B8B33F91
:101BF00059018D1B6C06E63FC88A599CE52A0040B6
:101C00004B2D8A1C273A0340075C143326A6913CCF
:101C1000182D4454FB210940FFFFEF3FFFFFDF3F3A
:101C20000000603C0000F03F0000E03F00225C4B01
:101C300017F0A4FF00225B4B18F056F940A3D3E93C
:101C4000002304460D4618F04FF93FA3D3E90023C3
:101C500017F094FF22462B4618F046F93CA3D3E92F
:101C6000002317F089FF22462B4618F03DF93AA3CE
:101C7000D3E9002317F082FF22462B4618F034F9EF
:101C800037A3D3E9002317F077FF22462B4618F03D
:101C90002BF935A3D3E9002317F070FF22462B461A
:101CA00018F022F9804689462046294616F038FF6A
:101CB0002FA3D3E9002306460F462046294618F0F5
:101CC00013F92DA3D3E9002317F056FF22462B4624
:101CD00018F00AF92AA3D3E9002317F04FFF224690
:101CE0002B4618F001F928A3D3E9002317F044FF8D
:101CF00022462B4618F0F8F80022294B17F03EFF39
:101D000002460B464046494618F018FA32463B4612
:101D100018F0EAF81EA3D3E9002317F02DFF32468E
:101D20003B4617F02BFF02460B4617F027FF0246F3
:101D30000B4619A1D1E9000117F01EFFB1E600BF63
:101D400009F7FD0DE13D023F88B20175E0EF493F23
:101D50003B8F68B52882A43F5544880E55C1C93FC2
:101D60007D6FEB0312D6D43F555555555555C53F9C
:101D700082922EB1C5B8B33F59018D1B6C06E63F68
:101D8000C88A599CE52A00404B2D8A1C273A0340FB
:101D9000075C143326A6913C182D4454FB210940BE
:101DA0000000F03F0000E03F414A91422DE9F84336
:101DB00004460D4637DD3F4A91420B4608DD02F1ED
:101DC000795291423DDD024617F0D8FEBDE8F88316
:101DD00001F1404202F5801202432ED0B1F1804F52
:101DE00037DC0022344B17F0C7FE02460B46044690
:101DF0000D4617F0C3FE224606460F462B462046E8
:101E0000294618F071F802460B463046394617F05D
:101E1000B5FE16F085FE22462B4617F0AFFEBDE854
:101E2000F843FFF7C1B802460B4617F0A5FE02467D
:101E30000B4618F083F9BDE8F88300200021BDE8C7
:101E4000F88300F00DFE18A3D3E9002317F096FEE7
:101E5000F1E7024618F048F80022174B17F08CFE05
:101E600016F05EFE2246804689462B4620462946CD
:101E700017F084FE224606460F462B46404649464A
:101E800017F07CFE02460B4600200B4918F056F96D
:101E90000B4602463946304617F06EFEBDE8F84361
:101EA00000F0DEBDAFF30080EF39FAFE422EE63FD0
:101EB000FFFFEF3FFFFFAF410000F03F00000000D9
:101EC0002DE9F04FAE4B21F000479F4287B004460A
:101ED0000D4611DD07F1404707F5801703463B43E8
:101EE00021D002460B4617F047FE02460B4618F07B
:101EF00025F907B0BDE8F08FA24B9F420E4629DCC2
:101F0000B7F1795F80F2468181A3D3E9002317F00E
:101F100035FE00229C4B18F077FAD8B120462946AE
:101F200007B0BDE8F08F7CA3D3E9002317F0DCFFF6
:101F30007BA3D3E9002306460F462046294617F027
:101F4000D3FF02460B463046394617F017FE07B05E
:101F5000BDE8F08F2046294615F046FF02460B46A5
:101F60000020894917F008FE0022884B17F0BCFFBB
:101F70006DA3D3E9002304460D4617F0B5FF6CA30B
:101F8000D3E9002317F0FAFD22462B4617F0ACFFE9
:101F900069A3D3E9002317F0EFFD22462B4617F083
:101FA000A3FF67A3D3E9002317F0E8FD22462B46E1
:101FB00017F09AFF64A3D3E9002317F0DDFD224652
:101FC0002B4617F091FF62A3D3E9002317F0D6FD4B
:101FD00022462B4617F088FF5FA3D3E90023CDE903
:101FE00000012046294617F07FFF5DA3D3E90023B7
:101FF00017F0C2FD22462B4617F076FF5AA3D3E90D
:10200000002317F0BBFD22462B4617F06DFF58A3A7
:10201000D3E9002317F0B0FD22462B4617F064FFEA
:10202000594B002217F0AAFD82468B4620462946CE
:10203000CDE902AB16F074FD554B9F4280468946B0
:1020400000F3198102460B4617F098FDDDE90223E3
:10205000CDE90401DDE9000118F070F802460B46F5
:10206000DDE9040117F040FF4FF0000ACDE900015F
:1020700052464B465046494617F036FF02460B463D
:102080002046294617F078FD524604460D464B4639
:102090004046494617F072FD02460B462046294647
:1020A00018F04CF802460B4617F068FD02460B4646
:1020B0001BA1D1E9000117F05FFD02460B46DDE9E7
:1020C000000117F059FD524604460D464B46504656
:1020D000494617F053FD02460B4627A1D1E90001FE
:1020E00017F04AFD02460B462046294617F044FDEC
:1020F00002460B4620A1D1E9000117F03DFD002E5C
:102100003FF7F7AE01F100431946F2E6AFF3008066
:102110009C7500883CE4377E182D4454FB21F93F20
:10212000075C143326A6913C09F7FD0DE13D023F03
:1021300088B20175E0EF493F3B8F68B52882A43F24
:102140005544880E55C1C93F7D6FEB0312D6D43F6D
:10215000555555555555C53F82922EB1C5B8B33F1B
:1021600059018D1B6C06E63FC88A599CE52A004040
:102170004B2D8A1C273A0340182D4454FB21E93F7C
:10218000FFFFEF3FFFFFDF3F0000F03F0000E03FB9
:102190003233EF3F02460B4617F0A6FE4BA3D3E9BE
:1021A000002306460F4617F09FFE4AA3D3E90023FB
:1021B00017F0E4FC32463B4617F096FE47A3D3E9FE
:1021C000002317F0D9FC32463B4617F08DFE45A39D
:1021D000D3E9002317F0D2FC32463B4617F084FEC9
:1021E00042A3D3E9002317F0C7FC32463B4617F061
:1021F0007BFE40A3D3E9002317F0C0FC32463B46E8
:1022000017F072FE3DA3D3E900238046894630468D
:10221000394617F069FE3BA3D3E9002317F0ACFC65
:1022200032463B4617F060FE38A3D3E9002317F08F
:10223000A5FC32463B4617F057FE36A3D3E90023F0
:1022400017F09AFC32463B4617F04EFE00221E4B1A
:1022500017F094FC02460B464046494617F06EFFC5
:1022600022462B4617F040FE22462B4617F086FCEE
:1022700007B0BDE8F08F52465B46DDE9000117F07C
:102280005DFF42464B4617F02FFE42464B4617F085
:1022900075FC02460B4617F071FC07A3D3E9002337
:1022A00017F06AFC02460B4605A1D1E9000117F0C0
:1022B00063FC24E7AFF30080075C143326A6913C4F
:1022C000182D4454FB21F93F0000F03F09F7FD0DA4
:1022D000E13D023F88B20175E0EF493F3B8F68B5B1
:1022E0002882A43F5544880E55C1C93F7D6FEB033A
:1022F00012D6D43F555555555555C53F82922EB1EE
:10230000C5B8B33F59018D1B6C06E63FC88A599C7E
:10231000E52A00404B2D8A1C273A034000000000AC
:102320002DE9F84F1D465342134325F00049DFF8CD
:10233000C8C149EAD3736345144606460F4626D8FA
:10234000C0F1000848EA000821F0004A4AEAD878BB
:10235000E04503468B461AD805F1404808F5801839
:1023600058EA0208AE4643D04FEAA57808F00208C2
:102370005AEA030348EAD17811D1B8F1020F55D0D7
:10238000B8F1030F09D14AA1D1E9000105E03246B5
:102390003B462046294617F0F1FBBDE8F88F59EA85
:1023A000020329D0E1452ED0E24525D0AAEB090948
:1023B0004FEA2959B9F13C0F3CDC002D3EDA19F106
:1023C0003C0F3BDA00200021B8F1010F4ED0B8F1EC
:1023D000020F3ED0B8F1000FDFD037A3D3E90023BE
:1023E00017F0CAFB36A3D3E9002317F0C5FBD4E7E7
:1023F000BDE8F84FFEF744BBBBF1000F12DB32A182
:10240000D1E90001C9E7CA4534D0B8F1020F0DD0B7
:10241000B8F1030FB7D0B8F1010F4FF0000036D07C
:102420000021BAE72AA1D1E90001B6E724A1D1E948
:102430000001B2E724A1D1E90001C5E722462B46FD
:102440003046394617F07AFE15F0CEFCFEF718FB41
:10245000BAE719A3D3E9002317F08EFB02460B4617
:1024600017A1D1E9000117F087FB96E701F10043BE
:10247000194692E7B8F1020F14D0B8F1030F0DD04E
:10248000B8F1010F06D014A1D1E9000185E74FF0A2
:10249000004182E712A1D1E900017EE712A1D1E952
:1024A00000017AE712A1D1E9000176E7AFF30080DD
:1024B000182D4454FB2109C0075C143326A6A13C07
:1024C000182D4454FB210940182D4454FB21F93F99
:1024D000182D4454FB21F9BF182D4454FB21E93F2A
:1024E000182D4454FB21E9BFD221337F7CD902C08F
:1024F000D221337F7CD902400000F07F0000000031
:1025000043422DE9F047034321F000463C4A46EAA6
:10251000D373934204460D462AD8964240D0394B95
:102520009E428A462EDD384B9E4235463FDD33467D
:102530000246314617F022FB224606460F462B463E
:1025400000202F4917F018FB02460B46304639464B
:1025500017F0F4FDFEF728FD00222C4B17F0C4FC09
:10256000BAF1000F0CDA01F100431946BDE8F0871B
:1025700002460B4617F000FB02460B4617F0DEFD45
:10258000BDE8F0871CA3D3E9002317F0F7FA002277
:10259000002317F039FF48B120462946BDE8F087EF
:1025A0000022002317F0CAFDBDE8F0873546224619
:1025B0002B462046294617F0E1FA22462B460646CE
:1025C0000F4617F091FC2246804689462B46002094
:1025D0000B4917F0D1FA02460B464046494617F020
:1025E000ADFD32463B4617F0C9FAFEF7DDFC00228E
:1025F000064B17F079FCB3E79C7500883CE4377E06
:102600000000F03FFFFF2F3EFFFFDF3F0000E03FF5
:102610002DE9F8434E4B21F000449C4206460F46FC
:102620001BDC4C4B9C4222DD4B4B9C4254DD4B4B04
:102630009C4246DD4A4B9C426FDD01339C4269D08F
:1026400041A3D3E900231046194617F04DFC064676
:102650000F4630463946BDE8F88302460B4617F070
:1026600043FC06460F4630463946BDE8F88315F070
:10267000BBFB02F04DFC00223A4B8046894617F026
:102680007DFAB4F1725F06460F46ECDB42464B46DC
:102690004046494617F028FC32463B4604460D4664
:1026A0003046394617F06AFA02460B46204629465C
:1026B00017F044FD00222B4B17F060FA06460F4638
:1026C000D1E715F091FB00F053F80022264B17F0EC
:1026D0000BFC06460F46C6E715F086FB00F048F8EF
:1026E0000022214B06460F4617F0FEFB32460446F9
:1026F0000D463B4600201C4917F020FD02460B46C4
:102700002046294617F03AFA06460F463046394623
:10271000BDE8F883154B984292D83046394615F0FB
:1027200063FB0022104B17F0DFFB00F021F80022C2
:1027300004460D460C4B17F0D7FB22462B4617F0EC
:10274000D3FB06460F468EE79C7500883CE4377E37
:10275000FFFFEF7F422ED63FFFFF3540412E8640E0
:10276000CD3386400000F03F0000E03F7DF8B98F98
:102770002DE9F047B04F21F00042BA4284B0044640
:102780000D464FEAD17610D9AC4FBA4240F28A805A
:10279000C1F313030343024640F0F180002E7ED0C4
:1027A0000020002104B0BDE8F087A54B9A4200F25A
:1027B000B680A44B9A4240F2D1804FF0000A2246E4
:1027C0002B462046294617F08FFB85A3D3E900232B
:1027D00006460F4617F088FB83A3D3E9002317F0C2
:1027E000CBF932463B4617F07FFB81A3D3E90023A8
:1027F00017F0C4F932463B4617F076FB7EA3D3E9C7
:10280000002317F0B9F932463B4617F06DFB7CA365
:10281000D3E9002317F0B2F932463B4617F064FBC8
:1028200002460B462046294617F0A6F902460B46FB
:1028300006460F462046294617F056FB8046894635
:10284000BAF1000F00F0AB8032463B4600204FF05B
:10285000804117F091F902460B464046494617F071
:102860006DFC02460B46DDE9020117F085F9DDE952
:10287000002317F081F90B4602467349002017F038
:102880007BF96FF47F739A4580F2A3800AF57A7A18
:1028900001EB0A5100224FF0B87317F025FB04B08A
:1028A000BDE8F08758A3D3E9002317F0ADFD002859
:1028B0006BD157A3D3E900232046294617F086FDA4
:1028C00000287FF46DAF614953A3D3E9002301EBE6
:1028D000C6062046294617F007FBD6E9002317F065
:1028E0004DF917F0B1FD824617F094FA4CA3D3E9E5
:1028F000002306460F4617F0F7FA02460B4620461D
:10290000294617F039F948A3D3E90023CDE900019E
:102910003046394617F0E8FACDE9020115E04C4B94
:102920009A42D0D84B4BF4002344D3E9002317F04C
:1029300023F9494B234493ED007BCDE900018DED54
:10294000027BC6F1010AAAEB060ADDE90223DDE9F2
:10295000000117F011F904460D4630E734A3D3E91E
:10296000002317F00BF90022374B17F04DFDA8B3E9
:10297000204629460022344B17F000F98FE70B461A
:1029800017F0FCF804B0BDE8F08729A3D3E90023D1
:102990001046194617F0A8FA04B0BDE8F087304693
:1029A000394600224FF0804317F0E6F802460B4606
:1029B0004046494617F0C2FB22462B4617F0DCF88A
:1029C00002460B460020204917F0D6F804B0BDE8B7
:1029D000F08701EB0A5104B0BDE8F0878246EEE6CD
:1029E000D0A4BE726937663EF16BD2C541BDBB3E15
:1029F0002CDE25AF6A56113F93BDBE166CC1663FF3
:102A00003E5555555555C53FEF39FAFE422E864085
:102A100051302DD5104987C0FE822B654715F73FF1
:102A20000000E0FE422EE63F763C7935EF39EA3D84
:102A30009C7500883CE4377E412E8640FFFFEF7F87
:102A4000422ED63FFFFF2F3E0000F03F28B201008C
:102A5000B1A2F03F38B2010048B20100000000000E
:102A60002DE9F04FB1F5801F85B006460F460B46A5
:102A700080F2D08021F00042024300F0DA80002989
:102A8000C0F2E9800022D64B17F02EFAD54A0B4649
:102A9000934206460F466FF0350E00F3C180C3F334
:102AA000130505F5152C0CF6647C0CF4801C8CF0D9
:102AB0007F5282F440121C1542EA0507A4F2FF344B
:102AC00074440022C84B3046394604EB1C5417F0BE
:102AD00053F8AB1CC3F31303022B82468B464FF013
:102AE000000240F3AF804FF0804317F047F80246F2
:102AF0000B465046594617F021FB064620460F4626
:102B000017F088F93246CDE902013B463046394696
:102B1000CDE9006717F0E8F902460B468046894682
:102B200017F0E2F99AA3D3E9002306460F4617F0FF
:102B3000DBF999A3D3E9002317F020F832463B468E
:102B400017F0D2F996A3D3E9002317F017F832460D
:102B50003B4617F0C9F994A3D3E9002317F00EF808
:102B600042464B4617F0C0F991A3D3E900238046B3
:102B700089463046394617F0B7F98FA3D3E90023C9
:102B800016F0FCFF32463B4617F0AEF98CA3D3E9B2
:102B9000002316F0F3FF32463B4617F0A5F90B462B
:102BA00002464946404616F0E9FFA5F5C223C5F5A1
:102BB000D725A3F27A4351351D43002D06460F4613
:102BC00040F387800022894B5046594617F08CF914
:102BD00052465B4617F088F902460B468046894606
:102BE0003046394616F0CAFFDDE9002317F07CF9BC
:102BF00006460F46002C40F0818002460B464046B8
:102C0000494616F0B9FF02460B465046594616F0A3
:102C1000B3FF0BE0734A93424FF0000E7FF73FAFD4
:102C200032463B463046394616F0A8FF05B0BDE8AF
:102C3000F08F0022002300206D4917F07FFA05B0C5
:102C4000BDE8F08F002317F0B7FB60B1002C7CD1FA
:102C500000200021EAE7024616F08EFF0022002342
:102C600017F06CFAE2E758A3D3E90023504659461F
:102C700017F03AF902460B4600205C4916F07CFF3B
:102C8000524606460F465B465046594617F02CF909
:102C900002460B463046394617F026F906460F46DF
:102CA0002CB3204617F0B6F849A3D3E90023804699
:102CB000894617F019F948A3D3E9002304460D46C5
:102CC0004046494617F010F902460B463046394651
:102CD0002CE002460B465046594616F04DFFDDE902
:102CE000002317F001F906460F46002C47D1324663
:102CF0003B465046594616F03FFF97E734A3D3E9C9
:102D00000023DDE9020117F0EFF833A3D3E9002334
:102D100004460D46DDE9020117F0E6F832463B466F
:102D200016F02CFF02460B464046494616F024FF9B
:102D300052465B4616F020FF02460B4620462946C7
:102D400016F01AFF05B0BDE8F08F204617F062F8C4
:102D50001FA3D3E9002306460F4617F0C5F81EA3AC
:102D6000D3E9002304460D463046394617F0BCF837
:102D700002460B462046294616F000FF56E7DDE9DD
:102D8000028913A3D3E900234046494691E700BFD7
:102D900044523EDF12F1C23FDE03CB966446C73F8A
:102DA000599322942449D23F935555555555E53FA3
:102DB0009FC678D0099AC33FAF788E1DC571CC3FAE
:102DC00004FA97999999D93F555555555555D53F79
:102DD0000000E0FE422EE63F763C7935EF39EA3DD1
:102DE00000005043FFFFEF7F0000F03F0000E03F96
:102DF000000050C300000000B1F5801F2DE9F8432A
:102E000004460D460B4619DA21F00042024359D020
:102E100000295FDB00223A4B17F066F8394A0D466D
:102E20002B46934204466FF035010CDD22462B46BB
:102E30002046294616F0A2FEBDE8F883314A9342A7
:102E40004FF00001F2DC1815A0F2FF3008444FEA01
:102E5000D0794844C3F3130816F0DCFFC9F57F733B
:102E6000033348EA035506460F4620462946FFF736
:102E7000F7FD1DA3D3E90023804689463046394635
:102E800017F032F81AA3D3E9002304460D46404652
:102E9000494617F029F802460B462046294616F007
:102EA0006DFE15A3D3E9002304460D46304639468E
:102EB00017F01AF802460B462046294616F05EFE29
:102EC000BDE8F8830022002300200F4917F036F9EF
:102ED000BDE8F883024616F04FFE0022002317F0EB
:102EE0002DF9A9E7AFF30080362BF111F3FE593D20
:102EF0000EE526157BCBDB3F00609F501344D33F8C
:102F000000005043FFFFEF7F000050C300000000AF
:102F10002DE9F04F23F0004555EA020493B00DD09F
:102F20006B4E21F00044B4420F4682460BDD04F1A3
:102F3000404404F5801454EA0A0350D16549002046
:102F400013B0BDE8F08F9B46944647D0B542EEDC07
:102F50005F4EB5425DD0002F80468946CDE9002303
:102F60005BDB0026BCF1000F0ED1594B9D423FD0D8
:102F7000584B9D4200F08880BBF1804F00F09C8050
:102F8000554B9B4500F0B8834046494614F02CFF52
:102F9000BAF1000F06D1002C59D04E4B27F0404219
:102FA0009A4254D0FF0F013F56EA070373D04B4BB0
:102FB0009D4240F39B8003F104739D4240F33E84A5
:102FC000474B9C4272DDBBF1000F72DD3EA3D3E99B
:102FD00000231046194616F087FFB1E728B1414893
:102FE00013B0BDE8F04F16F0D3BBA542F7DCAFE756
:102FF00004F1404303F5801353EA0A039ED0384B93
:103000009C4240F38383BBF1000F52DBDDE90001FA
:1030100096E7BCF1000F9ED089E7334B9D4231DC2F
:10302000A3F154739D429CDD2B15A3F2FF33142BA7
:1030300040F3A583C3F134032CFA03F202FA03F33D
:1030400063458ED102F00102C2F102068AE7BBF1AC
:10305000000F05DA02460B4600201E4917F06EF8F5
:10306000002FBFF66DAF04F1404404F5801454EA1C
:10307000060300F03F84012E7FF462AF01F10043AC
:1030800019465DE702266DE7BBF1000FC0F24883E9
:103090004046494654E742464B461046194616F00C
:1030A0006BFD02460B4617F049F849E7BBF1000FEC
:1030B0008CDB0020002143E742464B464046494610
:1030C00016F012FF3CE700BF9C7500883CE4377E99
:1030D0000000F07F0000F03F0000E03F0000E04112
:1030E000FFFFEF3F50BA0100FFFF3F43B4F5801FE1
:1030F00080F261830022D24B16F0F6FE6FF0340CA2
:103100000C462315CF4DC4F31302A3F2FF3342F054
:103110007F546344AA420B9344F4401440F33F832A
:10312000C94B9A4240F304849FEDAF7B8DED087B41
:103130008DED107B9FEDAE7B0B9B8DED067B013300
:103140000B93A4F580140025DDE906232146824671
:1031500016F012FDA346DDE9062380468946504657
:103160002146CDE90CAB16F009FD02460B460020C6
:10317000B64916F0E3FF0A460146CDE90E121346A2
:1031800049460246404616F0AFFE631043F0005336
:1031900082468B4603F500238C46CDE904AB5919D2
:1031A000D3460023CDE902BC0293DDE902AB002047
:1031B00004460D4602460B465046594616F094FE0C
:1031C00002460B464046494616F0D6FCDDE906238A
:1031D000804689462046294616F0CEFC02460B461C
:1031E000DDE90C0116F0C8FC52465B4616F07CFE89
:1031F00002460B464046494616F0BEFCDDE90E236A
:1032000016F072FEDDE90445CDE9060122462B46A3
:103210002046294616F068FE77A3D3E9002304462A
:103220000D4616F061FE76A3D3E9002316F0A6FC46
:1032300022462B4616F058FE73A3D3E9002316F05E
:103240009DFC22462B4616F04FFE71A3D3E90023C6
:1032500016F094FC22462B4616F046FE6EA3D3E9E8
:10326000002316F08BFC22462B4616F03DFE6CA385
:10327000D3E9002316F082FC2246804689462B467D
:103280002046294616F030FE02460B464046494687
:1032900016F02AFE524604460D465B46DDE904015F
:1032A00016F06CFCDDE9062316F01EFE22462B46C6
:1032B00016F064FC5246804689465B4650465946A5
:1032C00016F012FE0022624BCDE90C0116F056FCFE
:1032D00042464B4616F052FC02980D4604462246E2
:1032E0002B465046594616F0FFFD002282468B467B
:1032F000574B2046294616F03FFCDDE90C2316F01B
:103300003BFC02460B464046494616F035FCDDE9DB
:10331000042316F0E9FD2246804689462B46DDE966
:10332000060116F0E1FD02460B464046494616F0FE
:1033300025FC8046894602460B465046594616F003
:103340001DFC029838A3D3E9002304460D4616F06D
:10335000CBFD5246CDE904015B462046294616F0D6
:103360000BFC02460B464046494616F005FC30A3CE
:10337000D3E9002316F0B8FD2FA3D3E9002380463C
:1033800089462046294616F0AFFD02460B464046C8
:10339000494616F0F3FBDDE9102316F0EFFB8046FB
:1033A0000B98894616F036FD424682468B464B46C0
:1033B000DDE9040116F0E2FBDDE9082316F0DEFB8F
:1033C00052465B4616F0DAFB029852465B460446CC
:1033D0000D4616F0D1FBDDE9082316F0CDFBDDE943
:1033E000042337E0AFF3008000000000000000007D
:1033F000000000000000F03FEF4E454A287ECA3F23
:1034000065DBC9934A86CD3F01411DA96074D13F58
:103410004D268F515555D53FFFAB6FDBB66DDB3F6A
:10342000033333333333E33F000000E009C7EE3F9B
:10343000FD033ADC09C7EE3FF5015B14E02F3EBE09
:10344000000040438E98030079B60B000000F03F67
:103450000000084016F090FB0B46024649464046E5
:1034600016F08AFB013E56EA070382468B4600F0BF
:103470005E819FEDD37B8DED047BDDE9001200239F
:103480000E461746CDE902670293DDE9026708465A
:103490003B461146324616F06FFB22462B4616F08D
:1034A00023FDDDE90023804689465046594616F043
:1034B0001BFD02460B464046494616F05FFB32466E
:1034C000804689463B4620462946CDE9008916F0CC
:1034D0000BFD0B46024606460F464046494616F08F
:1034E0004DFBD14B994204460D468A4640F3248158
:1034F00001F13F4303F5E003034340F0FF81B2A332
:10350000D3E90023DDE9000116F038FB324680469E
:1035100089463B462046294616F02EFB02460B46BE
:103520004046494616F070FF002840F0E781A84663
:103530004FEA2853A3F2FE324FF480131341534451
:10354000C3F30A52B94DA2F2FF321541C3F313047B
:1035500023EA05010020C2F1140B44F48014BAF1EF
:10356000000F02460B4644FA0BFB30463946B8BF03
:10357000CBF1000B16F000FB06460F463246DDE9A4
:1035800000013B4616F0FAFA4FEA0B5A0D460024AA
:103590008FA3D3E900232046294616F0A5FC324626
:1035A000804689463B462046294616F0E5FA024603
:1035B0000B46DDE9000116F0DFFA87A3D3E900230B
:1035C00016F092FC86A3D3E9002306460F46204658
:1035D000294616F089FC02460B463046394616F05D
:1035E000CDFA06460F4602460B464046494616F0BF
:1035F000C5FA42464B4604460D4616F0BDFA024651
:103600000B463046394616F0B7FA224680468946C0
:103610002B462046294616F067FC73A3D3E9002306
:1036200006460F4616F060FC71A3D3E9002316F09E
:10363000A3FA32463B4616F057FC6FA3D3E90023AA
:1036400016F09CFA32463B4616F04EFC6CA3D3E9CA
:10365000002316F091FA32463B4616F045FC6AA369
:10366000D3E9002316F08AFA32463B4616F03CFCBA
:1036700002460B462046294616F07EFA06460F46BD
:1036800002460B462046294616F02EFC0022CDE9C4
:1036900000014FF080433046394616F06DFA02467D
:1036A0000B46DDE9000116F049FD424606460F468D
:1036B0004B462046294616F017FC42464B4616F06C
:1036C0005DFA02460B463046394616F055FA224658
:1036D0002B4616F051FA02460B460020544916F0CC
:1036E0004BFA8A44BAF5801FC0F232815146DDE9B7
:1036F000042316F0F9FB23E4002FFFF645AC404607
:10370000494613B0BDE8F04F15F00ABABBF1000FFF
:10371000BFF6CFACDDE90034184604F100410FE4F8
:1037200042464B460020424916F008FD08E49FED52
:10373000387B8DED047BA0E63E4B21F00048984598
:1037400040F3EA803C4B0B4403430AD132463B46EC
:1037500016F012FADDE9002316F04CFE00283FF4C3
:10376000E7AEDDE904012CA3D3E9002316F0BCFB8E
:1037700029A3D3E9002316F0B7FBFFF7E1BBBCF1A7
:10378000000F40F0D280C3F1140345FA03F202FAAD
:1037900003F3AB4200F0E0806646FFF7E9BB9FED24
:1037A000207B8DED087B8DED107B9FED057B00254B
:1037B0008DED067BC8E44FF0000CA2E4AFF300806F
:1037C000000000000000F03FFE822B654715973C8B
:1037D00000000000432EE63FEF39FAFE422EE63F9E
:1037E000396CA80C615C20BED0A4BE726937663EFD
:1037F000F16BD2C541BDBB3E2CDE25AF6A56113FF1
:1038000093BDBE166CC1663F3E5555555555C53FD7
:10381000000000000000F0BF59F3F8C21F6EA501C0
:103820000000000000000000FFFF8F40FFFF0F00BE
:103830000000F03FFFCB904000346F3F5A4B9C425A
:103840007FF734AC594B9C423FF7BDAB0022574B3E
:1038500016F092F944A3D3E9002304460D4616F06E
:1038600043FB43A3D3E9002382468B4620462946E7
:1038700016F03AFB0022CDE902014D4B20462946C5
:1038800016F032FB02460B463BA1D1E9000116F0CF
:1038900073F922462B4616F027FB02460B46002002
:1038A000444916F069F92246804689462B4620464F
:1038B000294616F019FB02460B464046494616F0CB
:1038C00013FB2FA3D3E9002316F00EFB02460B4691
:1038D000DDE9020116F050F902460B4680468946A2
:1038E0005046594616F04AF9002004460D46524605
:1038F0005B46AFE502460B46FFF7CFBBDDE90401AF
:1039000021A3D3E9002316F0EFFA1FA3D3E9002384
:1039100016F0EAFAFFF714BB264B98453FF708AEBE
:10392000DDE902239246934631E60026FFF72CBBE1
:103930009FED177B8DED087B9FED177B8DED107B49
:103940009FED177B4FF480258DED067BFFF7FCBBC9
:103950005A4601F029FDCAE602F00102C2F1020650
:10396000FFF706BBAFF30080000000604715F73F8C
:1039700044DF5DF80BAE543E555555555555D53F72
:10398000FE822B654715F73F9C7500883CE4377E27
:103990000000004003B8E23F06D0CF43EBFD4C3EB1
:1039A000000000000000F83FFEFFEF3F0000F03F86
:1039B0000000D03F0000E03F2DE9F047CA4B21F066
:1039C00000479F4290B08046894640F38F80C74BA6
:1039D0009F420C46924626DC0029B9A3D3E9002376
:1039E00040F38F8016F0C8F8C14B9F4204460D4645
:1039F00000F04781B4A3D3E9002316F0BDF80246D6
:103A00000B46CAE900232046294616F0B5F8AEA3B6
:103A1000D3E9002316F0B0F80125CAE902012846CF
:103A200010B0BDE8F087B34B9F4240F38980B24BA2
:103A30009F4200F31C813D15A5F21645A7EB0553E7
:103A400019461F46064616F0FFFC16F0E3F98046BD
:103A5000894642464B4630463946CDE90A8916F03A
:103A60008BF80022A54B16F03FFA8946804616F0E7
:103A7000EBFC16F0CFF906460F4632463B46404671
:103A80004946CDE90C6716F077F800229B4B16F0FB
:103A90002BFA00220023CDE90E0116F08DFC002840
:103AA00000F06081002330463946002216F084FC85
:103AB000002814BF01230223914A019202212A46C1
:103AC00000910AA8514600F087FB002C054614DA45
:103AD000DAF80420DAF80C3002F1004203F1004376
:103AE0004542CAF80420CAF80C3006E00020002144
:103AF000C2E90089C2E902010025284610B0BDE8EC
:103B0000F08716F03BF87A4B9F4204460D4600F0D2
:103B10000B816DA3D3E9002316F030F802460B4663
:103B2000CAE900232946204616F026F866A3D3E901
:103B3000002316F023F84FF0FF35CAE90201DCE755
:103B400014F052F962A3D3E900238046894616F0A7
:103B5000CBF900226B4B16F011F816F075FC0546F8
:103B600016F058F956A3D3E90023CDE9060116F063
:103B7000BBF902460B464046494615F0FDFF52A3ED
:103B8000D3E9002380468946DDE90601CDE90289B3
:103B900016F0AAF91F2D02460B46CDE9042340F387
:103BA000B380DDE90423DDE9020115F0E5FF80467D
:103BB00089463F15C9F30A53FB1A102B40F3B18015
:103BC00045A3D3E90023DDE9060116F08DF980460F
:103BD000894602460B46DDE9020115F0CDFF02469B
:103BE0000B46DDE90201CDE9082315F0C5FF424689
:103BF0004B4615F0C1FF3AA3D3E90023804689461E
:103C0000DDE9060116F070F942464B4615F0B4FFA7
:103C10000B46CDE904010246DDE9080115F0ACFFD1
:103C2000C1F30A53FF1A312F8046894600F39C8066
:103C30009DED087BCAE900898DED027B42464B462B
:103C4000DDE9020115F098FFDDE9042315F094FF8A
:103C5000002CCAE90201BFF650AF09F1004401F19E
:103C600000436D42CAE90084CAE9020345E70246FF
:103C70000B4615F081FF0025CAE90201CAE90001DF
:103C80003BE715A3D3E9002315F076FF14A3D3E98E
:103C900000230D46044615F06FFF02460B46CAE9A5
:103CA00000232946204615F067FF0DA3D3E9002322
:103CB00015F062FF0125CAE902011EE7AFF300809B
:103CC00000004054FB21F93F3163621A61B4D03DDA
:103CD00083C8C96D305FE43F0000601A61B4D03D15
:103CE0007370032E8A19A33BFB21E93F7BD9024065
:103CF000FB21F93FFB213941FFFFEF7F00007041BD
:103D0000B8C501000000E03F4046494615F034FFC9
:103D1000394B6A1E804653F82230BB4289463FF435
:103D200048AFCAE9008989E72BA3D3E9002315F03E
:103D300025FF2BA3D3E900230D46044615F01EFFF3
:103D400002460B46CAE900232946204615F014FF17
:103D500023A3D3E9002315F011FF4FF0FF35CAE983
:103D60000201CAE60323A7E61FA3D3E90023DDE986
:103D7000060116F0B9F806460F4602460B46DDE985
:103D8000080115F0F9FE8046894602460B46DDE93A
:103D90000801CDE9028915F0EFFE32463B4615F0E9
:103DA000EBFE13A3D3E9002306460F46DDE9060127
:103DB00016F09AF832463B4615F0DEFE02460B46F8
:103DC00040464946CDE9042315F0D6FE8046894693
:103DD000A7E700BFAFF300800000601A61B4D03DD8
:103DE0007370032E8A19A33B0000002E8A19A33B8F
:103DF000C14920259A837B3938C5010000000000A5
:103E0000574A2DE9F84F21F00048904506460F46E5
:103E10002CDC544B0029B4BF534D544D98454FF002
:103E2000000411DC524B984526DC4BA3D3E9002358
:103E300015F0A4FE00224F4B16F0E6FA002840D001
:103E400030463946BDE8F88F4B4B984530DD4B4B3B
:103E5000984568DD0133984562D0304639463EA327
:103E6000D3E9002316F040F8BDE8F88F02460B4670
:103E700015F084FEBDE8F88F13F0B6FF01F048F8A6
:103E80003F4B984506460F4623DD0022394B15F07F
:103E900075FE02460B463046394616F04FF932465B
:103EA0003B4615F06BFE22462B4616F01DF8E1E767
:103EB00013F09AFFFEF75CFC22462B4616F014F82E
:103EC000D8E73046394613F08FFF01F021F8064657
:103ED0000F4632463B463046394615F04FFE3246D5
:103EE00082468B463B463046394615F0FDFF0022A0
:103EF000804689461F4B3046394615F03FFE024644
:103F00000B464046494616F019F902460B46504604
:103F1000594615F031FE22462B4615F0E5FFA9E77C
:103F2000184B984299D83046394613F05DFF00226D
:103F30000E4B15F0D9FFFEF71BFC06460F46024656
:103F40000B462046294615F0CFFF32463B4615F07A
:103F5000CBFF8FE7AFF300803374AC3C1F7BAC7FAB
:103F6000FFFFEF7FFFFF35400000E0BF0000E03FB4
:103F7000FFFF2F3E0000F03F412E8640CD338640AC
:103F8000FFFFEF3F7DF8B98F2DE9F04F21F000489A
:103F9000B8F1795F85B006460F4692469B466BDACC
:103FA00016F052FA002800F0E18032463B463046D7
:103FB000394615F099FF74A3D3E9002304460D4652
:103FC00015F092FF72A3D3E9002315F0D7FD224626
:103FD0002B4615F089FF70A3D3E9002315F0CCFD23
:103FE00022462B4615F080FF6DA3D3E9002315F080
:103FF000C5FD22462B4615F077FF6BA3D3E90023BE
:1040000015F0BAFD22462B4615F06EFF68A3D3E9E2
:10401000002315F0B3FD22462B4615F065FFCDE9D0
:1040200000010022664B2046294615F05DFFDDE9C0
:104030000023804689462046294615F055FF524602
:1040400004460D465B463046394615F04DFF0246A4
:104050000B462046294615F08FFD02460B4640468A
:10406000494615F089FD02460B460020554915F0DA
:1040700083FD05B0BDE8F08F02460B4615F034FF16
:1040800041A3D3E9002304460D4615F02DFF40A3BC
:10409000D3E9002315F072FD22462B4615F024FFCC
:1040A0003DA3D3E9002315F067FD22462B4615F00A
:1040B0001BFF3BA3D3E9002315F060FD22462B46EE
:1040C00015F012FF38A3D3E9002315F055FD224661
:1040D0002B4615F009FF36A3D3E9002315F04EFD5A
:1040E0002B46224615F000FF374B9845CDE90001DD
:1040F00097DD364B98453EDCA8F5001300220020E2
:1041000030499046994615F037FDCDE9020100226D
:104110002B4B2046294615F0E7FE42464B4615F04C
:104120002BFDDDE90023804689462046294615F00F
:10413000DBFE524604460D465B463046394615F0D6
:10414000D3FE02460B462046294615F015FD0246D1
:104150000B464046494615F00FFD02460B46DDE989
:10416000020115F009FD05B0BDE8F08F15490020EA
:1041700005B0BDE8F08F9FED107B4FF000088DED8E
:10418000027BDFF84C90C2E7D43888BEE9FAA8BDBC
:10419000C4B1B4BD9EEE213EAD529C804F7E923E96
:1041A0009015CB19A001FA3E7751C1166CC1563F4C
:1041B0004C5555555555A53F000000000000E73F00
:1041C0000000E03F0000F03F3233D33F0000E93F02
:1041D0000000D23F000000002DE9F04FADF5197D41
:1041E000BE4CA29EBE4D54F826600793D41E85FB9C
:1041F0000475E417C4EBA50424EAE4741D46631CAB
:10420000A3EB8303013D02EBC303059373190496EB
:104210000994019503900B91A4EB05071AD43B4434
:10422000002400255E1C0DF18008DDF88C9208E06A
:1042300059F8270015F0EEFD0137B742E8E8020112
:1042400008D0002FF4DA013720462946B742E8E8C3
:104250000201F6D1049B002B079B4FEAC303029394
:104260002ADB039A20A902EB030801EB0309049B54
:1042700072AA02EBC30B0DF5E07A019B002B4FF005
:1042800000064FF0000711DB039C4D4675E9022341
:10429000F4E8020115F028FE02460B463046394686
:1042A00015F06CFC444506460F46EFD1EAE802677C
:1042B000DA4509F10809E0D1DDE902040499204456
:1042C0008B0082460BA8A3F10802C31808930CAB1D
:1042D00013440A938B4698AB03EBCB03BBF1000F5F
:1042E00053E9284529DD70AB03EBCB080DF130090C
:1042F00000227C4B2046294615F0F6FD16F0A4F866
:1043000015F088FD0022784B06460F4615F0ECFDAF
:1043100002460B462046294615F02EFC16F094F86E
:1043200078E9022349F8040B3946304615F026FC9B
:1043300070AB984504460D46DAD1DDF8149020465E
:1043400029464A4601F030F800224FF07F530446D8
:104350000D4615F0C9FDFCF7A7FD0022634B15F0D3
:10436000C3FD02460B462046294615F005FC0D46C6
:10437000044616F069F8804615F04CFD0B460246DF
:104380002946204615F0F8FB4B46002B06460F4603
:1043900040F3E1800BF1FF320CA9C9F1180351F889
:1043A000225045FA03F101FA03F30CA8EB1A40F886
:1043B0002230C9F11705884443FA05F5002D2CDD9C
:1043C000BBF1000F08F1010840F381820C9C002C26
:1043D00040F0A780BBF1010F0AD00CA9012251F8CF
:1043E000044F531C002C40F09E809B451A46F6D18A
:1043F000059B002B0EDD012B00F0D980022B09D18B
:104400000BF1FF320CAB0CA953F82230C3F31503A8
:1044100041F82230022D00F0AF8000220023304608
:10442000394615F0C9FF002800F05382049B0BF1B8
:10443000FF394B4510DC0BF180430CAA013B089877
:1044400002EB8303002253F80419834242EA01027B
:10445000F9D1002A40F0B680049B0CAA013B52F827
:104460002330002B40F0A1800A9A012352F804194E
:1044700001330029FAD05B440BF1010999450693F9
:104480004CDC099A079909EB020801EB0B0508F1CE
:10449000804802EB030BA39B08F1FF3803EB88086D
:1044A00070AB03EBC909A39B20A903EB8B0301EBC2
:1044B000C505029358F8040F15F0ACFC0B460199A2
:1044C0000246002905F1080BC5E900234FF000065C
:1044D0004FF000071CDB039C0CE000BF58CA010032
:1044E000ABAAAA2A0000703E0000704100002040E4
:1044F00075E90223F4E8020115F0F6FC02460B46CA
:104500003046394615F03AFB544506460F46EFD182
:10451000029B9845E9E802675D46CBD1DDF818B00B
:10452000D9E6012300220CA9C4F180749B4541F80F
:1045300022400EDD51F8232001EB8B0001EB8303B9
:104540006FF07F4100E01A688A1A43F8042B834217
:10455000F9D101244CE706D10BF1FF330CAA52F834
:104560002350ED152AE700227B4B15F043FF00286E
:1045700040F0A381054650E732463B46002077498C
:1045800015F0FAFA06460F46002C3FF446AF059A9E
:104590007249002000F008FF02460B4630463946BB
:1045A00015F0EAFA06460F4637E7012363E70BF1F9
:1045B000FF320CAB0CA953F82230C3F3160341F8B9
:1045C000223027E70CAB059A53F82930183ACDE989
:1045D000068505926BB909F18043013B0CA901EBFB
:1045E000830353F8041909F1FF39183A0029F8D068
:1045F0000592059A5949002000F0D6FEB9F1000F46
:1046000004460D46C0F2C0814FEAC90370AA02EB0E
:10461000030808930CAB03EB8906DFF844B14FF0B5
:10462000000A08F10807043656F8040D15F0F2FBED
:1046300022462B4615F058FC5B4667E902015246BC
:104640002046294615F050FC0CAB9E4204460D4610
:10465000EAD148AB03930193CDF8149009F101031B
:10466000DDF810900293C3464FF0000AB9F1000F35
:10467000C0F22A81DFF8EC805D4635A3D3E9002340
:1046800000260027002403E0544510DCF8E802234C
:10469000F5E8020115F028FC02460B463046394683
:1046A00015F06CFA0134A14506460F46ECDA019B81
:1046B000E3E802670193029B0AF1010A9A45ABF114
:1046C000080BD3D1A29BDDF81490032B39D8DFE877
:1046D00013F0D900060006004D0048AB0393B9F172
:1046E000000F4FF000004FF0000109DB039D05EBC8
:1046F000C904083474E9022315F040FAA542F9D13F
:10470000079B002B40F01E810B9BC3E900010B4669
:1047100003990246D1E9000115F02EFAB9F1000F14
:104720000CDD4AAD01240134F5E8022315F026FA28
:10473000A145F8DA079B002B40F014810B9BC3E9DD
:104740000201069B03F007000DF5197DBDE8F08F0F
:1047500000000040FB21F93F0000E03F0000F03F77
:104760000000703E70B2010048AB0393B9F1000F36
:1047700040F32781039ACDF810904FEAC9030193C3
:10478000D318D3E900AB09F10053013B02EBC90890
:104790000293914678E9026752465B4630463946B5
:1047A00015F0ECF904460D4602460B4630463946F4
:1047B00015F0E2F952465B4615F0E0F9C145A24614
:1047C000AB46C8E90201C8E90045E3D1DDF8109025
:1047D000B9F1010F40F3F580019B039A029913444C
:1047E000C900D3E9006701F1080A019192440DF56F
:1047F000947B7AE9028932463B464046494615F0A9
:10480000BDF904460D4602460B464046494615F0A2
:10481000B3F932463B4615F0B1F9D34526462F464B
:10482000CAE90201CAE90045E3D1019C039B1034A7
:10483000002000211C4403F1100574E9022315F047
:104840009DF9A542F9D1039C079ED4E90023D4E940
:104850000245002E00F08A8003F1004701F1004379
:104860000B99C1E90403069B2646944605F10044D2
:1048700003F00700C1E900C7C1E902640DF5197D25
:10488000BDE8F08F089C039D0834002000212C44D3
:1048900074E9022315F072F9A542F9D1079B13B10F
:1048A00001F1004319460B9BC3E90001069B03F08D
:1048B00007000DF5197DBDE8F08FBBF1000F08F181
:1048C000010874DD022581E500260027EFE60024BB
:1048D0008EE5CDE90685059D304639466A4200F0F1
:1048E00063FD0022384B06460F4615F083FD00B3EA
:1048F0000022364B3046394615F0F6FA15F0A4FD85
:10490000044615F087FA00222F4B15F0EDFA0B46FE
:1049100002463946304615F02FF915F095FD0BF19A
:1049200001090CAB183543F82B00059543F82940D5
:104930005FE63046394615F087FD0CABD94643F8A3
:104940002B0056E60B9C01F10043C4E900030B4623
:1049500003990246D1E9000115F00EF9B9F1000FF3
:104960003FF7DFAE01F100431946E7E60B9EC6E9CB
:104970000023069BC6E9040103F00700C6E90245CF
:104980000DF5197DBDE8F08FA29B032B3FF6D9AE44
:1049900001A252F823F000BFA9490000DB46000045
:1049A000DB460000694700000020002176E7324620
:1049B0003B460020064915F0DFF8022506460F4663
:1049C0002BE5002000213EE7000070410000703E12
:1049D0000000F03F000000002DE9F04F21F00046FC
:1049E000B6F1795F85B004460D469046994604DAE3
:1049F00015F02AFD002800F0858022462B4620462F
:104A0000294615F071FA06460F4602460B46204627
:104A1000294615F069FA41A3D3E9002382468B4663
:104A20003046394615F060FA3EA3D3E9002315F06D
:104A3000A3F832463B4615F057FA3CA3D3E90023CE
:104A400015F09CF832463B4615F04EFA39A3D3E9EF
:104A5000002315F091F832463B4615F045FA37A38E
:104A6000D3E9002315F08AF80E9BCDE900019BB332
:104A70000022294B4046494615F036FADDE900236D
:104A8000CDE902015046594615F02EFA02460B4672
:104A9000DDE9020115F070F832463B4615F024FAC4
:104AA00042464B4615F068F819A3D3E900230646A1
:104AB0000F465046594615F017FA02460B46304647
:104AC000394615F05BF802460B462046294615F09C
:104AD00053F805B0BDE8F08F02460B463046394624
:104AE00015F002FA0AA3D3E9002315F045F852465F
:104AF0005B4615F0F9F922462B4615F03FF805B054
:104B0000BDE8F08F2046294605B0BDE8F08F00BF14
:104B1000495555555555C53F0000E03F7CD5CF5A06
:104B20003AD9E53DEB9C2B8AE6E55A3E7DFEB1572E
:104B3000E31DC73ED561C119A0012A3FA6F8101197
:104B40001111813F000000002DE9F04FC04C21F011
:104B5000004687B0A64282468B460F46CDE9002329
:104B60001ADC15F071FC00283FD1109B524601332E
:104B70001343334300F0B781109B012B00F0C08139
:104B80005B460020B34915F0D9FA04460D4620468D
:104B9000294607B0BDE8F08FAF4B9E4225DD0029C6
:104BA00009DADDE90045224605F10043CDE900239D
:104BB0000BF100418B4652465B4685A1D1E90001CD
:104BC00014F0DAFFDDE9002304460D4682A1D1E9A5
:104BD000000114F0D1FF9FED827B22462B468DED24
:104BE000007B14F0CBFF82468B4652465B46504614
:104BF000594615F079F902460B468046894615F06C
:104C000073F9424604460D464B465046594615F048
:104C10006BF975A3D3E90023CDE9020120462946AB
:104C200015F062F972A3D3E9002314F0A7FF22461E
:104C30002B4615F059F970A3D3E9002314F09EFF19
:104C400022462B4615F050F96DA3D3E9002314F04A
:104C500095FF22462B4615F047F96BA3D3E90023B5
:104C600014F08CFF22462B4615F03EF968A3D3E9D9
:104C7000002314F083FF42464B4615F035F966A336
:104C8000D3E90023CDE904012046294615F02CF98B
:104C900063A3D3E9002314F071FF22462B4615F0DD
:104CA00023F961A3D3E9002314F068FF22462B46C1
:104CB00015F01AF95EA3D3E9002314F05FFF224632
:104CC0002B4615F011F95CA3D3E9002314F056FF2D
:104CD00022462B4615F008F959A3D3E9002314F016
:104CE0004DFF02460B46DDE9040114F047FFDDE904
:104CF000022315F0F9F8DDE9004522462B4614F0B1
:104D00003DFF42464B4615F0EFF822462B4614F085
:104D100035FF4DA3D3E9002304460D46DDE902012A
:104D200015F0E2F822462B4614F028FF0B46024607
:104D3000804689465046594614F020FF464B9E4215
:104D400004460D4600F38C80109B012B3BD002469D
:104D50000B4600203F4915F0F1F9002406460F46A6
:104D60002046294652465B46CDE90067CDE902015F
:104D7000009414F001FFDDE900AB02460B4640460B
:104D8000494614F0F9FE52465B4615F0ADF852461E
:104D900004460D465B46DDE9020115F0A5F8002248
:104DA0002E4B14F0EBFE02460B462046294614F02B
:104DB000E5FE32463B4615F097F852465B4614F046
:104DC000DDFE04460D462046294607B0BDE8F08FBB
:104DD000182D4454FB21E93F075C143326A6813C7F
:104DE0000000000000000000D47ABF74702AFB3E6F
:104DF000E9A7F0320FB8123F68108D1AF726303F3E
:104E00001583E0FEC8DB573F93846EE9E326823FBB
:104E1000FE41B31BBAA1AB3F735360DBCB75F3BE4E
:104E2000A69237A0887E143F0165F2F2D844433F32
:104E3000280356C9226D6D3F37D60684F464963F29
:104E40007AFE10111111C13F635555555555D53F87
:104E5000FFFF2F3E0000F0BF2794E53F0000F03F2A
:104E6000109814F0D7FF2246CDE900012B462046CA
:104E7000294615F039F8DDE90023CDE90201204685
:104E8000294614F07BFE02460B46DDE9020115F0CF
:104E900055F942464B4614F06FFE02460B4650460B
:104EA000594614F069FE02460B4614F067FE0246AE
:104EB0000B46DDE9000114F05FFE0446B81700F070
:104EC0000200C0F101000D4614F0A4FF02460B469B
:104ED0002046294615F008F804460D462046294686
:104EE00007B0BDE8F08F5046594612F07DFF0246EC
:104EF0000B460020044915F021F904460D4662E7EF
:104F000054465D465FE700BF0000F03F0000000030
:104F10002DE9F04FCC4A21F00043934285B0824600
:104F20008B460C4620D9C94A934200F2D780002C08
:104F300080F2A481ACA3D3E900235046594614F073
:104F40001DFE0022002315F041FA002840F0D18018
:104F5000A7A3D3E900235046594614F0C5FF0246E3
:104F60000B460020BA4994E1BA4A934200F2E58028
:104F7000B94A934240F22E81002301930022B74B9D
:104F80005046594614F0B0FF06460F4602460B46FF
:104F90005046594614F0A8FF97A3D3E900230446CE
:104FA0000D4614F0A1FF96A3D3E9002314F0E6FD0B
:104FB00022462B4614F098FF93A3D3E9002314F064
:104FC000DBFD22462B4614F08FFF91A3D3E900238B
:104FD00014F0D4FD22462B4614F086FF8EA3D3E9AD
:104FE000002314F0C9FD22462B4614F07DFF002259
:104FF0009B4B14F0C3FD8046894602460B46304663
:10500000394614F071FF02460B460020954914F012
:10501000B3FD064602460B460F464046494614F08D
:10502000ABFD3246804689463B465046594614F011
:105030005BFF02460B4600208B4914F09DFD0246A3
:105040000B464046494615F079F822462B4614F0A7
:105050004BFF019E02460B46002E4DD0DDE9026754
:1050600032463B4614F088FD52465B4614F03CFF46
:1050700032463B4614F080FD2B46224614F07CFD60
:10508000019B013306460F4600F02381019B012B53
:105090007BD0019A531C392B4FEA025500F228812C
:1050A000019A132A40F35581019BC3F57F740334A1
:1050B0000022230514F062FD02460B465046594675
:1050C00014F05AFD0022664B14F058FD824605EBA1
:1050D000010B5046594605B0BDE8F08F634A934234
:1050E0001BD9C1F313030343024640F01281002988
:1050F000EFDA00205E490DE05046594614F0F4FE08
:1051000022462B4614F038FD02460B4650465946BF
:1051100014F032FD05B0BDE8F08F41A3D3E90023C0
:1051200015F072F900283FF402AF3FA3D3E9002342
:105130001046194614F0D8FEECE74E4A934200F2AE
:10514000EC8000293AA3D3E9002339DA14F016FDE4
:1051500039A7D7E900674FF0FF33804689460193AE
:1051600032463B464046494614F006FD02460B4691
:1051700082468B464046494614F0FEFC32463B468A
:1051800014F0FAFCCDE90201F8E600223A4B504651
:10519000594615F01BF9002800F0CC8050465946BE
:1051A00000222E4B14F0EAFC02460B4630463946EC
:1051B00014F0E2FC00224FF0404314F095FEA9E702
:1051C00014F0DAFC01238046894601931CA7D7E935
:1051D0000067C5E714A3D3E9002314F0CFFC02460F
:1051E0000B468FE7AFF3008059F3F8C21F6EA5019D
:1051F000FE822B654715F73F2DC3096EB7FD8ABEAA
:105200003952E686CACFD03EB7DBAA9E19CE143FEC
:105210008555FE19A0015A3FF41011111111A13F3B
:10522000EF39FAFE422E86409C7500883CE4377EBA
:105230000000E0FE422EE63F763C7935EF39EABDCC
:10524000763C7935EF39EA3D79684340412E864016
:105250000000E0BF422ED63FFFFF8F3C0000E03F42
:105260000000F03F0000084000001840FFFFEF7F03
:105270000000F0BFB1A2F03F0000D0BF44A3D3E9CB
:1052800000235046594614F02FFE02460B460020DC
:10529000414914F073FC15F0D7F8019014F0BAFDF1
:1052A00037A3D3E9002306460F4614F01DFE02463D
:1052B0000B465046594614F05FFC33A3D3E9002354
:1052C000804689463046394614F00EFE06460F46A3
:1052D00046E702460B465046594614F04DFC002264
:1052E0002D4B14F001FE00222B4B14F045FC11E76E
:1052F00052465B4614F040FC02460B46002027490C
:1053000014F03AFC6B1819460022244B14F034FCBC
:1053100000E70B4614F032FCFCE61DA3D3E90023A2
:1053200014F0E2FD002C02460B464FF00000AFDA0D
:105330001B49AEE732463B465046594614F01CFC2A
:1053400002460B4614F01AFC0022144B14F016FC13
:10535000E0E64FF4001343FA02F452465B4614F0C1
:105360000BFCC4F17F57002607F5401702460B4699
:105370003046394614F000FCA8E600BFAFF30080C9
:105380000000E0FE422EE63F763C7935EF39EA3DFB
:10539000FE822B654715F73F0000E03F0000F03F1D
:1053A0000000E0BF00000000F8B5C1F30A53044656
:1053B0000D460E4617460BBB21F00046034633430D
:1053C0001BD0354B002214F08FFD344B9F42044616
:1053D0000D4635DBC1F30A530E46363B3B4440F2E3
:1053E000FE72934232DC002B11DD26F0FF4626F4DC
:1053F000E00646EA035520462946F8BD40F2FF7212
:105400009342EBD102460B4614F0B8FBF8BD13F102
:10541000350F28DA4CF250339F4222462B460ADDE4
:1054200019A1D1E9000114F019FB17A3D3E9002356
:1054300014F05AFDF8BD16A1D1E9000114F00EFBDD
:1054400013A3D3E9002314F04FFDF8BD22462B46E9
:105450000DA1D1E9000114F001FB0BA3D3E9002356
:1054600014F042FDF8BD26F0FF4626F4E006363380
:1054700046EA0355204629460022094B14F034FD24
:10548000F8BD00BFAFF300809C7500883CE4377E18
:1054900059F3F8C21F6EA50100005043B03CFFFF56
:1054A0000000903C10B5054C237833B9044B13B180
:1054B0000448AFF300800123237010BD10050020C5
:1054C00000000000B0CB010008B5034B1BB103493D
:1054D0000348AFF3008008BD000000001405002061
:1054E000B0CB0100154B002B08BF134B9D46A3F515
:1054F000803A00218B460F461348144A121A09F0CD
:10550000CDF80F4B002B00D098470E4B002B00D04E
:1055100098470020002104000D000D48002802D00B
:105520000C48AFF3008014F0CFFA2000290005F0FA
:10553000CDF814F0B5FA00BF00000800000002200A
:10554000000000000000000000040020A40C002067
:10555000000000000000000070B504460E4600F098
:1055600047FA88B103681B6B05469847082C0CD096
:10557000A4F10903012B14D93246214610230D2032
:10558000BDE8704004F07AB870BD2B6828469B6A6D
:1055900098470228F0DC2B6828465B6A042198476C
:1055A000EAE72B6828469B6A98470528E4DC2B68C5
:1055B00028465B6A08219847DEE700BF38B52DED25
:1055C000028B054600F014FA044640B103681B6BD9
:1055D0009847032D03D8DFE805F02F363D06BDECD4
:1055E000028B002038BD20460CF03CFF07EE900AED
:1055F0002046F8EEE78A0CF03DFF07EE900A2046C1
:10560000B8EEE78A0CF03EFF68EE087A07EE100A63
:10561000E8EEA87AB8EEC77AE7EE077AF5EE407AB8
:10562000F1EE10FAB1EEE78A1BD4FDEEC87ABDECBC
:10563000028B17EE900A38BDBDEC028B2046BDE808
:1056400038400CF00FBFBDEC028B2046BDE838405F
:105650000CF010BFBDEC028B2046BDE838400CF0CA
:1056600011BF17EE900A13F0F5F8DEE738B50446DF
:1056700000F0BEF958B103681B6B0546984744B16A
:10568000012C04D12846BDE838400CF035BF00207D
:1056900038BD2846BDE838400CF00ABF10B50446B6
:1056A00000F0A6F928B1036821465B6ABDE8104006
:1056B000184710BD0048704716FCFFFF704700BF39
:1056C00010B5034B036004460CF02CFF204610BDC0
:1056D00034C0010010B5054B036004460CF022FFF6
:1056E000204615F089F9204610BD00BF34C00100E6
:1056F0002DE9F041032184B00546512001F0DAFC88
:10570000DFF8E8C2AE4B044604F00F06C4F30317FB
:1057100014F4807408BF6346AA4831463A460BF039
:105720005DFE221C18BF012231463B4628460EF082
:105730006FFD0023AB60A4480BF050FE4FF0FF312B
:10574000032001F0B7FCC0B204F052FA4FF0FF3171
:105750000446022001F0AEFCC0B204F049FA002C6D
:105760003BD0002839D00146204604F063F80646B5
:1057700000284DD04FF0FF31462001F09BFC32282D
:1057800004464ED04BDD382800F0B18068285FD148
:105790004FF0FF31012001F08DFCC0B204F028FA77
:1057A00080465C2015F031F90523019342460094B0
:1057B00031462B4607460DF0E5FDAF603B683846A5
:1057C000DB6A9847A86803681B6B98477F480BF013
:1057D00005FE284604B0BDE8F0817D480BF0FEFDD3
:1057E0004FF0FF31192001F065FCC0B204F000FA5F
:1057F0004FF0FF310446182001F05CFCC0B204F009
:10580000F7F90146204604F015F806460028B1D104
:1058100070480BF0E3FD284604B0BDE8F081302865
:1058200016D14FF0FF31012001F044FCC0B204F06A
:10583000DFF98046502015F0E8F8A4B207460523AA
:1058400001934246009431462B460DF045FBB4E7E8
:1058500001243268CDE900440023D76AAB600F22EF
:105860000DF10F0332213046B847002800F0858043
:105870003368CDE900440F22DF6A30210DF10F03B8
:105880003046B84700284AD03368CDE900440D229D
:10589000DF6A38210DF10F033046B847002872D077
:1058A0003268CDE900440DF10F03D76A68217522F3
:1058B0003046B847002845D1682147480BF08EFD97
:1058C0004FF0FF31204601F0F5FBC0B204F090F933
:1058D00080465C2015F099F805246823CDE9003452
:1058E000424631462B4607460DF04CFD65E74FF02A
:1058F000FF31012001F0DEFBC0B204F079F98046EF
:10590000502015F082F805230746019342462B46A6
:10591000009431460DF016FC304B3B604DE73021D2
:105920002D480BF05BFD30244FF0FF31012001F0DA
:10593000C1FBC0B204F05CF98046502015F065F858
:1059400007467CE726480BF049FDAF68002F7FF43F
:1059500035AF4FF0FF31032001F0ACFBC0B204F0D3
:1059600047F930B11F480BF039FD284604B0BDE8B7
:10597000F0811D480BF032FD4DE7322116480BF047
:105980002DFD3224D0E7382113480BF027FD4FF0CE
:10599000FF31204601F08EFBC0B204F029F98046A9
:1059A000502015F032F8052438230746CDE900349D
:1059B00042462B4631460DF0C5FB084B3B60FCE6EA
:1059C000F8B2010008B3010028B30100E8B30100F8
:1059D00038B301004CB3010078B30100C0B201003C
:1059E00064B301008CB30100C8B3010000B301002F
:1059F00038B5114C23680BB1986838BD4FF0FF31B2
:105A0000012001F057FBC0B204F0F2F840B10C20C5
:105A100014F0FBFF0546FFF76BFE2560A86838BD54
:105A20004FF0FF31032001F045FBC0B204F0E0F875
:105A30000028ECD138BD00BF2C05002008B501F0CE
:105A40006BFCFBF7D5FCBDE8084001F0C5B900BF11
:105A500008B501F061FCFBF73BFDBDE8084001F033
:105A6000BBB900BF08B501F057FC12F033FABDE82E
:105A7000084001F0B1B900BF08B501F04DFC12F0CB
:105A800025FEBDE8084001F0A7B900BF08B501F048
:105A900043FCFBF7BDFCBDE8084001F09DB900BF29
:105AA00008B501F039FC12F047FCBDE8084001F0F0
:105AB00093B900BF08B501F02FFCFAF745FFBDE828
:105AC000084001F089B900BF08B501F025FC12F0CB
:105AD00089FBBDE8084001F07FB900BF70B5049EA6
