:1040000000000320A5480100A148010001DC0000D8
:10401000A1480100A1480100A148010000000000E2
:10402000000000000000000000000000A1480100A6
:10403000A148010000000000A1480100A1480100C2
:10404000A1480100A1480100A1480100A1480100C8
:10405000A1480100A1480100A1480100A1480100B8
:10406000A1480100A1480100A1480100A1480100A8
:1040700091CF010099CF0100A1CF0100A9CF01008C
:10408000B1CF0100B9CF0100C1CF0100C9CF0100FC
:10409000D1CF0100D9CF0100E1CF0100E9CF01006C
:1040A000F1CF0100F9CF010001D0010009D00100DA
:1040B000A1480100A1480100A148010045CA010032
:1040C00049CA01004DCA010051CA010055CA010088
:1040D000A1480100A1480100A1480100A148010038
:1040E000A1480100A1480100A1480100A148010028
:1040F00000000000A1480100BDC50100C9C50100C4
:10410000CDC50100D1C50100D5C50100E1C5010043
:10411000E5C50100E9C50100EDC50100F9C50100D3
:10412000FDC5010001C6010005C6010011C6010060
:1041300015C6010019C601001DC6010029C60100EF
:104140002DC6010031C6010035C6010041C601007F
:1041500045C6010049C60100000000000000000043
:10416000000000000000000000000000000000004F
:10417000000000000000000000000000000000003F
:10418000B19B0100B99B0100BD9B0100B59B0100E3
:1041900000000000A1480100A1480100A148010061
:1041A000A1480100A1480100A1480100A148010067
:1041B000A1480100A1480100A1480100A148010057
:1041C000A1480100A1480100A1480100A148010047
:1041D000A1480100A1480100A1480100A148010037
:1041E000A1480100A1480100A1480100A9BC0100AB
:1041F000B1BC0100B9BC0100C1BC0100C9BC0100D7
:10420000D1BC01000000000000000000A148010036
:10421000A1480100A1480100A1480100A1480100F6
:10422000A1480100A1480100A1480100A1480100E6
:10423000A1480100A1480100A1480100A1480100D6
:10424000A1480100A1480100A1480100A1480100C6
:10425000A1480100A1480100A1480100A1480100B6
:10426000000000007CB0EE877CB0EE87FF00FF000E
:10427000FF00FF00FF00FF00FF00FF00FF00FF0046
:10428000FF00FF00FF00FF00FF00FF00FF00FF0036
:10429000FF00FF00FF00FF00FF00FF000000000024
:1042A0002DE9F04F85B003910778A7F10903042B9E
:1042B000044607F07F0200F10100F5D9202AF3D06F
:1042C0002B2F04BF677804462D2F75D09FED427BBE
:1042D0008DED007B4FF000084FF000099FB34FF0C9
:1042E000000C25464FF0000ADFF8FCB0644619E0E8
:1042F00019F058F980468946304619F0E9F84246E7
:104300004B4618F099FF5246804689465B46DDE9E8
:1043100000013CB319F070FACDE90001A44615F88C
:10432000017F7FB1A7F13006092E52465B46404619
:104330004946DDD9CCB92E2F17D115F8017F0124BC
:10434000002FEFD12C4642464B46DDE9000119F023
:1043500029F980468946039B404649461C6005B0C2
:10436000BDE8F08F4FF0010CD9E72C46BCF1000FEF
:1043700029D042464B46DDE9000119F013F907F058
:10438000DF07452F80468946E5D10399681C0A223C
:104390001BF0A6FF14490246002019F0B3FC0246A8
:1043A0000B464046494619F0FDF88046894640468E
:1043B000494605B0BDE8F08F9FED097B67788DED2C
:1043C000007B013486E7DFF824904FF00008404678
:1043D000494605B0BDE8F08F000000000000F03F46
:1043E000000000000000F0BF000024400000F87F43
:1043F0002DE9F0470023144600228046894619F033
:1044000043FB28B109F1004399462D232370013461
:10441000002200234046494619F02CFB28B13022E7
:10442000002322706370BDE8F087404649461AF0C9
:1044300065FA19F067FB73A3D3E9002307464946E1
:10444000404619F021FB00284ED170A3D3E9002388
:104450004046494619F036FB002845D10E2F07F19A
:10446000010540F3B980A7F10E06324600206249EB
:1044700019F048FC02460B464046494619F0BCF983
:1044800000225E4B18F0D8FE19F078FC002DA7F141
:104490000F0E4FF0010C4DDD594FDFF878810122EE
:1044A00045F6F3294FF02E0A494508BF40454FF025
:1044B00030030AD3B0EB080061EB0901494508BF9E
:1044C000404503F10103F5D2DBB2237050EA01034A
:1044D00004F101084AD1954252DD0132102A4FD031
:1044E000444677E90289DFE7002F33DB3A460020B4
:1044F000414919F007FC02460B464046494619F06F
:104500007BF93BA3D3E90023804689460125002699
:104510004046494619F046F80022384B18F08CFE08
:1045200019F02CFC002DBC464FF0FF3E37464FF0F3
:104530000006B1DC234630224FF02E0803F8022B90
:1045400084F80180FC4345D01C4403F8012BA342AE
:10455000FBD1A1E77A420020274919F0D3FB02469C
:104560000B464046494619F01DF8CAE7954202F14C
:10457000010204BF84F801A004F10208102AAFD19F
:104580006EB14246302102F8011BC2F101037344AF
:104590004344002BF7DC2EEAEE7301339844BCF160
:1045A000010F12D0BCF1000F4FF0650388F8003006
:1045B000C5BF2B2388F8013008F1010108F1020181
:1045C0006046BDE8F04710F0DBB9002388F8003002
:1045D000BDE8F0871C465FE7C7F10E0200200649E0
:1045E00019F090FB3E4602460B46012790E700BFBC
:1045F0000000901EC4BCD642000024400000E03FF2
:10460000881302008DEDB5A0F7C6B03E50EFE2D69C
:10461000E41A4B4400407A1070B54FF0FF3006F0BA
:1046200039F904466FF07F4006F034F9064620461B
:1046300018F03EFF00220C4B18F0B4FF0446304641
:104640000D4618F035FF06A3D3E9002319F0D4F87E
:1046500002460B462046294618F0EEFD70BD00BF0D
:104660000000E0DFFFFF6F430000F03D00000000AE
:104670002DE9F04F1D461389AB4288BF536885B0C2
:1046800004468CBF53F82500002090468A4606F069
:1046900077FD0022904B18F085FF19F033FAB8F837
:1046A00008206B1C9A4288BFD8F8042006468CBFAD
:1046B00052F82300002006F063FD0022864B18F01C
:1046C00071FF19F01FFAB8F808300235AB4288BF05
:1046D000D8F8043007468CBF53F82500002006F0B8
:1046E0004FFD002EC4E9006740F3E280002F40F345
:1046F000DF8071A3D3E90023002584F828501AF045
:1047000021F8002200238046894619F0BDF940B106
:104710004046494668A3D3E9002318F08DFD804642
:10472000894667A3D3E900234046494619F0CAF9F0
:10473000C0B165A3D3E900234046494619F0AEF95C
:1047400080B101234046494684F8283060A3D3E96C
:10475000002318F071FD58A3D3E9002319F0F2FFEC
:104760008046894600225D4B4046494618F01AFFB4
:1047700019F020FD01F1004300221946564B18F0B4
:1047800011FF19F0BFF949460546404619F0CEFC25
:104790000022514B18F006FF19F0B4F9DAF8043092
:1047A0004F49B3F80CB0B3F80AA0A56007FB0BF3B0
:1047B00003EB010806FB0AF6019388FB05234FEA89
:1047C000124C00960E444CEA034C06EA010383FBAC
:1047D000009A06EB0C0E0EEA010ED346CA468EFB7B
:1047E00000675246CDE90267120C42EA0B42DDE94E
:1047F00002AB0CEA010C8CFB00674FEA16495646E7
:104800000A40360C46EA0B4649EA074982FB05ABEB
:104810005F46C144B0445646CDE90267039FE0605D
:10482000360C09EA010908EA010846EA074689FB4D
:1048300005AB334488FB0556CDE9025655462D0C91
:1048400045EA0B45DDE902AB0B40AC4403EAE377F4
:104850000CEA010C554623EAE37367454FEA154518
:1048600002EAE276A8BF674645EA0B45634522EABD
:10487000E272B8BF6346AE444E450EEA010EA8BFD1
:104880004E464A45B8BF4A467745A8BF7746734566
:10489000B8BF73464645A8BF4646C4E905634245CE
:1048A000B8BF424600980199206261622761E261C7
:1048B000204605B0BDE8F08FEA2E4454FB21194094
:1048C000F4D64354FB21F93F320D337F7CD912409B
:1048D000EA2E4454FB2109400000F0400000E03F74
:1048E0000000FFFF0000000008B511F019FBDFED2C
:1048F0000C7A07EE100A67EE277A17EE900A18F086
:10490000F9FD05A3D3E9002318F076FF19F0FAF8B2
:1049100008BD00BFAFF30080EA2E4454FB211940CC
:104920000000B4430000000008B511F00DFBDFEDFE
:104930000C7A07EE100A67EE277A17EE900A18F045
:10494000D9FD05A3D3E9002318F056FF19F0DAF8D2
:1049500008BD00BFAFF30080EA2E4454FB2119408C
:104960000000B443000000002DE9F04F046985B059
:10497000E3699B07FCD12368C3F3400BBBF1000F35
:1049800040F0AF80B0F80CA015468046BAF1000F99
:1049900023D0BAF1010F62D0BAF1020F40F0A48027
:1049A0005500E1685448C5F53B438033B3FBF5F54A
:1049B0002A0421F47F0102F47F020A43E260E268E4
:1049C0006B00A0FB03135B0822F07F4242EA036303
:1049D0005846E36005B0BDE8F08FE2684BF6803BD7
:1049E00005EB850022F0FF03ABEB4000019318F0CC
:1049F0005FFD0646B8F80E000F4618F069FD3CA3AF
:104A0000D3E9002318F0CEFD80460BFB05F0894664
:104A100018F04EFD02460B464046494618F0C2FDCE
:104A200002460B463046394618F004FC064668003C
:104A30000F4618F03DFD02460B463046394618F049
:104A4000DBFE19F087F8019BC0B21843E060E36811
:104A5000504623F47F43E36005B0BDE8F08FE26881
:104A60004BF6803A05EB850022F0FF03AAEB4000ED
:104A7000019318F01DFDCDE90201B8F80E0018F001
:104A800027FD1BA3D3E9002318F08CFD06460AFB83
:104A900005F00F4618F00CFD02460B46304639462D
:104AA00018F080FD02460B46DDE9020118F0C2FB5A
:104AB000064668000F4618F0FBFC02460B463046DF
:104AC000394618F099FE19F045F8019BC0B2184319
:104AD000E060E368584623F47F43E36005B0BDE837
:104AE000F08F6FF0100075E76FF00C0072E700BFF9
:104AF00095D626E80B2E113EABAAAAAA000000000C
:104B00004F4A21F0004393422DE970430D4604467D
:104B10004DDC4C4A93420E460FDC45A3D3E90023FB
:104B200018F08AFB0022484B18F0CCFF002854D024
:104B30002B4620461946BDE87083444A934240DC28
:104B4000B3F1804F49DD19F0EDFA224680468946DF
:104B50002B462046294618F025FD00223A4B18F036
:104B60006BFB1AF0FFFA42464B4618F065FB024613
:104B70000B460020344918F03FFE424604460D46DD
:104B80004B464046494618F057FB0B46024629461D
:104B9000204618F051FB01F0C7FE04460B46002EDC
:104BA0000BDC03F1004320461946BDE870830B4639
:104BB000024618F041FB04460B4620461946BDE864
:104BC000708319F0AFFA01F0AFFE1BA3D3E9002305
:104BD00018F032FB04460B46E1E722462B462046FE
:104BE000294618F0DFFC804689462046294619F000
:104BF00099FA00220446144B0D464046494618F0E7
:104C00001BFB1AF0AFFA00220F4B18F015FB0246FF
:104C10000B464046494618F0EFFD22462B4618F059
:104C20000BFB00F0B1FA04460B46B8E7AFF3008087
:104C30009C7500883CE4377EEF39FAFE422EE63F51
:104C4000FFFFEF7FFFFF2F3E0000F03F0000B0416D
:104C50002DE9F84FB84B21F000469E420D468A469A
:104C600004460EDDB54B9E4200F3B08000F0AB80F1
:104C7000B34BB449B448BAF1000FC8BF1946BDE8F8
:104C8000F88FB24B9E4200F3B980A3F1DE739E42CF
:104C900040F3A4804FF0FF3B22462B462046294696
:104CA00018F080FC02460B468046894618F07AFCD4
:104CB00089A3D3E9002306460F4618F073FC88A3A6
:104CC000D3E9002318F0B8FA32463B4618F06AFCE4
:104CD00085A3D3E9002318F0AFFA32463B4618F01B
:104CE00061FC83A3D3E9002318F0A6FA32463B46C1
:104CF00018F058FC80A3D3E9002318F09DFA32463F
:104D00003B4618F04FFC7EA3D3E9002318F094FA39
:104D100042464B4618F046FC7BA3D3E9002380466D
:104D200089463046394618F03DFC79A3D3E9002383
:104D300018F080FA32463B4618F034FC76A3D3E9EB
:104D4000002318F077FA32463B4618F02BFC74A388
:104D5000D3E9002318F06EFA32463B4618F022FCE5
:104D600071A3D3E9002318F065FA32463B4618F0E8
:104D700019FC02460B464046494618F05DFA2246A9
:104D80002B4618F00FFCBBF1FF3F02460B465CD0F0
:104D90006F4B704E4FEACB0B5B44D3E9002318F006
:104DA00049FA22462B4618F045FAB34402460B4610
:104DB000DBE9000118F03EFABAF1000F0CDA01F15C
:104DC0000041BDE8F88F00283FF452AF224620464C
:104DD0002B46294618F030FABDE8F88F54A3D3E9E2
:104DE000002318F029FA00225B4B18F06BFE002814
:104DF0003FF450AF20462946BDE8F88F19F092F9EC
:104E0000564B9E4204460D4625DCA3F550239E4298
:104E10004ADC02460B4618F00FFA00224E4B18F0FF
:104E200009FA002206460F464FF0804320462946E5
:104E300018F002FA02460B463046394618F0DCFC00
:104E40004FF0000B04460D4626E72046294618F091
:104E5000F1F9BDE8F88F424B9E421ADC0022414B2B
:104E600018F0E8F9002206460F463E4B2046294638
:104E700018F098FB0022384B18F0DEF902460B467A
:104E80003046394618F0B8FC4FF0020B04460D4688
:104E900002E702460B460020334918F0ADFC4FF004
:104EA000030B04460D46F7E600222B4B18F0C2F91F
:104EB000002206460F46284B2046294618F0BCF92A
:104EC00002460B463046394618F096FC4FF0010B6F
:104ED00004460D46E0E600BF11DA22E33AAD903F0A
:104EE000EB0D76244B7BA93F513DD0A0660DB13F21
:104EF0006E204CC5CD45B73FFF8300922449C23F89
:104F00000D5555555555D53F2F6C6A2C44B4A2BF4D
:104F10009AFDDE522DDEAD3F6D9A74AFF2B0B33F15
:104F2000711623FEC671BC3FC4EB98999999C93F8D
:104F30009C7500883CE4377EFFFF0F440000F07F43
:104F4000FB21F93FFB21F9BF182D4454FFFFDB3F44
:104F5000B0130200901302000000F03FFFFFF23F89
:104F6000FF7F03400000F83F0000F0BF000000009A
:104F7000C1F30A522DE9F843A2F2FF36132E0B4675
:104F80000D4604468846074621DC002E4CDB3A4A93
:104F900042FA06F901EA090202431DD034A3D3E91B
:104FA000002318F049F90022002318F08BFD48B1C6
:104FB000002D04DD4FF4801343FA06F6B04428EACE
:104FC000090500273C4629462046BDE8F883332ED4
:104FD00006DDB6F5806F3AD019462046BDE8F88365
:104FE000A2F213424FF0FF3929FA02F919EA000F31
:104FF000F2D01FA3D3E9002318F01EF900220023EA
:1050000018F060FD0028DDD0002D09DD142E25D01C
:105010000123C6F1340603FA06F6371928BF98446F
:1050200027EA09074546CDE711A3D3E9002318F085
:1050300003F90022002318F045FD0028C2D0002DFE
:105040000FDB55EA040707D000270C4DBAE70246EC
:1050500018F0F2F80446C0E73D46B3E705F1010851
:10506000DEE700274FF00045ACE700BFAFF300805C
:105070009C7500883CE4377EFFFF0F000000F03F86
:10508000C1F30A522DE9F843A2F2FF36132E0B4664
:105090000D460446884607461DDC002E3DDB384A97
:1050A00042FA06F901EA0902024319D032A3D3E910
:1050B000002318F0C1F80022002318F003FDD0B33C
:1050C000002D04DA4FF4801343FA06F6B04428EAC0
:1050D000090500272FE0332E06DDB6F5806F2FD0AF
:1050E00019462046BDE8F883A2F213424FF0FF397B
:1050F00029FA02F919EA000FF2D01FA3D3E900231D
:1051000018F09AF80022002318F0DCFC98B1002D6A
:1051100024DB27EA090745460DE017A3D3E900235E
:1051200018F08AF80022002318F0CCFC18B1002DEA
:105130000BDB00273D463C4629462046BDE8F88368
:10514000024618F079F80446CBE725F000430D4AF3
:105150001F43002F18BF15460027ECE7142E08D078
:105160000123C6F1340603FA06F6371928BF98441E
:10517000CFE705F10108CCE79C7500883CE4377E59
:10518000FFFF0F000000F0BF2DE9F04FD84B994210
:1051900087B00E46074643DDD64B99428A4600F358
:1051A000F680D54B994240F330810B15A3F2FF3BBB
:1051B00000220023CDE902230446D04BCAF3130A90
:1051C0009A454AF07F5500F3158145F44015204675
:1051D00029460022CA4B18F02DF8002204460D463D
:1051E000C84B18F0DFF922462B4618F0DBF9804651
:1051F000894627462E46CDE90089BAF1000F3AD1FB
:10520000002200232046294618F034FC002800F034
:105210001D81BBF1000F40F0858100200146BAE0FE
:10522000B94B21F000449C420A460FDD0022B74BE7
:1052300018F020FC002800F0B1800022002300209C
:10524000B34918F0D9FA07B0BDE8F08FB14B9C42D2
:1052500040F3B180B04B1A449A4240F2D68000220B
:10526000A84B18F09FF93A46334618F09BF9CDE960
:1052700000014FF0000B00224FF0804338463146CA
:1052800017F0DAFF02460B463846314618F0B4FAFA
:1052900002460B468046894618F084F980A3D3E97C
:1052A000002304460D4618F07DF97FA3D3E90023BF
:1052B00017F0C2FF22462B4618F074F97CA3D3E9FD
:1052C000002317F0B9FF22462B4618F06BF97AA39A
:1052D000D3E9002317F0B0FF22462B4618F062F9FD
:1052E00077A3D3E9002317F0A7FF22462B4618F037
:1052F00059F975A3D3E9002317F09EFF22462B46E8
:1053000018F050F972A3D3E9002317F095FF224655
:105310002B4618F047F9DDE9004522462B4617F0E9
:105320008BFF42464B4618F03DF9CDE90401BBF135
:10533000000F00F0A880584618F0CAF866A3D3E919
:1053400000238046894618F02DF965A3D3E9002390
:1053500004460D464046494618F024F9DDE902238B
:1053600017F06AFFDDE9042317F066FF02460B46DB
:10537000DDE9000117F05EFF3A46334617F05AFFA9
:1053800002460B462046294617F054FF03E002462A
:105390000B4617F051FF07B0BDE8F08F3A46334691
:1053A0003846314617F046FF02460B4618F024FAFD
:1053B00007B0BDE8F08F0022584B17F03DFF0022E8
:1053C000002318F07FFB10B1554B9C4262DD3A463A
:1053D00033463846314618F0E5F80022494B18F0BC
:1053E000E1F802460B463846314617F023FF07B076
:1053F000BDE8F08F45F40015CAF5801A204629460D
:105400004FEAAA0A0BF1010BE3E63D4B3846314661
:10541000002217F011FF0B15A3F2FF3BBBF1000FA9
:1054200004460D468A4640F3C3803A46334617F099
:1054300001FF02460B460020314917F0FBFE2246D1
:105440002B4618F0D9F9CDE90201B6E626A3D3E937
:1054500000232046294618F0A5F802460B460020F6
:10546000274917F0E7FE42464B4618F09BF80646E0
:105470000F46BBF1000F73D102460B46204629466A
:1054800017F0D8FE87E702460B462046294617F05C
:10549000D1FEA6E7384631467DE700BFAFF3008076
:1054A00044523EDF12F1C23F9FC678D0099AC33FF3
:1054B000DE03CB966446C73FAF788E1DC571CC3FE7
:1054C000599322942449D23F04FA97999999D93F44
:1054D000935555555555E53F0000E0FE422EE63FF9
:1054E000763C7935EF39EA3D555555555555E53FEB
:1054F0007982DA3FFFFFEF7FFFFF3F439DA0060069
:105500000000F03F0000E03FFFFFEF3F0000F0BF72
:10551000000050C3FFFF1F3E3C412D4000005043A0
:10552000FFFF8F3C584617F0D3FF27A3D3E9002392
:1055300006460F4618F036F8DDE9022317F07CFE28
:1055400023A3D3E9002304460D463046394618F01C
:1055500029F802460B462046294617F06DFE1AE749
:10556000584617F0B5FF1AA3D3E9002382468B46AD
:1055700018F018F814A3D3E9002380468946504652
:10558000594618F00FF8DDE9022317F055FE0246E0
:105590000B463046394617F04DFE22462B4617F093
:1055A00049FE02460B464046494617F043FEF2E6E6
:1055B0000022094B17F03EFE02460B4638463146A4
:1055C00017F038FE3BE700BF763C7935EF39EA3D0E
:1055D0000000E0FE422EE63F0000F03F0000000029
:1055E00008B519F00FF904A3D3E9002318F004F962
:1055F00008BD00BFAFF30080EF39FAFE422EE63F50
:105600002DE9F043DFF8B4808BB004460D4600F07E
:1056100057FF98F90030013306460F462CD022463A
:105620002B462046294618F057FA814620BB2046D3
:10563000294618F077FD1CA3D3E9002318F042FA9D
:10564000D0B11B4A98F90030CDF820900321CDE964
:105650000445CDE90245CDE9001293B1154900207A
:10566000022BCDE9060111D11AF0F6FD22230360C9
:10567000089B9BB9DDE90667304639460BB0BDE8AB
:10568000F0830D4B4FF06042CDE9062368461AF0D7
:1056900093FC0028E8D0089B002BEBD01AF0DCFD2F
:1056A000089B0360E6E700BF7DF8B98FCE338640E4
:1056B000482A02000000F07FFFFFEF471E02002093
:1056C0002DE9F043DFF8E4808BB004460D4600F08E
:1056D000A3FF98F90030013306460F4633D0204629
:1056E00029461AF063FC70B329A3D3E900232046AE
:1056F000294618F0E7F9814650BB27A3D3E90023D8
:105700002046294618F0C0F9E8B198F90030244A3B
:10571000CDF82090042600200021022BCDE904457D
:10572000CDE90245CDE90062CDE9060129D0684600
:105730001AF042FC28B3089B1BB11AF08DFD089BA0
:105740000360DDE90667304639460BB0BDE8F083FB
:10575000134A98F90030019203210022CDE9044553
:10576000CDE90245009108922BB90E4B4FF06042F3
:10577000CDE90623DBE70C490020022BCDE9060129
:10578000D5D11AF069FD22230360D4E7AFF300807E
:10579000EF39FAFE422E864051302DD5104987C090
:1057A000502A0200FFFFEF470000F07F1E0200209A
:1057B0002DE9F84FC44E21F00043B3420C46054694
:1057C0000DDD03F1404303F58013034340F0B9803E
:1057D000002940F3408100200021BDE8F88FBB4E36
:1057E000B34208DCBA4A934200F3B5809CA1D1E9E8
:1057F0000001BDE8F88F0029C0F2708102460B4617
:105800000020B44917F016FD0022B34B17F0CAFE72
:1058100004460D4619F0A6FC93A3D3E9002389465C
:1058200080462946204617F0BDFE91A3D3E9002308
:1058300017F002FD22462B4617F0B4FE8EA3D3E9E3
:10584000002317F0F7FC22462B4617F0ABFE8CA383
:10585000D3E9002317F0F0FC22462B4617F0A2FEF6
:1058600089A3D3E9002317F0E5FC22462B4617F065
:1058700099FE87A3D3E9002317F0DEFC22462B46CE
:1058800017F090FE84A3D3E9002382468B4620467E
:10589000294617F087FE82A3D3E9002317F0CAFC3C
:1058A00022462B4617F07EFE7FA3D3E9002317F094
:1058B000C3FC22462B4617F075FE7DA3D3E90023D7
:1058C00017F0B8FC22462B4617F06CFE0022814BE5
:1058D00017F0B2FC02460B465046594617F08CFFB3
:1058E00042464B4617F05EFE002682468B46324605
:1058F0004B463046494617F055FE02460B462046B9
:10590000294617F097FC324604460D464B46404662
:10591000494617F091FC02460B462046294617F0EF
:105920006BFF02460B465046594617F085FC32463F
:105930004B4617F081FC02460B4617F07DFCBDE894
:10594000F88F02460B4617F075FC02460B4617F01F
:1059500053FFBDE8F88F02460B4617F023FE42A323
:10596000D3E9002306460F4617F01CFE40A3D3E9F7
:10597000002317F061FC32463B4617F013FE3EA3AE
:10598000D3E9002317F056FC32463B4617F00AFED7
:105990003BA3D3E9002317F04FFC32463B4617F0F8
:1059A00001FE39A3D3E9002317F044FC32463B46FD
:1059B00017F0F8FD36A3D3E9002317F03DFC32467B
:1059C0003B4617F0EFFD34A3D3E900238046894618
:1059D0003046394617F0E6FD31A3D3E9002317F02E
:1059E00029FC32463B4617F0DDFD2FA3D3E9002307
:1059F00017F022FC32463B4617F0D4FD2CA3D3E926
:105A0000002317F017FC32463B4617F0CBFD00226F
:105A1000304B17F011FC02460B464046494617F042
:105A2000EBFE2A46234617F0BDFD02460B4622A197
:105A3000D1E9000117F0FEFB02460B46284621463D
:105A400017F0F8FB02460B4605A1D1E9000117F05B
:105A5000F1FBBDE8F88F1AA1D1E9000179E700BF99
:105A6000182D4454FB21F93F09F7FD0DE13D023F9C
:105A700088B20175E0EF493F3B8F68B52882A43FAB
:105A80005544880E55C1C93F7D6FEB0312D6D43FF4
:105A9000555555555555C53F82922EB1C5B8B33FA2
:105AA00059018D1B6C06E63FC88A599CE52A0040C7
:105AB0004B2D8A1C273A0340075C143326A6913CE1
:105AC000182D4454FB210940FFFFEF3FFFFFDF3F4C
:105AD0000000603C0000F03F0000E03F00225C4B13
:105AE00017F0AAFB00225B4B17F05CFD40A3D3E943
:105AF000002304460D4617F055FD3FA3D3E90023CC
:105B000017F09AFB22462B4617F04CFD3CA3D3E935
:105B1000002317F08FFB22462B4617F043FD3AA3D4
:105B2000D3E9002317F088FB22462B4617F03AFDF5
:105B300037A3D3E9002317F07DFB22462B4617F04D
:105B400031FD35A3D3E9002317F076FB22462B461F
:105B500017F028FD804689462046294619F002FBA9
:105B60002FA3D3E9002306460F462046294617F007
:105B700019FD2DA3D3E9002317F05CFB22462B4629
:105B800017F010FD2AA3D3E9002317F055FB224696
:105B90002B4617F007FD28A3D3E9002317F04AFB93
:105BA00022462B4617F0FEFC0022294B17F044FB3F
:105BB00002460B464046494617F01EFE32463B461B
:105BC00017F0F0FC1EA3D3E9002317F033FB324695
:105BD0003B4617F031FB02460B4617F02DFB024601
:105BE0000B4619A1D1E9000117F024FBB1E600BF73
:105BF00009F7FD0DE13D023F88B20175E0EF493F35
:105C00003B8F68B52882A43F5544880E55C1C93FD3
:105C10007D6FEB0312D6D43F555555555555C53FAD
:105C200082922EB1C5B8B33F59018D1B6C06E63F79
:105C3000C88A599CE52A00404B2D8A1C273A03400C
:105C4000075C143326A6913C182D4454FB210940CF
:105C50000000F03F0000E03F414A91422DE9F84347
:105C60000C46054637DD3F4A914209DD02F1795283
:105C700091423EDD02460B4617F0DEFABDE8F8839E
:105C800001F1404202F5801202432ED0B1F1804F63
:105C900037DC0022344B17F0CDFA02460B4604469F
:105CA0000D4617F0C9FA224606460F462B462046F7
:105CB000294617F077FC02460B463046394617F066
:105CC000BBFA19F04FFA22462B4617F0B5FABDE899
:105CD000F843FFF759BA02460B4617F0ABFA0246F3
:105CE0000B4617F089FDBDE8F88300200021BDE8D0
:105CF000F88300F019FE18A3D3E9002317F09CFAEB
:105D0000F1E702460B4617F04DFC0022164B17F048
:105D100091FA19F027FA2A468046894623462846F2
:105D2000214617F089FA2A4606460F462346404682
:105D3000494617F081FA02460B4600200A4917F03F
:105D40005BFD0B4602463946304617F073FABDE854
:105D5000F84300F0E9BD00BFEF39FAFE422EE63FFE
:105D6000FFFFEF3FFFFFAF410000F03F00000000EA
:105D70002DE9F04FB24B21F000479F4287B00D460E
:105D8000044615DD07F1404707F5801703463B43FE
:105D900026D002460B4617F04DFA0B46024617F086
:105DA0002BFD04460B462046194607B0BDE8F08F90
:105DB000A44B9F420E462EDCB7F1795F80F24A81F8
:105DC00083A3D3E9002317F037FA00229E4B17F084
:105DD00079FE00B32B462046194607B0BDE8F08F88
:105DE0007DA3D3E9002317F0DDFB7DA3D3E90023D6
:105DF00006460F462046294617F0D4FB02460B46BE
:105E00003046394617F018FA04460B462046194624
:105E100007B0BDE8F08F2046294618F083F9024606
:105E20000B460020884917F005FA0022874B17F02F
:105E3000B9FB6DA3D3E9002304460D4617F0B2FB6E
:105E40006BA3D3E9002317F0F7F922462B4617F08E
:105E5000A9FB69A3D3E9002317F0ECF922462B46EE
:105E600017F0A0FB66A3D3E9002317F0E5F922465B
:105E70002B4617F097FB64A3D3E9002317F0DAF958
:105E800022462B4617F08EFB61A3D3E9002317F0BF
:105E9000D3F922462B4617F085FB5FA3D3E90023F5
:105EA000CDE900012046294617F07CFB5CA3D3E92D
:105EB000002317F0BFF922462B4617F073FB5AA3B5
:105EC000D3E9002317F0B8F922462B4617F06AFBF6
:105ED00057A3D3E9002317F0ADF922462B4617F05C
:105EE00061FB594B002217F0A7F982468B462046EA
:105EF0002946CDE902AB19F035F9554B9F42804652
:105F0000894600F31C8102460B4617F095F9DDE93E
:105F10000223CDE90401DDE9000117F06DFC024622
:105F20000B46DDE9040117F03DFB4FF0000ACDE917
:105F3000000152464B465046494617F033FB024695
:105F40000B462046294617F075F9524604460D4681
:105F50004B464046494617F06FF902460B4620462D
:105F6000294617F049FC02460B4617F065F9024630
:105F70000B461BA1D1E9000117F05CF902460B4664
:105F8000DDE9000117F056F9524604460D464B462E
:105F90005046494617F050F902460B4626A1D1E972
:105FA000000117F047F902460B462046294617F034
:105FB00041F90B46024620A1D1E9000117F03AF958
:105FC00004460B46002E3FF7EEAE03F10043EAE62F
:105FD0009C7500883CE4377E182D4454FB21F93F22
:105FE000075C143326A6913C09F7FD0DE13D023F05
:105FF00088B20175E0EF493F3B8F68B52882A43F26
:106000005544880E55C1C93F7D6FEB0312D6D43F6E
:10601000555555555555C53F82922EB1C5B8B33F1C
:1060200059018D1B6C06E63FC88A599CE52A004041
:106030004B2D8A1C273A0340182D4454FB21E93F7D
:10604000FFFFEF3FFFFFDF3F0000F03F0000E03FBA
:106050003233EF3F02460B4617F0A4FA48A3D3E9C8
:10606000002306460F4617F09DFA47A3D3E9002305
:1060700017F0E2F832463B4617F094FA44A3D3E90E
:10608000002317F0D7F832463B4617F08BFA42A3AD
:10609000D3E9002317F0D0F832463B4617F082FAD6
:1060A0003FA3D3E9002317F0C5F832463B4617F06B
:1060B00079FA3DA3D3E9002317F0BEF832463B46F8
:1060C00017F070FA3AA3D3E9002380468946304698
:1060D000394617F067FA38A3D3E9002317F0AAF876
:1060E00032463B4617F05EFA35A3D3E9002317F09A
:1060F000A3F832463B4617F055FA33A3D3E9002301
:1061000017F098F832463B4617F04CFA0022344B11
:1061100017F092F802460B464046494617F06CFBD2
:1061200022462B4617F03EFA22462B4617F084F8FB
:1061300004460B462046194607B0BDE8F08F52468C
:106140005B46DDE9000117F057FB42464B4617F06E
:1061500029FA42464B4617F06FF802460B4617F0F5
:106160006BF81BA3D3E9002317F064F80B46024633
:1061700019A1D1E9000117F05DF804460B4621E7AB
:1061800009F7FD0DE13D023F88B20175E0EF493F9F
:106190003B8F68B52882A43F5544880E55C1C93F3E
:1061A0007D6FEB0312D6D43F555555555555C53F18
:1061B00082922EB1C5B8B33F59018D1B6C06E63FE4
:1061C000C88A599CE52A00404B2D8A1C273A034077
:1061D000075C143326A6913C182D4454FB21F93F4B
:1061E0000000F03F000000002DE9F84F5442144336
:1061F00023F00048684E48EAD474B44284460F46FF
:106200001FD84442044321F0004A4AEAD474B442FD
:106210008B4616D803F1404404F5801414439E467F
:106220003DD09C1704F0020444EAD1745AEA0001FC
:106230000FD1022C50D0032C3CD145A1D1E9000153
:1062400005E01046194662463B4616F0F5FFBDE8EC
:10625000F88F58EA020126D0B0452DD0B24522D0A1
:10626000AAEB08084FEA2858B8F13C0F38DC002B9D
:106270003ADA18F13C0F37DA00200021012C49D01E
:10628000022C3AD0002CE2D033A3D3E9002316F03D
:10629000D1FF33A3D3E9002316F0CCFFD7E7BDE845
:1062A000F84FFEF7D5BCBBF1000F11DB2EA1D1E9F1
:1062B0000001CCE73946CAE7C2452FD0022C0BD0EB
:1062C000032CBAD0012C4FF0000031D00021BEE7E2
:1062D00027A1D1E90001BAE721A1D1E90001B6E780
:1062E00021A1D1E90001C9E76046394617F084FAD7
:1062F00017F018FFFEF7ACFCC0E717A3D3E90023A3
:1063000016F098FF02460B4615A1D1E9000116F0E0
:1063100091FF9CE701F10043194698E7022C12D047
:10632000032C0CD0012C06D013A1D1E900018EE77B
:106330004FF000418BE712A1D1E9000187E712A1DC
:10634000D1E9000183E712A1D1E900017FE700BF95
:10635000182D4454FB2109C0075C143326A6A13C28
:10636000182D4454FB210940182D4454FB21F93FBA
:10637000182D4454FB21F9BF182D4454FB21E93F4B
:10638000182D4454FB21E9BFD221337F7CD902C0B0
:10639000D221337F7CD902400000F07F0000000052
:1063A00043422DE9F047034321F00048404A48EAC0
:1063B000D37393420F462ED890454AD03D4B984513
:1063C0008A4636DD3C4B9845044645464CDD024640
:1063D0004346414616F030FF224606460F464346E6
:1063E0000020334916F026FF02460B463046394658
:1063F00017F002FAFEF7C8FE304B002217F0D2F871
:10640000BAF1000F04460B460FDA01F100432046B3
:106410001946BDE8F08702460B4616F00BFF0B4607
:10642000024617F0E9F904460B4620461946BDE836
:10643000F0871DA3D3E90023044616F0FDFE0022D9
:10644000002317F03FFB70B13B4620461946BDE8DC
:10645000F0870022002317F0CFF904460B462046B0
:106460001946BDE8F087454622462B462046294678
:1064700016F0E2FE22462B4606460F4617F092F82B
:106480002246804689462B460020094916F0D2FE56
:1064900002460B464046494617F0AEF932463B46A7
:1064A00016F0CAFEA6E700BF9C7500883CE4377E64
:1064B0000000F03FFFFF2F3EFFFFDF3F0000E03F07
:1064C0004D4A2DE9F84321F0004494420B4606461C
:1064D0001BDC4A4A944224DD494A944256DD494A2B
:1064E000944248DD484A944271DD013294426BD0B7
:1064F0003FA3D3E900231046194617F053F8064688
:106500000F4630463946BDE8F88304460D4622461C
:106510002B4617F047F806460F4630463946BDE889
:10652000F88317F0FFFD02F06FFC0022374B804626
:10653000894616F081FEB4F1725F06460F46ECDB29
:1065400042464B464046494617F02CF832463B46F9
:1065500004460D463046394616F06EFE02460B469E
:106560002046294617F048F90022284B16F064FE11
:1065700006460F46D1E717F0D5FD00F04DF8002292
:10658000234B17F00FF806460F46C6E717F0CAFD73
:1065900000F042F800221E4B06460F4617F002F8A4
:1065A000324604460D463B460020194917F024F9AF
:1065B00002460B462046294616F03EFE06460F468A
:1065C00030463946BDE8F883124A904290D83046AA
:1065D000194617F0A7FD00220D4B16F0E3FF00F05F
:1065E0001BF800220A4B04460D4616F0DBFF8EE72F
:1065F0009C7500883CE4377EFFFFEF7F422ED63F3C
:10660000FFFF3540412E8640CD3386400000F03FED
:106610000000E03F7DF8B98F2DE9F047B84F21F039
:106620000042BA4284B00C464FEAD176054612D9F0
:10663000B44FBA4240F28E80C1F3130303430246C3
:1066400040F0F780002E00F0818000252946284682
:1066500004B0BDE8F087AC4B9A4200F2B880AB4B77
:106660009A4240F2D3804FF0000A2A462346284639
:10667000214616F097FF8CA3D3E9002306460F4668
:1066800016F090FF8AA3D3E9002316F0D3FD32461B
:106690003B4616F087FF88A3D3E9002316F0CCFD14
:1066A00032463B4616F07EFF85A3D3E9002316F061
:1066B000C1FD32463B4616F075FF83A3D3E90023A4
:1066C00016F0BAFD32463B4616F06CFF02460B460A
:1066D0002846214616F0AEFD02460B4606460F46FA
:1066E0002846214616F05EFF80468946BAF1000F23
:1066F00000F0B38032463B4600204FF0804116F058
:1067000099FD02460B464046494617F075F8024689
:106710000B46DDE9020116F08DFDDDE9002316F0E0
:1067200089FD0B4602467A49002016F083FD6FF47E
:106730007F739A4580F2AD800AF57A7A01EB0A51AF
:1067400000224FF0B87316F02DFF0546284604B01E
:10675000BDE8F0875EA3D3E9002317F0B3F9002862
:106760006FD1284621465CA3D3E9002317F08CF9AA
:1067700000287FF46AAF674B284603EBC606214624
:1067800057A3D3E9002316F00DFFD6E9002316F036
:1067900053FD17F0B7F9824616F09AFE52A3D3E9DB
:1067A000002306460F4616F0FDFE02460B4628461D
:1067B000214616F03FFD4EA3D3E90023CDE90001A9
:1067C0003046394616F0EEFECDE9020115E0524B97
:1067D0009A42D0D8514BF4002344D3E9002316F059
:1067E00029FD4F4B2344D3E90034CDE90001CDE925
:1067F0000234C6F1010AAAEB060ADDE90223DDE94B
:10680000000116F017FD05460C462EE73AA3D3E922
:10681000002316F011FD00223D4B17F053F900281C
:106820003ED0284621460022394B16F005FD05468C
:106830008CE70B4616F000FD0546284604B0BDE87F
:10684000F0872DA3D3E900231046194616F0AAFEBF
:106850000546284604B0BDE8F08730463946002298
:106860004FF0804316F0E6FC02460B464046494690
:1068700016F0C2FF2A46234616F0DCFC02460B4601
:106880000020234916F0D6FC0546284604B0BDE892
:10689000F087054601EB0A51284604B0BDE8F087B1
:1068A0008246E2E6AFF30080D0A4BE726937663E4E
:1068B000F16BD2C541BDBB3E2CDE25AF6A56113F00
:1068C00093BDBE166CC1663F3E5555555555C53FE7
:1068D000EF39FAFE422E864051302DD5104987C03F
:1068E000FE822B654715F73F0000E0FE422EE63F93
:1068F000763C7935EF39EA3D9C7500883CE4377E7B
:10690000412E8640FFFFEF7F422ED63FFFFF2F3EF6
:106910000000F03FD0130200B1A2F03FE0130200EC
:10692000F0130200000000002DE9F04FB1F5801FC8
:1069300085B006460F460B4680F2D08021F000421B
:10694000024300F0DA800029C0F2E9800022D64B31
:1069500016F028FED54A0B46934206460F466FF0C6
:10696000350E00F3C180C3F3130505F5152C0CF6A5
:10697000647C0CF4801C8CF07F5282F440121C1555
:1069800042EA0507A4F2FF3474440022C84B3046A3
:10699000394604EB1C5416F04DFCAB1CC3F3130337
:1069A000022B82468B464FF0000240F3AF804FF03F
:1069B000804316F041FC02460B465046594616F0FD
:1069C0001BFF064620460F4616F082FD3246CDE9F3
:1069D00002013B4630463946CDE9006716F0E2FD3C
:1069E00002460B468046894616F0DCFD9AA3D3E9A1
:1069F000002306460F4616F0D5FD99A3D3E90023E0
:106A000016F01AFC32463B4616F0CCFD96A3D3E9AD
:106A1000002316F011FC32463B4616F0C3FD94A34A
:106A2000D3E9002316F008FC42464B4616F0BAFDA7
:106A300091A3D3E90023804689463046394616F0B3
:106A4000B1FD8FA3D3E9002316F0F6FB32463B4697
:106A500016F0A8FD8CA3D3E9002316F0EDFB324617
:106A60003B4616F09FFD0B4602464946404616F04F
:106A7000E3FBA5F5C223C5F5D725A3F27A4351352B
:106A80001D43002D06460F4640F387800022894BA8
:106A90005046594616F086FD52465B4616F082FD7A
:106AA00002460B46804689463046394616F0C4FBFE
:106AB000DDE9002316F076FD06460F46002C40F077
:106AC000818002460B464046494616F0B3FB02461B
:106AD0000B465046594616F0ADFB0BE0734A934205
:106AE0004FF0000E7FF73FAF32463B463046394607
:106AF00016F0A2FB05B0BDE8F08F002200230020B5
:106B00006D4916F079FE05B0BDE8F08F002316F050
:106B1000B1FF60B1002C7CD100200021EAE70246E1
:106B200016F088FB0022002316F066FEE2E758A369
:106B3000D3E900235046594616F034FD02460B4671
:106B400000205C4916F076FB524606460F465B462F
:106B50005046594616F026FD02460B463046394649
:106B600016F020FD06460F462CB3204616F0B0FC6A
:106B700049A3D3E900238046894616F013FD48A3B4
:106B8000D3E9002304460D464046494616F00AFD67
:106B900002460B46304639462CE002460B4650462C
:106BA000594616F047FBDDE9002316F0FBFC0646CC
:106BB0000F46002C47D132463B465046594616F008
:106BC00039FB97E734A3D3E90023DDE9020116F08E
:106BD000E9FC33A3D3E9002304460D46DDE90201B5
:106BE00016F0E0FC32463B4616F026FB02460B460A
:106BF0004046494616F01EFB52465B4616F01AFB0D
:106C000002460B462046294616F014FB05B0BDE8A7
:106C1000F08F204616F05CFC1FA3D3E90023064644
:106C20000F4616F0BFFC1EA3D3E9002304460D4611
:106C30003046394616F0B6FC02460B462046294639
:106C400016F0FAFA56E7DDE9028913A3D3E9002327
:106C50004046494691E700BF44523EDF12F1C23F31
:106C6000DE03CB966446C73F599322942449D23F12
:106C7000935555555555E53F9FC678D0099AC33F62
:106C8000AF788E1DC571CC3F04FA97999999D93F79
:106C9000555555555555D53F0000E0FE422EE63F6F
:106CA000763C7935EF39EA3D00005043FFFFEF7F36
:106CB0000000F03F0000E03F000050C30000000073
:106CC000B1F5801F2DE9F84304460D460B4619DA4D
:106CD00021F00042024359D000295FDB00223A4BE9
:106CE00016F060FC394A0B4693420D4604466FF09D
:106CF00035010CDD22462B462046294616F09CFA2B
:106D0000BDE8F883314A93424FF00001F2DC1815D8
:106D1000A0F2FF3008444FEAD0794844C3F3130887
:106D200016F0D6FBC9F57F73033348EA03550646D0
:106D30000F4620462946FFF7F7FD1DA3D3E90023A0
:106D4000804689463046394616F02CFC1AA3D3E912
:106D5000002304460D464046494616F023FC0246F1
:106D60000B462046294616F067FA15A3D3E90023FF
:106D700004460D463046394616F014FC02460B46D2
:106D80002046294616F058FABDE8F8830022002371
:106D900000200F4916F030FDBDE8F883024616F0DA
:106DA00049FA0022002316F027FDA9E7AFF300807F
:106DB000362BF111F3FE593D0EE526157BCBDB3F5B
:106DC00000609F501344D33F00005043FFFFEF7F0C
:106DD000000050C3000000002DE9F04F23F00045F3
:106DE00055EA020493B00DD0794E21F00044B4422C
:106DF0000F4682460FDD04F1404404F5801454EA46
:106E00000A035BD1734C0023CDE90034DDE90001B6
:106E100013B0BDE8F08F984694464ED0B542EADCF8
:106E20006B4EB54266D0002F8B468146CDE90223DA
:106E300064DB0026BCF1000F0ED1654B9D4246D0AD
:106E4000644B9D4200F09780B8F1804F00F0B28013
:106E5000614B984500F0CC834846594617F062F9DB
:106E6000CDE90001BAF1000F06D1002C60D0594BDA
:106E700027F040429A425BD0FF0F013F56EA0703DA
:106E800000F08280554B9D4240F3B08003F10473C3
:106E90009D4240F34184524B9C4240F38280B8F1C2
:106EA000000F40F3828048A3D3E90023104619461F
:106EB00016F078FBCDE90001A8E728B1494813B0E6
:106EC000BDE8F04F19F07AB8A542F7DCA8E704F165
:106ED000404303F5801353EA0A0393D0404B9C428E
:106EE00040F39083B8F1000F5FDBDDE90234CDE9B8
:106EF00000348BE7BCF1000F95D07CE73A4B9D4204
:106F000037DCA3F154739D4293DD2B15A3F2FF33BD
:106F1000142B40F3E983C3F134032CFA03F202FA91
:106F200003F3634585D102F00102C2F1020681E755
:106F3000B8F1000F07DADDE900230020254916F03B
:106F40005BFCCDE90001002FBFF660AF04F14044C7
:106F500004F5801454EA060300F03C84012E7FF40B
:106F600055AFDDE90045224605F10043CDE9002398
:106F70004CE702265EE7B8F1000FC0F24F834846A7
:106F80005946CDE9000141E74A4648465B46594625
:106F900016F050F902460B4616F02EFCCDE9000122
:106FA00034E7B8F1000FFFF67EAF00230024CDE9EF
:106FB00000342BE74A4648465B46594616F0F2FA3B
:106FC000CDE9000122E700BF9C7500883CE4377ED4
:106FD0000000F07F0000F03F0000E03F0000E041D3
:106FE000FFFFEF3FDC1C0200FFFF3F43B4F5801FB3
:106FF00080F28F83DDE900010022CF4B16F0D2FA38
:10700000CDE900010C466FF0340C2315CB4DC4F3D1
:107010001302A3F2FF3342F07F5403EB0C01AA42A8
:107020000B9144F4401440F36F83C54B9A4240F3F4
:10703000F38300220023CDE9082301310B91A4F54D
:107040008014CDE91023BF4B0022CDE90623002593
:10705000DDE90001DDE906232146824616F0EAF863
:10706000A346DDE906238046894650462146CDE900
:107070000CAB16F0E1F802460B460020B14916F0C1
:10708000BBFB0A460146CDE90E12134649460246AD
:10709000404616F087FA631043F0005382468B4651
:1070A00003F500238C46CDE904AB5919D3460023E0
:1070B000CDE900BC0093DDE900AB002004460D469D
:1070C00002460B465046594616F06CFA02460B46ED
:1070D0004046494616F0AEF8DDE90623804689466B
:1070E0002046294616F0A6F802460B46DDE90C01BB
:1070F00016F0A0F852465B4616F054FA02460B46CC
:107100004046494616F096F8DDE90E2316F04AFA95
:10711000DDE90445CDE9060122462B4620462946F5
:1071200016F040FA72A3D3E9002304460D4616F088
:1071300039FA71A3D3E9002316F07EF822462B46D4
:1071400016F030FA6EA3D3E9002316F075F8224644
:107150002B4616F027FA6CA3D3E9002316F06CF83F
:1071600022462B4616F01EFA69A3D3E9002316F037
:1071700063F822462B4616F015FA67A3D3E90023DD
:1071800016F05AF82246804689462B462046294664
:1071900016F008FA02460B464046494616F002FA37
:1071A000524604460D465B46DDE9040116F044F8FC
:1071B000DDE9062316F0F6F922462B4616F03CF8D8
:1071C0005246804689465B465046594616F0EAF9D3
:1071D00000225D4BCDE90C0116F02EF842464B46DD
:1071E00016F02AF800980D46044622462B465046D3
:1071F000594616F0D7F9002282468B46524B20465C
:10720000294616F017F8DDE90C2316F013F80246AC
:107210000B464046494616F00DF8DDE9042316F00A
:10722000C1F92246804689462B46DDE9060116F063
:10723000B9F902460B464046494615F0FDFF804627
:10724000894602460B465046594615F0F5FF009810
:1072500033A3D3E9002304460D4616F0A3F95246A2
:10726000CDE904015B462046294615F0E3FF0246BE
:107270000B464046494615F0DDFF2BA3D3E900231A
:1072800016F090F92AA3D3E90023804689462046C8
:10729000294616F087F902460B464046494615F046
:1072A000CBFFDDE9102315F0C7FF80460B98894618
:1072B00016F00EF9424682468B464B46DDE9040144
:1072C00015F0BAFFDDE9082315F0B6FF52465B461C
:1072D00015F0B2FF009852465B4604460D4615F085
:1072E000A9FFDDE9082315F0A5FFDDE904232DE062
:1072F000EF4E454A287ECA3F65DBC9934A86CD3F9B
:1073000001411DA96074D13F4D268F515555D53F80
:10731000FFAB6FDBB66DDB3F033333333333E33F18
:10732000000000E009C7EE3FFD033ADC09C7EE3F6D
:10733000F5015B14E02F3EBE000040438E98030031
:1073400079B60B000000F03F0000084015F072FF16
:107350000B4602464946404615F06CFF013E56EA90
:10736000070382468B46DDE9020114BFD84BD94B97
:107370000022CDE9042302460B46CDE90023002379
:107380000093DDE9006732463B4615F053FF224685
:107390002B4616F007F9DDE9022380468946504660
:1073A000594616F0FFF802460B464046494615F08E
:1073B00043FF3246804689463B4620462946CDE972
:1073C000028916F0EFF80B46024606460F46404685
:1073D000494615F031FFC04B994204460D468A4696
:1073E00040F3268101F13F4303F5E003034340F0FE
:1073F000F781A3A3D3E90023DDE9020115F01CFF07
:107400003246804689463B462046294615F012FF03
:1074100002460B464046494616F054FB002840F011
:10742000DF81A8464FEA2853A3F2FE324FF48013BF
:1074300013415344C3F30A52A84DA2F2FF3215413F
:10744000C3F3130423EA05010020C2F1140B44F432
:107450008014BAF1000F02460B4644FA0BFB30468B
:107460003946B8BFCBF1000B15F0E4FE02460B46DF
:1074700006460F46DDE9020115F0DEFE4FEA0B5A23
:107480000D46002480A3D3E900232046294616F0A8
:1074900089F83246804689463B462046294615F003
:1074A000C9FE02460B46DDE9020115F0C3FE78A3D2
:1074B000D3E9002316F076F877A3D3E90023064634
:1074C0000F462046294616F06DF802460B46304618
:1074D000394615F0B1FE06460F4602460B464046B9
:1074E000494615F0A9FE42464B4604460D4615F0A6
:1074F000A1FE02460B463046394615F09BFE224659
:10750000804689462B462046294616F04BF864A350
:10751000D3E9002306460F4616F044F862A3D3E9E8
:10752000002315F087FE32463B4616F03BF860A379
:10753000D3E9002315F080FE32463B4616F032F8C0
:107540005DA3D3E9002315F075FE32463B4616F0E5
:1075500029F85BA3D3E9002315F06EFE32463B46C3
:1075600016F020F802460B462046294615F062FE2A
:1075700006460F4602460B462046294616F012F8EC
:107580000022CDE900014FF080433046394615F026
:1075900051FE02460B46DDE9000116F02DF9424688
:1075A00006460F464B462046294615F0FBFF42464D
:1075B0004B4615F041FE02460B463046394615F063
:1075C00039FE22462B4615F035FE02460B460020BA
:1075D0003F4915F02FFE8A44BAF5801FC0F22D8175
:1075E0005146DDE9042315F0DDFFCDE900010DE48E
:1075F000002FFFF631AC4846594613B0BDE8F04FB6
:1076000017F0B0BDB8F1000FBFF6CFACDDE9023422
:10761000009304F100430193FFF7F8BB4A465B4631
:1076200000202B4916F0E8F8CDE90001FFF7EEBB8A
:107630002B4B21F00048984540F3E280294B0B4446
:1076400003430AD132463B4615F0F4FDDDE902233F
:1076500016F02EFA00283FF4E5AE1BA3D3E9002371
:10766000DDE9040115F09EFF17A3D3E9002315F00F
:1076700099FFCDE90001FFF7C9BB00BFAFF3008060
:10768000FE822B654715973C00000000432EE63F25
:10769000EF39FAFE422EE63F396CA80C615C20BE41
:1076A000D0A4BE726937663EF16BD2C541BDBB3E08
:1076B0002CDE25AF6A56113F93BDBE166CC1663FE6
:1076C0003E5555555555C53F59F3F8C21F6EA50196
:1076D0000000F03F0000F0BFFFFF8F40FFFF0F00F2
:1076E000FFCB904000346F3FBCF1000F40F0918021
:1076F000C3F1140345FA03F202FA03F3AB4200F0BC
:10770000A0806646FFF79CBB00220023CDE908233A
:1077100097E44FF0000C78E45B4B9C427FF741AC60
:107720005A4B9C423FF7BBABDDE900010022574BAF
:1077300015F080FD46A3D3E9002304460D4615F05D
:1077400031FF45A3D3E9002382468B4620462946D4
:1077500015F028FF0022CDE900014D4B20462946B7
:1077600015F020FF02460B463DA1D1E9000115F0BE
:1077700061FD22462B4615F015FF02460B46002000
:10778000444915F057FD2246804689462B4620463F
:10779000294615F007FF02460B464046494615F0BC
:1077A00001FF31A3D3E9002315F0FCFE02460B468E
:1077B000DDE9000115F03EFD02460B468046894694
:1077C0005046594615F038FD002004460D465246F5
:1077D0005B46BBE5DDE9002310461946FFF7D8BB41
:1077E00023A3D3E90023DDE9040115F0DBFE20A388
:1077F000D3E9002315F0D6FECDE90001FFF706BB63
:10780000244B98453FF70EAEDDE9002392469346A0
:1078100037E60026FFF720BB17A3D3E90023CDE905
:10782000082317A3D3E90023CDE910231A4B002224
:107830004FF48025CDE906230AE45A4601F02CFDD9
:10784000CFE602F00102C2F10206FFF7F9BA00BF6B
:10785000000000604715F73F44DF5DF80BAE543E73
:10786000555555555555D53FFE822B654715F73F64
:107870009C7500883CE4377E0000004003B8E23F7E
:1078800006D0CF43EBFD4C3EFEFFEF3F0000F03F44
:107890000000D03F0000E03F0000F83F0000000083
:1078A0002DE9F04FC84E21F00047B7428FB00B468C
:1078B00040F38F809246C54A97420C4626DC002949
:1078C000B7A3D3E9002340F38F8015F0B3FCC04B7E
:1078D0009F4204460D4600F04681B3A3D3E900233E
:1078E00015F0A8FC02460B46CAE9002320462946AB
:1078F00015F0A0FCACA3D3E9002315F09BFC0125F7
:10790000CAE9020128460FB0BDE8F08FB14A97429C
:1079100040F38980B04A974200F31C813D15A5F2DF
:107920001645A7EB055319461F46064616F0EAF81A
:1079300015F0CEFD8046894602460B463046394654
:10794000CDE9088915F076FC0022A44B15F02AFE3B
:107950008946804616F0D6F815F0BAFD02460B4669
:1079600006460F4640464946CDE90A6715F062FCD7
:1079700000229A4B15F016FE00220023CDE90C01DF
:1079800016F078F8002800F05D8100233046394673
:10799000002216F06FF8002814BF01230223904A3A
:1079A000019202212A46009108A8514600F080FB6E
:1079B000002C054614DADAF80420DAF80C3002F16B
:1079C000004203F100434542CAF80420CAF80C30D3
:1079D00006E0C2E9000100250024C2E902450025B5
:1079E00028460FB0BDE8F08F15F026FC784B9F427B
:1079F00004460D4600F008816BA3D3E9002315F07F
:107A00001BFC02460B46CAE900232946204615F016
:107A100011FC65A3D3E9002315F00EFC4FF0FF35F0
:107A2000CAE90201DCE716F07DFB61A3D3E900237C
:107A30008046894615F0B6FD00226A4B15F0FCFB26
:107A400016F060F8054615F043FD55A3D3E9002371
:107A5000CDE9040115F0A6FD02460B464046494615
:107A600015F0E8FB50A3D3E90023CDE90201DDE9DD
:107A7000040115F097FD1F2D8046894602460B46EE
:107A8000DDE9020140F3B08015F0D4FB83460E46D9
:107A90003F15C6F30A53FB1A102B40F3B08046A3E0
:107AA000D3E90023DDE9040115F07CFD8046894619
:107AB00002460B46DDE9020115F0BCFB02460B460F
:107AC000DDE90201CDE9062315F0B4FB42464B4641
:107AD00015F0B0FB3AA3D3E9002380468946DDE9DF
:107AE000040115F05FFD42464B4615F0A3FB0B4623
:107AF000024680468946DDE9060115F09BFBC1F38D
:107B00000A53FF1A312F83460E4600F39D8002462A
:107B10000B46CAE90023DDE90623CDE902235A46D4
:107B20003346DDE9020115F085FB42464B4615F070
:107B300081FB002C02460B46CAE90223BFF650AF78
:107B400006F1004601F10041CAE900B6CAE90201A6
:107B50006D4245E7024615F06DFB0025CAE90201BA
:107B6000CAE900013CE714A3D3E9002315F062FB46
:107B700013A3D3E900230D46044615F05BFB024630
:107B80000B46CAE900232946204615F053FB0CA3F7
:107B9000D3E9002315F04EFB0125CAE902011FE7D6
:107BA00000004054FB21F93F3163621A61B4D03DBB
:107BB00083C8C96D305FE43F0000601A61B4D03DF6
:107BC0007370032E8A19A33BFB21E93F7BD9024046
:107BD000FB21F93FFB213941FFFFEF7F000070419E
:107BE000042B02000000E03F15F024FB3A4B6A1E14
:107BF000834653F82230BB420E463FF449AF5A4603
:107C00003346CAE900238AE72BA3D3E9002315F002
:107C100013FB2BA3D3E900230D46044615F00CFB00
:107C200002460B46CAE900232946204615F002FB0E
:107C300023A3D3E9002315F0FFFA4FF0FF35CAE97B
:107C40000201CDE60323AAE61FA3D3E90023DDE961
:107C5000040115F0A7FCDDE9068906460F46024639
:107C60000B464046494615F0E5FA02460B464046AB
:107C70004946CDE9022315F0DDFA32463B4615F0C0
:107C8000D9FA13A3D3E9002306460F46DDE9040120
:107C900015F088FC32463B4615F0CCFA02460B46FE
:107CA00080468946DDE9020115F0C4FA83460E4696
:107CB000A5E700BFAFF300800000601A61B4D03DBB
:107CC0007370032E8A19A33B0000002E8A19A33B70
:107CD000C14920259A837B39842A020000000000D4
:107CE000574A2DE9F84F21F0004890450E460746C7
:107CF0002CDC544B0029B4BF534D544D98454FF0E4
:107D0000000411DC524B984526DC4BA3D3E9002339
:107D100015F092FA00224F4B15F0D4FE002840D007
:107D200038463146BDE8F88F4B4B984530DD4B4B1C
:107D3000984568DD0133984562D0384631463EA308
:107D4000D3E9002315F02EFCBDE8F88F02460B4660
:107D500015F072FABDE8F88F16F0E4F901F054F866
:107D60003F4B984506460F4623DD0022394B15F060
:107D700063FA02460B463046394615F03DFD324661
:107D80003B4615F059FA22462B4615F00BFCE1E76D
:107D900016F0C8F9FEF740FC22462B4615F002FC0F
:107DA000D8E73846314616F0BDF901F02DF8064601
:107DB0000F4632463B463046394615F03DFA3246CC
:107DC00082468B463B463046394615F0EBFB002297
:107DD000804689461F4B3046394615F02DFA02463B
:107DE0000B464046494615F007FD02460B465046F5
:107DF000594615F01FFA22462B4615F0D3FBA9E78A
:107E0000184B984299D83846314616F08BF9002223
:107E10000E4B15F0C7FBFEF7FFFB06460F4602466A
:107E20000B462046294615F0BDFB32463B4615F071
:107E3000B9FB8FE7AFF300803374AC3C1F7BAC7FA2
:107E4000FFFFEF7FFFFF35400000E0BF0000E03F95
:107E5000FFFF2F3E0000F03F412E8640CD3386408D
:107E6000FFFFEF3F7DF8B98F2DE9F04F21F000467D
:107E7000B6F1795F85B00C4692469B4605466BDAB3
:107E800015F040FE002800F0E2802A4623462846EE
:107E9000214615F087FB74A3D3E900238046894669
:107EA00015F080FB72A3D3E9002315F0C5F9424613
:107EB0004B4615F077FB70A3D3E9002315F0BAF910
:107EC00042464B4615F06EFB6DA3D3E9002315F037
:107ED000B3F942464B4615F065FB6BA3D3E900238B
:107EE00015F0A8F942464B4615F05CFB68A3D3E9B0
:107EF000002315F0A1F942464B4615F053FBCDE99E
:107F000000010022644B4046494615F04BFBDDE979
:107F1000002306460F464046494615F043FB5246AD
:107F2000804689465B462846214615F03BFB0246C3
:107F30000B464046494615F07DF902460B46304651
:107F4000394615F077F902460B460020534915F0E3
:107F500071F905B0BDE8F08F02460B4615F022FB23
:107F600041A3D3E900238046894615F01BFB40A3BB
:107F7000D3E9002315F060F942464B4615F012FB99
:107F80003DA3D3E9002315F055F942464B4615F0C1
:107F900009FB3BA3D3E9002315F04EF942464B46BB
:107FA00015F000FB38A3D3E9002315F043F942464E
:107FB0004B4615F0F7FA36A3D3E9002315F03CF948
:107FC0004B46424615F0EEFA354B9E42CDE9000194
:107FD00097DD344B9E424FF000023DDCA6F50013C6
:107FE00000202E4916461F4615F024F9CDE902015E
:107FF0000022294B4046494615F0D4FA32463B460A
:1080000015F018F9DDE9002306460F4640464946BB
:1080100015F0C8FA5246804689465B4628462146F6
:1080200015F0C0FA02460B464046494615F002F9E3
:1080300002460B463046394615F0FCF802460B4620
:10804000DDE9020115F0F6F805B0BDE8F08F13493F
:10805000002005B0BDE8F08F134B144FCDE902238B
:108060000026C5E7AFF30080D43888BEE9FAA8BD82
:10807000C4B1B4BD9EEE213EAD529C804F7E923E77
:108080009015CB19A001FA3E7751C1166CC1563F2D
:108090004C5555555555A53F0000E03F0000F03FB9
:1080A0003233D33F0000E93F0000E73F0000D23FFA
:1080B0002DE9F04FADF5197DBE4CA29EBE4D54F892
:1080C00026700793D41E85FB0465E417C4EBA50452
:1080D00024EAE4741D46631CA3EB8303013D02EB19
:1080E000C30305937B1909940497019506460B91E8
:1080F000A4EB05041BD423445D1C20AF4FF0000803
:108100004FF00009DDF88CA208E05AF8240015F0C1
:10811000DFF90134AC42E7E8020108D0002CF4DAC0
:10812000013440464946AC42E7E80201F6D1049BDF
:10813000002BC0F2B083079BA6F10802DB001146BA
:10814000039220AA02EB0309029301EB0308049BAC
:1081500072AA02EBC30B0DF5E07A019B002BC0F273
:108160009581039C4D460026002775E90223F4E91A
:10817000020115F017FA02460B463046394615F053
:108180005BF8444506460F46EFD1EAE80267DA4558
:1081900009F10809E1D1DDE90204049920448B00CA
:1081A00082460BA8A3F10802C31808930CAB134432
:1081B0000A938B4698AB03EBCB03BBF1000F53E95B
:1081C000284529DD70AB03EBCB080DF13009002207
:1081D0007A4B2046294615F0E5F915F093FC15F089
:1081E00077F90022764B06460F4615F0DBF902467A
:1081F0000B462046294615F01DF815F083FC78E95A
:10820000022349F8040B3946304615F015F870ABD7
:10821000984504460D46DAD1DDF8149020462946EB
:108220004A4601F039F800224FF07F5304460D46CC
:1082300015F0B8F9FCF724FF0022624B15F0B2F9F3
:1082400002460B462046294614F0F4FF0D4604462C
:1082500015F058FC804615F03BF90B4602462946BE
:10826000204614F0E7FF4B46002B06460F4640F32E
:10827000E1800BF1FF320CA9C9F1180351F822502B
:1082800045FA03F101FA03F30CA8EB1A40F8223087
:10829000C9F11705884443FA05F5002D2CDDBBF123
:1082A000000F08F1010840F394820C9C002C40F070
:1082B000A780BBF1010F0AD00CA9012251F8044F8D
:1082C000531C002C40F09E809B451A46F6D1059B1E
:1082D000002B0EDD012B00F09C81022B09D10BF14C
:1082E000FF320CAB0CA953F82230C3F3150341F84D
:1082F0002230022D00F0AF800022002330463946A4
:1083000015F0B8FB002800F06682049B0BF1FF39E2
:108310004B4510DC0BF180430CAA013B089802EBA3
:108320008303002253F80419834242EA0102F9D17F
:10833000002A40F0B580049B0CAA013B52F8233080
:10834000002B40F0A1800A9A012352F8041901334E
:108350000029FAD05B440BF101099945069349DCE9
:10836000099A079909EB020801EB0B0508F180480F
:1083700002EB030BA39B08F1FF3803EB880870ABFB
:1083800003EBC909A39B20A903EB8B0301EBC505F4
:10839000029358F8040F15F09BF8019B002BC5E9D8
:1083A000000105F1080B28DB083D039C002600278F
:1083B0000CE000BFA42F0200ABAAAA2A0000703E66
:1083C000000070410000204075E80201F4E902233A
:1083D00015F0E8F802460B463046394614F02CFFFB
:1083E000544506460F46EFD1029B9845E9E80267DF
:1083F0005D46CED1DDF818B0DCE600260027F3E7B5
:10840000012300220CA9C4F180749B4541F822404D
:108410000EDD51F8232001EB8B0001EB83036FF09D
:108420007F4100E01A688A1A43F8042B8342F9D18D
:1084300001244CE706D10BF1FF330CAA52F823506C
:10844000ED152AE70022BE4B15F032FB002840F064
:10845000B981054650E732463B460020B94914F041
:10846000E9FE06460F46002C3FF446AF059AB54993
:10847000002000F011FF02460B463046394614F04A
:10848000D9FE06460F4637E7012363E7002600279B
:10849000EAE80267DA4509F108097FF45EAE7AE698
:1084A0000CAB059A53F82930183ACDE906850592A8
:1084B0006BB909F18043013B0CA901EB830353F82D
:1084C000041909F1FF39183A0029F8D00592059AE4
:1084D0009C49002000F0E0FEB9F1000F04460D4673
:1084E000C0F2E0814FEAC90370AA02EB03080893C7
:1084F0000CAB03EB8906DFF850B208F1080704362D
:108500004FF0000A56F8040D14F0E2FF22462B4605
:1085100015F048F85B4667E90201524620462946B5
:1085200015F040F80CAB9E4204460D46EAD148AB2C
:1085300003930193CDF8149009F10103DDF8109035
:108540000293C3464FF0000AB9F1000FC0F2378121
:10855000DFF8F8815D4678A3D3E9002300260027E1
:10856000002403E0544510DCF8E80223F5E802019A
:1085700015F018F802460B463046394614F05CFEFA
:108580000134A14506460F46ECDA019BE3E8026799
:108590000193029B0AF1010A9A45ABF1080BD3D172
:1085A000A29BDDF81490032B2CD8DFE813F0E80031
:1085B000D300D3003F00079B00200146002B40F072
:1085C00043810D460B460B990446C1E900450399CA
:1085D0000246D1E9000114F02DFEB9F1000F0CDDC7
:1085E000039D0124F5E90223013414F025FEA14581
:1085F000F8DA079B002B40F037810B460B990246B7
:10860000C1E90223069B03F007000DF5197DBDE8C3
:10861000F08F0BF1FF320CAB0CA953F82230C3F3EF
:10862000160341F8223064E648AB0393B9F1000F1A
:1086300040F35581039ACDF808904FEAC90302EB45
:108640000308D8E900AB0193914658E90267524606
:108650005B463046394614F0EFFD04460D460246AF
:108660000B463046394614F0E5FD52465B4614F0A1
:10867000E3FDC8E9000168E90245C145A246AB46F1
:10868000E3D1DDF80890B9F1010F40F32881019B97
:10869000039A1344D3E9006701939A460DF5947B3E
:1086A0005AE9028932463B464046494614F0C4FD29
:1086B00004460D4602460B464046494614F0BAFDB4
:1086C00032463B4614F0B8FDCAE900016AE90245AA
:1086D000D34526462F46E3D10399019C002301F19F
:1086E0001005083419461E46304674E9022314F07A
:1086F000A3FDA5420346F6D10A460399D1E9008CB1
:10870000D1E902E90799002900F0B1800B9C2361AF
:10871000069BC4F800800CF1004009F1004102F111
:108720000042606003F00700E1606261C4F808E0A5
:108730000DF5197DBDE8F08F00000040FB21F93FE9
:108740000000E03F0000F03F0000703E18140200FF
:1087500048AB0393B9F1000FFFF62DAF039F002044
:1087600007EBC9060836014676E9022314F064FDDA
:10877000B742F9D1079B002B3FF423AF64E0089C7C
:10878000039D083400222C4411461646304674E9F5
:10879000022314F051FDA5420246F6D10B4607997B
:1087A00009B103F1004319460B9B1046C3E90001D0
:1087B000069B03F007000DF5197DBDE8F08F00263C
:1087C0000027E2E6BBF1000F08F101087DDD02257C
:1087D0006BE500247BE5CDE90685059D30463946ED
:1087E0006A4200F059FD00223E4B06460F4615F046
:1087F0005FF900B300223C4B3046394614F0D2FEFC
:1088000015F080F9044614F063FE0022354B14F095
:10881000C9FE0B4602463946304614F00BFD15F0F2
:1088200071F90BF101090CAB183543F82B000595D4
:1088300043F829404BE63046394615F063F90CAB56
:10884000D94643F82B0042E60B9C0B4601F1004150
:10885000C4E9000103990246D1E9000114F0EAFCE1
:10886000B9F1000F3FF7BCAE01F10041C5E6184673
:108870000B9B4646744667464D461146C3E90401C4
:10888000C3E90067C3E90245069B03F007000DF545
:10889000197DBDE8F08FA6F108030393079BDB0069
:1088A000029378E4A29B032B3FF6ACAE01A252F8F0
:1088B00023F000BFC58800005187000051870000E9
:1088C000298600000022134669E732463B46002015
:1088D000064914F0AFFC022506460F460CE50023BE
:1088E0001A460AE7000070410000703E0000F03FA9
:1088F0002DE9F04F21F00046B6F1795F85B00C46C6
:1089000090469946054604DA15F0FCF8002800F078
:1089100085802A4623462846214614F043FE064613
:108920000F4602460B462846214614F03BFE3EA366
:10893000D3E9002382468B463046394614F032FE96
:108940003BA3D3E9002314F075FC32463B4614F0F8
:1089500029FE39A3D3E9002314F06EFC32463B46CE
:1089600014F020FE36A3D3E9002314F063FC324652
:108970003B4614F017FE34A3D3E9002314F05CFC4B
:108980000E9BCDE900019BB30022334B4046494684
:1089900014F008FEDDE90023CDE9020150465946F6
:1089A00014F000FE02460B46DDE9020114F042FC21
:1089B00032463B4614F0F6FD42464B4614F03AFC74
:1089C00023A3D3E9002306460F465046594614F028
:1089D000E9FD02460B463046394614F02DFC0246AE
:1089E0000B462846214614F025FC05B0BDE8F08F63
:1089F00002460B463046394614F0D4FD14A3D3E9A1
:108A0000002314F017FC52465B4614F0CBFD2A46B7
:108A1000234614F011FC05B0BDE8F08F284621462E
:108A200005B0BDE8F08F00BF7CD5CF5A3AD9E53DFF
:108A3000EB9C2B8AE6E55A3E7DFEB157E31DC73E0F
:108A4000D561C119A0012A3FA6F810111111813F6B
:108A5000495555555555C53F0000E03F0000000001
:108A60002DE9F04FDA4C21F00046A64287B08A4645
:108A700089461746984683461BDC15F043F80028C4
:108A800039D1109B5A4601331343334300F0A88178
:108A9000109B012B00F0B1815A4653460020CD496E
:108AA00014F0AAFE04460D462046294607B0BDE84C
:108AB000F08FC94B9E421EDD002904DA01F100430C
:108AC00008F100489A465A465346A3A1D1E900014D
:108AD00014F0B0FB3A46434604460D46A0A1D1E946
:108AE000000114F0A7FB22462B4614F0A5FB00273B
:108AF00083468A46B8465A4653465846514614F06D
:108B000051FD03460C46CDE9003402460B4614F0F5
:108B100049FDDDE9002304460D465846514614F050
:108B200041FD91A3D3E90023CDE902012046294666
:108B300014F038FD8EA3D3E9002314F07DFB224608
:108B40002B4614F02FFD8CA3D3E9002314F074FB03
:108B500022462B4614F026FD89A3D3E9002314F006
:108B60006BFB22462B4614F01DFD87A3D3E900239F
:108B700014F062FB22462B4614F014FD84A3D3E9C3
:108B8000002314F059FBDDE9002314F00BFD82A350
:108B9000D3E90023CDE904012046294614F002FD63
:108BA0007FA3D3E9002314F047FB22462B4614F0A1
:108BB000F9FC7DA3D3E9002314F03EFB22462B46AB
:108BC00014F0F0FC7AA3D3E9002314F035FB22461D
:108BD0002B4614F0E7FC78A3D3E9002314F02CFB18
:108BE00022462B4614F0DEFC75A3D3E9002314F0D3
:108BF00023FB02460B46DDE9040114F01DFBDDE911
:108C0000022314F0CFFC3A46434614F015FBDDE98D
:108C1000002314F0C7FC3A46434614F00DFB6AA348
:108C2000D3E9002304460D46DDE9020114F0BAFC45
:108C300022462B4614F000FBCDE900010B4602460C
:108C40005146584614F0F8FA634B9E4204460D46CE
:108C50003EDC109B012B36D002460B4600205D49BE
:108C600014F0CAFD00240F4606465A4653462046D5
:108C7000294614F0DFFAA04602460B46DDE9000162
:108C800014F0D8FA42463B4614F08CFCA946044640
:108C90000D4642463B464046494614F083FC0022BE
:108CA0004E4B14F0C9FA02460B462046294614F0F2
:108CB000C3FA32463B4614F075FC42463B4614F07C
:108CC000BBFA04460D462046294607B0BDE8F08FA2
:108CD000109814F0FDFB224606460F462B46204610
:108CE000294614F05FFC3246CDE902013B4620469E
:108CF000294614F0A1FA02460B46DDE9020114F000
:108D00007BFDDDE9002314F095FA02460B46584638
:108D1000514614F08FFA02460B4614F08DFA0246C3
:108D20000B463046394614F085FA04464FEAA970DE
:108D300000F00200C0F101000D4614F0C9FB02462C
:108D40000B462046294614F02DFC04460D462046CD
:108D5000294607B0BDE8F08F182D4454FB21E93FA8
:108D6000075C143326A6813CD47ABF74702AFB3E7C
:108D7000E9A7F0320FB8123F68108D1AF726303F7E
:108D80001583E0FEC8DB573F93846EE9E326823FFC
:108D9000FE41B31BBAA1AB3F735360DBCB75F3BE8F
:108DA000A69237A0887E143F0165F2F2D844433F73
:108DB000280356C9226D6D3F37D60684F464963F6A
:108DC0007AFE10111111C13F635555555555D53FC8
:108DD000FFFF2F3E0000F0BF2794E53F0000F03F6B
:108DE0005846514615F09EF902460B4600200449AC
:108DF00014F002FD04460D4665E75C46554662E701
:108E00000000F03F000000002DE9F04FCA4A21F0B9
:108E10000043934285B00C460E46054620D9C74A0A
:108E2000934200F2D480002E80F2A081AAA3D3E95D
:108E300000232846214614F0FFF90022002314F0F5
:108E400023FE002840F0CE80A5A3D3E900232846C6
:108E5000214614F0A7FB02460B460020B84990E1DA
:108E6000B84A934200F2E280B74A934240F22B8123
:108E7000002301930022B54B2846214614F092FBB3
:108E800006460F4602460B462846214614F08AFB4A
:108E900095A3D3E9002382468B4614F083FB94A369
:108EA000D3E9002314F0C8F952465B4614F07AFB6C
:108EB00091A3D3E9002314F0BDF952465B4614F0A8
:108EC00071FB8FA3D3E9002314F0B6F952465B4639
:108ED00014F068FB8CA3D3E9002314F0ABF95246DD
:108EE0005B4614F05FFB0022994B14F0A5F9804615
:108EF000894602460B463046394614F053FB02467B
:108F00000B460020934914F095F9064602460B469D
:108F10000F464046494614F08DF932468046894650
:108F20003B462846214614F03DFB02460B460020F6
:108F3000894914F07FF902460B464046494614F031
:108F40005BFC52465B4614F02DFB019E02460B462D
:108F5000002E4AD0DDE9026732463B4614F06AF93A
:108F60002A46234614F01EFB32463B4614F062F9B3
:108F70005B46524614F05EF9019B013306460F46EC
:108F800000F01F81019B012B78D0019A531C392BD3
:108F90004FEA025600F22481019F132F40F35181C2
:108FA000019BC3F57F7A0AF1030A00224FEA0A53B4
:108FB00014F042F902460B462846214614F03AF9CD
:108FC0000022634B14F038F9731819461BE0634A0A
:108FD00093421BD9C1F313030343024640F01181AE
:108FE000002910DA00205E490DE02846214614F0E1
:108FF000D9FA52465B4614F01DF902460B46284644
:10900000214614F017F905B0BDE8F08F40A3D3E96D
:10901000002314F057FD00283FF405AF3EA3D3E929
:1090200000231046194614F0BDFAECE74D4A93426E
:1090300000F2EB8000293AA3D3E9002339DA14F0D7
:10904000FBF839A7D7E900674FF0FF338046894620
:10905000019332463B464046494614F0EBF802463F
:109060000B4605460C464046494614F0E3F83246A6
:109070003B4614F0DFF8CDE90201FBE62846214625
:109080000022394B14F000FD002800F0CB80284668
:10909000214600222D4B14F0CFF802460B463046F5
:1090A000394614F0C7F800224FF0404314F07AFA22
:1090B000A9E714F0BFF801238046894601931CA755
:1090C000D7E90067C5E714A3D3E9002314F0B4F887
:1090D00002460B468FE700BF59F3F8C21F6EA50189
:1090E000FE822B654715F73F2DC3096EB7FD8ABE7B
:1090F0003952E686CACFD03EB7DBAA9E19CE143FBE
:109100008555FE19A0015A3FF41011111111A13F0C
:10911000EF39FAFE422E86409C7500883CE4377E8B
:109120000000E0FE422EE63F763C7935EF39EABD9D
:10913000763C7935EF39EA3D79684340412E8640E7
:109140000000E0BF422ED63FFFFF8F3C0000E03F13
:109150000000F03F0000084000001840FFFFEF7FD4
:109160000000F0BFB1A2F03F0000D0BF40A3D3E9A0
:1091700000232846214614F015FA02460B4600202B
:10918000414914F059F814F0BDFC019014F0A0F915
:1091900039A3D3E9002306460F4614F003FA02462A
:1091A0000B462846214614F045F835A3D3E90023A1
:1091B000804689463046394614F0F4F906460F4693
:1091C00047E732463B462846214614F033F8002252
:1091D0002D4B14F0E7F900222B4B14F02BF812E77B
:1091E0002A46234614F026F802460B46002027495B
:1091F00014F020F8731819460022244B14F01AF8C2
:1092000001E70B4614F018F8FDE619A3D3E9002393
:1092100014F0C8F9002C02460B464FF00000AFDAFC
:109220001B49AEE732463B462846214614F002F879
:1092300002460B4614F000F80022144B13F0FCFF1A
:10924000E1E64FF4001C2A4623464CFA07FA13F0D5
:10925000F1FFCAF17F594FF0000809F540190246A5
:109260000B464046494613F0E5FFADE6AFF30080FC
:10927000FE822B654715F73F0000E0FE422EE63FD9
:10928000763C7935EF39EA3D0000E03F0000F03FE1
:109290000000E0BF00000000F8B5C1F30A53044627
:1092A0000D460E4617460BBB21F0004603463343DE
:1092B0001BD0354B002214F075F9344B9F42044605
:1092C0000D4635DBC1F30A530E46363B3B4440F2B4
:1092D000FE72934232DC002B11DD26F0FF4626F4AD
:1092E000E00646EA035520462946F8BD40F2FF72E3
:1092F0009342EBD102460B4613F09EFFF8BD13F1EB
:10930000350F28DA4CF250339F4222462B460ADDB5
:1093100019A1D1E9000116F083FF17A3D3E90023B7
:1093200014F040F9F8BD16A1D1E9000116F078FF5C
:1093300013A3D3E9002314F035F9F8BD22462B46D8
:109340000DA1D1E9000116F06BFF0BA3D3E90023B7
:1093500014F028F9F8BD26F0FF4626F4E00636336F
:1093600046EA0355204629460022094B14F01AF913
:10937000F8BD00BFAFF300809C7500883CE4377EE9
:1093800059F3F8C21F6EA50100005043B03CFFFF27
:109390000000903C10B5054C237833B9044B13B151
:1093A0000448AFF300800123237010BD3002002079
:1093B000000000002C31020008B5034B1BB103492B
:1093C0000348AFF3008008BD000000003402002015
:1093D0002C31020070B504460E4600F03DFA88B10B
:1093E0000368DB6A05469847082C0CD0A4F10903F2
:1093F000012B14D93246214610230D20BDE87040C0
:1094000004F04EB870BD2B6828465B6A9847022866
:10941000F0DC2B6828461B6A04219847EAE72B6892
:1094200028465B6A98470528E4DC2B6828461B6AB7
:1094300008219847DEE700BF38B52DED028B0546C1
:1094400000F00AFA044640B10368DB6A9847032D2E
:1094500003D8DFE805F02F363D06BDEC028B002077
:1094600038BD20460CF0D4FC07EE900A2046F8EEFA
:10947000E78A0CF0DDFC07EE900A2046B8EEE78A9A
:109480000CF0E6FC68EE087A07EE100AE8EEA87A1F
:10949000B8EEC77AE7EE077AF5EE407AF1EE10FA09
:1094A000B1EEE78A1BD4FDEEC87ABDEC028B17EE55
:1094B000900A38BDBDEC028B2046BDE838400CF068
:1094C000A7BCBDEC028B2046BDE838400CF0B0BC18
:1094D000BDEC028B2046BDE838400CF0B9BC17EE5D
:1094E000900A15F0D7FCDEE738B5044600F0B4F971
:1094F00058B10368DB6A0546984744B1012C04D192
:109500002846BDE83840FBF70FBA002038BD284692
:10951000BDE83840FBF7E8B910B5044600F09CF907
:1095200028B1036821461B6ABDE81040184710BDEA
:109530000048704716FCFFFF704700BF10B5034B93
:10954000036004460CF040FA204610BDC42302001C
:1095500010B5054B036004460CF036FA204617F0B0
:10956000FCFA204610BD00BFC42302002DE9F041E3
:10957000032184B00546512001F0D0FCDFF8D4C2AD
:10958000A94B044604F00F06C4F3031714F48074C7
:1095900008BF6346A54831463A460BF0EDFB221C56
:1095A00018BF012231463B4628460FF011F900232F
:1095B000AB609F480BF0E0FB4FF0FF31032001F060
:1095C000ADFC04F00FFD4FF0FF310446022001F026
:1095D000A5FC04F007FD002C3AD0002838D0014645
:1095E000204604F059FB064600284AD04FF0FF31D0
:1095F000462001F093FC322804464BD048DD382841
:1096000000F0AC8068285BD14FF0FF31012001F001
:1096100085FC04F0E7FC80464C2017F0A7FA0523F0
:1096200001934246009431462B4607460EF0C6F899
:10963000AF603B6838469B6A9847A8680368DB6A56
:1096400098477C480BF098FB284604B0BDE8F081B1
:1096500079480BF091FB4FF0FF31192001F05EFCCF
:1096600004F0C0FC4FF0FF310446182001F056FC16
:1096700004F0B8FC0146204604F00EFB0646002824
:10968000B4D16E480BF078FB284604B0BDE8F081F9
:10969000302815D14FF0FF31012001F03FFC04F0DC
:1096A000A1FC80464C2017F061FAA4B207460523BE
:1096B00001934246009431462B460DF035FEB7E744
:1096C00001243268CDE900440023176AAB600F2201
:1096D0000DF10F0332213046B847002800F0818099
:1096E0003368CDE900440F221F6A30210DF10F03CA
:1096F0003046B847002848D03368CDE900440D22F1
:109700001F6A38210DF10F033046B84700286ED08C
:109710003268CDE900440DF10F03176A6821752204
:109720003046B847002842D1682145480BF024FB59
:109730004FF0FF31204601F0F1FB04F053FC80466E
:109740004C2017F013FA05246823CDE90034424673
:1097500031462B4607460EF031F869E74FF0FF31EE
:10976000012001F0DBFB04F03DFC8046442017F0B3
:10977000FDF905230746019342462B4600943146E6
:109780000DF074FF2F4B3B6052E730212C480BF05B
:10979000F3FA30244FF0FF31012001F0BFFB04F059
:1097A00021FC80464C2017F0E1F907467FE7264868
:1097B0000BF0E2FAAF68002F7FF43BAF4FF0FF31C0
:1097C000032001F0ABFB04F00DFC30B11F480BF09F
:1097D000D3FA284604B0BDE8F0811D480BF0CCFA5E
:1097E00052E7322116480BF0C7FA3224D2E738216B
:1097F00013480BF0C1FA4FF0FF31204601F08EFB09
:1098000004F0F0FB8046442017F0B0F9052438231B
:109810000746CDE9003442462B4631460DF026FF7F
:10982000084B3B6004E700BF9C140200AC1402002C
:10983000CC1402008C150200DC140200F0140200AB
:109840001C15020068140200081502003015020001
:109850006C150200A414020038B5104C23680BB13B
:10986000986838BD4FF0FF31012001F057FB04F03C
:10987000B9FB40B10C2017F079F90546FFF776FEE9
:109880002560A86838BD4FF0FF31032001F046FB8A
:1098900004F0A8FB0028EDD138BD00BF4C02002029
:1098A00008B501F06DFCFBF79BFEBDE8084001F038
:1098B000C5B900BF08B501F063FCFBF701FFBDE8C7
:1098C000084001F0BBB900BF08B501F059FC14F025
:1098D0009FFCBDE8084001F0B1B900BF08B501F038
:1098E0004FFC15F013FABDE8084001F0A7B900BF1E
:1098F00008B501F045FCFBF783FEBDE8084001F028
:109900009DB900BF08B501F03BFC14F0AFFEBDE807
:10991000084001F093B900BF08B501F031FCFBF736
:10992000EFF8BDE8084001F089B900BF08B501F0C3
:1099300027FC14F0F1FDBDE8084001F07FB900BF3D
:1099400070B5049E96420C4624DB15466BB9042A7A
:1099500019D0022A02D110F0010310D001462A4684
:10996000204608F06FF8002070BD10440D4410F838
:10997000013D01F8013B8D42F9D1002070BD028804
:109980000A80184670BD10F00303E7D102680A6030
:10999000184670BD0846002109F0E6F94FF0FF3087
:1099A00070BD00BF0830704740B1002905DB436837
:1099B0008B4202DD0844007A70470020704700BFE8
:1099C00030B1002904DB43688B42C4BF40180272E7
:1099D000704700BF40B1002905DB4368994202DAB5
:1099E0000844007A70470020704700BF830704D105
:1099F000030F0CBF0120002070470120704700BFFB
:109A000030B1002904DB43689942BCBF40180272A0
:109A1000704700BFF8B5002B20DB00291EDB46682D
:109A20008E421BDB5468761AE51AB542A8BF35464C
:109A3000002D13DB824202F108070C4600F10806F4
:109A40002A4605D0F918301907F0FCFF0020F8BDB0
:109A5000F118381917F0BDF80020F8BD4FF0FF30AD
:109A6000F8BD00BF4068704710B4141E10DB426898
:109A7000A2420DDB33EA230328BF1346121B083032
:109A80009A422044A8BF1A465DF8044B09F06CB90D
:109A90005DF8044B704700BF10B443688B4200F17F
:109AA00008041846A8BF084632EA220128BF194612
:109AB0001B1A99422044A8BF19465DF8044B00F0D8
:109AC000B5BE00BF70B5002BBCBF43689B1A002A0F
:109AD0000E4620DB44689918A1421CDC91421ADB37
