:1000000000000220796C0100A16C0100A36C0100CA
:10001000A56C0100A76C0100A96C010000000000A4
:10002000000000000000000000000000AB6C0100B8
:10003000AD6C010000000000AF6C0100B16C01006C
:10004000B36C01007D5C0100196B0100DD6A0100E9
:10005000F16A0100B36C01007D550100C572010019
:10006000E1660100E9660100F1660100B36C010080
:10007000B36C0100B36C0100B36C0100B36C010000
:10008000B36C0100B36C0100B36C0100B36C0100F0
:10009000B36C0100B36C0100B36C0100B36C0100E0
:1000A000B36C0100B36C0100F96601000167010047
:1000B000B36C0100B36C0100000000000000000000
:1000C000B36C0100B36C0100B36C0100056B01005F
:1000D000B36C0100B36C0100B36C0100B36C0100A0
:1000E000416B010000000000000000000000000063
:1000F00000000000B36C0100000000002D6B010047
:1001000000000000000000000000000000000000EF
:1001100000000000000000000000000000000000DF
:1001200000000000000000000000000000000000CF
:1001300000000000000000000000000000000000BF
:1001400000000000000000000000000000000000AF
:10015000000000000000000000000000000000009F
:10016000000000000000000000000000000000008F
:10017000000000000000000000000000000000007F
:10018000000000000000000000000000000000006F
:10019000000000000000000000000000000000005F
:1001A000000000000000000000000000000000004F
:1001B000000000000000000000000000000000003F
:1001C000000000000000000000000000000000002F
:1001D000000000000000000000000000000000001F
:1001E000000000000000000000000000000000000F
:1001F00000000000000000000000000000000000FF
:100200002DE9F04F85B003910778A7F10903042B7E
:10021000044607F07F0200F10100F5D9202AF3D04F
:100220002B2F04BF677804462D2F75D09FED427B9E
:100230008DED007B4FF000084FF000099FB34FF0A9
:10024000000C25464FF0000ADFF8FCB0644619E0C8
:1002500019F068FF80468946304619F0F9FE42469B
:100260004B4619F0A9FD5246804689465B46DDE9BA
:1002700000013CB31AF080F8CDE90001A44615F85E
:10028000017F7FB1A7F13006092E52465B464046FA
:100290004946DDD9CCB92E2F17D115F8017F01249D
:1002A000002FEFD12C4642464B46DDE9000119F004
:1002B00039FF80468946039B404649461C6005B08D
:1002C000BDE8F08F4FF0010CD9E72C46BCF1000FD0
:1002D00029D042464B46DDE9000119F023FF07F023
:1002E000DF07452F80468946E5D10399681C0A221D
:1002F00019F046FD1449024600201AF0C3FA0246DE
:100300000B464046494619F00DFF80468946404657
:10031000494605B0BDE8F08F9FED097B67788DED0C
:10032000007B013486E7DFF824904FF00008404658
:10033000494605B0BDE8F08F000000000000F03F26
:10034000000000000000F0BF000024400000F87F23
:100350002DE9F047002314460022804689461AF012
:1003600053F928B109F1004399462D232370013434
:1003700000220023404649461AF03CF928B13022B9
:10038000002322706370BDE8F0874046494618F0AC
:100390003BFA1AF077F973A3D3E9002307464946DD
:1003A00040461AF031F900284ED170A3D3E900235A
:1003B000404649461AF046F9002845D10E2F07F16C
:1003C000010540F3B980A7F10E06324600206249CC
:1003D0001AF058FA02460B464046494619F0CCFF3F
:1003E00000225E4B19F0E8FC1AF088FA002DA7F104
:1003F0000F0E4FF0010C4DDD594FDFF878810122CF
:1004000045F6F3294FF02E0A494508BF40454FF005
:1004100030030AD3B0EB080061EB0901494508BF7E
:10042000404503F10103F5D2DBB2237050EA01032A
:1004300004F101084AD1954252DD0132102A4FD011
:10044000444677E90289DFE7002F33DB3A46002094
:1004500041491AF017FA02460B464046494619F040
:100460008BFF3BA3D3E90023804689460125002664
:100470004046494619F056FE0022384B19F09CFCC4
:100480001AF03CFA002DBC464FF0FF3E37464FF0C5
:100490000006B1DC234630224FF02E0803F8022B71
:1004A00084F80180FC4345D01C4403F8012BA3428F
:1004B000FBD1A1E77A42002027491AF0E3F902466E
:1004C0000B464046494619F02DFECAE7954202F117
:1004D000010204BF84F801A004F10208102AAFD180
:1004E0006EB14246302102F8011BC2F10103734490
:1004F0004344002BF7DC2EEAEE7301339844BCF141
:10050000010F12D0BCF1000F4FF0650388F80030E6
:10051000C5BF2B2388F8013008F1010108F1020161
:100520006046BDE8F04710F091BA002388F800302B
:10053000BDE8F0871C465FE7C7F10E0200200649C0
:100540001AF0A0F93E4602460B46012790E700BF8D
:100550000000901EC4BCD642000024400000E03FD2
:1005600040B401008DEDB5A0F7C6B03E50EFE2D625
:10057000E41A4B4400407A1070B54FF0FF3006F09B
:1005800057FA04466FF07F4006F052FA06462046BE
:1005900019F04EFD00220C4B19F0C4FD0446304604
:1005A0000D4619F045FD06A3D3E9002319F0E4FE3A
:1005B00002460B462046294619F0FEFB70BD00BFDF
:1005C0000000E0DFFFFF6F430000F03D000000008F
:1005D0002DE9F04F1D461389AB4288BF536885B0A3
:1005E00004468CBF53F82500002090468A4606F04A
:1005F00093FE0022904B19F095FD1AF043F8B8F8DD
:1006000008206B1C9A4288BFD8F8042006468CBF8D
:1006100052F82300002006F07FFE0022864B19F0DE
:1006200081FD1AF02FF8B8F808300235AB4288BFC8
:10063000D8F8043007468CBF53F82500002006F098
:100640006BFE002EC4E9006740F3E280002F40F308
:10065000DF8071A3D3E90023002584F8285017F028
:10066000F5FF002200238046894619F0CDFF40B1F6
:100670004046494668A3D3E9002319F09DFB804614
:10068000894667A3D3E900234046494619F0DAFFBB
:10069000C0B165A3D3E900234046494619F0BEFF27
:1006A00080B101234046494684F8283060A3D3E94D
:1006B000002319F081FB58A3D3E9002317F0C6FFEC
:1006C0008046894600225D4B4046494619F02AFD86
:1006D00017F0F0FC01F1004300221946564B19F0C7
:1006E00021FD19F0CFFF49460546404617F09EFC14
:1006F0000022514B19F016FD19F0C4FFDAF804304E
:100700004F49B3F80CB0B3F80AA0A56007FB0BF390
:1007100003EB010806FB0AF6019388FB05234FEA69
:10072000124C00960E444CEA034C06EA010383FB8C
:10073000009A06EB0C0E0EEA010ED346CA468EFB5B
:1007400000675246CDE90267120C42EA0B42DDE92E
:1007500002AB0CEA010C8CFB00674FEA16495646C7
:100760000A40360C46EA0B4649EA074982FB05ABCC
:100770005F46C144B0445646CDE90267039FE0603E
:10078000360C09EA010908EA010846EA074689FB2E
:1007900005AB334488FB0556CDE9025655462D0C72
:1007A00045EA0B45DDE902AB0B40AC4403EAE377D5
:1007B0000CEA010C554623EAE37367454FEA1545F9
:1007C00002EAE276A8BF674645EA0B45634522EA9E
:1007D000E272B8BF6346AE444E450EEA010EA8BFB2
:1007E0004E464A45B8BF4A467745A8BF7746734547
:1007F000B8BF73464645A8BF4646C4E905634245AF
:10080000B8BF424600980199206261622761E261A7
:10081000204605B0BDE8F08FEA2E4454FB21194074
:10082000F4D64354FB21F93F320D337F7CD912407B
:10083000EA2E4454FB2109400000F0400000E03F54
:100840000000FFFF000000002DE9F04F2DED028BAE
:10085000044683B0C06819F0FBFB804620698946D6
:1008600019F0F6FB824660698B4619F0F1FB0246EF
:1008700001F1004306460F464046494617F078FE10
:1008800019F048FFE062054617F02AFD019028465E
:1008900017F0DAFC019B0546184619F0EBFB4246BF
:1008A0004B4619F03FFC80462846894619F0E2FB8A
:1008B00032463B4619F036FC02460B464046494656
:1008C00019F078FA02460B465046594617F050FE8A
:1008D00019F020FF002208EE100A002330463946A6
:1008E00019F0B0FE28B3B5EEC08AF1EE10FA1CDDA7
:1008F00011A7D7E9006718EE100A19F0BBFB0246F2
:100900000B463046394619F055FA32463B4619F047
:1009100053FA19F0FFFEA062E38843F00203E3807C
:1009200003B0BDEC028BBDE8F08F05A7D7E90067E7
:10093000E1E784ED0A8AEFE7EA2E4454FB21F93F10
:10094000EA2E4454FB21F9BF494A21F00043934267
:100950002DE9704304460D4649DC464A93420E4653
:100960000EDC3FA3D3E9002319F026FA0022424B04
:1009700019F068FE00284AD020462946BDE8708359
:100980003E4A934239DCB3F1804F40DD17F04AFB19
:100990002246804689462B462046294619F0C2FB4E
:1009A0000022354B19F008FA18F0D8F942464B46A8
:1009B00019F002FA02460B4600202F4919F0DCFC20
:1009C000424604460D464B464046494619F0F4F966
:1009D00002460B462046294619F0EEF902F040F88F
:1009E000002E08DC01F100431946BDE87083024681
:1009F0000B4619F0E1F9BDE8708317F013FB02F024
:100A00002FF819A3D3E9002319F0D6F9E8E7224615
:100A10002B462046294619F085FB8046894620460C
:100A2000294617F0FFFA002204460D46124B4046B5
:100A3000494619F0C1F918F091F900220E4B19F04E
:100A4000BBF902460B464046494619F095FC224642
:100A50002B4619F0B1F900F0A7FAC1E7AFF3008017
:100A60009C7500883CE4377EEF39FAFE422EE63F63
:100A7000FFFFEF7FFFFF2F3E0000F03F0000B0417F
:100A80002DE9F84FBE4B21F000469E4204460D462C
:100A90008A460EDDBB4B9E4200F3B18000F0AC8075
:100AA000BAF1000F40F3EA8099A1D1E90001BDE855
:100AB000F88FB54B9E4200F3BA80A3F1DE739E42DD
:100AC00040F3A5804FF0FF3B22462B4620462946A7
:100AD00019F028FB02460B468046894619F022FB96
:100AE0008DA3D3E9002306460F4619F01BFB8CA308
:100AF000D3E9002319F060F932463B4619F012FBA6
:100B000089A3D3E9002319F057F932463B4619F07F
:100B100009FB87A3D3E9002319F04EF932463B467F
:100B200019F000FB84A3D3E9002319F045F93246FC
:100B30003B4619F0F7FA82A3D3E9002319F03CF9F8
:100B400042464B4619F0EEFA7FA3D3E900238046D4
:100B500089463046394619F0E5FA7DA3D3E90023EA
:100B600019F028F932463B4619F0DCFA7AA3D3E9AA
:100B7000002319F01FF932463B4619F0D3FA78A347
:100B8000D3E9002319F016F932463B4619F0CAFAA8
:100B900075A3D3E9002319F00DF932463B4619F04D
:100BA000C1FA02460B464046494619F005F922466D
:100BB0002B4619F0B7FABBF1FF3F02460B4661D056
:100BC000724B734E4FEACB0B5B44D3E9002319F011
:100BD000F1F822462B4619F0EDF8B34402460B46D5
:100BE000DBE9000119F0E6F8BAF1000F0DDA01F1C6
:100BF00000431946BDE8F88F00283FF451AF224664
:100C00002B462046294619F0D7F8BDE8F88F58A39F
:100C1000D3E9002319F0D0F800225E4B19F012FD41
:100C200000283FF44FAF20462946BDE8F88F17F063
:100C3000F9F9594B9E4204460D4629DCA3F5502391
:100C40009E424EDC02460B4619F0B6F80022514B8C
:100C500019F0B0F8002206460F464FF080432046B8
:100C6000294619F0A9F802460B463046394619F0D4
:100C700083FB4FF0000B04460D4625E73EA1D1E96A
:100C80000001C2E72046294619F094F8BDE8F88F24
:100C9000424B9E421ADC0022414B19F08BF8002295
:100CA00006460F463E4B2046294619F03BFA0022E5
:100CB000384B19F081F802460B463046394619F098
:100CC0005BFB4FF0020B04460D46FDE602460B4669
:100CD0000020344919F050FB4FF0030B04460D4639
:100CE000F2E600222B4B19F065F8002206460F466B
:100CF000284B2046294619F05FF802460B4630463D
:100D0000394619F039FB4FF0010B04460D46DBE67E
:100D1000182D4454FB21F93F11DA22E33AAD903FFC
:100D2000EB0D76244B7BA93F513DD0A0660DB13F22
:100D30006E204CC5CD45B73FFF8300922449C23F8A
:100D40000D5555555555D53F2F6C6A2C44B4A2BF4F
:100D50009AFDDE522DDEAD3F6D9A74AFF2B0B33F17
:100D6000711623FEC671BC3FC4EB98999999C93F8F
:100D70009C7500883CE4377E182D4454FB21F9BF54
:100D8000FFFF0F440000F07FFFFFDB3F68B401006E
:100D900048B401000000F03FFFFFF23FFF7F034037
:100DA0000000F83F0000F0BF2DE9F041C1F30A5701
:100DB000A7F2FF35132D02460B460C468846064621
:100DC00020DC002D4ADB364F2F4101EA070C5CEA9C
:100DD000000C1CD030A3D3E9002318F0EDFF002253
:100DE000002319F02FFC48B1002C04DD4FF48013D0
:100DF00043FA05F5A84428EA0704002621463046B0
:100E0000BDE8F081332D06DDB5F5806F38D0104692
:100E10001946BDE8F081A7F213474FF0FF3C2CFACA
:100E200007F70742F3D01CA3D3E9002318F0C4FF4F
:100E30000022002319F006FC0028DFD0002C09DD79
:100E4000142D22D00123C5F1340503FA05F5AE199E
:100E500028BF984426EA07064446CFE70EA3D3E905
:100E6000002318F0A9FF0022002319F0EBFB002853
:100E7000C4D0002C0CDB264305D00026094CBDE76E
:100E800018F09AFFC5E73446B8E704F10108E1E736
:100E900000264FF00044B1E79C7500883CE4377EA3
:100EA000FFFF0F000000F03F2DE9F041C1F30A57AA
:100EB000A7F2FF35132D02460B460C468846064620
:100EC0001DDC002D3CDB364F2F4101EA070C5CEAAC
:100ED000000C19D030A3D3E9002318F06DFF0022D5
:100EE000002319F0AFFBC8B3002C04DA4FF48013D1
:100EF00043FA05F5A84428EA070400262EE0332D1E
:100F000006DDB5F5806F2DD010461946BDE8F0819D
:100F1000A7F213474FF0FF3C2CFA07F70742F3D034
:100F20001DA3D3E9002318F047FF0022002319F086
:100F300089FB98B1002C21DB26EA070644460DE028
:100F400015A3D3E9002318F037FF0022002319F07E
:100F500079FB18B1002C08DB0026344621463046C8
:100F6000BDE8F08118F028FFD0E724F000430D4AD7
:100F70001E43002E18BF14460026EFE7142D08D09C
:100F80000123C5F1340503FA05F5AE1928BF9844CD
:100F9000D2E704F10108CFE79C7500883CE4377E76
:100FA000FFFF0F000000F0BF2DE9F04FD84B994232
:100FB00087B08046894643DDD64B99420E4600F302
:100FC000F480D54B994240F32D819FEDBB7B8DED95
:100FD000047B4FEA215A0446AAF2FF3ACF4BC6F3EC
:100FE00013069E4246F07F5500F3128145F44015EA
:100FF000204629460022CA4B18F0DCFE0022044697
:101000000D46C84B19F08EF822462B4619F08AF887
:10101000A046CDE90201A946CDE90001002E3AD152
:10102000002200232046294619F0E4FA002800F0A7
:101030001B81BAF1000F40F0858100200021B8E04B
:10104000B94B21F000449C420A460FDD0022B74B09
:1010500019F0D0FA002800F0AF8000220023002011
:10106000B34919F089F907B0BDE8F08FB14B9C4244
:1010700040F3AF80B04B1A449A4240F2D380002232
:10108000A84B19F04FF842464B4619F04BF8CDE902
:1010900000014FF0000A00224FF0804340464946CD
:1010A00018F08AFE02460B464046494619F064F99C
:1010B00002460B4606460F4619F034F880A3D3E9E2
:1010C000002304460D4619F02DF87FA3D3E9002331
:1010D00018F072FE22462B4619F024F87CA3D3E9BF
:1010E000002318F069FE22462B4619F01BF87AA35C
:1010F000D3E9002318F060FE22462B4619F012F8BF
:1011000077A3D3E9002318F057FE22462B4619F0A7
:1011100009F875A3D3E9002318F04EFE22462B46AA
:1011200019F000F872A3D3E9002318F045FE224617
:101130002B4618F0F7FFDDE9002318F03DFE32469C
:101140003B4618F0EFFF04460D46BAF1000F00F0E1
:10115000A880504618F07CFF67A3D3E9002382469D
:101160008B4618F0DFFF66A3D3E9002306460F463F
:101170005046594618F0D6FFDDE9042318F01CFE4E
:1011800022462B4618F018FE02460B46DDE9000108
:1011900018F010FE42464B4618F00CFE02460B4675
:1011A0003046394618F006FE03E002460B4618F0BA
:1011B00003FE07B0BDE8F08F42464B464046494625
:1011C00018F0F8FD02460B4619F0D6F807B0BDE856
:1011D000F08F0022594B18F0EFFD0022002319F088
:1011E00031FA10B1564B9C4262DD42464B464046B6
:1011F000494618F097FF00224A4B18F093FF024629
:101200000B464046494618F0D5FD07B0BDE8F08FC3
:1012100045F40015C6F5801620462946B6100AF199
:10122000010AE7E600223E4B4046494618F0C4FD5D
:101230004FEA215AAAF2FF3ABAF1000F04460D46CE
:101240000E4640F3BD8042464B4618F0B3FD0246C1
:101250000B460020324918F0ADFD22462B4619F00E
:101260008BF8CDE90401B9E627A3D3E90023204692
:10127000294618F057FF02460B460020284918F06F
:1012800099FDDDE9022318F04DFF06460F46BAF13D
:10129000000F75D102460B462046294618F08AFDFC
:1012A00087E702460B46DDE9000118F083FDA6E75B
:1012B000404649467DE700BF0000000000000000F6
:1012C00044523EDF12F1C23F9FC678D0099AC33F15
:1012D000DE03CB966446C73FAF788E1DC571CC3F09
:1012E000599322942449D23F04FA97999999D93F66
:1012F000935555555555E53F0000E0FE422EE63F1B
:10130000763C7935EF39EA3D555555555555E53F0C
:101310007982DA3FFFFFEF7FFFFF3F439DA006008A
:101320000000F03F0000E03FFFFFEF3F0000F0BF94
:10133000000050C3FFFF1F3E3C412D4000005043C2
:10134000FFFF8F3C504618F083FE24A3D3E900230F
:1013500006460F4618F0E6FEDDE9042318F02CFDE2
:1013600020A3D3E9002304460D463046394618F041
:10137000D9FE02460B462046294618F01DFD18E707
:10138000504618F065FE17A3D3E9002382468B462A
:1013900018F0C8FE11A3D3E90023804689465046C1
:1013A000594618F0BFFEDDE9042318F005FD02469A
:1013B0000B463046394618F0FDFC22462B4674E7B2
:1013C0000022054B18F0F6FC02460B464046494603
:1013D00018F0F0FC41E700BF0000F03F763C7935A3
:1013E000EF39EA3D0000E0FE422EE63F000000003B
:1013F00008B517F08BF904A3D3E9002318F0BCFF5C
:1014000008BD00BFAFF30080EF39FAFE422EE63F81
:101410002DE9F043DFF8B4808BB004460D4601F0AF
:10142000F7F898F90030013306460F462CD02246D3
:101430002B462046294619F00FF9814620BB20464D
:10144000294616F0EFFD1FA3D3E9002319F0FAF89F
:10145000D0B1194A98F90030CDF820900321CDE998
:101460000445CDE90245CDE9001293B113490020AE
:10147000022BCDE9060111D118F02AFC22230360CA
:10148000089B9BB9DDE90667304639460BB0BDE8DD
:10149000F0830B4B4FF06042CDE90623684618F00D
:1014A00093FA0028E8D0089B002BEBD018F010FC32
:1014B000089B0360E6E700BFD4C701000000F07F8F
:1014C000FFFFEF477DF8B98FCE3386400F02002033
:1014D0002DE9F043DFF8E4808BB004460D4601F0BF
:1014E00047F998F90030013306460F4633D02046BD
:1014F000294618F063FA70B32CA3D3E900232046E1
:10150000294619F09FF8814650BB2AA3D3E900234E
:101510002046294619F078F8E8B198F90030204AB9
:10152000CDF82090002000210426022BCDE90445AF
:10153000CDE902450096CDE90601019229D0684621
:1015400018F042FA28B3089B1BB118F0C1FB089BA6
:101550000360DDE90667304639460BB0BDE8F0832D
:101560000F4A98F90030019203210022CDE9044589
:10157000CDE90245009108922BB90A4B4FF0604229
:10158000CDE90623DBE708490020022BCDE906015F
:10159000D5D118F09DFB22230360D4E7AFF3008080
:1015A000DCC70100FFFFEF470000F07FEF39FAFED4
:1015B000422E864051302DD5104987C00F020020A1
:1015C0002DE9F04FDFF82C938DB006460F461446F8
:1015D0001D4601F09DFC99F90080B8F1FF3FCDE96F
:1015E000000136D022462B462046294619F034F811
:1015F000834670BB32463B463046394619F02CF8DC
:101600008246002840F0A28030463946002200235E
:1016100018F0F0FF10B3002200232046294618F0EE
:10162000E9FF8346002867D09FEDA77B0122AC4BE2
:10163000CDF828A00292CDE90467CDE906458DEDED
:10164000087B0393B8F1000F41D09FEDA17B8DED96
:10165000007BDDE900010DB0BDE8F08FDDE90001A0
:1016600018F0ACF98046002800F08D804FF0000A99
:101670004FF0000BDDE9000152465B4618F0BAFF5F
:101680000028E6D03046394618F098F90028E0D016
:101690002046294618F092F90028DAD099F900304E
:1016A0008F4A039204210022022BCDE90467CDE981
:1016B0000645CDE908AB02910A9203D002A818F0C2
:1016C00083F950B918F004FB2223036005E002A857
:1016D00018F07AF9002800F09B800A9B1BB118F0E3
:1016E000F7FA0A9B03609DED087B8DED007BDDE939
:1016F00000010DB0BDE8F08F2046294618F05EF9D4
:101700000028A6D0002200232046294618F07CFF9E
:1017100000289ED0724A99F90030CDF828B00121F6
:10172000CDE90467CDE90645CDE90212002B74D05E
:101730006C490020022BCDE9080172D118F0C8FADB
:10174000212303600A9B002BCDD0C8E70022002391
:101750002046294618F04EFF00283FF47AAF624B2E
:101760005F49CDF828B000220120B8F1020FCDE981
:1017700004670290CDE90645CDE908230391A6D17F
:10178000CDE9002365E73046394618F017F90028FF
:101790003FF46CAF2046294618F010F900283FF4BA
:1017A00065AFDDE900231046194618F055FF99F999
:1017B00000A000286BD10323DFF824C10A9029463A
:1017C000204602930022494BCDF80CC0CDE90645D6
:1017D000CDE9046718F0A6FC04460D46BAF1000FE7
:1017E00025D1DFF814B14FF0604A002200233046C3
:1017F0003946CDE908AB18F007FF38BB02A818F04E
:10180000E3F800289ED118F063FA2223036099E7D9
:1018100018F05EFA212303605FE79FED2B7B8DEDCF
:10182000087B02A818F0D0F800288BD186E79FED3E
:101830002A7B00220023304639468DED087B18F0C4
:10184000E3FEA0B9BAF1020FDDD0D7E72046294662
:1018500018F0C2F822462B4618F0CCFEA0B9244B53
:1018600099F900A04FF06042CDE90823EAE720464D
:10187000294618F0B1F822462B4618F0BBFE18B9DD
:10188000184B0022CDE9082399F900A0DAE70122DC
:10189000134BCDF828800292CDE90467CDE90645C7
:1018A0000393BAF1000FB8D0002200231046194666
:1018B00018F062FDBAF1020FCDE908013FF43EAF26
:1018C000AFE700BFAFF300800000000000000000A1
:1018D000000000000000F03F000000000000F07F6A
:1018E000F4C701000000F0FF0000F03F0000E03FFF
:1018F000FFFFEFC70F020020FFFFEF4700000000CF
:101900002DE9F84FC44E21F00043B34204460D4682
:101910000DDD03F1404303F58013034340F0B9802C
:10192000002940F3408100200021BDE8F88FBB4E24
:10193000B34208DCBA4A934200F3B5809CA1D1E9D6
:101940000001BDE8F88F0029C0F2708102460B4605
:101950000020B44918F02EFA0022B34B18F0E2FB35
:1019600004460D4617F0FAF993A3D3E900238946FC
:1019700080462946204618F0D5FB91A3D3E90023E1
:1019800018F01AFA22462B4618F0CCFB8EA3D3E9A6
:10199000002318F00FFA22462B4618F0C3FB8CA345
:1019A000D3E9002318F008FA22462B4618F0BAFBB8
:1019B00089A3D3E9002318F0FDF922462B4618F03D
:1019C000B1FB87A3D3E9002318F0F6F922462B4692
:1019D00018F0A8FB84A3D3E9002382468B46204657
:1019E000294618F09FFB82A3D3E9002318F0E2F9FF
:1019F00022462B4618F096FB7FA3D3E9002318F06C
:101A0000DBF922462B4618F08DFB7DA3D3E900239A
:101A100018F0D0F922462B4618F084FB0022814BA7
:101A200018F0CAF902460B465046594618F0A4FC75
:101A300042464B4618F076FB002682468B463246DD
:101A40004B463046494618F06DFB02460B46204691
:101A5000294618F0AFF9324604460D464B4640463B
:101A6000494618F0A9F902460B462046294618F0C7
:101A700083FC02460B465046594618F09DF9324603
:101A80004B4618F099F902460B4618F095F9BDE857
:101A9000F88F02460B4618F08DF902460B4618F0F7
:101AA0006BFCBDE8F88F02460B4618F03BFB42A3E7
:101AB000D3E9002306460F4618F034FB40A3D3E9D0
:101AC000002318F079F932463B4618F02BFB3EA371
:101AD000D3E9002318F06EF932463B4618F022FB9A
:101AE0003BA3D3E9002318F067F932463B4618F0D0
:101AF00019FB39A3D3E9002318F05CF932463B46C1
:101B000018F010FB36A3D3E9002318F055F932463C
:101B10003B4618F007FB34A3D3E9002380468946EF
:101B20003046394618F0FEFA31A3D3E9002318F005
:101B300041F932463B4618F0F5FA2FA3D3E90023CA
:101B400018F03AF932463B4618F0ECFA2CA3D3E9E8
:101B5000002318F02FF932463B4618F0E3FA002232
:101B6000304B18F029F902460B464046494618F01A
:101B700003FC22462B4618F0D5FA02460B4622A15A
:101B8000D1E9000118F016F902460B462046294615
:101B900018F010F902460B4605A1D1E9000118F032
:101BA00009F9BDE8F88F1AA1D1E9000179E700BF72
:101BB000182D4454FB21F93F09F7FD0DE13D023F8B
:101BC00088B20175E0EF493F3B8F68B52882A43F9A
:101BD0005544880E55C1C93F7D6FEB0312D6D43FE3
:101BE000555555555555C53F82922EB1C5B8B33F91
:101BF00059018D1B6C06E63FC88A599CE52A0040B6
:101C00004B2D8A1C273A0340075C143326A6913CCF
:101C1000182D4454FB210940FFFFEF3FFFFFDF3F3A
:101C20000000603C0000F03F0000E03F00225C4B01
:101C300018F0C2F800225B4B18F074FA40A3D3E905
:101C4000002304460D4618F06DFA3FA3D3E90023A4
:101C500018F0B2F822462B4618F064FA3CA3D3E9F8
:101C6000002318F0A7F822462B4618F05BFA3AA397
:101C7000D3E9002318F0A0F822462B4618F052FAB8
:101C800037A3D3E9002318F095F822462B4618F025
:101C900049FA35A3D3E9002318F08EF822462B46E3
:101CA00018F040FA804689462046294617F056F833
:101CB0002FA3D3E9002306460F462046294618F0F5
:101CC00031FA2DA3D3E9002318F074F822462B46ED
:101CD00018F028FA2AA3D3E9002318F06DF8224659
:101CE0002B4618F01FFA28A3D3E9002318F062F856
:101CF00022462B4618F016FA0022294B18F05CF801
:101D000002460B464046494618F036FB32463B46F3
:101D100018F008FA1EA3D3E9002318F04BF8324656
:101D20003B4618F049F802460B4618F045F80246C3
:101D30000B4619A1D1E9000118F03CF8B1E600BF4B
:101D400009F7FD0DE13D023F88B20175E0EF493F23
:101D50003B8F68B52882A43F5544880E55C1C93FC2
:101D60007D6FEB0312D6D43F555555555555C53F9C
:101D700082922EB1C5B8B33F59018D1B6C06E63F68
:101D8000C88A599CE52A00404B2D8A1C273A0340FB
:101D9000075C143326A6913C182D4454FB210940BE
:101DA0000000F03F0000E03F414A91422DE9F84336
:101DB00004460D4637DD3F4A91420B4608DD02F1ED
:101DC000795291423DDD024617F0F6FFBDE8F883F7
:101DD00001F1404202F5801202432ED0B1F1804F52
:101DE00037DC0022344B17F0E5FF02460B46044671
:101DF0000D4617F0E1FF224606460F462B462046C9
:101E0000294618F08FF902460B463046394617F03E
:101E1000D3FF16F0A3FF22462B4617F0CDFFBDE8F7
:101E2000F843FFF7C1B802460B4617F0C3FF02465E
:101E30000B4618F0A1FABDE8F88300200021BDE8A8
:101E4000F88300F00DFE18A3D3E9002317F0B4FFC8
:101E5000F1E7024618F066F90022174B17F0AAFFC7
:101E600016F07CFF2246804689462B4620462946AE
:101E700017F0A2FF224606460F462B46404649462B
:101E800017F09AFF02460B4600200B4918F074FA2F
:101E90000B4602463946304617F08CFFBDE8F84342
:101EA00000F0DEBDAFF30080EF39FAFE422EE63FD0
:101EB000FFFFEF3FFFFFAF410000F03F00000000D9
:101EC0002DE9F04FAE4B21F000479F4287B004460A
:101ED0000D4611DD07F1404707F5801703463B43E8
:101EE00021D002460B4617F065FF02460B4618F05C
:101EF00043FA07B0BDE8F08FA24B9F420E4629DCA3
:101F0000B7F1795F80F2468181A3D3E9002317F00E
:101F100053FF00229C4B18F095FBD8B12046294670
:101F200007B0BDE8F08F7CA3D3E9002318F0FAF8DE
:101F30007BA3D3E9002306460F462046294618F026
:101F4000F1F802460B463046394617F035FF07B028
:101F5000BDE8F08F2046294616F064F802460B468D
:101F60000020894917F026FF0022884B18F0DAF884
:101F70006DA3D3E9002304460D4618F0D3F86CA3F3
:101F8000D3E9002317F018FF22462B4618F0CAF8B1
:101F900069A3D3E9002317F00DFF22462B4618F062
:101FA000C1F867A3D3E9002317F006FF22462B46AA
:101FB00018F0B8F864A3D3E9002317F0FBFE22461B
:101FC0002B4618F0AFF862A3D3E9002317F0F4FE14
:101FD00022462B4618F0A6F85FA3D3E90023CDE9EB
:101FE00000012046294618F09DF85DA3D3E900239F
:101FF00017F0E0FE22462B4618F094F85AA3D3E9D6
:10200000002317F0D9FE22462B4618F08BF858A370
:10201000D3E9002317F0CEFE22462B4618F082F8B3
:10202000594B002217F0C8FE82468B4620462946AF
:10203000CDE902AB16F092FE554B9F428046894691
:1020400000F3198102460B4617F0B6FEDDE90223C4
:10205000CDE90401DDE9000118F08EF902460B46D6
:10206000DDE9040118F05EF84FF0000ACDE9000147
:1020700052464B465046494618F054F802460B4625
:102080002046294617F096FE524604460D464B461A
:102090004046494617F090FE02460B462046294628
:1020A00018F06AF902460B4617F086FE02460B4608
:1020B0001BA1D1E9000117F07DFE02460B46DDE9C8
:1020C000000117F077FE524604460D464B46504637
:1020D000494617F071FE02460B4627A1D1E90001DF
:1020E00017F068FE02460B462046294617F062FEAE
:1020F00002460B4620A1D1E9000117F05BFE002E3D
:102100003FF7F7AE01F100431946F2E6AFF3008066
:102110009C7500883CE4377E182D4454FB21F93F20
:10212000075C143326A6913C09F7FD0DE13D023F03
:1021300088B20175E0EF493F3B8F68B52882A43F24
:102140005544880E55C1C93F7D6FEB0312D6D43F6D
:10215000555555555555C53F82922EB1C5B8B33F1B
:1021600059018D1B6C06E63FC88A599CE52A004040
:102170004B2D8A1C273A0340182D4454FB21E93F7C
:10218000FFFFEF3FFFFFDF3F0000F03F0000E03FB9
:102190003233EF3F02460B4617F0C4FF4BA3D3E99F
:1021A000002306460F4617F0BDFF4AA3D3E90023DC
:1021B00017F002FE32463B4617F0B4FF47A3D3E9BF
:1021C000002317F0F7FD32463B4617F0ABFF45A35F
:1021D000D3E9002317F0F0FD32463B4617F0A2FF8B
:1021E00042A3D3E9002317F0E5FD32463B4617F042
:1021F00099FF40A3D3E9002317F0DEFD32463B46AA
:1022000017F090FF3DA3D3E900238046894630466E
:10221000394617F087FF3BA3D3E9002317F0CAFD27
:1022200032463B4617F07EFF38A3D3E9002317F070
:10223000C3FD32463B4617F075FF36A3D3E90023B2
:1022400017F0B8FD32463B4617F06CFF00221E4BDC
:1022500017F0B2FD02460B464046494618F08CF88E
:1022600022462B4617F05EFF22462B4617F0A4FDB0
:1022700007B0BDE8F08F52465B46DDE9000118F07B
:102280007BF842464B4617F04DFF42464B4617F04F
:1022900093FD02460B4617F08FFD07A3D3E90023F9
:1022A00017F088FD02460B4605A1D1E9000117F0A1
:1022B00081FD24E7AFF30080075C143326A6913C30
:1022C000182D4454FB21F93F0000F03F09F7FD0DA4
:1022D000E13D023F88B20175E0EF493F3B8F68B5B1
:1022E0002882A43F5544880E55C1C93F7D6FEB033A
:1022F00012D6D43F555555555555C53F82922EB1EE
:10230000C5B8B33F59018D1B6C06E63FC88A599C7E
:10231000E52A00404B2D8A1C273A034000000000AC
:102320002DE9F84F1D465342134325F00049DFF8CD
:10233000C8C149EAD3736345144606460F4626D8FA
:10234000C0F1000848EA000821F0004A4AEAD878BB
:10235000E04503468B461AD805F1404808F5801839
:1023600058EA0208AE4643D04FEAA57808F00208C2
:102370005AEA030348EAD17811D1B8F1020F55D0D7
:10238000B8F1030F09D14AA1D1E9000105E03246B5
:102390003B462046294617F00FFDBDE8F88F59EA65
:1023A000020329D0E1452ED0E24525D0AAEB090948
:1023B0004FEA2959B9F13C0F3CDC002D3EDA19F106
:1023C0003C0F3BDA00200021B8F1010F4ED0B8F1EC
:1023D000020F3ED0B8F1000FDFD037A3D3E90023BE
:1023E00017F0E8FC36A3D3E9002317F0E3FCD4E7A9
:1023F000BDE8F84FFEF744BBBBF1000F12DB32A182
:10240000D1E90001C9E7CA4534D0B8F1020F0DD0B7
:10241000B8F1030FB7D0B8F1010F4FF0000036D07C
:102420000021BAE72AA1D1E90001B6E724A1D1E948
:102430000001B2E724A1D1E90001C5E722462B46FD
:102440003046394617F098FF15F0ECFDFEF718FB03
:10245000BAE719A3D3E9002317F0ACFC02460B46F8
:1024600017A1D1E9000117F0A5FC96E701F100439F
:10247000194692E7B8F1020F14D0B8F1030F0DD04E
:10248000B8F1010F06D014A1D1E9000185E74FF0A2
:10249000004182E712A1D1E900017EE712A1D1E952
:1024A00000017AE712A1D1E9000176E7AFF30080DD
:1024B000182D4454FB2109C0075C143326A6A13C07
:1024C000182D4454FB210940182D4454FB21F93F99
:1024D000182D4454FB21F9BF182D4454FB21E93F2A
:1024E000182D4454FB21E9BFD221337F7CD902C08F
:1024F000D221337F7CD902400000F07F0000000031
:1025000043422DE9F047034321F000463C4A46EAA6
:10251000D373934204460D462AD8964240D0394B95
:102520009E428A462EDD384B9E4235463FDD33467D
:102530000246314617F040FC224606460F462B461F
:1025400000202F4917F036FC02460B46304639462C
:1025500017F012FFFEF728FD00222C4B17F0E2FDCA
:10256000BAF1000F0CDA01F100431946BDE8F0871B
:1025700002460B4617F01EFC02460B4617F0FCFE07
:10258000BDE8F0871CA3D3E9002317F015FC002257
:10259000002318F057F848B120462946BDE8F087D7
:1025A0000022002317F0E8FEBDE8F08735462246FA
:1025B0002B462046294617F0FFFB22462B460646AF
:1025C0000F4617F0AFFD2246804689462B46002075
:1025D0000B4917F0EFFB02460B464046494617F001
:1025E000CBFE32463B4617F0E7FBFEF7DDFC002250
:1025F000064B17F097FDB3E79C7500883CE4377EE7
:102600000000F03FFFFF2F3EFFFFDF3F0000E03FF5
:102610002DE9F8434E4B21F000449C4206460F46FC
:102620001BDC4C4B9C4222DD4B4B9C4254DD4B4B04
:102630009C4246DD4A4B9C426FDD01339C4269D08F
:1026400041A3D3E900231046194617F06BFD064657
:102650000F4630463946BDE8F88302460B4617F070
:1026600061FD06460F4630463946BDE8F88315F051
:10267000D9FC02F04DFC00223A4B8046894617F007
:102680009BFBB4F1725F06460F46ECDB42464B46BD
:102690004046494617F046FD32463B4604460D4645
:1026A0003046394617F088FB02460B46204629463D
:1026B00017F062FE00222B4B17F07EFB06460F46FA
:1026C000D1E715F0AFFC00F053F80022264B17F0CD
:1026D00029FD06460F46C6E715F0A4FC00F048F8B1
:1026E0000022214B06460F4617F01CFD32460446D9
:1026F0000D463B4600201C4917F03EFE02460B46A5
:102700002046294617F058FB06460F463046394604
:10271000BDE8F883154B984292D83046394615F0FB
:1027200081FC0022104B17F0FDFC00F021F8002284
:1027300004460D460C4B17F0F5FC22462B4617F0CD
:10274000F1FC06460F468EE79C7500883CE4377E18
:10275000FFFFEF7F422ED63FFFFF3540412E8640E0
:10276000CD3386400000F03F0000E03F7DF8B98F98
:102770002DE9F047B04F21F00042BA4284B0044640
:102780000D464FEAD17610D9AC4FBA4240F28A805A
:10279000C1F313030343024640F0F180002E7ED0C4
:1027A0000020002104B0BDE8F087A54B9A4200F25A
:1027B000B680A44B9A4240F2D1804FF0000A2246E4
:1027C0002B462046294617F0ADFC85A3D3E900230C
:1027D00006460F4617F0A6FC83A3D3E9002317F0A3
:1027E000E9FA32463B4617F09DFC81A3D3E900236A
:1027F00017F0E2FA32463B4617F094FC7EA3D3E989
:10280000002317F0D7FA32463B4617F08BFC7CA327
:10281000D3E9002317F0D0FA32463B4617F082FC8A
:1028200002460B462046294617F0C4FA02460B46DC
:1028300006460F462046294617F074FC8046894616
:10284000BAF1000F00F0AB8032463B4600204FF05B
:10285000804117F0AFFA02460B464046494617F052
:102860008BFD02460B46DDE9020117F0A3FADDE914
:10287000002317F09FFA0B4602467349002017F019
:1028800099FA6FF47F739A4580F2A3800AF57A7AF9
:1028900001EB0A5100224FF0B87317F043FC04B06B
:1028A000BDE8F08758A3D3E9002317F0CBFE00283A
:1028B0006BD157A3D3E900232046294617F0A4FE85
:1028C00000287FF46DAF614953A3D3E9002301EBE6
:1028D000C6062046294617F025FCD6E9002317F046
:1028E0006BFA17F0CFFE824617F0B2FB4CA3D3E988
:1028F000002306460F4617F015FC02460B462046FD
:10290000294617F057FA48A3D3E90023CDE900017F
:102910003046394617F006FCCDE9020115E04C4B74
:102920009A42D0D84B4BF4002344D3E9002317F04C
:1029300041FA494B234493ED007BCDE900018DED35
:10294000027BC6F1010AAAEB060ADDE90223DDE9F2
:10295000000117F02FFA04460D4630E734A3D3E9FF
:10296000002317F029FA0022374B17F06BFEA8B3AB
:10297000204629460022344B17F01EFA8FE70B46FB
:1029800017F01AFA04B0BDE8F08729A3D3E90023B1
:102990001046194617F0C6FB04B0BDE8F087304674
:1029A000394600224FF0804317F004FA02460B46E6
:1029B0004046494617F0E0FC22462B4617F0FAF94C
:1029C00002460B460020204917F0F4F904B0BDE898
:1029D000F08701EB0A5104B0BDE8F0878246EEE6CD
:1029E000D0A4BE726937663EF16BD2C541BDBB3E15
:1029F0002CDE25AF6A56113F93BDBE166CC1663FF3
:102A00003E5555555555C53FEF39FAFE422E864085
:102A100051302DD5104987C0FE822B654715F73FF1
:102A20000000E0FE422EE63F763C7935EF39EA3D84
:102A30009C7500883CE4377E412E8640FFFFEF7F87
:102A4000422ED63FFFFF2F3E0000F03F88B401002A
:102A5000B1A2F03F98B40100A8B40100000000004A
:102A60002DE9F04FB1F5801F85B006460F460B46A5
:102A700080F2D08021F00042024300F0DA80002989
:102A8000C0F2E9800022D64B17F04CFBD54A0B462A
:102A9000934206460F466FF0350E00F3C180C3F334
:102AA000130505F5152C0CF6647C0CF4801C8CF0D9
:102AB0007F5282F440121C1542EA0507A4F2FF344B
:102AC00074440022C84B3046394604EB1C5417F0BE
:102AD00071F9AB1CC3F31303022B82468B464FF0F4
:102AE000000240F3AF804FF0804317F065F90246D3
:102AF0000B465046594617F03FFC064620460F4607
:102B000017F0A6FA3246CDE902013B463046394677
:102B1000CDE9006717F006FB02460B468046894662
:102B200017F000FB9AA3D3E9002306460F4617F0DF
:102B3000F9FA99A3D3E9002317F03EF932463B4650
:102B400017F0F0FA96A3D3E9002317F035F93246CF
:102B50003B4617F0E7FA94A3D3E9002317F02CF9CA
:102B600042464B4617F0DEFA91A3D3E90023804694
:102B700089463046394617F0D5FA8FA3D3E90023AA
:102B800017F01AF932463B4617F0CCFA8CA3D3E97A
:102B9000002317F011F932463B4617F0C3FA0B46F3
:102BA00002464946404617F007F9A5F5C223C5F588
:102BB000D725A3F27A4351351D43002D06460F4613
:102BC00040F387800022894B5046594617F0AAFAF5
:102BD00052465B4617F0A6FA02460B4680468946E7
:102BE0003046394617F0E8F8DDE9002317F09AFA85
:102BF00006460F46002C40F0818002460B464046B8
:102C0000494617F0D7F802460B465046594617F08A
:102C1000D1F80BE0734A93424FF0000E7FF73FAFBD
:102C200032463B463046394617F0C6F805B0BDE897
:102C3000F08F0022002300206D4917F09DFB05B0A6
:102C4000BDE8F08F002317F0D5FC60B1002C7CD1DB
:102C500000200021EAE7024617F0ACF8002200232A
:102C600017F08AFBE2E758A3D3E900235046594600
:102C700017F058FA02460B4600205C4917F09AF804
:102C8000524606460F465B465046594617F04AFAEA
:102C900002460B463046394617F044FA06460F46C0
:102CA0002CB3204617F0D4F949A3D3E9002380467A
:102CB000894617F037FA48A3D3E9002304460D46A6
:102CC0004046494617F02EFA02460B463046394632
:102CD0002CE002460B465046594617F06BF8DDE9EA
:102CE000002317F01FFA06460F46002C47D1324644
:102CF0003B465046594617F05DF897E734A3D3E9B1
:102D00000023DDE9020117F00DFA33A3D3E9002314
:102D100004460D46DDE9020117F004FA32463B464F
:102D200017F04AF802460B464046494617F042F86B
:102D300052465B4617F03EF802460B4620462946AF
:102D400017F038F805B0BDE8F08F204617F080F98D
:102D50001FA3D3E9002306460F4617F0E3F91EA38D
:102D6000D3E9002304460D463046394617F0DAF918
:102D700002460B462046294617F01EF856E7DDE9C5
:102D8000028913A3D3E900234046494691E700BFD7
:102D900044523EDF12F1C23FDE03CB966446C73F8A
:102DA000599322942449D23F935555555555E53FA3
:102DB0009FC678D0099AC33FAF788E1DC571CC3FAE
:102DC00004FA97999999D93F555555555555D53F79
:102DD0000000E0FE422EE63F763C7935EF39EA3DD1
:102DE00000005043FFFFEF7F0000F03F0000E03F96
:102DF000000050C300000000B1F5801F2DE9F8432A
:102E000004460D460B4619DA21F00042024359D020
:102E100000295FDB00223A4B17F084F9394A0D464E
:102E20002B46934204466FF035010CDD22462B46BB
:102E30002046294616F0C0FFBDE8F883314A934288
:102E40004FF00001F2DC1815A0F2FF3008444FEA01
:102E5000D0794844C3F3130817F0FAF8C9F57F7323
:102E6000033348EA035506460F4620462946FFF736
:102E7000F7FD1DA3D3E90023804689463046394635
:102E800017F050F91AA3D3E9002304460D46404633
:102E9000494617F047F902460B462046294616F0E8
:102EA0008BFF15A3D3E9002304460D46304639466F
:102EB00017F038F902460B462046294616F07CFFEB
:102EC000BDE8F8830022002300200F4917F054FAD0
:102ED000BDE8F883024616F06DFF0022002317F0CC
:102EE0004BFAA9E7AFF30080362BF111F3FE593D01
:102EF0000EE526157BCBDB3F00609F501344D33F8C
:102F000000005043FFFFEF7F000050C300000000AF
:102F10002DE9F04F23F0004555EA020493B00DD09F
:102F20006B4E21F00044B4420F4682460BDD04F1A3
:102F3000404404F5801454EA0A0350D16549002046
:102F400013B0BDE8F08F9B46944647D0B542EEDC07
:102F50005F4EB5425DD0002F80468946CDE9002303
:102F60005BDB0026BCF1000F0ED1594B9D423FD0D8
:102F7000584B9D4200F08880BBF1804F00F09C8050
:102F8000554B9B4500F0B8834046494615F04AF83A
:102F9000BAF1000F06D1002C59D04E4B27F0404219
:102FA0009A4254D0FF0F013F56EA070373D04B4BB0
:102FB0009D4240F39B8003F104739D4240F33E84A5
:102FC000474B9C4272DDBBF1000F72DD3EA3D3E99B
:102FD00000231046194617F0A5F8B1E728B141487B
:102FE00013B0BDE8F04F16F0F1BCA542F7DCAFE737
:102FF00004F1404303F5801353EA0A039ED0384B93
:103000009C4240F38383BBF1000F52DBDDE90001FA
:1030100096E7BCF1000F9ED089E7334B9D4231DC2F
:10302000A3F154739D429CDD2B15A3F2FF33142BA7
:1030300040F3A583C3F134032CFA03F202FA03F33D
:1030400063458ED102F00102C2F102068AE7BBF1AC
:10305000000F05DA02460B4600201E4917F08CF9D6
:10306000002FBFF66DAF04F1404404F5801454EA1C
:10307000060300F03F84012E7FF462AF01F10043AC
:1030800019465DE702266DE7BBF1000FC0F24883E9
:103090004046494654E742464B461046194616F00C
:1030A00089FE02460B4617F067F949E7BBF1000FAE
:1030B0008CDB0020002143E742464B464046494610
:1030C00017F030F83CE700BF9C7500883CE4377E81
:1030D0000000F07F0000F03F0000E03F0000E04112
:1030E000FFFFEF3FB0BC0100FFFF3F43B4F5801F7F
:1030F00080F261830022D24B17F014F86FF0340C89
:103100000C462315CF4DC4F31302A3F2FF3342F054
:103110007F546344AA420B9344F4401440F33F832A
:10312000C94B9A4240F304849FEDAF7B8DED087B41
:103130008DED107B9FEDAE7B0B9B8DED067B013300
:103140000B93A4F580140025DDE906232146824671
:1031500016F030FEA346DDE9062380468946504638
:103160002146CDE90CAB16F027FE02460B460020A7
:10317000B64917F001F90A460146CDE90E12134689
:1031800049460246404616F0CDFF631043F0005317
:1031900082468B4603F500238C46CDE904AB5919D2
:1031A000D3460023CDE902BC0293DDE902AB002047
:1031B00004460D4602460B465046594616F0B2FFED
:1031C00002460B464046494616F0F4FDDDE906236B
:1031D000804689462046294616F0ECFD02460B46FD
:1031E000DDE90C0116F0E6FD52465B4616F09AFF4B
:1031F00002460B464046494616F0DCFDDDE90E234B
:1032000016F090FFDDE90445CDE9060122462B4684
:103210002046294616F086FF77A3D3E9002304460B
:103220000D4616F07FFF76A3D3E9002316F0C4FD08
:1032300022462B4616F076FF73A3D3E9002316F03F
:10324000BBFD22462B4616F06DFF71A3D3E9002388
:1032500016F0B2FD22462B4616F064FF6EA3D3E9AA
:10326000002316F0A9FD22462B4616F05BFF6CA347
:10327000D3E9002316F0A0FD2246804689462B465E
:103280002046294616F04EFF02460B464046494668
:1032900016F048FF524604460D465B46DDE9040140
:1032A00016F08AFDDDE9062316F03CFF22462B4688
:1032B00016F082FD5246804689465B465046594686
:1032C00016F030FF0022624BCDE90C0116F074FDC0
:1032D00042464B4616F070FD02980D4604462246C3
:1032E0002B465046594616F01DFF002282468B465B
:1032F000574B2046294616F05DFDDDE90C2316F0FC
:1033000059FD02460B464046494616F053FDDDE99D
:10331000042316F007FF2246804689462B46DDE946
:10332000060116F0FFFE02460B464046494616F0DF
:1033300043FD8046894602460B465046594616F0E4
:103340003BFD029838A3D3E9002304460D4616F04E
:10335000E9FE5246CDE904015B462046294616F0B7
:1033600029FD02460B464046494616F023FD30A390
:10337000D3E9002316F0D6FE2FA3D3E9002380461D
:1033800089462046294616F0CDFE02460B464046A9
:10339000494616F011FDDDE9102316F00DFD8046BB
:1033A0000B98894616F054FE424682468B464B46A1
:1033B000DDE9040116F000FDDDE9082316F0FCFC50
:1033C00052465B4616F0F8FC029852465B460446AD
:1033D0000D4616F0EFFCDDE9082316F0EBFCDDE905
:1033E000042337E0AFF3008000000000000000007D
:1033F000000000000000F03FEF4E454A287ECA3F23
:1034000065DBC9934A86CD3F01411DA96074D13F58
:103410004D268F515555D53FFFAB6FDBB66DDB3F6A
:10342000033333333333E33F000000E009C7EE3F9B
:10343000FD033ADC09C7EE3FF5015B14E02F3EBE09
:10344000000040438E98030079B60B000000F03F67
:103450000000084016F0AEFC0B46024649464046C6
:1034600016F0A8FC013E56EA070382468B4600F0A0
:103470005E819FEDD37B8DED047BDDE9001200239F
:103480000E461746CDE902670293DDE9026708465A
:103490003B461146324616F08DFC22462B4616F06E
:1034A00041FEDDE90023804689465046594616F024
:1034B00039FE02460B464046494616F07DFC324630
:1034C000804689463B4620462946CDE9008916F0CC
:1034D00029FE0B46024606460F464046494616F070
:1034E0006BFCD14B994204460D468A4640F3248139
:1034F00001F13F4303F5E003034340F0FF81B2A332
:10350000D3E90023DDE9000116F056FC324680467F
:1035100089463B462046294616F04CFC02460B469F
:103520004046494617F08EF8002840F0E781A8464B
:103530004FEA2853A3F2FE324FF480131341534451
:10354000C3F30A52B94DA2F2FF321541C3F313047B
:1035500023EA05010020C2F1140B44F48014BAF1EF
:10356000000F02460B4644FA0BFB30463946B8BF03
:10357000CBF1000B16F01EFC06460F463246DDE985
:1035800000013B4616F018FC4FEA0B5A0D4600248A
:103590008FA3D3E900232046294616F0C3FD324607
:1035A000804689463B462046294616F003FC0246E3
:1035B0000B46DDE9000116F0FDFB87A3D3E90023EC
:1035C00016F0B0FD86A3D3E9002306460F46204639
:1035D000294616F0A7FD02460B463046394616F03E
:1035E000EBFB06460F4602460B464046494616F0A0
:1035F000E3FB42464B4604460D4616F0DBFB024613
:103600000B463046394616F0D5FB224680468946A1
:103610002B462046294616F085FD73A3D3E90023E7
:1036200006460F4616F07EFD71A3D3E9002316F07F
:10363000C1FB32463B4616F075FD6FA3D3E900236C
:1036400016F0BAFB32463B4616F06CFD6CA3D3E98C
:10365000002316F0AFFB32463B4616F063FD6AA32B
:10366000D3E9002316F0A8FB32463B4616F05AFD7C
:1036700002460B462046294616F09CFB06460F469E
:1036800002460B462046294616F04CFD0022CDE9A5
:1036900000014FF080433046394616F08BFB02465E
:1036A0000B46DDE9000116F067FE424606460F466E
:1036B0004B462046294616F035FD42464B4616F04D
:1036C0007BFB02460B463046394616F073FB22461A
:1036D0002B4616F06FFB02460B460020544916F0AD
:1036E00069FB8A44BAF5801FC0F232815146DDE998
:1036F000042316F017FD23E4002FFFF645AC4046E7
:10370000494613B0BDE8F04F15F028BBBBF1000FE0
:10371000BFF6CFACDDE90034184604F100410FE4F8
:1037200042464B460020424916F026FE08E49FED33
:10373000387B8DED047BA0E63E4B21F00048984598
:1037400040F3EA803C4B0B4403430AD132463B46EC
:1037500016F030FBDDE9002316F06AFF00283FF485
:10376000E7AEDDE904012CA3D3E9002316F0DAFC6F
:1037700029A3D3E9002316F0D5FCFFF7E1BBBCF188
:10378000000F40F0D280C3F1140345FA03F202FAAD
:1037900003F3AB4200F0E0806646FFF7E9BB9FED24
:1037A000207B8DED087B8DED107B9FED057B00254B
:1037B0008DED067BC8E44FF0000CA2E4AFF300806F
:1037C000000000000000F03FFE822B654715973C8B
:1037D00000000000432EE63FEF39FAFE422EE63F9E
:1037E000396CA80C615C20BED0A4BE726937663EFD
:1037F000F16BD2C541BDBB3E2CDE25AF6A56113FF1
:1038000093BDBE166CC1663F3E5555555555C53FD7
:10381000000000000000F0BF59F3F8C21F6EA501C0
:103820000000000000000000FFFF8F40FFFF0F00BE
:103830000000F03FFFCB904000346F3F5A4B9C425A
:103840007FF734AC594B9C423FF7BDAB0022574B3E
:1038500016F0B0FA44A3D3E9002304460D4616F04F
:1038600061FC43A3D3E9002382468B4620462946C8
:1038700016F058FC0022CDE902014D4B20462946A6
:1038800016F050FC02460B463BA1D1E9000116F0B0
:1038900091FA22462B4616F045FC02460B460020C4
:1038A000444916F087FA2246804689462B46204630
:1038B000294616F037FC02460B464046494616F0AC
:1038C00031FC2FA3D3E9002316F02CFC02460B4653
:1038D000DDE9020116F06EFA02460B468046894683
:1038E0005046594616F068FA002004460D465246E6
:1038F0005B46AFE502460B46FFF7CFBBDDE90401AF
:1039000021A3D3E9002316F00DFC1FA3D3E9002364
:1039100016F008FCFFF714BB264B98453FF708AE9E
:10392000DDE902239246934631E60026FFF72CBBE1
:103930009FED177B8DED087B9FED177B8DED107B49
:103940009FED177B4FF480258DED067BFFF7FCBBC9
:103950005A4601F029FDCAE602F00102C2F1020650
:10396000FFF706BBAFF30080000000604715F73F8C
:1039700044DF5DF80BAE543E555555555555D53F72
:10398000FE822B654715F73F9C7500883CE4377E27
:103990000000004003B8E23F06D0CF43EBFD4C3EB1
:1039A000000000000000F83FFEFFEF3F0000F03F86
:1039B0000000D03F0000E03F2DE9F047CA4B21F066
:1039C00000479F4290B08046894640F38F80C74BA6
:1039D0009F420C46924626DC0029B9A3D3E9002376
:1039E00040F38F8016F0E6F9C14B9F4204460D4626
:1039F00000F04781B4A3D3E9002316F0DBF90246B7
:103A00000B46CAE900232046294616F0D3F9AEA397
:103A1000D3E9002316F0CEF90125CAE902012846B0
:103A200010B0BDE8F087B34B9F4240F38980B24BA2
:103A30009F4200F31C813D15A5F21645A7EB0553E7
:103A400019461F46064616F01DFE16F001FB80467D
:103A5000894642464B4630463946CDE90A8916F03A
:103A6000A9F90022A54B16F05DFB8946804616F0A9
:103A700009FE16F0EDFA06460F4632463B46404632
:103A80004946CDE90C6716F095F900229B4B16F0DC
:103A900049FB00220023CDE90E0116F0ABFD002802
:103AA00000F06081002330463946002216F0A2FD66
:103AB000002814BF01230223914A019202212A46C1
:103AC00000910AA8514600F087FB002C054614DA45
:103AD000DAF80420DAF80C3002F1004203F1004376
:103AE0004542CAF80420CAF80C3006E00020002144
:103AF000C2E90089C2E902010025284610B0BDE8EC
:103B0000F08716F059F97A4B9F4204460D4600F0B3
:103B10000B816DA3D3E9002316F04EF902460B4644
:103B2000CAE900232946204616F044F966A3D3E9E2
:103B3000002316F041F94FF0FF35CAE90201DCE736
:103B400014F070FA62A3D3E900238046894616F088
:103B5000E9FA00226B4B16F02FF916F093FD05469B
:103B600016F076FA56A3D3E90023CDE9060116F044
:103B7000D9FA02460B464046494616F01BF952A3B5
:103B8000D3E9002380468946DDE90601CDE90289B3
:103B900016F0C8FA1F2D02460B46CDE9042340F368
:103BA000B380DDE90423DDE9020116F003F9804664
:103BB00089463F15C9F30A53FB1A102B40F3B18015
:103BC00045A3D3E90023DDE9060116F0ABFA8046F0
:103BD000894602460B46DDE9020116F0EBF8024683
:103BE0000B46DDE90201CDE9082316F0E3F8424671
:103BF0004B4616F0DFF83AA3D3E900238046894606
:103C0000DDE9060116F08EFA42464B4616F0D2F870
:103C10000B46CDE904010246DDE9080116F0CAF8B9
:103C2000C1F30A53FF1A312F8046894600F39C8066
:103C30009DED087BCAE900898DED027B42464B462B
:103C4000DDE9020116F0B6F8DDE9042316F0B2F85A
:103C5000002CCAE90201BFF650AF09F1004401F19E
:103C600000436D42CAE90084CAE9020345E70246FF
:103C70000B4616F09FF80025CAE90201CAE90001C7
:103C80003BE715A3D3E9002316F094F814A3D3E976
:103C900000230D46044616F08DF802460B46CAE98D
:103CA00000232946204616F085F80DA3D3E900230A
:103CB00016F080F80125CAE902011EE7AFF3008083
:103CC00000004054FB21F93F3163621A61B4D03DDA
:103CD00083C8C96D305FE43F0000601A61B4D03D15
:103CE0007370032E8A19A33BFB21E93F7BD9024065
:103CF000FB21F93FFB213941FFFFEF7F00007041BD
:103D000090C801000000E03F4046494616F052F8D6
:103D1000394B6A1E804653F82230BB4289463FF435
:103D200048AFCAE9008989E72BA3D3E9002316F03D
:103D300043F82BA3D3E900230D46044616F03CF8C4
:103D400002460B46CAE900232946204616F032F8FF
:103D500023A3D3E9002316F02FF84FF0FF35CAE96B
:103D60000201CAE60323A7E61FA3D3E90023DDE986
:103D7000060116F0D7F906460F4602460B46DDE966
:103D8000080116F017F88046894602460B46DDE921
:103D90000801CDE9028916F00DF832463B4616F0CF
:103DA00009F813A3D3E9002306460F46DDE906010F
:103DB00016F0B8F932463B4615F0FCFF02460B46BA
:103DC00040464946CDE9042315F0F4FF8046894674
:103DD000A7E700BFAFF300800000601A61B4D03DD8
:103DE0007370032E8A19A33B0000002E8A19A33B8F
:103DF000C14920259A837B3910C8010000000000CA
:103E0000574A2DE9F84F21F00048904506460F46E5
:103E10002CDC544B0029B4BF534D544D98454FF002
:103E2000000411DC524B984526DC4BA3D3E9002358
:103E300015F0C2FF00224F4B16F004FC002840D0C2
:103E400030463946BDE8F88F4B4B984530DD4B4B3B
:103E5000984568DD0133984562D0304639463EA327
:103E6000D3E9002316F05EF9BDE8F88F02460B4651
:103E700015F0A2FFBDE8F88F14F0D4F801F048F86F
:103E80003F4B984506460F4623DD0022394B15F07F
:103E900093FF02460B463046394616F06DFA32461D
:103EA0003B4615F089FF22462B4616F03BF9E1E729
:103EB00014F0B8F8FEF75CFC22462B4616F032F9F7
:103EC000D8E73046394614F0ADF801F021F806463F
:103ED0000F4632463B463046394615F06DFF3246B6
:103EE00082468B463B463046394616F01BF9002287
:103EF000804689461F4B3046394615F05DFF024625
:103F00000B464046494616F037FA02460B465046E5
:103F1000594615F04FFF22462B4616F003F9A9E744
:103F2000184B984299D83046394614F07BF8002255
:103F30000E4B16F0F7F8FEF71BFC06460F4602463E
:103F40000B462046294616F0EDF832463B4616F061
:103F5000E9F88FE7AFF300803374AC3C1F7BAC7F94
:103F6000FFFFEF7FFFFF35400000E0BF0000E03FB4
:103F7000FFFF2F3E0000F03F412E8640CD338640AC
:103F8000FFFFEF3F7DF8B98F2DE9F04F21F000489A
:103F9000B8F1795F85B006460F4692469B466BDACC
:103FA00016F070FB002800F0E18032463B463046B8
:103FB000394616F0B7F874A3D3E9002304460D463A
:103FC00016F0B0F872A3D3E9002315F0F5FE2246EF
:103FD0002B4616F0A7F870A3D3E9002315F0EAFEEC
:103FE00022462B4616F09EF86DA3D3E9002315F068
:103FF000E3FE22462B4616F095F86BA3D3E9002387
:1040000015F0D8FE22462B4616F08CF868A3D3E9AB
:10401000002315F0D1FE22462B4616F083F8CDE999
:1040200000010022664B2046294616F07BF8DDE9A8
:104030000023804689462046294616F073F85246EA
:1040400004460D465B463046394616F06BF802468C
:104050000B462046294615F0ADFE02460B4640466B
:10406000494615F0A7FE02460B460020554915F0BB
:10407000A1FE05B0BDE8F08F02460B4616F052F8DF
:1040800041A3D3E9002304460D4616F04BF840A3A4
:10409000D3E9002315F090FE22462B4616F042F895
:1040A0003DA3D3E9002315F085FE22462B4616F0EA
:1040B00039F83BA3D3E9002315F07EFE22462B46B8
:1040C00016F030F838A3D3E9002315F073FE22462A
:1040D0002B4616F027F836A3D3E9002315F06CFE23
:1040E0002B46224616F01EF8374B9845CDE90001C5
:1040F00097DD364B98453EDCA8F5001300220020E2
:1041000030499046994615F055FECDE9020100224E
:104110002B4B2046294616F005F842464B4615F033
:1041200049FEDDE90023804689462046294615F0F0
:10413000F9FF524604460D465B463046394615F0B7
:10414000F1FF02460B462046294615F033FE024693
:104150000B464046494615F02DFE02460B46DDE96A
:10416000020115F027FE05B0BDE8F08F15490020CB
:1041700005B0BDE8F08F9FED107B4FF000088DED8E
:10418000027BDFF84C90C2E7D43888BEE9FAA8BDBC
:10419000C4B1B4BD9EEE213EAD529C804F7E923E96
:1041A0009015CB19A001FA3E7751C1166CC1563F4C
:1041B0004C5555555555A53F000000000000E73F00
:1041C0000000E03F0000F03F3233D33F0000E93F02
:1041D0000000D23F000000002DE9F04FADF5197D41
:1041E000BE4CA29EBE4D54F826600793D41E85FB9C
:1041F0000475E417C4EBA50424EAE4741D46631CAB
:10420000A3EB8303013D02EBC303059373190496EB
:104210000994019503900B91A4EB05071AD43B4434
:10422000002400255E1C0DF18008DDF88C9208E06A
:1042300059F8270015F00CFF0137B742E8E80201F2
:1042400008D0002FF4DA013720462946B742E8E8C3
:104250000201F6D1049B002B079B4FEAC303029394
:104260002ADB039A20A902EB030801EB0309049B54
:1042700072AA02EBC30B0DF5E07A019B002B4FF005
:1042800000064FF0000711DB039C4D4675E9022341
:10429000F4E8020115F046FF02460B463046394667
:1042A00015F08AFD444506460F46EFD1EAE802675D
:1042B000DA4509F10809E0D1DDE902040499204456
:1042C0008B0082460BA8A3F10802C31808930CAB1D
:1042D00013440A938B4698AB03EBCB03BBF1000F5F
:1042E00053E9284529DD70AB03EBCB080DF130090C
:1042F00000227C4B2046294615F014FF16F0C2F927
:1043000015F0A6FE0022784B06460F4615F00AFF70
:1043100002460B462046294615F04CFD16F0B2F930
:1043200078E9022349F8040B3946304615F044FD7C
:1043300070AB984504460D46DAD1DDF8149020465E
:1043400029464A4601F030F800224FF07F530446D8
:104350000D4615F0E7FEFCF7A7FD0022634B15F0B4
:10436000E1FE02460B462046294615F023FD0D4688
:10437000044616F087F9804615F06AFE0B460246A1
:104380002946204615F016FD4B46002B06460F46E3
:1043900040F3E1800BF1FF320CA9C9F1180351F889
:1043A000225045FA03F101FA03F30CA8EB1A40F886
:1043B0002230C9F11705884443FA05F5002D2CDD9C
:1043C000BBF1000F08F1010840F381820C9C002C26
:1043D00040F0A780BBF1010F0AD00CA9012251F8CF
:1043E000044F531C002C40F09E809B451A46F6D18A
:1043F000059B002B0EDD012B00F0D980022B09D18B
:104400000BF1FF320CAB0CA953F82230C3F31503A8
:1044100041F82230022D00F0AF8000220023304608
:10442000394616F0E7F8002800F05382049B0BF1A0
:10443000FF394B4510DC0BF180430CAA013B089877
:1044400002EB8303002253F80419834242EA01027B
:10445000F9D1002A40F0B680049B0CAA013B52F827
:104460002330002B40F0A1800A9A012352F804194E
:1044700001330029FAD05B440BF1010999450693F9
:104480004CDC099A079909EB020801EB0B0508F1CE
:10449000804802EB030BA39B08F1FF3803EB88086D
:1044A00070AB03EBC909A39B20A903EB8B0301EBC2
:1044B000C505029358F8040F15F0CAFD0B46019983
:1044C0000246002905F1080BC5E900234FF000065C
:1044D0004FF000071CDB039C0CE000BF30CD010057
:1044E000ABAAAA2A0000703E0000704100002040E4
:1044F00075E90223F4E8020115F014FE02460B46AA
:104500003046394615F058FC544506460F46EFD163
:10451000029B9845E9E802675D46CBD1DDF818B00B
:10452000D9E6012300220CA9C4F180749B4541F80F
:1045300022400EDD51F8232001EB8B0001EB8303B9
:104540006FF07F4100E01A688A1A43F8042B834217
:10455000F9D101244CE706D10BF1FF330CAA52F834
:104560002350ED152AE700227B4B16F061F8002856
:1045700040F0A381054650E732463B46002077498C
:1045800015F018FC06460F46002C3FF446AF059A7E
:104590007249002000F008FF02460B4630463946BB
:1045A00015F008FC06460F4637E7012363E70BF1D9
:1045B000FF320CAB0CA953F82230C3F3160341F8B9
:1045C000223027E70CAB059A53F82930183ACDE989
:1045D000068505926BB909F18043013B0CA901EBFB
:1045E000830353F8041909F1FF39183A0029F8D068
:1045F0000592059A5949002000F0D6FEB9F1000F46
:1046000004460D46C0F2C0814FEAC90370AA02EB0E
:10461000030808930CAB03EB8906DFF844B14FF0B5
:10462000000A08F10807043656F8040D15F010FDCD
:1046300022462B4615F076FD5B4667E9020152469D
:104640002046294615F06EFD0CAB9E4204460D46F1
:10465000EAD148AB03930193CDF8149009F101031B
:10466000DDF810900293C3464FF0000AB9F1000F35
:10467000C0F22A81DFF8EC805D4635A3D3E9002340
:1046800000260027002403E0544510DCF8E802234C
:10469000F5E8020115F046FD02460B463046394664
:1046A00015F08AFB0134A14506460F46ECDA019B62
:1046B000E3E802670193029B0AF1010A9A45ABF114
:1046C000080BD3D1A29BDDF81490032B39D8DFE877
:1046D00013F0D900060006004D0048AB0393B9F172
:1046E000000F4FF000004FF0000109DB039D05EBC8
:1046F000C904083474E9022315F05EFBA542F9D120
:10470000079B002B40F01E810B9BC3E900010B4669
:1047100003990246D1E9000115F04CFBB9F1000FF5
:104720000CDD4AAD01240134F5E8022315F044FB09
:10473000A145F8DA079B002B40F014810B9BC3E9DD
:104740000201069B03F007000DF5197DBDE8F08F0F
:1047500000000040FB21F93F0000E03F0000F03F77
:104760000000703ED0B4010048AB0393B9F1000FD4
:1047700040F32781039ACDF810904FEAC9030193C3
:10478000D318D3E900AB09F10053013B02EBC90890
:104790000293914678E9026752465B4630463946B5
:1047A00015F00AFB04460D4602460B4630463946D4
:1047B00015F000FB52465B4615F0FEFAC145A246D5
:1047C000AB46C8E90201C8E90045E3D1DDF8109025
:1047D000B9F1010F40F3F580019B039A029913444C
:1047E000C900D3E9006701F1080A019192440DF56F
:1047F000947B7AE9028932463B464046494615F0A9
:10480000DBFA04460D4602460B464046494615F083
:10481000D1FA32463B4615F0CFFAD34526462F460D
:10482000CAE90201CAE90045E3D1019C039B1034A7
:10483000002000211C4403F1100574E9022315F047
:10484000BBFAA542F9D1039C079ED4E90023D4E921
:104850000245002E00F08A8003F1004701F1004379
:104860000B99C1E90403069B2646944605F10044D2
:1048700003F00700C1E900C7C1E902640DF5197D25
:10488000BDE8F08F089C039D0834002000212C44D3
:1048900074E9022315F090FAA542F9D1079B13B1F0
:1048A00001F1004319460B9BC3E90001069B03F08D
:1048B00007000DF5197DBDE8F08FBBF1000F08F181
:1048C000010874DD022581E500260027EFE60024BB
:1048D0008EE5CDE90685059D304639466A4200F0F1
:1048E00063FD0022384B06460F4615F0A1FE00B3CB
:1048F0000022364B3046394615F014FC15F0C2FE46
:10490000044615F0A5FB00222F4B15F00BFC0B46BF
:1049100002463946304615F04DFA15F0B3FE0BF15C
:1049200001090CAB183543F82B00059543F82940D5
:104930005FE63046394615F0A5FE0CABD94643F884
:104940002B0056E60B9C01F10043C4E900030B4623
:1049500003990246D1E9000115F02CFAB9F1000FD4
:104960003FF7DFAE01F100431946E7E60B9EC6E9CB
:104970000023069BC6E9040103F00700C6E90245CF
:104980000DF5197DBDE8F08FA29B032B3FF6D9AE44
:1049900001A252F823F000BFA9490000DB46000045
:1049A000DB460000694700000020002176E7324620
:1049B0003B460020064915F0FDF9022506460F4644
:1049C0002BE5002000213EE7000070410000703E12
:1049D0000000F03F000000002DE9F04F21F00046FC
:1049E000B6F1795F85B004460D469046994604DAE3
:1049F00015F048FE002800F0858022462B46204610
:104A0000294615F08FFB06460F4602460B46204608
:104A1000294615F087FB41A3D3E9002382468B4644
:104A20003046394615F07EFB3EA3D3E9002315F04E
:104A3000C1F932463B4615F075FB3CA3D3E9002390
:104A400015F0BAF932463B4615F06CFB39A3D3E9B1
:104A5000002315F0AFF932463B4615F063FB37A350
:104A6000D3E9002315F0A8F90E9BCDE900019BB313
:104A70000022294B4046494615F054FBDDE900234E
:104A8000CDE902015046594615F04CFB02460B4653
:104A9000DDE9020115F08EF932463B4615F042FB86
:104AA00042464B4615F086F919A3D3E90023064682
:104AB0000F465046594615F035FB02460B46304628
:104AC000394615F079F902460B462046294615F07D
:104AD00071F905B0BDE8F08F02460B463046394605
:104AE00015F020FB0AA3D3E9002315F063F9524621
:104AF0005B4615F017FB22462B4615F05DF905B015
:104B0000BDE8F08F2046294605B0BDE8F08F00BF14
:104B1000495555555555C53F0000E03F7CD5CF5A06
:104B20003AD9E53DEB9C2B8AE6E55A3E7DFEB1572E
:104B3000E31DC73ED561C119A0012A3FA6F8101197
:104B40001111813F000000002DE9F04FC04C21F011
:104B5000004687B0A64282468B460F46CDE9002329
:104B60001ADC15F08FFD00283FD1109B524601330F
:104B70001343334300F0B781109B012B00F0C08139
:104B80005B460020B34915F0F7FB04460D4620466E
:104B9000294607B0BDE8F08FAF4B9E4225DD0029C6
:104BA00009DADDE90045224605F10043CDE900239D
:104BB0000BF100418B4652465B4685A1D1E90001CD
:104BC00015F0F8F8DDE9002304460D4682A1D1E98D
:104BD000000115F0EFF89FED827B22462B468DED0C
:104BE000007B15F0E9F882468B4652465B465046FC
:104BF000594615F097FA02460B468046894615F04D
:104C000091FA424604460D464B465046594615F029
:104C100089FA75A3D3E90023CDE90201204629468C
:104C200015F080FA72A3D3E9002315F0C5F82246E7
:104C30002B4615F077FA70A3D3E9002315F0BCF8E2
:104C400022462B4615F06EFA6DA3D3E9002315F02A
:104C5000B3F822462B4615F065FA6BA3D3E900237F
:104C600015F0AAF822462B4615F05CFA68A3D3E9A2
:104C7000002315F0A1F842464B4615F053FA66A3FF
:104C8000D3E90023CDE904012046294615F04AFA6C
:104C900063A3D3E9002315F08FF822462B4615F0C5
:104CA00041FA61A3D3E9002315F086F822462B468A
:104CB00015F038FA5EA3D3E9002315F07DF82246FB
:104CC0002B4615F02FFA5CA3D3E9002315F074F8F6
:104CD00022462B4615F026FA59A3D3E9002315F0F6
:104CE0006BF802460B46DDE9040115F065F8DDE9D5
:104CF000022315F017FADDE9004522462B4615F090
:104D00005BF842464B4615F00DFA22462B4615F04D
:104D100053F84DA3D3E9002304460D46DDE9020113
:104D200015F000FA22462B4615F046F80B460246CF
:104D3000804689465046594615F03EF8464B9E42FD
:104D400004460D4600F38C80109B012B3BD002469D
:104D50000B4600203F4915F00FFB002406460F4686
:104D60002046294652465B46CDE90067CDE902015F
:104D7000009415F01FF8DDE900AB02460B464046F3
:104D8000494615F017F852465B4615F0CBF95246E6
:104D900004460D465B46DDE9020115F0C3F9002229
:104DA0002E4B15F009F802460B462046294615F011
:104DB00003F832463B4615F0B5F952465B4614F00F
:104DC000FBFF04460D462046294607B0BDE8F08F9C
:104DD000182D4454FB21E93F075C143326A6813C7F
:104DE0000000000000000000D47ABF74702AFB3E6F
:104DF000E9A7F0320FB8123F68108D1AF726303F3E
:104E00001583E0FEC8DB573F93846EE9E326823FBB
:104E1000FE41B31BBAA1AB3F735360DBCB75F3BE4E
:104E2000A69237A0887E143F0165F2F2D844433F32
:104E3000280356C9226D6D3F37D60684F464963F29
:104E40007AFE10111111C13F635555555555D53F87
:104E5000FFFF2F3E0000F0BF2794E53F0000F03F2A
:104E6000109815F0F5F82246CDE900012B462046B2
:104E7000294615F057F9DDE90023CDE90201204666
:104E8000294614F099FF02460B46DDE9020115F0B0
:104E900073FA42464B4614F08DFF02460B465046CD
:104EA000594614F087FF02460B4614F085FF024670
:104EB0000B46DDE9000114F07DFF0446B81700F051
:104EC0000200C0F101000D4615F0C2F802460B4683
:104ED0002046294615F026F904460D462046294667
:104EE00007B0BDE8F08F5046594613F09BF80246D4
:104EF0000B460020044915F03FFA04460D4662E7D0
:104F000054465D465FE700BF0000F03F0000000030
:104F10002DE9F04FCC4A21F00043934285B0824600
:104F20008B460C4620D9C94A934200F2D780002C08
:104F300080F2A481ACA3D3E900235046594614F073
:104F40003BFF0022002315F05FFB002840F0D180DA
:104F5000A7A3D3E900235046594615F0E3F80246CB
:104F60000B460020BA4994E1BA4A934200F2E58028
:104F7000B94A934240F22E81002301930022B74B9D
:104F80005046594615F0CEF806460F4602460B46E7
:104F90005046594615F0C6F897A3D3E900230446B6
:104FA0000D4615F0BFF896A3D3E9002314F004FFD3
:104FB00022462B4615F0B6F893A3D3E9002314F04C
:104FC000F9FE22462B4615F0ADF891A3D3E9002354
:104FD00014F0F2FE22462B4615F0A4F88EA3D3E976
:104FE000002314F0E7FE22462B4615F09BF8002222
:104FF0009B4B14F0E1FE8046894602460B46304644
:10500000394615F08FF802460B460020954914F0FA
:10501000D1FE064602460B460F464046494614F06E
:10502000C9FE3246804689463B465046594615F0F1
:1050300079F802460B4600208B4914F0BBFE02466D
:105040000B464046494615F097F922462B4615F087
:1050500069F8019E02460B46002E4DD0DDE902673D
:1050600032463B4614F0A6FE52465B4615F05AF80F
:1050700032463B4614F09EFE2B46224614F09AFE22
:10508000019B013306460F4600F02381019B012B53
:105090007BD0019A531C392B4FEA025500F228812C
:1050A000019A132A40F35581019BC3F57F740334A1
:1050B0000022230514F080FE02460B465046594656
:1050C00014F078FE0022664B14F076FE824605EB63
:1050D000010B5046594605B0BDE8F08F634A934234
:1050E0001BD9C1F313030343024640F01281002988
:1050F000EFDA00205E490DE05046594615F012F8EF
:1051000022462B4614F056FE02460B4650465946A0
:1051100014F050FE05B0BDE8F08F41A3D3E90023A1
:1051200015F090FA00283FF402AF3FA3D3E9002323
:105130001046194614F0F6FFECE74E4A934200F28F
:10514000EC8000293AA3D3E9002339DA14F034FEC5
:1051500039A7D7E900674FF0FF33804689460193AE
:1051600032463B464046494614F024FE02460B4672
:1051700082468B464046494614F01CFE32463B466A
:1051800014F018FECDE90201F8E600223A4B504631
:10519000594615F039FA002800F0CC80504659469F
:1051A00000222E4B14F008FE02460B4630463946CC
:1051B00014F000FE00224FF0404314F0B3FFA9E7C3
:1051C00014F0F8FD01238046894601931CA7D7E916
:1051D0000067C5E714A3D3E9002314F0EDFD0246F0
:1051E0000B468FE7AFF3008059F3F8C21F6EA5019D
:1051F000FE822B654715F73F2DC3096EB7FD8ABEAA
:105200003952E686CACFD03EB7DBAA9E19CE143FEC
:105210008555FE19A0015A3FF41011111111A13F3B
:10522000EF39FAFE422E86409C7500883CE4377EBA
:105230000000E0FE422EE63F763C7935EF39EABDCC
:10524000763C7935EF39EA3D79684340412E864016
:105250000000E0BF422ED63FFFFF8F3C0000E03F42
:105260000000F03F0000084000001840FFFFEF7F03
:105270000000F0BFB1A2F03F0000D0BF44A3D3E9CB
:1052800000235046594614F04DFF02460B460020BD
:10529000414914F091FD15F0F5F9019014F0D8FE94
:1052A00037A3D3E9002306460F4614F03BFF02461E
:1052B0000B465046594614F07DFD33A3D3E9002335
:1052C000804689463046394614F02CFF06460F4684
:1052D00046E702460B465046594614F06BFD002245
:1052E0002D4B14F01FFF00222B4B14F063FD11E730
:1052F00052465B4614F05EFD02460B4600202749ED
:1053000014F058FD6B1819460022244B14F052FD7E
:1053100000E70B4614F050FDFCE61DA3D3E9002383
:1053200014F000FF002C02460B464FF00000AFDAED
:105330001B49AEE732463B465046594614F03AFD0B
:1053400002460B4614F038FD0022144B14F034FDD5
:10535000E0E64FF4001343FA02F452465B4614F0C1
:1053600029FDC4F17F57002607F5401702460B467A
:105370003046394614F01EFDA8E600BFAFF30080AA
:105380000000E0FE422EE63F763C7935EF39EA3DFB
:10539000FE822B654715F73F0000E03F0000F03F1D
:1053A0000000E0BF00000000F8B5C1F30A53044656
:1053B0000D460E4617460BBB21F00046034633430D
:1053C0001BD0354B002214F0ADFE344B9F420446F7
:1053D0000D4635DBC1F30A530E46363B3B4440F2E3
:1053E000FE72934232DC002B11DD26F0FF4626F4DC
:1053F000E00646EA035520462946F8BD40F2FF7212
:105400009342EBD102460B4614F0D6FCF8BD13F1E3
:10541000350F28DA4CF250339F4222462B460ADDE4
:1054200019A1D1E9000114F037FC17A3D3E9002337
:1054300014F078FEF8BD16A1D1E9000114F02CFC9F
:1054400013A3D3E9002314F06DFEF8BD22462B46CA
:105450000DA1D1E9000114F01FFC0BA3D3E9002337
:1054600014F060FEF8BD26F0FF4626F4E006363361
:1054700046EA0355204629460022094B14F052FE05
:10548000F8BD00BFAFF300809C7500883CE4377E18
:1054900059F3F8C21F6EA50100005043B03CFFFF56
:1054A0000000903C10B5054C237833B9044B13B180
:1054B0000448AFF300800123237010BD10050020C5
:1054C0000000000088CE010008B5034B1BB1034962
:1054D0000348AFF3008008BD000000001405002061
:1054E00088CE0100154B002B08BF134B9D46A3F53A
:1054F000803A00218B460F461348144A121A09F0CD
:10550000DDF90F4B002B00D098470E4B002B00D03D
:1055100098470020002104000D000D48002802D00B
:105520000C48AFF3008014F0EDFB2000290005F0DB
:10553000CDF814F0D3FB00BF0000080000000220EB
:10554000000000000000000000040020B00C00205B
:10555000000000000000000070B504460E4600F098
:1055600047FA88B103681B6B05469847082C0CD096
:10557000A4F10903012B14D93246214610230D2032
:10558000BDE8704004F07AB870BD2B6828469B6A6D
:1055900098470228F0DC2B6828465B6A042198476C
:1055A000EAE72B6828469B6A98470528E4DC2B68C5
:1055B00028465B6A08219847DEE700BF38B52DED25
:1055C000028B054600F014FA044640B103681B6BD9
:1055D0009847032D03D8DFE805F02F363D06BDECD4
:1055E000028B002038BD20460CF046FD07EE900AE5
:1055F0002046F8EEE78A0CF047FD07EE900A2046B9
:10560000B8EEE78A0CF048FD68EE087A07EE100A5B
:10561000E8EEA87AB8EEC77AE7EE077AF5EE407AB8
:10562000F1EE10FAB1EEE78A1BD4FDEEC87ABDECBC
:10563000028B17EE900A38BDBDEC028B2046BDE808
:1056400038400CF019BDBDEC028B2046BDE8384057
:105650000CF01ABDBDEC028B2046BDE838400CF0C2
:105660001BBD17EE900A13F013FADEE738B50446B7
:1056700000F0BEF958B103681B6B0546984744B16A
:10568000012C04D12846BDE838400CF03FBD002075
:1056900038BD2846BDE838400CF014BD10B50446AE
:1056A00000F0A6F928B1036821465B6ABDE8104006
:1056B000184710BD0048704716FCFFFF704700BF39
:1056C00010B5034B036004460CF036FD204610BDB8
:1056D00094C2010010B5054B036004460CF02CFD8C
:1056E000204615F0A7FA204610BD00BF94C2010065
:1056F0002DE9F041032184B00546512001F0DAFC88
:10570000DFF8E8C2AE4B044604F00F06C4F30317FB
:1057100014F4807408BF6346AA4831463A460BF039
:1057200067FC221C18BF012231463B4628460EF07A
:1057300079FB0023AB60A4480BF05AFC4FF0FF311B
:10574000032001F0B7FCC0B204F052FA4FF0FF3171
:105750000446022001F0AEFCC0B204F049FA002C6D
:105760003BD0002839D00146204604F063F80646B5
:1057700000284DD04FF0FF31462001F09BFC32282D
:1057800004464ED04BDD382800F0B18068285FD148
:105790004FF0FF31012001F08DFCC0B204F028FA77
:1057A00080465C2015F04FFA052301934246009491
:1057B00031462B4607460DF0EFFBAF603B6838469D
:1057C000DB6A9847A86803681B6B98477F480BF013
:1057D0000FFC284604B0BDE8F0817D480BF008FCC2
:1057E0004FF0FF31192001F065FCC0B204F000FA5F
:1057F0004FF0FF310446182001F05CFCC0B204F009
:10580000F7F90146204604F015F806460028B1D104
:1058100070480BF0EDFB284604B0BDE8F08130285D
:1058200016D14FF0FF31012001F044FCC0B204F06A
:10583000DFF98046502015F006FAA4B2074605238A
:1058400001934246009431462B460DF04FF9B4E7E0
:1058500001243268CDE900440023D76AAB600F22EF
:105860000DF10F0332213046B847002800F0858043
:105870003368CDE900440F22DF6A30210DF10F03B8
:105880003046B84700284AD03368CDE900440D229D
:10589000DF6A38210DF10F033046B847002872D077
:1058A0003268CDE900440DF10F03D76A68217522F3
:1058B0003046B847002845D1682147480BF098FB8F
:1058C0004FF0FF31204601F0F5FBC0B204F090F933
:1058D00080465C2015F0B7F905246823CDE9003433
:1058E000424631462B4607460DF056FB65E74FF022
:1058F000FF31012001F0DEFBC0B204F079F98046EF
:10590000502015F0A0F905230746019342462B4687
:10591000009431460DF020FA304B3B604DE73021CA
:105920002D480BF065FB30244FF0FF31012001F0D2
:10593000C1FBC0B204F05CF98046502015F083F939
:1059400007467CE726480BF053FBAF68002F7FF437
:1059500035AF4FF0FF31032001F0ACFBC0B204F0D3
:1059600047F930B11F480BF043FB284604B0BDE8AF
:10597000F0811D480BF03CFB4DE7322116480BF03F
:1059800037FB3224D0E7382113480BF031FB4FF0BE
:10599000FF31204601F08EFBC0B204F029F98046A9
:1059A000502015F050F9052438230746CDE900347E
:1059B00042462B4631460DF0CFF9084B3B60FCE6E2
:1059C00058B5010068B5010088B5010048B601006E
:1059D00098B50100ACB50100D8B5010020B50100B3
:1059E000C4B50100ECB5010028B6010060B50100A6
:1059F00038B5114C23680BB1986838BD4FF0FF31B2
:105A0000012001F057FBC0B204F0F2F840B10C20C5
:105A100015F019F90546FFF76BFE2560A86838BD3B
:105A20004FF0FF31032001F045FBC0B204F0E0F875
:105A30000028ECD138BD00BF2C05002008B501F0CE
:105A40006BFCFBF7D5FCBDE8084001F0C5B900BF11
:105A500008B501F061FCFBF73BFDBDE8084001F033
:105A6000BBB900BF08B501F057FC12F051FBBDE80F
:105A7000084001F0B1B900BF08B501F04DFC12F0CB
:105A800043FFBDE8084001F0A7B900BF08B501F029
:105A900043FCFBF7BDFCBDE8084001F09DB900BF29
:105AA00008B501F039FC12F065FDBDE8084001F0D1
:105AB00093B900BF08B501F02FFCFAF745FFBDE828
:105AC000084001F089B900BF08B501F025FC12F0CB
:105AD000A7FCBDE8084001F07FB900BF70B5049E87
