:020000040002F8
:106000000000042055B603007DB603007FB60300F0
:1060100081B6030083B6030085B6030000000000CC
:1060200000000000000000000000000087B6030030
:1060300089B60300000000008BB603008DB6030094
:106040008FB603008FB60300F5B40300B9B40300A4
:10605000CDB403008FB60300FDA803008FB6030084
:1060600049B1030051B1030059B103008FB60300D9
:106070008FB603008FB603008FB603008FB6030000
:106080008FB603008FB603008FB603008FB60300F0
:106090008FB603008FB603008FB603008FB60300E0
:1060A0008FB603008FB6030061B1030069B103002E
:1060B0008FB603008FB60300000000000000000050
:1060C0008FB603008FB603008FB60300E1B4030060
:1060D0008FB603008FB603008FB603008FB60300A0
:1060E0001DB503008FB603008FB60300000000004B
:1060F000000000008FB603000000000009B5030097
:10610000000000000000000000000000000000008F
:10611000000000000000000000000000000000007F
:10612000000000000000000000000000000000006F
:10613000000000000000000000000000000000005F
:10614000000000000000000000000000000000004F
:10615000000000000000000000000000000000003F
:10616000000000000000000000000000000000002F
:10617000000000000000000000000000000000001F
:10618000000000000000000000000000000000000F
:1061900000000000000000000000000000000000FF
:1061A00000000000000000000000000000000000EF
:1061B00000000000000000000000000000000000DF
:1061C00000000000000000000000000000000000CF
:1061D00000000000000000000000000000000000BF
:1061E00000000000000000000000000000000000AF
:1061F000000000000000000000000000000000009F
:106200007CB0EE877CB0EE87FF00FF00FF00FF0050
:10621000FF00FF00FF00FF00FF00FF00FF00FF0086
:10622000FF00FF00FF00FF00FF00FF00FF00FF0076
:10623000FF00FF00FF00FF002DE9F04F85B0039144
:106240000778A7F10903042B044607F07F0200F149
:106250000100F5D9202AF3D02B2F04BF677804461C
:106260002D2F75D09FED427B8DED007B4FF0000808
:106270004FF000099FB34FF0000C25464FF0000A85
:10628000DFF8FCB0644619E017F0AEFE80468946A0
:10629000304617F03FFE42464B4617F0EFFC5246A1
:1062A000804689465B46DDE900013CB317F0C6FF36
:1062B000CDE90001A44615F8017F7FB1A7F13006B2
:1062C000092E52465B4640464946DDD9CCB92E2FB1
:1062D00017D115F8017F0124002FEFD12C4642463B
:1062E0004B46DDE9000117F07FFE80468946039B9F
:1062F000404649461C6005B0BDE8F08F4FF0010CE8
:10630000D9E72C46BCF1000F29D042464B46DDE9C7
:10631000000117F069FE07F0DF07452F8046894628
:10632000E5D10399681C0A2217F08CFC1449024637
:10633000002018F009FA02460B464046494617F07D
:1063400053FE804689464046494605B0BDE8F08F79
:106350009FED097B67788DED007B013486E7DFF8E0
:1063600024904FF000084046494605B0BDE8F08F44
:10637000000000000000F03F000000000000F0BF3F
:10638000000024400000F87F2DE9F0470023144668
:1063900000228046894618F099F828B109F1004397
:1063A00099462D232370013400220023404649469C
:1063B00018F082F828B13022002322706370BDE803
:1063C000F0874046494616F081F918F0BDF873A3EE
:1063D000D3E9002307464946404618F077F80028DD
:1063E0004ED170A3D3E900234046494618F08CF8FB
:1063F000002845D10E2F07F1010540F3B980A7F120
:106400000E0632460020624918F09EF902460B46FD
:106410004046494617F012FF00225E4B17F02EFC53
:1064200018F0CEF9002DA7F10F0E4FF0010C4DDD45
:10643000594FDFF87881012245F6F3294FF02E0AF3
:10644000494508BF40454FF030030AD3B0EB080080
:1064500061EB0901494508BF404503F10103F5D24D
:10646000DBB2237050EA010304F101084AD19542DE
:1064700052DD0132102A4FD0444677E90289DFE726
:10648000002F33DB3A460020414918F05DF90246FF
:106490000B464046494617F0D1FE3BA3D3E9002303
:1064A00080468946012500264046494617F09CFD56
:1064B0000022384B17F0E2FB18F082F9002DBC46A1
:1064C0004FF0FF3E37464FF00006B1DC2346302246
:1064D0004FF02E0803F8022B84F80180FC4345D0CE
:1064E0001C4403F8012BA342FBD1A1E77A42002010
:1064F000274918F029F902460B464046494617F04D
:1065000073FDCAE7954202F1010204BF84F801A0BD
:1065100004F10208102AAFD16EB14246302102F8D0
:10652000011BC2F1010373444344002BF7DC2EEA44
:10653000EE7301339844BCF1010F12D0BCF1000F8F
:106540004FF0650388F80030C5BF2B2388F8013071
:1065500008F1010108F102016046BDE8F0470FF0C3
:1065600047BE002388F80030BDE8F0871C465FE78F
:10657000C7F10E020020064918F0E6F83E46024632
:106580000B46012790E700BF0000901EC4BCD64216
:10659000000024400000E03FE8F203008DEDB5A0CC
:1065A000F7C6B03E50EFE2D6E41A4B4400407A10F2
:1065B00070B54FF0FF3006F017FA04466FF07F40D9
:1065C00006F012FA0646204617F094FC00220C4B07
:1065D00017F00AFD044630460D4617F08BFC06A363
:1065E000D3E9002317F02AFE02460B46204629462F
:1065F00017F044FB70BD00BF0000E0DFFFFF6F43FA
:106600000000F03D000000002DE9F04F1D46138909
:10661000AB4288BF536885B004468CBF53F8250051
:10662000002090468A4606F053FE0022904B17F059
:10663000DBFC17F089FFB8F808206B1C9A4288BF72
:10664000D8F8042006468CBF52F82300002006F03C
:106650003FFE0022864B17F0C7FC17F075FFB8F815
:1066600008300235AB4288BFD8F8043007468CBFEB
:1066700053F82500002006F02BFE002EC4E9006729
:1066800040F3E280002F40F3DF8071A3D3E90023C1
:10669000002584F8285015F03BFF00220023804697
:1066A000894617F013FF40B14046494668A3D3E935
:1066B000002317F0E3FA8046894667A3D3E9002355
:1066C0004046494617F020FFC0B165A3D3E9002337
:1066D0004046494617F004FF80B101234046494631
:1066E00084F8283060A3D3E9002317F0C7FA58A331
:1066F000D3E9002315F00CFF8046894600225D4B4C
:106700004046494617F070FC15F036FC01F1004395
:1067100000221946564B17F067FC17F015FF494643
:106720000546404615F0E4FB0022514B17F05CFC97
:1067300017F00AFFDAF804304F49B3F80CB0B3F899
:106740000AA0A56007FB0BF303EB010806FB0AF6A2
:10675000019388FB05234FEA124C00960E444CEA45
:10676000034C06EA010383FB009A06EB0C0E0EEACB
:10677000010ED346CA468EFB00675246CDE902673A
:10678000120C42EA0B42DDE902AB0CEA010C8CFB75
:1067900000674FEA164956460A40360C46EA0B4651
:1067A00049EA074982FB05AB5F46C144B0445646FF
:1067B000CDE90267039FE060360C09EA010908EAA7
:1067C000010846EA074689FB05AB334488FB0556BA
:1067D000CDE9025655462D0C45EA0B45DDE902ABE5
:1067E0000B40AC4403EAE3770CEA010C554623EA7C
:1067F000E37367454FEA154502EAE276A8BF6746AC
:1068000045EA0B45634522EAE272B8BF6346AE44EF
:106810004E450EEA010EA8BF4E464A45B8BF4A464D
:106820007745A8BF77467345B8BF73464645A8BFAE
:106830004646C4E905634245B8BF424600980199FF
:10684000206261622761E261204605B0BDE8F08FF9
:10685000EA2E4454FB211940F4D64354FB21F93F5E
:10686000320D337F7CD91240EA2E4454FB2109407B
:106870000000F0400000E03F0000FFFF00000000CB
:1068800008B510F07DFFDFED0C7A07EE100A67EE19
:10689000277A17EE900A17F04FFB05A3D3E90023E0
:1068A00017F0CCFC17F050FE08BD00BFAFF300801E
:1068B000EA2E4454FB2119400000B44300000000BC
:1068C00008B510F071FFDFED0C7A07EE100A67EEE5
:1068D000277A17EE900A17F02FFB05A3D3E90023C0
:1068E00017F0ACFC17F030FE08BD00BFAFF300801E
:1068F000EA2E4454FB2119400000B443000000007C
:10690000494A21F0004393422DE9704304460D4665
:1069100049DC464A93420E460EDC3FA3D3E90023EE
:1069200017F0ACF90022424B17F0EEFD00284AD0D8
:1069300020462946BDE870833E4A934239DCB3F1D4
:10694000804F40DD15F0D0FA2246804689462B461E
:106950002046294617F048FB0022354B17F08EF9E8
:1069600016F05EF942464B4617F088F902460B4690
:1069700000202F4917F062FC424604460D464B4664
:106980004046494617F07AF902460B46204629460A
:1069900017F074F902F040F8002E08DC01F1004312
:1069A0001946BDE8708302460B4617F067F9BDE84B
:1069B000708315F099FA02F02FF819A3D3E9002398
:1069C00017F05CF9E8E722462B462046294617F0E7
:1069D0000BFB804689462046294615F085FA0022A1
:1069E00004460D46124B4046494617F047F916F04B
:1069F00017F900220E4B17F041F902460B464046AC
:106A0000494617F01BFC22462B4617F037F900F0D9
:106A1000A7FAC1E7AFF300809C7500883CE4377E9D
:106A2000EF39FAFE422EE63FFFFFEF7FFFFF2F3EDA
:106A30000000F03F0000B0412DE9F84FBE4B21F0BF
:106A400000469E4204460D468A460EDDBB4B9E42E2
:106A500000F3B18000F0AC80BAF1000F40F3EA809F
:106A600099A1D1E90001BDE8F88FB54B9E4200F332
:106A7000BA80A3F1DE739E4240F3A5804FF0FF3B46
:106A800022462B462046294617F0AEFA02460B4610
:106A90008046894617F0A8FA8DA3D3E9002306465D
:106AA0000F4617F0A1FA8CA3D3E9002317F0E6F8FC
:106AB00032463B4617F098FA89A3D3E9002317F032
:106AC000DDF832463B4617F08FFA87A3D3E900235F
:106AD00017F0D4F832463B4617F086FA84A3D3E980
:106AE000002317F0CBF832463B4617F07DFA82A31D
:106AF000D3E9002317F0C2F842464B4617F074FA68
:106B00007FA3D3E90023804689463046394617F0F3
:106B10006BFA7DA3D3E9002317F0AEF832463B466B
:106B200017F062FA7AA3D3E9002317F0A5F83246EA
:106B30003B4617F059FA78A3D3E9002317F09CF8E5
:106B400032463B4617F050FA75A3D3E9002317F0FD
:106B500093F832463B4617F047FA02460B4640464A
:106B6000494617F08BF822462B4617F03DFABBF149
:106B7000FF3F02460B4661D0724B734E4FEACB0B80
:106B80005B44D3E9002317F077F822462B4617F031
:106B900073F8B34402460B46DBE9000117F06CF8CA
:106BA000BAF1000F0DDA01F100431946BDE8F88F84
:106BB00000283FF451AF22462B462046294617F0C5
:106BC0005DF8BDE8F88F58A3D3E9002317F056F815
:106BD00000225E4B17F098FC00283FF44FAF204690
:106BE0002946BDE8F88F15F07FF9594B9E420446BF
:106BF0000D4629DCA3F550239E424EDC02460B468F
:106C000017F03CF80022514B17F036F800220646E8
:106C10000F464FF080432046294617F02FF80246D2
:106C20000B463046394617F009FB4FF0000B04467F
:106C30000D4625E73EA1D1E90001C2E720462946DD
:106C400017F01AF8BDE8F88F424B9E421ADC00227A
:106C5000414B17F011F8002206460F463E4B2046E6
:106C6000294617F0C1F90022384B17F007F8024601
:106C70000B463046394617F0E1FA4FF0020B044656
:106C80000D46FDE602460B460020344917F0D6FAC1
:106C90004FF0030B04460D46F2E600222B4B16F094
:106CA000EBFF002206460F46284B2046294616F0E9
:106CB000E5FF02460B463046394617F0BFFA4FF063
:106CC000010B04460D46DBE6182D4454FB21F93F29
:106CD00011DA22E33AAD903FEB0D76244B7BA93FCE
:106CE000513DD0A0660DB13F6E204CC5CD45B73F9C
:106CF000FF8300922449C23F0D5555555555D53F48
:106D00002F6C6A2C44B4A2BF9AFDDE522DDEAD3F3B
:106D10006D9A74AFF2B0B33F711623FEC671BC3FDB
:106D2000C4EB98999999C93F9C7500883CE4377EDB
:106D3000182D4454FB21F9BFFFFF0F440000F07FE2
:106D4000FFFFDB3F10F30300F0F203000000F03F11
:106D5000FFFFF23FFF7F03400000F83F0000F0BF5D
:106D60002DE9F041C1F30A57A7F2FF35132D024672
:106D70000B460C468846064620DC002D4ADB364F83
:106D80002F4101EA070C5CEA000C1CD030A3D3E9C8
:106D9000002316F073FF0022002317F0B5FB48B163
:106DA000002C04DD4FF4801343FA05F5A84428EACB
:106DB0000704002621463046BDE8F081332D06DD6C
:106DC000B5F5806F38D010461946BDE8F081A7F2BE
:106DD00013474FF0FF3C2CFA07F70742F3D01CA3F0
:106DE000D3E9002316F04AFF0022002317F08CFBA2
:106DF0000028DFD0002C09DD142D22D00123C5F19D
:106E0000340503FA05F5AE1928BF984426EA0706AB
:106E10004446CFE70EA3D3E9002316F02FFF00224C
:106E2000002317F071FB0028C4D0002C0CDB264394
:106E300005D00026094CBDE716F020FFC5E7344613
:106E4000B8E704F10108E1E700264FF00044B1E79C
:106E50009C7500883CE4377EFFFF0F000000F03F88
:106E60002DE9F041C1F30A57A7F2FF35132D024671
:106E70000B460C46884606461DDC002D3CDB364F93
:106E80002F4101EA070C5CEA000C19D030A3D3E9CA
:106E9000002316F0F3FE0022002317F035FBC8B3E1
:106EA000002C04DA4FF4801343FA05F5A84428EACD
:106EB000070400262EE0332D06DDB5F5806F2DD0BA
:106EC00010461946BDE8F081A7F213474FF0FF3C8A
:106ED0002CFA07F70742F3D01DA3D3E9002316F0DD
:106EE000CDFE0022002317F00FFB98B1002C21DB10
:106EF00026EA070644460DE015A3D3E9002316F061
:106F0000BDFE0022002317F0FFFA18B1002C08DBA9
:106F10000026344621463046BDE8F08116F0AEFE2C
:106F2000D0E724F000430D4A1E43002E18BF14463C
:106F30000026EFE7142D08D00123C5F1340503FA2C
:106F400005F5AE1928BF9844D2E704F10108CFE750
:106F50009C7500883CE4377EFFFF0F000000F0BF07
:106F60002DE9F04FD84B994287B08046894643DDE2
:106F7000D64B99420E4600F3F480D54B994240F32C
:106F80002D819FEDBB7B8DED047B4FEA215A04469A
:106F9000AAF2FF3ACF4BC6F313069E4246F07F5546
:106FA00000F3128145F44015204629460022CA4BC1
:106FB00016F062FE002204460D46C84B17F014F886
:106FC00022462B4617F010F8A046CDE90201A9464B
:106FD000CDE90001002E3AD10022002320462946A7
:106FE00017F06AFA002800F01B81BAF1000F40F098
:106FF000858100200021B8E0B94B21F000449C427B
:107000000A460FDD0022B74B17F056FA002800F0B1
:10701000AF80002200230020B34917F00FF907B01A
:10702000BDE8F08FB14B9C4240F3AF80B04B1A44A7
:107030009A4240F2D3800022A84B16F0D5FF424678
:107040004B4616F0D1FFCDE900014FF0000A0022B7
:107050004FF080434046494616F010FE02460B466C
:107060004046494617F0EAF802460B4606460F46E8
:1070700016F0BAFF80A3D3E9002304460D4616F0AC
:10708000B3FF7FA3D3E9002316F0F8FD22462B4679
:1070900016F0AAFF7CA3D3E9002316F0EFFD2246E9
:1070A0002B4616F0A1FF7AA3D3E9002316F0E6FDE4
:1070B00022462B4616F098FF77A3D3E9002316F05B
:1070C000DDFD22462B4616F08FFF75A3D3E9002382
:1070D00016F0D4FD22462B4616F086FF72A3D3E9A4
:1070E000002316F0CBFD22462B4616F07DFFDDE98E
:1070F000002316F0C3FD32463B4616F075FF0446EA
:107100000D46BAF1000F00F0A880504616F002FFBD
:1071100067A3D3E9002382468B4616F065FF66A37A
:10712000D3E9002306460F465046594616F05CFF49
:10713000DDE9042316F0A2FD22462B4616F09EFD43
:1071400002460B46DDE9000116F096FD42464B462D
:1071500016F092FD02460B463046394616F08CFD7D
:1071600003E002460B4616F089FD07B0BDE8F08F3C
:1071700042464B464046494616F07EFD02460B46C7
:1071800017F05CF807B0BDE8F08F0022594B16F0FD
:1071900075FD0022002317F0B7F910B1564B9C4241
:1071A00062DD42464B464046494616F01DFF00222E
:1071B0004A4B16F019FF02460B464046494616F068
:1071C0005BFD07B0BDE8F08F45F40015C6F58016ED
:1071D00020462946B6100AF1010AE7E600223E4B96
:1071E0004046494616F04AFD4FEA215AAAF2FF3AB4
:1071F000BAF1000F04460D460E4640F3BD804246EC
:107200004B4616F039FD02460B460020324916F077
:1072100033FD22462B4617F011F8CDE90401B9E6FB
:1072200027A3D3E900232046294616F0DDFE0246B7
:107230000B460020284916F01FFDDDE9022316F059
:10724000D3FE06460F46BAF1000F75D102460B4633
:107250002046294616F010FD87E702460B46DDE979
:10726000000116F009FDA6E7404649467DE700BF4C
:10727000000000000000000044523EDF12F1C23F57
:107280009FC678D0099AC33FDE03CB966446C73FBA
:10729000AF788E1DC571CC3F599322942449D23FBB
:1072A00004FA97999999D93F935555555555E53F06
:1072B0000000E0FE422EE63F763C7935EF39EA3DAC
:1072C000555555555555E53F7982DA3FFFFFEF7F1C
:1072D000FFFF3F439DA006000000F03F0000E03F9D
:1072E000FFFFEF3F0000F0BF000050C3FFFF1F3E55
:1072F0003C412D4000005043FFFF8F3C504616F0AC
:1073000009FE24A3D3E9002306460F4616F06CFEBF
:10731000DDE9042316F0B2FC20A3D3E900230446E0
:107320000D463046394616F05FFE02460B462046B3
:10733000294616F0A3FC18E7504616F0EBFD17A3FC
:10734000D3E9002382468B4616F04EFE11A3D3E903
:107350000023804689465046594616F045FEDDE931
:10736000042316F08BFC02460B463046394616F0D5
:1073700083FC22462B4674E70022054B16F07CFC6A
:1073800002460B464046494616F076FC41E700BFF0
:107390000000F03F763C7935EF39EA3D0000E0FE31
:1073A000422EE63F0000000008B515F011F904A3D5
:1073B000D3E9002316F042FF08BD00BFAFF3008001
:1073C000EF39FAFE422EE63F2DE9F043DFF8B480B4
:1073D0008BB004460D4601F0F7F898F90030013300
:1073E00006460F462CD022462B462046294617F04B
:1073F00095F8814620BB2046294614F075FD1FA351
:10740000D3E9002317F080F8D0B1194A98F9003079
:10741000CDF820900321CDE90445CDE90245CDE921
:10742000001293B113490020022BCDE9060111D1BE
:1074300016F0B0FB22230360089B9BB9DDE90667C9
:10744000304639460BB0BDE8F0830B4B4FF060423D
:10745000CDE90623684616F019FA0028E8D0089B03
:10746000002BEBD016F096FB089B0360E6E700BF0D
:10747000A40404000000F07FFFFFEF477DF8B98F00
:10748000CE338640FF8100202DE9F043DFF8E48011
:107490008BB004460D4601F047F998F900300133EE
:1074A00006460F4633D02046294616F0E9F970B358
:1074B0002CA3D3E900232046294617F025F881465E
:1074C00050BB2AA3D3E900232046294616F0FEFF2D
:1074D000E8B198F90030204ACDF820900020002132
:1074E0000426022BCDE90445CDE902450096CDE9FD
:1074F0000601019229D0684616F0C8F928B3089B06
:107500001BB116F047FB089B0360DDE906673046B8
:1075100039460BB0BDE8F0830F4A98F9003001926C
:1075200003210022CDE90445CDE9024500910892EE
:107530002BB90A4B4FF06042CDE90623DBE708493F
:107540000020022BCDE90601D5D116F023FB222322
:107550000360D4E7AFF30080AC040400FFFFEF4703
:107560000000F07FEF39FAFE422E864051302DD5D3
:10757000104987C0FF8100202DE9F04FDFF82C93E0
:107580008DB006460F4614461D4601F09DFC99F944
:107590000080B8F1FF3FCDE9000136D022462B46EE
:1075A0002046294616F0BAFF834670BB32463B465A
:1075B0003046394616F0B2FF8246002840F0A280DD
:1075C000304639460022002316F076FF10B3002221
:1075D00000232046294616F06FFF8346002867D017
:1075E0009FEDA77B0122AC4BCDF828A00292CDE9FC
:1075F0000467CDE906458DED087B0393B8F1000FD4
:1076000041D09FEDA17B8DED007BDDE900010DB048
:10761000BDE8F08FDDE9000116F032F98046002860
:1076200000F08D804FF0000A4FF0000BDDE9000103
:1076300052465B4616F040FF0028E6D030463946F9
:1076400016F01EF90028E0D02046294616F018F959
:107650000028DAD099F900308F4A039204210022E1
:10766000022BCDE90467CDE90645CDE908AB0291CF
:107670000A9203D002A816F009F950B916F08AFA56
:107680002223036005E002A816F000F9002800F0AC
:107690009B800A9B1BB116F07DFA0A9B03609DED4F
:1076A000087B8DED007BDDE900010DB0BDE8F08FBA
:1076B0002046294616F0E4F80028A6D00022002330
:1076C0002046294616F002FF00289ED0724A99F9FA
:1076D0000030CDF828B00121CDE90467CDE9064599
:1076E000CDE90212002B74D06C490020022BCDE9A9
:1076F000080172D116F04EFA212303600A9B002B79
:10770000CDD0C8E7002200232046294616F0D4FE3B
:1077100000283FF47AAF624B5F49CDF828B00022D1
:107720000120B8F1020FCDE904670290CDE90645CA
:10773000CDE908230391A6D1CDE9002365E73046C2
:10774000394616F09DF800283FF46CAF20462946D4
:1077500016F096F800283FF465AFDDE900231046E7
:10776000194616F0DBFE99F900A000286BD103231F
:10777000DFF824C10A902946204602930022494B93
:10778000CDF80CC0CDE90645CDE9046716F02CFC18
:1077900004460D46BAF1000F25D1DFF814B14FF0C1
:1077A000604A0022002330463946CDE908AB16F086
:1077B0008DFE38BB02A816F069F800289ED116F09D
:1077C000E9F92223036099E716F0E4F92123036025
:1077D0005FE79FED2B7B8DED087B02A816F056F836
:1077E00000288BD186E79FED2A7B002200233046BC
:1077F00039468DED087B16F069FEA0B9BAF1020F8B
:10780000DDD0D7E72046294616F048F822462B4619
:1078100016F052FEA0B9244B99F900A04FF0604237
:10782000CDE90823EAE72046294616F037F8224634
:107830002B4616F041FE18B9184B0022CDE908235B
:1078400099F900A0DAE70122134BCDF828800292C3
:10785000CDE90467CDE906450393BAF1000FB8D02E
:10786000002200231046194616F0E8FCBAF1020F78
:10787000CDE908013FF43EAFAFE700BFAFF30080B2
:107880000000000000000000000000000000F03FC9
:10789000000000000000F07FC40404000000F0FFBE
:1078A0000000F03F0000E03FFFFFEFC7FF81002036
:1078B000FFFFEF47000000002DE9F84FC44E21F014
:1078C0000043B34204460D460DDD03F1404303F58A
:1078D0008013034340F0B980002940F34081002029
:1078E0000021BDE8F88FBB4EB34208DCBA4A934290
:1078F00000F3B5809CA1D1E90001BDE8F88F002913
:10790000C0F2708102460B460020B44916F0B4F96B
:107910000022B34B16F068FB04460D4615F080F9C3
:1079200093A3D3E90023894680462946204616F0D2
:107930005BFB91A3D3E9002316F0A0F922462B4666
:1079400016F052FB8EA3D3E9002316F095F92246D8
:107950002B4616F049FB8CA3D3E9002316F08EF9D1
:1079600022462B4616F040FB89A3D3E9002316F0EC
:1079700083F922462B4616F037FB87A3D3E9002371
:1079800016F07CF922462B4616F02EFB84A3D3E991
:10799000002382468B462046294616F025FB82A30B
:1079A000D3E9002316F068F922462B4616F01CFB9B
:1079B0007FA3D3E9002316F061F922462B4616F087
:1079C00013FB7DA3D3E9002316F056F922462B467C
:1079D00016F00AFB0022814B16F050F902460B46C6
:1079E0005046594616F02AFC42464B4616F0FCFA21
:1079F000002682468B4632464B463046494616F0B4
:107A0000F3FA02460B462046294616F035F932466F
:107A100004460D464B464046494616F02FF90246AD
:107A20000B462046294616F009FC02460B465046F6
:107A3000594616F023F932464B4616F01FF9024616
:107A40000B4616F01BF9BDE8F88F02460B4616F000
:107A500013F902460B4616F0F1FBBDE8F88F02461B
:107A60000B4616F0C1FA42A3D3E9002306460F469F
:107A700016F0BAFA40A3D3E9002316F0FFF8324615
:107A80003B4616F0B1FA3EA3D3E9002316F0F4F812
:107A900032463B4616F0A8FA3BA3D3E9002316F082
:107AA000EDF832463B4616F09FFA39A3D3E900239E
:107AB00016F0E2F832463B4616F096FA36A3D3E9C2
:107AC000002316F0DBF832463B4616F08DFA34A35D
:107AD000D3E90023804689463046394616F084FAB9
:107AE00031A3D3E9002316F0C7F832463B4616F01F
:107AF0007BFA2FA3D3E9002316F0C0F832463B46A9
:107B000016F072FA2CA3D3E9002316F0B5F832462A
:107B10003B4616F069FA0022304B16F0AFF80246E9
:107B20000B464046494616F089FB22462B4616F086
:107B30005BFA02460B4622A1D1E9000116F09CF83F
:107B400002460B462046294616F096F802460B469A
:107B500005A1D1E9000116F08FF8BDE8F88F1AA150
:107B6000D1E9000179E700BF182D4454FB21F93F0A
:107B700009F7FD0DE13D023F88B20175E0EF493F95
:107B80003B8F68B52882A43F5544880E55C1C93F34
:107B90007D6FEB0312D6D43F555555555555C53F0E
:107BA00082922EB1C5B8B33F59018D1B6C06E63FDA
:107BB000C88A599CE52A00404B2D8A1C273A03406D
:107BC000075C143326A6913C182D4454FB21094030
:107BD000FFFFEF3FFFFFDF3F0000603C0000F03F92
:107BE0000000E03F00225C4B16F048F800225B4B9F
:107BF00016F0FAF940A3D3E9002304460D4616F027
:107C0000F3F93FA3D3E9002316F038F822462B46B8
:107C100016F0EAF93CA3D3E9002316F02DF822462A
:107C20002B4616F0E1F93AA3D3E9002316F026F823
:107C300022462B4616F0D8F937A3D3E9002316F0D5
:107C40001BF822462B4616F0CFF935A3D3E90023C3
:107C500016F014F822462B4616F0C6F980468946DF
:107C60002046294614F0DCFF2FA3D3E90023064663
:107C70000F462046294616F0B7F92DA3D3E9002375
:107C800015F0FAFF22462B4616F0AEF92AA3D3E9E7
:107C9000002315F0F3FF22462B4616F0A5F928A382
:107CA000D3E9002315F0E8FF22462B4616F09CF995
:107CB0000022294B15F0E2FF02460B46404649469A
:107CC00016F0BCFA32463B4616F08EF91EA3D3E9F5
:107CD000002315F0D1FF32463B4615F0CFFF024698
:107CE0000B4615F0CBFF02460B4619A1D1E9000166
:107CF00015F0C2FFB1E600BF09F7FD0DE13D023FFF
:107D000088B20175E0EF493F3B8F68B52882A43FF8
:107D10005544880E55C1C93F7D6FEB0312D6D43F41
:107D2000555555555555C53F82922EB1C5B8B33FEF
:107D300059018D1B6C06E63FC88A599CE52A004014
:107D40004B2D8A1C273A0340075C143326A6913C2E
:107D5000182D4454FB2109400000F03F0000E03F93
:107D6000414A91422DE9F84304460D4637DD3F4A2A
:107D700091420B4608DD02F1795291423DDD024607
:107D800015F07CFFBDE8F88301F1404202F5801256
:107D900002432ED0B1F1804F37DC0022344B15F076
:107DA0006BFF02460B4604460D4615F067FF224660
:107DB00006460F462B462046294616F015F9024680
:107DC0000B463046394615F059FF14F029FF22467C
:107DD0002B4615F053FFBDE8F843FFF7C1B8024644
:107DE0000B4615F049FF02460B4616F027FABDE890
:107DF000F88300200021BDE8F88300F00DFE18A3F1
:107E0000D3E9002315F03AFFF1E7024616F0ECF84B
:107E10000022174B15F030FF14F002FF2246804677
:107E200089462B462046294615F028FF224606465D
:107E30000F462B464046494615F020FF02460B46AA
:107E400000200B4916F0FAF90B4602463946304637
:107E500015F012FFBDE8F84300F0DEBDAFF300807F
:107E6000EF39FAFE422EE63FFFFFEF3FFFFFAF4143
:107E70000000F03F000000002DE9F04FAE4B21F074
:107E800000479F4287B004460D4611DD07F1404789
:107E900007F5801703463B4321D002460B4615F0F9
:107EA000EBFE02460B4616F0C9F907B0BDE8F08FAD
:107EB000A24B9F420E4629DCB7F1795F80F24681E2
:107EC00081A3D3E9002315F0D9FE00229C4B16F0C4
:107ED0001BFBD8B12046294607B0BDE8F08F7CA334
:107EE000D3E9002316F080F87BA3D3E900230646EC
:107EF0000F462046294616F077F802460B463046D4
:107F0000394615F0BBFE07B0BDE8F08F2046294684
:107F100013F0EAFF02460B460020894915F0ACFE3B
:107F20000022884B16F060F86DA3D3E900230446C5
:107F30000D4616F059F86CA3D3E9002315F09EFE08
:107F400022462B4616F050F869A3D3E9002315F01A
:107F500093FE22462B4616F047F867A3D3E9002389
:107F600015F08CFE22462B4616F03EF864A3D3E9AA
:107F7000002315F081FE22462B4616F035F862A349
:107F8000D3E9002315F07AFE22462B4616F02CF892
:107F90005FA3D3E90023CDE900012046294616F06E
:107FA00023F85DA3D3E9002315F066FE22462B4695
:107FB00016F01AF85AA3D3E9002315F05FFE224603
:107FC0002B4616F011F858A3D3E9002315F054FE00
:107FD00022462B4616F008F8594B002215F04EFEAB
:107FE00082468B4620462946CDE902AB14F018FEA6
:107FF000554B9F428046894600F3198102460B4645
:1080000015F03CFEDDE90223CDE90401DDE90001C4
:1080100016F014F902460B46DDE9040115F0E4FF01
:108020004FF0000ACDE9000152464B465046494602
:1080300015F0DAFF02460B462046294615F01CFED5
:10804000524604460D464B464046494615F016FE3C
:1080500002460B462046294616F0F0F802460B462B
:1080600015F00CFE02460B461BA1D1E9000115F0EC
:1080700003FE02460B46DDE9000115F0FDFD524608
:1080800004460D464B465046494615F0F7FD02465C
:108090000B4627A1D1E9000115F0EEFD02460B4683
:1080A0002046294615F0E8FD02460B4620A1D1E9FD
:1080B000000115F0E1FD002E3FF7F7AE01F100439E
:1080C0001946F2E6AFF300809C7500883CE4377EE9
:1080D000182D4454FB21F93F075C143326A6913C2C
:1080E00009F7FD0DE13D023F88B20175E0EF493F20
:1080F0003B8F68B52882A43F5544880E55C1C93FBF
:108100007D6FEB0312D6D43F555555555555C53F98
:1081100082922EB1C5B8B33F59018D1B6C06E63F64
:10812000C88A599CE52A00404B2D8A1C273A0340F7
:10813000182D4454FB21E93FFFFFEF3FFFFFDF3FD6
:108140000000F03F0000E03F3233EF3F02460B46B5
:1081500015F04AFF4BA3D3E9002306460F4615F05E
:1081600043FF4AA3D3E9002315F088FD32463B467E
:1081700015F03AFF47A3D3E9002315F07DFD324601
:108180003B4615F031FF45A3D3E9002315F076FDFA
:1081900032463B4615F028FF42A3D3E9002315F0F1
:1081A0006BFD32463B4615F01FFF40A3D3E9002389
:1081B00015F064FD32463B4615F016FF3DA3D3E9AA
:1081C0000023804689463046394615F00DFF3BA313
:1081D000D3E9002315F050FD32463B4615F004FF6D
:1081E00038A3D3E9002315F049FD32463B4615F08C
:1081F000FBFE36A3D3E9002315F03EFD32463B4695
:1082000015F0F2FE00221E4B15F038FD02460B461B
:108210004046494616F012F822462B4615F0E4FE79
:1082200022462B4615F02AFD07B0BDE8F08F5246D6
:108230005B46DDE9000116F001F842464B4615F0B9
:10824000D3FE42464B4615F019FD02460B4615F08B
:1082500015FD07A3D3E9002315F00EFD02460B46DA
:1082600005A1D1E9000115F007FD24E7AFF3008077
:10827000075C143326A6913C182D4454FB21F93F8A
:108280000000F03F09F7FD0DE13D023F88B20175A6
:10829000E0EF493F3B8F68B52882A43F5544880EE4
:1082A00055C1C93F7D6FEB0312D6D43F5555555587
:1082B0005555C53F82922EB1C5B8B33F59018D1BAC
:1082C0006C06E63FC88A599CE52A00404B2D8A1C63
:1082D000273A0340000000002DE9F84F1D465342A5
:1082E000134325F00049DFF8C8C149EAD373634559
:1082F000144606460F4626D8C0F1000848EA000892
:1083000021F0004A4AEAD878E04503468B461AD85D
:1083100005F1404808F5801858EA0208AE4643D0F7
:108320004FEAA57808F002085AEA030348EAD17830
:1083300011D1B8F1020F55D0B8F1030F09D14AA1FC
:10834000D1E9000105E032463B462046294615F0BA
:1083500095FCBDE8F88F59EA020329D0E1452ED0FB
:10836000E24525D0AAEB09094FEA2959B9F13C0F9A
:108370003CDC002D3EDA19F13C0F3BDA00200021F5
:10838000B8F1010F4ED0B8F1020F3ED0B8F1000F96
:10839000DFD037A3D3E9002315F06EFC36A3D3E971
:1083A000002315F069FCD4E7BDE8F84FFEF744BBA5
:1083B000BBF1000F12DB32A1D1E90001C9E7CA45C8
:1083C00034D0B8F1020F0DD0B8F1030FB7D0B8F127
:1083D000010F4FF0000036D00021BAE72AA1D1E901
:1083E0000001B6E724A1D1E90001B2E724A1D1E957
:1083F0000001C5E722462B463046394615F01EFFE0
:1084000013F072FDFEF718FBBAE719A3D3E90023B6
:1084100015F032FC02460B4617A1D1E9000115F018
:108420002BFC96E701F10043194692E7B8F1020FE1
:1084300014D0B8F1030F0DD0B8F1010F06D014A17C
:10844000D1E9000185E74FF0004182E712A1D1E9AF
:1084500000017EE712A1D1E900017AE712A1D1E97A
:10846000000176E7AFF30080182D4454FB2109C0CA
:10847000075C143326A6A13C182D4454FB21094067
:10848000182D4454FB21F93F182D4454FB21F9BF0A
:10849000182D4454FB21E93F182D4454FB21E9BF1A
:1084A000D221337F7CD902C0D221337F7CD90240D4
:1084B0000000F07F0000000043422DE9F047034335
:1084C00021F000463C4A46EAD373934204460D46E7
:1084D0002AD8964240D0394B9E428A462EDD384BF0
:1084E0009E4235463FDD33460246314615F0C6FB17
:1084F000224606460F462B4600202F4915F0BCFBAE
:1085000002460B463046394615F098FEFEF728FD28
:1085100000222C4B15F068FDBAF1000F0CDA01F1C6
:1085200000431946BDE8F08702460B4615F0A4FB50
:1085300002460B4615F082FEBDE8F0871CA3D3E986
:10854000002315F09BFB0022002315F0DDFF48B14E
:1085500020462946BDE8F0870022002315F06EFE74
:10856000BDE8F087354622462B462046294615F0C1
:1085700085FB22462B4606460F4615F035FD224662
:10858000804689462B4600200B4915F075FB0246B4
:108590000B464046494615F051FE32463B4615F023
:1085A0006DFBFEF7DDFC0022064B15F01DFDB3E769
:1085B0009C7500883CE4377E0000F03FFFFF2F3EB3
:1085C000FFFFDF3F0000E03F2DE9F8434E4B21F075
:1085D00000449C4206460F461BDC4C4B9C4222DD6D
:1085E0004B4B9C4254DD4B4B9C4246DD4A4B9C42DC
:1085F0006FDD01339C4269D041A3D3E900231046CB
:10860000194615F0F1FC06460F4630463946BDE8DE
:10861000F88302460B4615F0E7FC06460F46304647
:108620003946BDE8F88313F05FFC02F04DFC0022F0
:108630003A4B8046894615F021FBB4F1725F06463D
:108640000F46ECDB42464B464046494615F0CCFC13
:1086500032463B4604460D463046394615F00EFB81
:1086600002460B462046294615F0E8FD00222B4B1A
:1086700015F004FB06460F46D1E713F035FC00F079
:1086800053F80022264B15F0AFFC06460F46C6E70E
:1086900013F02AFC00F048F80022214B06460F4652
:1086A00015F0A2FC324604460D463B4600201C490C
:1086B00015F0C4FD02460B462046294615F0DEFAA9
:1086C00006460F4630463946BDE8F883154B9842BA
:1086D00092D83046394613F007FC0022104B15F0B3
:1086E00083FC00F021F8002204460D460C4B15F0E7
:1086F0007BFC22462B4615F077FC06460F468EE79C
:108700009C7500883CE4377EFFFFEF7F422ED63F0A
:10871000FFFF3540412E8640CD3386400000F03FBC
:108720000000E03F7DF8B98F2DE9F047B04F21F010
:108730000042BA4284B004460D464FEAD17610D9C1
:10874000AC4FBA4240F28A80C1F31303034302469E
:1087500040F0F180002E7ED00020002104B0BDE862
:10876000F087A54B9A4200F2B680A44B9A4240F2A1
:10877000D1804FF0000A22462B462046294615F0AC
:1087800033FC85A3D3E9002306460F4615F02CFCE5
:1087900083A3D3E9002315F06FFA32463B4615F068
:1087A00023FC81A3D3E9002315F068FA32463B4647
:1087B00015F01AFC7EA3D3E9002315F05DFA3246CA
:1087C0003B4615F011FC7CA3D3E9002315F056FAC3
:1087D00032463B4615F008FC02460B462046294629
:1087E00015F04AFA02460B4606460F462046294631
:1087F00015F0FAFB80468946BAF1000F00F0AB8015
:1088000032463B4600204FF0804115F035FA0246D3
:108810000B464046494615F011FD02460B46DDE980
:10882000020115F029FADDE9002315F025FA0B46BF
:1088300002467349002015F01FFA6FF47F739A45C2
:1088400080F2A3800AF57A7A01EB0A5100224FF0F8
:10885000B87315F0C9FB04B0BDE8F08758A3D3E99D
:10886000002315F051FE00286BD157A3D3E9002354
:108870002046294615F02AFE00287FF46DAF614995
:1088800053A3D3E9002301EBC6062046294615F081
:10889000ABFBD6E9002315F0F1F915F055FE824641
:1088A00015F038FB4CA3D3E9002306460F4615F01C
:1088B0009BFB02460B462046294615F0DDF948A3EE
:1088C000D3E90023CDE900013046394615F08CFB91
:1088D000CDE9020115E04C4B9A42D0D84B4BF40045
:1088E0002344D3E9002315F0C7F9494B234493ED02
:1088F000007BCDE900018DED027BC6F1010AAAEBF8
:10890000060ADDE90223DDE9000115F0B5F90446A8
:108910000D4630E734A3D3E9002315F0AFF9002268
:10892000374B15F0F1FDA8B3204629460022344B01
:1089300015F0A4F98FE70B4615F0A0F904B0BDE8D7
:10894000F08729A3D3E900231046194615F04CFB04
:1089500004B0BDE8F0873046394600224FF080432E
:1089600015F08AF902460B464046494615F066FC6A
:1089700022462B4615F080F902460B46002020497E
:1089800015F07AF904B0BDE8F08701EB0A5104B0A4
:10899000BDE8F0878246EEE6D0A4BE726937663E37
:1089A000F16BD2C541BDBB3E2CDE25AF6A56113FEF
:1089B00093BDBE166CC1663F3E5555555555C53FD6
:1089C000EF39FAFE422E864051302DD5104987C02E
:1089D000FE822B654715F73F0000E0FE422EE63F82
:1089E000763C7935EF39EA3D9C7500883CE4377E6A
:1089F000412E8640FFFFEF7F422ED63FFFFF2F3EE6
:108A00000000F03F30F30300B1A2F03F40F3030059
:108A100050F30300000000002DE9F04FB1F5801F76
:108A200085B006460F460B4680F2D08021F000420A
:108A3000024300F0DA800029C0F2E9800022D64B20
:108A400015F0D2FAD54A0B46934206460F466FF010
:108A5000350E00F3C180C3F3130505F5152C0CF694
:108A6000647C0CF4801C8CF07F5282F440121C1544
:108A700042EA0507A4F2FF3474440022C84B304692
:108A8000394604EB1C5415F0F7F8AB1CC3F3130381
:108A9000022B82468B464FF0000240F3AF804FF02E
:108AA000804315F0EBF802460B465046594615F048
:108AB000C5FB064620460F4615F02CFA3246CDE996
:108AC00002013B4630463946CDE9006715F08CFA85
:108AD00002460B468046894615F086FA9AA3D3E9EA
:108AE000002306460F4615F07FFA99A3D3E9002329
:108AF00015F0C4F832463B4615F076FA96A3D3E952
:108B0000002315F0BBF832463B4615F06DFA94A3EE
:108B1000D3E9002315F0B2F842464B4615F064FA4B
:108B200091A3D3E90023804689463046394615F0A3
:108B30005BFA8FA3D3E9002315F0A0F832463B4639
:108B400015F052FA8CA3D3E9002315F097F83246BA
:108B50003B4615F049FA0B4602464946404615F099
:108B60008DF8A5F5C223C5F5D725A3F27A43513573
:108B70001D43002D06460F4640F387800022894B97
:108B80005046594615F030FA52465B4615F02CFA1D
:108B900002460B46804689463046394615F06EF847
:108BA000DDE9002315F020FA06460F46002C40F0C0
:108BB000818002460B464046494615F05DF8024664
:108BC0000B465046594615F057F80BE0734A93424E
:108BD0004FF0000E7FF73FAF32463B4630463946F6
:108BE00015F04CF805B0BDE8F08F002200230020FE
:108BF0006D4915F023FB05B0BDE8F08F002315F09B
:108C00005BFC60B1002C7CD100200021EAE7024629
:108C100015F032F80022002315F010FBE2E758A30C
:108C2000D3E900235046594615F0DEF902460B46BB
:108C300000205C4915F020F8524606460F465B4678
:108C40005046594615F0D0F902460B463046394693
:108C500015F0CAF906460F462CB3204615F05AF90E
:108C600049A3D3E900238046894615F0BDF948A3FE
:108C7000D3E9002304460D464046494615F0B4F9B1
:108C800002460B46304639462CE002460B4650461B
:108C9000594614F0F1FFDDE9002315F0A5F9064669
:108CA0000F46002C47D132463B465046594614F0F9
:108CB000E3FF97E734A3D3E90023DDE9020115F0D0
:108CC00093F933A3D3E9002304460D46DDE90201FD
:108CD00015F08AF932463B4614F0D0FF02460B46A7
:108CE0004046494614F0C8FF52465B4614F0C4FFA4
:108CF00002460B462046294614F0BEFF05B0BDE8EB
:108D0000F08F204615F006F91FA3D3E9002306468D
:108D10000F4615F069F91EA3D3E9002304460D465A
:108D20003046394615F060F902460B462046294682
:108D300014F0A4FF56E7DDE9028913A3D3E9002369
:108D40004046494691E700BF44523EDF12F1C23F20
:108D5000DE03CB966446C73F599322942449D23F01
:108D6000935555555555E53F9FC678D0099AC33F51
:108D7000AF788E1DC571CC3F04FA97999999D93F68
:108D8000555555555555D53F0000E0FE422EE63F5E
:108D9000763C7935EF39EA3D00005043FFFFEF7F25
:108DA0000000F03F0000E03F000050C30000000062
:108DB000B1F5801F2DE9F84304460D460B4619DA3C
:108DC00021F00042024359D000295FDB00223A4BD8
:108DD00015F00AF9394A0D462B46934204466FF0C6
:108DE00035010CDD22462B462046294614F046FF6D
:108DF000BDE8F883314A93424FF00001F2DC1815C8
:108E0000A0F2FF3008444FEAD0794844C3F3130876
:108E100015F080F8C9F57F73033348EA0355064619
:108E20000F4620462946FFF7F7FD1DA3D3E900238F
:108E3000804689463046394615F0D6F81AA3D3E95C
:108E4000002304460D464046494615F0CDF802463B
:108E50000B462046294614F011FF15A3D3E9002341
:108E600004460D463046394615F0BEF802460B461C
:108E70002046294614F002FFBDE8F88300220023B3
:108E800000200F4915F0DAF9BDE8F883024614F026
:108E9000F3FE0022002315F0D1F9A9E7AFF300801B
:108EA000362BF111F3FE593D0EE526157BCBDB3F4A
:108EB00000609F501344D33F00005043FFFFEF7FFB
:108EC000000050C3000000002DE9F04F23F00045E2
:108ED00055EA020493B00DD06B4E21F00044B44229
:108EE0000F4682460BDD04F1404404F5801454EA39
:108EF0000A0350D16549002013B0BDE8F08F9B46AE
:108F0000944647D0B542EEDC5F4EB5425DD0002FAF
:108F100080468946CDE900235BDB0026BCF1000FCB
:108F20000ED1594B9D423FD0584B9D4200F0888056
:108F3000BBF1804F00F09C80554B9B4500F0B883FF
:108F40004046494612F0D0FFBAF1000F06D1002C7E
:108F500059D04E4B27F040429A4254D0FF0F013F68
:108F600056EA070373D04B4B9D4240F39B8003F1BD
:108F700004739D4240F33E84474B9C4272DDBBF13B
:108F8000000F72DD3EA3D3E900231046194615F009
:108F90002BF8B1E728B1414813B0BDE8F04F14F009
:108FA00077BCA542F7DCAFE704F1404303F580133B
:108FB00053EA0A039ED0384B9C4240F38383BBF1B3
:108FC000000F52DBDDE9000196E7BCF1000F9ED0F7
:108FD00089E7334B9D4231DCA3F154739D429CDD04
:108FE0002B15A3F2FF33142B40F3A583C3F13403F5
:108FF0002CFA03F202FA03F363458ED102F0010268
:10900000C2F102068AE7BBF1000F05DA02460B4601
:1090100000201E4915F012F9002FBFF66DAF04F1C4
:10902000404404F5801454EA060300F03F84012E06
:109030007FF462AF01F1004319465DE702266DE758
:10904000BBF1000FC0F248834046494654E7424610
:109050004B461046194614F00FFE02460B4615F01B
:10906000EDF849E7BBF1000F8CDB0020002143E75E
:1090700042464B464046494614F0B6FF3CE700BF27
:109080009C7500883CE4377E0000F07F0000F03FD4
:109090000000E03F0000E041FFFFEF3F70FB0300F6
:1090A000FFFF3F43B4F5801F80F261830022D24B63
:1090B00014F09AFF6FF0340C0C462315CF4DC4F317
:1090C0001302A3F2FF3342F07F546344AA420B938E
:1090D00044F4401440F33F83C94B9A4240F3048464
:1090E0009FEDAF7B8DED087B8DED107B9FEDAE7B13
:1090F0000B9B8DED067B01330B93A4F580140025AB
:10910000DDE906232146824614F0B6FDA346DDE9DB
:1091100006238046894650462146CDE90CAB14F023
:10912000ADFD02460B460020B64915F087F80A4609
:109130000146CDE90E12134649460246404614F058
:1091400053FF631043F0005382468B4603F5002320
:109150008C46CDE904AB5919D3460023CDE902BCB6
:109160000293DDE902AB002004460D4602460B46A1
:109170005046594614F038FF02460B4640464946D1
:1091800014F07AFDDDE9062380468946204629460B
:1091900014F072FD02460B46DDE90C0114F06CFD83
:1091A00052465B4614F020FF02460B4640464946B5
:1091B00014F062FDDDE90E2314F016FFDDE904452D
:1091C000CDE9060122462B462046294614F00CFF25
:1091D00077A3D3E9002304460D4614F005FF76A3D8
:1091E000D3E9002314F04AFD22462B4614F0FCFE7E
:1091F00073A3D3E9002314F041FD22462B4614F05B
:10920000F3FE71A3D3E9002314F038FD22462B4668
:1092100014F0EAFE6EA3D3E9002314F02FFD2246DA
:109220002B4614F0E1FE6CA3D3E9002314F026FDD5
:109230002246804689462B462046294614F0D4FE15
:1092400002460B464046494614F0CEFE52460446BE
:109250000D465B46DDE9040114F010FDDDE906234F
:1092600014F0C2FE22462B4614F008FD52468046FA
:1092700089465B465046594614F0B6FE0022624BC2
:10928000CDE90C0114F0FAFC42464B4614F0F6FC12
:1092900002980D46044622462B465046594614F085
:1092A000A3FE002282468B46574B2046294614F0E7
:1092B000E3FCDDE90C2314F0DFFC02460B464046DC
:1092C000494614F0D9FCDDE9042314F08DFE224652
:1092D000804689462B46DDE9060114F085FE0246EC
:1092E0000B464046494614F0C9FC80468946024672
:1092F0000B465046594614F0C1FC029838A3D3E9F6
:10930000002304460D4614F06FFE5246CDE90401D9
:109310005B462046294614F0AFFC02460B46404609
:10932000494614F0A9FC30A3D3E9002314F05CFEF5
:109330002FA3D3E90023804689462046294614F00E
:1093400053FE02460B464046494614F097FCDDE9C1
:10935000102314F093FC80460B98894614F0DAFD34
:10936000424682468B464B46DDE9040114F086FCFA
:10937000DDE9082314F082FC52465B4614F07EFCC3
:10938000029852465B4604460D4614F075FCDDE932
:10939000082314F071FCDDE9042337E0AFF300800B
:1093A0000000000000000000000000000000F03F8E
:1093B000EF4E454A287ECA3F65DBC9934A86CD3FBA
:1093C00001411DA96074D13F4D268F515555D53FA0
:1093D000FFAB6FDBB66DDB3F033333333333E33F38
:1093E000000000E009C7EE3FFD033ADC09C7EE3F8D
:1093F000F5015B14E02F3EBE000040438E98030051
:1094000079B60B000000F03F0000084014F034FC77
:109410000B4602464946404614F02EFC013E56EAF1
:10942000070382468B4600F05E819FEDD37B8DED76
:10943000047BDDE9001200230E461746CDE90267E2
:109440000293DDE9026708463B461146324614F0B6
:1094500013FC22462B4614F0C7FDDDE900238046AD
:1094600089465046594614F0BFFD02460B46404619
:10947000494614F003FC3246804689463B46204666
:109480002946CDE9008914F0AFFD0B460246064699
:109490000F464046494614F0F1FBD14B9942044631
:1094A0000D468A4640F3248101F13F4303F5E00372
:1094B000034340F0FF81B2A3D3E90023DDE90001BB
:1094C00014F0DCFB3246804689463B46204629465E
:1094D00014F0D2FB02460B464046494615F014F8FC
:1094E000002840F0E781A8464FEA2853A3F2FE3255
:1094F0004FF4801313415344C3F30A52B94DA2F2FF
:10950000FF321541C3F3130423EA05010020C2F121
:10951000140B44F48014BAF1000F02460B4644FACF
:109520000BFB30463946B8BFCBF1000B14F0A4FB5F
:1095300006460F463246DDE900013B4614F09EFB2D
:109540004FEA0B5A0D4600248FA3D3E9002320468F
:10955000294614F049FD3246804689463B4620465E
:10956000294614F089FB02460B46DDE9000114F0A0
:1095700083FB87A3D3E9002314F036FD86A3D3E948
:10958000002306460F462046294614F02DFD0246CC
:109590000B463046394614F071FB06460F4602462C
:1095A0000B464046494614F069FB42464B4604468A
:1095B0000D4614F061FB02460B463046394614F066
:1095C0005BFB2246804689462B462046294614F0FE
:1095D0000BFD73A3D3E9002306460F4614F004FDE8
:1095E00071A3D3E9002314F047FB32463B4614F045
:1095F000FBFC6FA3D3E9002314F040FB32463B464B
:1096000014F0F2FC6CA3D3E9002314F035FB3246CE
:109610003B4614F0E9FC6AA3D3E9002314F02EFBC7
:1096200032463B4614F0E0FC02460B4620462946F3
:1096300014F022FB06460F4602460B4620462946FA
:1096400014F0D2FC0022CDE900014FF080433046F7
:10965000394614F011FB02460B46DDE9000114F017
:10966000EDFD424606460F464B462046294614F07D
:10967000BBFC42464B4614F001FB02460B4630460B
:10968000394614F0F9FA22462B4614F0F5FA024650
:109690000B460020544914F0EFFA8A44BAF5801FB3
:1096A000C0F232815146DDE9042314F09DFC23E42D
:1096B000002FFFF645AC4046494613B0BDE8F04FD9
:1096C00013F0AEBABBF1000FBFF6CFACDDE900344A
:1096D000184604F100410FE442464B46002042493F
:1096E00014F0ACFD08E49FED387B8DED047BA0E623
:1096F0003E4B21F00048984540F3EA803C4B0B4438
:1097000003430AD132463B4614F0B6FADDE90023A2
:1097100014F0F0FE00283FF4E7AEDDE904012CA3CD
:10972000D3E9002314F060FC29A3D3E9002314F04B
:109730005BFCFFF7E1BBBCF1000F40F0D280C3F14E
:10974000140345FA03F202FA03F3AB4200F0E0809F
:109750006646FFF7E9BB9FED207B8DED087B8DED25
:10976000107B9FED057B00258DED067BC8E44FF057
:10977000000CA2E4AFF30080000000000000F03F06
:10978000FE822B654715973C00000000432EE63F04
:10979000EF39FAFE422EE63F396CA80C615C20BE20
:1097A000D0A4BE726937663EF16BD2C541BDBB3EE7
:1097B0002CDE25AF6A56113F93BDBE166CC1663FC5
:1097C0003E5555555555C53F000000000000F0BFFF
:1097D00059F3F8C21F6EA501000000000000000050
:1097E000FFFF8F40FFFF0F000000F03FFFCB9040D6
:1097F00000346F3F5A4B9C427FF734AC594B9C422C
:109800003FF7BDAB0022574B14F036FA44A3D3E91F
:10981000002304460D4614F0E7FB43A3D3E90023DD
:1098200082468B462046294614F0DEFB0022CDE915
:1098300002014D4B2046294614F0D6FB02460B464A
:109840003BA1D1E9000114F017FA22462B4614F08F
:10985000CBFB02460B460020444914F00DFA224689
:10986000804689462B462046294614F0BDFB024619
:109870000B464046494614F0B7FB2FA3D3E900231B
:1098800014F0B2FB02460B46DDE9020114F0F4F9D4
:1098900002460B46804689465046594614F0EEF97A
:1098A000002004460D4652465B46AFE502460B4695
:1098B000FFF7CFBBDDE9040121A3D3E9002314F0B6
:1098C00093FB1FA3D3E9002314F08EFBFFF714BB17
:1098D000264B98453FF708AEDDE9022392469346B2
:1098E00031E60026FFF72CBB9FED177B8DED087B43
:1098F0009FED177B8DED107B9FED177B4FF480253F
:109900008DED067BFFF7FCBB5A4601F029FDCAE648
:1099100002F00102C2F10206FFF706BBAFF30080BE
:10992000000000604715F73F44DF5DF80BAE543E82
:10993000555555555555D53FFE822B654715F73F73
:109940009C7500883CE4377E0000004003B8E23F8D
:1099500006D0CF43EBFD4C3E000000000000F83F76
:10996000FEFFEF3F0000F03F0000D03F0000E03F6F
:109970002DE9F047CA4B21F000479F4290B0804646
:10998000894640F38F80C74B9F420C46924626DCA7
:109990000029B9A3D3E9002340F38F8014F06CF9B8
:1099A000C14B9F4204460D4600F04781B4A3D3E962
:1099B000002314F061F902460B46CAE90023204651
:1099C000294614F059F9AEA3D3E9002314F054F951
:1099D0000125CAE90201284610B0BDE8F087B34B63
:1099E0009F4240F38980B24B9F4200F31C813D159A
:1099F000A5F21645A7EB055319461F46064614F077
:109A0000A3FD14F087FA8046894642464B4630460D
:109A10003946CDE90A8914F02FF90022A54B14F03C
:109A2000E3FA8946804614F08FFD14F073FA064677
:109A30000F4632463B4640464946CDE90C6714F096
:109A40001BF900229B4B14F0CFFA00220023CDE932
:109A50000E0114F031FD002800F060810023304633
:109A60003946002214F028FD002814BF01230223E8
:109A7000914A019202212A4600910AA8514600F01B
:109A800087FB002C054614DADAF80420DAF80C30EB
:109A900002F1004203F100434542CAF80420CAF82B
:109AA0000C3006E000200021C2E90089C2E9020171
:109AB0000025284610B0BDE8F08714F0DFF87A4B97
:109AC0009F4204460D4600F00B816DA3D3E90023AD
:109AD00014F0D4F802460B46CAE900232946204672
:109AE00014F0CAF866A3D3E9002314F0C7F84FF0C6
:109AF000FF35CAE90201DCE712F0F6F962A3D3E907
:109B000000238046894614F06FFA00226B4B14F054
:109B1000B5F814F019FD054614F0FCF956A3D3E985
:109B20000023CDE9060114F05FFA02460B464046D9
:109B3000494614F0A1F852A3D3E900238046894690
:109B4000DDE90601CDE9028914F04EFA1F2D024627
:109B50000B46CDE9042340F3B380DDE90423DDE9BE
:109B6000020114F089F8804689463F15C9F30A536B
:109B7000FB1A102B40F3B18045A3D3E90023DDE9A4
:109B8000060114F031FA8046894602460B46DDE9AB
:109B9000020114F071F802460B46DDE90201CDE93D
:109BA000082314F069F842464B4614F065F83AA3CE
:109BB000D3E9002380468946DDE9060114F014FA52
:109BC00042464B4614F058F80B46CDE904010246D4
:109BD000DDE9080114F050F8C1F30A53FF1A312FE0
:109BE0008046894600F39C809DED087BCAE9008988
:109BF0008DED027B42464B46DDE9020114F03CF854
:109C0000DDE9042314F038F8002CCAE90201BFF69C
:109C100050AF09F1004401F100436D42CAE90084EC
:109C2000CAE9020345E702460B4614F025F8002571
:109C3000CAE90201CAE900013BE715A3D3E9002301
:109C400014F01AF814A3D3E900230D46044614F0C7
:109C500013F802460B46CAE900232946204614F0B1
:109C60000BF80DA3D3E9002314F006F80125CAE987
:109C700002011EE7AFF3008000004054FB21F93FD2
:109C80003163621A61B4D03D83C8C96D305FE43F6F
:109C90000000601A61B4D03D7370032E8A19A33B93
:109CA000FB21E93F7BD90240FB21F93FFB213941F0
:109CB000FFFFEF7F00007041600504000000E03FFF
:109CC0004046494613F0D8FF394B6A1E804653F888
:109CD0002230BB4289463FF448AFCAE9008989E790
:109CE0002BA3D3E9002313F0C9FF2BA3D3E900234F
:109CF0000D46044613F0C2FF02460B46CAE9002394
:109D00002946204613F0B8FF23A3D3E9002313F01C
:109D1000B5FF4FF0FF35CAE90201CAE60323A7E603
:109D20001FA3D3E90023DDE9060114F05DF906461F
:109D30000F4602460B46DDE9080113F09DFF804601
:109D4000894602460B46DDE90801CDE9028913F098
:109D500093FF32463B4613F08FFF13A3D3E9002352
:109D600006460F46DDE9060114F03EF932463B4651
:109D700013F082FF02460B4640464946CDE90423D4
:109D800013F07AFF80468946A7E700BFAFF3008053
:109D90000000601A61B4D03D7370032E8A19A33B92
:109DA0000000002E8A19A33BC14920259A837B39E4
:109DB000E004040000000000574A2DE9F84F21F0AC
:109DC0000048904506460F462CDC544B0029B4BF92
:109DD000534D544D98454FF0000411DC524B9845BB
:109DE00026DC4BA3D3E9002313F048FF00224F4B9E
:109DF00014F08AFB002840D030463946BDE8F88F81
:109E00004B4B984530DD4B4B984568DD0133984509
:109E100062D0304639463EA3D3E9002314F0E4F87B
:109E2000BDE8F88F02460B4613F028FFBDE8F88F17
:109E300012F05AF801F048F83F4B984506460F4695
:109E400023DD0022394B13F019FF02460B46304642
:109E5000394614F0F3F932463B4613F00FFF224621
:109E60002B4614F0C1F8E1E712F03EF8FEF75CFC77
:109E700022462B4614F0B8F8D8E73046394612F09F
:109E800033F801F021F806460F4632463B4630468D
:109E9000394613F0F3FE324682468B463B46304647
:109EA000394614F0A1F80022804689461F4B3046FF
:109EB000394613F0E3FE02460B464046494614F08D
:109EC000BDF902460B465046594613F0D5FE2246D0
:109ED0002B4614F089F8A9E7184B984299D83046D8
:109EE000394612F001F800220E4B14F07DF8FEF70F
:109EF0001BFC06460F4602460B462046294614F038
:109F000073F832463B4614F06FF88FE7AFF30080EA
:109F10003374AC3C1F7BAC7FFFFFEF7FFFFF35400E
:109F20000000E0BF0000E03FFFFF2F3E0000F03FD9
:109F3000412E8640CD338640FFFFEF3F7DF8B98F3D
:109F40002DE9F04F21F00048B8F1795F85B0064661
:109F50000F4692469B466BDA14F0F6FA002800F0A2
:109F6000E18032463B463046394614F03DF874A352
:109F7000D3E9002304460D4614F036F872A3D3E962
:109F8000002313F07BFE22462B4614F02DF870A31D
:109F9000D3E9002313F070FE22462B4614F024F878
:109FA0006DA3D3E9002313F069FE22462B4614F07B
:109FB0001BF86BA3D3E9002313F05EFE22462B4669
:109FC00014F012F868A3D3E9002313F057FE2246D9
:109FD0002B4614F009F8CDE900010022664B20461B
:109FE000294614F001F8DDE9002380468946204621
:109FF000294613F0F9FF524604460D465B463046AB
:10A00000394613F0F1FF02460B462046294613F06D
:10A0100033FE02460B464046494613F02DFE0246EB
:10A020000B460020554913F027FE05B0BDE8F08F20
:10A0300002460B4613F0D8FF41A3D3E900230446A0
:10A040000D4613F0D1FF40A3D3E9002313F016FE11
:10A0500022462B4613F0C8FF3DA3D3E9002313F09B
:10A060000BFE22462B4613F0BFFF3BA3D3E9002390
:10A0700013F004FE22462B4613F0B6FF38A3D3E9B3
:10A08000002313F0F9FD22462B4613F0ADFF36A353
:10A09000D3E9002313F0F2FD2B46224613F0A4FF70
:10A0A000374B9845CDE9000197DD364B98453EDCAE
:10A0B000A8F500130022002030499046994613F07D
:10A0C000DBFDCDE9020100222B4B2046294613F08F
:10A0D0008BFF42464B4613F0CFFDDDE9002380465F
:10A0E00089462046294613F07FFF524604460D4616
:10A0F0005B463046394613F077FF02460B46204652
:10A10000294613F0B9FD02460B464046494613F076
:10A11000B3FD02460B46DDE9020113F0ADFD05B0CB
:10A12000BDE8F08F1549002005B0BDE8F08F9FED28
:10A13000107B4FF000088DED027BDFF84C90C2E7FA
:10A14000D43888BEE9FAA8BDC4B1B4BD9EEE213EA4
:10A15000AD529C804F7E923E9015CB19A001FA3EE5
:10A160007751C1166CC1563F4C5555555555A53FB5
:10A17000000000000000E73F0000E03F0000F03F6B
:10A180003233D33F0000E93F0000D23F000000001F
:10A190002DE9F04FADF5197DBE4CA29EBE4D54F891
:10A1A00026600793D41E85FB0475E417C4EBA50451
:10A1B00024EAE4741D46631CA3EB8303013D02EB18
:10A1C000C3030593731904960994019503900B91A9
:10A1D000A4EB05071AD43B44002400255E1C0DF1B6
:10A1E0008008DDF88C9208E059F8270013F092FE01
:10A1F0000137B742E8E8020108D0002FF4DA01374E
:10A2000020462946B742E8E80201F6D1049B002B1C
:10A21000079B4FEAC30302932ADB039A20A902EBB0
:10A22000030801EB0309049B72AA02EBC30B0DF5B3
:10A23000E07A019B002B4FF000064FF0000711DB86
:10A24000039C4D4675E90223F4E8020113F0CCFEAD
:10A2500002460B463046394613F010FD444506468B
:10A260000F46EFD1EAE80267DA4509F10809E0D1C3
:10A27000DDE90204049920448B0082460BA8A3F177
:10A280000802C31808930CAB13440A938B4698AB8F
:10A2900003EBCB03BBF1000F53E9284529DD70AB7D
:10A2A00003EBCB080DF1300900227C4B20462946F8
:10A2B00013F09AFE14F048F913F02CFE0022784BAC
:10A2C00006460F4613F090FE02460B4620462946EE
:10A2D00013F0D2FC14F038F978E9022349F8040BA2
:10A2E0003946304613F0CAFC70AB984504460D461B
:10A2F000DAD1DDF81490204629464A4601F030F8BC
:10A3000000224FF07F5304460D4613F06DFEFCF71C
:10A31000A7FD0022634B13F067FE02460B46204662
:10A32000294613F0A9FC0D46044614F00DF98046A9
:10A3300013F0F0FD0B4602462946204613F09CFC24
:10A340004B46002B06460F4640F3E1800BF1FF32EF
:10A350000CA9C9F1180351F8225045FA03F101FA8A
:10A3600003F30CA8EB1A40F82230C9F11705884412
:10A3700043FA05F5002D2CDDBBF1000F08F10108B3
:10A3800040F381820C9C002C40F0A780BBF1010FB0
:10A390000AD00CA9012251F8044F531C002C40F0A4
:10A3A0009E809B451A46F6D1059B002B0EDD012BA6
:10A3B00000F0D980022B09D10BF1FF320CAB0CA9B4
:10A3C00053F82230C3F3150341F82230022D00F078
:10A3D000AF80002200233046394614F06DF8002883
:10A3E00000F05382049B0BF1FF394B4510DC0BF15D
:10A3F00080430CAA013B089802EB8303002253F828
:10A400000419834242EA0102F9D1002A40F0B680E1
:10A41000049B0CAA013B52F82330002B40F0A18092
:10A420000A9A012352F8041901330029FAD05B4437
:10A430000BF10109994506934CDC099A079909EB40
:10A44000020801EB0B0508F1804802EB030BA39B0C
:10A4500008F1FF3803EB880870AB03EBC909A39B35
:10A4600020A903EB8B0301EBC505029358F8040FF9
:10A4700013F050FD0B4601990246002905F1080B27
:10A48000C5E900234FF000064FF000071CDB039CDA
:10A490000CE000BF000A0400ABAAAA2A0000703E2C
:10A4A000000070410000204075E90223F4E8020139
:10A4B00013F09AFD02460B463046394613F0DEFB98
:10A4C000544506460F46EFD1029B9845E9E80267DE
:10A4D0005D46CBD1DDF818B0D9E6012300220CA9E6
:10A4E000C4F180749B4541F822400EDD51F82320D1
:10A4F00001EB8B0001EB83036FF07F4100E01A68F2
:10A500008A1A43F8042B8342F9D101244CE706D17F
:10A510000BF1FF330CAA52F82350ED152AE7002265
:10A520007B4B13F0E7FF002840F0A381054650E77E
:10A5300032463B460020774913F09EFB06460F4605
:10A54000002C3FF446AF059A7249002000F008FF46
:10A5500002460B463046394613F08EFB06460F4640
:10A5600037E7012363E70BF1FF320CAB0CA953F87B
:10A570002230C3F3160341F8223027E70CAB059ACB
:10A5800053F82930183ACDE9068505926BB909F1DF
:10A590008043013B0CA901EB830353F8041909F133
:10A5A000FF39183A0029F8D00592059A5949002038
:10A5B00000F0D6FEB9F1000F04460D46C0F2C0818E
:10A5C0004FEAC90370AA02EB030808930CAB03EB34
:10A5D0008906DFF844B14FF0000A08F10807043695
:10A5E00056F8040D13F096FC22462B4613F0FCFCA3
:10A5F0005B4667E9020152462046294613F0F4FC07
:10A600000CAB9E4204460D46EAD148AB039301933E
:10A61000CDF8149009F10103DDF810900293C346C0
:10A620004FF0000AB9F1000FC0F22A81DFF8EC8088
:10A630005D4635A3D3E9002300260027002403E06C
:10A64000544510DCF8E80223F5E8020113F0CCFCD5
:10A6500002460B463046394613F010FB0134A14543
:10A6600006460F46ECDA019BE3E802670193029B82
:10A670000AF1010A9A45ABF1080BD3D1A29BDDF890
:10A680001490032B39D8DFE813F0D9000600060038
:10A690004D0048AB0393B9F1000F4FF000004FF0AD
:10A6A000000109DB039D05EBC904083474E90223AA
:10A6B00013F0E4FAA542F9D1079B002B40F01E816C
:10A6C0000B9BC3E900010B4603990246D1E9000147
:10A6D00013F0D2FAB9F1000F0CDD4AAD01240134B8
:10A6E000F5E8022313F0CAFAA145F8DA079B002B1C
:10A6F00040F014810B9BC3E90201069B03F00700A5
:10A700000DF5197DBDE8F08F00000040FB21F93FF9
:10A710000000E03F0000F03F0000703E78F30300CF
:10A7200048AB0393B9F1000F40F32781039ACDF8AA
:10A7300010904FEAC9030193D318D3E900AB09F194
:10A740000053013B02EBC9080293914678E9026786
:10A7500052465B463046394613F090FA04460D46A1
:10A7600002460B463046394613F086FA52465B469F
:10A7700013F084FAC145A246AB46C8E90201C8E914
:10A780000045E3D1DDF81090B9F1010F40F3F580F9
:10A79000019B039A02991344C900D3E9006701F1B0
:10A7A000080A019192440DF5947B7AE902893246B8
:10A7B0003B464046494613F061FA04460D460246C0
:10A7C0000B464046494613F057FA32463B4613F0D3
:10A7D00055FAD34526462F46CAE90201CAE9004583
:10A7E000E3D1019C039B1034002000211C4403F1A1
:10A7F000100574E9022313F041FAA542F9D1039C34
:10A80000079ED4E90023D4E90245002E00F08A8097
:10A8100003F1004701F100430B99C1E90403069BD2
:10A820002646944605F1004403F00700C1E900C73D
:10A83000C1E902640DF5197DBDE8F08F089C039D08
:10A840000834002000212C4474E9022313F016FA86
:10A85000A542F9D1079B13B101F1004319460B9BA7
:10A86000C3E90001069B03F007000DF5197DBDE863
:10A87000F08FBBF1000F08F1010874DD022581E5BE
:10A8800000260027EFE600248EE5CDE90685059D2C
:10A89000304639466A4200F063FD0022384B0646D6
:10A8A0000F4613F027FE00B30022364B30463946E0
:10A8B00013F09AFB13F048FE044613F02BFB002222
:10A8C0002F4B13F091FB0B4602463946304613F0EE
:10A8D000D3F913F039FE0BF101090CAB183543F82D
:10A8E0002B00059543F829405FE63046394613F0C2
:10A8F0002BFE0CABD94643F82B0056E60B9C01F11E
:10A900000043C4E900030B4603990246D1E9000164
:10A9100013F0B2F9B9F1000F3FF7DFAE01F10043D8
:10A920001946E7E60B9EC6E90023069BC6E904012B
:10A9300003F00700C6E902450DF5197DBDE8F08F6B
:10A94000A29B032B3FF6D9AE01A252F823F000BF21
:10A9500061A9020093A6020093A6020021A70200AB
:10A960000020002176E732463B460020064913F0DE
:10A9700083F9022506460F462BE5002000213EE71D
:10A98000000070410000703E0000F03F0000000039
:10A990002DE9F04F21F00046B6F1795F85B004460D
:10A9A0000D469046994604DA13F0CEFD002800F0DB
:10A9B000858022462B462046294613F015FB064685
:10A9C0000F4602460B462046294613F00DFB41A3D5
:10A9D000D3E9002382468B463046394613F004FB08
:10A9E0003EA3D3E9002313F047F932463B4613F068
:10A9F000FBFA3CA3D3E9002313F040F932463B466F
:10AA000013F0F2FA39A3D3E9002313F035F93246F3
:10AA10003B4613F0E9FA37A3D3E9002313F02EF9EC
:10AA20000E9BCDE900019BB30022294B40464946CD
:10AA300013F0DAFADDE90023CDE902015046594668
:10AA400013F0D2FA02460B46DDE9020113F014F9C5
:10AA500032463B4613F0C8FA42464B4613F00CF917
:10AA600019A3D3E9002306460F465046594613F072
:10AA7000BBFA02460B463046394613F0FFF8024651
:10AA80000B462046294613F0F7F805B0BDE8F08FD5
:10AA900002460B463046394613F0A6FA0AA3D3E91C
:10AAA000002313F0E9F852465B4613F09DFA224664
:10AAB0002B4613F0E3F805B0BDE8F08F2046294699
:10AAC00005B0BDE8F08F00BF495555555555C53FF8
:10AAD0000000E03F7CD5CF5A3AD9E53DEB9C2B8A6C
:10AAE000E6E55A3E7DFEB157E31DC73ED561C1196B
:10AAF000A0012A3FA6F810111111813F00000000AB
:10AB00002DE9F04FC04C21F0004687B0A6428246A6
:10AB10008B460F46CDE900231ADC13F015FD002803
:10AB20003FD1109B524601331343334300F0B781AA
:10AB3000109B012B00F0C0815B460020B34913F04D
:10AB40007DFB04460D462046294607B0BDE8F08F40
:10AB5000AF4B9E4225DD002909DADDE9004522469A
:10AB600005F10043CDE900230BF100418B4652462D
:10AB70005B4685A1D1E9000113F07EF8DDE90023F1
:10AB800004460D4682A1D1E9000113F075F89FED4E
:10AB9000827B22462B468DED007B13F06FF88246B8
:10ABA0008B4652465B465046594613F01DFA024604
:10ABB0000B468046894613F017FA424604460D4676
:10ABC0004B465046594613F00FFA75A3D3E90023BC
:10ABD000CDE902012046294613F006FA72A3D3E913
:10ABE000002313F04BF822462B4613F0FDF970A317
:10ABF000D3E9002313F042F822462B4613F0F4F970
:10AC00006DA3D3E9002313F039F822462B4613F045
:10AC1000EBF96BA3D3E9002313F030F822462B465F
:10AC200013F0E2F968A3D3E9002313F027F84246B2
:10AC30004B4613F0D9F966A3D3E90023CDE904010B
:10AC40002046294613F0D0F963A3D3E9002313F07B
:10AC500015F822462B4613F0C7F961A3D3E9002368
:10AC600013F00CF822462B4613F0BEF95EA3D3E98D
:10AC7000002313F003F822462B4613F0B5F95CA32A
:10AC8000D3E9002312F0FAFF22462B4613F0ACF969
:10AC900059A3D3E9002312F0F1FF02460B46DDE988
:10ACA000040112F0EBFFDDE9022313F09DF9DDE969
:10ACB000004522462B4612F0E1FF42464B4613F078
:10ACC00093F922462B4612F0D9FF4DA3D3E9002376
:10ACD00004460D46DDE9020113F086F922462B46B3
:10ACE00012F0CCFF0B460246804689465046594634
:10ACF00012F0C4FF464B9E4204460D4600F38C8082
:10AD0000109B012B3BD002460B4600203F4913F01D
:10AD100095FA002406460F462046294652465B46D1
:10AD2000CDE90067CDE90201009412F0A5FFDDE94D
:10AD300000AB02460B464046494612F09DFF524684
:10AD40005B4613F051F9524604460D465B46DDE979
:10AD5000020113F049F900222E4B12F08FFF024638
:10AD60000B462046294612F089FF32463B4613F037
:10AD70003BF952465B4612F081FF04460D462046E1
:10AD8000294607B0BDE8F08F182D4454FB21E93F58
:10AD9000075C143326A6813C000000000000000080
:10ADA000D47ABF74702AFB3EE9A7F0320FB8123F85
:10ADB00068108D1AF726303F1583E0FEC8DB573F39
:10ADC00093846EE9E326823FFE41B31BBAA1AB3FF9
:10ADD000735360DBCB75F3BEA69237A0887E143F19
:10ADE0000165F2F2D844433F280356C9226D6D3FF6
:10ADF00037D60684F464963F7AFE10111111C13FD4
:10AE0000635555555555D53FFFFF2F3E0000F0BF08
:10AE10002794E53F0000F03F109813F07BF822469E
:10AE2000CDE900012B462046294613F0DDF8DDE987
:10AE30000023CDE902012046294612F01FFF0246F9
:10AE40000B46DDE9020113F0F9F942464B4612F0D8
:10AE500013FF02460B465046594612F00DFF0246BC
:10AE60000B4612F00BFF02460B46DDE9000112F023
:10AE700003FF0446B81700F00200C0F101000D46C0
:10AE800013F048F802460B462046294613F0ACF86A
:10AE900004460D462046294607B0BDE8F08F5046CF
:10AEA000594611F021F802460B460020044913F0E0
:10AEB000C5F904460D4662E754465D465FE700BFAC
:10AEC0000000F03F000000002DE9F04FCC4A21F0D7
:10AED0000043934285B082468B460C4620D9C94A2E
:10AEE000934200F2D780002C80F2A481ACA3D3E976
:10AEF00000235046594612F0C1FE0022002313F0F1
:10AF0000E5FA002840F0D180A7A3D3E900235046FA
:10AF1000594613F069F802460B460020BA4994E1FD
:10AF2000BA4A934200F2E580B94A934240F22E8138
:10AF3000002301930022B74B5046594613F054F8B2
:10AF400006460F4602460B465046594613F04CF84B
:10AF500097A3D3E9002304460D4613F045F896A3C2
:10AF6000D3E9002312F08AFE22462B4613F03CF868
:10AF700093A3D3E9002312F07FFE22462B4613F061
:10AF800033F891A3D3E9002312F078FE22462B4632
:10AF900013F02AF88EA3D3E9002312F06DFE2246A7
:10AFA0002B4613F021F800229B4B12F067FE8046DF
:10AFB000894602460B463046394613F015F80246DC
:10AFC0000B460020954912F057FE064602460B46F6
:10AFD0000F464046494612F04FFE324680468946AB
:10AFE0003B465046594612F0FFFF02460B460020F2
:10AFF0008B4912F041FE02460B464046494613F08B
:10B000001DF922462B4612F0EFFF019E02460B4629
:10B01000002E4DD0DDE9026732463B4612F02CFE91
:10B0200052465B4612F0E0FF32463B4612F024FEE9
:10B030002B46224612F020FE019B013306460F46A6
:10B0400000F02381019B012B7BD0019A531C392BEB
:10B050004FEA025500F22881019A132A40F35581E4
:10B06000019BC3F57F7403340022230512F006FE12
:10B0700002460B465046594612F0FEFD0022664B32
:10B0800012F0FCFD824605EB010B5046594605B017
:10B09000BDE8F08F634A93421BD9C1F31303034306
:10B0A000024640F012810029EFDA00205E490DE0EF
:10B0B0005046594612F098FF22462B4612F0DCFD0E
:10B0C00002460B465046594612F0D6FD05B0BDE883
:10B0D000F08F41A3D3E9002313F016FA00283FF4C0
:10B0E00002AF3FA3D3E900231046194612F07CFFBC
:10B0F000ECE74E4A934200F2EC8000293AA3D3E9F0
:10B10000002339DA12F0BAFD39A7D7E900674FF00A
:10B11000FF3380468946019332463B4640464946C6
:10B1200012F0AAFD02460B4682468B46404649462F
:10B1300012F0A2FD32463B4612F09EFDCDE902011F
:10B14000F8E600223A4B5046594613F0BFF9002862
:10B1500000F0CC805046594600222E4B12F08EFD56
:10B1600002460B463046394612F086FD00224FF06B
:10B17000404312F039FFA9E712F07EFD012380461B
:10B18000894601931CA7D7E90067C5E714A3D3E953
:10B19000002312F073FD02460B468FE7AFF30080E9
:10B1A00059F3F8C21F6EA501FE822B654715F73FC4
:10B1B0002DC3096EB7FD8ABE3952E686CACFD03E8E
:10B1C000B7DBAA9E19CE143F8555FE19A0015A3F40
:10B1D000F41011111111A13FEF39FAFE422E8640F1
:10B1E0009C7500883CE4377E0000E0FE422EE63F7E
:10B1F000763C7935EF39EABD763C7935EF39EA3D71
:10B2000079684340412E86400000E0BF422ED63F81
:10B21000FFFF8F3C0000E03F0000F03F00000840CF
:10B2200000001840FFFFEF7F0000F0BFB1A2F03F29
:10B230000000D0BF44A3D3E900235046594612F082
:10B24000D3FE02460B460020414912F017FD13F0D1
:10B250007BF9019012F05EFE37A3D3E90023064686
:10B260000F4612F0C1FE02460B465046594612F0F8
:10B2700003FD33A3D3E9002380468946304639468F
:10B2800012F0B2FE06460F4646E702460B4650460F
:10B29000594612F0F1FC00222D4B12F0A5FE0022BF
:10B2A0002B4B12F0E9FC11E752465B4612F0E4FC2E
:10B2B00002460B460020274912F0DEFC6B181946A7
:10B2C0000022244B12F0D8FC00E70B4612F0D6FC0B
:10B2D000FCE61DA3D3E9002312F086FE002C0246F3
:10B2E0000B464FF00000AFDA1B49AEE732463B4653
:10B2F0005046594612F0C0FC02460B4612F0BEFC06
:10B300000022144B12F0BAFCE0E64FF4001343FAAB
:10B3100002F452465B4612F0AFFCC4F17F570026A0
:10B3200007F5401702460B463046394612F0A4FC9A
:10B33000A8E600BFAFF300800000E0FE422EE63F2B
:10B34000763C7935EF39EA3DFE822B654715F73FAC
:10B350000000E03F0000F03F0000E0BF0000000000
:10B36000F8B5C1F30A5304460D460E4617460BBB0B
:10B3700021F00046034633431BD0354B002212F028
:10B3800033FE344B9F4204460D4635DBC1F30A536E
:10B390000E46363B3B4440F2FE72934232DC002BB9
:10B3A00011DD26F0FF4626F4E00646EA0355204666
:10B3B0002946F8BD40F2FF729342EBD102460B469C
:10B3C00012F05CFCF8BD13F1350F28DA4CF2503363
:10B3D0009F4222462B460ADD19A1D1E9000112F055
:10B3E000BDFB17A3D3E9002312F0FEFDF8BD16A1A3
:10B3F000D1E9000112F0B2FB13A3D3E9002312F04C
:10B40000F3FDF8BD22462B460DA1D1E9000112F053
:10B41000A5FB0BA3D3E9002312F0E6FDF8BD26F04F
:10B42000FF4626F4E006363346EA03552046294611
:10B430000022094B12F0D8FDF8BD00BFAFF3008029
:10B440009C7500883CE4377E59F3F8C21F6EA50155
:10B4500000005043B03CFFFF0000903C10B5054C8D
:10B46000237833B9044B13B10448AFF300800123B0
:10B47000237010BD1085002000000000580B040050
:10B4800008B5034B1BB103490348AFF3008008BD67
:10B490000000000014850020580B0400154B002B01
:10B4A00008BF134B9D46A3F5803A00218B460F46FB
:10B4B0001348144A121A09F0C9F90F4B002B00D097
:10B4C00098470E4B002B00D0984700200021040025
:10B4D0000D000D48002802D00C48AFF3008012F098
:10B4E00073FB2000290005F0F5F912F059FB00BFAD
:10B4F0000000080000000420000000000000000020
:10B5000000840020808C002000000000000000006B
:10B5100070B504460E4600F047FA88B10368DB6A4E
:10B5200005469847082C0CD0A4F10903012B14D927
:10B530003246214610230D20BDE8704004F058B873
:10B5400070BD2B6828465B6A98470228F0DC2B68A0
:10B5500028461B6A04219847EAE72B6828465B6A5D
:10B5600098470528E4DC2B6828461B6A0821984781
:10B57000DEE700BF38B52DED028B054600F014FA6A
:10B58000044640B10368DB6A9847032D03D8DFE81F
:10B5900005F02F363D06BDEC028B002038BD20465D
:10B5A0000CF066F807EE900A2046F8EEE78A0CF0F9
:10B5B0006FF807EE900A2046B8EEE78A0CF078F8AC
:10B5C00068EE087A07EE100AE8EEA87AB8EEC77AB5
:10B5D000E7EE077AF5EE407AF1EE10FAB1EEE78A7F
:10B5E0001BD4FDEEC87ABDEC028B17EE900A38BD75
:10B5F000BDEC028B2046BDE838400CF039B8BDECFC
:10B60000028B2046BDE838400CF042B8BDEC028BFE
:10B610002046BDE838400CF04BB817EE900A11F008
:10B6200099F9DEE738B5044600F0BEF958B1036871
:10B63000DB6A0546984744B1012C04D12846BDE891
:10B640003840FBF73DB9002038BD2846BDE83840FA
:10B65000FBF716B910B5044600F0A6F928B1036847
:10B6600021461B6ABDE81040184710BD00487047CE
:10B6700016FCFFFF704700BF10B5034B0360044684
:10B680000BF0D2FD204610BDC800040010B5054BDC
:10B69000036004460BF0C8FD204613F02DFA204647
:10B6A00010BD00BFC80004002DE9F041032184B0A3
:10B6B0000546512001F0DAFCDFF8E8C2AE4B044643
:10B6C00004F00F06C4F3031714F4807408BF634634
:10B6D000AA4831463A460AF087FF221C18BF0122C9
:10B6E00031463B4628460EF083F80023AB60A44861
:10B6F0000AF07AFF4FF0FF31032001F0B7FCC0B22F
:10B7000004F08CFA4FF0FF310446022001F0AEFC49
:10B71000C0B204F083FA002C3BD0002839D0014697
:10B72000204604F041F8064600284DD04FF0FF3186
:10B73000462001F09BFC322804464ED04BDD3828D1
:10B7400000F0B18068285FD14FF0FF31012001F097
:10B750008DFCC0B204F062FA80464C2013F0D5F99B
:10B76000052301934246009431462B4607460DF0CF
:10B7700035F8AF603B6838469B6A9847A86803680D
:10B78000DB6A98477F480AF02FFF284604B0BDE8DF
:10B79000F0817D480AF028FF4FF0FF31192001F0B9
:10B7A00065FCC0B204F03AFA4FF0FF3104461820AD
:10B7B00001F05CFCC0B204F031FA0146204603F00F
:10B7C000F3FF06460028B1D170480AF00DFF284665
:10B7D00004B0BDE8F081302816D14FF0FF310120D0
:10B7E00001F044FCC0B204F019FA80464C2013F07A
:10B7F0008CF9A4B2074605230193424600943146D2
:10B800002B460CF0A1FDB4E701243268CDE90044D9
:10B810000023176AAB600F220DF10F03322130466F
:10B82000B847002800F085803368CDE900440F2236
:10B830001F6A30210DF10F033046B84700284AD067
:10B840003368CDE900440D221F6A38210DF10F0342
:10B850003046B847002872D03268CDE900440DF177
:10B860000F03176A682175223046B847002845D172
:10B87000682147480AF0B8FE4FF0FF31204601F03A
:10B88000F5FBC0B204F0CAF980464C2013F03DF934
:10B8900005246823CDE90034424631462B4607464D
:10B8A0000CF09CFF65E74FF0FF31012001F0DEFB5B
:10B8B000C0B204F0B3F98046442013F026F9052302
:10B8C0000746019342462B46009431460CF0DEFEBB
:10B8D000304B3B604DE730212D480AF085FE302487
:10B8E0004FF0FF31012001F0C1FBC0B204F096F926
:10B8F00080464C2013F009F907467CE726480AF0F9
:10B9000073FEAF68002F7FF435AF4FF0FF31032097
:10B9100001F0ACFBC0B204F081F930B11F480AF06D
:10B9200063FE284604B0BDE8F0811D480AF05CFEC5
:10B930004DE7322116480AF057FE3224D0E738216D
:10B9400013480AF051FE4FF0FF31204601F08EFB04
:10B95000C0B204F063F98046442013F0D6F8052401
:10B9600038230746CDE9003442462B4631460CF0D9
:10B970008DFE084B3B60FCE6FCF303000CF4030077
:10B980002CF40300ECF403003CF4030050F4030037
:10B990007CF40300C8F3030068F4030090F4030090
:10B9A000CCF4030004F4030038B5114C23680BB148
:10B9B000986838BD4FF0FF31012001F057FBC0B24D
:10B9C00004F02CF940B10C2013F09FF80546FFF766
:10B9D0006BFE2560A86838BD4FF0FF31032001F0F1
:10B9E00045FBC0B204F01AF90028ECD138BD00BF05
:10B9F0002C85002008B501F06BFCFBF7D5FCBDE8F9
:10BA0000084001F0C5B900BF08B501F061FCFBF7C3
:10BA10003BFDBDE8084001F0BBB900BF08B501F02F
:10BA200057FC10F0D7FABDE8084001F0B1B900BFEB
:10BA300008B501F04DFC10F0C9FEBDE8084001F06A
:10BA4000A7B900BF08B501F043FCFBF7BDFCBDE89A
:10BA5000084001F09DB900BF08B501F039FC10F0B5
:10BA6000EBFCBDE8084001F093B900BF08B501F058
:10BA70002FFCFAF745FFBDE8084001F089B900BF87
:10BA800008B501F025FC10F02DFCBDE8084001F0E0
:10BA90007FB900BF70B5049E96420C4624DB154664
:10BAA0006BB9042A19D0022A02D110F0010310D078
:10BAB00001462A46204607F037FD002070BD10449D
:10BAC0000D4410F8013D01F8013B8D42F9D10020F1
:10BAD00070BD02880A80184670BD10F00303E7D1DC
