:10000000000002209D690100C5690100C769010067
:10001000C9690100CB690100CD6901000000000041
:10002000000000000000000000000000CF69010097
:10003000D169010000000000D3690100D569010009
:10004000D7690100D76901003D680100016801001E
:1000500015680100D7690100A9580100E96F010086
:10006000056401000D64010015640100D7690100F9
:10007000D7690100D7690100D7690100D76901007C
:10008000D7690100D7690100D7690100D76901006C
:10009000D7690100D7690100D7690100D76901005C
:1000A000D7690100D76901001D64010025640100C2
:1000B000D7690100D76901000000000000000000BE
:1000C000D7690100D7690100D769010029680100DB
:1000D000D7690100D7690100D7690100D76901001C
:1000E0006568010000000000000000000000000042
:1000F00000000000D7690100000000005168010005
:1001000000000000000000000000000000000000EF
:1001100000000000000000000000000000000000DF
:1001200000000000000000000000000000000000CF
:1001300000000000000000000000000000000000BF
:1001400000000000000000000000000000000000AF
:10015000000000000000000000000000000000009F
:10016000000000000000000000000000000000008F
:10017000000000000000000000000000000000007F
:10018000000000000000000000000000000000006F
:10019000000000000000000000000000000000005F
:1001A000000000000000000000000000000000004F
:1001B000000000000000000000000000000000003F
:1001C000000000000000000000000000000000002F
:1001D000000000000000000000000000000000001F
:1001E000000000000000000000000000000000000F
:1001F00000000000000000000000000000000000FF
:100200002DE9F04F85B003910778A7F10903042B7E
:10021000044607F07F0200F10100F5D9202AF3D04F
:100220002B2F04BF677804462D2F75D09FED427B9E
:100230008DED007B4FF000084FF000099FB34FF0A9
:10024000000C25464FF0000ADFF8FCB0644619E0C8
:1002500019F080FF80468946304619F011FF42466A
:100260004B4619F0C1FD5246804689465B46DDE9A2
:1002700000013CB31AF098F8CDE90001A44615F846
:10028000017F7FB1A7F13006092E52465B464046FA
:100290004946DDD9CCB92E2F17D115F8017F01249D
:1002A000002FEFD12C4642464B46DDE9000119F004
:1002B00051FF80468946039B404649461C6005B075
:1002C000BDE8F08F4FF0010CD9E72C46BCF1000FD0
:1002D00029D042464B46DDE9000119F03BFF07F00B
:1002E000DF07452F80468946E5D10399681C0A221D
:1002F00019F05EFD1449024600201AF0DBFA0246AE
:100300000B464046494619F025FF8046894640463F
:10031000494605B0BDE8F08F9FED097B67788DED0C
:10032000007B013486E7DFF824904FF00008404658
:10033000494605B0BDE8F08F000000000000F03F26
:10034000000000000000F0BF000024400000F87F23
:100350002DE9F047002314460022804689461AF012
:100360006BF928B109F1004399462D23237001341C
:1003700000220023404649461AF054F928B13022A1
:10038000002322706370BDE8F0874046494618F0AC
:10039000CDF81AF08FF973A3D3E900230746494635
:1003A00040461AF049F900284ED170A3D3E9002342
:1003B000404649461AF05EF9002845D10E2F07F154
:1003C000010540F3B980A7F10E06324600206249CC
:1003D0001AF070FA02460B464046494619F0E4FF0F
:1003E00000225E4B19F000FD1AF0A0FA002DA7F1D3
:1003F0000F0E4FF0010C4DDD594FDFF878810122CF
:1004000045F6F3294FF02E0A494508BF40454FF005
:1004100030030AD3B0EB080061EB0901494508BF7E
:10042000404503F10103F5D2DBB2237050EA01032A
:1004300004F101084AD1954252DD0132102A4FD011
:10044000444677E90289DFE7002F33DB3A46002094
:1004500041491AF02FFA02460B464046494619F028
:10046000A3FF3BA3D3E9002380468946012500264C
:100470004046494619F06EFE0022384B19F0B4FC94
:100480001AF054FA002DBC464FF0FF3E37464FF0AD
:100490000006B1DC234630224FF02E0803F8022B71
:1004A00084F80180FC4345D01C4403F8012BA3428F
:1004B000FBD1A1E77A42002027491AF0FBF9024656
:1004C0000B464046494619F045FECAE7954202F1FF
:1004D000010204BF84F801A004F10208102AAFD180
:1004E0006EB14246302102F8011BC2F10103734490
:1004F0004344002BF7DC2EEAEE7301339844BCF141
:10050000010F12D0BCF1000F4FF0650388F80030E6
:10051000C5BF2B2388F8013008F1010108F1020161
:100520006046BDE8F04710F003BA002388F80030B9
:10053000BDE8F0871C465FE7C7F10E0200200649C0
:100540001AF0B8F93E4602460B46012790E700BF75
:100550000000901EC4BCD642000024400000E03FD2
:1005600060B401008DEDB5A0F7C6B03E50EFE2D605
:10057000E41A4B4400407A1070B54FF0FF3006F09B
:1005800057FA04466FF07F4006F052FA06462046BE
:1005900019F066FD00220C4B19F0DCFD04463046D4
:1005A0000D4619F05DFD06A3D3E9002319F0FCFE0A
:1005B00002460B462046294619F016FC70BD00BFC6
:1005C0000000E0DFFFFF6F430000F03D000000008F
:1005D0002DE9F04F1D461389AB4288BF536885B0A3
:1005E00004468CBF53F82500002090468A4606F04A
:1005F00093FE0022904B19F0ADFD1AF05BF8B8F8AD
:1006000008206B1C9A4288BFD8F8042006468CBF8D
:1006100052F82300002006F07FFE0022864B19F0DE
:1006200099FD1AF047F8B8F808300235AB4288BF98
:10063000D8F8043007468CBF53F82500002006F098
:100640006BFE002EC4E9006740F3E280002F40F308
:10065000DF8071A3D3E90023002584F8285017F028
:1006600087FE002200238046894619F0E5FF40B14D
:100670004046494668A3D3E9002319F0B5FB8046FC
:10068000894667A3D3E900234046494619F0F2FFA3
:10069000C0B165A3D3E900234046494619F0D6FF0F
:1006A00080B101234046494684F8283060A3D3E94D
:1006B000002319F099FB58A3D3E9002317F058FE43
:1006C0008046894600225D4B4046494619F042FD6E
:1006D00017F082FB01F1004300221946564B19F036
:1006E00039FD19F0E7FF49460546404617F030FB53
:1006F0000022514B19F02EFD19F0DCFFDAF804301E
:100700004F49B3F80CB0B3F80AA0A56007FB0BF390
:1007100003EB010806FB0AF6019388FB05234FEA69
:10072000124C00960E444CEA034C06EA010383FB8C
:10073000009A06EB0C0E0EEA010ED346CA468EFB5B
:1007400000675246CDE90267120C42EA0B42DDE92E
:1007500002AB0CEA010C8CFB00674FEA16495646C7
:100760000A40360C46EA0B4649EA074982FB05ABCC
:100770005F46C144B0445646CDE90267039FE0603E
:10078000360C09EA010908EA010846EA074689FB2E
:1007900005AB334488FB0556CDE9025655462D0C72
:1007A00045EA0B45DDE902AB0B40AC4403EAE377D5
:1007B0000CEA010C554623EAE37367454FEA1545F9
:1007C00002EAE276A8BF674645EA0B45634522EA9E
:1007D000E272B8BF6346AE444E450EEA010EA8BFB2
:1007E0004E464A45B8BF4A467745A8BF7746734547
:1007F000B8BF73464645A8BF4646C4E905634245AF
:10080000B8BF424600980199206261622761E261A7
:10081000204605B0BDE8F08FEA2E4454FB21194074
:10082000F4D64354FB21F93F320D337F7CD912407B
:10083000EA2E4454FB2109400000F0400000E03F54
:100840000000FFFF000000002DE9F04F2DED028BAE
:10085000044683B0C06819F013FC804620698946BD
:1008600019F00EFC824660698B4619F009FC0246BD
:1008700001F1004306460F464046494617F00AFD7F
:1008800019F060FFE062054617F0BCFB01902846B6
:1008900017F06CFB019B0546184619F003FC424615
:1008A0004B4619F057FC80462846894619F0FAFB5A
:1008B00032463B4619F04EFC02460B46404649463E
:1008C00019F090FA02460B465046594617F0E2FCE2
:1008D00019F038FF002208EE100A0023304639468E
:1008E00019F0C8FE28B3B5EEC08AF1EE10FA1CDD8F
:1008F00011A7D7E9006718EE100A19F0D3FB0246DA
:100900000B463046394619F06DFA32463B4619F02F
:100910006BFA19F017FFA062E38843F00203E3804B
:1009200003B0BDEC028BBDE8F08F05A7D7E90067E7
:10093000E1E784ED0A8AEFE7EA2E4454FB21F93F10
:10094000EA2E4454FB21F9BF494A21F00043934267
:100950002DE9704304460D4649DC464A93420E4653
:100960000EDC3FA3D3E9002319F03EFA0022424BEC
:1009700019F080FE00284AD020462946BDE8708341
:100980003E4A934239DCB3F1804F40DD17F0DCF989
:100990002246804689462B462046294619F0DAFB36
:1009A0000022354B19F020FA18F0E4F842464B4685
:1009B00019F01AFA02460B4600202F4919F0F4FCF0
:1009C000424604460D464B464046494619F00CFA4D
:1009D00002460B462046294619F006FA02F040F876
:1009E000002E08DC01F100431946BDE87083024681
:1009F0000B4619F0F9F9BDE8708317F0A5F902F07C
:100A00002FF819A3D3E9002319F0EEF9E8E72246FD
:100A10002B462046294619F09DFB804689462046F4
:100A2000294617F091F9002204460D46124B404624
:100A3000494619F0D9F918F09DF800220E4B19F02B
:100A4000D3F902460B464046494619F0ADFC224612
:100A50002B4619F0C9F900F0A7FAC1E7AFF30080FF
:100A60009C7500883CE4377EEF39FAFE422EE63F63
:100A7000FFFFEF7FFFFF2F3E0000F03F0000B0417F
:100A80002DE9F84FBE4B21F000469E4204460D462C
:100A90008A460EDDBB4B9E4200F3B18000F0AC8075
:100AA000BAF1000F40F3EA8099A1D1E90001BDE855
:100AB000F88FB54B9E4200F3BA80A3F1DE739E42DD
:100AC00040F3A5804FF0FF3B22462B4620462946A7
:100AD00019F040FB02460B468046894619F03AFB66
:100AE0008DA3D3E9002306460F4619F033FB8CA3F0
:100AF000D3E9002319F078F932463B4619F02AFB76
:100B000089A3D3E9002319F06FF932463B4619F067
:100B100021FB87A3D3E9002319F066F932463B464F
:100B200019F018FB84A3D3E9002319F05DF93246CC
:100B30003B4619F00FFB82A3D3E9002319F054F9C7
:100B400042464B4619F006FB7FA3D3E900238046BB
:100B500089463046394619F0FDFA7DA3D3E90023D2
:100B600019F040F932463B4619F0F4FA7AA3D3E97A
:100B7000002319F037F932463B4619F0EBFA78A317
:100B8000D3E9002319F02EF932463B4619F0E2FA78
:100B900075A3D3E9002319F025F932463B4619F035
:100BA000D9FA02460B464046494619F01DF922463D
:100BB0002B4619F0CFFABBF1FF3F02460B4661D03E
:100BC000724B734E4FEACB0B5B44D3E9002319F011
:100BD00009F922462B4619F005F9B34402460B46A3
:100BE000DBE9000119F0FEF8BAF1000F0DDA01F1AE
:100BF00000431946BDE8F88F00283FF451AF224664
:100C00002B462046294619F0EFF8BDE8F88F58A387
:100C1000D3E9002319F0E8F800225E4B19F02AFD11
:100C200000283FF44FAF20462946BDE8F88F17F063
:100C30008BF8594B9E4204460D4629DCA3F5502300
:100C40009E424EDC02460B4619F0CEF80022514B74
:100C500019F0C8F8002206460F464FF080432046A0
:100C6000294619F0C1F802460B463046394619F0BC
:100C70009BFB4FF0000B04460D4625E73EA1D1E952
:100C80000001C2E72046294619F0ACF8BDE8F88F0C
:100C9000424B9E421ADC0022414B19F0A3F800227D
:100CA00006460F463E4B2046294619F053FA0022CD
:100CB000384B19F099F802460B463046394619F080
:100CC00073FB4FF0020B04460D46FDE602460B4651
:100CD0000020344919F068FB4FF0030B04460D4621
:100CE000F2E600222B4B19F07DF8002206460F4653
:100CF000284B2046294619F077F802460B46304625
:100D0000394619F051FB4FF0010B04460D46DBE666
:100D1000182D4454FB21F93F11DA22E33AAD903FFC
:100D2000EB0D76244B7BA93F513DD0A0660DB13F22
:100D30006E204CC5CD45B73FFF8300922449C23F8A
:100D40000D5555555555D53F2F6C6A2C44B4A2BF4F
:100D50009AFDDE522DDEAD3F6D9A74AFF2B0B33F17
:100D6000711623FEC671BC3FC4EB98999999C93F8F
:100D70009C7500883CE4377E182D4454FB21F9BF54
:100D8000FFFF0F440000F07FFFFFDB3F88B401004E
:100D900068B401000000F03FFFFFF23FFF7F034017
:100DA0000000F83F0000F0BF2DE9F041C1F30A5701
:100DB000A7F2FF35132D02460B460C468846064621
:100DC00020DC002D4ADB364F2F4101EA070C5CEA9C
:100DD000000C1CD030A3D3E9002319F005F8002241
:100DE000002319F047FC48B1002C04DD4FF48013B8
:100DF00043FA05F5A84428EA0704002621463046B0
:100E0000BDE8F081332D06DDB5F5806F38D0104692
:100E10001946BDE8F081A7F213474FF0FF3C2CFACA
:100E200007F70742F3D01CA3D3E9002318F0DCFF37
:100E30000022002319F01EFC0028DFD0002C09DD61
:100E4000142D22D00123C5F1340503FA05F5AE199E
:100E500028BF984426EA07064446CFE70EA3D3E905
:100E6000002318F0C1FF0022002319F003FC002822
:100E7000C4D0002C0CDB264305D00026094CBDE76E
:100E800018F0B2FFC5E73446B8E704F10108E1E71E
:100E900000264FF00044B1E79C7500883CE4377EA3
:100EA000FFFF0F000000F03F2DE9F041C1F30A57AA
:100EB000A7F2FF35132D02460B460C468846064620
:100EC0001DDC002D3CDB364F2F4101EA070C5CEAAC
:100ED000000C19D030A3D3E9002318F085FF0022BD
:100EE000002319F0C7FBC8B3002C04DA4FF48013B9
:100EF00043FA05F5A84428EA070400262EE0332D1E
:100F000006DDB5F5806F2DD010461946BDE8F0819D
:100F1000A7F213474FF0FF3C2CFA07F70742F3D034
:100F20001DA3D3E9002318F05FFF0022002319F06E
:100F3000A1FB98B1002C21DB26EA070644460DE010
:100F400015A3D3E9002318F04FFF0022002319F066
:100F500091FB18B1002C08DB0026344621463046B0
:100F6000BDE8F08118F040FFD0E724F000430D4ABF
:100F70001E43002E18BF14460026EFE7142D08D09C
:100F80000123C5F1340503FA05F5AE1928BF9844CD
:100F9000D2E704F10108CFE79C7500883CE4377E76
:100FA000FFFF0F000000F0BF2DE9F04FD84B994232
:100FB00087B08046894643DDD64B99420E4600F302
:100FC000F480D54B994240F32D819FEDBB7B8DED95
:100FD000047B4FEA215A0446AAF2FF3ACF4BC6F3EC
:100FE00013069E4246F07F5500F3128145F44015EA
:100FF000204629460022CA4B18F0F4FE002204467F
:101000000D46C84B19F0A6F822462B4619F0A2F857
:10101000A046CDE90201A946CDE90001002E3AD152
:10102000002200232046294619F0FCFA002800F08F
:101030001B81BAF1000F40F0858100200021B8E04B
:10104000B94B21F000449C420A460FDD0022B74B09
:1010500019F0E8FA002800F0AF80002200230020F9
:10106000B34919F0A1F907B0BDE8F08FB14B9C422C
:1010700040F3AF80B04B1A449A4240F2D380002232
:10108000A84B19F067F842464B4619F063F8CDE9D2
:1010900000014FF0000A00224FF0804340464946CD
:1010A00018F0A2FE02460B464046494619F07CF96C
:1010B00002460B4606460F4619F04CF880A3D3E9CA
:1010C000002304460D4619F045F87FA3D3E9002319
:1010D00018F08AFE22462B4619F03CF87CA3D3E98F
:1010E000002318F081FE22462B4619F033F87AA32C
:1010F000D3E9002318F078FE22462B4619F02AF88F
:1011000077A3D3E9002318F06FFE22462B4619F08F
:1011100021F875A3D3E9002318F066FE22462B467A
:1011200019F018F872A3D3E9002318F05DFE2246E7
:101130002B4619F00FF8DDE9002318F055FE324672
:101140003B4619F007F804460D46BAF1000F00F0CF
:10115000A880504618F094FF67A3D3E90023824685
:101160008B4618F0F7FF66A3D3E9002306460F4627
:101170005046594618F0EEFFDDE9042318F034FE1E
:1011800022462B4618F030FE02460B46DDE90001F0
:1011900018F028FE42464B4618F024FE02460B4645
:1011A0003046394618F01EFE03E002460B4618F0A2
:1011B0001BFE07B0BDE8F08F42464B46404649460D
:1011C00018F010FE02460B4619F0EEF807B0BDE825
:1011D000F08F0022594B18F007FE0022002319F06F
:1011E00049FA10B1564B9C4262DD42464B4640469E
:1011F000494618F0AFFF00224A4B18F0ABFF0246F9
:101200000B464046494618F0EDFD07B0BDE8F08FAB
:1012100045F40015C6F5801620462946B6100AF199
:10122000010AE7E600223E4B4046494618F0DCFD45
:101230004FEA215AAAF2FF3ABAF1000F04460D46CE
:101240000E4640F3BD8042464B4618F0CBFD0246A9
:101250000B460020324918F0C5FD22462B4619F0F6
:10126000A3F8CDE90401B9E627A3D3E9002320467A
:10127000294618F06FFF02460B460020284918F057
:10128000B1FDDDE9022318F065FF06460F46BAF10D
:10129000000F75D102460B462046294618F0A2FDE4
:1012A00087E702460B46DDE9000118F09BFDA6E743
:1012B000404649467DE700BF0000000000000000F6
:1012C00044523EDF12F1C23F9FC678D0099AC33F15
:1012D000DE03CB966446C73FAF788E1DC571CC3F09
:1012E000599322942449D23F04FA97999999D93F66
:1012F000935555555555E53F0000E0FE422EE63F1B
:10130000763C7935EF39EA3D555555555555E53F0C
:101310007982DA3FFFFFEF7FFFFF3F439DA006008A
:101320000000F03F0000E03FFFFFEF3F0000F0BF94
:10133000000050C3FFFF1F3E3C412D4000005043C2
:10134000FFFF8F3C504618F09BFE24A3D3E90023F7
:1013500006460F4618F0FEFEDDE9042318F044FDB2
:1013600020A3D3E9002304460D463046394618F041
:10137000F1FE02460B462046294618F035FD18E7D7
:10138000504618F07DFE17A3D3E9002382468B4612
:1013900018F0E0FE11A3D3E90023804689465046A9
:1013A000594618F0D7FEDDE9042318F01DFD02466A
:1013B0000B463046394618F015FD22462B4674E799
:1013C0000022054B18F00EFD02460B4640464946EA
:1013D00018F008FD41E700BF0000F03F763C79358A
:1013E000EF39EA3D0000E0FE422EE63F000000003B
:1013F00008B517F01DF804A3D3E9002318F0D4FFB3
:1014000008BD00BFAFF30080EF39FAFE422EE63F81
:101410002DE9F043DFF8B4808BB004460D4601F0AF
:10142000F7F898F90030013306460F462CD02246D3
:101430002B462046294619F027F9814620BB204635
:10144000294616F081FC1FA3D3E9002319F012F9F5
:10145000D0B1194A98F90030CDF820900321CDE998
:101460000445CDE90245CDE9001293B113490020AE
:10147000022BCDE9060111D118F042FC22230360B2
:10148000089B9BB9DDE90667304639460BB0BDE8DD
:10149000F0830B4B4FF06042CDE90623684618F00D
:1014A000ABFA0028E8D0089B002BEBD018F028FC02
:1014B000089B0360E6E700BF00C801000000F07F62
:1014C000FFFFEF477DF8B98FCE3386400F02002033
:1014D0002DE9F043DFF8E4808BB004460D4601F0BF
:1014E00047F998F90030013306460F4633D02046BD
:1014F000294618F07BFA70B32CA3D3E900232046C9
:10150000294619F0B7F8814650BB2AA3D3E9002336
:101510002046294619F090F8E8B198F90030204AA1
:10152000CDF82090002000210426022BCDE90445AF
:10153000CDE902450096CDE90601019229D0684621
:1015400018F05AFA28B3089B1BB118F0D9FB089B76
:101550000360DDE90667304639460BB0BDE8F0832D
:101560000F4A98F90030019203210022CDE9044589
:10157000CDE90245009108922BB90A4B4FF0604229
:10158000CDE90623DBE708490020022BCDE906015F
:10159000D5D118F0B5FB22230360D4E7AFF3008068
:1015A00008C80100FFFFEF470000F07FEF39FAFEA7
:1015B000422E864051302DD5104987C00F020020A1
:1015C0002DE9F04FDFF82C938DB006460F461446F8
:1015D0001D4601F09DFC99F90080B8F1FF3FCDE96F
:1015E000000136D022462B462046294619F04CF8F9
:1015F000834670BB32463B463046394619F044F8C4
:101600008246002840F0A28030463946002200235E
:1016100019F008F810B3002200232046294619F0DB
:1016200001F88346002867D09FEDA77B0122AC4BD1
:10163000CDF828A00292CDE90467CDE906458DEDED
:10164000087B0393B8F1000F41D09FEDA17B8DED96
:10165000007BDDE900010DB0BDE8F08FDDE90001A0
:1016600018F0C4F98046002800F08D804FF0000A81
:101670004FF0000BDDE9000152465B4618F0D2FF47
:101680000028E6D03046394618F0B0F90028E0D0FE
:101690002046294618F0AAF90028DAD099F9003036
:1016A0008F4A039204210022022BCDE90467CDE981
:1016B0000645CDE908AB02910A9203D002A818F0C2
:1016C0009BF950B918F01CFB2223036005E002A827
:1016D00018F092F9002800F09B800A9B1BB118F0CB
:1016E0000FFB0A9B03609DED087B8DED007BDDE920
:1016F00000010DB0BDE8F08F2046294618F076F9BC
:101700000028A6D0002200232046294618F094FF86
:1017100000289ED0724A99F90030CDF828B00121F6
:10172000CDE90467CDE90645CDE90212002B74D05E
:101730006C490020022BCDE9080172D118F0E0FAC3
:10174000212303600A9B002BCDD0C8E70022002391
:101750002046294618F066FF00283FF47AAF624B16
:101760005F49CDF828B000220120B8F1020FCDE981
:1017700004670290CDE90645CDE908230391A6D17F
:10178000CDE9002365E73046394618F02FF90028E7
:101790003FF46CAF2046294618F028F900283FF4A2
:1017A00065AFDDE900231046194618F06DFF99F981
:1017B00000A000286BD10323DFF824C10A9029463A
:1017C000204602930022494BCDF80CC0CDE90645D6
:1017D000CDE9046718F0BEFC04460D46BAF1000FCF
:1017E00025D1DFF814B14FF0604A002200233046C3
:1017F0003946CDE908AB18F01FFF38BB02A818F036
:10180000FBF800289ED118F07BFA2223036099E7A9
:1018100018F076FA212303605FE79FED2B7B8DEDB7
:10182000087B02A818F0E8F800288BD186E79FED26
:101830002A7B00220023304639468DED087B18F0C4
:10184000FBFEA0B9BAF1020FDDD0D7E7204629464A
:1018500018F0DAF822462B4618F0E4FEA0B9244B23
:1018600099F900A04FF06042CDE90823EAE720464D
:10187000294618F0C9F822462B4618F0D3FE18B9AD
:10188000184B0022CDE9082399F900A0DAE70122DC
:10189000134BCDF828800292CDE90467CDE90645C7
:1018A0000393BAF1000FB8D0002200231046194666
:1018B00018F07AFDBAF1020FCDE908013FF43EAF0E
:1018C000AFE700BFAFF300800000000000000000A1
:1018D000000000000000F03F000000000000F07F6A
:1018E00020C801000000F0FF0000F03F0000E03FD2
:1018F000FFFFEFC70F020020FFFFEF4700000000CF
:101900002DE9F84FC44E21F00043B34204460D4682
:101910000DDD03F1404303F58013034340F0B9802C
:10192000002940F3408100200021BDE8F88FBB4E24
:10193000B34208DCBA4A934200F3B5809CA1D1E9D6
:101940000001BDE8F88F0029C0F2708102460B4605
:101950000020B44918F046FA0022B34B18F0FAFB05
:1019600004460D4617F006F993A3D3E900238946F0
:1019700080462946204618F0EDFB91A3D3E90023C9
:1019800018F032FA22462B4618F0E4FB8EA3D3E976
:10199000002318F027FA22462B4618F0DBFB8CA315
:1019A000D3E9002318F020FA22462B4618F0D2FB88
:1019B00089A3D3E9002318F015FA22462B4618F024
:1019C000C9FB87A3D3E9002318F00EFA22462B4661
:1019D00018F0C0FB84A3D3E9002382468B4620463F
:1019E000294618F0B7FB82A3D3E9002318F0FAF9CF
:1019F00022462B4618F0AEFB7FA3D3E9002318F054
:101A0000F3F922462B4618F0A5FB7DA3D3E900236A
:101A100018F0E8F922462B4618F09CFB0022814B77
:101A200018F0E2F902460B465046594618F0BCFC45
:101A300042464B4618F08EFB002682468B463246C5
:101A40004B463046494618F085FB02460B46204679
:101A5000294618F0C7F9324604460D464B46404623
:101A6000494618F0C1F902460B462046294618F0AF
:101A70009BFC02460B465046594618F0B5F93246D3
:101A80004B4618F0B1F902460B4618F0ADF9BDE827
:101A9000F88F02460B4618F0A5F902460B4618F0DF
:101AA00083FCBDE8F88F02460B4618F053FB42A3B7
:101AB000D3E9002306460F4618F04CFB40A3D3E9B8
:101AC000002318F091F932463B4618F043FB3EA341
:101AD000D3E9002318F086F932463B4618F03AFB6A
:101AE0003BA3D3E9002318F07FF932463B4618F0B8
:101AF00031FB39A3D3E9002318F074F932463B4691
:101B000018F028FB36A3D3E9002318F06DF932460C
:101B10003B4618F01FFB34A3D3E9002380468946D7
:101B20003046394618F016FB31A3D3E9002318F0EC
:101B300059F932463B4618F00DFB2FA3D3E9002399
:101B400018F052F932463B4618F004FB2CA3D3E9B7
:101B5000002318F047F932463B4618F0FBFA002202
:101B6000304B18F041F902460B464046494618F002
:101B70001BFC22462B4618F0EDFA02460B4622A12A
:101B8000D1E9000118F02EF902460B4620462946FD
:101B900018F028F902460B4605A1D1E9000118F01A
:101BA00021F9BDE8F88F1AA1D1E9000179E700BF5A
:101BB000182D4454FB21F93F09F7FD0DE13D023F8B
:101BC00088B20175E0EF493F3B8F68B52882A43F9A
:101BD0005544880E55C1C93F7D6FEB0312D6D43FE3
:101BE000555555555555C53F82922EB1C5B8B33F91
:101BF00059018D1B6C06E63FC88A599CE52A0040B6
:101C00004B2D8A1C273A0340075C143326A6913CCF
:101C1000182D4454FB210940FFFFEF3FFFFFDF3F3A
:101C20000000603C0000F03F0000E03F00225C4B01
:101C300018F0DAF800225B4B18F08CFA40A3D3E9D5
:101C4000002304460D4618F085FA3FA3D3E900238C
:101C500018F0CAF822462B4618F07CFA3CA3D3E9C8
:101C6000002318F0BFF822462B4618F073FA3AA367
:101C7000D3E9002318F0B8F822462B4618F06AFA88
:101C800037A3D3E9002318F0ADF822462B4618F00D
:101C900061FA35A3D3E9002318F0A6F822462B46B3
:101CA00018F058FA804689462046294616F062FF09
:101CB0002FA3D3E9002306460F462046294618F0F5
:101CC00049FA2DA3D3E9002318F08CF822462B46BD
:101CD00018F040FA2AA3D3E9002318F085F8224629
:101CE0002B4618F037FA28A3D3E9002318F07AF826
:101CF00022462B4618F02EFA0022294B18F074F8D1
:101D000002460B464046494618F04EFB32463B46DB
:101D100018F020FA1EA3D3E9002318F063F8324626
:101D20003B4618F061F802460B4618F05DF8024693
:101D30000B4619A1D1E9000118F054F8B1E600BF33
:101D400009F7FD0DE13D023F88B20175E0EF493F23
:101D50003B8F68B52882A43F5544880E55C1C93FC2
:101D60007D6FEB0312D6D43F555555555555C53F9C
:101D700082922EB1C5B8B33F59018D1B6C06E63F68
:101D8000C88A599CE52A00404B2D8A1C273A0340FB
:101D9000075C143326A6913C182D4454FB210940BE
:101DA0000000F03F0000E03F414A91422DE9F84336
:101DB00004460D4637DD3F4A91420B4608DD02F1ED
:101DC000795291423DDD024618F00EF8BDE8F883E5
:101DD00001F1404202F5801202432ED0B1F1804F52
:101DE00037DC0022344B17F0FDFF02460B46044659
:101DF0000D4617F0F9FF224606460F462B462046B1
:101E0000294618F0A7F902460B463046394617F026
:101E1000EBFF16F0AFFE22462B4617F0E5FFBDE8BC
:101E2000F843FFF7C1B802460B4617F0DBFF024646
:101E30000B4618F0B9FABDE8F88300200021BDE890
:101E4000F88300F00DFE18A3D3E9002317F0CCFFB0
:101E5000F1E7024618F07EF90022174B17F0C2FF97
:101E600016F088FE2246804689462B4620462946A3
:101E700017F0BAFF224606460F462B464046494613
:101E800017F0B2FF02460B4600200B4918F08CFAFF
:101E90000B4602463946304617F0A4FFBDE8F8432A
:101EA00000F0DEBDAFF30080EF39FAFE422EE63FD0
:101EB000FFFFEF3FFFFFAF410000F03F00000000D9
:101EC0002DE9F04FAE4B21F000479F4287B004460A
:101ED0000D4611DD07F1404707F5801703463B43E8
:101EE00021D002460B4617F07DFF02460B4618F044
:101EF0005BFA07B0BDE8F08FA24B9F420E4629DC8B
:101F0000B7F1795F80F2468181A3D3E9002317F00E
:101F10006BFF00229C4B18F0ADFBD8B12046294640
:101F200007B0BDE8F08F7CA3D3E9002318F012F9C5
:101F30007BA3D3E9002306460F462046294618F026
:101F400009F902460B463046394617F04DFF07B0F7
:101F5000BDE8F08F2046294615F0F6FE02460B46F6
:101F60000020894917F03EFF0022884B18F0F2F854
:101F70006DA3D3E9002304460D4618F0EBF86CA3DB
:101F8000D3E9002317F030FF22462B4618F0E2F881
:101F900069A3D3E9002317F025FF22462B4618F04A
:101FA000D9F867A3D3E9002317F01EFF22462B467A
:101FB00018F0D0F864A3D3E9002317F013FF2246EA
:101FC0002B4618F0C7F862A3D3E9002317F00CFFE3
:101FD00022462B4618F0BEF85FA3D3E90023CDE9D3
:101FE00000012046294618F0B5F85DA3D3E9002387
:101FF00017F0F8FE22462B4618F0ACF85AA3D3E9A6
:10200000002317F0F1FE22462B4618F0A3F858A340
:10201000D3E9002317F0E6FE22462B4618F09AF883
:10202000594B002217F0E0FE82468B462046294697
:10203000CDE902AB16F09EFD554B9F428046894686
:1020400000F3198102460B4617F0CEFEDDE90223AC
:10205000CDE90401DDE9000118F0A6F902460B46BE
:10206000DDE9040118F076F84FF0000ACDE900012F
:1020700052464B465046494618F06CF802460B460D
:102080002046294617F0AEFE524604460D464B4602
:102090004046494617F0A8FE02460B462046294610
:1020A00018F082F902460B4617F09EFE02460B46D8
:1020B0001BA1D1E9000117F095FE02460B46DDE9B0
:1020C000000117F08FFE524604460D464B4650461F
:1020D000494617F089FE02460B4627A1D1E90001C7
:1020E00017F080FE02460B462046294617F07AFE7E
:1020F00002460B4620A1D1E9000117F073FE002E25
:102100003FF7F7AE01F100431946F2E6AFF3008066
:102110009C7500883CE4377E182D4454FB21F93F20
:10212000075C143326A6913C09F7FD0DE13D023F03
:1021300088B20175E0EF493F3B8F68B52882A43F24
:102140005544880E55C1C93F7D6FEB0312D6D43F6D
:10215000555555555555C53F82922EB1C5B8B33F1B
:1021600059018D1B6C06E63FC88A599CE52A004040
:102170004B2D8A1C273A0340182D4454FB21E93F7C
:10218000FFFFEF3FFFFFDF3F0000F03F0000E03FB9
:102190003233EF3F02460B4617F0DCFF4BA3D3E987
:1021A000002306460F4617F0D5FF4AA3D3E90023C4
:1021B00017F01AFE32463B4617F0CCFF47A3D3E98F
:1021C000002317F00FFE32463B4617F0C3FF45A32E
:1021D000D3E9002317F008FE32463B4617F0BAFF5A
:1021E00042A3D3E9002317F0FDFD32463B4617F02A
:1021F000B1FF40A3D3E9002317F0F6FD32463B467A
:1022000017F0A8FF3DA3D3E9002380468946304656
:10221000394617F09FFF3BA3D3E9002317F0E2FDF7
:1022200032463B4617F096FF38A3D3E9002317F058
:10223000DBFD32463B4617F08DFF36A3D3E9002382
:1022400017F0D0FD32463B4617F084FF00221E4BAC
:1022500017F0CAFD02460B464046494618F0A4F85E
:1022600022462B4617F076FF22462B4617F0BCFD80
:1022700007B0BDE8F08F52465B46DDE9000118F07B
:1022800093F842464B4617F065FF42464B4617F01F
:10229000ABFD02460B4617F0A7FD07A3D3E90023C9
:1022A00017F0A0FD02460B4605A1D1E9000117F089
:1022B00099FD24E7AFF30080075C143326A6913C18
:1022C000182D4454FB21F93F0000F03F09F7FD0DA4
:1022D000E13D023F88B20175E0EF493F3B8F68B5B1
:1022E0002882A43F5544880E55C1C93F7D6FEB033A
:1022F00012D6D43F555555555555C53F82922EB1EE
:10230000C5B8B33F59018D1B6C06E63FC88A599C7E
:10231000E52A00404B2D8A1C273A034000000000AC
:102320002DE9F84F1D465342134325F00049DFF8CD
:10233000C8C149EAD3736345144606460F4626D8FA
:10234000C0F1000848EA000821F0004A4AEAD878BB
:10235000E04503468B461AD805F1404808F5801839
:1023600058EA0208AE4643D04FEAA57808F00208C2
:102370005AEA030348EAD17811D1B8F1020F55D0D7
:10238000B8F1030F09D14AA1D1E9000105E03246B5
:102390003B462046294617F027FDBDE8F88F59EA4D
:1023A000020329D0E1452ED0E24525D0AAEB090948
:1023B0004FEA2959B9F13C0F3CDC002D3EDA19F106
:1023C0003C0F3BDA00200021B8F1010F4ED0B8F1EC
:1023D000020F3ED0B8F1000FDFD037A3D3E90023BE
:1023E00017F000FD36A3D3E9002317F0FBFCD4E778
:1023F000BDE8F84FFEF744BBBBF1000F12DB32A182
:10240000D1E90001C9E7CA4534D0B8F1020F0DD0B7
:10241000B8F1030FB7D0B8F1010F4FF0000036D07C
:102420000021BAE72AA1D1E90001B6E724A1D1E948
:102430000001B2E724A1D1E90001C5E722462B46FD
:102440003046394617F0B0FF15F07EFCFEF718FB5A
:10245000BAE719A3D3E9002317F0C4FC02460B46E0
:1024600017A1D1E9000117F0BDFC96E701F1004387
:10247000194692E7B8F1020F14D0B8F1030F0DD04E
:10248000B8F1010F06D014A1D1E9000185E74FF0A2
:10249000004182E712A1D1E900017EE712A1D1E952
:1024A00000017AE712A1D1E9000176E7AFF30080DD
:1024B000182D4454FB2109C0075C143326A6A13C07
:1024C000182D4454FB210940182D4454FB21F93F99
:1024D000182D4454FB21F9BF182D4454FB21E93F2A
:1024E000182D4454FB21E9BFD221337F7CD902C08F
:1024F000D221337F7CD902400000F07F0000000031
:1025000043422DE9F047034321F000463C4A46EAA6
:10251000D373934204460D462AD8964240D0394B95
:102520009E428A462EDD384B9E4235463FDD33467D
:102530000246314617F058FC224606460F462B4607
:1025400000202F4917F04EFC02460B463046394614
:1025500017F02AFFFEF728FD00222C4B17F0FAFD9A
:10256000BAF1000F0CDA01F100431946BDE8F0871B
:1025700002460B4617F036FC02460B4617F014FFD6
:10258000BDE8F0871CA3D3E9002317F02DFC00223F
:10259000002318F06FF848B120462946BDE8F087BF
:1025A0000022002317F000FFBDE8F08735462246E1
:1025B0002B462046294617F017FC22462B46064696
:1025C0000F4617F0C7FD2246804689462B4600205D
:1025D0000B4917F007FC02460B464046494617F0E8
:1025E000E3FE32463B4617F0FFFBFEF7DDFC002220
:1025F000064B17F0AFFDB3E79C7500883CE4377ECF
:102600000000F03FFFFF2F3EFFFFDF3F0000E03FF5
:102610002DE9F8434E4B21F000449C4206460F46FC
:102620001BDC4C4B9C4222DD4B4B9C4254DD4B4B04
:102630009C4246DD4A4B9C426FDD01339C4269D08F
:1026400041A3D3E900231046194617F083FD06463F
:102650000F4630463946BDE8F88302460B4617F070
:1026600079FD06460F4630463946BDE8F88315F039
:102670006BFB02F04DFC00223A4B8046894617F076
:10268000B3FBB4F1725F06460F46ECDB42464B46A5
:102690004046494617F05EFD32463B4604460D462D
:1026A0003046394617F0A0FB02460B462046294625
:1026B00017F07AFE00222B4B17F096FB06460F46CA
:1026C000D1E715F041FB00F053F80022264B17F03C
:1026D00041FD06460F46C6E715F036FB00F048F808
:1026E0000022214B06460F4617F034FD32460446C1
:1026F0000D463B4600201C4917F056FE02460B468D
:102700002046294617F070FB06460F4630463946EC
:10271000BDE8F883154B984292D83046394615F0FB
:1027200013FB0022104B17F015FD00F021F80022DA
:1027300004460D460C4B17F00DFD22462B4617F0B4
:1027400009FD06460F468EE79C7500883CE4377EFF
:10275000FFFFEF7F422ED63FFFFF3540412E8640E0
:10276000CD3386400000F03F0000E03F7DF8B98F98
:102770002DE9F047B04F21F00042BA4284B0044640
:102780000D464FEAD17610D9AC4FBA4240F28A805A
:10279000C1F313030343024640F0F180002E7ED0C4
:1027A0000020002104B0BDE8F087A54B9A4200F25A
:1027B000B680A44B9A4240F2D1804FF0000A2246E4
:1027C0002B462046294617F0C5FC85A3D3E90023F4
:1027D00006460F4617F0BEFC83A3D3E9002317F08B
:1027E00001FB32463B4617F0B5FC81A3D3E9002339
:1027F00017F0FAFA32463B4617F0ACFC7EA3D3E959
:10280000002317F0EFFA32463B4617F0A3FC7CA3F7
:10281000D3E9002317F0E8FA32463B4617F09AFC5A
:1028200002460B462046294617F0DCFA02460B46C4
:1028300006460F462046294617F08CFC80468946FE
:10284000BAF1000F00F0AB8032463B4600204FF05B
:10285000804117F0C7FA02460B464046494617F03A
:10286000A3FD02460B46DDE9020117F0BBFADDE9E4
:10287000002317F0B7FA0B4602467349002017F001
:10288000B1FA6FF47F739A4580F2A3800AF57A7AE1
:1028900001EB0A5100224FF0B87317F05BFC04B053
:1028A000BDE8F08758A3D3E9002317F0E3FE002822
:1028B0006BD157A3D3E900232046294617F0BCFE6D
:1028C00000287FF46DAF614953A3D3E9002301EBE6
:1028D000C6062046294617F03DFCD6E9002317F02E
:1028E00083FA17F0E7FE824617F0CAFB4CA3D3E940
:1028F000002306460F4617F02DFC02460B462046E5
:10290000294617F06FFA48A3D3E90023CDE9000167
:102910003046394617F01EFCCDE9020115E04C4B5C
:102920009A42D0D84B4BF4002344D3E9002317F04C
:1029300059FA494B234493ED007BCDE900018DED1D
:10294000027BC6F1010AAAEB060ADDE90223DDE9F2
:10295000000117F047FA04460D4630E734A3D3E9E7
:10296000002317F041FA0022374B17F083FEA8B37B
:10297000204629460022344B17F036FA8FE70B46E3
:1029800017F032FA04B0BDE8F08729A3D3E9002399
:102990001046194617F0DEFB04B0BDE8F08730465C
:1029A000394600224FF0804317F01CFA02460B46CE
:1029B0004046494617F0F8FC22462B4617F012FA1B
:1029C00002460B460020204917F00CFA04B0BDE87F
:1029D000F08701EB0A5104B0BDE8F0878246EEE6CD
:1029E000D0A4BE726937663EF16BD2C541BDBB3E15
:1029F0002CDE25AF6A56113F93BDBE166CC1663FF3
:102A00003E5555555555C53FEF39FAFE422E864085
:102A100051302DD5104987C0FE822B654715F73FF1
:102A20000000E0FE422EE63F763C7935EF39EA3D84
:102A30009C7500883CE4377E412E8640FFFFEF7F87
:102A4000422ED63FFFFF2F3E0000F03FA8B401000A
:102A5000B1A2F03FB8B40100C8B40100000000000A
:102A60002DE9F04FB1F5801F85B006460F460B46A5
:102A700080F2D08021F00042024300F0DA80002989
:102A8000C0F2E9800022D64B17F064FBD54A0B4612
:102A9000934206460F466FF0350E00F3C180C3F334
:102AA000130505F5152C0CF6647C0CF4801C8CF0D9
:102AB0007F5282F440121C1542EA0507A4F2FF344B
:102AC00074440022C84B3046394604EB1C5417F0BE
:102AD00089F9AB1CC3F31303022B82468B464FF0DC
:102AE000000240F3AF804FF0804317F07DF90246BB
:102AF0000B465046594617F057FC064620460F46EF
:102B000017F0BEFA3246CDE902013B46304639465F
:102B1000CDE9006717F01EFB02460B46804689464A
:102B200017F018FB9AA3D3E9002306460F4617F0C7
:102B300011FB99A3D3E9002317F056F932463B461F
:102B400017F008FB96A3D3E9002317F04DF932469E
:102B50003B4617F0FFFA94A3D3E9002317F044F99A
:102B600042464B4617F0F6FA91A3D3E9002380467C
:102B700089463046394617F0EDFA8FA3D3E9002392
:102B800017F032F932463B4617F0E4FA8CA3D3E94A
:102B9000002317F029F932463B4617F0DBFA0B46C3
:102BA00002464946404617F01FF9A5F5C223C5F570
:102BB000D725A3F27A4351351D43002D06460F4613
:102BC00040F387800022894B5046594617F0C2FADD
:102BD00052465B4617F0BEFA02460B4680468946CF
:102BE0003046394617F000F9DDE9002317F0B2FA54
:102BF00006460F46002C40F0818002460B464046B8
:102C0000494617F0EFF802460B465046594617F072
:102C1000E9F80BE0734A93424FF0000E7FF73FAFA5
:102C200032463B463046394617F0DEF805B0BDE87F
:102C3000F08F0022002300206D4917F0B5FB05B08E
:102C4000BDE8F08F002317F0EDFC60B1002C7CD1C3
:102C500000200021EAE7024617F0C4F80022002312
:102C600017F0A2FBE2E758A3D3E9002350465946E8
:102C700017F070FA02460B4600205C4917F0B2F8D4
:102C8000524606460F465B465046594617F062FAD2
:102C900002460B463046394617F05CFA06460F46A8
:102CA0002CB3204617F0ECF949A3D3E90023804662
:102CB000894617F04FFA48A3D3E9002304460D468E
:102CC0004046494617F046FA02460B46304639461A
:102CD0002CE002460B465046594617F083F8DDE9D2
:102CE000002317F037FA06460F46002C47D132462C
:102CF0003B465046594617F075F897E734A3D3E999
:102D00000023DDE9020117F025FA33A3D3E90023FC
:102D100004460D46DDE9020117F01CFA32463B4637
:102D200017F062F802460B464046494617F05AF83B
:102D300052465B4617F056F802460B462046294697
:102D400017F050F805B0BDE8F08F204617F098F95D
:102D50001FA3D3E9002306460F4617F0FBF91EA375
:102D6000D3E9002304460D463046394617F0F2F900
:102D700002460B462046294617F036F856E7DDE9AD
:102D8000028913A3D3E900234046494691E700BFD7
:102D900044523EDF12F1C23FDE03CB966446C73F8A
:102DA000599322942449D23F935555555555E53FA3
:102DB0009FC678D0099AC33FAF788E1DC571CC3FAE
:102DC00004FA97999999D93F555555555555D53F79
:102DD0000000E0FE422EE63F763C7935EF39EA3DD1
:102DE00000005043FFFFEF7F0000F03F0000E03F96
:102DF000000050C300000000B1F5801F2DE9F8432A
:102E000004460D460B4619DA21F00042024359D020
:102E100000295FDB00223A4B17F09CF9394A0D4636
:102E20002B46934204466FF035010CDD22462B46BB
:102E30002046294616F0D8FFBDE8F883314A934270
:102E40004FF00001F2DC1815A0F2FF3008444FEA01
:102E5000D0794844C3F3130817F012F9C9F57F730A
:102E6000033348EA035506460F4620462946FFF736
:102E7000F7FD1DA3D3E90023804689463046394635
:102E800017F068F91AA3D3E9002304460D4640461B
:102E9000494617F05FF902460B462046294616F0D0
:102EA000A3FF15A3D3E9002304460D463046394657
:102EB00017F050F902460B462046294616F094FFBB
:102EC000BDE8F8830022002300200F4917F06CFAB8
:102ED000BDE8F883024616F085FF0022002317F0B4
:102EE00063FAA9E7AFF30080362BF111F3FE593DE9
:102EF0000EE526157BCBDB3F00609F501344D33F8C
:102F000000005043FFFFEF7F000050C300000000AF
:102F10002DE9F04F23F0004555EA020493B00DD09F
:102F20006B4E21F00044B4420F4682460BDD04F1A3
:102F3000404404F5801454EA0A0350D16549002046
:102F400013B0BDE8F08F9B46944647D0B542EEDC07
:102F50005F4EB5425DD0002F80468946CDE9002303
:102F60005BDB0026BCF1000F0ED1594B9D423FD0D8
:102F7000584B9D4200F08880BBF1804F00F09C8050
:102F8000554B9B4500F0B8834046494614F0DCFEA3
:102F9000BAF1000F06D1002C59D04E4B27F0404219
:102FA0009A4254D0FF0F013F56EA070373D04B4BB0
:102FB0009D4240F39B8003F104739D4240F33E84A5
:102FC000474B9C4272DDBBF1000F72DD3EA3D3E99B
:102FD00000231046194617F0BDF8B1E728B1414863
:102FE00013B0BDE8F04F16F009BDA542F7DCAFE71E
:102FF00004F1404303F5801353EA0A039ED0384B93
:103000009C4240F38383BBF1000F52DBDDE90001FA
:1030100096E7BCF1000F9ED089E7334B9D4231DC2F
:10302000A3F154739D429CDD2B15A3F2FF33142BA7
:1030300040F3A583C3F134032CFA03F202FA03F33D
:1030400063458ED102F00102C2F102068AE7BBF1AC
:10305000000F05DA02460B4600201E4917F0A4F9BE
:10306000002FBFF66DAF04F1404404F5801454EA1C
:10307000060300F03F84012E7FF462AF01F10043AC
:1030800019465DE702266DE7BBF1000FC0F24883E9
:103090004046494654E742464B461046194616F00C
:1030A000A1FE02460B4617F07FF949E7BBF1000F7E
:1030B0008CDB0020002143E742464B464046494610
:1030C00017F048F83CE700BF9C7500883CE4377E69
:1030D0000000F07F0000F03F0000E03F0000E04112
:1030E000FFFFEF3FD0BC0100FFFF3F43B4F5801F5F
:1030F00080F261830022D24B17F02CF86FF0340C71
:103100000C462315CF4DC4F31302A3F2FF3342F054
:103110007F546344AA420B9344F4401440F33F832A
:10312000C94B9A4240F304849FEDAF7B8DED087B41
:103130008DED107B9FEDAE7B0B9B8DED067B013300
:103140000B93A4F580140025DDE906232146824671
:1031500016F048FEA346DDE9062380468946504620
:103160002146CDE90CAB16F03FFE02460B4600208F
:10317000B64917F019F90A460146CDE90E12134671
:1031800049460246404616F0E5FF631043F00053FF
:1031900082468B4603F500238C46CDE904AB5919D2
:1031A000D3460023CDE902BC0293DDE902AB002047
:1031B00004460D4602460B465046594616F0CAFFD5
:1031C00002460B464046494616F00CFEDDE9062352
:1031D000804689462046294616F004FE02460B46E4
:1031E000DDE90C0116F0FEFD52465B4616F0B2FF1B
:1031F00002460B464046494616F0F4FDDDE90E2333
:1032000016F0A8FFDDE90445CDE9060122462B466C
:103210002046294616F09EFF77A3D3E900230446F3
:103220000D4616F097FF76A3D3E9002316F0DCFDD8
:1032300022462B4616F08EFF73A3D3E9002316F027
:10324000D3FD22462B4616F085FF71A3D3E9002358
:1032500016F0CAFD22462B4616F07CFF6EA3D3E97A
:10326000002316F0C1FD22462B4616F073FF6CA317
:10327000D3E9002316F0B8FD2246804689462B4646
:103280002046294616F066FF02460B464046494650
:1032900016F060FF524604460D465B46DDE9040128
:1032A00016F0A2FDDDE9062316F054FF22462B4658
:1032B00016F09AFD5246804689465B46504659466E
:1032C00016F048FF0022624BCDE90C0116F08CFD90
:1032D00042464B4616F088FD02980D4604462246AB
:1032E0002B465046594616F035FF002282468B4643
:1032F000574B2046294616F075FDDDE90C2316F0E4
:1033000071FD02460B464046494616F06BFDDDE96D
:10331000042316F01FFF2246804689462B46DDE92E
:10332000060116F017FF02460B464046494616F0C6
:103330005BFD8046894602460B465046594616F0CC
:1033400053FD029838A3D3E9002304460D4616F036
:1033500001FF5246CDE904015B462046294616F09E
:1033600041FD02460B464046494616F03BFD30A360
:10337000D3E9002316F0EEFE2FA3D3E90023804605
:1033800089462046294616F0E5FE02460B46404691
:10339000494616F029FDDDE9102316F025FD80468B
:1033A0000B98894616F06CFE424682468B464B4689
:1033B000DDE9040116F018FDDDE9082316F014FD1F
:1033C00052465B4616F010FD029852465B46044694
:1033D0000D4616F007FDDDE9082316F003FDDDE9D3
:1033E000042337E0AFF3008000000000000000007D
:1033F000000000000000F03FEF4E454A287ECA3F23
:1034000065DBC9934A86CD3F01411DA96074D13F58
:103410004D268F515555D53FFFAB6FDBB66DDB3F6A
:10342000033333333333E33F000000E009C7EE3F9B
:10343000FD033ADC09C7EE3FF5015B14E02F3EBE09
:10344000000040438E98030079B60B000000F03F67
:103450000000084016F0C6FC0B46024649464046AE
:1034600016F0C0FC013E56EA070382468B4600F088
:103470005E819FEDD37B8DED047BDDE9001200239F
:103480000E461746CDE902670293DDE9026708465A
:103490003B461146324616F0A5FC22462B4616F056
:1034A00059FEDDE90023804689465046594616F00C
:1034B00051FE02460B464046494616F095FC324600
:1034C000804689463B4620462946CDE9008916F0CC
:1034D00041FE0B46024606460F464046494616F058
:1034E00083FCD14B994204460D468A4640F3248121
:1034F00001F13F4303F5E003034340F0FF81B2A332
:10350000D3E90023DDE9000116F06EFC3246804667
:1035100089463B462046294616F064FC02460B4687
:103520004046494617F0A6F8002840F0E781A84633
:103530004FEA2853A3F2FE324FF480131341534451
:10354000C3F30A52B94DA2F2FF321541C3F313047B
:1035500023EA05010020C2F1140B44F48014BAF1EF
:10356000000F02460B4644FA0BFB30463946B8BF03
:10357000CBF1000B16F036FC06460F463246DDE96D
:1035800000013B4616F030FC4FEA0B5A0D46002472
:103590008FA3D3E900232046294616F0DBFD3246EF
:1035A000804689463B462046294616F01BFC0246CB
:1035B0000B46DDE9000116F015FC87A3D3E90023D3
:1035C00016F0C8FD86A3D3E9002306460F46204621
:1035D000294616F0BFFD02460B463046394616F026
:1035E00003FC06460F4602460B464046494616F087
:1035F000FBFB42464B4604460D4616F0F3FB0246E3
:103600000B463046394616F0EDFB22468046894689
:103610002B462046294616F09DFD73A3D3E90023CF
:1036200006460F4616F096FD71A3D3E9002316F067
:10363000D9FB32463B4616F08DFD6FA3D3E900233C
:1036400016F0D2FB32463B4616F084FD6CA3D3E95C
:10365000002316F0C7FB32463B4616F07BFD6AA3FB
:10366000D3E9002316F0C0FB32463B4616F072FD4C
:1036700002460B462046294616F0B4FB06460F4686
:1036800002460B462046294616F064FD0022CDE98D
:1036900000014FF080433046394616F0A3FB024646
:1036A0000B46DDE9000116F07FFE424606460F4656
:1036B0004B462046294616F04DFD42464B4616F035
:1036C00093FB02460B463046394616F08BFB2246EA
:1036D0002B4616F087FB02460B460020544916F095
:1036E00081FB8A44BAF5801FC0F232815146DDE980
:1036F000042316F02FFD23E4002FFFF645AC4046CF
:10370000494613B0BDE8F04F15F034BABBF1000FD5
:10371000BFF6CFACDDE90034184604F100410FE4F8
:1037200042464B460020424916F03EFE08E49FED1B
:10373000387B8DED047BA0E63E4B21F00048984598
:1037400040F3EA803C4B0B4403430AD132463B46EC
:1037500016F048FBDDE9002316F082FF00283FF455
:10376000E7AEDDE904012CA3D3E9002316F0F2FC57
:1037700029A3D3E9002316F0EDFCFFF7E1BBBCF170
:10378000000F40F0D280C3F1140345FA03F202FAAD
:1037900003F3AB4200F0E0806646FFF7E9BB9FED24
:1037A000207B8DED087B8DED107B9FED057B00254B
:1037B0008DED067BC8E44FF0000CA2E4AFF300806F
:1037C000000000000000F03FFE822B654715973C8B
:1037D00000000000432EE63FEF39FAFE422EE63F9E
:1037E000396CA80C615C20BED0A4BE726937663EFD
:1037F000F16BD2C541BDBB3E2CDE25AF6A56113FF1
:1038000093BDBE166CC1663F3E5555555555C53FD7
:10381000000000000000F0BF59F3F8C21F6EA501C0
:103820000000000000000000FFFF8F40FFFF0F00BE
:103830000000F03FFFCB904000346F3F5A4B9C425A
:103840007FF734AC594B9C423FF7BDAB0022574B3E
:1038500016F0C8FA44A3D3E9002304460D4616F037
:1038600079FC43A3D3E9002382468B4620462946B0
:1038700016F070FC0022CDE902014D4B204629468E
:1038800016F068FC02460B463BA1D1E9000116F098
:10389000A9FA22462B4616F05DFC02460B46002094
:1038A000444916F09FFA2246804689462B46204618
:1038B000294616F04FFC02460B464046494616F094
:1038C00049FC2FA3D3E9002316F044FC02460B4623
:1038D000DDE9020116F086FA02460B46804689466B
:1038E0005046594616F080FA002004460D465246CE
:1038F0005B46AFE502460B46FFF7CFBBDDE90401AF
:1039000021A3D3E9002316F025FC1FA3D3E900234C
:1039100016F020FCFFF714BB264B98453FF708AE86
:10392000DDE902239246934631E60026FFF72CBBE1
:103930009FED177B8DED087B9FED177B8DED107B49
:103940009FED177B4FF480258DED067BFFF7FCBBC9
:103950005A4601F029FDCAE602F00102C2F1020650
:10396000FFF706BBAFF30080000000604715F73F8C
:1039700044DF5DF80BAE543E555555555555D53F72
:10398000FE822B654715F73F9C7500883CE4377E27
:103990000000004003B8E23F06D0CF43EBFD4C3EB1
:1039A000000000000000F83FFEFFEF3F0000F03F86
:1039B0000000D03F0000E03F2DE9F047CA4B21F066
:1039C00000479F4290B08046894640F38F80C74BA6
:1039D0009F420C46924626DC0029B9A3D3E9002376
:1039E00040F38F8016F0FEF9C14B9F4204460D460E
:1039F00000F04781B4A3D3E9002316F0F3F902469F
:103A00000B46CAE900232046294616F0EBF9AEA37F
:103A1000D3E9002316F0E6F90125CAE90201284698
:103A200010B0BDE8F087B34B9F4240F38980B24BA2
:103A30009F4200F31C813D15A5F21645A7EB0553E7
:103A400019461F46064616F035FE16F019FB80464D
:103A5000894642464B4630463946CDE90A8916F03A
:103A6000C1F90022A54B16F075FB8946804616F079
:103A700021FE16F005FB06460F4632463B46404601
:103A80004946CDE90C6716F0ADF900229B4B16F0C4
:103A900061FB00220023CDE90E0116F0C3FD0028D2
:103AA00000F06081002330463946002216F0BAFD4E
:103AB000002814BF01230223914A019202212A46C1
:103AC00000910AA8514600F087FB002C054614DA45
:103AD000DAF80420DAF80C3002F1004203F1004376
:103AE0004542CAF80420CAF80C3006E00020002144
:103AF000C2E90089C2E902010025284610B0BDE8EC
:103B0000F08716F071F97A4B9F4204460D4600F09B
:103B10000B816DA3D3E9002316F066F902460B462C
:103B2000CAE900232946204616F05CF966A3D3E9CA
:103B3000002316F059F94FF0FF35CAE90201DCE71E
:103B400014F002F962A3D3E900238046894616F0F7
:103B500001FB00226B4B16F047F916F0ABFD054652
:103B600016F08EFA56A3D3E90023CDE9060116F02C
:103B7000F1FA02460B464046494616F033F952A385
:103B8000D3E9002380468946DDE90601CDE90289B3
:103B900016F0E0FA1F2D02460B46CDE9042340F350
:103BA000B380DDE90423DDE9020116F01BF980464C
:103BB00089463F15C9F30A53FB1A102B40F3B18015
:103BC00045A3D3E90023DDE9060116F0C3FA8046D8
:103BD000894602460B46DDE9020116F003F902466A
:103BE0000B46DDE90201CDE9082316F0FBF8424659
:103BF0004B4616F0F7F83AA3D3E9002380468946EE
:103C0000DDE9060116F0A6FA42464B4616F0EAF840
:103C10000B46CDE904010246DDE9080116F0E2F8A1
:103C2000C1F30A53FF1A312F8046894600F39C8066
:103C30009DED087BCAE900898DED027B42464B462B
:103C4000DDE9020116F0CEF8DDE9042316F0CAF82A
:103C5000002CCAE90201BFF650AF09F1004401F19E
:103C600000436D42CAE90084CAE9020345E70246FF
:103C70000B4616F0B7F80025CAE90201CAE90001AF
:103C80003BE715A3D3E9002316F0ACF814A3D3E95E
:103C900000230D46044616F0A5F802460B46CAE975
:103CA00000232946204616F09DF80DA3D3E90023F2
:103CB00016F098F80125CAE902011EE7AFF300806B
:103CC00000004054FB21F93F3163621A61B4D03DDA
:103CD00083C8C96D305FE43F0000601A61B4D03D15
:103CE0007370032E8A19A33BFB21E93F7BD9024065
:103CF000FB21F93FFB213941FFFFEF7F00007041BD
:103D0000C4C801000000E03F4046494616F06AF88A
:103D1000394B6A1E804653F82230BB4289463FF435
:103D200048AFCAE9008989E72BA3D3E9002316F03D
:103D30005BF82BA3D3E900230D46044616F054F894
:103D400002460B46CAE900232946204616F04AF8E7
:103D500023A3D3E9002316F047F84FF0FF35CAE953
:103D60000201CAE60323A7E61FA3D3E90023DDE986
:103D7000060116F0EFF906460F4602460B46DDE94E
:103D8000080116F02FF88046894602460B46DDE909
:103D90000801CDE9028916F025F832463B4616F0B7
:103DA00021F813A3D3E9002306460F46DDE90601F7
:103DB00016F0D0F932463B4616F014F802460B4690
:103DC00040464946CDE9042316F00CF88046894662
:103DD000A7E700BFAFF300800000601A61B4D03DD8
:103DE0007370032E8A19A33B0000002E8A19A33B8F
:103DF000C14920259A837B3944C801000000000096
:103E0000574A2DE9F84F21F00048904506460F46E5
:103E10002CDC544B0029B4BF534D544D98454FF002
:103E2000000411DC524B984526DC4BA3D3E9002358
:103E300015F0DAFF00224F4B16F01CFC002840D092
:103E400030463946BDE8F88F4B4B984530DD4B4B3B
:103E5000984568DD0133984562D0304639463EA327
:103E6000D3E9002316F076F9BDE8F88F02460B4639
:103E700015F0BAFFBDE8F88F13F066FF01F048F8BF
:103E80003F4B984506460F4623DD0022394B15F07F
:103E9000ABFF02460B463046394616F085FA3246ED
:103EA0003B4615F0A1FF22462B4616F053F9E1E7F9
:103EB00013F04AFFFEF75CFC22462B4616F04AF947
:103EC000D8E73046394613F03FFF01F021F80646A7
:103ED0000F4632463B463046394615F085FF32469E
:103EE00082468B463B463046394616F033F900226F
:103EF000804689461F4B3046394615F075FF02460D
:103F00000B464046494616F04FFA02460B465046CD
:103F1000594615F067FF22462B4616F01BF9A9E714
:103F2000184B984299D83046394613F00DFF0022BD
:103F30000E4B16F00FF9FEF71BFC06460F46024625
:103F40000B462046294616F005F932463B4616F048
:103F500001F98FE7AFF300803374AC3C1F7BAC7F7B
:103F6000FFFFEF7FFFFF35400000E0BF0000E03FB4
:103F7000FFFF2F3E0000F03F412E8640CD338640AC
:103F8000FFFFEF3F7DF8B98F2DE9F04F21F000489A
:103F9000B8F1795F85B006460F4692469B466BDACC
:103FA00016F088FB002800F0E18032463B463046A0
:103FB000394616F0CFF874A3D3E9002304460D4622
:103FC00016F0C8F872A3D3E9002315F00DFF2246BE
:103FD0002B4616F0BFF870A3D3E9002315F002FFBB
:103FE00022462B4616F0B6F86DA3D3E9002315F050
:103FF000FBFE22462B4616F0ADF86BA3D3E9002357
:1040000015F0F0FE22462B4616F0A4F868A3D3E97B
:10401000002315F0E9FE22462B4616F09BF8CDE969
:1040200000010022664B2046294616F093F8DDE990
:104030000023804689462046294616F08BF85246D2
:1040400004460D465B463046394616F083F8024674
:104050000B462046294615F0C5FE02460B46404653
:10406000494615F0BFFE02460B460020554915F0A3
:10407000B9FE05B0BDE8F08F02460B4616F06AF8AF
:1040800041A3D3E9002304460D4616F063F840A38C
:10409000D3E9002315F0A8FE22462B4616F05AF865
:1040A0003DA3D3E9002315F09DFE22462B4616F0D2
:1040B00051F83BA3D3E9002315F096FE22462B4688
:1040C00016F048F838A3D3E9002315F08BFE2246FA
:1040D0002B4616F03FF836A3D3E9002315F084FEF3
:1040E0002B46224616F036F8374B9845CDE90001AD
:1040F00097DD364B98453EDCA8F5001300220020E2
:1041000030499046994615F06DFECDE90201002236
:104110002B4B2046294616F01DF842464B4615F01B
:1041200061FEDDE90023804689462046294616F0D7
:1041300011F8524604460D465B463046394616F0A5
:1041400009F802460B462046294615F04BFE02466A
:104150000B464046494615F045FE02460B46DDE952
:10416000020115F03FFE05B0BDE8F08F15490020B3
:1041700005B0BDE8F08F9FED107B4FF000088DED8E
:10418000027BDFF84C90C2E7D43888BEE9FAA8BDBC
:10419000C4B1B4BD9EEE213EAD529C804F7E923E96
:1041A0009015CB19A001FA3E7751C1166CC1563F4C
:1041B0004C5555555555A53F000000000000E73F00
:1041C0000000E03F0000F03F3233D33F0000E93F02
:1041D0000000D23F000000002DE9F04FADF5197D41
:1041E000BE4CA29EBE4D54F826600793D41E85FB9C
:1041F0000475E417C4EBA50424EAE4741D46631CAB
:10420000A3EB8303013D02EBC303059373190496EB
:104210000994019503900B91A4EB05071AD43B4434
:10422000002400255E1C0DF18008DDF88C9208E06A
:1042300059F8270015F024FF0137B742E8E80201DA
:1042400008D0002FF4DA013720462946B742E8E8C3
:104250000201F6D1049B002B079B4FEAC303029394
:104260002ADB039A20A902EB030801EB0309049B54
:1042700072AA02EBC30B0DF5E07A019B002B4FF005
:1042800000064FF0000711DB039C4D4675E9022341
:10429000F4E8020115F05EFF02460B46304639464F
:1042A00015F0A2FD444506460F46EFD1EAE8026745
:1042B000DA4509F10809E0D1DDE902040499204456
:1042C0008B0082460BA8A3F10802C31808930CAB1D
:1042D00013440A938B4698AB03EBCB03BBF1000F5F
:1042E00053E9284529DD70AB03EBCB080DF130090C
:1042F00000227C4B2046294615F02CFF16F0DAF9F7
:1043000015F0BEFE0022784B06460F4615F022FF40
:1043100002460B462046294615F064FD16F0CAF900
:1043200078E9022349F8040B3946304615F05CFD64
:1043300070AB984504460D46DAD1DDF8149020465E
:1043400029464A4601F030F800224FF07F530446D8
:104350000D4615F0FFFEFCF7A7FD0022634B15F09C
:10436000F9FE02460B462046294615F03BFD0D4658
:10437000044616F09FF9804615F082FE0B46024671
:104380002946204615F02EFD4B46002B06460F46CB
:1043900040F3E1800BF1FF320CA9C9F1180351F889
:1043A000225045FA03F101FA03F30CA8EB1A40F886
:1043B0002230C9F11705884443FA05F5002D2CDD9C
:1043C000BBF1000F08F1010840F381820C9C002C26
:1043D00040F0A780BBF1010F0AD00CA9012251F8CF
:1043E000044F531C002C40F09E809B451A46F6D18A
:1043F000059B002B0EDD012B00F0D980022B09D18B
:104400000BF1FF320CAB0CA953F82230C3F31503A8
:1044100041F82230022D00F0AF8000220023304608
:10442000394616F0FFF8002800F05382049B0BF188
:10443000FF394B4510DC0BF180430CAA013B089877
:1044400002EB8303002253F80419834242EA01027B
:10445000F9D1002A40F0B680049B0CAA013B52F827
:104460002330002B40F0A1800A9A012352F804194E
:1044700001330029FAD05B440BF1010999450693F9
:104480004CDC099A079909EB020801EB0B0508F1CE
:10449000804802EB030BA39B08F1FF3803EB88086D
:1044A00070AB03EBC909A39B20A903EB8B0301EBC2
:1044B000C505029358F8040F15F0E2FD0B4601996B
:1044C0000246002905F1080BC5E900234FF000065C
:1044D0004FF000071CDB039C0CE000BF64CD010023
:1044E000ABAAAA2A0000703E0000704100002040E4
:1044F00075E90223F4E8020115F02CFE02460B4692
:104500003046394615F070FC544506460F46EFD14B
:10451000029B9845E9E802675D46CBD1DDF818B00B
:10452000D9E6012300220CA9C4F180749B4541F80F
:1045300022400EDD51F8232001EB8B0001EB8303B9
:104540006FF07F4100E01A688A1A43F8042B834217
:10455000F9D101244CE706D10BF1FF330CAA52F834
:104560002350ED152AE700227B4B16F079F800283E
:1045700040F0A381054650E732463B46002077498C
:1045800015F030FC06460F46002C3FF446AF059A66
:104590007249002000F008FF02460B4630463946BB
:1045A00015F020FC06460F4637E7012363E70BF1C1
:1045B000FF320CAB0CA953F82230C3F3160341F8B9
:1045C000223027E70CAB059A53F82930183ACDE989
:1045D000068505926BB909F18043013B0CA901EBFB
:1045E000830353F8041909F1FF39183A0029F8D068
:1045F0000592059A5949002000F0D6FEB9F1000F46
:1046000004460D46C0F2C0814FEAC90370AA02EB0E
:10461000030808930CAB03EB8906DFF844B14FF0B5
:10462000000A08F10807043656F8040D15F028FDB5
:1046300022462B4615F08EFD5B4667E90201524685
:104640002046294615F086FD0CAB9E4204460D46D9
:10465000EAD148AB03930193CDF8149009F101031B
:10466000DDF810900293C3464FF0000AB9F1000F35
:10467000C0F22A81DFF8EC805D4635A3D3E9002340
:1046800000260027002403E0544510DCF8E802234C
:10469000F5E8020115F05EFD02460B46304639464C
:1046A00015F0A2FB0134A14506460F46ECDA019B4A
:1046B000E3E802670193029B0AF1010A9A45ABF114
:1046C000080BD3D1A29BDDF81490032B39D8DFE877
:1046D00013F0D900060006004D0048AB0393B9F172
:1046E000000F4FF000004FF0000109DB039D05EBC8
:1046F000C904083474E9022315F076FBA542F9D108
:10470000079B002B40F01E810B9BC3E900010B4669
:1047100003990246D1E9000115F064FBB9F1000FDD
:104720000CDD4AAD01240134F5E8022315F05CFBF1
:10473000A145F8DA079B002B40F014810B9BC3E9DD
:104740000201069B03F007000DF5197DBDE8F08F0F
:1047500000000040FB21F93F0000E03F0000F03F77
:104760000000703EF0B4010048AB0393B9F1000FB4
:1047700040F32781039ACDF810904FEAC9030193C3
:10478000D318D3E900AB09F10053013B02EBC90890
:104790000293914678E9026752465B4630463946B5
:1047A00015F022FB04460D4602460B4630463946BC
:1047B00015F018FB52465B4615F016FBC145A246A4
:1047C000AB46C8E90201C8E90045E3D1DDF8109025
:1047D000B9F1010F40F3F580019B039A029913444C
:1047E000C900D3E9006701F1080A019192440DF56F
:1047F000947B7AE9028932463B464046494615F0A9
:10480000F3FA04460D4602460B464046494615F06B
:10481000E9FA32463B4615F0E7FAD34526462F46DD
:10482000CAE90201CAE90045E3D1019C039B1034A7
:10483000002000211C4403F1100574E9022315F047
:10484000D3FAA542F9D1039C079ED4E90023D4E909
:104850000245002E00F08A8003F1004701F1004379
:104860000B99C1E90403069B2646944605F10044D2
:1048700003F00700C1E900C7C1E902640DF5197D25
:10488000BDE8F08F089C039D0834002000212C44D3
:1048900074E9022315F0A8FAA542F9D1079B13B1D8
:1048A00001F1004319460B9BC3E90001069B03F08D
:1048B00007000DF5197DBDE8F08FBBF1000F08F181
:1048C000010874DD022581E500260027EFE60024BB
:1048D0008EE5CDE90685059D304639466A4200F0F1
:1048E00063FD0022384B06460F4615F0B9FE00B3B3
:1048F0000022364B3046394615F02CFC15F0DAFE16
:10490000044615F0BDFB00222F4B15F023FC0B468F
:1049100002463946304615F065FA15F0CBFE0BF12C
:1049200001090CAB183543F82B00059543F82940D5
:104930005FE63046394615F0BDFE0CABD94643F86C
:104940002B0056E60B9C01F10043C4E900030B4623
:1049500003990246D1E9000115F044FAB9F1000FBC
:104960003FF7DFAE01F100431946E7E60B9EC6E9CB
:104970000023069BC6E9040103F00700C6E90245CF
:104980000DF5197DBDE8F08FA29B032B3FF6D9AE44
:1049900001A252F823F000BFA9490000DB46000045
:1049A000DB460000694700000020002176E7324620
:1049B0003B460020064915F015FA022506460F462B
:1049C0002BE5002000213EE7000070410000703E12
:1049D0000000F03F000000002DE9F04F21F00046FC
:1049E000B6F1795F85B004460D469046994604DAE3
:1049F00015F060FE002800F0858022462B462046F8
:104A0000294615F0A7FB06460F4602460B462046F0
:104A1000294615F09FFB41A3D3E9002382468B462C
:104A20003046394615F096FB3EA3D3E9002315F036
:104A3000D9F932463B4615F08DFB3CA3D3E9002360
:104A400015F0D2F932463B4615F084FB39A3D3E981
:104A5000002315F0C7F932463B4615F07BFB37A320
:104A6000D3E9002315F0C0F90E9BCDE900019BB3FB
:104A70000022294B4046494615F06CFBDDE9002336
:104A8000CDE902015046594615F064FB02460B463B
:104A9000DDE9020115F0A6F932463B4615F05AFB56
:104AA00042464B4615F09EF919A3D3E9002306466A
:104AB0000F465046594615F04DFB02460B46304610
:104AC000394615F091F902460B462046294615F065
:104AD00089F905B0BDE8F08F02460B4630463946ED
:104AE00015F038FB0AA3D3E9002315F07BF95246F1
:104AF0005B4615F02FFB22462B4615F075F905B0E5
:104B0000BDE8F08F2046294605B0BDE8F08F00BF14
:104B1000495555555555C53F0000E03F7CD5CF5A06
:104B20003AD9E53DEB9C2B8AE6E55A3E7DFEB1572E
:104B3000E31DC73ED561C119A0012A3FA6F8101197
:104B40001111813F000000002DE9F04FC04C21F011
:104B5000004687B0A64282468B460F46CDE9002329
:104B60001ADC15F0A7FD00283FD1109B52460133F7
:104B70001343334300F0B781109B012B00F0C08139
:104B80005B460020B34915F00FFC04460D46204655
:104B9000294607B0BDE8F08FAF4B9E4225DD0029C6
:104BA00009DADDE90045224605F10043CDE900239D
:104BB0000BF100418B4652465B4685A1D1E90001CD
:104BC00015F010F9DDE9002304460D4682A1D1E974
:104BD000000115F007F99FED827B22462B468DEDF3
:104BE000007B15F001F982468B4652465B465046E3
:104BF000594615F0AFFA02460B468046894615F035
:104C0000A9FA424604460D464B465046594615F011
:104C1000A1FA75A3D3E90023CDE902012046294674
:104C200015F098FA72A3D3E9002315F0DDF82246B7
:104C30002B4615F08FFA70A3D3E9002315F0D4F8B2
:104C400022462B4615F086FA6DA3D3E9002315F012
:104C5000CBF822462B4615F07DFA6BA3D3E900234F
:104C600015F0C2F822462B4615F074FA68A3D3E972
:104C7000002315F0B9F842464B4615F06BFA66A3CF
:104C8000D3E90023CDE904012046294615F062FA54
:104C900063A3D3E9002315F0A7F822462B4615F0AD
:104CA00059FA61A3D3E9002315F09EF822462B465A
:104CB00015F050FA5EA3D3E9002315F095F82246CB
:104CC0002B4615F047FA5CA3D3E9002315F08CF8C6
:104CD00022462B4615F03EFA59A3D3E9002315F0DE
:104CE00083F802460B46DDE9040115F07DF8DDE9A5
:104CF000022315F02FFADDE9004522462B4615F078
:104D000073F842464B4615F025FA22462B4615F01D
:104D10006BF84DA3D3E9002304460D46DDE90201FB
:104D200015F018FA22462B4615F05EF80B4602469F
:104D3000804689465046594615F056F8464B9E42E5
:104D400004460D4600F38C80109B012B3BD002469D
:104D50000B4600203F4915F027FB002406460F466E
:104D60002046294652465B46CDE90067CDE902015F
:104D7000009415F037F8DDE900AB02460B464046DB
:104D8000494615F02FF852465B4615F0E3F95246B6
:104D900004460D465B46DDE9020115F0DBF9002211
:104DA0002E4B15F021F802460B462046294615F0F9
:104DB0001BF832463B4615F0CDF952465B4615F0DE
:104DC00013F804460D462046294607B0BDE8F08F8B
:104DD000182D4454FB21E93F075C143326A6813C7F
:104DE0000000000000000000D47ABF74702AFB3E6F
:104DF000E9A7F0320FB8123F68108D1AF726303F3E
:104E00001583E0FEC8DB573F93846EE9E326823FBB
:104E1000FE41B31BBAA1AB3F735360DBCB75F3BE4E
:104E2000A69237A0887E143F0165F2F2D844433F32
:104E3000280356C9226D6D3F37D60684F464963F29
:104E40007AFE10111111C13F635555555555D53F87
:104E5000FFFF2F3E0000F0BF2794E53F0000F03F2A
:104E6000109815F00DF92246CDE900012B46204699
:104E7000294615F06FF9DDE90023CDE9020120464E
:104E8000294614F0B1FF02460B46DDE9020115F098
:104E90008BFA42464B4614F0A5FF02460B4650469D
:104EA000594614F09FFF02460B4614F09DFF024640
:104EB0000B46DDE9000114F095FF0446B81700F039
:104EC0000200C0F101000D4615F0DAF802460B466B
:104ED0002046294615F03EF904460D46204629464F
:104EE00007B0BDE8F08F5046594612F02DFF02463C
:104EF0000B460020044915F057FA04460D4662E7B8
:104F000054465D465FE700BF0000F03F0000000030
:104F10002DE9F04FCC4A21F00043934285B0824600
:104F20008B460C4620D9C94A934200F2D780002C08
:104F300080F2A481ACA3D3E900235046594614F073
:104F400053FF0022002315F077FB002840F0D180AA
:104F5000A7A3D3E900235046594615F0FBF80246B3
:104F60000B460020BA4994E1BA4A934200F2E58028
:104F7000B94A934240F22E81002301930022B74B9D
:104F80005046594615F0E6F806460F4602460B46CF
:104F90005046594615F0DEF897A3D3E9002304469E
:104FA0000D4615F0D7F896A3D3E9002314F01CFFA3
:104FB00022462B4615F0CEF893A3D3E9002314F034
:104FC00011FF22462B4615F0C5F891A3D3E9002323
:104FD00014F00AFF22462B4615F0BCF88EA3D3E945
:104FE000002314F0FFFE22462B4615F0B3F80022F2
:104FF0009B4B14F0F9FE8046894602460B4630462C
:10500000394615F0A7F802460B460020954914F0E2
:10501000E9FE064602460B460F464046494614F056
:10502000E1FE3246804689463B465046594615F0D9
:1050300091F802460B4600208B4914F0D3FE02463D
:105040000B464046494615F0AFF922462B4615F06F
:1050500081F8019E02460B46002E4DD0DDE9026725
:1050600032463B4614F0BEFE52465B4615F072F8DF
:1050700032463B4614F0B6FE2B46224614F0B2FEF2
:10508000019B013306460F4600F02381019B012B53
:105090007BD0019A531C392B4FEA025500F228812C
:1050A000019A132A40F35581019BC3F57F740334A1
:1050B0000022230514F098FE02460B46504659463E
:1050C00014F090FE0022664B14F08EFE824605EB33
:1050D000010B5046594605B0BDE8F08F634A934234
:1050E0001BD9C1F313030343024640F01281002988
:1050F000EFDA00205E490DE05046594615F02AF8D7
:1051000022462B4614F06EFE02460B465046594688
:1051100014F068FE05B0BDE8F08F41A3D3E9002389
:1051200015F0A8FA00283FF402AF3FA3D3E900230B
:105130001046194615F00EF8ECE74E4A934200F27D
:10514000EC8000293AA3D3E9002339DA14F04CFEAD
:1051500039A7D7E900674FF0FF33804689460193AE
:1051600032463B464046494614F03CFE02460B465A
:1051700082468B464046494614F034FE32463B4652
:1051800014F030FECDE90201F8E600223A4B504619
:10519000594615F051FA002800F0CC805046594687
:1051A00000222E4B14F020FE02460B4630463946B4
:1051B00014F018FE00224FF0404314F0CBFFA9E793
:1051C00014F010FE01238046894601931CA7D7E9FD
:1051D0000067C5E714A3D3E9002314F005FE0246D7
:1051E0000B468FE7AFF3008059F3F8C21F6EA5019D
:1051F000FE822B654715F73F2DC3096EB7FD8ABEAA
:105200003952E686CACFD03EB7DBAA9E19CE143FEC
:105210008555FE19A0015A3FF41011111111A13F3B
:10522000EF39FAFE422E86409C7500883CE4377EBA
:105230000000E0FE422EE63F763C7935EF39EABDCC
:10524000763C7935EF39EA3D79684340412E864016
:105250000000E0BF422ED63FFFFF8F3C0000E03F42
:105260000000F03F0000084000001840FFFFEF7F03
:105270000000F0BFB1A2F03F0000D0BF44A3D3E9CB
:1052800000235046594614F065FF02460B460020A5
:10529000414914F0A9FD15F00DFA019014F0F0FE4B
:1052A00037A3D3E9002306460F4614F053FF024606
:1052B0000B465046594614F095FD33A3D3E900231D
:1052C000804689463046394614F044FF06460F466C
:1052D00046E702460B465046594614F083FD00222D
:1052E0002D4B14F037FF00222B4B14F07BFD11E700
:1052F00052465B4614F076FD02460B4600202749D5
:1053000014F070FD6B1819460022244B14F06AFD4E
:1053100000E70B4614F068FDFCE61DA3D3E900236B
:1053200014F018FF002C02460B464FF00000AFDAD5
:105330001B49AEE732463B465046594614F052FDF3
:1053400002460B4614F050FD0022144B14F04CFDA5
:10535000E0E64FF4001343FA02F452465B4614F0C1
:1053600041FDC4F17F57002607F5401702460B4662
:105370003046394614F036FDA8E600BFAFF3008092
:105380000000E0FE422EE63F763C7935EF39EA3DFB
:10539000FE822B654715F73F0000E03F0000F03F1D
:1053A0000000E0BF00000000F8B5C1F30A53044656
:1053B0000D460E4617460BBB21F00046034633430D
:1053C0001BD0354B002214F0C5FE344B9F420446DF
:1053D0000D4635DBC1F30A530E46363B3B4440F2E3
:1053E000FE72934232DC002B11DD26F0FF4626F4DC
:1053F000E00646EA035520462946F8BD40F2FF7212
:105400009342EBD102460B4614F0EEFCF8BD13F1CB
:10541000350F28DA4CF250339F4222462B460ADDE4
:1054200019A1D1E9000114F04FFC17A3D3E900231F
:1054300014F090FEF8BD16A1D1E9000114F044FC6F
:1054400013A3D3E9002314F085FEF8BD22462B46B2
:105450000DA1D1E9000114F037FC0BA3D3E900231F
:1054600014F078FEF8BD26F0FF4626F4E006363349
:1054700046EA0355204629460022094B14F06AFEED
:10548000F8BD00BFAFF300809C7500883CE4377E18
:1054900059F3F8C21F6EA50100005043B03CFFFF56
:1054A0000000903C10B5054C237833B9044B13B180
:1054B0000448AFF300800123237010BD10050020C5
:1054C00000000000BCCE010008B5034B1BB103492E
:1054D0000348AFF3008008BD000000001405002061
:1054E000BCCE0100154B002B08BF134B9D46A3F506
:1054F000803A00218B460F461348144A121A09F0CD
:10550000CDF80F4B002B00D098470E4B002B00D04E
:1055100098470020002104000D000D48002802D00B
:105520000C48AFF3008014F005FC2000290005F0C2
:10553000CDF814F0EBFB00BF0000080000000220D3
:10554000000000000000000000040020A80C002063
:10555000000000000000000070B504460E4600F098
:1055600047FA88B103681B6B05469847082C0CD096
:10557000A4F10903012B14D93246214610230D2032
:10558000BDE8704004F07AB870BD2B6828469B6A6D
:1055900098470228F0DC2B6828465B6A042198476C
:1055A000EAE72B6828469B6A98470528E4DC2B68C5
:1055B00028465B6A08219847DEE700BF38B52DED25
:1055C000028B054600F014FA044640B103681B6BD9
:1055D0009847032D03D8DFE805F02F363D06BDECD4
:1055E000028B002038BD20460CF0B8FC07EE900A74
:1055F0002046F8EEE78A0CF0B9FC07EE900A204648
:10560000B8EEE78A0CF0BAFC68EE087A07EE100AEA
:10561000E8EEA87AB8EEC77AE7EE077AF5EE407AB8
:10562000F1EE10FAB1EEE78A1BD4FDEEC87ABDECBC
:10563000028B17EE900A38BDBDEC028B2046BDE808
:1056400038400CF08BBCBDEC028B2046BDE83840E6
:105650000CF08CBCBDEC028B2046BDE838400CF051
:105660008DBC17EE900A13F01FF9DEE738B504463B
:1056700000F0BEF958B103681B6B0546984744B16A
:10568000012C04D12846BDE838400CF0B1BC002004
:1056900038BD2846BDE838400CF086BC10B504463D
:1056A00000F0A6F928B1036821465B6ABDE8104006
:1056B000184710BD0048704716FCFFFF704700BF39
:1056C00010B5034B036004460CF0A8FC204610BD47
:1056D000E0C2010010B5054B036004460CF09EFCCF
:1056E000204615F0BFFA204610BD00BFE0C2010001
:1056F0002DE9F041032184B00546512001F0DAFC88
:10570000DFF8E8C2AE4B044604F00F06C4F30317FB
:1057100014F4807408BF6346AA4831463A460BF039
:10572000D9FB221C18BF012231463B4628460EF009
:10573000E3FC0023AB60A4480BF0CCFB4FF0FF313F
:10574000032001F0B7FCC0B204F052FA4FF0FF3171
:105750000446022001F0AEFCC0B204F049FA002C6D
:105760003BD0002839D00146204604F063F80646B5
:1057700000284DD04FF0FF31462001F09BFC32282D
:1057800004464ED04BDD382800F0B18068285FD148
:105790004FF0FF31012001F08DFCC0B204F028FA77
:1057A00080465C2015F067FA052301934246009479
:1057B00031462B4607460DF0C9FCAF603B683846C2
:1057C000DB6A9847A86803681B6B98477F480BF013
:1057D00081FB284604B0BDE8F0817D480BF07AFBE0
:1057E0004FF0FF31192001F065FCC0B204F000FA5F
:1057F0004FF0FF310446182001F05CFCC0B204F009
:10580000F7F90146204604F015F806460028B1D104
:1058100070480BF05FFB284604B0BDE8F0813028EB
:1058200016D14FF0FF31012001F044FCC0B204F06A
:10583000DFF98046502015F01EFAA4B20746052372
:1058400001934246009431462B460DF029FAB4E705
:1058500001243268CDE900440023D76AAB600F22EF
:105860000DF10F0332213046B847002800F0858043
:105870003368CDE900440F22DF6A30210DF10F03B8
:105880003046B84700284AD03368CDE900440D229D
:10589000DF6A38210DF10F033046B847002872D077
:1058A0003268CDE900440DF10F03D76A68217522F3
:1058B0003046B847002845D1682147480BF00AFB1D
:1058C0004FF0FF31204601F0F5FBC0B204F090F933
:1058D00080465C2015F0CFF905246823CDE900341B
:1058E000424631462B4607460DF030FC65E74FF047
:1058F000FF31012001F0DEFBC0B204F079F98046EF
:10590000502015F0B8F905230746019342462B466F
:10591000009431460DF0FAFA304B3B604DE73021F0
:105920002D480BF0D7FA30244FF0FF31012001F061
:10593000C1FBC0B204F05CF98046502015F09BF921
:1059400007467CE726480BF0C5FAAF68002F7FF4C6
:1059500035AF4FF0FF31032001F0ACFBC0B204F0D3
:1059600047F930B11F480BF0B5FA284604B0BDE83E
:10597000F0811D480BF0AEFA4DE7322116480BF0CE
:10598000A9FA3224D0E7382113480BF0A3FA4FF0DC
:10599000FF31204601F08EFBC0B204F029F98046A9
:1059A000502015F068F9052438230746CDE9003466
:1059B00042462B4631460DF0A9FA084B3B60FCE607
:1059C00078B5010088B50100A8B5010068B60100EE
:1059D000B8B50100CCB50100F8B5010040B5010033
:1059E000E4B501000CB6010048B6010080B5010025
:1059F00038B5114C23680BB1986838BD4FF0FF31B2
:105A0000012001F057FBC0B204F0F2F840B10C20C5
:105A100015F031F90546FFF76BFE2560A86838BD23
:105A20004FF0FF31032001F045FBC0B204F0E0F875
:105A30000028ECD138BD00BF2C05002008B501F0CE
:105A40006BFCFBF7D5FCBDE8084001F0C5B900BF11
:105A500008B501F061FCFBF73BFDBDE8084001F033
:105A6000BBB900BF08B501F057FC12F0E3F9BDE87F
:105A7000084001F0B1B900BF08B501F04DFC12F0CB
:105A8000D5FDBDE8084001F0A7B900BF08B501F099
:105A900043FCFBF7BDFCBDE8084001F09DB900BF29
:105AA00008B501F039FC12F0F7FBBDE8084001F041
:105AB00093B900BF08B501F02FFCFAF745FFBDE828
:105AC000084001F089B900BF08B501F025FC12F0CB
:105AD00039FBBDE8084001F07FB900BF70B5049EF6
