:020000040801F1
:10000000008001209D560208A97D0208D99A0108A6
:100010003D0603083D0603083D06030800000000F6
:10002000000000000000000000000000AD7D02089C
:10003000B17D020800000000B57D0208B97D02080C
:100040003D0603083D0603083D0603083D06030878
:100050003D0603083D06030855730208597302085C
:100060005D7302086173020865730208D17A0208A1
:10007000E17A0208F17A0208017B0208117B02088A
:10008000217B0208317B02083D0603083D06030878
:100090003D0603083D0603083D0603086973020890
:1000A0003D0603083D0603083D0603083D06030818
:1000B000D15D0208D95D0208E15D02083D06030832
:1000C0003D0603083D0603083D060308E1780208E3
:1000D000ED7802083D0603083D0603083D060308C7
:1000E0006D7302083D0603083D0603083D0603083C
:1000F0003D0603083D0603083D060308417B020850
:100100003D0603083D060308E95D0208F978020888
:100110003D0603083D0603083D0603083D060308A7
:10012000517B0208617B0208717B0208817B020817
:10013000917B02083D0603083D0603083D060308BF
:100140003D0603083D0603083D060308116002084A
:10015000A17B0208B17B0208C17B02083D060308AF
:100160003D0603083D0603083D0603083D06030857
:100170003D0603083D0603083D0603080000000095
:100180003D0603083D0603083D0603083D06030837
:10019000057902083D0603083D0603083D060308ED
:1001A0003D0603083D0603083D0603083D06030817
:1001B0003D060308000000002DE9F04F85B00391D3
:1001C0000778A7F10903042B044607F07F0200F12A
:1001D0000100F5D9202AF3D02B2F04BF67780446FD
:1001E0002D2F75D09FED427B8DED007B4FF00008E9
:1001F0004FF000099FB34FF0000C25464FF0000A66
:10020000DFF8FCB0644619E01CF00AFE804689461F
:1002100030461CF09BFD42464B461CF04BFC5246C0
:10022000804689465B46DDE900013CB31CF022FFB5
:10023000CDE90001A44615F8017F7FB1A7F1300692
:10024000092E52465B4640464946DDD9CCB92E2F91
:1002500017D115F8017F0124002FEFD12C4642461B
:100260004B46DDE900011CF0DBFD80468946039B1F
:10027000404649461C6005B0BDE8F08F4FF0010CC8
:10028000D9E72C46BCF1000F29D042464B46DDE9A8
:1002900000011CF0C5FD07F0DF07452F80468946A9
:1002A000E5D10399681C0A221FF0FAFD14490246A1
:1002B00000201DF065F902460B46404649461CF0F9
:1002C000AFFD804689464046494605B0BDE8F08FFF
:1002D0009FED097B67788DED007B013486E7DFF8C1
:1002E00024904FF000084046494605B0BDE8F08F25
:1002F000000000000000F03F000000000000F0BF20
:10030000000024400000F87F2DE9F0470023144648
:100310000022804689461CF0F5FF28B109F1004310
:1003200099462D232370013400220023404649467C
:100330001CF0DEFF28B13022002322706370BDE87C
:10034000F087404649461DF017FF1DF019F873A3CA
:10035000D3E900230746494640461CF0D3FF002856
:100360004ED170A3D3E90023404649461CF0E8FF74
:10037000002845D10E2F07F1010540F3B980A7F100
:100380000E063246002062491DF0FAF802460B467E
:10039000404649461CF06EFE00225E4B1CF08AFB74
:1003A0001DF02AF9002DA7F10F0E4FF0010C4DDDC5
:1003B000594FDFF87881012245F6F3294FF02E0AD4
:1003C000494508BF40454FF030030AD3B0EB080061
:1003D00061EB0901494508BF404503F10103F5D22E
:1003E000DBB2237050EA010304F101084AD19542BF
:1003F00052DD0132102A4FD0444677E90289DFE707
:10040000002F33DB3A46002041491DF0B9F802467F
:100410000B46404649461CF02DFE3BA3D3E9002382
:100420008046894601250026404649461CF0F8FCD6
:100430000022384B1CF03EFB1DF0DEF8002DBC46C0
:100440004FF0FF3E37464FF00006B1DC2346302226
:100450004FF02E0803F8022B84F80180FC4345D0AE
:100460001C4403F8012BA342FBD1A1E77A420020F0
:1004700027491DF085F802460B46404649461CF0C8
:10048000CFFCCAE7954202F1010204BF84F801A043
:1004900004F10208102AAFD16EB14246302102F8B1
:1004A000011BC2F1010373444344002BF7DC2EEA25
:1004B000EE7301339844BCF1010F12D0BCF1000F70
:1004C0004FF0650388F80030C5BF2B2388F8013052
:1004D00008F1010108F102016046BDE8F04710F0A3
:1004E000F9BB002388F80030BDE8F0871C465FE7C1
:1004F000C7F10E02002006491DF042F83E460246B2
:100500000B46012790E700BF0000901EC4BCD642F6
:10051000000024400000E03F700E03088DEDB5A000
:10052000F7C6B03E50EFE2D6E41A4B4400407A10D2
:1005300070B54FF0FF3006F0F3F804466FF07F40DF
:1005400006F0EEF8064620461CF0F0FB00220C4BAD
:100550001CF066FC044630460D461CF0E7FB06A383
:10056000D3E900231CF086FD02460B4620462946AF
:100570001CF0A0FA70BD00BF0000E0DFFFFF6F437A
:100580000000F03D000000002DE9F04F1D461389EA
:10059000AB4288BF536885B004468CBF53F8250032
:1005A000002090468A4606F02FFD0022904B1CF05A
:1005B00037FC1CF0E5FEB8F808206B1C9A4288BF97
:1005C000D8F8042006468CBF52F82300002006F01D
:1005D0001BFD0022864B1CF023FC1CF0D1FEB8F85A
:1005E00008300235AB4288BFD8F8043007468CBFCC
:1005F00053F82500002006F007FD002EC4E900672F
:1006000040F3E280002F40F3DF8071A3D3E90023A1
:10061000002584F828501DF0D3FC002200238046DA
:1006200089461CF06FFE40B14046494668A3D3E9B5
:1006300000231CF03FFA8046894667A3D3E90023D4
:10064000404649461CF07CFEC0B165A3D3E90023B7
:10065000404649461CF060FE80B1012340464946B1
:1006600084F8283060A3D3E900231CF023FA58A3B0
:10067000D3E900231DF0A4FC8046894600225D4B8F
:10068000404649461CF0CCFB1DF0D2F901F1004375
:1006900000221946564B1CF0C3FB1CF071FE494664
:1006A000054640461DF080F90022514B1CF0B8FB76
:1006B0001CF066FEDAF804304F49B3F80CB0B3F81A
:1006C0000AA0A56007FB0BF303EB010806FB0AF683
:1006D000019388FB05234FEA124C00960E444CEA26
:1006E000034C06EA010383FB009A06EB0C0E0EEAAC
:1006F000010ED346CA468EFB00675246CDE902671B
:10070000120C42EA0B42DDE902AB0CEA010C8CFB55
:1007100000674FEA164956460A40360C46EA0B4631
:1007200049EA074982FB05AB5F46C144B0445646DF
:10073000CDE90267039FE060360C09EA010908EA87
:10074000010846EA074689FB05AB334488FB05569A
:10075000CDE9025655462D0C45EA0B45DDE902ABC5
:100760000B40AC4403EAE3770CEA010C554623EA5C
:10077000E37367454FEA154502EAE276A8BF67468C
:1007800045EA0B45634522EAE272B8BF6346AE44D0
:100790004E450EEA010EA8BF4E464A45B8BF4A462E
:1007A0007745A8BF77467345B8BF73464645A8BF8F
:1007B0004646C4E905634245B8BF424600980199E0
:1007C000206261622761E261204605B0BDE8F08FDA
:1007D000EA2E4454FB211940F4D64354FB21F93F3F
:1007E000320D337F7CD91240EA2E4454FB2109405C
:1007F0000000F0400000E03F0000FFFF00000000AC
:100800002DE9F04F2DED028B044683B0C0681CF03B
:100810009DFA8046206989461CF098FA82466069F4
:100820008B461CF093FA024601F1004306460F4640
:10083000404649461DF056FB1CF0EAFDE0620546C5
:100840001DF018FA019028461DF0D8F9019B0546C5
:1008500018461CF08DFA42464B461CF0E1FA8046E1
:10086000284689461CF084FA32463B461CF0D8FAEA
:1008700002460B46404649461CF01AF902460B4612
:10088000504659461DF02EFB1CF0C2FD002208EE1A
:10089000100A0023304639461CF052FD28B3B5EE4D
:1008A000C08AF1EE10FA1CDD11A7D7E9006718EE37
:1008B000100A1CF05DFA02460B46304639461CF021
:1008C000F7F832463B461CF0F5F81CF0A1FDA0629B
:1008D000E38843F00203E38003B0BDEC028BBDE884
:1008E000F08F05A7D7E90067E1E784ED0A8AEFE713
:1008F000EA2E4454FB21F93FEA2E4454FB21F9BF70
:1009000008B511F055FCDFED0C7A07EE100A67EE22
:10091000277A17EE900A1CF02BFA05A3D3E90023DF
:100920001CF0A8FB1CF02CFD08BD00BFAFF300803D
:10093000EA2E4454FB2119400000B443000000009B
:1009400008B511F049FCDFED0C7A07EE100A67EEEE
:10095000277A17EE900A1CF00BFA05A3D3E90023BF
:100960001CF088FB1CF00CFD08BD00BFAFF300803D
:10097000EA2E4454FB2119400000B443000000005B
:100980004F4A21F0004393422DE970430D4604463F
:100990004DDC4C4A93420E460FDC45A3D3E90023BD
:1009A0001CF088F80022484B1CF0CAFC002854D0E8
:1009B0002B4620461946BDE87083444A934240DCEA
:1009C000B3F1804F49DD1CF0EBFF2246804689469B
:1009D0002B46204629461CF023FA00223A4B1CF0F5
:1009E00069F81EF071F842464B461CF063F8024667
:1009F0000B46002034491CF03DFB424604460D46A0
:100A00004B46404649461CF055F80B4602462946DF
:100A100020461CF04FF801F0C7FE04460B46002E9E
:100A20000BDC03F1004320461946BDE870830B46FA
:100A300002461CF03FF804460B4620461946BDE826
:100A400070831CF0ADFF01F0AFFE1BA3D3E90023C0
:100A50001CF030F804460B46E1E722462B462046C0
:100A600029461CF0DDF980468946204629461CF0BF
:100A700097FF00220446144B0D46404649461CF0A1
:100A800019F81EF021F800220F4B1CF013F8024653
:100A90000B46404649461CF0EDFA22462B461CF018
:100AA00009F800F0B1FA04460B46B8E7AFF300804E
:100AB0009C7500883CE4377EEF39FAFE422EE63F13
:100AC000FFFFEF7FFFFF2F3E0000F03F0000B0412F
:100AD0002DE9F84FB84B21F000469E420D468A465C
:100AE00004460EDDB54B9E4200F3B08000F0AB80B3
:100AF000B34BB449B448BAF1000FC8BF1946BDE8BA
:100B0000F88FB24B9E4200F3B980A3F1DE739E4290
:100B100040F3A4804FF0FF3B22462B462046294657
:100B20001CF07EF902460B46804689461CF078F997
:100B300089A3D3E9002306460F461CF071F988A368
:100B4000D3E900231BF0B6FF32463B461CF068F9A0
:100B500085A3D3E900231BF0ADFF32463B461CF0D2
:100B60005FF983A3D3E900231BF0A4FF32463B4681
:100B70001CF056F980A3D3E900231BF09BFF3246FB
:100B80003B461CF04DF97EA3D3E900231BF092FFF6
:100B900042464B461CF044F97BA3D3E90023804630
:100BA0008946304639461CF03BF979A3D3E9002346
:100BB0001BF07EFF32463B461CF032F976A3D3E9A8
:100BC00000231BF075FF32463B461CF029F974A345
:100BD000D3E900231BF06CFF32463B461CF020F9A2
:100BE00071A3D3E900231BF063FF32463B461CF0A0
:100BF00017F902460B46404649461BF05BFF22466A
:100C00002B461CF00DF9BBF1FF3F02460B465CD0B2
:100C10006F4B704E4FEACB0B5B44D3E900231BF0C4
:100C200047FF22462B461BF043FFB34402460B46C8
:100C3000DBE900011BF03CFFBAF1000F0CDA01F117
:100C40000041BDE8F88F00283FF452AF224620460D
:100C50002B4629461BF02EFFBDE8F88F54A3D3E99D
:100C600000231BF027FF00225B4B1CF069FB0028D0
:100C70003FF450AF20462946BDE8F88F1CF090FEA7
:100C8000564B9E4204460D4625DCA3F550239E425A
:100C90004ADC02460B461BF00DFF00224E4B1BF0B8
:100CA00007FF002206460F464FF0804320462946A4
:100CB0001BF000FF02460B46304639461CF0DAF9BD
:100CC0004FF0000B04460D4626E7204629461BF050
:100CD000EFFEBDE8F88F424B9E421ADC0022414BEA
:100CE0001BF0E6FE002206460F463E4B20462946F4
:100CF0001CF096F80022384B1BF0DCFE02460B4637
:100D0000304639461CF0B6F94FF0020B04460D464A
:100D100002E702460B46002033491CF0ABF94FF0C6
:100D2000030B04460D46F7E600222B4B1BF0C0FEDA
:100D3000002206460F46284B204629461BF0BAFEE5
:100D400002460B46304639461CF094F94FF0010B31
:100D500004460D46E0E600BF11DA22E33AAD903FCB
:100D6000EB0D76244B7BA93F513DD0A0660DB13FE2
:100D70006E204CC5CD45B73FFF8300922449C23F4A
:100D80000D5555555555D53F2F6C6A2C44B4A2BF0F
:100D90009AFDDE522DDEAD3F6D9A74AFF2B0B33FD7
:100DA000711623FEC671BC3FC4EB98999999C93F4F
:100DB0009C7500883CE4377EFFFF0F440000F07F05
:100DC000FB21F93FFB21F9BF182D4454FFFFDB3F06
:100DD000980E0308780E03080000F03FFFFFF23F73
:100DE000FF7F03400000F83F0000F0BF000000005C
:100DF000C1F30A522DE9F843A2F2FF36132E0B4637
:100E00000D4604468846074621DC002E4CDB3A4A54
:100E100042FA06F901EA090202431DD034A3D3E9DC
:100E200000231BF047FE002200231CF089FA48B182
:100E3000002D04DD4FF4801343FA06F6B04428EA8F
:100E4000090500273C4629462046BDE8F883332E95
:100E500006DDB6F5806F3AD019462046BDE8F88326
:100E6000A2F213424FF0FF3929FA02F919EA000FF2
:100E7000F2D01FA3D3E900231BF01CFE00220023A5
:100E80001CF05EFA0028DDD0002D09DD142E25D0DF
:100E90000123C6F1340603FA06F6371928BF984431
:100EA00027EA09074546CDE711A3D3E900231BF044
:100EB00001FE002200231CF043FA0028C2D0002DBE
:100EC0000FDB55EA040707D000270C4DBAE70246AE
:100ED0001BF0F0FD0446C0E73D46B3E705F101080D
:100EE000DEE700274FF00045ACE700BFAFF300801E
:100EF0009C7500883CE4377EFFFF0F000000F03F48
:100F0000C1F30A522DE9F843A2F2FF36132E0B4625
:100F10000D460446884607461DDC002E3DDB384A58
:100F200042FA06F901EA0902024319D032A3D3E9D1
:100F300000231BF0BFFD002200231CF001FAD0B3F8
:100F4000002D04DA4FF4801343FA06F6B04428EA81
:100F5000090500272FE0332E06DDB6F5806F2FD070
:100F600019462046BDE8F883A2F213424FF0FF393C
:100F700029FA02F919EA000FF2D01FA3D3E90023DE
:100F80001BF098FD002200231CF0DAF998B1002D27
:100F900024DB27EA090745460DE017A3D3E9002320
:100FA0001BF088FD002200231CF0CAF918B1002DA7
:100FB0000BDB00273D463C4629462046BDE8F8832A
:100FC00002461BF077FD0446CBE725F000430D4AAF
:100FD0001F43002F18BF15460027ECE7142E08D03A
:100FE0000123C6F1340603FA06F6371928BF9844E0
:100FF000CFE705F10108CCE79C7500883CE4377E1B
:10100000FFFF0F000000F0BF2DE9F04FD84B9942D1
:1010100087B00E46074643DDD64B99428A4600F319
:10102000F680D54B994240F330810B15A3F2FF3B7C
:1010300000220023CDE902230446D04BCAF3130A51
:101040009A454AF07F5500F3158145F44015204636
:1010500029460022CA4B1BF02BFD002204460D46F8
:10106000C84B1BF0DDFE22462B461BF0D9FE804606
:10107000894627462E46CDE90089BAF1000F3AD1BC
:1010800000220023204629461CF032F9002800F0F7
:101090001D81BBF1000F40F0858100200146BAE0C0
:1010A000B94B21F000449C420A460FDD0022B74BA9
:1010B0001CF01EF9002800F0B1800022002300205F
:1010C000B3491BF0D7FF07B0BDE8F08FB14B9C428E
:1010D00040F3B180B04B1A449A4240F2D6800022CD
:1010E000A84B1BF09DFE3A4633461BF099FECDE916
:1010F00000014FF0000B00224FF08043384631468C
:101100001BF0D8FC02460B46384631461BF0B2FFB6
:1011100002460B46804689461BF082FE80A3D3E937
:10112000002304460D461BF07BFE7FA3D3E900237A
:101130001BF0C0FC22462B461BF072FE7CA3D3E9B9
:1011400000231BF0B7FC22462B461BF069FE7AA356
:10115000D3E900231BF0AEFC22462B461BF060FEB9
:1011600077A3D3E900231BF0A5FC22462B461BF0F6
:1011700057FE75A3D3E900231BF09CFC22462B46A7
:101180001BF04EFE72A3D3E900231BF093FC224612
:101190002B461BF045FEDDE9004522462B461BF0A1
:1011A00089FC42464B461BF03BFECDE90401BBF1F6
:1011B000000F00F0A88058461BF0C8FD66A3D3E9D5
:1011C0000023804689461BF02BFE65A3D3E900234C
:1011D00004460D46404649461BF022FEDDE9022347
:1011E0001BF068FCDDE904231BF064FC02460B469F
:1011F000DDE900011BF05CFC3A4633461BF058FC6D
:1012000002460B46204629461BF052FC03E00246EC
:101210000B461BF04FFC07B0BDE8F08F3A46334653
:10122000384631461BF044FC02460B461BF022FFB9
:1012300007B0BDE8F08F0022584B1BF03BFC0022AA
:1012400000231CF07DF810B1554B9C4262DD3A46FC
:101250003346384631461BF0E3FD0022494B1BF074
:10126000DFFD02460B46384631461BF021FC07B035
:10127000BDE8F08F45F40015CAF5801A20462946CE
:101280004FEAAA0A0BF1010BE3E63D4B3846314623
:1012900000221BF00FFC0B15A3F2FF3BBBF1000F6C
:1012A00004460D468A4640F3C3803A4633461BF057
:1012B000FFFB02460B46002031491BF0F9FB22469A
:1012C0002B461BF0D7FECDE90201B6E626A3D3E9F3
:1012D0000023204629461BF0A3FD02460B460020B2
:1012E00027491BF0E5FB42464B461BF099FD06469D
:1012F0000F46BBF1000F73D102460B46204629462C
:101300001BF0D6FB87E702460B46204629461BF01A
:10131000CFFBA6E7384631467DE700BFAFF300803C
:1013200044523EDF12F1C23F9FC678D0099AC33FB4
:10133000DE03CB966446C73FAF788E1DC571CC3FA8
:10134000599322942449D23F04FA97999999D93F05
:10135000935555555555E53F0000E0FE422EE63FBA
:10136000763C7935EF39EA3D555555555555E53FAC
:101370007982DA3FFFFFEF7FFFFF3F439DA006002A
:101380000000F03F0000E03FFFFFEF3F0000F0BF34
:10139000000050C3FFFF1F3E3C412D400000504362
:1013A000FFFF8F3C58461BF0D1FC27A3D3E9002355
:1013B00006460F461BF034FDDDE902231BF07AFBE5
:1013C00023A3D3E9002304460D46304639461BF0DB
:1013D00027FD02460B46204629461BF06BFB1AE709
:1013E00058461BF0B3FC1AA3D3E9002382468B4670
:1013F0001BF016FD14A3D3E900238046894650460E
:1014000059461BF00DFDDDE902231BF053FB02469C
:101410000B46304639461BF04BFB22462B461BF051
:1014200047FB02460B46404649461BF041FBF2E6AD
:101430000022094B1BF03CFB02460B463846314666
:101440001BF036FB3BE700BF763C7935EF39EA3DD0
:101450000000E0FE422EE63F0000F03F00000000EA
:1014600008B51CF00DFE04A3D3E900231BF002FE17
:1014700008BD00BFAFF30080EF39FAFE422EE63F11
:101480002DE9F043DFF8B4808BB004460D4600F040
:1014900057FF98F90030013306460F462CD02246FC
:1014A0002B46204629461BF055FF814620BB20468F
:1014B00029461CF075FA1CA3D3E900231BF040FF5A
:1014C000D0B11B4A98F90030CDF820900321CDE926
:1014D0000445CDE90245CDE9001293B1154900203C
:1014E000022BCDE9060111D11EF096FC22230360E8
:1014F000089B9BB9DDE90667304639460BB0BDE86D
:10150000F0830D4B4FF06042CDE9062368461EF094
:1015100033FB0028E8D0089B002BEBD01EF07CFCAE
:10152000089B0360E6E700BF7DF8B98FCE338640A5
:101530003C2A03080000F07FFFFFEF479A030020DA
:101540002DE9F043DFF8E4808BB004460D4600F04F
:10155000A3FF98F90030013306460F4633D02046EA
:1015600029461EF003FB70B329A3D3E900232046CC
:1015700029461BF0E5FE814650BB27A3D3E9002393
:10158000204629461BF0BEFEE8B198F90030244AF7
:10159000CDF82090042600200021022BCDE904453F
:1015A000CDE90245CDE90062CDE9060129D06846C2
:1015B0001EF0E2FA28B3089B1BB11EF02DFC089B1D
:1015C0000360DDE90667304639460BB0BDE8F083BD
:1015D000134A98F90030019203210022CDE9044515
:1015E000CDE90245009108922BB90E4B4FF06042B5
:1015F000CDE90623DBE70C490020022BCDE90601EB
:10160000D5D11EF009FC22230360D4E7AFF300809C
:10161000EF39FAFE422E864051302DD5104987C051
:10162000442A0308FFFFEF470000F07F9A030020E1
:101630002DE9F84FC44E21F00043B3420C46054655
:101640000DDD03F1404303F58013034340F0B980FF
:10165000002940F3408100200021BDE8F88FBB4EF7
:10166000B34208DCBA4A934200F3B5809CA1D1E9A9
:101670000001BDE8F88F0029C0F2708102460B46D8
:101680000020B4491BF014FA0022B34B1BF0C8FB36
:1016900004460D461DF018FA93A3D3E900238946AA
:1016A0008046294620461BF0BBFB91A3D3E90023CB
:1016B0001BF000FA22462B461BF0B2FB8EA3D3E9A7
:1016C00000231BF0F5F922462B461BF0A9FB8CA347
:1016D000D3E900231BF0EEF922462B461BF0A0FBBA
:1016E00089A3D3E900231BF0E3F922462B461BF024
:1016F00097FB87A3D3E900231BF0DCF922462B4696
:101700001BF08EFB84A3D3E9002382468B46204640
:1017100029461BF085FB82A3D3E900231BF0C8F9FF
:1017200022462B461BF07CFB7FA3D3E900231BF052
:10173000C1F922462B461BF073FB7DA3D3E900239E
:101740001BF0B6F922462B461BF06AFB0022814BA8
:101750001BF0B0F902460B46504659461BF08AFC76
:1017600042464B461BF05CFB002682468B463246C7
:101770004B46304649461BF053FB02460B4620467B
:1017800029461BF095F9324604460D464B46404625
:1017900049461BF08FF902460B46204629461BF0AE
:1017A00069FC02460B46504659461BF083F9324607
:1017B0004B461BF07FF902460B461BF07BF9BDE858
:1017C000F88F02460B461BF073F902460B461BF0DE
:1017D00051FCBDE8F88F02460B461BF021FB42A3EB
:1017E000D3E9002306460F461BF01AFB40A3D3E9BA
:1017F00000231BF05FF932463B461BF011FB3EA372
:10180000D3E900231BF054F932463B461BF008FB9A
:101810003BA3D3E900231BF04DF932463B461BF0B6
:10182000FFFA39A3D3E900231BF042F932463B46C5
:101830001BF0F6FA36A3D3E900231BF03BF932463E
:101840003B461BF0EDFA34A3D3E9002380468946DA
:10185000304639461BF0E4FA31A3D3E900231BF0EC
:1018600027F932463B461BF0DBFA2FA3D3E90023CE
:101870001BF020F932463B461BF0D2FA2CA3D3E9E9
:1018800000231BF015F932463B461BF0C9FA002233
:10189000304B1BF00FF902460B46404649461BF001
:1018A000E9FB2A4623461BF0BBFA02460B4622A15F
:1018B000D1E900011BF0FCF802460B462846214600
:1018C0001BF0F6F802460B4605A1D1E900011BF01A
:1018D000EFF8BDE8F88F1AA1D1E9000179E700BF60
:1018E000182D4454FB21F93F09F7FD0DE13D023F5E
:1018F00088B20175E0EF493F3B8F68B52882A43F6D
:101900005544880E55C1C93F7D6FEB0312D6D43FB5
:10191000555555555555C53F82922EB1C5B8B33F63
:1019200059018D1B6C06E63FC88A599CE52A004088
:101930004B2D8A1C273A0340075C143326A6913CA2
:10194000182D4454FB210940FFFFEF3FFFFFDF3F0D
:101950000000603C0000F03F0000E03F00225C4BD4
:101960001BF0A8F800225B4B1BF05AFA40A3D3E906
:10197000002304460D461BF053FA3FA3D3E900238E
:101980001BF098F822462B461BF04AFA3CA3D3E9F9
:1019900000231BF08DF822462B461BF041FA3AA398
:1019A000D3E900231BF086F822462B461BF038FAB9
:1019B00037A3D3E900231BF07BF822462B461BF00C
:1019C0002FFA35A3D3E900231BF074F822462B46E7
:1019D0001BF026FA80468946204629461DF074F8F9
:1019E0002FA3D3E9002306460F46204629461BF0C5
:1019F00017FA2DA3D3E900231BF05AF822462B46F1
:101A00001BF00EFA2AA3D3E900231BF053F8224659
:101A10002B461BF005FA28A3D3E900231BF048F856
:101A200022462B461BF0FCF90022294B1BF042F802
:101A300002460B46404649461BF01CFB32463B46DD
:101A40001BF0EEF91EA3D3E900231BF031F8324658
:101A50003B461BF02FF802460B461BF02BF80246C4
:101A60000B4619A1D1E900011BF022F8B1E600BF35
:101A700009F7FD0DE13D023F88B20175E0EF493FF6
:101A80003B8F68B52882A43F5544880E55C1C93F95
:101A90007D6FEB0312D6D43F555555555555C53F6F
:101AA00082922EB1C5B8B33F59018D1B6C06E63F3B
:101AB000C88A599CE52A00404B2D8A1C273A0340CE
:101AC000075C143326A6913C182D4454FB21094091
:101AD0000000F03F0000E03F414A91422DE9F84309
:101AE0000C46054637DD3F4A914209DD02F1795245
:101AF00091423EDD02460B461AF0DCFFBDE8F8835A
:101B000001F1404202F5801202432ED0B1F1804F24
:101B100037DC0022344B1AF0CBFF02460B4604465A
:101B20000D461AF0C7FF224606460F462B462046B2
:101B300029461BF075F902460B46304639461AF025
:101B4000B9FF1CF0C1FF22462B461AF0B3FFBDE8D7
:101B5000F843FFF759BA02460B461AF0A9FF0246AE
:101B60000B461BF087FABDE8F88300200021BDE892
:101B7000F88300F019FE18A3D3E900231AF09AFFA6
:101B8000F1E702460B461BF04BF90022164B1AF008
:101B90008FFF1CF099FF2A46804689462346284637
:101BA00021461AF087FF2A4606460F46234640463E
:101BB00049461AF07FFF02460B4600200A491BF0F7
:101BC00059FA0B460246394630461AF071FFBDE815
:101BD000F84300F0E9BD00BFEF39FAFE422EE63FC0
:101BE000FFFFEF3FFFFFAF410000F03F00000000AC
:101BF0002DE9F04FB24B21F000479F4287B00D46D0
:101C0000044615DD07F1404707F5801703463B43BF
:101C100026D002460B461AF04BFF0B4602461BF03D
:101C200029FA04460B462046194607B0BDE8F08F56
:101C3000A44B9F420E462EDCB7F1795F80F24A81B9
:101C400083A3D3E900231AF035FF00229E4B1BF03B
:101C500077FB00B32B462046194607B0BDE8F08F4E
:101C60007DA3D3E900231BF0DBF87DA3D3E9002398
:101C700006460F46204629461BF0D2F802460B4680
:101C8000304639461AF016FF04460B4620461946E0
:101C900007B0BDE8F08F204629461BF081FE0246C2
:101CA0000B46002088491AF003FF0022874B1BF0E7
:101CB000B7F86DA3D3E9002304460D461BF0B0F836
:101CC0006BA3D3E900231AF0F5FE22462B461BF046
:101CD000A7F869A3D3E900231AF0EAFE22462B46AF
:101CE0001BF09EF866A3D3E900231AF0E3FE224618
:101CF0002B461BF095F864A3D3E900231AF0D8FE15
:101D000022462B461BF08CF861A3D3E900231AF07E
:101D1000D1FE22462B461BF083F85FA3D3E90023B4
:101D2000CDE90001204629461BF07AF85CA3D3E9EF
:101D300000231AF0BDFE22462B461BF071F85AA371
:101D4000D3E900231AF0B6FE22462B461BF068F8B2
:101D500057A3D3E900231AF0ABFE22462B461BF013
:101D60005FF8594B00221AF0A5FE82468B462046AA
:101D70002946CDE902AB1CF0A7FE554B9F42804699
:101D8000894600F31C8102460B461AF093FEDDE9FA
:101D90000223CDE90401DDE900011BF06BF90246E5
:101DA0000B46DDE904011BF03BF84FF0000ACDE9DA
:101DB000000152464B46504649461BF031F8024658
:101DC0000B46204629461AF073FE524604460D463D
:101DD0004B46404649461AF06DFE02460B462046E9
:101DE00029461BF047F902460B461AF063FE0246ED
:101DF0000B461BA1D1E900011AF05AFE02460B4620
:101E0000DDE900011AF054FE524604460D464B46E9
:101E1000504649461AF04EFE02460B4626A1D1E92D
:101E200000011AF045FE02460B46204629461AF0EC
:101E30003FFE0B46024620A1D1E900011AF038FE10
:101E400004460B46002E3FF7EEAE03F10043EAE6F0
:101E50009C7500883CE4377E182D4454FB21F93FE3
:101E6000075C143326A6913C09F7FD0DE13D023FC6
:101E700088B20175E0EF493F3B8F68B52882A43FE7
:101E80005544880E55C1C93F7D6FEB0312D6D43F30
:101E9000555555555555C53F82922EB1C5B8B33FDE
:101EA00059018D1B6C06E63FC88A599CE52A004003
:101EB0004B2D8A1C273A0340182D4454FB21E93F3F
:101EC000FFFFEF3FFFFFDF3F0000F03F0000E03F7C
:101ED0003233EF3F02460B461AF0A2FF48A3D3E984
:101EE000002306460F461AF09BFF47A3D3E90023C1
:101EF0001AF0E0FD32463B461AF092FF44A3D3E9C4
:101F000000231AF0D5FD32463B461AF089FF42A362
:101F1000D3E900231AF0CEFD32463B461AF080FF8B
:101F20003FA3D3E900231AF0C3FD32463B461AF023
:101F300077FF3DA3D3E900231AF0BCFD32463B46B0
:101F40001AF06EFF3AA3D3E9002380468946304653
:101F500039461AF065FF38A3D3E900231AF0A8FD2B
:101F600032463B461AF05CFF35A3D3E900231AF052
:101F7000A1FD32463B461AF053FF33A3D3E90023B9
:101F80001AF096FD32463B461AF04AFF0022344BC7
:101F90001AF090FD02460B46404649461BF06AF88F
:101FA00022462B461AF03CFF22462B461AF082FDB1
:101FB00004460B462046194607B0BDE8F08F52464E
:101FC0005B46DDE900011BF055F842464B461AF02E
:101FD00027FF42464B461AF06DFD02460B461AF0AB
:101FE00069FD1BA3D3E900231AF062FD0B460246EC
:101FF00019A1D1E900011AF05BFD04460B4621E767
:1020000009F7FD0DE13D023F88B20175E0EF493F60
:102010003B8F68B52882A43F5544880E55C1C93FFF
:102020007D6FEB0312D6D43F555555555555C53FD9
:1020300082922EB1C5B8B33F59018D1B6C06E63FA5
:10204000C88A599CE52A00404B2D8A1C273A034038
:10205000075C143326A6913C182D4454FB21F93F0C
:102060000000F03F000000002DE9F84F54421443F7
:1020700023F00048684E48EAD474B44284460F46C0
:102080001FD84442044321F0004A4AEAD474B442BF
:102090008B4616D803F1404404F5801414439E4641
:1020A0003DD09C1704F0020444EAD1745AEA0001BE
:1020B0000FD1022C50D0032C3CD145A1D1E9000115
:1020C00005E01046194662463B461AF0F3FCBDE8AF
:1020D000F88F58EA020126D0B0452DD0B24522D063
:1020E000AAEB08084FEA2858B8F13C0F38DC002B5F
:1020F0003ADA18F13C0F37DA00200021012C49D0E0
:10210000022C3AD0002CE2D033A3D3E900231AF0FA
:10211000CFFC33A3D3E900231AF0CAFCD7E7BDE80C
:10212000F84FFEF7D5BCBBF1000F11DB2EA1D1E9B2
:102130000001CCE73946CAE7C2452FD0022C0BD0AC
:10214000032CBAD0012C4FF0000031D00021BEE7A3
:1021500027A1D1E90001BAE721A1D1E90001B6E741
:1021600021A1D1E90001C9E7604639461AF082FF92
:102170001BF016FCFEF7ACFCC0E717A3D3E9002365
:102180001AF096FC02460B4615A1D1E900011AF09F
:102190008FFC9CE701F10043194698E7022C12D00E
:1021A000032C0CD0012C06D013A1D1E900018EE73D
:1021B0004FF000418BE712A1D1E9000187E712A19E
:1021C000D1E9000183E712A1D1E900017FE700BF57
:1021D000182D4454FB2109C0075C143326A6A13CEA
:1021E000182D4454FB210940182D4454FB21F93F7C
:1021F000182D4454FB21F9BF182D4454FB21E93F0D
:10220000182D4454FB21E9BFD221337F7CD902C071
:10221000D221337F7CD902400000F07F0000000013
:1022200043422DE9F047034321F00048404A48EA81
:10223000D37393420F462ED890454AD03D4B9845D4
:102240008A4636DD3C4B9845044645464CDD024601
:10225000434641461AF02EFC224606460F464346A8
:10226000002033491AF024FC02460B46304639461A
:102270001AF000FFFEF7C8FE304B00221AF0D0FD26
:10228000BAF1000F04460B460FDA01F10043204675
:102290001946BDE8F08702460B461AF009FC0B46CA
:1022A00002461AF0E7FE04460B4620461946BDE8F2
:1022B000F0871DA3D3E9002304461AF0FBFB00229C
:1022C00000231BF03DF870B13B4620461946BDE89F
:1022D000F087002200231AF0CDFE04460B4620466C
:1022E0001946BDE8F087454622462B46204629463A
:1022F0001AF0E0FB22462B4606460F461AF090FDE8
:102300002246804689462B46002009491AF0D0FB18
:1023100002460B46404649461AF0ACFE32463B4662
:102320001AF0C8FBA6E700BF9C7500883CE4377E26
:102330000000F03FFFFF2F3EFFFFDF3F0000E03FC8
:102340004D4A2DE9F84321F0004494420B460646DD
:102350001BDC4A4A944224DD494A944256DD494AEC
:10236000944248DD484A944271DD013294426BD078
:102370003FA3D3E90023104619461AF051FD064643
:102380000F4630463946BDE8F88304460D462246DE
:102390002B461AF045FD06460F4630463946BDE845
:1023A000F8831BF0FDFA02F06FFC0022374B8046E9
:1023B00089461AF07FFBB4F1725F06460F46ECDBEC
:1023C00042464B46404649461AF02AFD32463B46B5
:1023D00004460D46304639461AF06CFB02460B4661
:1023E000204629461AF046FE0022284B1AF062FBCE
:1023F00006460F46D1E71BF0D3FA00F04DF8002255
:10240000234B1AF00DFD06460F46C6E71BF0C8FA2F
:1024100000F042F800221E4B06460F461AF000FD5F
:10242000324604460D463B46002019491AF022FE6A
:1024300002460B46204629461AF03CFB06460F464C
:1024400030463946BDE8F883124A904290D830466B
:1024500019461BF0A5FA00220D4B1AF0E1FC00F022
:102460001BF800220A4B04460D461AF0D9FC8EE7F1
:102470009C7500883CE4377EFFFFEF7F422ED63FFD
:10248000FFFF3540412E8640CD3386400000F03FAF
:102490000000E03F7DF8B98F2DE9F047B84F21F0FB
:1024A0000042BA4284B00C464FEAD176054612D9B2
:1024B000B44FBA4240F28E80C1F313030343024685
:1024C00040F0F780002E00F0818000252946284644
:1024D00004B0BDE8F087AC4B9A4200F2B880AB4B39
:1024E0009A4240F2D3804FF0000A2A4623462846FB
:1024F00021461AF095FC8CA3D3E9002306460F462B
:102500001AF08EFC8AA3D3E900231AF0D1FA3246DE
:102510003B461AF085FC88A3D3E900231AF0CAFAD7
:1025200032463B461AF07CFC85A3D3E900231AF01F
:10253000BFFA32463B461AF073FC83A3D3E900236B
:102540001AF0B8FA32463B461AF06AFC02460B46CD
:10255000284621461AF0ACFA02460B4606460F46BC
:10256000284621461AF05CFC80468946BAF1000FE5
:1025700000F0B38032463B4600204FF080411AF015
:1025800097FA02460B46404649461AF073FD02464A
:102590000B46DDE902011AF08BFADDE900231AF09F
:1025A00087FA0B4602467A4900201AF081FA6FF446
:1025B0007F739A4580F2AD800AF57A7A01EB0A5171
:1025C00000224FF0B8731AF02BFC0546284604B0E1
:1025D000BDE8F0875EA3D3E900231AF0B1FE00281E
:1025E0006FD1284621465CA3D3E900231AF08AFE66
:1025F00000287FF46AAF674B284603EBC6062146E6
:1026000057A3D3E900231AF00BFCD6E900231AF0F4
:1026100051FA1AF0B5FE82461AF098FB52A3D3E99C
:10262000002306460F461AF0FBFB02460B462846DF
:1026300021461AF03DFA4EA3D3E90023CDE900016B
:10264000304639461AF0ECFBCDE9020115E0524B59
:102650009A42D0D8514BF4002344D3E900231AF016
:1026600027FA4F4B2344D3E90034CDE90001CDE9EB
:102670000234C6F1010AAAEB060ADDE90223DDE90C
:1026800000011AF015FA05460C462EE73AA3D3E9E5
:1026900000231AF00FFA00223D4B1AF051FE0028D9
:1026A0003ED0284621460022394B1AF003FA05464F
:1026B0008CE70B461AF0FEF90546284604B0BDE843
:1026C000F0872DA3D3E90023104619461AF0A8FB82
:1026D0000546284604B0BDE8F0873046394600225A
:1026E0004FF080431AF0E4F902460B464046494653
:1026F0001AF0C0FC2A4623461AF0DAF902460B46C5
:10270000002023491AF0D4F90546284604B0BDE854
:10271000F087054601EB0A51284604B0BDE8F08772
:102720008246E2E6AFF30080D0A4BE726937663E0F
:10273000F16BD2C541BDBB3E2CDE25AF6A56113FC1
:1027400093BDBE166CC1663F3E5555555555C53FA8
:10275000EF39FAFE422E864051302DD5104987C000
:10276000FE822B654715F73F0000E0FE422EE63F54
:10277000763C7935EF39EA3D9C7500883CE4377E3C
:10278000412E8640FFFFEF7F422ED63FFFFF2F3EB8
:102790000000F03FB80E0308B1A2F03FC80E0308D6
:1027A000D80E0308000000002DE9F04FB1F5801F9E
:1027B00085B006460F460B4680F2D08021F00042DD
:1027C000024300F0DA800029C0F2E9800022D64BF3
:1027D0001AF026FBD54A0B46934206460F466FF089
:1027E000350E00F3C180C3F3130505F5152C0CF667
:1027F000647C0CF4801C8CF07F5282F440121C1517
:1028000042EA0507A4F2FF3474440022C84B304664
:10281000394604EB1C541AF04BF9AB1CC3F31303F9
:10282000022B82468B464FF0000240F3AF804FF000
:1028300080431AF03FF902460B46504659461AF0BB
:1028400019FC064620460F461AF080FA3246CDE9BA
:1028500002013B4630463946CDE900671AF0E0FAFE
:1028600002460B46804689461AF0DAFA9AA3D3E963
:10287000002306460F461AF0D3FA99A3D3E90023A2
:102880001AF018F932463B461AF0CAFA96A3D3E971
:1028900000231AF00FF932463B461AF0C1FA94A30E
:1028A000D3E900231AF006F942464B461AF0B8FA6B
:1028B00091A3D3E9002380468946304639461AF071
:1028C000AFFA8FA3D3E900231AF0F4F832463B465F
:1028D0001AF0A6FA8CA3D3E900231AF0EBF83246DB
:1028E0003B461AF09DFA0B460246494640461AF00E
:1028F000E1F8A5F5C223C5F5D725A3F27A435135F2
:102900001D43002D06460F4640F387800022894B69
:10291000504659461AF084FA52465B461AF080FA3D
:1029200002460B4680468946304639461AF0C2F8C0
:10293000DDE900231AF074FA06460F46002C40F039
:10294000818002460B46404649461AF0B1F80246DD
:102950000B46504659461AF0ABF80BE0734A9342C7
:102960004FF0000E7FF73FAF32463B4630463946C8
:102970001AF0A0F805B0BDE8F08F00220023002077
:102980006D491AF077FB05B0BDE8F08F00231AF00F
:10299000AFFC60B1002C7CD100200021EAE70246A8
:1029A0001AF086F8002200231AF064FBE2E758A32D
:1029B000D3E90023504659461AF032FA02460B4634
:1029C00000205C491AF074F8524606460F465B46F2
:1029D000504659461AF024FA02460B46304639460C
:1029E0001AF01EFA06460F462CB320461AF0AEF92E
:1029F00049A3D3E90023804689461AF011FA48A377
:102A0000D3E9002304460D46404649461AF008FA29
:102A100002460B46304639462CE002460B465046ED
:102A200059461AF045F8DDE900231AF0F9F906468F
:102A30000F46002C47D132463B46504659461AF0C5
:102A400037F897E734A3D3E90023DDE902011AF050
:102A5000E7F933A3D3E9002304460D46DDE902017B
:102A60001AF0DEF932463B461AF024F802460B46CD
:102A7000404649461AF01CF852465B461AF018F8D0
:102A800002460B46204629461AF012F805B0BDE86A
:102A9000F08F20461AF05AF91FA3D3E90023064607
:102AA0000F461AF0BDF91EA3D3E9002304460D46D4
:102AB000304639461AF0B4F902460B4620462946FC
:102AC00019F0F8FF56E7DDE9028913A3D3E90023E3
:102AD0004046494691E700BF44523EDF12F1C23FF3
:102AE000DE03CB966446C73F599322942449D23FD4
:102AF000935555555555E53F9FC678D0099AC33F24
:102B0000AF788E1DC571CC3F04FA97999999D93F3A
:102B1000555555555555D53F0000E0FE422EE63F30
:102B2000763C7935EF39EA3D00005043FFFFEF7FF7
:102B30000000F03F0000E03F000050C30000000034
:102B4000B1F5801F2DE9F84304460D460B4619DA0E
:102B500021F00042024359D000295FDB00223A4BAA
:102B60001AF05EF9394A0B4693420D4604466FF05F
:102B700035010CDD22462B462046294619F09AFFE6
:102B8000BDE8F883314A93424FF00001F2DC18159A
:102B9000A0F2FF3008444FEAD0794844C3F3130849
:102BA0001AF0D4F8C9F57F73033348EA0355064693
:102BB0000F4620462946FFF7F7FD1DA3D3E9002362
:102BC00080468946304639461AF02AF91AA3D3E9D5
:102BD000002304460D46404649461AF021F90246B4
:102BE0000B462046294619F065FF15A3D3E90023BB
:102BF00004460D46304639461AF012F902460B4695
:102C00002046294619F056FFBDE8F883002200232C
:102C100000200F491AF02EFABDE8F883024619F099
:102C200047FF002200231AF025FAA9E7AFF300803E
:102C3000362BF111F3FE593D0EE526157BCBDB3F1C
:102C400000609F501344D33F00005043FFFFEF7FCD
:102C5000000050C3000000002DE9F04F23F00045B4
:102C600055EA020493B00DD0794E21F00044B442ED
:102C70000F4682460FDD04F1404404F5801454EA07
:102C80000A035BD1734C0023CDE90034DDE9000178
:102C900013B0BDE8F08F984694464ED0B542EADCBA
:102CA0006B4EB54266D0002F8B468146CDE902239C
:102CB00064DB0026BCF1000F0ED1654B9D4246D06F
:102CC000644B9D4200F09780B8F1804F00F0B280D5
:102CD000614B984500F0CC83484659461AF060FE97
:102CE000CDE90001BAF1000F06D1002C60D0594B9C
:102CF00027F040429A425BD0FF0F013F56EA07039C
:102D000000F08280554B9D4240F3B08003F1047384
:102D10009D4240F34184524B9C4240F38280B8F183
:102D2000000F40F3828048A3D3E9002310461946E0
:102D30001AF076F8CDE90001A8E728B1494813B0A8
:102D4000BDE8F04F1CF01ABFA542F7DCA8E704F17C
:102D5000404303F5801353EA0A0393D0404B9C424F
:102D600040F39083B8F1000F5FDBDDE90234CDE979
:102D700000348BE7BCF1000F95D07CE73A4B9D42C5
:102D800037DCA3F154739D4293DD2B15A3F2FF337F
:102D9000142B40F3E983C3F134032CFA03F202FA53
:102DA00003F3634585D102F00102C2F1020681E717
:102DB000B8F1000F07DADDE90023002025491AF0F9
:102DC00059F9CDE90001002FBFF660AF04F140448E
:102DD00004F5801454EA060300F03C84012E7FF4CD
:102DE00055AFDDE90045224605F10043CDE900235A
:102DF0004CE702265EE7B8F1000FC0F24F83484669
:102E00005946CDE9000141E74A4648465B465946E6
:102E100019F04EFE02460B461AF02CF9CDE90001DE
:102E200034E7B8F1000FFFF67EAF00230024CDE9B0
:102E300000342BE74A4648465B46594619F0F0FFF6
:102E4000CDE9000122E700BF9C7500883CE4377E95
:102E50000000F07F0000F03F0000E03F0000E04194
:102E6000FFFFEF3FD8170308FFFF3F43B4F5801F74
:102E700080F28F83DDE900010022CF4B19F0D0FFF3
:102E8000CDE900010C466FF0340C2315CB4DC4F393
:102E90001302A3F2FF3342F07F5403EB0C01AA426A
:102EA0000B9144F4401440F36F83C54B9A4240F3B6
:102EB000F38300220023CDE9082301310B91A4F50F
:102EC0008014CDE91023BF4B0022CDE90623002555
:102ED000DDE90001DDE906232146824619F0E8FD1F
:102EE000A346DDE906238046894650462146CDE9C2
:102EF0000CAB19F0DFFD02460B460020B1491AF079
:102F0000B9F80A460146CDE90E1213464946024673
:102F1000404619F085FF631043F0005382468B460C
:102F200003F500238C46CDE904AB5919D3460023A1
:102F3000CDE900BC0093DDE900AB002004460D465E
:102F400002460B465046594619F06AFF02460B46A8
:102F50004046494619F0ACFDDDE906238046894626
:102F60002046294619F0A4FD02460B46DDE90C0176
:102F700019F09EFD52465B4619F052FF02460B4681
:102F80004046494619F094FDDDE90E2319F048FF4B
:102F9000DDE90445CDE9060122462B4620462946B7
:102FA00019F03EFF72A3D3E9002304460D4619F041
:102FB00037FF71A3D3E9002319F07CFD22462B468D
:102FC00019F02EFF6EA3D3E9002319F073FD2246FA
:102FD0002B4619F025FF6CA3D3E9002319F06AFDF5
:102FE00022462B4619F01CFF69A3D3E9002319F0F0
:102FF00061FD22462B4619F013FF67A3D3E9002396
:1030000019F058FD2246804689462B46204629461F
:1030100019F006FF02460B464046494619F000FFEC
:10302000524604460D465B46DDE9040119F042FDB7
:10303000DDE9062319F0F4FE22462B4619F03AFD8D
:103040005246804689465B465046594619F0E8FE8E
:1030500000225D4BCDE90C0119F02CFD42464B4698
:1030600019F028FD00980D46044622462B4650468E
:10307000594619F0D5FE002282468B46524B204617
:10308000294619F015FDDDE90C2319F011FD024662
:103090000B464046494619F00BFDDDE9042319F0C3
:1030A000BFFE2246804689462B46DDE9060119F01F
:1030B000B7FE02460B464046494619F0FBFC8046E7
:1030C000894602460B465046594619F0F3FC0098D3
:1030D00033A3D3E9002304460D4619F0A1FE52465E
:1030E000CDE904015B462046294619F0E1FC024681
:1030F0000B464046494619F0DBFC2BA3D3E90023DD
:1031000019F08EFE2AA3D3E9002380468946204683
:10311000294619F085FE02460B464046494619F0FD
:10312000C9FCDDE9102319F0C5FC80460B988946DF
:1031300019F00CFE424682468B464B46DDE90401FF
:1031400019F0B8FCDDE9082319F0B4FC52465B46DF
:1031500019F0B0FC009852465B4604460D4619F043
:10316000A7FCDDE9082319F0A3FCDDE904232DE029
:10317000EF4E454A287ECA3F65DBC9934A86CD3F5C
:1031800001411DA96074D13F4D268F515555D53F42
:10319000FFAB6FDBB66DDB3F033333333333E33FDA
:1031A000000000E009C7EE3FFD033ADC09C7EE3F2F
:1031B000F5015B14E02F3EBE000040438E980300F3
:1031C00079B60B000000F03F0000084019F070FCD9
:1031D0000B4602464946404619F06AFC013E56EA53
:1031E000070382468B46DDE9020114BFD84BD94B59
:1031F0000022CDE9042302460B46CDE9002300233B
:103200000093DDE9006732463B4619F051FC224647
:103210002B4619F005FEDDE902238046894650461B
:10322000594619F0FDFD02460B464046494619F045
:1032300041FC3246804689463B4620462946CDE938
:10324000028919F0EDFD0B46024606460F46404640
:10325000494619F02FFCC04B994204460D468A4658
:1032600040F3268101F13F4303F5E003034340F0BF
:10327000F781A3A3D3E90023DDE9020119F01AFCC9
:103280003246804689463B462046294619F010FCC6
:1032900002460B46404649461AF052F8002840F0D4
:1032A000DF81A8464FEA2853A3F2FE324FF4801381
:1032B00013415344C3F30A52A84DA2F2FF32154101
:1032C000C3F3130423EA05010020C2F1140B44F4F4
:1032D0008014BAF1000F02460B4644FA0BFB30464D
:1032E0003946B8BFCBF1000B19F0E2FB02460B46A2
:1032F00006460F46DDE9020119F0DCFB4FEA0B5AE6
:103300000D46002480A3D3E900232046294619F066
:1033100087FD3246804689463B462046294619F0BD
:10332000C7FB02460B46DDE9020119F0C1FB78A399
:10333000D3E9002319F074FD77A3D3E900230646EF
:103340000F462046294619F06BFD02460B463046D3
:10335000394619F0AFFB06460F4602460B4640467B
:10336000494619F0A7FB42464B4604460D4619F064
:103370009FFB02460B463046394619F099FB224620
:10338000804689462B462046294619F049FD64A30C
:10339000D3E9002306460F4619F042FD62A3D3E9A4
:1033A000002319F085FB32463B4619F039FD60A336
:1033B000D3E9002319F07EFB32463B4619F030FD7D
:1033C0005DA3D3E9002319F073FB32463B4619F0A5
:1033D00027FD5BA3D3E9002319F06CFB32463B4683
:1033E00019F01EFD02460B462046294619F060FBE7
:1033F00006460F4602460B462046294619F010FDA8
:103400000022CDE900014FF080433046394619F0E3
:103410004FFB02460B46DDE9000119F02BFE424648
:1034200006460F464B462046294619F0F9FC42460F
:103430004B4619F03FFB02460B463046394619F021
:1034400037FB22462B4619F033FB02460B46002081
:103450003F4919F02DFB8A44BAF5801FC0F22D8137
:103460005146DDE9042319F0DBFCCDE900010DE450
:10347000002FFFF631AC4846594613B0BDE8F04F77
:103480001BF022BBB8F1000FBFF6CFACDDE9023470
:10349000009304F100430193FFF7F8BB4A465B46F3
:1034A00000202B4919F0E6FDCDE90001FFF7EEBB46
:1034B0002B4B21F00048984540F3E280294B0B4408
:1034C00003430AD132463B4619F0F2FADDE9022302
:1034D00019F02CFF00283FF4E5AE1BA3D3E900232D
:1034E000DDE9040119F09CFC17A3D3E9002319F0CE
:1034F00097FCCDE90001FFF7C9BB00BFAFF3008027
:10350000FE822B654715973C00000000432EE63FE6
:10351000EF39FAFE422EE63F396CA80C615C20BE02
:10352000D0A4BE726937663EF16BD2C541BDBB3EC9
:103530002CDE25AF6A56113F93BDBE166CC1663FA7
:103540003E5555555555C53F59F3F8C21F6EA50157
:103550000000F03F0000F0BFFFFF8F40FFFF0F00B3
:10356000FFCB904000346F3FBCF1000F40F09180E2
:10357000C3F1140345FA03F202FA03F3AB4200F07D
:10358000A0806646FFF79CBB00220023CDE90823FC
:1035900097E44FF0000C78E45B4B9C427FF741AC22
:1035A0005A4B9C423FF7BBABDDE900010022574B71
:1035B00019F07EFA46A3D3E9002304460D4619F01C
:1035C0002FFC45A3D3E9002382468B46204629469B
:1035D00019F026FC0022CDE900014D4B204629467A
:1035E00019F01EFC02460B463DA1D1E9000119F07D
:1035F0005FFA22462B4619F013FC02460B460020C8
:10360000444919F055FA2246804689462B46204601
:10361000294619F005FC02460B464046494619F07A
:10362000FFFB31A3D3E9002319F0FAFB02460B4656
:10363000DDE9000119F03CFA02460B468046894656
:103640005046594619F036FA002004460D465246B7
:103650005B46BBE5DDE9002310461946FFF7D8BB02
:1036600023A3D3E90023DDE9040119F0D9FB20A34A
:10367000D3E9002319F0D4FBCDE90001FFF706BB25
:10368000244B98453FF70EAEDDE900239246934662
:1036900037E60026FFF720BB17A3D3E90023CDE9C7
:1036A000082317A3D3E90023CDE910231A4B0022E6
:1036B0004FF48025CDE906230AE45A4601F02CFD9B
:1036C000CFE602F00102C2F10206FFF7F9BA00BF2D
:1036D000000000604715F73F44DF5DF80BAE543E35
:1036E000555555555555D53FFE822B654715F73F26
:1036F0009C7500883CE4377E0000004003B8E23F40
:1037000006D0CF43EBFD4C3EFEFFEF3F0000F03F05
:103710000000D03F0000E03F0000F83F0000000044
:103720002DE9F04FC84E21F00047B7428FB00B464D
:1037300040F38F809246C54A97420C4626DC00290A
:10374000B7A3D3E9002340F38F8019F0B1F9C04B40
:103750009F4204460D4600F04681B3A3D3E90023FF
:1037600019F0A6F902460B46CAE90023204629466D
:1037700019F09EF9ACA3D3E9002319F099F90125BA
:10378000CAE9020128460FB0BDE8F08FB14A97425E
:1037900040F38980B04A974200F31C813D15A5F2A1
:1037A0001645A7EB055319461F46064619F0E8FDD6
:1037B00019F0CCFA8046894602460B463046394617
:1037C000CDE9088919F074F90022A44B19F028FBFF
:1037D0008946804619F0D4FD19F0B8FA02460B4626
:1037E00006460F4640464946CDE90A6719F060F99A
:1037F00000229A4B19F014FB00220023CDE90C01A2
:1038000019F076FD002800F05D810023304639462E
:10381000002219F06DFD002814BF01230223904AF5
:10382000019202212A46009108A8514600F080FB2F
:10383000002C054614DADAF80420DAF80C3002F12C
:10384000004203F100434542CAF80420CAF80C3094
:1038500006E0C2E9000100250024C2E90245002576
:1038600028460FB0BDE8F08F19F024F9784B9F423D
:1038700004460D4600F008816BA3D3E9002319F03C
:1038800019F902460B46CAE900232946204619F0D9
:103890000FF965A3D3E9002319F00CF94FF0FF35B8
:1038A000CAE90201DCE71AF07BF861A3D3E900233F
:1038B0008046894619F0B4FA00226A4B19F0FAF8EA
:1038C00019F05EFD054619F041FA55A3D3E900232E
:1038D000CDE9040119F0A4FA02460B4640464946D8
:1038E00019F0E6F850A3D3E90023CDE90201DDE9A0
:1038F000040119F095FA1F2D8046894602460B46B1
:10390000DDE9020140F3B08019F0D2F883460E469B
:103910003F15C6F30A53FB1A102B40F3B08046A3A1
:10392000D3E90023DDE9040119F07AFA80468946DB
:1039300002460B46DDE9020119F0BAF802460B46D1
:10394000DDE90201CDE9062319F0B2F842464B4603
:1039500019F0AEF83AA3D3E9002380468946DDE9A1
:10396000040119F05DFA42464B4619F0A1F80B46E6
:10397000024680468946DDE9060119F099F8C1F34F
:103980000A53FF1A312F83460E4600F39D800246EC
:103990000B46CAE90023DDE90623CDE902235A4696
:1039A0003346DDE9020119F083F842464B4619F02F
:1039B0007FF8002C02460B46CAE90223BFF650AF3F
:1039C00006F1004601F10041CAE900B6CAE9020168
:1039D0006D4245E7024619F06BF80025CAE902017D
:1039E000CAE900013CE714A3D3E9002319F060F809
:1039F00013A3D3E900230D46044619F059F80246F3
:103A00000B46CAE900232946204619F051F80CA3B9
:103A1000D3E9002319F04CF80125CAE902011FE798
:103A200000004054FB21F93F3163621A61B4D03D7C
:103A300083C8C96D305FE43F0000601A61B4D03DB7
:103A40007370032E8A19A33BFB21E93F7BD9024007
:103A5000FB21F93FFB213941FFFFEF7F000070415F
:103A6000002B03080000E03F19F022F83A4B6A1ED1
:103A7000834653F82230BB420E463FF449AF5A46C4
:103A80003346CAE900238AE72BA3D3E9002319F0C0
:103A900011F82BA3D3E900230D46044619F00AF8C8
:103AA00002460B46CAE900232946204619F000F8D1
:103AB00023A3D3E9002318F0FDFF4FF0FF35CAE937
:103AC0000201CDE60323AAE61FA3D3E90023DDE923
:103AD000040119F0A5F9DDE9068906460F460246FC
:103AE0000B464046494618F0E3FF02460B46404667
:103AF0004946CDE9022318F0DBFF32463B4618F079
:103B0000D7FF13A3D3E9002306460F46DDE90401DE
:103B100019F086F932463B4618F0CAFF02460B46BA
:103B200080468946DDE9020118F0C2FF83460E4651
:103B3000A5E700BFAFF300800000601A61B4D03D7C
:103B40007370032E8A19A33B0000002E8A19A33B31
:103B5000C14920259A837B39802A03080000000090
:103B6000574A2DE9F84F21F0004890450E46074688
:103B70002CDC544B0029B4BF534D544D98454FF0A5
:103B8000000411DC524B984526DC4BA3D3E90023FB
:103B900018F090FF00224F4B19F0D2FB002840D0C4
:103BA00038463146BDE8F88F4B4B984530DD4B4BDE
:103BB000984568DD0133984562D0384631463EA3CA
:103BC000D3E9002319F02CF9BDE8F88F02460B4623
:103BD00018F070FFBDE8F88F19F0E2FE01F054F81C
:103BE0003F4B984506460F4623DD0022394B18F01F
:103BF00061FF02460B463046394619F03BFA324621
:103C00003B4618F057FF22462B4619F009F9E1E729
:103C100019F0C6FEFEF740FC22462B4619F000F9CB
:103C2000D8E73846314619F0BBFE01F02DF80646BC
:103C30000F4632463B463046394618F03BFF324687
:103C400082468B463B463046394619F0E9F8002259
:103C5000804689461F4B3046394618F02BFF0246F6
:103C60000B464046494619F005FA02460B465046B7
:103C7000594618F01DFF22462B4619F0D1F8A9E746
:103C8000184B984299D83846314619F089FE0022DF
:103C90000E4B19F0C5F8FEF7FFFB06460F4602462D
:103CA0000B462046294619F0BBF832463B4619F030
:103CB000B7F88FE7AFF300803374AC3C1F7BAC7F69
:103CC000FFFFEF7FFFFF35400000E0BF0000E03F57
:103CD000FFFF2F3E0000F03F412E8640CD3386404F
:103CE000FFFFEF3F7DF8B98F2DE9F04F21F000463F
:103CF000B6F1795F85B00C4692469B4605466BDA75
:103D000019F03EFB002800F0E2802A4623462846B0
:103D1000214619F085F874A3D3E90023804689462B
:103D200019F07EF872A3D3E9002318F0C3FE4246CF
:103D30004B4619F075F870A3D3E9002318F0B8FECC
:103D400042464B4619F06CF86DA3D3E9002318F0F6
:103D5000B1FE42464B4619F063F86BA3D3E900234A
:103D600018F0A6FE42464B4619F05AF868A3D3E96C
:103D7000002318F09FFE42464B4619F051F8CDE95A
:103D800000010022644B4046494619F049F8DDE93C
:103D9000002306460F464046494619F041F8524670
:103DA000804689465B462846214619F039F8024686
:103DB0000B464046494618F07BFE02460B4630460D
:103DC000394618F075FE02460B460020534918F09C
:103DD0006FFE05B0BDE8F08F02460B4619F020F8E3
:103DE00041A3D3E900238046894619F019F840A37E
:103DF000D3E9002318F05EFE42464B4619F010F856
:103E00003DA3D3E9002318F053FE42464B4619F078
:103E100007F83BA3D3E9002318F04CFE42464B467B
:103E200018F0FEFF38A3D3E9002318F041FE424604
:103E30004B4618F0F5FF36A3D3E9002318F03AFEFD
:103E40004B46424618F0ECFF354B9E42CDE900014F
:103E500097DD344B9E424FF000023DDCA6F5001387
:103E600000202E4916461F4618F022FECDE9020119
:103E70000022294B4046494618F0D2FF32463B46C5
:103E800018F016FEDDE9002306460F464046494677
:103E900018F0C6FF5246804689465B4628462146B2
:103EA00018F0BEFF02460B464046494618F000FE99
:103EB00002460B463046394618F0FAFD02460B46DC
:103EC000DDE9020118F0F4FD05B0BDE8F08F1349FB
:103ED000002005B0BDE8F08F134B144FCDE902234D
:103EE0000026C5E7AFF30080D43888BEE9FAA8BD44
:103EF000C4B1B4BD9EEE213EAD529C804F7E923E39
:103F00009015CB19A001FA3E7751C1166CC1563FEE
:103F10004C5555555555A53F0000E03F0000F03F7A
:103F20003233D33F0000E93F0000E73F0000D23FBB
:103F30002DE9F04FADF5197DBE4CA29EBE4D54F853
:103F400026700793D41E85FB0465E417C4EBA50413
:103F500024EAE4741D46631CA3EB8303013D02EBDA
:103F6000C30305937B1909940497019506460B91A9
:103F7000A4EB05041BD423445D1C20AF4FF00008C4
:103F80004FF00009DDF88CA208E05AF8240018F080
:103F9000DDFE0134AC42E7E8020108D0002CF4DA7F
:103FA000013440464946AC42E7E80201F6D1049BA1
:103FB000002BC0F2B083079BA6F10802DB0011467C
:103FC000039220AA02EB0309029301EB0308049B6E
:103FD00072AA02EBC30B0DF5E07A019B002BC0F235
:103FE0009581039C4D460026002775E90223F4E9DC
:103FF000020118F015FF02460B463046394618F00C
:1040000059FD444506460F46EFD1EAE80267DA4516
:1040100009F10809E1D1DDE90204049920448B008B
:1040200082460BA8A3F10802C31808930CAB1344F3
:104030000A938B4698AB03EBCB03BBF1000F53E91C
:10404000284529DD70AB03EBCB080DF130090022C8
:104050007A4B2046294618F0E3FE19F091F918F042
:1040600075FE0022764B06460F4618F0D9FE024632
:104070000B462046294618F01BFD19F081F978E916
:10408000022349F8040B3946304618F013FD70AB93
:10409000984504460D46DAD1DDF8149020462946AD
:1040A0004A4601F039F800224FF07F5304460D468E
:1040B00018F0B6FEFCF724FF0022624B18F0B0FEA9
:1040C00002460B462046294618F0F2FC0D460446EF
:1040D00019F056F9804618F039FE0B46024629467B
:1040E000204618F0E5FC4B46002B06460F4640F3F1
:1040F000E1800BF1FF320CA9C9F1180351F82250ED
:1041000045FA03F101FA03F30CA8EB1A40F8223048
:10411000C9F11705884443FA05F5002D2CDDBBF1E4
:10412000000F08F1010840F394820C9C002C40F031
:10413000A780BBF1010F0AD00CA9012251F8044F4E
:10414000531C002C40F09E809B451A46F6D1059BDF
:10415000002B0EDD012B00F09C81022B09D10BF10D
:10416000FF320CAB0CA953F82230C3F3150341F80E
:104170002230022D00F0AF80002200233046394665
:1041800019F0B6F8002800F06682049B0BF1FF39A5
:104190004B4510DC0BF180430CAA013B089802EB65
:1041A0008303002253F80419834242EA0102F9D141
:1041B000002A40F0B580049B0CAA013B52F8233042
:1041C000002B40F0A1800A9A012352F80419013310
:1041D0000029FAD05B440BF101099945069349DCAB
:1041E000099A079909EB020801EB0B0508F18048D1
:1041F00002EB030BA39B08F1FF3803EB880870ABBD
:1042000003EBC909A39B20A903EB8B0301EBC505B5
:10421000029358F8040F18F099FD019B002BC5E993
:10422000000105F1080B28DB083D039C0026002750
:104230000CE000BFA02F0308ABAAAA2A0000703E22
:10424000000070410000204075E80201F4E90223FB
:1042500018F0E6FD02460B463046394618F02AFCB7
:10426000544506460F46EFD1029B9845E9E80267A0
:104270005D46CED1DDF818B0DCE600260027F3E776
:10428000012300220CA9C4F180749B4541F822400F
:104290000EDD51F8232001EB8B0001EB83036FF05F
:1042A0007F4100E01A688A1A43F8042B8342F9D14F
:1042B00001244CE706D10BF1FF330CAA52F823502E
:1042C000ED152AE70022BE4B19F030F8002840F027
:1042D000B981054650E732463B460020B94918F0FF
:1042E000E7FB06460F46002C3FF446AF059AB5495A
:1042F000002000F011FF02460B463046394618F008
:10430000D7FB06460F4637E7012363E70026002761
:10431000EAE80267DA4509F108097FF45EAE7AE659
:104320000CAB059A53F82930183ACDE90685059269
:104330006BB909F18043013B0CA901EB830353F8EE
:10434000041909F1FF39183A0029F8D00592059AA5
:104350009C49002000F0E0FEB9F1000F04460D4634
:10436000C0F2E0814FEAC90370AA02EB0308089388
:104370000CAB03EB8906DFF850B208F108070436EE
:104380004FF0000A56F8040D18F0E0FC22462B46C8
:1043900018F046FD5B4667E9020152462046294671
:1043A00018F03EFD0CAB9E4204460D46EAD148ABE8
:1043B00003930193CDF8149009F10103DDF81090F7
:1043C0000293C3464FF0000AB9F1000FC0F23781E3
:1043D000DFF8F8815D4678A3D3E9002300260027A3
:1043E000002403E0544510DCF8E80223F5E802015C
:1043F00018F016FD02460B463046394618F05AFBB7
:104400000134A14506460F46ECDA019BE3E802675A
:104410000193029B0AF1010A9A45ABF1080BD3D133
:10442000A29BDDF81490032B2CD8DFE813F0E800F2
:10443000D300D3003F00079B00200146002B40F033
:1044400043810D460B460B990446C1E9004503998B
:104450000246D1E9000118F02BFBB9F1000F0CDD89
:10446000039D0124F5E90223013418F023FBA14543
:10447000F8DA079B002B40F037810B460B99024678
:10448000C1E90223069B03F007000DF5197DBDE885
:10449000F08F0BF1FF320CAB0CA953F82230C3F3B1
:1044A000160341F8223064E648AB0393B9F1000FDC
:1044B00040F35581039ACDF808904FEAC90302EB07
:1044C0000308D8E900AB0193914658E902675246C8
:1044D0005B463046394618F0EDFA04460D46024672
:1044E0000B463046394618F0E3FA52465B4618F060
:1044F000E1FAC8E9000168E90245C145A246AB46B8
:10450000E3D1DDF80890B9F1010F40F32881019B58
:10451000039A1344D3E9006701939A460DF5947BFF
:104520005AE9028932463B464046494618F0C2FAEB
:1045300004460D4602460B464046494618F0B8FA76
:1045400032463B4618F0B6FACAE900016AE902456C
:10455000D34526462F46E3D10399019C002301F160
:104560001005083419461E46304674E9022318F037
:10457000A1FAA5420346F6D10A460399D1E9008C77
:10458000D1E902E90799002900F0B1800B9C236171
:10459000069BC4F800800CF1004009F1004102F1D3
:1045A0000042606003F00700E1606261C4F808E067
:1045B0000DF5197DBDE8F08F00000040FB21F93FAB
:1045C0000000E03F0000F03F0000703E000F0308D5
:1045D00048AB0393B9F1000FFFF62DAF039F002006
:1045E00007EBC9060836014676E9022318F062FA9D
:1045F000B742F9D1079B002B3FF423AF64E0089C3E
:10460000039D083400222C4411461646304674E9B6
:10461000022318F04FFAA5420246F6D10B4607993D
:1046200009B103F1004319460B9B1046C3E9000191
:10463000069B03F007000DF5197DBDE8F08F0026FD
:104640000027E2E6BBF1000F08F101087DDD02253D
:104650006BE500247BE5CDE90685059D30463946AE
:104660006A4200F059FD00223E4B06460F4618F004
:104670005DFE00B300223C4B3046394618F0D0FBBB
:1046800018F07EFE044618F061FB0022354B18F04E
:10469000C7FB0B4602463946304618F009FA18F0B7
:1046A0006FFE0BF101090CAB183543F82B00059593
:1046B00043F829404BE63046394618F061FE0CAB12
:1046C000D94643F82B0042E60B9C0B4601F1004112
:1046D000C4E9000103990246D1E9000118F0E8F9A4
:1046E000B9F1000F3FF7BCAE01F10041C5E6184635
:1046F0000B9B4646744667464D461146C3E9040186
:10470000C3E90067C3E90245069B03F007000DF506
:10471000197DBDE8F08FA6F108030393079BDB002A
:10472000029378E4A29B032B3FF6ACAE01A252F8B1
:1047300023F000BF45470108D1450108D1450108D4
:10474000A94401080022134669E732463B4600208F
:10475000064918F0ADF9022506460F460CE5002380
:104760001A460AE7000070410000703E0000F03F6A
:104770002DE9F04F21F00046B6F1795F85B00C4687
:1047800090469946054604DA18F0FAFD002800F034
:1047900085802A4623462846214618F041FB0646D6
:1047A0000F4602460B462846214618F039FB3EA329
:1047B000D3E9002382468B463046394618F030FB59
:1047C0003BA3D3E9002318F073F932463B4618F0B7
:1047D00027FB39A3D3E9002318F06CF932463B4696
:1047E00018F01EFB36A3D3E9002318F061F9324616
:1047F0003B4618F015FB34A3D3E9002318F05AF90F
:104800000E9BCDE900019BB30022334B4046494645
:1048100018F006FBDDE90023CDE9020150465946B8
:1048200018F0FEFA02460B46DDE9020118F040F9E5
:1048300032463B4618F0F4FA42464B4618F038F937
:1048400023A3D3E9002306460F465046594618F0E5
:10485000E7FA02460B463046394618F02BF9024675
:104860000B462846214618F023F905B0BDE8F08F25
:1048700002460B463046394618F0D2FA14A3D3E963
:10488000002318F015F952465B4618F0C9FA2A467B
:10489000234618F00FF905B0BDE8F08F28462146F1
:1048A00005B0BDE8F08F00BF7CD5CF5A3AD9E53DC1
:1048B000EB9C2B8AE6E55A3E7DFEB157E31DC73ED1
:1048C000D561C119A0012A3FA6F810111111813F2D
:1048D000495555555555C53F0000E03F00000000C3
:1048E0002DE9F04FDA4C21F00046A64287B08A4607
:1048F00089461746984683461BDC18F041FD002880
:1049000039D1109B5A4601331343334300F0A88139
:10491000109B012B00F0B1815A4653460020CD492F
:1049200018F0A8FB04460D462046294607B0BDE80E
:10493000F08FC94B9E421EDD002904DA01F10043CD
:1049400008F100489A465A465346A3A1D1E900010E
:1049500018F0AEF83A46434604460D46A0A1D1E908
:10496000000118F0A5F822462B4618F0A3F80027FE
:1049700083468A46B8465A4653465846514618F02A
:104980004FFA03460C46CDE9003402460B4618F0B8
:1049900047FADDE9002304460D465846514618F013
:1049A0003FFA91A3D3E90023CDE90201204629462D
:1049B00018F036FA8EA3D3E9002318F07BF82246CC
:1049C0002B4618F02DFA8CA3D3E9002318F072F8C7
:1049D00022462B4618F024FA89A3D3E9002318F0C5
:1049E00069F822462B4618F01BFA87A3D3E9002367
:1049F00018F060F822462B4618F012FA84A3D3E987
:104A0000002318F057F8DDE9002318F009FA82A313
:104A1000D3E90023CDE904012046294618F000FA25
:104A20007FA3D3E9002318F045F822462B4618F05F
:104A3000F7F97DA3D3E9002318F03CF822462B4672
:104A400018F0EEF97AA3D3E9002318F033F82246E0
:104A50002B4618F0E5F978A3D3E9002318F02AF8DB
:104A600022462B4618F0DCF975A3D3E9002318F091
:104A700021F802460B46DDE9040118F01BF8DDE9D8
:104A8000022318F0CDF93A46434618F013F8DDE951
:104A9000002318F0C5F93A46434618F00BF86AA30C
:104AA000D3E9002304460D46DDE9020118F0B8F908
:104AB00022462B4617F0FEFFCDE900010B460246C9
:104AC0005146584617F0F6FF634B9E4204460D468A
:104AD0003EDC109B012B36D002460B4600205D4980
:104AE00018F0C8FA00240F4606465A465346204698
:104AF000294617F0DDFFA04602460B46DDE900011E
:104B000017F0D6FF42463B4618F08AF9A9460446FC
:104B10000D4642463B464046494618F081F9002280
:104B20004E4B17F0C7FF02460B462046294617F0AA
:104B3000C1FF32463B4618F073F942463B4617F038
:104B4000B9FF04460D462046294607B0BDE8F08F60
:104B5000109818F0FBF8224606460F462B462046D2
:104B6000294618F05DF93246CDE902013B46204660
:104B7000294617F09FFF02460B46DDE9020118F0B7
:104B800079FADDE9002317F093FF02460B465846F9
:104B9000514617F08DFF02460B4617F08BFF024679
:104BA0000B463046394617F083FF04464FEAA9709A
:104BB00000F00200C0F101000D4618F0C7F80246EF
:104BC0000B462046294618F02BF904460D46204690
:104BD000294607B0BDE8F08F182D4454FB21E93F6A
:104BE000075C143326A6813CD47ABF74702AFB3E3E
:104BF000E9A7F0320FB8123F68108D1AF726303F40
:104C00001583E0FEC8DB573F93846EE9E326823FBD
:104C1000FE41B31BBAA1AB3F735360DBCB75F3BE50
:104C2000A69237A0887E143F0165F2F2D844433F34
:104C3000280356C9226D6D3F37D60684F464963F2B
:104C40007AFE10111111C13F635555555555D53F89
:104C5000FFFF2F3E0000F0BF2794E53F0000F03F2C
:104C60005846514618F09CFE02460B460020044967
:104C700018F000FA04460D4665E75C46554662E7C3
:104C80000000F03F000000002DE9F04FCA4A21F07B
:104C90000043934285B00C460E46054620D9C74ACC
:104CA000934200F2D480002E80F2A081AAA3D3E91F
:104CB00000232846214617F0FDFE0022002318F0AD
:104CC00021FB002840F0CE80A5A3D3E9002328468D
:104CD000214618F0A5F802460B460020B84990E19D
:104CE000B84A934200F2E280B74A934240F22B81E5
:104CF000002301930022B54B2846214618F090F876
:104D000006460F4602460B462846214618F088F80C
:104D100095A3D3E9002382468B4618F081F894A32B
:104D2000D3E9002317F0C6FE52465B4618F078F828
:104D300091A3D3E9002317F0BBFE52465B4618F05F
:104D40006FF88FA3D3E9002317F0B4FE52465B46F9
:104D500018F066F88CA3D3E9002317F0A9FE524699
:104D60005B4618F05DF80022994B17F0A3FE8046D1
:104D7000894602460B463046394618F051F802463D
:104D80000B460020934917F093FE064602460B4659
:104D90000F464046494617F08BFE3246804689460C
:104DA0003B462846214618F03BF802460B460020B9
:104DB000894917F07DFE02460B464046494618F0E9
:104DC00059F952465B4618F02BF8019E02460B46F5
:104DD000002E4AD0DDE9026732463B4617F068FEF6
:104DE0002A46234618F01CF832463B4617F060FE70
:104DF0005B46524617F05CFE019B013306460F46A8
:104E000000F01F81019B012B78D0019A531C392B94
:104E10004FEA025600F22481019F132F40F3518183
:104E2000019BC3F57F7A0AF1030A00224FEA0A5375
:104E300017F040FE02460B462846214617F038FE82
:104E40000022634B17F036FE731819461BE0634AC5
:104E500093421BD9C1F313030343024640F011816F
:104E6000002910DA00205E490DE02846214617F09F
:104E7000D7FF52465B4617F01BFE02460B462846FC
:104E8000214617F015FE05B0BDE8F08F40A3D3E929
:104E9000002318F055FA00283FF405AF3EA3D3E9EC
:104EA00000231046194617F0BBFFECE74D4A93422A
:104EB00000F2EB8000293AA3D3E9002339DA17F096
:104EC000F9FD39A7D7E900674FF0FF3380468946DF
:104ED000019332463B464046494617F0E9FD0246FB
:104EE0000B4605460C464046494617F0E1FD324662
:104EF0003B4617F0DDFDCDE90201FBE628462146E1
:104F00000022394B18F0FEF9002800F0CB8028462B
:104F1000214600222D4B17F0CDFD02460B463046B0
:104F2000394617F0C5FD00224FF0404317F078FFD7
:104F3000A9E717F0BDFD01238046894601931CA710
:104F4000D7E90067C5E714A3D3E9002317F0B2FD42
:104F500002460B468FE700BF59F3F8C21F6EA5014A
:104F6000FE822B654715F73F2DC3096EB7FD8ABE3C
:104F70003952E686CACFD03EB7DBAA9E19CE143F7F
:104F80008555FE19A0015A3FF41011111111A13FCE
:104F9000EF39FAFE422E86409C7500883CE4377E4D
:104FA0000000E0FE422EE63F763C7935EF39EABD5F
:104FB000763C7935EF39EA3D79684340412E8640A9
:104FC0000000E0BF422ED63FFFFF8F3C0000E03FD5
:104FD0000000F03F0000084000001840FFFFEF7F96
:104FE0000000F0BFB1A2F03F0000D0BF40A3D3E962
:104FF00000232846214617F013FF02460B460020E7
:10500000414917F057FD18F0BBF9019017F09EFECB
:1050100039A3D3E9002306460F4617F001FF0246E5
:105020000B462846214617F043FD35A3D3E900235C
:10503000804689463046394617F0F2FE06460F464E
:1050400047E732463B462846214617F031FD00220D
:105050002D4B17F0E5FE00222B4B17F029FD12E730
:105060002A46234617F024FD02460B460020274916
:1050700017F01EFD731819460022244B17F018FD77
:1050800001E70B4617F016FDFDE619A3D3E900234F
:1050900017F0C6FE002C02460B464FF00000AFDAB8
:1050A0001B49AEE732463B462846214617F000FD35
:1050B00002460B4617F0FEFC0022144B17F0FAFCD8
:1050C000E1E64FF4001C2A4623464CFA07FA17F093
:1050D000EFFCCAF17F594FF0000809F5401902466C
:1050E0000B464046494617F0E3FCADE6AFF30080BF
:1050F000FE822B654715F73F0000E0FE422EE63F9B
:10510000763C7935EF39EA3D0000E03F0000F03FA2
:105110000000E0BF00000000F8B5C1F30A530446E8
:105120000D460E4617460BBB21F00046034633439F
:105130001BD0354B002217F073FE344B9F420446C0
:105140000D4635DBC1F30A530E46363B3B4440F275
:10515000FE72934232DC002B11DD26F0FF4626F46E
:10516000E00646EA035520462946F8BD40F2FF72A4
:105170009342EBD102460B4617F09CFCF8BD13F1AD
:10518000350F28DA4CF250339F4222462B460ADD77
:1051900019A1D1E900011AF023FE17A3D3E90023D6
:1051A00017F03EFEF8BD16A1D1E900011AF018FE75
:1051B00013A3D3E9002317F033FEF8BD22462B4694
:1051C0000DA1D1E900011AF00BFE0BA3D3E90023D6
:1051D00017F026FEF8BD26F0FF4626F4E00636332B
:1051E00046EA0355204629460022094B17F018FECF
:1051F000F8BD00BFAFF300809C7500883CE4377EAB
:1052000059F3F8C21F6EA50100005043B03CFFFFE8
:105210000000903C10B5054C237833B9044B13B112
:105220000448AFF300800123237010BDC0030020A9
:10523000000000002035030808B5034B1BB10349EB
:105240000348AFF3008008BD00000000C403002045
:105250002035030870B504460E4600F043FA88B1C5
:105260000368DB6A05469847082C0CD0A4F10903B3
:10527000012B14D93246214610230D20BDE8704081
:1052800004F074B870BD2B6828465B6A9847022802
:10529000F0DC2B6828461B6A04219847EAE72B6854
:1052A00028465B6A98470528E4DC2B6828461B6A79
:1052B00008219847DEE700BF38B52DED028B054683
:1052C00000F010FA044640B10368DB6A9847032DEA
:1052D00003D8DFE805F02F363D06BDEC028B002039
:1052E00038BD20460CF03AFF07EE900A2046F8EE53
:1052F000E78A0CF041FF07EE900A2046B8EEE78AF5
:105300000CF048FF68EE087A07EE100AE8EEA87A7B
:10531000B8EEC77AE7EE077AF5EE407AF1EE10FACA
:10532000B1EEE78A1BD4FDEEC87ABDEC028B17EE16
:10533000900A38BDBDEC028B2046BDE838400CF029
:105340000DBFBDEC028B2046BDE838400CF014BF09
:10535000BDEC028B2046BDE838400CF01BBF17EEB9
:10536000900A19F049FADEE738B5044600F0BAF9B8
:1053700058B10368DB6A0546984744B1012C04D153
:105380002846BDE83840FBF7DBBA002038BD284688
:10539000BDE83840FBF7B4BA10B5044600F0A2F9F6
:1053A00028B1036821461B6ABDE81040184710BDAC
:1053B0000048704716FCFFFF704700BF10B5034B55
:1053C000036004460CF0C6FC204610BDCC1E03084A
:1053D00010B5054B036004460CF0BCFC20461BF0E6
:1053E0002EF9204610BD00BFCC1E03082DE9F04168
:1053F0004FF0FF3184B00546462001F0D3FC682809
:105400000CBF33210321512001F0CCFCDFF8D0C2C6
:10541000A84B044604F00F06C4F3031714F4807479
:1054200008BF6346A44831463A460BF083FE221C6F
:1054300018BF012231463B4628460FF06FFB002380
:10544000AB609E480BF076FE4FF0FF31032001F079
:10545000A9FC04F0E9FE4FF0FF310446022001F000
:10546000A1FC04F0E1FE002C39D0002837D0014621
:10547000204604F07DFB0646002849D0382146200E
:1054800001F090FC322804464BD048DD382800F06B
:10549000AC8068285BD14FF0FF31012001F082FC25
:1054A00004F0C2FE80465C201BF0D2F80523019375
:1054B0004246009431462B4607460EF017FBAF607C
:1054C0003B6838469B6A9847A8680368DB6A984738
:1054D0007B480BF02FFE284604B0BDE8F0817948E8
:1054E0000BF028FE4FF0FF31192001F05BFC04F0B7
:1054F0009BFE4FF0FF310446182001F053FC04F0EE
:1055000093FE0146204604F033FB06460028B5D141
:105510006D480BF00FFE284604B0BDE8F08130283E
:1055200015D14FF0FF31012001F03CFC04F07CFE6E
:10553000804650201BF08CF8A4B207460523019347
:105540004246009431462B460EF07AF8B7E7012424
:105550003268CDE900440023576AAB600F220DF199
:105560000F0332213046B847002800F081803368AD
:10557000CDE900440F225F6A30210DF10F03304660
:10558000B847002848D03368CDE900440D225F6A4F
:1055900038210DF10F033046B84700286ED032682D
:1055A000CDE900440DF10F03576A6821752230469A
:1055B000B847002842D1682144480BF0BBFD4FF0AA
:1055C000FF31204601F0EEFB04F02EFE80465C2009
:1055D0001BF03EF805246823CDE9003442463146ED
:1055E0002B4607460EF082FA69E74FF0FF310120A3
:1055F00001F0D8FB04F018FE804650201BF028F87C
:1056000005230746019342462B46009431460EF08F
:105610004DF92F4B3B6052E730212C480BF08AFDAF
:1056200030244FF0FF31012001F0BCFB04F0FCFD01
:10563000804650201BF00CF807467FE725480BF00A
:1056400079FDAF68002F7FF43BAF4FF0FF310320AF
:1056500001F0A8FB04F0E8FD30B11F480BF06AFD33
:10566000284604B0BDE8F0811C480BF063FD52E70A
:10567000322116480BF05EFD3224D2E73821134860
:105680000BF058FD4FF0FF31204601F08BFB04F08A
:10569000CBFD804650201AF0DBFF05243823074657
:1056A000CDE9003442462B4631460EF0FFF8084B58
:1056B0003B6004E7840F0308940F0308B40F03084A
:1056C00074100308C40F0308D80F0308041003085C
:1056D000500F0308F00F03081810030854100308B4
:1056E0008C0F030838B5104C23680BB1986838BD8F
:1056F0004FF0FF31012001F055FB04F095FD40B162
:105700000C201AF0A5FF0546FFF770FE2560A8687B
:1057100038BD4FF0FF31032001F044FB04F084FD5D
:105720000028EDD138BD00BFDC03002008B501F032
:105730006BFCFBF795FEBDE8084001F0C5B900BF62
:1057400008B501F061FCFBF7FBFEBDE8084001F085
:10575000BBB900BF08B501F057FC18F097F9BDE8D8
:10576000084001F0B1B900BF08B501F04DFC18F0D8
:105770000BFFBDE8084001F0A7B900BF08B501F074
:1057800043FCFBF77DFEBDE8084001F09DB900BF7A
:1057900008B501F039FC18F0A7FBBDE8084001F09E
:1057A00093B900BF08B501F02FFCFBF7E9F8BDE89D
:1057B000084001F089B900BF08B501F025FC18F0D8
:1057C000E9FABDE8084001F07FB900BF70B5049E5A
:1057D00096420C4624DB15466BB9042A19D0022ADE
:1057E00002D110F0010310D001462A46204608F0ED
:1057F00061FB002070BD10440D4410F8013D01F81C
:10580000013B8D42F9D1002070BD02880A80184604
:1058100070BD10F00303E7D102680A60184670BD3E
:105820000846002109F0D8FC4FF0FF3070BD00BFE2
:105830000830704740B1002905DB43688B4202DD28
:105840000844007A70470020704700BF30B100293B
:1058500004DB43688B42C4BF40180272704700BF2C
:1058600040B1002905DB4368994202DA0844007A16
:1058700070470020704700BF830704D1030F0CBF9F
:105880000120002070470120704700BF30B100297F
:1058900004DB43689942BCBF40180272704700BFE6
:1058A000F8B5002B20DB00291EDB46688E421BDB8F
:1058B0005468761AE51AB542A8BF3546002D13DBA9
:1058C000824202F108070C4600F108062A4605D07C
:1058D000F918301908F0EEFA0020F8BDF11838195F
:1058E0001AF0E9FE0020F8BD4FF0FF30F8BD00BF10
:1058F0004068704710B4141E10DB4268A2420DDBF2
:1059000033EA230328BF1346121B08309A4220446F
:10591000A8BF1A465DF8044B09F05EBC5DF8044B65
:10592000704700BF10B443688B4200F1080418466A
:10593000A8BF084632EA220128BF19461B1A99421D
:105940002044A8BF19465DF8044B00F0B5BE00BF67
:1059500070B5002BBCBF43689B1A002A0E4620DBA3
:1059600044689918A1421CDC91421ADBCBB136F095
:10597000004116D05942B14214DAB34212DD083068
:10598000002E00EB020515DB9C1B2246A9192846B8
:105990001AF091FE324628190021BDE8704009F046
:1059A0001BBC70BD002211464FF0FF33BDE87040B4
:1059B000FFF7A0BF74429A19294628191AF07BFEF6
:1059C000224628460021BDE8704009F005BC00BF12
:1059D00003460830596800F0EBBD00BF70B50546BE
:1059E00000206968490000F069FD6B68002B14DD38
:1059F0000A4EEB1D02465C782411991F345D9471A8
:105A00005C7804F00F04491B345DD4716C688C42DF
:105A100002F1020203F10103EDDC70BD8410030802
:105A2000002BBCBF43689B1A002A30DB70B445686A
:105A30009C18AC4229DC944227DB33B331F000449C
:105A400023D00029B8BF01EB032191FBF3F403FB42
:105A50001411002900F10800B8BFC918024411440C
:105A60008A42134411D00C4604E08A4204460FD007
:105A700094420AD02046157810F8016B02F8016BA9
:105A800083422570F1D10C46F2E770BC7047704735
:105A90000146EDE700B583B04FF0FF3300930023DC
:105AA000FFF7FEFE03B05DF804FB00BF10B50C1E4F
:105AB0000EDD4168083002F0CFF81F2C07DC01230F
:105AC000A34020FA04F4013B444004EA030010BD63
:105AD000002010BD0146002000F0EEBD38B50021C9
