:10000000000002205D690100856901008769010027
:10001000896901008B6901008D6901000000000001
:100020000000000000000000000000008F690100D7
:1000300091690100000000009369010095690100C9
:100040009769010097690100FD670100C167010020
:10005000D56701009769010069580100A96F010087
:10006000C5630100CD630100D563010097690100FC
:10007000976901009769010097690100976901007C
:10008000976901009769010097690100976901006C
:10009000976901009769010097690100976901005C
:1000A0009769010097690100DD630100E5630100C4
:1000B000976901009769010000000000000000003E
:1000C000976901009769010097690100E9670100DC
:1000D000976901009769010097690100976901001C
:1000E0002568010000000000000000000000000082
:1000F0000000000097690100000000001168010085
:1001000000000000000000000000000000000000EF
:1001100000000000000000000000000000000000DF
:1001200000000000000000000000000000000000CF
:1001300000000000000000000000000000000000BF
:1001400000000000000000000000000000000000AF
:10015000000000000000000000000000000000009F
:10016000000000000000000000000000000000008F
:10017000000000000000000000000000000000007F
:10018000000000000000000000000000000000006F
:10019000000000000000000000000000000000005F
:1001A000000000000000000000000000000000004F
:1001B000000000000000000000000000000000003F
:1001C000000000000000000000000000000000002F
:1001D000000000000000000000000000000000001F
:1001E000000000000000000000000000000000000F
:1001F00000000000000000000000000000000000FF
:100200002DE9F04F85B003910778A7F10903042B7E
:10021000044607F07F0200F10100F5D9202AF3D04F
:100220002B2F04BF677804462D2F75D09FED427B9E
:100230008DED007B4FF000084FF000099FB34FF0A9
:10024000000C25464FF0000ADFF8FCB0644619E0C8
:1002500019F0DAFD80468946304619F06BFD4246BA
:100260004B4619F01BFC5246804689465B46DDE949
:1002700000013CB319F0F2FECDE90001A44615F8E7
:10028000017F7FB1A7F13006092E52465B464046FA
:100290004946DDD9CCB92E2F17D115F8017F01249D
:1002A000002FEFD12C4642464B46DDE9000119F004
:1002B000ABFD80468946039B404649461C6005B01D
:1002C000BDE8F08F4FF0010CD9E72C46BCF1000FD0
:1002D00029D042464B46DDE9000119F095FD07F0B3
:1002E000DF07452F80468946E5D10399681C0A221D
:1002F00019F0B8FB1449024600201AF035F90246FD
:100300000B464046494619F07FFD804689464046E7
:10031000494605B0BDE8F08F9FED097B67788DED0C
:10032000007B013486E7DFF824904FF00008404658
:10033000494605B0BDE8F08F000000000000F03F26
:10034000000000000000F0BF000024400000F87F23
:100350002DE9F0470023144600228046894619F013
:10036000C5FF28B109F1004399462D2323700134BC
:10037000002200234046494619F0AEFF28B1302242
:10038000002322706370BDE8F0874046494618F0AC
:10039000ADF819F0E9FF73A3D3E9002307464946F6
:1003A000404619F0A3FF00284ED170A3D3E90023E3
:1003B0004046494619F0B8FF002845D10E2F07F1F5
:1003C000010540F3B980A7F10E06324600206249CC
:1003D0001AF0CAF802460B464046494619F03EFE5E
:1003E00000225E4B19F05AFB1AF0FAF8002DA7F123
:1003F0000F0E4FF0010C4DDD594FDFF878810122CF
:1004000045F6F3294FF02E0A494508BF40454FF005
:1004100030030AD3B0EB080061EB0901494508BF7E
:10042000404503F10103F5D2DBB2237050EA01032A
:1004300004F101084AD1954252DD0132102A4FD011
:10044000444677E90289DFE7002F33DB3A46002094
:1004500041491AF089F802460B464046494619F0D0
:10046000FDFD3BA3D3E900238046894601250026F4
:100470004046494619F0C8FC0022384B19F00EFBE3
:100480001AF0AEF8002DBC464FF0FF3E37464FF055
:100490000006B1DC234630224FF02E0803F8022B71
:1004A00084F80180FC4345D01C4403F8012BA3428F
:1004B000FBD1A1E77A42002027491AF055F80246FD
:1004C0000B464046494619F09FFCCAE7954202F1A7
:1004D000010204BF84F801A004F10208102AAFD180
:1004E0006EB14246302102F8011BC2F10103734490
:1004F0004344002BF7DC2EEAEE7301339844BCF141
:10050000010F12D0BCF1000F4FF0650388F80030E6
:10051000C5BF2B2388F8013008F1010108F1020161
:100520006046BDE8F04710F051BA002388F800306B
:10053000BDE8F0871C465FE7C7F10E0200200649C0
:100540001AF012F83E4602460B46012790E700BF1C
:100550000000901EC4BCD642000024400000E03FD2
:1005600008B101008DEDB5A0F7C6B03E50EFE2D660
:10057000E41A4B4400407A1070B54FF0FF3006F09B
:1005800057FA04466FF07F4006F052FA06462046BE
:1005900019F0C0FB00220C4B19F036FC0446304623
:1005A0000D4619F0B7FB06A3D3E9002319F056FD59
:1005B00002460B462046294619F070FA70BD00BF6E
:1005C0000000E0DFFFFF6F430000F03D000000008F
:1005D0002DE9F04F1D461389AB4288BF536885B0A3
:1005E00004468CBF53F82500002090468A4606F04A
:1005F00093FE0022904B19F007FC19F0B5FEB8F8F5
:1006000008206B1C9A4288BFD8F8042006468CBF8D
:1006100052F82300002006F07FFE0022864B19F0DE
:10062000F3FB19F0A1FEB8F808300235AB4288BFE1
:10063000D8F8043007468CBF53F82500002006F098
:100640006BFE002EC4E9006740F3E280002F40F308
:10065000DF8071A3D3E90023002584F8285017F028
:1006600067FE002200238046894619F03FFE40B114
:100670004046494668A3D3E9002319F00FFA8046A3
:10068000894667A3D3E900234046494619F04CFE4A
:10069000C0B165A3D3E900234046494619F030FEB6
:1006A00080B101234046494684F8283060A3D3E94D
:1006B000002319F0F3F958A3D3E9002317F038FE0B
:1006C0008046894600225D4B4046494619F09CFB16
:1006D00017F062FB01F1004300221946564B19F056
:1006E00093FB19F041FE49460546404617F010FBC2
:1006F0000022514B19F088FB19F036FEDAF804306D
:100700004F49B3F80CB0B3F80AA0A56007FB0BF390
:1007100003EB010806FB0AF6019388FB05234FEA69
:10072000124C00960E444CEA034C06EA010383FB8C
:10073000009A06EB0C0E0EEA010ED346CA468EFB5B
:1007400000675246CDE90267120C42EA0B42DDE92E
:1007500002AB0CEA010C8CFB00674FEA16495646C7
:100760000A40360C46EA0B4649EA074982FB05ABCC
:100770005F46C144B0445646CDE90267039FE0603E
:10078000360C09EA010908EA010846EA074689FB2E
:1007900005AB334488FB0556CDE9025655462D0C72
:1007A00045EA0B45DDE902AB0B40AC4403EAE377D5
:1007B0000CEA010C554623EAE37367454FEA1545F9
:1007C00002EAE276A8BF674645EA0B45634522EA9E
:1007D000E272B8BF6346AE444E450EEA010EA8BFB2
:1007E0004E464A45B8BF4A467745A8BF7746734547
:1007F000B8BF73464645A8BF4646C4E905634245AF
:10080000B8BF424600980199206261622761E261A7
:10081000204605B0BDE8F08FEA2E4454FB21194074
:10082000F4D64354FB21F93F320D337F7CD912407B
:10083000EA2E4454FB2109400000F0400000E03F54
:100840000000FFFF000000002DE9F04F2DED028BAE
:10085000044683B0C06819F06DFA80462069894665
:1008600019F068FA824660698B4619F063FA02460D
:1008700001F1004306460F464046494617F0EAFCA0
:1008800019F0BAFDE062054617F09CFB019028467E
:1008900017F04CFB019B0546184619F05DFA4246DD
:1008A0004B4619F0B1FA80462846894619F054FAA9
:1008B00032463B4619F0A8FA02460B4640464946E6
:1008C00019F0EAF802460B465046594617F0C2FCAA
:1008D00019F092FD002208EE100A00233046394636
:1008E00019F022FD28B3B5EEC08AF1EE10FA1CDD36
:1008F00011A7D7E9006718EE100A19F02DFA024681
:100900000B463046394619F0C7F832463B4619F0D7
:10091000C5F819F071FDA062E38843F00203E3809B
:1009200003B0BDEC028BBDE8F08F05A7D7E90067E7
:10093000E1E784ED0A8AEFE7EA2E4454FB21F93F10
:10094000EA2E4454FB21F9BF494A21F00043934267
:100950002DE9704304460D4649DC464A93420E4653
:100960000EDC3FA3D3E9002319F098F80022424B94
:1009700019F0DAFC00284AD020462946BDE87083E9
:100980003E4A934239DCB3F1804F40DD17F0BCF9A9
:100990002246804689462B462046294619F034FADD
:1009A0000022354B19F07AF818F04AF842464B46C7
:1009B00019F074F802460B4600202F4919F04EFB3F
:1009C000424604460D464B464046494619F066F8F5
:1009D00002460B462046294619F060F802F040F81E
:1009E000002E08DC01F100431946BDE87083024681
:1009F0000B4619F053F8BDE8708317F085F902F043
:100A00002FF819A3D3E9002319F048F8E8E72246A4
:100A10002B462046294619F0F7F98046894620469C
:100A2000294617F071F9002204460D46124B404644
:100A3000494619F033F818F003F800220E4B19F06C
:100A40002DF802460B464046494619F007FB224660
:100A50002B4619F023F800F0A7FAC1E7AFF30080A6
:100A60009C7500883CE4377EEF39FAFE422EE63F63
:100A7000FFFFEF7FFFFF2F3E0000F03F0000B0417F
:100A80002DE9F84FBE4B21F000469E4204460D462C
:100A90008A460EDDBB4B9E4200F3B18000F0AC8075
:100AA000BAF1000F40F3EA8099A1D1E90001BDE855
:100AB000F88FB54B9E4200F3BA80A3F1DE739E42DD
:100AC00040F3A5804FF0FF3B22462B4620462946A7
:100AD00019F09AF902460B468046894619F094F9B6
:100AE0008DA3D3E9002306460F4619F08DF98CA398
:100AF000D3E9002318F0D2FF32463B4619F084F9BF
:100B000089A3D3E9002318F0C9FF32463B4619F008
:100B10007BF987A3D3E9002318F0C0FF32463B4698
:100B200019F072F984A3D3E9002318F0B7FF324615
:100B30003B4619F069F982A3D3E9002318F0AEFF10
:100B400042464B4619F060F97FA3D3E90023804663
:100B500089463046394619F057F97DA3D3E9002379
:100B600018F09AFF32463B4619F04EF97AA3D3E9C2
:100B7000002318F091FF32463B4619F045F978A35F
:100B8000D3E9002318F088FF32463B4619F03CF9C0
:100B900075A3D3E9002318F07FFF32463B4619F0D6
:100BA00033F902460B464046494618F077FF224685
:100BB0002B4619F029F9BBF1FF3F02460B4661D0E5
:100BC000724B734E4FEACB0B5B44D3E9002318F012
:100BD00063FF22462B4618F05FFFB34402460B46E4
:100BE000DBE9000118F058FFBAF1000F0DDA01F14E
:100BF00000431946BDE8F88F00283FF451AF224664
:100C00002B462046294618F049FFBDE8F88F58A327
:100C1000D3E9002318F042FF00225E4B19F084FB59
:100C200000283FF44FAF20462946BDE8F88F17F063
:100C30006BF8594B9E4204460D4629DCA3F5502320
:100C40009E424EDC02460B4618F028FF0022514B14
:100C500018F022FF002206460F464FF08043204640
:100C6000294618F01BFF02460B463046394619F05C
:100C7000F5F94FF0000B04460D4625E73EA1D1E9FA
:100C80000001C2E72046294618F006FFBDE8F88FAC
:100C9000424B9E421ADC0022414B18F0FDFE00221E
:100CA00006460F463E4B2046294619F0ADF8002275
:100CB000384B18F0F3FE02460B463046394619F021
:100CC000CDF94FF0020B04460D46FDE602460B46F9
:100CD0000020344919F0C2F94FF0030B04460D46C9
:100CE000F2E600222B4B18F0D7FE002206460F46F4
:100CF000284B2046294618F0D1FE02460B463046C6
:100D0000394619F0ABF94FF0010B04460D46DBE60E
:100D1000182D4454FB21F93F11DA22E33AAD903FFC
:100D2000EB0D76244B7BA93F513DD0A0660DB13F22
:100D30006E204CC5CD45B73FFF8300922449C23F8A
:100D40000D5555555555D53F2F6C6A2C44B4A2BF4F
:100D50009AFDDE522DDEAD3F6D9A74AFF2B0B33F17
:100D6000711623FEC671BC3FC4EB98999999C93F8F
:100D70009C7500883CE4377E182D4454FB21F9BF54
:100D8000FFFF0F440000F07FFFFFDB3F30B10100A9
:100D900010B101000000F03FFFFFF23FFF7F034072
:100DA0000000F83F0000F0BF2DE9F041C1F30A5701
:100DB000A7F2FF35132D02460B460C468846064621
:100DC00020DC002D4ADB364F2F4101EA070C5CEA9C
:100DD000000C1CD030A3D3E9002318F05FFE0022E2
:100DE000002319F0A1FA48B1002C04DD4FF4801360
:100DF00043FA05F5A84428EA0704002621463046B0
:100E0000BDE8F081332D06DDB5F5806F38D0104692
:100E10001946BDE8F081A7F213474FF0FF3C2CFACA
:100E200007F70742F3D01CA3D3E9002318F036FEDE
:100E30000022002319F078FA0028DFD0002C09DD09
:100E4000142D22D00123C5F1340503FA05F5AE199E
:100E500028BF984426EA07064446CFE70EA3D3E905
:100E6000002318F01BFE0022002319F05DFA002871
:100E7000C4D0002C0CDB264305D00026094CBDE76E
:100E800018F00CFEC5E73446B8E704F10108E1E7C5
:100E900000264FF00044B1E79C7500883CE4377EA3
:100EA000FFFF0F000000F03F2DE9F041C1F30A57AA
:100EB000A7F2FF35132D02460B460C468846064620
:100EC0001DDC002D3CDB364F2F4101EA070C5CEAAC
:100ED000000C19D030A3D3E9002318F0DFFD002265
:100EE000002319F021FAC8B3002C04DA4FF4801360
:100EF00043FA05F5A84428EA070400262EE0332D1E
:100F000006DDB5F5806F2DD010461946BDE8F0819D
:100F1000A7F213474FF0FF3C2CFA07F70742F3D034
:100F20001DA3D3E9002318F0B9FD0022002319F016
:100F3000FBF998B1002C21DB26EA070644460DE0B8
:100F400015A3D3E9002318F0A9FD0022002319F00E
:100F5000EBF918B1002C08DB002634462146304658
:100F6000BDE8F08118F09AFDD0E724F000430D4A67
:100F70001E43002E18BF14460026EFE7142D08D09C
:100F80000123C5F1340503FA05F5AE1928BF9844CD
:100F9000D2E704F10108CFE79C7500883CE4377E76
:100FA000FFFF0F000000F0BF2DE9F04FD84B994232
:100FB00087B08046894643DDD64B99420E4600F302
:100FC000F480D54B994240F32D819FEDBB7B8DED95
:100FD000047B4FEA215A0446AAF2FF3ACF4BC6F3EC
:100FE00013069E4246F07F5500F3128145F44015EA
:100FF000204629460022CA4B18F04EFD0022044626
:101000000D46C84B18F000FF22462B4618F0FCFE98
:10101000A046CDE90201A946CDE90001002E3AD152
:10102000002200232046294619F056F9002800F036
:101030001B81BAF1000F40F0858100200021B8E04B
:10104000B94B21F000449C420A460FDD0022B74B09
:1010500019F042F9002800F0AF80002200230020A0
:10106000B34918F0FBFF07B0BDE8F08FB14B9C42CD
:1010700040F3AF80B04B1A449A4240F2D380002232
:10108000A84B18F0C1FE42464B4618F0BDFECDE914
:1010900000014FF0000A00224FF0804340464946CD
:1010A00018F0FCFC02460B464046494618F0D6FFB5
:1010B00002460B4606460F4618F0A6FE80A3D3E96B
:1010C000002304460D4618F09FFE7FA3D3E90023BA
:1010D00018F0E4FC22462B4618F096FE7CA3D3E9D8
:1010E000002318F0DBFC22462B4618F08DFE7AA375
:1010F000D3E9002318F0D2FC22462B4618F084FED8
:1011000077A3D3E9002318F0C9FC22462B4618F038
:101110007BFE75A3D3E9002318F0C0FC22462B46C2
:1011200018F072FE72A3D3E9002318F0B7FC224630
:101130002B4618F069FEDDE9002318F0AFFC3246BB
:101140003B4618F061FE04460D46BAF1000F00F070
:10115000A880504618F0EEFD67A3D3E9002382462D
:101160008B4618F051FE66A3D3E9002306460F46CE
:101170005046594618F048FEDDE9042318F08EFC6D
:1011800022462B4618F08AFC02460B46DDE9000198
:1011900018F082FC42464B4618F07EFC02460B4695
:1011A0003046394618F078FC03E002460B4618F04A
:1011B00075FC07B0BDE8F08F42464B4640464946B5
:1011C00018F06AFC02460B4618F048FF07B0BDE86D
:1011D000F08F0022594B18F061FC0022002319F017
:1011E000A3F810B1564B9C4262DD42464B46404646
:1011F000494618F009FE00224A4B18F005FE024647
:101200000B464046494618F047FC07B0BDE8F08F52
:1012100045F40015C6F5801620462946B6100AF199
:10122000010AE7E600223E4B4046494618F036FCEC
:101230004FEA215AAAF2FF3ABAF1000F04460D46CE
:101240000E4640F3BD8042464B4618F025FC024650
:101250000B460020324918F01FFC22462B4618F09E
:10126000FDFECDE90401B9E627A3D3E9002320461A
:10127000294618F0C9FD02460B460020284918F0FF
:101280000BFCDDE9022318F0BFFD06460F46BAF15C
:10129000000F75D102460B462046294618F0FCFB8C
:1012A00087E702460B46DDE9000118F0F5FBA6E7EB
:1012B000404649467DE700BF0000000000000000F6
:1012C00044523EDF12F1C23F9FC678D0099AC33F15
:1012D000DE03CB966446C73FAF788E1DC571CC3F09
:1012E000599322942449D23F04FA97999999D93F66
:1012F000935555555555E53F0000E0FE422EE63F1B
:10130000763C7935EF39EA3D555555555555E53F0C
:101310007982DA3FFFFFEF7FFFFF3F439DA006008A
:101320000000F03F0000E03FFFFFEF3F0000F0BF94
:10133000000050C3FFFF1F3E3C412D4000005043C2
:10134000FFFF8F3C504618F0F5FC24A3D3E900239F
:1013500006460F4618F058FDDDE9042318F09EFB01
:1013600020A3D3E9002304460D463046394618F041
:101370004BFD02460B462046294618F08FFB18E726
:10138000504618F0D7FC17A3D3E9002382468B46BA
:1013900018F03AFD11A3D3E9002380468946504650
:1013A000594618F031FDDDE9042318F077FB0246B9
:1013B0000B463046394618F06FFB22462B4674E741
:1013C0000022054B18F068FB02460B464046494692
:1013D00018F062FB41E700BF0000F03F763C793532
:1013E000EF39EA3D0000E0FE422EE63F000000003B
:1013F00008B516F0FDFF04A3D3E9002318F02EFE74
:1014000008BD00BFAFF30080EF39FAFE422EE63F81
:101410002DE9F043DFF8B4808BB004460D4601F0AF
:10142000F7F898F90030013306460F462CD02246D3
:101430002B462046294618F081FF814620BB2046D6
:10144000294616F061FC1FA3D3E9002318F06CFFB6
:10145000D0B1194A98F90030CDF820900321CDE998
:101460000445CDE90245CDE9001293B113490020AE
:10147000022BCDE9060111D118F09CFA222303605A
:10148000089B9BB9DDE90667304639460BB0BDE8DD
:10149000F0830B4B4FF06042CDE90623684618F00D
:1014A00005F90028E8D0089B002BEBD018F082FA51
:1014B000089B0360E6E700BF7CC401000000F07FEA
:1014C000FFFFEF477DF8B98FCE3386400F02002033
:1014D0002DE9F043DFF8E4808BB004460D4601F0BF
:1014E00047F998F90030013306460F4633D02046BD
:1014F000294618F0D5F870B32CA3D3E90023204671
:10150000294618F011FF814650BB2AA3D3E90023D6
:101510002046294618F0EAFEE8B198F90030204A42
:10152000CDF82090002000210426022BCDE90445AF
:10153000CDE902450096CDE90601019229D0684621
:1015400018F0B4F828B3089B1BB118F033FA089BC5
:101550000360DDE90667304639460BB0BDE8F0832D
:101560000F4A98F90030019203210022CDE9044589
:10157000CDE90245009108922BB90A4B4FF0604229
:10158000CDE90623DBE708490020022BCDE906015F
:10159000D5D118F00FFA22230360D4E7AFF300800F
:1015A00084C40100FFFFEF470000F07FEF39FAFE2F
:1015B000422E864051302DD5104987C00F020020A1
:1015C0002DE9F04FDFF82C938DB006460F461446F8
:1015D0001D4601F09DFC99F90080B8F1FF3FCDE96F
:1015E000000136D022462B462046294618F0A6FE9A
:1015F000834670BB32463B463046394618F09EFE65
:101600008246002840F0A28030463946002200235E
:1016100018F062FE10B3002200232046294618F07D
:101620005BFE8346002867D09FEDA77B0122AC4B71
:10163000CDF828A00292CDE90467CDE906458DEDED
:10164000087B0393B8F1000F41D09FEDA17B8DED96
:10165000007BDDE900010DB0BDE8F08FDDE90001A0
:1016600018F01EF88046002800F08D804FF0000A28
:101670004FF0000BDDE9000152465B4618F02CFEEE
:101680000028E6D03046394618F00AF80028E0D0A5
:101690002046294618F004F80028DAD099F90030DD
:1016A0008F4A039204210022022BCDE90467CDE981
:1016B0000645CDE908AB02910A9203D002A817F0C3
:1016C000F5FF50B918F076F92223036005E002A86F
:1016D00017F0ECFF002800F09B800A9B1BB118F06C
:1016E00069F90A9B03609DED087B8DED007BDDE9C8
:1016F00000010DB0BDE8F08F2046294617F0D0FF5D
:101700000028A6D0002200232046294618F0EEFD2E
:1017100000289ED0724A99F90030CDF828B00121F6
:10172000CDE90467CDE90645CDE90212002B74D05E
:101730006C490020022BCDE9080172D118F03AF96A
:10174000212303600A9B002BCDD0C8E70022002391
:101750002046294618F0C0FD00283FF47AAF624BBE
:101760005F49CDF828B000220120B8F1020FCDE981
:1017700004670290CDE90645CDE908230391A6D17F
:10178000CDE9002365E73046394617F089FF002888
:101790003FF46CAF2046294617F082FF00283FF443
:1017A00065AFDDE900231046194618F0C7FD99F929
:1017B00000A000286BD10323DFF824C10A9029463A
:1017C000204602930022494BCDF80CC0CDE90645D6
:1017D000CDE9046718F018FB04460D46BAF1000F76
:1017E00025D1DFF814B14FF0604A002200233046C3
:1017F0003946CDE908AB18F079FD38BB02A817F0DF
:1018000055FF00289ED118F0D5F82223036099E7F0
:1018100018F0D0F8212303605FE79FED2B7B8DED5F
:10182000087B02A817F042FF00288BD186E79FEDC6
:101830002A7B00220023304639468DED087B18F0C4
:1018400055FDA0B9BAF1020FDDD0D7E720462946F1
:1018500017F034FF22462B4618F03EFDA0B9244B6A
:1018600099F900A04FF06042CDE90823EAE720464D
:10187000294617F023FF22462B4618F02DFD18B9F4
:10188000184B0022CDE9082399F900A0DAE70122DC
:10189000134BCDF828800292CDE90467CDE90645C7
:1018A0000393BAF1000FB8D0002200231046194666
:1018B00018F0D4FBBAF1020FCDE908013FF43EAFB6
:1018C000AFE700BFAFF300800000000000000000A1
:1018D000000000000000F03F000000000000F07F6A
:1018E0009CC401000000F0FF0000F03F0000E03F5A
:1018F000FFFFEFC70F020020FFFFEF4700000000CF
:101900002DE9F84FC44E21F00043B34204460D4682
:101910000DDD03F1404303F58013034340F0B9802C
:10192000002940F3408100200021BDE8F88FBB4E24
:10193000B34208DCBA4A934200F3B5809CA1D1E9D6
:101940000001BDE8F88F0029C0F2708102460B4605
:101950000020B44918F0A0F80022B34B18F054FA54
:1019600004460D4617F06CF893A3D3E9002389468B
:1019700080462946204618F047FA91A3D3E9002370
:1019800018F08CF822462B4618F03EFA8EA3D3E9C5
:10199000002318F081F822462B4618F035FA8CA364
:1019A000D3E9002318F07AF822462B4618F02CFAD7
:1019B00089A3D3E9002318F06FF822462B4618F0CC
:1019C00023FA87A3D3E9002318F068F822462B46B0
:1019D00018F01AFA84A3D3E9002382468B462046E6
:1019E000294618F011FA82A3D3E9002318F054F81D
:1019F00022462B4618F008FA7FA3D3E9002318F0FB
:101A00004DF822462B4618F0FFF97DA3D3E90023B9
:101A100018F042F822462B4618F0F6F90022814BC6
:101A200018F03CF802460B465046594618F016FB93
:101A300042464B4618F0E8F9002682468B4632466D
:101A40004B463046494618F0DFF902460B46204621
:101A5000294618F021F8324604460D464B464046CA
:101A6000494618F01BF802460B462046294618F056
:101A7000F5FA02460B465046594618F00FF8324622
:101A80004B4618F00BF802460B4618F007F8BDE875
:101A9000F88F02460B4617F0FFFF02460B4618F080
:101AA000DDFABDE8F88F02460B4618F0ADF942A307
:101AB000D3E9002306460F4618F0A6F940A3D3E960
:101AC000002317F0EBFF32463B4618F09DF93EA38A
:101AD000D3E9002317F0E0FF32463B4618F094F9B3
:101AE0003BA3D3E9002317F0D9FF32463B4618F059
:101AF0008BF939A3D3E9002317F0CEFF32463B46DA
:101B000018F082F936A3D3E9002317F0C7FF324655
:101B10003B4618F079F934A3D3E90023804689467F
:101B20003046394618F070F931A3D3E9002317F095
:101B3000B3FF32463B4618F067F92FA3D3E90023E1
:101B400017F0ACFF32463B4618F05EF92CA3D3E900
:101B5000002317F0A1FF32463B4618F055F900224A
:101B6000304B17F09BFF02460B464046494618F0A3
:101B700075FA22462B4618F047F902460B4622A179
:101B8000D1E9000117F088FF02460B46204629469E
:101B900017F082FF02460B4605A1D1E9000117F0BC
:101BA0007BFFBDE8F88F1AA1D1E9000179E700BFFA
:101BB000182D4454FB21F93F09F7FD0DE13D023F8B
:101BC00088B20175E0EF493F3B8F68B52882A43F9A
:101BD0005544880E55C1C93F7D6FEB0312D6D43FE3
:101BE000555555555555C53F82922EB1C5B8B33F91
:101BF00059018D1B6C06E63FC88A599CE52A0040B6
:101C00004B2D8A1C273A0340075C143326A6913CCF
:101C1000182D4454FB210940FFFFEF3FFFFFDF3F3A
:101C20000000603C0000F03F0000E03F00225C4B01
:101C300017F034FF00225B4B18F0E6F840A3D3E91D
:101C4000002304460D4618F0DFF83FA3D3E9002334
:101C500017F024FF22462B4618F0D6F83CA3D3E910
:101C6000002317F019FF22462B4618F0CDF83AA3AF
:101C7000D3E9002317F012FF22462B4618F0C4F8D0
:101C800037A3D3E9002317F007FF22462B4618F0AD
:101C9000BBF835A3D3E9002317F000FF22462B46FB
:101CA00018F0B2F8804689462046294616F0C8FE4C
:101CB0002FA3D3E9002306460F462046294618F0F5
:101CC000A3F82DA3D3E9002317F0E6FE22462B4606
:101CD00018F09AF82AA3D3E9002317F0DFFE224672
:101CE0002B4618F091F828A3D3E9002317F0D4FE6F
:101CF00022462B4618F088F80022294B17F0CEFE1A
:101D000002460B464046494618F0A8F932463B4683
:101D100018F07AF81EA3D3E9002317F0BDFE32466F
:101D20003B4617F0BBFE02460B4617F0B7FE0246D5
:101D30000B4619A1D1E9000117F0AEFEB1E600BFD4
:101D400009F7FD0DE13D023F88B20175E0EF493F23
:101D50003B8F68B52882A43F5544880E55C1C93FC2
:101D60007D6FEB0312D6D43F555555555555C53F9C
:101D700082922EB1C5B8B33F59018D1B6C06E63F68
:101D8000C88A599CE52A00404B2D8A1C273A0340FB
:101D9000075C143326A6913C182D4454FB210940BE
:101DA0000000F03F0000E03F414A91422DE9F84336
:101DB00004460D4637DD3F4A91420B4608DD02F1ED
:101DC000795291423DDD024617F068FEBDE8F88386
:101DD00001F1404202F5801202432ED0B1F1804F52
:101DE00037DC0022344B17F057FE02460B46044600
:101DF0000D4617F053FE224606460F462B46204658
:101E0000294618F001F802460B463046394617F0CD
:101E100045FE16F015FE22462B4617F03FFEBDE8A4
:101E2000F843FFF7C1B802460B4617F035FE0246ED
:101E30000B4618F013F9BDE8F88300200021BDE837
:101E4000F88300F00DFE18A3D3E9002317F026FE57
:101E5000F1E7024617F0D8FF0022174B17F01CFEDF
:101E600016F0EEFD2246804689462B46204629463E
:101E700017F014FE224606460F462B4640464946BA
:101E800017F00CFE02460B4600200B4918F0E6F84E
:101E90000B4602463946304617F0FEFDBDE8F843D2
:101EA00000F0DEBDAFF30080EF39FAFE422EE63FD0
:101EB000FFFFEF3FFFFFAF410000F03F00000000D9
:101EC0002DE9F04FAE4B21F000479F4287B004460A
:101ED0000D4611DD07F1404707F5801703463B43E8
:101EE00021D002460B4617F0D7FD02460B4618F0EC
:101EF000B5F807B0BDE8F08FA24B9F420E4629DC33
:101F0000B7F1795F80F2468181A3D3E9002317F00E
:101F1000C5FD00229C4B18F007FAD8B1204629468F
:101F200007B0BDE8F08F7CA3D3E9002317F06CFF66
:101F30007BA3D3E9002306460F462046294617F027
:101F400063FF02460B463046394617F0A7FD07B03F
:101F5000BDE8F08F2046294615F0D6FE02460B4616
:101F60000020894917F098FD0022884B17F04CFF9C
:101F70006DA3D3E9002304460D4617F045FF6CA37B
:101F8000D3E9002317F08AFD22462B4617F03CFFC9
:101F900069A3D3E9002317F07FFD22462B4617F0F3
:101FA00033FF67A3D3E9002317F078FD22462B46C1
:101FB00017F02AFF64A3D3E9002317F06DFD224632
:101FC0002B4617F021FF62A3D3E9002317F066FD2B
:101FD00022462B4617F018FF5FA3D3E90023CDE973
:101FE00000012046294617F00FFF5DA3D3E9002327
:101FF00017F052FD22462B4617F006FF5AA3D3E9ED
:10200000002317F04BFD22462B4617F0FDFE58A388
:10201000D3E9002317F040FD22462B4617F0F4FECB
:10202000594B002217F03AFD82468B46204629463E
:10203000CDE902AB16F004FD554B9F428046894620
:1020400000F3198102460B4617F028FDDDE9022353
:10205000CDE90401DDE9000118F000F802460B4665
:10206000DDE9040117F0D0FE4FF0000ACDE90001D0
:1020700052464B465046494617F0C6FE02460B46AE
:102080002046294617F008FD524604460D464B46A9
:102090004046494617F002FD02460B4620462946B7
:1020A00017F0DCFF02460B4617F0F8FC02460B4621
:1020B0001BA1D1E9000117F0EFFC02460B46DDE958
:1020C000000117F0E9FC524604460D464B465046C7
:1020D000494617F0E3FC02460B4627A1D1E900016F
:1020E00017F0DAFC02460B462046294617F0D4FCCE
:1020F00002460B4620A1D1E9000117F0CDFC002ECD
:102100003FF7F7AE01F100431946F2E6AFF3008066
:102110009C7500883CE4377E182D4454FB21F93F20
:10212000075C143326A6913C09F7FD0DE13D023F03
:1021300088B20175E0EF493F3B8F68B52882A43F24
:102140005544880E55C1C93F7D6FEB0312D6D43F6D
:10215000555555555555C53F82922EB1C5B8B33F1B
:1021600059018D1B6C06E63FC88A599CE52A004040
:102170004B2D8A1C273A0340182D4454FB21E93F7C
:10218000FFFFEF3FFFFFDF3F0000F03F0000E03FB9
:102190003233EF3F02460B4617F036FE4BA3D3E92E
:1021A000002306460F4617F02FFE4AA3D3E900236B
:1021B00017F074FC32463B4617F026FE47A3D3E9DE
:1021C000002317F069FC32463B4617F01DFE45A37D
:1021D000D3E9002317F062FC32463B4617F014FEA9
:1021E00042A3D3E9002317F057FC32463B4617F0D1
:1021F0000BFE40A3D3E9002317F050FC32463B46C8
:1022000017F002FE3DA3D3E90023804689463046FD
:10221000394617F0F9FD3BA3D3E9002317F03CFC46
:1022200032463B4617F0F0FD38A3D3E9002317F000
:1022300035FC32463B4617F0E7FD36A3D3E90023D1
:1022400017F02AFC32463B4617F0DEFD00221E4BFB
:1022500017F024FC02460B464046494617F0FEFEA6
:1022600022462B4617F0D0FD22462B4617F016FCCF
:1022700007B0BDE8F08F52465B46DDE9000117F07C
:10228000EDFE42464B4617F0BFFD42464B4617F067
:1022900005FC02460B4617F001FC07A3D3E9002317
:1022A00017F0FAFB02460B4605A1D1E9000117F031
:1022B000F3FB24E7AFF30080075C143326A6913CC0
:1022C000182D4454FB21F93F0000F03F09F7FD0DA4
:1022D000E13D023F88B20175E0EF493F3B8F68B5B1
:1022E0002882A43F5544880E55C1C93F7D6FEB033A
:1022F00012D6D43F555555555555C53F82922EB1EE
:10230000C5B8B33F59018D1B6C06E63FC88A599C7E
:10231000E52A00404B2D8A1C273A034000000000AC
:102320002DE9F84F1D465342134325F00049DFF8CD
:10233000C8C149EAD3736345144606460F4626D8FA
:10234000C0F1000848EA000821F0004A4AEAD878BB
:10235000E04503468B461AD805F1404808F5801839
:1023600058EA0208AE4643D04FEAA57808F00208C2
:102370005AEA030348EAD17811D1B8F1020F55D0D7
:10238000B8F1030F09D14AA1D1E9000105E03246B5
:102390003B462046294617F081FBBDE8F88F59EAF5
:1023A000020329D0E1452ED0E24525D0AAEB090948
:1023B0004FEA2959B9F13C0F3CDC002D3EDA19F106
:1023C0003C0F3BDA00200021B8F1010F4ED0B8F1EC
:1023D000020F3ED0B8F1000FDFD037A3D3E90023BE
:1023E00017F05AFB36A3D3E9002317F055FBD4E7C7
:1023F000BDE8F84FFEF744BBBBF1000F12DB32A182
:10240000D1E90001C9E7CA4534D0B8F1020F0DD0B7
:10241000B8F1030FB7D0B8F1010F4FF0000036D07C
:102420000021BAE72AA1D1E90001B6E724A1D1E948
:102430000001B2E724A1D1E90001C5E722462B46FD
:102440003046394617F00AFE15F05EFCFEF718FB21
:10245000BAE719A3D3E9002317F01EFB02460B4687
:1024600017A1D1E9000117F017FB96E701F100432E
:10247000194692E7B8F1020F14D0B8F1030F0DD04E
:10248000B8F1010F06D014A1D1E9000185E74FF0A2
:10249000004182E712A1D1E900017EE712A1D1E952
:1024A00000017AE712A1D1E9000176E7AFF30080DD
:1024B000182D4454FB2109C0075C143326A6A13C07
:1024C000182D4454FB210940182D4454FB21F93F99
:1024D000182D4454FB21F9BF182D4454FB21E93F2A
:1024E000182D4454FB21E9BFD221337F7CD902C08F
:1024F000D221337F7CD902400000F07F0000000031
:1025000043422DE9F047034321F000463C4A46EAA6
:10251000D373934204460D462AD8964240D0394B95
:102520009E428A462EDD384B9E4235463FDD33467D
:102530000246314617F0B2FA224606460F462B46AF
:1025400000202F4917F0A8FA02460B4630463946BC
:1025500017F084FDFEF728FD00222C4B17F054FCE9
:10256000BAF1000F0CDA01F100431946BDE8F0871B
:1025700002460B4617F090FA02460B4617F06EFD26
:10258000BDE8F0871CA3D3E9002317F087FA0022E7
:10259000002317F0C9FE48B120462946BDE8F08760
:1025A0000022002317F05AFDBDE8F0873546224689
:1025B0002B462046294617F071FA22462B4606463E
:1025C0000F4617F021FC2246804689462B46002004
:1025D0000B4917F061FA02460B464046494617F090
:1025E0003DFD32463B4617F059FAFEF7DDFC00226E
:1025F000064B17F009FCB3E79C7500883CE4377E76
:102600000000F03FFFFF2F3EFFFFDF3F0000E03FF5
:102610002DE9F8434E4B21F000449C4206460F46FC
:102620001BDC4C4B9C4222DD4B4B9C4254DD4B4B04
:102630009C4246DD4A4B9C426FDD01339C4269D08F
:1026400041A3D3E900231046194617F0DDFB0646E7
:102650000F4630463946BDE8F88302460B4617F070
:10266000D3FB06460F4630463946BDE8F88315F0E1
:102670004BFB02F04DFC00223A4B8046894617F096
:102680000DFAB4F1725F06460F46ECDB42464B464C
:102690004046494617F0B8FB32463B4604460D46D5
:1026A0003046394617F0FAF902460B4620462946CD
:1026B00017F0D4FC00222B4B17F0F0F906460F461A
:1026C000D1E715F021FB00F053F80022264B17F05C
:1026D0009BFB06460F46C6E715F016FB00F048F8D0
:1026E0000022214B06460F4617F08EFB3246044669
:1026F0000D463B4600201C4917F0B0FC02460B4635
:102700002046294617F0CAF906460F463046394694
:10271000BDE8F883154B984292D83046394615F0FB
:10272000F3FA0022104B17F06FFB00F021F80022A3
:1027300004460D460C4B17F067FB22462B4617F05C
:1027400063FB06460F468EE79C7500883CE4377EA7
:10275000FFFFEF7F422ED63FFFFF3540412E8640E0
:10276000CD3386400000F03F0000E03F7DF8B98F98
:102770002DE9F047B04F21F00042BA4284B0044640
:102780000D464FEAD17610D9AC4FBA4240F28A805A
:10279000C1F313030343024640F0F180002E7ED0C4
:1027A0000020002104B0BDE8F087A54B9A4200F25A
:1027B000B680A44B9A4240F2D1804FF0000A2246E4
:1027C0002B462046294617F01FFB85A3D3E900239B
:1027D00006460F4617F018FB83A3D3E9002317F032
:1027E0005BF932463B4617F00FFB81A3D3E9002388
:1027F00017F054F932463B4617F006FB7EA3D3E9A7
:10280000002317F049F932463B4617F0FDFA7CA346
:10281000D3E9002317F042F932463B4617F0F4FAA9
:1028200002460B462046294617F036F902460B466B
:1028300006460F462046294617F0E6FA80468946A6
:10284000BAF1000F00F0AB8032463B4600204FF05B
:10285000804117F021F902460B464046494617F0E1
:10286000FDFB02460B46DDE9020117F015F9DDE933
:10287000002317F011F90B4602467349002017F0A8
:102880000BF96FF47F739A4580F2A3800AF57A7A88
:1028900001EB0A5100224FF0B87317F0B5FA04B0FB
:1028A000BDE8F08758A3D3E9002317F03DFD0028C9
:1028B0006BD157A3D3E900232046294617F016FD14
:1028C00000287FF46DAF614953A3D3E9002301EBE6
:1028D000C6062046294617F097FAD6E9002317F0D6
:1028E000DDF817F041FD824617F024FA4CA3D3E936
:1028F000002306460F4617F087FA02460B4620468D
:10290000294617F0C9F848A3D3E90023CDE900010F
:102910003046394617F078FACDE9020115E04C4B04
:102920009A42D0D84B4BF4002344D3E9002317F04C
:10293000B3F8494B234493ED007BCDE900018DEDC5
:10294000027BC6F1010AAAEB060ADDE90223DDE9F2
:10295000000117F0A1F804460D4630E734A3D3E98F
:10296000002317F09BF80022374B17F0DDFCA8B3CB
:10297000204629460022344B17F090F88FE70B468B
:1029800017F08CF804B0BDE8F08729A3D3E9002341
:102990001046194617F038FA04B0BDE8F087304603
:1029A000394600224FF0804317F076F802460B4676
:1029B0004046494617F052FB22462B4617F06CF86A
:1029C00002460B460020204917F066F804B0BDE827
:1029D000F08701EB0A5104B0BDE8F0878246EEE6CD
:1029E000D0A4BE726937663EF16BD2C541BDBB3E15
:1029F0002CDE25AF6A56113F93BDBE166CC1663FF3
:102A00003E5555555555C53FEF39FAFE422E864085
:102A100051302DD5104987C0FE822B654715F73FF1
:102A20000000E0FE422EE63F763C7935EF39EA3D84
:102A30009C7500883CE4377E412E8640FFFFEF7F87
:102A4000422ED63FFFFF2F3E0000F03F50B1010065
:102A5000B1A2F03F60B1010070B1010000000000C0
:102A60002DE9F04FB1F5801F85B006460F460B46A5
:102A700080F2D08021F00042024300F0DA80002989
:102A8000C0F2E9800022D64B17F0BEF9D54A0B46BA
:102A9000934206460F466FF0350E00F3C180C3F334
:102AA000130505F5152C0CF6647C0CF4801C8CF0D9
:102AB0007F5282F440121C1542EA0507A4F2FF344B
:102AC00074440022C84B3046394604EB1C5416F0BF
:102AD000E3FFAB1CC3F31303022B82468B464FF07C
:102AE000000240F3AF804FF0804316F0D7FF02465C
:102AF0000B465046594617F0B1FA064620460F4697
:102B000017F018F93246CDE902013B463046394606
:102B1000CDE9006717F078F902460B4680468946F2
:102B200017F072F99AA3D3E9002306460F4617F06F
:102B30006BF999A3D3E9002316F0B0FF32463B4668
:102B400017F062F996A3D3E9002316F0A7FF3246E7
:102B50003B4617F059F994A3D3E9002316F09EFFE2
:102B600042464B4617F050F991A3D3E90023804623
:102B700089463046394617F047F98FA3D3E9002339
:102B800016F08CFF32463B4617F03EF98CA3D3E992
:102B9000002316F083FF32463B4617F035F90B460B
:102BA00002464946404616F079FFA5F5C223C5F511
:102BB000D725A3F27A4351351D43002D06460F4613
:102BC00040F387800022894B5046594617F01CF984
:102BD00052465B4617F018F902460B468046894676
:102BE0003046394616F05AFFDDE9002317F00CF99C
:102BF00006460F46002C40F0818002460B464046B8
:102C0000494616F049FF02460B465046594616F013
:102C100043FF0BE0734A93424FF0000E7FF73FAF44
:102C200032463B463046394616F038FF05B0BDE81F
:102C3000F08F0022002300206D4917F00FFA05B035
:102C4000BDE8F08F002317F047FB60B1002C7CD16A
:102C500000200021EAE7024616F01EFF00220023B2
:102C600017F0FCF9E2E758A3D3E900235046594690
:102C700017F0CAF802460B4600205C4916F00CFF1C
:102C8000524606460F465B465046594617F0BCF87A
:102C900002460B463046394617F0B6F806460F4650
:102CA0002CB3204617F046F849A3D3E90023804609
:102CB000894617F0A9F848A3D3E9002304460D4636
:102CC0004046494617F0A0F802460B4630463946C2
:102CD0002CE002460B465046594616F0DDFEDDE973
:102CE000002317F091F806460F46002C47D13246D4
:102CF0003B465046594616F0CFFE97E734A3D3E93A
:102D00000023DDE9020117F07FF833A3D3E90023A4
:102D100004460D46DDE9020117F076F832463B46DF
:102D200016F0BCFE02460B464046494616F0B4FE7D
:102D300052465B4616F0B0FE02460B462046294638
:102D400016F0AAFE05B0BDE8F08F204616F0F2FF9F
:102D50001FA3D3E9002306460F4617F055F81EA31C
:102D6000D3E9002304460D463046394617F04CF8A7
:102D700002460B462046294616F090FE56E7DDE94E
:102D8000028913A3D3E900234046494691E700BFD7
:102D900044523EDF12F1C23FDE03CB966446C73F8A
:102DA000599322942449D23F935555555555E53FA3
:102DB0009FC678D0099AC33FAF788E1DC571CC3FAE
:102DC00004FA97999999D93F555555555555D53F79
:102DD0000000E0FE422EE63F763C7935EF39EA3DD1
:102DE00000005043FFFFEF7F0000F03F0000E03F96
:102DF000000050C300000000B1F5801F2DE9F8432A
:102E000004460D460B4619DA21F00042024359D020
:102E100000295FDB00223A4B16F0F6FF394A0D46D7
:102E20002B46934204466FF035010CDD22462B46BB
:102E30002046294616F032FEBDE8F883314A934217
:102E40004FF00001F2DC1815A0F2FF3008444FEA01
:102E5000D0794844C3F3130816F06CFFC9F57F73AB
:102E6000033348EA035506460F4620462946FFF736
:102E7000F7FD1DA3D3E90023804689463046394635
:102E800016F0C2FF1AA3D3E9002304460D464046BC
:102E9000494616F0B9FF02460B462046294616F071
:102EA000FDFD15A3D3E9002304460D4630463946FF
:102EB00016F0AAFF02460B462046294616F0EEFD04
:102EC000BDE8F8830022002300200F4917F0C6F860
:102ED000BDE8F883024616F0DFFD0022002317F05C
:102EE000BDF8A9E7AFF30080362BF111F3FE593D91
:102EF0000EE526157BCBDB3F00609F501344D33F8C
:102F000000005043FFFFEF7F000050C300000000AF
:102F10002DE9F04F23F0004555EA020493B00DD09F
:102F20006B4E21F00044B4420F4682460BDD04F1A3
:102F3000404404F5801454EA0A0350D16549002046
:102F400013B0BDE8F08F9B46944647D0B542EEDC07
:102F50005F4EB5425DD0002F80468946CDE9002303
:102F60005BDB0026BCF1000F0ED1594B9D423FD0D8
:102F7000584B9D4200F08880BBF1804F00F09C8050
:102F8000554B9B4500F0B8834046494614F0BCFEC3
:102F9000BAF1000F06D1002C59D04E4B27F0404219
:102FA0009A4254D0FF0F013F56EA070373D04B4BB0
:102FB0009D4240F39B8003F104739D4240F33E84A5
:102FC000474B9C4272DDBBF1000F72DD3EA3D3E99B
:102FD00000231046194616F017FFB1E728B1414803
:102FE00013B0BDE8F04F16F063BBA542F7DCAFE7C6
:102FF00004F1404303F5801353EA0A039ED0384B93
:103000009C4240F38383BBF1000F52DBDDE90001FA
:1030100096E7BCF1000F9ED089E7334B9D4231DC2F
:10302000A3F154739D429CDD2B15A3F2FF33142BA7
:1030300040F3A583C3F134032CFA03F202FA03F33D
:1030400063458ED102F00102C2F102068AE7BBF1AC
:10305000000F05DA02460B4600201E4916F0FEFF5F
:10306000002FBFF66DAF04F1404404F5801454EA1C
:10307000060300F03F84012E7FF462AF01F10043AC
:1030800019465DE702266DE7BBF1000FC0F24883E9
:103090004046494654E742464B461046194616F00C
:1030A000FBFC02460B4616F0D9FF49E7BBF1000FC7
:1030B0008CDB0020002143E742464B464046494610
:1030C00016F0A2FE3CE700BF9C7500883CE4377E0A
:1030D0000000F07F0000F03F0000E03F0000E04112
:1030E000FFFFEF3F78B90100FFFF3F43B4F5801FBA
:1030F00080F261830022D24B16F086FE6FF0340C12
:103100000C462315CF4DC4F31302A3F2FF3342F054
:103110007F546344AA420B9344F4401440F33F832A
:10312000C94B9A4240F304849FEDAF7B8DED087B41
:103130008DED107B9FEDAE7B0B9B8DED067B013300
:103140000B93A4F580140025DDE906232146824671
:1031500016F0A2FCA346DDE90623804689465046C8
:103160002146CDE90CAB16F099FC02460B46002037
:10317000B64916F073FF0A460146CDE90E12134612
:1031800049460246404616F03FFE631043F00053A6
:1031900082468B4603F500238C46CDE904AB5919D2
:1031A000D3460023CDE902BC0293DDE902AB002047
:1031B00004460D4602460B465046594616F024FE7C
:1031C00002460B464046494616F066FCDDE90623FA
:1031D000804689462046294616F05EFC02460B468C
:1031E000DDE90C0116F058FC52465B4616F00CFE69
:1031F00002460B464046494616F04EFCDDE90E23DA
:1032000016F002FEDDE90445CDE9060122462B4613
:103210002046294616F0F8FD77A3D3E9002304469B
:103220000D4616F0F1FD76A3D3E9002316F036FC27
:1032300022462B4616F0E8FD73A3D3E9002316F0CF
:103240002DFC22462B4616F0DFFD71A3D3E90023A7
:1032500016F024FC22462B4616F0D6FD6EA3D3E9C9
:10326000002316F01BFC22462B4616F0CDFD6CA366
:10327000D3E9002316F012FC2246804689462B46ED
:103280002046294616F0C0FD02460B4640464946F8
:1032900016F0BAFD524604460D465B46DDE90401D0
:1032A00016F0FCFBDDE9062316F0AEFD22462B46A8
:1032B00016F0F4FB5246804689465B465046594616
:1032C00016F0A2FD0022624BCDE90C0116F0E6FBE0
:1032D00042464B4616F0E2FB02980D460446224653
:1032E0002B465046594616F08FFD002282468B46EB
:1032F000574B2046294616F0CFFBDDE90C2316F08C
:10330000CBFB02460B464046494616F0C5FBDDE9BD
:10331000042316F079FD2246804689462B46DDE9D6
:10332000060116F071FD02460B464046494616F06E
:10333000B5FB8046894602460B465046594616F074
:10334000ADFB029838A3D3E9002304460D4616F0DE
:103350005BFD5246CDE904015B462046294616F046
:103360009BFB02460B464046494616F095FB30A3B0
:10337000D3E9002316F048FD2FA3D3E900238046AC
:1033800089462046294616F03FFD02460B46404638
:10339000494616F083FBDDE9102316F07FFB8046DB
:1033A0000B98894616F0C6FC424682468B464B4631
:1033B000DDE9040116F072FBDDE9082316F06EFB6F
:1033C00052465B4616F06AFB029852465B4604463C
:1033D0000D4616F061FBDDE9082316F05DFBDDE923
:1033E000042337E0AFF3008000000000000000007D
:1033F000000000000000F03FEF4E454A287ECA3F23
:1034000065DBC9934A86CD3F01411DA96074D13F58
:103410004D268F515555D53FFFAB6FDBB66DDB3F6A
:10342000033333333333E33F000000E009C7EE3F9B
:10343000FD033ADC09C7EE3FF5015B14E02F3EBE09
:10344000000040438E98030079B60B000000F03F67
:103450000000084016F020FB0B4602464946404655
:1034600016F01AFB013E56EA070382468B4600F02F
:103470005E819FEDD37B8DED047BDDE9001200239F
:103480000E461746CDE902670293DDE9026708465A
:103490003B461146324616F0FFFA22462B4616F0FE
:1034A000B3FCDDE90023804689465046594616F0B4
:1034B000ABFC02460B464046494616F0EFFA324650
:1034C000804689463B4620462946CDE9008916F0CC
:1034D0009BFC0B46024606460F464046494616F000
:1034E000DDFAD14B994204460D468A4640F32481C9
:1034F00001F13F4303F5E003034340F0FF81B2A332
:10350000D3E90023DDE9000116F0C8FA324680460F
:1035100089463B462046294616F0BEFA02460B462F
:103520004046494616F000FF002840F0E781A846D3
:103530004FEA2853A3F2FE324FF480131341534451
:10354000C3F30A52B94DA2F2FF321541C3F313047B
:1035500023EA05010020C2F1140B44F48014BAF1EF
:10356000000F02460B4644FA0BFB30463946B8BF03
:10357000CBF1000B16F090FA06460F463246DDE915
:1035800000013B4616F08AFA4FEA0B5A0D4600241A
:103590008FA3D3E900232046294616F035FC324696
:1035A000804689463B462046294616F075FA024673
:1035B0000B46DDE9000116F06FFA87A3D3E900237B
:1035C00016F022FC86A3D3E9002306460F462046C8
:1035D000294616F019FC02460B463046394616F0CD
:1035E0005DFA06460F4602460B464046494616F02F
:1035F00055FA42464B4604460D4616F04DFA024631
:103600000B463046394616F047FA22468046894630
:103610002B462046294616F0F7FB73A3D3E9002377
:1036200006460F4616F0F0FB71A3D3E9002316F00F
:1036300033FA32463B4616F0E7FB6FA3D3E900238B
:1036400016F02CFA32463B4616F0DEFB6CA3D3E9AB
:10365000002316F021FA32463B4616F0D5FB6AA34A
:10366000D3E9002316F01AFA32463B4616F0CCFB9B
:1036700002460B462046294616F00EFA06460F462D
:1036800002460B462046294616F0BEFB0022CDE935
:1036900000014FF080433046394616F0FDF90246EE
:1036A0000B46DDE9000116F0D9FC424606460F46FE
:1036B0004B462046294616F0A7FB42464B4616F0DD
:1036C000EDF902460B463046394616F0E5F922463A
:1036D0002B4616F0E1F902460B460020544916F03D
:1036E000DBF98A44BAF5801FC0F232815146DDE928
:1036F000042316F089FB23E4002FFFF645AC404677
:10370000494613B0BDE8F04F15F09AB9BBF1000F70
:10371000BFF6CFACDDE90034184604F100410FE4F8
:1037200042464B460020424916F098FC08E49FEDC3
:10373000387B8DED047BA0E63E4B21F00048984598
:1037400040F3EA803C4B0B4403430AD132463B46EC
:1037500016F0A2F9DDE9002316F0DCFD00283FF4A5
:10376000E7AEDDE904012CA3D3E9002316F04CFBFE
:1037700029A3D3E9002316F047FBFFF7E1BBBCF117
:10378000000F40F0D280C3F1140345FA03F202FAAD
:1037900003F3AB4200F0E0806646FFF7E9BB9FED24
:1037A000207B8DED087B8DED107B9FED057B00254B
:1037B0008DED067BC8E44FF0000CA2E4AFF300806F
:1037C000000000000000F03FFE822B654715973C8B
:1037D00000000000432EE63FEF39FAFE422EE63F9E
:1037E000396CA80C615C20BED0A4BE726937663EFD
:1037F000F16BD2C541BDBB3E2CDE25AF6A56113FF1
:1038000093BDBE166CC1663F3E5555555555C53FD7
:10381000000000000000F0BF59F3F8C21F6EA501C0
:103820000000000000000000FFFF8F40FFFF0F00BE
:103830000000F03FFFCB904000346F3F5A4B9C425A
:103840007FF734AC594B9C423FF7BDAB0022574B3E
:1038500016F022F944A3D3E9002304460D4616F0DE
:10386000D3FA43A3D3E9002382468B462046294658
:1038700016F0CAFA0022CDE902014D4B2046294636
:1038800016F0C2FA02460B463BA1D1E9000116F040
:1038900003F922462B4616F0B7FA02460B460020E3
:1038A000444916F0F9F82246804689462B462046C0
:1038B000294616F0A9FA02460B464046494616F03C
:1038C000A3FA2FA3D3E9002316F09EFA02460B4673
:1038D000DDE9020116F0E0F802460B468046894613
:1038E0005046594616F0DAF8002004460D46524676
:1038F0005B46AFE502460B46FFF7CFBBDDE90401AF
:1039000021A3D3E9002316F07FFA1FA3D3E90023F4
:1039100016F07AFAFFF714BB264B98453FF708AE2E
:10392000DDE902239246934631E60026FFF72CBBE1
:103930009FED177B8DED087B9FED177B8DED107B49
:103940009FED177B4FF480258DED067BFFF7FCBBC9
:103950005A4601F029FDCAE602F00102C2F1020650
:10396000FFF706BBAFF30080000000604715F73F8C
:1039700044DF5DF80BAE543E555555555555D53F72
:10398000FE822B654715F73F9C7500883CE4377E27
:103990000000004003B8E23F06D0CF43EBFD4C3EB1
:1039A000000000000000F83FFEFFEF3F0000F03F86
:1039B0000000D03F0000E03F2DE9F047CA4B21F066
:1039C00000479F4290B08046894640F38F80C74BA6
:1039D0009F420C46924626DC0029B9A3D3E9002376
:1039E00040F38F8016F058F8C14B9F4204460D46B5
:1039F00000F04781B4A3D3E9002316F04DF8024646
:103A00000B46CAE900232046294616F045F8AEA326
:103A1000D3E9002316F040F80125CAE9020128463F
:103A200010B0BDE8F087B34B9F4240F38980B24BA2
:103A30009F4200F31C813D15A5F21645A7EB0553E7
:103A400019461F46064616F08FFC16F073F980469D
:103A5000894642464B4630463946CDE90A8916F03A
:103A60001BF80022A54B16F0CFF98946804616F0C8
:103A70007BFC16F05FF906460F4632463B46404651
:103A80004946CDE90C6716F007F800229B4B16F06B
:103A9000BBF900220023CDE90E0116F01DFC002821
:103AA00000F06081002330463946002216F014FCF5
:103AB000002814BF01230223914A019202212A46C1
:103AC00000910AA8514600F087FB002C054614DA45
:103AD000DAF80420DAF80C3002F1004203F1004376
:103AE0004542CAF80420CAF80C3006E00020002144
:103AF000C2E90089C2E902010025284610B0BDE8EC
:103B0000F08715F0CBFF7A4B9F4204460D4600F03C
:103B10000B816DA3D3E9002315F0C0FF02460B46CD
:103B2000CAE900232946204615F0B6FF66A3D3E96B
:103B3000002315F0B3FF4FF0FF35CAE90201DCE7BF
:103B400014F0E2F862A3D3E900238046894616F018
:103B50005BF900226B4B15F0A1FF16F005FC054642
:103B600016F0E8F856A3D3E90023CDE9060116F0D4
:103B70004BF902460B464046494615F08DFF52A3CD
:103B8000D3E9002380468946DDE90601CDE90289B3
:103B900016F03AF91F2D02460B46CDE9042340F3F7
:103BA000B380DDE90423DDE9020115F075FF8046ED
:103BB00089463F15C9F30A53FB1A102B40F3B18015
:103BC00045A3D3E90023DDE9060116F01DF980467F
:103BD000894602460B46DDE9020115F05DFF02460B
:103BE0000B46DDE90201CDE9082315F055FF4246F9
:103BF0004B4615F051FF3AA3D3E90023804689468E
:103C0000DDE9060116F000F942464B4615F044FF87
:103C10000B46CDE904010246DDE9080115F03CFF41
:103C2000C1F30A53FF1A312F8046894600F39C8066
:103C30009DED087BCAE900898DED027B42464B462B
:103C4000DDE9020115F028FFDDE9042315F024FF6A
:103C5000002CCAE90201BFF650AF09F1004401F19E
:103C600000436D42CAE90084CAE9020345E70246FF
:103C70000B4615F011FF0025CAE90201CAE900014F
:103C80003BE715A3D3E9002315F006FF14A3D3E9FE
:103C900000230D46044615F0FFFE02460B46CAE916
:103CA00000232946204615F0F7FE0DA3D3E9002393
:103CB00015F0F2FE0125CAE902011EE7AFF300800C
:103CC00000004054FB21F93F3163621A61B4D03DDA
:103CD00083C8C96D305FE43F0000601A61B4D03D15
:103CE0007370032E8A19A33BFB21E93F7BD9024065
:103CF000FB21F93FFB213941FFFFEF7F00007041BD
:103D000038C501000000E03F4046494615F0C4FEBA
:103D1000394B6A1E804653F82230BB4289463FF435
:103D200048AFCAE9008989E72BA3D3E9002315F03E
:103D3000B5FE2BA3D3E900230D46044615F0AEFED5
:103D400002460B46CAE900232946204615F0A4FE88
:103D500023A3D3E9002315F0A1FE4FF0FF35CAE9F4
:103D60000201CAE60323A7E61FA3D3E90023DDE986
:103D7000060116F049F806460F4602460B46DDE9F5
:103D8000080115F089FE8046894602460B46DDE9AA
:103D90000801CDE9028915F07FFE32463B4615F059
:103DA0007BFE13A3D3E9002306460F46DDE9060197
:103DB00016F02AF832463B4615F06EFE02460B46D8
:103DC00040464946CDE9042315F066FE8046894603
:103DD000A7E700BFAFF300800000601A61B4D03DD8
:103DE0007370032E8A19A33B0000002E8A19A33B8F
:103DF000C14920259A837B39B8C401000000000026
:103E0000574A2DE9F84F21F00048904506460F46E5
:103E10002CDC544B0029B4BF534D544D98454FF002
:103E2000000411DC524B984526DC4BA3D3E9002358
:103E300015F034FE00224F4B16F076FA002840D0E1
:103E400030463946BDE8F88F4B4B984530DD4B4B3B
:103E5000984568DD0133984562D0304639463EA327
:103E6000D3E9002315F0D0FFBDE8F88F02460B46DA
:103E700015F014FEBDE8F88F13F046FF01F048F886
:103E80003F4B984506460F4623DD0022394B15F07F
:103E900005FE02460B463046394616F0DFF832463C
:103EA0003B4615F0FBFD22462B4615F0ADFFE1E742
:103EB00013F02AFFFEF75CFC22462B4615F0A4FF08
:103EC000D8E73046394613F01FFF01F021F80646C7
:103ED0000F4632463B463046394615F0DFFD324646
:103EE00082468B463B463046394615F08DFF002210
:103EF000804689461F4B3046394615F0CFFD0246B5
:103F00000B464046494616F0A9F802460B46504675
:103F1000594615F0C1FD22462B4615F075FFA9E75D
:103F2000184B984299D83046394613F0EDFE0022DE
:103F30000E4B15F069FFFEF71BFC06460F460246C6
:103F40000B462046294615F05FFF32463B4615F0EA
:103F50005BFF8FE7AFF300803374AC3C1F7BAC7F1B
:103F6000FFFFEF7FFFFF35400000E0BF0000E03FB4
:103F7000FFFF2F3E0000F03F412E8640CD338640AC
:103F8000FFFFEF3F7DF8B98F2DE9F04F21F000489A
:103F9000B8F1795F85B006460F4692469B466BDACC
:103FA00016F0E2F9002800F0E18032463B46304648
:103FB000394615F029FF74A3D3E9002304460D46C2
:103FC00015F022FF72A3D3E9002315F067FD224606
:103FD0002B4615F019FF70A3D3E9002315F05CFD03
:103FE00022462B4615F010FF6DA3D3E9002315F0F0
:103FF00055FD22462B4615F007FF6BA3D3E900239E
:1040000015F04AFD22462B4615F0FEFE68A3D3E9C3
:10401000002315F043FD22462B4615F0F5FECDE9B1
:1040200000010022664B2046294615F0EDFEDDE931
:104030000023804689462046294615F0E5FE524673
:1040400004460D465B463046394615F0DDFE024615
:104050000B462046294615F01FFD02460B464046FA
:10406000494615F019FD02460B460020554915F04A
:1040700013FD05B0BDE8F08F02460B4615F0C4FEF7
:1040800041A3D3E9002304460D4615F0BDFE40A32D
:10409000D3E9002315F002FD22462B4615F0B4FEAD
:1040A0003DA3D3E9002315F0F7FC22462B4615F07B
:1040B000ABFE3BA3D3E9002315F0F0FC22462B46D0
:1040C00015F0A2FE38A3D3E9002315F0E5FC224643
:1040D0002B4615F099FE36A3D3E9002315F0DEFC3C
:1040E0002B46224615F090FE374B9845CDE900014E
:1040F00097DD364B98453EDCA8F5001300220020E2
:1041000030499046994615F0C7FCCDE902010022DE
:104110002B4B2046294615F077FE42464B4615F0BC
:10412000BBFCDDE90023804689462046294615F080
:104130006BFE524604460D465B463046394615F046
:1041400063FE02460B462046294615F0A5FC0246B2
:104150000B464046494615F09FFC02460B46DDE9FA
:10416000020115F099FC05B0BDE8F08F154900205B
:1041700005B0BDE8F08F9FED107B4FF000088DED8E
:10418000027BDFF84C90C2E7D43888BEE9FAA8BDBC
:10419000C4B1B4BD9EEE213EAD529C804F7E923E96
:1041A0009015CB19A001FA3E7751C1166CC1563F4C
:1041B0004C5555555555A53F000000000000E73F00
:1041C0000000E03F0000F03F3233D33F0000E93F02
:1041D0000000D23F000000002DE9F04FADF5197D41
:1041E000BE4CA29EBE4D54F826600793D41E85FB9C
:1041F0000475E417C4EBA50424EAE4741D46631CAB
:10420000A3EB8303013D02EBC303059373190496EB
:104210000994019503900B91A4EB05071AD43B4434
:10422000002400255E1C0DF18008DDF88C9208E06A
:1042300059F8270015F07EFD0137B742E8E8020182
:1042400008D0002FF4DA013720462946B742E8E8C3
:104250000201F6D1049B002B079B4FEAC303029394
:104260002ADB039A20A902EB030801EB0309049B54
:1042700072AA02EBC30B0DF5E07A019B002B4FF005
:1042800000064FF0000711DB039C4D4675E9022341
:10429000F4E8020115F0B8FD02460B4630463946F7
:1042A00015F0FCFB444506460F46EFD1EAE80267ED
:1042B000DA4509F10809E0D1DDE902040499204456
:1042C0008B0082460BA8A3F10802C31808930CAB1D
:1042D00013440A938B4698AB03EBCB03BBF1000F5F
:1042E00053E9284529DD70AB03EBCB080DF130090C
:1042F00000227C4B2046294615F086FD16F034F846
:1043000015F018FD0022784B06460F4615F07CFD8F
:1043100002460B462046294615F0BEFB16F024F84F
:1043200078E9022349F8040B3946304615F0B6FB0C
:1043300070AB984504460D46DAD1DDF8149020465E
:1043400029464A4601F030F800224FF07F530446D8
:104350000D4615F059FDFCF7A7FD0022634B15F043
:1043600053FD02460B462046294615F095FB0D46A7
:10437000044615F0F9FF804615F0DCFC0B460246BA
:104380002946204615F088FB4B46002B06460F4673
:1043900040F3E1800BF1FF320CA9C9F1180351F889
:1043A000225045FA03F101FA03F30CA8EB1A40F886
:1043B0002230C9F11705884443FA05F5002D2CDD9C
:1043C000BBF1000F08F1010840F381820C9C002C26
:1043D00040F0A780BBF1010F0AD00CA9012251F8CF
:1043E000044F531C002C40F09E809B451A46F6D18A
:1043F000059B002B0EDD012B00F0D980022B09D18B
:104400000BF1FF320CAB0CA953F82230C3F31503A8
:1044100041F82230022D00F0AF8000220023304608
:10442000394615F059FF002800F05382049B0BF128
:10443000FF394B4510DC0BF180430CAA013B089877
:1044400002EB8303002253F80419834242EA01027B
:10445000F9D1002A40F0B680049B0CAA013B52F827
:104460002330002B40F0A1800A9A012352F804194E
:1044700001330029FAD05B440BF1010999450693F9
:104480004CDC099A079909EB020801EB0B0508F1CE
:10449000804802EB030BA39B08F1FF3803EB88086D
:1044A00070AB03EBC909A39B20A903EB8B0301EBC2
:1044B000C505029358F8040F15F03CFC0B46019912
:1044C0000246002905F1080BC5E900234FF000065C
:1044D0004FF000071CDB039C0CE000BFD8C90100B3
:1044E000ABAAAA2A0000703E0000704100002040E4
:1044F00075E90223F4E8020115F086FC02460B463A
:104500003046394615F0CAFA544506460F46EFD1F3
:10451000029B9845E9E802675D46CBD1DDF818B00B
:10452000D9E6012300220CA9C4F180749B4541F80F
:1045300022400EDD51F8232001EB8B0001EB8303B9
:104540006FF07F4100E01A688A1A43F8042B834217
:10455000F9D101244CE706D10BF1FF330CAA52F834
:104560002350ED152AE700227B4B15F0D3FE0028DF
:1045700040F0A381054650E732463B46002077498C
:1045800015F08AFA06460F46002C3FF446AF059A0E
:104590007249002000F008FF02460B4630463946BB
:1045A00015F07AFA06460F4637E7012363E70BF169
:1045B000FF320CAB0CA953F82230C3F3160341F8B9
:1045C000223027E70CAB059A53F82930183ACDE989
:1045D000068505926BB909F18043013B0CA901EBFB
:1045E000830353F8041909F1FF39183A0029F8D068
:1045F0000592059A5949002000F0D6FEB9F1000F46
:1046000004460D46C0F2C0814FEAC90370AA02EB0E
:10461000030808930CAB03EB8906DFF844B14FF0B5
:10462000000A08F10807043656F8040D15F082FB5D
:1046300022462B4615F0E8FB5B4667E9020152462D
:104640002046294615F0E0FB0CAB9E4204460D4681
:10465000EAD148AB03930193CDF8149009F101031B
:10466000DDF810900293C3464FF0000AB9F1000F35
:10467000C0F22A81DFF8EC805D4635A3D3E9002340
:1046800000260027002403E0544510DCF8E802234C
:10469000F5E8020115F0B8FB02460B4630463946F4
:1046A00015F0FCF90134A14506460F46ECDA019BF2
:1046B000E3E802670193029B0AF1010A9A45ABF114
:1046C000080BD3D1A29BDDF81490032B39D8DFE877
:1046D00013F0D900060006004D0048AB0393B9F172
:1046E000000F4FF000004FF0000109DB039D05EBC8
:1046F000C904083474E9022315F0D0F9A542F9D1B0
:10470000079B002B40F01E810B9BC3E900010B4669
:1047100003990246D1E9000115F0BEF9B9F1000F85
:104720000CDD4AAD01240134F5E8022315F0B6F999
:10473000A145F8DA079B002B40F014810B9BC3E9DD
:104740000201069B03F007000DF5197DBDE8F08F0F
:1047500000000040FB21F93F0000E03F0000F03F77
:104760000000703E98B1010048AB0393B9F1000F0F
:1047700040F32781039ACDF810904FEAC9030193C3
:10478000D318D3E900AB09F10053013B02EBC90890
:104790000293914678E9026752465B4630463946B5
:1047A00015F07CF904460D4602460B463046394664
:1047B00015F072F952465B4615F070F9C145A246F4
:1047C000AB46C8E90201C8E90045E3D1DDF8109025
:1047D000B9F1010F40F3F580019B039A029913444C
:1047E000C900D3E9006701F1080A019192440DF56F
:1047F000947B7AE9028932463B464046494615F0A9
:104800004DF904460D4602460B464046494615F012
:1048100043F932463B4615F041F9D34526462F462B
:10482000CAE90201CAE90045E3D1019C039B1034A7
:10483000002000211C4403F1100574E9022315F047
:104840002DF9A542F9D1039C079ED4E90023D4E9B0
:104850000245002E00F08A8003F1004701F1004379
:104860000B99C1E90403069B2646944605F10044D2
:1048700003F00700C1E900C7C1E902640DF5197D25
:10488000BDE8F08F089C039D0834002000212C44D3
:1048900074E9022315F002F9A542F9D1079B13B17F
:1048A00001F1004319460B9BC3E90001069B03F08D
:1048B00007000DF5197DBDE8F08FBBF1000F08F181
:1048C000010874DD022581E500260027EFE60024BB
:1048D0008EE5CDE90685059D304639466A4200F0F1
:1048E00063FD0022384B06460F4615F013FD00B35A
:1048F0000022364B3046394615F086FA15F034FD65
:10490000044615F017FA00222F4B15F07DFA0B46DE
:1049100002463946304615F0BFF815F025FD0BF17B
:1049200001090CAB183543F82B00059543F82940D5
:104930005FE63046394615F017FD0CABD94643F813
:104940002B0056E60B9C01F10043C4E900030B4623
:1049500003990246D1E9000115F09EF8B9F1000F64
:104960003FF7DFAE01F100431946E7E60B9EC6E9CB
:104970000023069BC6E9040103F00700C6E90245CF
:104980000DF5197DBDE8F08FA29B032B3FF6D9AE44
:1049900001A252F823F000BFA9490000DB46000045
:1049A000DB460000694700000020002176E7324620
:1049B0003B460020064915F06FF8022506460F46D3
:1049C0002BE5002000213EE7000070410000703E12
:1049D0000000F03F000000002DE9F04F21F00046FC
:1049E000B6F1795F85B004460D469046994604DAE3
:1049F00015F0BAFC002800F0858022462B462046A0
:104A0000294615F001FA06460F4602460B46204697
:104A1000294615F0F9F941A3D3E9002382468B46D4
:104A20003046394615F0F0F93EA3D3E9002315F0DE
:104A300033F832463B4615F0E7F93CA3D3E90023AF
:104A400015F02CF832463B4615F0DEF939A3D3E9D0
:104A5000002315F021F832463B4615F0D5F937A36F
:104A6000D3E9002315F01AF80E9BCDE900019BB3A2
:104A70000022294B4046494615F0C6F9DDE90023DE
:104A8000CDE902015046594615F0BEF902460B46E3
:104A9000DDE9020115F000F832463B4615F0B4F9A5
:104AA00042464B4614F0F8FF19A3D3E9002306460B
:104AB0000F465046594615F0A7F902460B463046B8
:104AC000394614F0EBFF02460B462046294614F007
:104AD000E3FF05B0BDE8F08F02460B46304639468D
:104AE00015F092F90AA3D3E9002314F0D5FF52463A
:104AF0005B4615F089F922462B4614F0CFFF05B02E
:104B0000BDE8F08F2046294605B0BDE8F08F00BF14
:104B1000495555555555C53F0000E03F7CD5CF5A06
:104B20003AD9E53DEB9C2B8AE6E55A3E7DFEB1572E
:104B3000E31DC73ED561C119A0012A3FA6F8101197
:104B40001111813F000000002DE9F04FC04C21F011
:104B5000004687B0A64282468B460F46CDE9002329
:104B60001ADC15F001FC00283FD1109B524601339E
:104B70001343334300F0B781109B012B00F0C08139
:104B80005B460020B34915F069FA04460D462046FD
:104B9000294607B0BDE8F08FAF4B9E4225DD0029C6
:104BA00009DADDE90045224605F10043CDE900239D
:104BB0000BF100418B4652465B4685A1D1E90001CD
:104BC00014F06AFFDDE9002304460D4682A1D1E915
:104BD000000114F061FF9FED827B22462B468DED94
:104BE000007B14F05BFF82468B4652465B46504684
:104BF000594615F009F902460B468046894615F0DC
:104C000003F9424604460D464B465046594615F0B8
:104C1000FBF875A3D3E90023CDE90201204629461C
:104C200015F0F2F872A3D3E9002314F037FF2246FF
:104C30002B4615F0E9F870A3D3E9002314F02EFFFA
:104C400022462B4615F0E0F86DA3D3E9002314F0BB
:104C500025FF22462B4615F0D7F86BA3D3E9002396
:104C600014F01CFF22462B4615F0CEF868A3D3E9BA
:104C7000002314F013FF42464B4615F0C5F866A317
:104C8000D3E90023CDE904012046294615F0BCF8FC
:104C900063A3D3E9002314F001FF22462B4615F04D
:104CA000B3F861A3D3E9002314F0F8FE22462B46A3
:104CB00015F0AAF85EA3D3E9002314F0EFFE224614
:104CC0002B4615F0A1F85CA3D3E9002314F0E6FE0F
:104CD00022462B4615F098F859A3D3E9002314F087
:104CE000DDFE02460B46DDE9040114F0D7FEDDE9E6
:104CF000022315F089F8DDE9004522462B4614F021
:104D0000CDFE42464B4615F07FF822462B4614F066
:104D1000C5FE4DA3D3E9002304460D46DDE902019B
:104D200015F072F822462B4614F0B8FE0B460246E8
:104D3000804689465046594614F0B0FE464B9E4286
:104D400004460D4600F38C80109B012B3BD002469D
:104D50000B4600203F4915F081F9002406460F4616
:104D60002046294652465B46CDE90067CDE902015F
:104D7000009414F091FEDDE900AB02460B4640467C
:104D8000494614F089FE52465B4615F03DF85246FE
:104D900004460D465B46DDE9020115F035F80022B8
:104DA0002E4B14F07BFE02460B462046294614F09B
:104DB00075FE32463B4615F027F852465B4614F026
:104DC0006DFE04460D462046294607B0BDE8F08F2B
:104DD000182D4454FB21E93F075C143326A6813C7F
:104DE0000000000000000000D47ABF74702AFB3E6F
:104DF000E9A7F0320FB8123F68108D1AF726303F3E
:104E00001583E0FEC8DB573F93846EE9E326823FBB
:104E1000FE41B31BBAA1AB3F735360DBCB75F3BE4E
:104E2000A69237A0887E143F0165F2F2D844433F32
:104E3000280356C9226D6D3F37D60684F464963F29
:104E40007AFE10111111C13F635555555555D53F87
:104E5000FFFF2F3E0000F0BF2794E53F0000F03F2A
:104E6000109814F067FF2246CDE900012B4620463A
:104E7000294614F0C9FFDDE90023CDE902012046EF
:104E8000294614F00BFE02460B46DDE9020115F03F
:104E9000E5F842464B4614F0FFFD02460B465046ED
:104EA000594614F0F9FD02460B4614F0F7FD024690
:104EB0000B46DDE9000114F0EFFD0446B81700F0E1
:104EC0000200C0F101000D4614F034FF02460B460B
:104ED0002046294614F098FF04460D4620462946F0
:104EE00007B0BDE8F08F5046594612F00DFF02465C
:104EF0000B460020044915F0B1F804460D4662E760
:104F000054465D465FE700BF0000F03F0000000030
:104F10002DE9F04FCC4A21F00043934285B0824600
:104F20008B460C4620D9C94A934200F2D780002C08
:104F300080F2A481ACA3D3E900235046594614F073
:104F4000ADFD0022002315F0D1F9002840F0D180FA
:104F5000A7A3D3E900235046594614F055FF024653
:104F60000B460020BA4994E1BA4A934200F2E58028
:104F7000B94A934240F22E81002301930022B74B9D
:104F80005046594614F040FF06460F4602460B466F
:104F90005046594614F038FF97A3D3E9002304463E
:104FA0000D4614F031FF96A3D3E9002314F076FDEB
:104FB00022462B4614F028FF93A3D3E9002314F0D4
:104FC0006BFD22462B4614F01FFF91A3D3E900236B
:104FD00014F064FD22462B4614F016FF8EA3D3E98D
:104FE000002314F059FD22462B4614F00DFF002239
:104FF0009B4B14F053FD8046894602460B463046D3
:10500000394614F001FF02460B460020954914F082
:1050100043FD064602460B460F464046494614F0FD
:105020003BFD3246804689463B465046594614F081
:10503000EBFE02460B4600208B4914F02DFD024684
:105040000B464046494615F009F822462B4614F017
:10505000DBFE019E02460B46002E4DD0DDE90267C5
:1050600032463B4614F018FD52465B4614F0CCFE27
:1050700032463B4614F010FD2B46224614F00CFD40
:10508000019B013306460F4600F02381019B012B53
:105090007BD0019A531C392B4FEA025500F228812C
:1050A000019A132A40F35581019BC3F57F740334A1
:1050B0000022230514F0F2FC02460B4650465946E6
:1050C00014F0EAFC0022664B14F0E8FC824605EB83
:1050D000010B5046594605B0BDE8F08F634A934234
:1050E0001BD9C1F313030343024640F01281002988
:1050F000EFDA00205E490DE05046594614F084FE78
:1051000022462B4614F0C8FC02460B465046594630
:1051100014F0C2FC05B0BDE8F08F41A3D3E9002331
:1051200015F002F900283FF402AF3FA3D3E90023B2
:105130001046194614F068FEECE74E4A934200F21E
:10514000EC8000293AA3D3E9002339DA14F0A6FC55
:1051500039A7D7E900674FF0FF33804689460193AE
:1051600032463B464046494614F096FC02460B4602
:1051700082468B464046494614F08EFC32463B46FA
:1051800014F08AFCCDE90201F8E600223A4B5046C1
:10519000594615F0ABF8002800F0CC80504659462F
:1051A00000222E4B14F07AFC02460B46304639465C
:1051B00014F072FC00224FF0404314F025FEA9E7E2
:1051C00014F06AFC01238046894601931CA7D7E9A5
:1051D0000067C5E714A3D3E9002314F05FFC02467F
:1051E0000B468FE7AFF3008059F3F8C21F6EA5019D
:1051F000FE822B654715F73F2DC3096EB7FD8ABEAA
:105200003952E686CACFD03EB7DBAA9E19CE143FEC
:105210008555FE19A0015A3FF41011111111A13F3B
:10522000EF39FAFE422E86409C7500883CE4377EBA
:105230000000E0FE422EE63F763C7935EF39EABDCC
:10524000763C7935EF39EA3D79684340412E864016
:105250000000E0BF422ED63FFFFF8F3C0000E03F42
:105260000000F03F0000084000001840FFFFEF7F03
:105270000000F0BFB1A2F03F0000D0BF44A3D3E9CB
:1052800000235046594614F0BFFD02460B4600204D
:10529000414914F003FC15F067F8019014F04AFD41
:1052A00037A3D3E9002306460F4614F0ADFD0246AE
:1052B0000B465046594614F0EFFB33A3D3E90023C5
:1052C000804689463046394614F09EFD06460F4614
:1052D00046E702460B465046594614F0DDFB0022D5
:1052E0002D4B14F091FD00222B4B14F0D5FB11E750
:1052F00052465B4614F0D0FB02460B46002027497D
:1053000014F0CAFB6B1819460022244B14F0C4FB9E
:1053100000E70B4614F0C2FBFCE61DA3D3E9002313
:1053200014F072FD002C02460B464FF00000AFDA7D
:105330001B49AEE732463B465046594614F0ACFB9B
:1053400002460B4614F0AAFB0022144B14F0A6FBF5
:10535000E0E64FF4001343FA02F452465B4614F0C1
:105360009BFBC4F17F57002607F5401702460B460A
:105370003046394614F090FBA8E600BFAFF300803A
:105380000000E0FE422EE63F763C7935EF39EA3DFB
:10539000FE822B654715F73F0000E03F0000F03F1D
:1053A0000000E0BF00000000F8B5C1F30A53044656
:1053B0000D460E4617460BBB21F00046034633430D
:1053C0001BD0354B002214F01FFD344B9F42044686
:1053D0000D4635DBC1F30A530E46363B3B4440F2E3
:1053E000FE72934232DC002B11DD26F0FF4626F4DC
:1053F000E00646EA035520462946F8BD40F2FF7212
:105400009342EBD102460B4614F048FBF8BD13F172
:10541000350F28DA4CF250339F4222462B460ADDE4
:1054200019A1D1E9000114F0A9FA17A3D3E90023C7
:1054300014F0EAFCF8BD16A1D1E9000114F09EFABF
:1054400013A3D3E9002314F0DFFCF8BD22462B465A
:105450000DA1D1E9000114F091FA0BA3D3E90023C7
:1054600014F0D2FCF8BD26F0FF4626F4E0063633F1
:1054700046EA0355204629460022094B14F0C4FC95
:10548000F8BD00BFAFF300809C7500883CE4377E18
:1054900059F3F8C21F6EA50100005043B03CFFFF56
:1054A0000000903C10B5054C237833B9044B13B180
:1054B0000448AFF300800123237010BD10050020C5
:1054C0000000000030CB010008B5034B1BB10349BD
:1054D0000348AFF3008008BD000000001405002061
:1054E00030CB0100154B002B08BF134B9D46A3F595
:1054F000803A00218B460F461348144A121A09F0CD
:105500009DF90F4B002B00D098470E4B002B00D07D
:1055100098470020002104000D000D48002802D00B
:105520000C48AFF3008014F05FFA2000290005F06A
:105530009DF914F045FA00BF0000080000000220A9
:10554000000000000000000000040020A80C002063
:10555000000000000000000070B504460E4600F098
:1055600047FA88B103681B6B05469847082C0CD096
:10557000A4F10903012B14D93246214610230D2032
:10558000BDE8704004F07AB870BD2B6828469B6A6D
:1055900098470228F0DC2B6828465B6A042198476C
:1055A000EAE72B6828469B6A98470528E4DC2B68C5
:1055B00028465B6A08219847DEE700BF38B52DED25
:1055C000028B054600F014FA044640B103681B6BD9
:1055D0009847032D03D8DFE805F02F363D06BDECD4
:1055E000028B002038BD20460CF006FD07EE900A25
:1055F0002046F8EEE78A0CF007FD07EE900A2046F9
:10560000B8EEE78A0CF008FD68EE087A07EE100A9B
:10561000E8EEA87AB8EEC77AE7EE077AF5EE407AB8
:10562000F1EE10FAB1EEE78A1BD4FDEEC87ABDECBC
:10563000028B17EE900A38BDBDEC028B2046BDE808
:1056400038400CF0D9BCBDEC028B2046BDE8384098
:105650000CF0DABCBDEC028B2046BDE838400CF003
:10566000DBBC17EE900A13F085F8DEE738B5044688
:1056700000F0BEF958B103681B6B0546984744B16A
:10568000012C04D12846BDE838400CF0FFBC0020B6
:1056900038BD2846BDE838400CF0D4BC10B50446EF
:1056A00000F0A6F928B1036821465B6ABDE8104006
:1056B000184710BD0048704716FCFFFF704700BF39
:1056C00010B5034B036004460CF0F6FC204610BDF9
:1056D000B4BF010010B5054B036004460CF0ECFCB0
:1056E000204615F019F9204610BD00BFB4BF0100D7
:1056F0002DE9F041032184B00546512001F0DAFC88
:10570000DFF8E8C2AE4B044604F00F06C4F30317FB
:1057100014F4807408BF6346AA4831463A460BF039
:1057200027FC221C18BF012231463B4628460EF0BA
:10573000FFFC0023AB60A4480BF01AFC4FF0FF31D4
:10574000032001F0B7FCC0B204F052FA4FF0FF3171
:105750000446022001F0AEFCC0B204F049FA002C6D
:105760003BD0002839D00146204604F063F80646B5
:1057700000284DD04FF0FF31462001F09BFC32282D
:1057800004464ED04BDD382800F0B18068285FD148
:105790004FF0FF31012001F08DFCC0B204F028FA77
:1057A00080465C2015F0C1F8052301934246009421
:1057B00031462B4607460DF075FDAF603B68384615
:1057C000DB6A9847A86803681B6B98477F480BF013
:1057D000CFFB284604B0BDE8F0817D480BF0C8FB44
:1057E0004FF0FF31192001F065FCC0B204F000FA5F
:1057F0004FF0FF310446182001F05CFCC0B204F009
:10580000F7F90146204604F015F806460028B1D104
:1058100070480BF0ADFB284604B0BDE8F08130289D
:1058200016D14FF0FF31012001F044FCC0B204F06A
:10583000DFF98046502015F078F8A4B2074605231A
:1058400001934246009431462B460DF0D5FAB4E759
:1058500001243268CDE900440023D76AAB600F22EF
:105860000DF10F0332213046B847002800F0858043
:105870003368CDE900440F22DF6A30210DF10F03B8
:105880003046B84700284AD03368CDE900440D229D
:10589000DF6A38210DF10F033046B847002872D077
:1058A0003268CDE900440DF10F03D76A68217522F3
:1058B0003046B847002845D1682147480BF058FBCF
:1058C0004FF0FF31204601F0F5FBC0B204F090F933
:1058D00080465C2015F029F805246823CDE90034C2
:1058E000424631462B4607460DF0DCFC65E74FF09B
:1058F000FF31012001F0DEFBC0B204F079F98046EF
:10590000502015F012F805230746019342462B4616
:10591000009431460DF0A6FB304B3B604DE7302143
:105920002D480BF025FB30244FF0FF31012001F012
:10593000C1FBC0B204F05CF98046502014F0F5FFC2
:1059400007467CE726480BF013FBAF68002F7FF477
:1059500035AF4FF0FF31032001F0ACFBC0B204F0D3
:1059600047F930B11F480BF003FB284604B0BDE8EF
:10597000F0811D480BF0FCFA4DE7322116480BF080
:10598000F7FA3224D0E7382113480BF0F1FA4FF040
:10599000FF31204601F08EFBC0B204F029F98046A9
:1059A000502014F0C2FF052438230746CDE9003407
:1059B00042462B4631460DF055FB084B3B60FCE65A
:1059C00020B2010030B2010050B2010010B301005A
:1059D00060B2010074B20100A0B20100E8B10100A0
:1059E0008CB20100B4B20100F0B2010028B2010093
:1059F00038B5114C23680BB1986838BD4FF0FF31B2
:105A0000012001F057FBC0B204F0F2F840B10C20C5
:105A100014F08BFF0546FFF76BFE2560A86838BDC4
:105A20004FF0FF31032001F045FBC0B204F0E0F875
:105A30000028ECD138BD00BF2C05002008B501F0CE
:105A40006BFCFBF7D5FCBDE8084001F0C5B900BF11
:105A500008B501F061FCFBF73BFDBDE8084001F033
:105A6000BBB900BF08B501F057FC12F0C3F9BDE89F
:105A7000084001F0B1B900BF08B501F04DFC12F0CB
:105A8000B5FDBDE8084001F0A7B900BF08B501F0B9
:105A900043FCFBF7BDFCBDE8084001F09DB900BF29
:105AA00008B501F039FC12F0D7FBBDE8084001F061
:105AB00093B900BF08B501F02FFCFAF745FFBDE828
:105AC000084001F089B900BF08B501F025FC12F0CB
:105AD00019FBBDE8084001F07FB900BF70B5049E16
