:020000041000EA
:1000000000B50C4B00219960042159610A4919601F
:100010000A490B480160002159600121996001BC27
:10002000002800D0004707480749086003C880F34C
:10003000088808470000001800031F00180200038A
:10004000F40000180001001008ED00E000000000BE
:1000500000000000000000000000000000000000A0
:100060000000000000000000000000000000000090
:100070000000000000000000000000000000000080
:100080000000000000000000000000000000000070
:100090000000000000000000000000000000000060
:1000A0000000000000000000000000000000000050
:1000B0000000000000000000000000000000000040
:1000C0000000000000000000000000000000000030
:1000D0000000000000000000000000000000000020
:1000E0000000000000000000000000000000000010
:1000F0000000000000000000000000002CEC210DBA
:1001000000200420F7010010C3010010C5010010F9
:10011000C1010010C1010010C1010010C101001097
:10012000C1010010C1010010C1010010C701001081
:10013000C1010010C1010010C9010010CB01001065
:10014000E53901100D3A0110153A01101D3A011060
:10015000CD01001019480110CD010010CD01001093
:10016000CD010010CD010010CD0100107114002050
:10017000BD140020B1130020CD010010CD010010EE
:10018000CD010010CD010010CD010010CD010010F7
:10019000CD010010CD010010CD010010CD010010E7
:1001A000CD010010CD010010CD010010CD010010D7
:1001B000CD010010CD010010CD010010CD010010C7
:1001C00000BE00BE00BE00BE00BE00BE00F04BF888
:1001D000103800BEF2EB8871AC780110C4780110C1
:1001E0003402001090A31AE700202149086006C8D5
:1001F00081F3088810471F48006800282FD10DA4FC
:100200000ECC002902D000F012F8F9E71A491B4A77
:10021000002000E001C19142FCD1194988471949E9
:1002200088471949884700BEFDE701C901C29A42C3
:10023000FBD37047C4780110C0000020E0180020F4
:10024000E49001100000042000000420E49001105C
:1002500000100420001004200000000070470B482C
:100260000CF058FC0047EFF30580C0B27047000067
:1002700008ED00E0000000D0E01800206425002018
:10028000A1CB001049610010A1CC0010575600000E
:1002900006005250ABB36053C865011006005250BF
:1002A0005422A29D6C6E011005005250DE65F46868
:1002B000E4900110F8B5C04610B5064C2378002B29
:1002C00007D1054B002B02D0044800E000BF0123FA
:1002D000237010BDF818002000000000005C011021
:1002E000044B10B5002B03D00349044800E000BFC5
:1002F00010BDC04600000000FC180020005C01108A
:1003000070B505000E0000F057FA041E14D0036803
:100310001B6B9847082D10D02B00093B012B05D8EB
:10032000236820009B6A9847052812DD10233200BD
:1003300029000D2004F07AFB70BD236820009B6A21
:1003400098470228F2DC2368042120005B6A984762
:10035000ECE72368082120005B6A9847E6E7C0467F
:10036000F8B5040000F028FA051E3CD003681B6BAA
:100370009847022C3DD007DC002C36D0012C32D11E
:10038000280010F0F7FCF8BD032C2CD1280010F049
:10039000E3FC0FF08FF9071C280010F0EBFC0FF0C6
:1003A00089F9061C280010F0F3FC0FF083F9391CC2
:1003B000041C381C0FF045F9311C051C301C0FF0D3
:1003C00040F9011C281C0FF025F9211C051C201CDC
:1003D0000FF037F9011C281C0FF01CF90FF0D4F9AD
:1003E0000FF08AF9CFE70020CDE7280010F0B4FC29
:1003F000C9E7280010F0CCFCC5E7C04670B5050081
:1004000000F0DAF9041E06D003681B6B9847002D34
:1004100007D0012D01D0002070BD200010F086FD16
:10042000FAE7200010F058FDF6E7C04610B50400CA
:1004300000F0C2F9002803D0036821005B6A9847E6
:1004400010BDC0460048704716FCFFFF7047C0460D
:1004500010B50400024B036010F04CFA200010BDF0
:100460006473011010B50400044B036010F042FAED
:1004700020000FF02BFB200010BDC046647301105C
:10048000F0B5C64600B50321040084B0512001F048
:10049000ABFF0F27031139001F40802306005B00CC
:1004A000050001401E40184200D0BEE0B64B3A00A5
:1004B000B6480FF03DFD721E96410F21F2B2294061
:1004C0003B00200012F030FF0023B148A3600FF082
:1004D0002FFD01210320494201F086FFFF26304015
:1004E00005F01AF8012105004942022001F07CFFC5
:1004F000304005F011F80100002D00D197E00028F0
:1005000000D194E0280004F001FE061E00D1AAE00C
:1005100001214620494201F067FF0500382800D13B
:10052000BEE068DC022302009A43302A00D19EE03C
:1005300000230125A3603368019500955F6A0F23AE
:100540000F22322130006B44B847002800D1D6E09A
:100550003368019500955F6A0F230F223021300028
:100560006B44B847002800D1ECE033680195009552
:100570005F6A0F230D22382130006B44B8470028F2
:1005800000D1E6E03368019500955D6A0F2375227E
:10059000682130006B44A847002800D09AE0682109
:1005A0007C480FF0C5FC01210120494201F01CFFED
:1005B000FF23184004F0B0FF05005C200FF07EFA26
:1005C000052307000193633300932A0023003100C1
:1005D00011F09AFF3B68A760DB6A38009847A06873
:1005E00003681B6B98476C480FF0A2FC200004B016
:1005F00004BC9046F0BD68289AD1012101204942EF
:1006000001F0F2FEFF23184004F086FF80465C20D4
:100610000FF054FA052307000193424623003100EE
:10062000009511F071FF3B68D5E75C4B3FE75C48F4
:100630000FF07EFC01211920494201F0D5FEFF2672
:10064000304004F069FF012105004942182001F003
:10065000CBFE304004F060FF0100280004F056FD9E
:10066000061E00D054E74F480FF062FCBEE70121A0
:100670000120494201F0B8FEFF23184004F04CFF6E
:10068000804650200FF01AFA05230700ADB20193FF
:10069000424623003100009511F0D4FC3B689AE7F4
:1006A00001210120494201F09FFEFF23184004F080
:1006B00033FF804650200FF001FA05230700019315
:1006C0004246230000953100380011F001FE364B00
:1006D0003B6080E735480FF02BFCA768002F51D115
:1006E00001210320494201F07FFEFF23184004F05E
:1006F00013FF002822D02E480FF01AFC76E7322193
:1007000024480FF015FC322398460121012049426C
:1007100001F06AFEFF23184004F0FEFE05005020A1
:100720000FF0CCF9052301934346070000932A00FC
:100730002300310011F086FC3B684CE71D480FF0A8
:10074000F7FB53E7302113480FF0F2FB30239846B4
:10075000DBE738210F480FF0EBFB01210120494274
:1007600001F042FEFF23184004F0D6FE05005020A1
:100770000FF0A4F9052301933333009307002300FE
:100780002A00A0E73B6827E7085C0110105C011015
:10079000305C01106C5C0110F05C0110005C011019
:1007A000405C0110545C0110085D0110805C011078
:1007B000945C0110D05C011070B5124C2368002BC2
:1007C00001D0986870BD01210120494201F00CFE62
:1007D000FF25284004F0A0FE002808D00C200FF0D0
:1007E0006DF90500FFF74CFEA8682560EAE70121D6
:1007F0000320494201F0F8FD284004F08DFE002856
:10080000ECD1DFE7441B002010B501F035FF0DF0FF
:10081000E3FC01F0F7FA10BD10B501F02DFF0CF06C
:1008200087FE01F0EFFA10BD10B501F025FF0DF0C5
:100830007BFB01F0E7FA10BD10B501F01DFF0DF0D4
:1008400017FB01F0DFFA10BD10B501F015FF0DF038
:100850003DFB01F0D7FA10BD10B501F00DFF0DF012
:100860002DFC01F0CFFA10BD10B501F005FF0DF021
:100870008FFB01F0C7FA10BD10B501F0FDFE0DF0C1
:10088000DFFB01F0BFFA10BD10B5040008000299AB
:10089000914220DB002B09D1042A16D0022A0FD165
:1008A000E3070DD423880380002008E0A4188218F1
:1008B000013C2378037001308242F9D1002010BD41
:1008C00021000FF0F5F80020F9E7A307F8D123681D
:1008D00003600020F3E700210FF0E4F8012040421C
:1008E000EDE7C0460830704703000020002B04D01D
:1008F000002902DB5A688A4200DC70475B18187ACC
:10090000FBE7C046002806D0002904DB43688B4281
:1009100001DD40180272704703000020002B04D054
:10092000002902DB5A68914200DB70475B18187A95
:10093000FBE7C046024B1840431E9841C0B27047C7
:1009400003000010002806D0002904DB4368994208
:1009500001DA401802727047E0B506000F0015007A
:10096000002B21DB00291FDB4168B9421CDB5268E8
:10097000C91BD21A8A420DDC002A15DBB5420BD006
:100980003000290008300831C019C9180FF090F85C
:100990000020E0BD0A00EFE728000830C118C019A8
:1009A00014F02DFA0020F4E701204042F1E7C046A0
:1009B0004068704710B5141E0DDB4268A2420ADB86
:1009C000002B00DA1300121B9A4200DD1A000830D7
:1009D00000190FF067F810BD436810B51C008B427A
:1009E00000DD0C00002A00DA1A00191B914200DD1C
:1009F00011000830001900F057FF10BD70B50D0050
:100A0000002B01DA43689B1A002A1DDB4468991801
:100A1000A14219DC914217DB002B15D0690013D0DD
:100A20005942A94211DAAB420FDD08308618002D79
:100A300012DB5C1B22007119300014F0E0F92A006F
:100A4000002130190FF02EF870BD01230022002183
:100A50005B42FFF7AFFFF7E731005A196C42701B9A
:100A600014F0CDF92200002130000FF01BF8EBE765
:100A700010B54168083000F087FE10BDF8B50500DC
:100A800043680020590000F00FFE6B68002B12DD58
:100A90002E0000230F27084C821D0836F15C091137
:100AA000615C1170F15C01333940615C51706968BF
:100AB00002329942F2DCF8BD405D011070B50400CD
:100AC000160008001D1E01DA63689D1A002E2CDB3B
:100AD0006268AB19934228DCB34226DB002D24D098
:100AE000430022D0002801DA2B02C01829000CF0A4
:100AF00019F9002900DA49190834A419611865198F
:100B00008C4212D022000B0005E00132030091421A
:100B10000CD0934209D0187814781070581C1C70AF
:100B20008542F2D10B000132F3E770BD0100F0E71E
:100B3000012300B55B4283B000930023FFF70CFF55
:100B400003B000BD030010B500200C1E06DD59687F
:100B50000833180002F07CFB1F2C00DD10BD0300E1
:100B6000E34058400123A340013B1840F6E7C0464C
:100B700010B50100002000F097FE10BD70B50021F7
:100B8000050000F02DFE0100002000F08DFE0100A8
:100B900004000831280000F023FE200070BDC0468C
:100BA00030B504000D00180083B0102A0DD8484B52
:100BB00092009B589F4601F0E5FD6B461880012D81
:100BC00003DDE30700D57CE0208003B030BD01F0F9
:100BD000D9FDC0B2002DF8DD2070F6E701F0D2FD9E
:100BE000002DF2DD2070F0E701F0CCFD83B2012D85
:100BF000EBDD1B0A60702370E7E701F0C3FD032DF6
:100C0000E3DDE0704EE001F063FD0090032DDCDDDC
:100C1000A30750D12060D8E701F05AFD032DD4DDA1
:100C2000E0703FE001F0AEFD03B2012DCDDD1B040D
:100C30001B0E60702370C8E701F0A4FD0090032D27
:100C4000E6DCC2E701F09EFD6B4680B21880012D04
:100C5000B7DCBAE701F02AFE0090032DD8DCB4E738
:100C600001F00AFD00900191072DAEDD08226946D2
:100C700020000EF01DFFA8E701F0FEFC009001919E
:100C8000072DA2DD23006A4608331178013B197055
:100C900001329C42F9D198E701F008FE032D00DCF7
:100CA00093E7E07003041B0EA37003021B0E000EFB
:100CB0006370207089E70422694620000EF0F8FE78
:100CC00083E70222694620000EF0F2FE7DE7C0466F
:100CD000545D011010B5002A07DB44680830A41ADF
:100CE00080180A002100FFF75BFF10BD10B584B02B
:100CF000102A00D977E03D4B92009B589F46012374
:100D0000009102A90822FFF7BFFD0298039901F0A4
:100D100079F804B010BD002302AC0091012221003B
:100D2000FFF7B2FD0020205601F068F9F1E700233B
:100D300002AC009101222100FFF7A6FD207801F00E
:100D40005DF9E6E7002302AC009102222100FFF7E3
:100D50009BFD0023E05E01F051F9DAE7002302ACCD
:100D6000009102222100FFF78FFD208801F046F953
:100D7000CFE700230091042202A9FFF785FD029826
:100D800001F03CF9C5E7012302AC0091C6E701235D
:100D900002AC0091CEE7012302AC0091D5E701231C
:100DA00002AC0091DDE701230091E4E7002300910C
:100DB000042202A9FFF768FD029801F02BF9A8E7C9
:100DC00001230091F4E700230091042202A9FFF718
:100DD0005BFD029801F00CF99BE70023009190E77E
:100DE00001230091F1E7002093E7C046985D0110D0
:100DF00010B5002A08DB436808309B1A80180A00E7
:100E00001900FFF773FF10BD002001F0F7F8FAE7B3
:100E100010B503F0E5FC10BD10B503F0E5FC800053
:100E2000800810BD10B503F001FE10BD10B513F021
:100E3000A7FD10BD10B5C11703F098FC10BDC0464A
:100E400010B503F0A7FC10BD10B503F0B3FC10BD46
:100E500000B583B003F0C0FC009001910821684602
:100E600002F0F6F98000800803B000BD00B583B041
:100E700003F0B2FC009001910821684600F014FDD7
:100E800003B000BD70B50C1E0CD00B6808001B6AC7
:100E90009847236805005B6A2000984701002800F6
:100EA00004F000FF70BDC04610B502F0E9F810BDB7
:100EB00010B5012002F08EFB10BDC04610B5022017
:100EC00002F088FB014809F045FE10BD93030000C5
:100ED000014B18607047C0462C1900207047C0466F
:100EE00000207047F0B54546DE4657464E46E0B511
:100EF000050083B0002A00DC20E180246442002049
:100F0000A4469F340023A0460190CE56CC5C002E10
:100F100033DA260040468643F6B2C02E52D0260071
:100F20000F208643F6B2E02E32D19E1C964247DA5D
:100F30003F26C818824640788146B0435E1C802810
:100F400000D1BAE03300019802300190002D0AD0A0
:100F50004020A609404206437F30044060460443D7
:100F60002E706C7002359342CFDB019803B03CBC0D
:100F700090469946A246AB46F0BD01337F2CE2D89D
:100F8000019801300190002DEDD02C700135EAE779
:100F9000260007208643F6B2F02E11D1DE1C9642C1
:100FA0000EDAC818467881463F273000B8438028BB
:100FB00006D148463F2780788246B843802825D00E
:100FC0005E1CBFE75E1C9642BCDA3F27C81840781B
:100FD0008146B8438028B5D1A0018246F820C000E0
:100FE000834650465F46384082463F274846384051
:100FF000814650464F4638437F2800DD9BE0019BE9
:10100000023301933300002DA2D17EE748463F27EB
:10101000C0788346B8438028D2D1E027A0047F035C
:10102000384081463F2758463840834648465F4609
:1010300038438146FC203603800206404846304350
:101040008146FC265046360180010640484606434C
:101050003B4881468020B14440035E1C814500D35B
:1010600070E70198043306300190002D00D17AE733
:101070004846840AD820000282463F265444A009EC
:1010800030406646304368703F2004404846344351
:10109000AC708405DC2000028146ED276046A40D7B
:1010A0004C442F70EF70A609AE3F3E403C400643D3
:1010B00004432E716C71063555E750463F27807802
:1010C0008346B843802800D03CE72007000C8246C6
:1010D00058463840834650465F4638438246484625
:1010E00080018146FC200001834648465F46384027
:1010F000814650464F463843814680200001814555
:1011000000DA1FE70198033303300190002D00D16E
:1011100029E748462024060B644234433F262C70BE
:1011200084096046344004436C704C4634400443A8
:10113000AC70033517E70400023304E7002015E71D
:101140000000FFFF02000023D3560078002B08DACE
:101150001F2301009943C02911D0F0230340E02B45
:1011600000D07047FC2351781B0189011940030707
:101170003F2092781B0C0B4310401843F1E783018A
:10118000F820C00003403F20527810401843E8E7A1
:10119000F0B5C5888D4230D30B09002A2FD1826863
:1011A0002D096D00868855190F2909D91B488446D9
:1011B00063445B009B5AF61AED180F23B6B2194030
:1011C0000F20002200231F27844602E001339E42A5
:1011D00013DB0132EC5CE81891420FDB60B20028AF
:1011E000F4DA2000B843C02816D060468443E02CCF
:1011F000ECD1023301339E42EBDA0020F0BD020055
:101200002D096D000832868855190F29D8D9013B60
:101210005B00C0180389CEE70133D7E7FFFFFF7FEC
:1012200080880A3080087047063070478088704791
:1012300083888B4202D30630401870470020FCE7B9
:1012400080880A3080087047063070478088704771
:10125000F0B58588811D0020002D16D000231F26A3
:101260000F2702E001339D420FDDCC56CA5C0130EE
:10127000002CF7DA1400B443C02C07D0BA43E02A9C
:10128000F0D1023301339D42EFDCF0BD0133E9E7D9
:10129000F0B5851D86880F20002200231F27844675
:1012A00002E001339E4213DB0132EC5CE81891420C
:1012B0000FDB60B20028F4DA2000B843C02809D060
:1012C00060468443E02CECD1023301339E42EBDADA
:1012D0000020F0BD0133E4E703207047C388806835
:1012E0001B095B00C018704780887047C088704732
:1012F00010B50022FFF74CFF10BDC0460300C088A8
:101300009B88000902304000C018083080087047F0
:101310000200C08808320009400010187047C0461B
:1013200010B50122FFF734FF10BDC04640680B30F6
:1013300080087047F0B5D6464F4646460500140073
:10134000C0B5002A1AD0C78804003F097F00BA46FA
:10135000838808349846A244002951D01A00504688
:101360000EF0A6FB0023524641465354EE88360940
:101370001AD11CBC90469946A246F0BD8368C78826
:101380009A463F0983887F009846BA4400293DD099
:101390001A0050460EF08CFB534642469C54EE8891
:1013A0003609AC68002EE4D07600B14650460023E2
:1013B0001F25A1444246D71A1CD40F261021002312
:1013C000B446027807E001339F4213DB0139C25C67
:1013D000C618002922D056B2002EF4DA1600AE4309
:1013E000C02E19D06646B243E02AECD10233013355
:1013F0009F42EBDADC20800009F0ACFB00200EE01D
:10140000534642469954C6883609CBE7534642466E
:101410009954C6883609C4E70133D4E730005346EF
:10142000C31A238002344C45C4D1A2E710B58068AA
:10143000002801D001F0AEFF10BDC04610B5040079
:10144000406801F0CDFFA06801F0CAFF10BDC046A2
:10145000F0B54546DE4657464E46E0B54B4C0500D6
:10146000A18883B0002900D081E02A00200002F08A
:101470009FFEA3889846002B00D182E00023984667
:101480009946434B9B460AE09B6A984733688144E0
:101490005B6A30009847A3888044002B13D020005B
:1014A00002F09AFE036806005B45EDD18268A188D0
:1014B000200002F07DFE20007268A18802F078FE14
:1014C000A388002BEBD14B461F094346581C9BB207
:1014D00098464B467F009BB2C019019302F0EEFB89
:1014E0008146A1884F44002946D12A00200002F0FD
:1014F0005FFEA388002B26D0254B9B460FE05B6A3E
:101500009847336882461B6A30009847524601006C
:1015100038000EF0CDFAA3885744002B13D02000DA
:1015200002F05AFE036806005B45E8D18268A18894
:10153000200002F03DFE20007268A18802F038FE13
:10154000A388002BEBD1134B00222B604346AB80CA
:10155000019B0021EB804B462800AB60FFF7EAFEC1
:1015600003B03CBC90469946A246AB46F0BD0A4843
:1015700009F0F0FAA18878E7074809F0EBFAA188AA
:10158000B3E7012000270193A8E7C046DC1A00203A
:10159000A45E0110D45E01107103000010B50400B8
:1015A000FFF756FFE08810BD10B50400FFF750FFAD
:1015B000A08810BD10B50400FFF74AFFE388A068BB
:1015C0001B095B00C01810BD70B50D000400FFF7CB
:1015D0003FFF290000222000FFF7DAFD70BDC04662
:1015E0007047C0460320704703207047C08870478B
:1015F0007047C046808870477047C04680887047F3
:101600007047C04600280ED043688B4201D0002BA3
:1016100006D1531C07D08368934204D0002B02D01C
:1016200000680028F0D170470A4B020018680028B3
:101630000ED043689A4201D0002B06D14B1C07D034
:101640008368994204D0002B02D000680028F0D1B2
:101650007047C046FC1A0020F0B5C646114B040086
:101660000D001600984600B51B68002B09D05A687B
:10167000A242F9D19A68AA42F6D1DE6004BC904633
:10168000F0BD102002F02CFB43461B6807000360EE
:1016900044608560C66001210C3002F0D1FB4346F6
:1016A0001F60EBE7FC1A0020F0B5C64605000C00F1
:1016B00000B500290ADB0ED0002811D1C81D02F0A8
:1016C0003BFA2D4B0700036084801EE013F084FC7E
:1016D0008046041E05D1294F380004BC9046F0BD59
:1016E00088460023EA5C7F2A13D80133A342F9DB42
:1016F000214E4346D81D02F01FFA424607000660FD
:101700008480290006300EF0D3F900233C19A37120
:10171000E2E7132C2CDD002600231F200F2702E018
:101720000133A3420FDAE956EA5C01360029F7DA01
:1017300011008143C0291DD0BA43E02AF0D1023301
:101740000133A342EFDB0F20F31718404346801903
:10175000001109334000C01802F0EEF9084B0122D5
:10176000290003608480C6800700FFF7E3FDB3E72C
:10177000044EBEE70133D3E7345F0110206001104F
:10178000645F0110045F0110F8B505000C1E02DA59
:1017900013F022FC0400002C02D1104C2000F8BDF4
:1017A000220029000020FFF79DFB060084420FD095
:1017B00002F096FA070022002900FFF793FB3100A0
:1017C0003800FFF771FF0400380002F099F9E5E7EF
:1017D00021002800FFF768FF0400DFE72060011008
:1017E000F8B5DE4657464E46454603680400E0B568
:1017F0001B6A88469847236806005B6A2000984762
:10180000071E11D08023DB00002400259B46335D9A
:101810003019ED2B0FD04246002A00D05355013528
:101820000134BC42F3D32F0038003CBC90469946AB
:10183000A246AB46F8BD621D9246BA42EBD2FFF714
:1018400081FC174B99468144D945E9D2E01C3018F8
:10185000FFF778FC134BC3185B45E1D24346002BDE
:101860001BD090224B469201944610229B02634467
:10187000181883145242134342463F218024535583
:101880005319021364420A4022435A7082110A40DB
:101890000840224320439A70D87054460435BFE76D
:1018A0000028FFFF0024FFFF70B506000C1E10DDAE
:1018B0000800083002F040F9094B050022000360DF
:1018C0004460002E07D0310008300EF0F1F82800F7
:1018D00070BD044DFBE7002108300EF0E3F8F6E799
:1018E000945F011014600110014B18607047C046EE
:1018F000F8170020020043011B189B011B189B00D6
:101900001B18D802C31A5B009B1AD800C01A0449DE
:10191000C300181A40000B688018584008607047D0
:10192000F81700200F4BF0B59C46050001241F68F6
:101930002A000020BE09FB0F73407B403E09790856
:101940007340BF087B404B40DB070B431F00230065
:1019500040003B4018435208ECD18542E8D363462F
:101960001F60F0BDF817002000487047206001108C
:1019700010B5184A030482B01B0C104206D1012195
:1019800001A80370FFF790FE02B010BDF82212020A
:1019900010420DD14022991152420A4301A802700F
:1019A0003F221A4080235B42134302214370E9E740
:1019B0002022191352420A433F24802101A80270B9
:1019C0009A114942224023400A43194381704270D0
:1019D0000321D7E780FF0000F0B54F46D6464646C4
:1019E0000C00C0B5071E63D0454B002943D0984278
:1019F0006ED09C4262D03B68424EB34264D05B6A78
:101A000038009847236881465B6A200098470600A3
:101A10004E448046322E55D83B6838001B6A9847A2
:101A2000236882461B6A2000984731000700002087
:101A3000FFF73AFE036805001B6A98474A4651467D
:101A400004000EF035F84B4642463900E0180EF01F
:101A50002FF8002E09D0361902E00134A64204D036
:101A600023787F2BF9D9284B2B6028001CBC90468B
:101A70009946A246F0BD984222D00368214E234CDD
:101A8000B342BCD1B8680368B34209D05B6A9847D7
:101A9000236805005B6A20009847401932281DD949
:101AA0000C2002F049F80500066047608460DCE71E
:101AB00000290FD0124B154F9C429CD13D00D4E71A
:101AC000124DD2E70F4EEBE72368B342DAD1E7E7D6
:101AD0000D00CAE70D4C0E4B270090E70C2002F0DA
:101AE0002BF80500066002F0C3F97B6821006B60EB
:101AF000B868FFF771FFA860280002F0CBF9B4E7DF
:101B000020600110A45E0110045F011074600110D8
:101B1000345F0110F8B505000C00884226D0036838
:101B20005B6A9847236807005B6A200098472B6828
:101B300006001B6A28009847236805001B6A2000DE
:101B400098470200BE420BD82C00521B2378105D30
:101B5000834207D083428041012398430130F8BD7E
:101B60003E00F1E70134631B9E42EFD20020F6E70E
:101B700010B503689B6A984710BDC046F0B546464D
:101B8000DE4657468846C0B57F22060082B03778C9
:101B90003B00093B042B5DD913003B40202B59D05F
:101BA0002B2F01D1777801362D2F00D175E000233E
:101BB000404C00930194002F00D178E000220023D4
:101BC00093460024002521E000223B4B2000290001
:101BD0000BF04DFB04000D0050460BF0C1FB220042
:101BE0002B000BF01DFB5A4604000D000123002AB8
:101BF00008D000980199304B00220BF01AFB5B468D
:101C00000090019177780136002F11D03022524296
:101C10009246BA445246092AD6D95A46002A1BD1BE
:101C20002E2F19D10122777801369346002FEDD15E
:101C30002200009801992B000BF019FB04000D0005
:101C400043461E602000290002B01CBC90469A4604
:101C5000A346F0BD01369AE7002B25D000980199E4
:101C60002B0022000BF003FB202304000D009F43F8
:101C7000452FE5D10A224146701C13F04DFA0E495A
:101C80000200002013F0B4FE02000B002000290027
:101C90000BF0EDFA04000D00D4E70023074C777831
:101CA00000930194013686E70024054DCAE700241D
:101CB0000025BDE70000F03F000024400000F0BF19
:101CC0000000F87FF8B507000C00151E0ADD036858
:101CD0009B6A98470600002C06DB331BAB420ADCEC
:101CE000002B09DC0F48F8BD0419E343DB171C4047
:101CF000331BAB42F4DD66193B682100DB6A380018
:101D000098473B68050031003800DB6A9847041E9D
:101D100004D02800611BFFF7C7FCE4E7024808F085
:101D200019FFF6E72060011072030000F8B547467E
:101D3000CE46050080B514000F0000284ED00029C3
:101D40004CD003681B6A9847E14380462B68C9174B
:101D500021402800DB6A98474346C61A2B680400D6
:101D60005B6A280098473B68861B5B6A3800984787
:101D70000500002C32D0864230D33B6838001B6A05
:101D80009847A6198146077803E00134331B9D422A
:101D900024D82378BB42F8D12A004946200013F00A
:101DA00020F80028F1D14346E41A002C18DD002366
:101DB0001F250F2602E001339C4211DD41464246B9
:101DC000C956D25C01300029F5DA1100A943C029B7
:101DD0000AD0B243E02AEED10233ECE701204042C0
:101DE0000CBC90469946F8BD0133E4E710B5FFF707
:101DF0009DFF0130431E984110BDC046012358404D
:101E00007047C04670B50A0005000C1E11D10028AD
:101E10004ED02A002300280021000BF08EFA002863
:101E200048D10C3001F088FE234B4560036084608C
:101E300070BD4B0021495B0D59181D2917D8142975
:101E40001EDC1F48844620006344984003002B4357
:101E5000DFD18020E40200061F332043591AC84016
:101E6000002A21DA0123404240001843E0E71E29FE
:101E7000CFD10028CDD1134B9C42CAD11248D7E70D
:101E800012488446280063449840031EC1D1802034
:101E9000E40200061F335B1A2043D8403423591A4A
:101EA000CD402843002ADDDB012340001843BFE773
:101EB0000120BDE70E20BBE7C45F011001FCFFFF5E
:101EC0000DFCFFFF0000D0C101000080EDFBFFFF13
:101ED00070B5036882B01B6A984701A9FFF74EFEF0
:101EE00004000D0000220023200029000BF002FA5C
:101EF00000280CD101226E00760820003100154B1D
:101F000052420BF01AFA002807D00024124D20008C
:101F10002900FFF777FF02B070BD012220003100D9
:101F20000C4B52420BF004FA0028EED18023002221
:101F3000200031005B030BF000FA0028E5D180237C
:101F40000022200031005B030BF0DCF90028DED01A
:101F5000DBE7C046FFFFEF7F0000F87F10B50BF016
:101F6000FFF9FFF74FFF10BD036870B5DB6A04008F
:101F70009847051E1AD0FFF7E5F800280FD123680F
:101F800020001B6A9847236806005B6A2000984778
:101F90003618B5420AD000230120184305E043005B
:101FA0005A109042F8D0FFF7D9FF70BD0E20FCE721
:101FB00010B5002802D0FFF7D7FF10BD0E20FCE7B8
:101FC00010B500280AD0FFF7CFFF04000E2805D077
:101FD000C30705D56010FFF7CBFC00E0024810BD39
:101FE000024808F0B7FDF5E720600110710300001A
:101FF00010B50DF0BFFBFFF705FF10BD430010B596
:102000005A10904202D0FFF7A9FF10BD01201843DB
:10201000FBE7C046802310B5DB05984203D20123BD
:102020004000184310BD0BF097F9FFF7EBFEF9E7FE
:10203000431E98414342382018400A307047C0463A
:10204000F0B54E464546DE465746E0B5002316003D
:1020500083B0002205000C000BF054F9002806D0D4
:102060002D23337080231B069C46013664440022D6
:102070000023280021000BF03DF900280AD030236E
:1020800033700023737003B03CBC90469946A2465F
:10209000AB46F0BD280021000CF0AAF80BF078F94F
:1020A00021008046884A2800884B0BF02BF9002835
:1020B00008D128002100864A864B0BF039F9002808
:1020C00000D17DE04346002B00DAA1E0424600202B
:1020D000814913F08DFC02000B00280021000BF059
:1020E000A8F87E4A7E4B0BF0C2F87E4B00220BF024
:1020F00097F80BF089F901235B429A46023301936A
:10210000002304000D0099462E23774F77490122C2
:102110009B4677486837A9421CD8A9424CD0302347
:10212000241A8D410133A94202D8F9D1A042F7D92E
:10213000D9B231702100731C294311D10199914208
:1021400016DD0F2A14D0386879681E00083F013266
:10215000A942E2D9302131702100731C2943EDD00E
:1021600001999142EDD15946B31C71700F2AEAD101
:102170005146481C49461A003024181800290BD033
:1021800014700132811A0029FADC5246D2435146BA
:10219000D2170A4001329B184246012A35D06522E7
:1021A0001A704246591C002A02DD2B22991C5A70D3
:1021B00040460DF0A7FC66E7A042B0D93021CAE73F
:1021C00043465F1C01970E2B46DD0E235B424344C2
:1021D0001A0000204049994613F00AFC02000B0047
:1021E000280021000BF025F800223E4B0BF018F8D8
:1021F0000BF00AF904000D00002F13DD0F235B42E2
:1022000043449A46012398467EE700221A703AE733
:102210005A420020304913F0EBFB2A0023000BF058
:1022200026F85EE730233370B31C9C462E23737070
:102230004346DE430F235B4243449A46013E6346D6
:10224000302198191A00197001338242FAD1012302
:1022500001369846664457E70E220020D21A1E49DE
:1022600013F0C6FB02000B00280021000AF0FFFF5C
:102270001C4B00220AF0D4FF0BF0C6F8019B0400AF
:102280000D00002B18DC30233370B31C9C462E232A
:1022900073704346DB4399465E1E002B05D0012335
:1022A0005B429A4600239946C9E701235B429A465E
:1022B00002336646984627E701235B429A4602337B
:1022C0009846002399461FE78DEDB5A0F7C6B03EAE
:1022D00050EFE2D6E41A4B44000024400000901E68
:1022E000C4BCD6420000E03FF0600110F35A000089
:1022F00000407A10012070B54042FFF713FB040044
:102300000D48FFF70FFB060020000BF025F8002218
:102310000A4B0AF0ACFF040030000D000BF01CF873
:10232000074A084B0AF085FF02000B002000290035
:102330000AF076FF70BDC046FFFFFF000000F03DD1
:102340000000E0DFFFFF6F4310B5FFF7D3FFFFF79B
:1023500059FD10BD4843704710B50AF0E3FC10BDAD
:1023600010B50C2001F0E8FB040002F039F8200061
:1023700010BDC0460089704710B5043001F0A4FFBD
:1023800010BDC04610B50A000430818801F082FFFC
:1023900010BDC04610B5043001F0A4FF10BDC0460A
:1023A0000389994203D243688900C85870470020C6
:1023B000FCE7C04610B5043001F06CFF10BDC0460C
:1023C00010B5043001F09EFF10BDC04610B50430BA
:1023D00001F0B8FF10BDC046024B1B68588CC0000E
:1023E0007047C046D81A00201F4B70B51B68040008
:1023F0000E00002B22D0596A00290CD00B68002552
:102400009C4206D129E0AA1C9300CB58A3421CD0C1
:102410001500002BF7D103F00DFB00280CD003684A
:1024200000259C4206D11BE0AA1C9300C358A3427E
:102430000FD01500002BF7D1300070BD0B4B0C4AAC
:1024400019689142E7D15B68D5E70335AD0048597B
:10245000F3E70335AD004059EFE704354859ECE7A1
:1024600004354059E9E7C046D81A0020A06601109B
:1024700010420000406870474160704710B5082066
:1024800001F05AFB040001F0B3FF200010BDC0466C
:1024900070B505000C00160000290ADB83889942FC
:1024A00007DAA4002C19E368002B0BD12800E660A2
:1024B00070BDA4000A2106482C1901F0F3FFE3685F
:1024C000002BF3D00B21024801F0ECFFEEE7C046F1
:1024D0008603000010B508F03DFB10BD002805D0B4
:1024E000034BC31A5A1E93415B4218407047C046C3
:1024F00020600110431E98417047C04610B514205B
:1025000001F01AFB040001F07BFF200010BDC04663
:1025100010B5040001F07EFF002806DB238A9842F4
:1025200003D2E3688000C05810BD0020FCE7C0461D
:102530001E4BF0B51B68C646DB6A07001A009B6895
:1025400020CA00B59046013D98421AD3AB009B5873
:10255000984216D8002D0FDD012202E0621CAA422B
:102560000ADC414654196410A3005B589F4204D012
:10257000F4D8651EAA42F4DD0024200004BC904675
:10258000F0BD002DF8DD012602E0651EB542F3DB4B
:102590004246AC196410A30039009858FFF7BAFA04
:1025A0000028EAD0F1DA661CF0E7C046D81A00200D
:1025B000044B10B51B680131DB6A8900C958FFF76D
:1025C000A7FF10BDD81A002070B50D00040016003A
:1025D00001F020FF011E05DB200032000C3001F06D
:1025E00059FE70BD2A002189201D01F053FE2000F4
:1025F0003200218A0C3001F04DFEF2E7044B10B599
:102600001B680131DB6A8900C958FFF7DDFF10BD87
:10261000D81A0020014B18687047C046D41A002011
:102620007047C04610B583070AD100281BD001228D
:10263000036804249343DA78F92A12D0200010BDED
:10264000002810D0C30710D40E280ED042280ED078
:102650000A280CD004240628F0D0064808F07AFA9C
:10266000ECE79C78EAE70024E8E70224E6E70124A7
:10267000E4E7C0462103000070B504000E281FD017
:1026800000281DD0830711D12000FFF7CBFF0500E4
:10269000022818D0032813D12000FFF719FC0400EA
:1026A0000E280DD0002C0BD02C42EDD0200000F0D5
:1026B0000FF80AF055FE02000B001000190070BD63
:1026C0000022024BF9E76268A368F6E70000F87F92
:1026D00070B5C30701D5401070BD830703D58011C5
:1026E000431E9841F8E7002846D0FFF7C5FF0122B6
:1026F00004004D006D080E00200029001F4B5242BF
:102700000AF01BFE002837D10122200029001B4BB4
:1027100052420AF00DFE00282ED180230022200014
:1027200029005B030AF009FE002825D1802300223E
:10273000200029005B030AF0E5FD00281CD12000E1
:1027400031000BF007FA00220D4B0BF0DFFE0022E8
:10275000002304000D000AF0D5FD002807D020005A
:1027600029000022064B0AF05BFD04000D0020004A
:1027700029000AF031FEAFE70020ADE7FFFFEF7F51
:102780000000F04110B5FFF7A3FF10BD70B50D00BC
:10279000FFF79EFF04002800FFF79AFF1F23034066
:1027A0002000984043005A10904202D0FFF7D6FB19
:1027B00070BD01201843FBE770B50D00FFF788FFDF
:1027C00004002800FFF784FF1F2303402000184166
:1027D00043005A10904202D0FFF7C0FB70BD0120A9
:1027E0001843FBE770B50D00FFF772FF04002800E7
:1027F000FFF76EFF604043005A10904202D0FFF78F
:10280000ADFB70BD01201843FBE7C04670B50D005D
:10281000FFF75EFF04002800FFF75AFF2043430044
:102820005A10904202D0FFF799FB70BD0120184367
:10283000FBE7C04610B5FFF74BFFC04343005A10FB
:10284000904202D0FFF78AFB10BD01201843FBE73E
:1028500070B50D00FFF73CFF04002800FFF738FFBC
:10286000204043005A10904202D0FFF777FB70BD22
:1028700001201843FBE7C04670B50D00FFF728FFA5
:1028800004002800FFF724FF1F2303402000D84046
:102890008023DB05984203D201234000184370BD1A
:1028A0000AF05AFDFFF7AEFAF9E7C04610B50E2858
:1028B0000DD000280BD0830704D1FFF7DDFE0AF00E
:1028C000AFFD10BDFFF704FF0CF0F4FEF9E701487F
:1028D000F7E7C0460000C07F70B50E00FFF7CCFEE2
:1028E000040030000D00FFF7C7FE02000B002000BF
:1028F00029000AF095FCFFF785FA70BD70B50E004F
:10290000FFF7BAFE040030000D00FFF7B5FE02002D
:102910000B00200029000AF07AFCFFF773FA70BD63
:102920000B0001220340D0B50C001A4203D0C313A0
:102930000133012B0FD9FFF79FFE060020000F0087
:10294000FFF79AFE02000B00300039000AF08FFCFE
:10295000FFF758FAD0BDCB130133012BEBD84C1045
:102960004010604343005910884202D0FFF7F6FA46
:10297000F0E713431800EDE7D0B50C0003290ED0A3
:10298000FFF77AFE060020000F00FFF775FE020039
:102990000B00300039000AF04CFCFFF733FAD0BDD1
:1029A000F8B501250C00284201D029420FD1FFF7CC
:1029B00063FE060020000F00FFF75EFE02000B0022
:1029C000300039000BF0A2FDFFF71CFAF8BD4B10E8
:1029D000EDD0FFF77DFE06002000FFF779FE010035
:1029E00030000AF09FF94B0008005A10914202D0C3
:1029F000FFF7B4FAEAE72B431800E7E770B50E00DB
:102A0000FFF73AFE040030000D00FFF735FE02002C
:102A10000B00200029000BF0F7FBFFF7F3F970BD66
:102A2000F0B50E00012183B0084210D00E420ED046
:102A300040107610864244DA801BFEF773FF301890
:102A400046007310984241D0FFF788FA1CE0FFF768
:102A500013FE040030000D00FFF70EFE06000F000D
:102A600002000B00200029000AF062FC002813D1AC
:102A700032003B00200029000AF03CFC002805D071
:102A800020002900FFF7BEF903B0F0BD32003B0083
:102A900026002F0014001D00FFF72CFC32000090D0
:102AA00001913B00200029000AF0B1FB009A019B34
:102AB0000AF0DDFB32003B000AF0B2FBFFF7A2F99F
:102AC000E2E7864205D170000843DDE7012030438C
:102AD000DAE7330006001800AEE7C04610B5FFF78E
:102AE000CBFD0AF031FDFFF78DF910BD10B5FFF7F2
:102AF000C3FD0BF07DFBFFF785F910BD10B5FFF7A7
:102B0000BBFD0BF0A5F8FFF77DF910BD10B5FFF781
:102B1000B3FD0BF0E5F8FFF775F910BD10B5FFF741
:102B2000ABFD0BF017F8FFF76DF910BD10B5FFF70F
:102B3000A3FD0022034B0AF073FB0BF089F8FFF7AB
:102B400061F910BD0000E03FF8B504000D000E284B
:102B500007D00E2905D0884226D00B000340DB07A2
:102B600001D50020F8BDFFF75DFD06002800FFF746
:102B700059FD8642F5D123002B439B07F1D1032E4B
:102B800014D0022EEDD12000FFF776FD06002800BC
:102B90000F00FFF771FD0B000200390030000AF052
:102BA000A9FB431E9841DDE70120DBE72900200057
:102BB000FEF7B0FF43425841C0B2D3E710B5FFF76C
:102BC000C3FF431E98414342382018400A3010BDCD
:102BD00010B5FFF7B9FF434258414342382018402F
:102BE0000A3010BDF8B505000C000E2828D00E29BB
:102BF00026D0062861D042283FD00A2833D00200D0
:102C0000062900D170E0422C32D023000A2C36D0A5
:102C10009A4230D02B002340DB0711D42800FFF765
:102C200001FD06002000FFF7FDFC0300032E09D084
:102C300003282FD0012E46D0012822D09E4205D055
:102C40000020F8BD022827D00328F5D12B0023430C
:102C50009B07F5D1032E4BD0022E1DD0641B604282
:102C60006041C0B2EDE70122062CD7D0422CCCD176
:102C700003239A42CED10120E3E70322F4E70123A4
:102C8000C6E7062C3CD0422CDAD002230A2CD5D140
:102C9000093CD3E7022E1FD12800FFF7EDFC060008
:102CA00020000F00FFF7E8FC0B00020039003000A5
:102CB0000AF020FB431E9841C3E70629DBD04229D6
:102CC000A8D00022A1E7062D0BD00226422D0DD060
:102CD0000A2DB1D1093DAFE7012EB1D1062DF4D1B6
:102CE000AEE702260025A7E7002391E70325A3E727
:102CF00021002800FEF70EFF43425841C0B2A0E772
:102D0000022300249AE7C04610B5FFF76BFF10BD01
:102D100010B5FFF767FF431E984143423820184023
:102D20000A3010BD10B5FFF75DFF434258414342E2
:102D3000382018400A3010BDF8B506890D004768E4
:102D4000002E0DD0002402E00134A64208D9A300D1
:102D50002900F858FFF746FF0028F5D0200001E0D1
:102D600001204042F8BDC04610B500220400FFF724
:102D7000E3FF01000020002900DA10BD201D01F052
:102D8000C1FA0120F9E7C04670B50400830709D1F4
:102D9000002827D0FFF746FC032825D002280ED0B4
:102DA00001200BE00A281DD000281BD00E2819D0C6
:102DB000062817D0013C2000441EA04170BD200011
:102DC000FFF75AFC02000B0004000D000AF0B5FAF0
:102DD000002807D100220023200029000AF08AFAE7
:102DE0000028DDD00020E9E70248201A441EA04157
:102DF000E4E7C0462060011010B5422806D00A283A
:102E000002D0FFF7C1FF10BD0020FCE70120FAE768
:102E1000F8B504000E000E283FD00E293DD0FFF774
:102E200001FC05003000FFF7FDFB032D2CD0B44260
:102E300031D02000FFF720FC040030000D00FFF728
:102E40001BFC220006000F002B00200029000AF0C6
:102E500074FA002821D132003B00300039000AF01A
:102E60006CFA002819D132003B00200029000AF03A
:102E700049FA002814D13B003200200029000AF052
:102E800057FA431E9841F8BD0328D0D131002000E5
:102E9000FEF740FEF7E70020F5E702204042F2E7A8
:102EA00001204042EFE7C04601220B0010B514009C
:102EB00003401C401A4207D00124884202DAE4B2DF
:102EC000200010BD0024FAE7FFF7A2FF831CF7D013
:102ED000C40FF5E70B00034010B5DB0703D58842AC
:102EE00007DD0A2010BDFFF793FF831CF9D00028EF
:102EF000F7DC4220F6E7C0460B00034010B5DB07C5
:102F000003D5884207DB0A2010BDFFF781FF831C31
:102F1000F9D00028F7DA4220F6E7C0460B0003405C
:102F200010B5DB0703D5884205DB422010BDFFF753
:102F30006FFF0028F9DA0A20F8E7C0460B000340CB
:102F400010B5DB0703D5884205DD422010BDFFF731
:102F50005FFF0028F9DC0A20F8E7C04670B590B0A2
:102F60000400FFF75FFB032835D002280DD00528A9
:102F700034D0002C40D00A2C53D00E2C3AD0422C06
:102F800053D0062C4FD02B4826E0E30728D40E2C34
:102F900030D02000FFF770FB01224E0076080D00B4
:102FA000254B3100524204000AF0C7F9002825D110
:102FB000012220003100204B52420AF0A9F90028DA
:102FC0001CD100220023200029000AF09BF90028D0
:102FD0002DD11A4800E0200010B070BD1848FBE762
:102FE000694660100CF08EFD012168464942FEF7EB
:102FF0005BFBF1E71348EFE71348EDE722002B00F6
:10300000200029000AF099F90028F3D120002900B6
:103010006A46FFF715F8012168464942FEF744FB6E
:10302000DAE70A48D8E70A48D6E70A48D4E70A4860
:10303000D2E7C04698600110FFFFEF7F48600110A3
:10304000A860011058600110046001108C6001102C
:1030500074600110806001106460011010B5FFF70A
:10306000E1FA052803D8044B8000C05810BD03487E
:1030700007F070FD0020F9E78C5E011022030000CC
:1030800070B50400FFF7CEFA042813D1002C0CD041
:10309000A3070AD1216801230A009A435369134800
:1030A00083421DD02000984703E0210010480CF017
:1030B0003FFF70BD2000FFF751FF05002000FFF724
:1030C000CDFF03681B6A98472B6806001B6A28001F
:1030D000984722000300310006480CF029FFE8E77A
:1030E0001388054812890CF023FFE2E781300010B5
:1030F000DC5D0110085E0110E85D011010B50A00EA
:103100000400010011480CF013FF002C0BD0A307A2
:1031100005D1012321689943CB78F92B0DD0062CDA
:1031200001D10B4806E02000FFF77CFAF5239B0055
:103130009C46604407F00EFD10BD0B898A78054857
:103140000CF0F6FE062CECD0EDE7C046185E011040
:10315000DD030000385E0110010010B503480CF0DB
:10316000E7FEE420800007F0F5FC10BD585E01107A
:1031700010B501F03DFB0400102000F0B1FD236903
:103180000360206110BDC04670B501F031FB0569D8
:103190000400002D05D02B682800236100F0B0FC4E
:1031A00070BD024807F0D6FCF5E7C04653030000A7
:1031B000F0B5C64600B584B0804601F019FB04693D
:1031C0000500002C17D06E46236822002B613300C7
:1031D00083CA83C3126820001A6000F091FC434642
:1031E0006B610A4B29001B6830009B6B984704B049
:1031F00004BC9046F0BD06480CF09AFE4046FFF72E
:103200003FFF044807F0A6FCDDE7C046D81A0020BF
:10321000705E0110E703000010B501F0E9FA122317
:1032200044694361122C01D0200010BD014807F011
:1032300091FCF9E75303000010B501F0D9FA436996
:10324000122B03D0FFF7E8FFFFF7B2FF10BDC04617
:10325000002912D002004118094803041B185B0022
:103260001B18DB001B18DB001B185B0018181378F9
:10327000013258408A42F0D170470148FCE7C0460D
:10328000C59D1C81032370B5046805009C4310D0C4
:10329000A30F11D02501AD09002D05D080231B02FD
:1032A0009D4204D9002C02DB064807F053FC28009D
:1032B00070BD054807F04EFC2800E36998470500FB
:1032C000EAE7C046490300005103000070B504005E
:1032D0000D4886880168013E0ED3330001E0013BB2
:1032E0000AD39A008D188A58A242F8D1B34208D066
:1032F00000F072FF286003E0D220800007F02AFC73
:1033000070BD00F069FFFBE7241B002010B51821F9
:103310000148FEF7C9FA10BD2C1B002001220368EA
:10332000934318888010704710B5002811D0C468E6
:10333000002C14D02368043C4360A3688360E368D6
:103340002268C360530F032B04D180231B06134351
:10335000236010BD0E4807F0FDFB2268F5E7041F4F
:103360002268530F032B07D180231B061343002031
:10337000236001F045FAECE7054807F0EBFB8023FA
:1033800022681B0613430020236001F039FAE0E7AE
:103390004903000010B5041F2368DB0711D40D4B4F
:1033A0001B68002B11D01A0008329442F8D35968D8
:1033B0008C4662449442F3D2012322681343236073
:1033C00010BD054807F0C6FBE9E7044807F0C2FB5B
:1033D000F2E7C046E41A00204F0300004A03000051
:1033E00010B5041E1ED0124B18421BD10168114BA0
:1033F000194217D1CB78F92B14D10F4B1B68002B36
:1034000011D01A0008329442F8D3586884466244B6
:103410009442F3D201230948194321602200818894
:1034200000F0C6FE10BD064807F094FB2168F1E7E6
:103430000300001003000040E41A0020DC1A002002
:103440004A030000F8B54746CE460E0080B500247A
:103450000700002914D0234B9946234B9846A3001C
:10346000FD58002D09D0214B1D4206D12968204B63
:10347000194202D1CB78F92B06D00134A642EED105
:103480000CBC90469946F8BD4B461B68002B23D0D8
:103490001A0008329542F8D358688446624495422F
:1034A000F3D2012319434346296099882A004046F4
:1034B00000F07EFE43469B88642BDED90C2012F080
:1034C0007FFB0C4B01341A6818600260A200BF1821
:1034D000341B47608460D3E7074807F03BFB29684B
:1034E000DFE7C046E41A0020DC1A002003000010C9
:1034F00003000040F41A00204A03000070B505687C
:103500000400002D06D02800FFF744FF2800A18802
:10351000FFF798FF70BDC046F0B5C646040000B581
:10352000002842D0254B18423FD10168244B194254
:103530003BD1CB78F92B38D1224B1B68002B37D0ED
:103540001A0008329442F8D3586884466244944280
:10355000F3D201230B432360032399438B69002B90
:1035600001D02000984703239846174C174DA38895
:10357000002B0FD12868002817D003688668476899
:103580002B6012F0F5FA31003800FFF75BFFA388DB
:10359000002BEFD0200000F01FFE4246036893434B
:1035A0009B69002BE3D09847E1E704BC9046F0BD4F
:1035B000074807F0CFFA2168CBE7C04603000010A8
:1035C00003000040E41A0020DC1A0020F41A002056
:1035D0004A030000F0B54E46DE4657464546E0B584
:1035E000A74B81461B7887B09A0700D535E10221A9
:1035F0000B43A34902220B70A24B1F689D884B46C8
:10360000134098464B461A4200D01DE10024012683
:10361000002D0AD0A300F858304201D0B043006812
:103620000134FFF779FFA542F4D8484601F0EEF8DF
:10363000954C2368002B16D0944B1B685E8D00F0D0
:103640004BFFB300851B2668F6184346002B00D0BD
:103650000AE1002D07D00024A300F0580134FFF741
:103660005BFFA542F8D18A4B1E688A4B1D78002D5E
:1036700007D00024A300F0580134FFF74DFFA54206
:10368000F8D8854B9A46002352461360834B9846E0
:1036900042461B6801331360814B1E680023002ED5
:1036A00000D1EAE01F00CB460193029304930499F2
:1036B00073688C469B0834009C449A006346083427
:1036C000A2180392049394425AD2B1460BE001220D
:1036D000934320002360FFF7D5FD85006519039B08
:1036E000AB424CD92C00012223681342EFD11A0FB0
:1036F000062AECD0039AA24200D88FE0802625004B
:10370000F60500E02B68002B10DB0122134215D1D7
:103710001A0F062A12D0334208D1DB78F92B02D0D7
:10372000604807F017FA280000F026FD2800FFF790
:10373000A9FD039B80002D18AB42E3D8029A2E1BF3
:103740009446B3109C4462460292019A93425FDD14
:1037500080219A000906114305910193FF21200061
:103760000CF0A0F9059B2360042EB8DD00236360F4
:10377000002F49D0039B7C602700AB42B2D84E4655
:103780003668002E93D1484AD9461368002B14D0CE
:10379000029B5C085346196800290ED00B6818017B
:1037A0008009844206D248E00B681B019B09C018BF
:1037B000844243D349680029F6D1029B9900049BB7
:1037C0009A00019B9B004046C1600361406900284C
:1037D00011D1404641614846C00711D40222284B0E
:1037E0001B789343264A137007B03CBC9046994619
:1037F000A246AB46F0BD8842EBD84846C007EDD59F
:103800002A480CF095FBE9E7534627001C6066E761
:103810009A0080231B06134305939FE7019B002B0F
:1038200004DB80231B062500236058E780231B064A
:10383000236000234E460193A2E703001B191B1AC5
:103840009B00CB181360B8E719480CF071FB2A00F5
:10385000390018480CF06CFBD8E6D220800007F045
:1038600079F9074B1B78C2E62A00310012480CF0A8
:103870005FFB002D00D0EEE6F5E600220021A2E776
:1038800043230020241B0020D41A0020D81A002033
:103890004C1B002045230020501B00202C1B002027
:1038A000E41A002049030000001B00208861011079
:1038B00068610110706101107C610110F0B5C646AD
:1038C000424E00B53368002B09D01B68002B00D195
:1038D0006EE00220FFF77EFE152007F03BF9002185
:1038E000CF20FEF781FD802180464901CE20FEF7E2
:1038F0007BFD050000200CF02FFF2A0004000100D2
:1039000033480CF015FB43460027651B002B39D1CB
:10391000280012F055F92900040008394160876138
:1039200022002C480CF004FB63689A073AD12A4A1B
:103930005168013151609168C91891602749DA1CBA
:103940001140802212060A432549A2600A689B089A
:10395000E26022000832D3180A60224A13603368FA
:10396000002B01D0A34206D92360346004BC9046EA
:10397000F0BDA34203D81A001B68002BF9D12360C5
:103980001460F3E7184B42469C466444E40BE3039F
:1039900094021C1B002CBBDD200012F011F92D1B22
:1039A0000700B5E7D220800007F0D4F86368BEE7CF
:1039B0000021CD20FEF718FD0C4BC318002B00DCB6
:1039C00087E70B4B0B4CC1186160A9E7E41A002094
:1039D000A4610110C46101102C1B0020FCFFFF7FBB
:1039E000501B0020001B0020FF7F0000FCDBFBFFC2
:1039F000F4DBFBFF0024042010B5002815D00F4B8A
:103A00001B68002B17D01A0008329042F8D359686F
:103A10008C4662449042F3D2041F2268530F032B5A
:103A200004D180231B061343236010BD044807F014
:103A300091F82268F5E712F09BF8F6E7E41A002007
:103A400049030000F8B5CE4647460E0080B5072969
:103A50002BDD002829D0031F00209846FFF7BAFD70
:103A6000032303369E43214B07361D68B708002DFC
:103A70001BD01F4B99464B461D4202D01D4807F0F4
:103A800069F82C68002C02DB1B4807F063F84346FA
:103A90005B1B98101F2B05DD2401A409241AE41BCD
:103AA000072C08DC6D68002DE5D1002528000CBC32
:103AB00090469946F8BD3F186968BF00EF197960D4
:103AC0008022032112068B43A400134314433C605D
:103AD0002B60C023094980000E40DB056F601E4348
:103AE0002D1840C50020FFF775FDDFE7501B0020B3
:103AF00003000010510300004B030000FCFFFF9F78
:103B000070B5051F2A680400530F032B03D0054826
:103B100007F020F82A6880231B06134320002B603F
:103B200070BDC046490300000421024A13780B43CC
:103B30001370704743230020F0B54E46DE465746CB
:103B400045468023E0B5C61C85B00390B6089B02AD
:103B5000984200DD93E04E4B5B68DB056AD14D4B2C
:103B600002931B781A0767D101221343029A13703C
:103B700000F03EFE002803D04368002B00D182E015
:103B8000454B00279B46454B9946454B9A465B461D
:103B90001D6800239846002D04D153E0A846002B51
:103BA00050D01D00002F03D14B461B68AB4252D3AF
:103BB0003C4B1D4202D03C4806F0CCFF2C68002C48
:103BC00002DB3A4806F0C6FF2401A4096B68A41B77
:103BD000E4D41ED14246002A29D0536000222A6034
:103BE000002B09D05B68002B06D02E4A134203D06D
:103BF000D420800006F0AEFF0122280002990B7845
:103C000093430B7005B03CBC90469946A246AB4628
:103C1000F0BD8022B600A1001206AE190A43326040
:103C2000012CD7D0424673603300002AD5D15A46C2
:103C30001360D3E7174B02931D4806F08BFF029BDE
:103C40001B7891E7002F06D0012F09D0152006F030
:103C500081FF01379BE70020FFF7BCFC013796E7A7
:103C600053461B69524600935346D2689B6803999A
:103C700010480CF05DF90137FFF720FE87E71620AA
:103C800006F068FF67E70C4806F064FF78E7C04677
:103C900000ED00E043230020501B0020001B00200B
:103CA0002C1B002003000010510300004B030000F8
:103CB00092030000D86101104E030000032310B5E9
:103CC000C41C9C43201DFFF737FF044B07341C40E6
:103CD0008023DB051C4310C010BDC046FCFFFFBFA6
:103CE00010B5002808D0FFF7E9FF8023021F1168F4
:103CF0009B050B43136010BD0020FCE7F8B51F4B7C
:103D000006005B680D00DB051FD100F071FD1C4B48
:103D10001C4F1D60751BAD10041E3D7019D00C208A
:103D2000FFF7CCFF8023021F11689B050B43136034
:103D300063680360A3684360E3688360E060002316
:103D400020003B70A6606360F8BD0F4806F002FFDC
:103D5000DBE71820FFF7B2FF8023021F11689B05E5
:103D60000B431360094B12221B684261036000235E
:103D7000C3600361040000F043FDE0E700ED00E0F4
:103D80004C1B00204523002092030000D41A002081
:103D90000C4B10B55B68DB0503D10B4B1B78002B7C
:103DA00002D011F00DFF10BD002808D0FFF786FFEC
:103DB0008023021F11689B050B431360F3E700206B
:103DC000F1E7C04600ED00E043230020F8B5040011
:103DD0000E00194B1B68002B27D01A0008329442A2
:103DE000F8D359688C4662449442F3D23000FFF70E
:103DF000CFFF0500002C1DD0002D1BD0271F3A68D7
:103E0000530F032B03D00D4806F0A4FE3A681201AD
:103E100092099200B24200D93200210028000BF032
:103E200047FE2000FFF7E8FD04E0310020000CF021
:103E3000B5FC05002800F8BDE41A00204903000085
:103E400070B50500002909D0012908DD4C1E2800A5
:103E500001210435FFF7F4FF013CF8D270BD0122C7
:103E600002430248818800F0A3F9F7E7241B0020F1
:103E7000020010B5002802D0044B184200D010BD3B
:103E80000348818800F094F9F9E7C0460300001068
:103E9000241B002010B5002802D0034B184200D08C
:103EA00010BDFFF713FAFBE70300001010B54068E0
:103EB000FFF796FA10BDC04610B50430FFF71EFBA1
:103EC00010BDC04610B581880C30FFF7BBFA10BD9D
:103ED00010B54068FFF784FA10BDC04610B5040065
:103EE0000430FFF70BFB20000C30FFF707FB10BD81
:103EF000012208C810B59343198804398908FFF7CF
:103F0000A1FA10BD0320704703207047808880000D
:103F10000F3080087047C046022070470520704768
:103F20000023034A13605360024A136053607047D2
:103F3000241B0020DC1A002010B500F01BFC10BD73
:103F400010B5002801DB00F00DFC10BD7047C04625
:103F50000023436083607047002343608360C36035
:103F60000361704710B5054A0100838812688068B4
:103F7000821A03480BF0DCFF10BDC046D81A00209F
:103F80000C62011010B50100426802480BF0D0FF2E
:103F900010BDC0462862011010B501000289024818
:103FA0000BF0C6FF10BDC0463C620110F8B504001E
:103FB000C0880D0088420ED3A288914201D3A5800B
:103FC000F8BD2368521A9C46880092000021604484
:103FD0000BF068FDF3E700282BD03F280ADD802393
:103FE0009B00984227DB0130164BFF30984202D9E4
:103FF000154800E040002E00854200DA0600B000BF
:1040000011F0DEFDE3880700002B0CD1F21A9B00B3
:1040100000219200F8180BF045FD206811F0A8FD72
:104020002760E680CBE79A0021680BF041FDE3882A
:10403000ECE70420DFE783000321181808F072FE84
:10404000D9E7C046FEFF0000FFFF0000416870B5E1
:10405000194B1A4D0A68060029609A4213D0088C41
:104060008000FFF73DFE2B68154C1A8C0021920052
:1040700020600BF017FD23681C602C68114B226830
:104080009A4208D0FEE7104810310BF051FF0F485C
:1040900006F060FD70BDB36822699A42F2D100F06B
:1040A00061FC20002B68002200211C6B40300023A3
:1040B000A04700F053FBEDE7718E3B92D81A002029
:1040C000D41A0020708E3B92506201109F030000B2
:1040D0007047C0467047C046012370B50A680400A7
:1040E0009A4313890D00042B14D1002C10D0E01C2E
:1040F0008000FFF721FD06000B4B22040360AB6834
:10410000848083600021920B0C300BF0CBFC3500D7
:10411000280070BD0122054905480BF009FF03483E
:1041200006F018FDE1E7C046E062011085030000DB
:104130006C6201100E4B026970B504009A420BD1FB
:104140002088FFF7F9FC05002288002110C0043AFE
:104150000BF0A8FC280070BDE2210322054889006D
:104160000BF0E6FEE220800006F0F4FCE8E7C04633
:104170004D3F00106C620110012310B502689A4394
:104180001369984710BDC046012310B502689A43D1
:104190001369984710BDC046012310B5026801009D
:1041A0009A43128801480BF0C3FE10BD7C620110D7
:1041B000084B70B505000C001600994205D883889D
:1041C0008B4203D92B68A400E65070BD0131FFF784
:1041D000EDFEF7E7FEFF0000838802000020002BC1
:1041E00008D0013B9BB2938012689B00D318002239
:1041F00018681A607047C046F8B5C58804000F00FB
:10420000002D1DD03F2D31DD80239B009D420CDB16
:104210006B1C1E4AFF3393422FD81E1C9BB28B424D
:104220000CD3B6B2B54210D3F8BDA8000321401993
:1042300008F078FD061C80B2B842F2D23E1CF0E7CE
:104240000E1C042900D20426B6B2B000FFF736FDDA
:10425000E3880500002B12D1F21A9B000021920086
:10426000E8180BF01FFC2560E680DDE76B001E1CE4
:104270009BB28B42D5D23E1CD3E7054ED2E79A00C3
:1042800021680BF015FCE388E6E7C046FEFF00005E
:10429000FFFF0000C38870B506000C0015008B42BC
:1042A00007D8084B994200D970BD013189B2FFF798
:1042B000A3FF3268A3009D50B388A342F4D8013411
:1042C000B480F1E7FEFF0000C38870B505008CB232
:1042D0008B4201D2A34201D9AC8070BD2100FFF70F
:1042E0008BFFF9E7838802000020002B08D0013BF8
:1042F0009BB2938012689B00D318002218681A6042
:104300007047C046F8B58288040000258A420CD95F
:1043100003688E0098194F1C0568BA4207D800211F
:10432000013A92B2A2809200D1502800F8BDC94350
:104330008A18311D9200591810F061FDA288236877
:10434000EDE7C046F8B5838804000D0016008B42E7
:1043500019D9591CC28889B28A4210D9691C2068AF
:1043600089000F1F5A1BC31992004018190010F042
:1043700046FD2368DE51A3880133A380F8BDFFF713
:104380003BFFA388EAE7FFF785FFF7E770B5050075
:10439000C3888288016809480BF0CAFDEB88002BAE
:1043A0000BD00024064E2A68A300995830000BF069
:1043B000BFFDEB880134A342F5D870BD98620110AF
:1043C000BC62011010B504000100028903480BF023
:1043D000AFFD201DFFF7DAFF10BDC046C46201101B
:1043E000024B0360002343608360704770630110D9
:1043F000024B0360002343607047C04640630110D6
:10440000034B0360002343608360C3600361704714
:1044100010630110F8B54746CE46068980B50C00FA
:104420004768002E30D0002002E00130B04207D2B1
:104430008300FB58A342F8D10CBC90469946F8BDC6
:10444000236820005B6A9847236880461B6A200027
:1044500098470024814602E00134B4421CD2A300F4
:10446000FD582B6828005B6A98474045F4D12B68BB
:1044700028001B6A984742460100484610F0B1FCEC
:104480000028E9D12000D7E70B6808005B6A98474D
:10449000236820001B6A984701204042CCE7C046B1
:1044A0007047C04610B504000A00010003480BF035
:1044B0003FFD200006F04EFB10BDC0466C620110AF
:1044C000014B1B6818697047D81A0020014B1B6804
:1044D00098697047D81A0020014B1B68188C7047E8
:1044E000D81A0020014B1B68D86B7047D81A0020DF
:1044F0000448054B026810B59A4202D1FFF7A6FDA9
:1045000010BDFEE7A066011010420000030000206D
:10451000002B07D09A0705D101221B689343DA7854
:10452000F92A00D070471889063843425841C0B272
:10453000F8E7C04670B506000C20FFF7FDFA164BF1
:1045400004000360002343608360002E08D0B3079B
:1045500006D1012332689A431300D278F92A01D098
:10456000200070BD0D4A9342FAD13589002DF7D055
:10457000FFF77EFC63899D4203D92900201DFFF7C8
:104580003BFE716860682581AA000BF091FA20005B
:10459000FFF780FCE4E7C046706301101063011070
:1045A00070B504000D00002801D0830713D00F4818
:1045B00006F0D0FA29002000FFF72CFF051E08DBCB
:1045C0002900201DFFF79EFE200029000C30FFF778
:1045D00099FE422070BD012302689A431300D278ED
:1045E000F92AE4D1024A9342E4D0E0E79B030000B9
:1045F0001063011070B50E00FEF73EF804003000A5
:104600000D00FEF739F802000B002000290008F029
:1046100083FFFDF7F7FB70BD10B5FEF72DF808F02E
:104620004DFFFDF7EFFB10BD10B5FEF725F808F0C4
:104630002FFFFDF7E7FB10BD10B5FEF71DF808F0E2
:1046400011FFFDF7DFFB10BD10B5FEF715F809F0FF
:10465000EFFBFDF7D7FB10BD10B5FEF70DF809F025
:1046600089FBFDF7CFFB10BD10B5FEF705F809F08B
:10467000B1FBFDF7C7FB10BD10B5FDF7FDFF08F05E
:10468000DBFEFDF7BFFB10BD10B5044B00221B681D
:1046900000211C6B0023A04710BDC046D81A002083
:1046A000F0B5CE46474680B585B0060C0090019126
:1046B00002926946102287B2124803930BF0F8F970
:1046C00031003800FCF7B0FF04003000FDF796FC25
:1046D0008046002C10D00C4B99464B461B6800229C
:1046E00041461D6BE0680023A8472068320039006E
:1046F000FCF788FF041EF0D105B00CBC904699462B
:10470000F0BDC046E0180020D81A002010B5FFF711
:10471000C1FB11F09DF910BD70B50500054E336861
:1047200000221C6B002100232800A04714200BF05E
:1047300031FFF4E7D81A002010B504000BF0C4FCD8
:1047400003000020002B07D0002C01D08200A350D2
:104750001B6A0130002BF7D110BDC04610B511F017
:1047600077F910BD10B50BF015FF10BD10B511F0A5
:10477000F7F910BD10B5041E06D0FFF779FB210034
:10478000024A03480BF0F8FD10BDC04609060110AF
:104790001947001010B5041E06D0FFF769FB210071
:1047A000024A03480BF0E8FD10BDC0460D4700105B
:1047B0008946001010B589B280B20BF00DFF10BD14
:1047C000044B10B51C68FDF707FEFF23FF342018CB
:1047D000984310BDD81A002010B511F0A9F910BDEA
:1047E00010B50DF03DF910BD10B511F0C9F910BDAF
:1047F000024B1868002800D0406A7047601B0020F8
:10480000014B1B6858627047601B0020F0B54E4694
:10481000DE4657464546E0B5494B87B099461B688A
:104820000290002B00D182E00BF04EFC002863D0F8
:104830000024006A01340028FBD1A500280011F0F3
:10484000BFF90390FFF778FFA0426BD1002C5FDD2A
:10485000039B9A46002355449B46019505E004239B
:104860009C46019BE2449A4552D053461F687E6A9B
:10487000002EF4D07069FEF74FFE0223029A043630
:10488000134000934B461B6834689F4224D038681D
:10489000BD6810F093F84B461B682D1A64197568B3
:1048A0009F4207D0BB683868984610F087F84346A7
:1048B000181A2D18009B002B12D1A54204D901CC47
:1048C000FEF72AFEA542FAD8B668002EC7D04B469E
:1048D0001B6834689F42DAD1009B7568002BECD0CE
:1048E00001235B4498462B1B5946220015489B1018
:1048F0000BF01EFBC346E0E7002011F061F90390C6
:10490000FFF71AFF002803D0CB20800006F022F921
:10491000039811F02DF907B03CBC90469946A24689
:10492000AB46F0BDCB20800006F014F98EE70120E5
:1049300011F046F90590059811F01AF9EBE7C04619
:10494000601B0020A063011010B501F045F80400C1
:1049500030200BF0B3F80123002221000DF0D0F835
:1049600010BDC04670B5FFF7EFFF01F08DF81F4B8B
:104970001B681C8D002C29D11D480BF0F7FB1D4C2A
:104980001D4D661CFF3602E00434B4420AD0206894
:104990000028F9D003681B68AB42F5D0043498476F
:1049A000B442F4D101F050F901210D204942FDF744
:1049B0001BFDFF23184000F0AFFD002803D0036863
:1049C00000211B68984701F013F870BD21000B48C7
:1049D000FFF738F821000500020009480BF0A8FA9B
:1049E000002DC9D1142006F0B5F8C5E7D81A00206B
:1049F0004C190020681B00204504001000200020F6
:104A0000AC63011010B505480EF0F4FC04480DF03D
:104A100047FF044B044A1A6010BDC046E01800204E
:104A20004C190020C8190020C86E0110F0B5574677
:104A30004E464546DE46E0B58DB004000D0016003A
:104A40001F00FCF7F1FD00280BD0320029002000E8
:104A5000FCF702FE0DB03CBC90469946A246AB4620
:104A6000F0BDBFB20F2C01D1C02F10D128200BF008
:104A700025F882461E4BA1B2AAB200970BF0B6FEF3
:104A80001C4B514618000DF0F9FD002828D1002DCF
:104A9000DBD1012120004942FCF7C6FD071ED4D01E
:104AA000A3B29B46124B9946124B984610239A4646
:104AB00053463A895946009302A84B460BF096FE9E
:104AC00002A940460DF084FD02A80BF0A9FE0122C8
:104AD000386821005242FCF795FD071EE8D1B4E783
:104AE00050460BF09DFE50460AF0F0FFCFE7C0465F
:104AF000A14600104C19002000B585B08AB20123F0
:104B000081B2684610F0D4FF05B000BD012110B598
:104B100002484942FCF738FE10BDC046BC63011094
:104B200010B50DF07FFE10BD036810B51B6A9847E5
:104B3000010002480BF0FCF910BDC046C46301102F
:104B4000036810B51B6A0C00984722000100024858
:104B50000BF0EEF910BDC046CC6301100148C00057
:104B6000C0087047002004200048704716FCFFFF73
:104B70000048704716FCFFFF0048704716FCFFFF17
:104B8000002070472C23C05C2B3B58407047C04628
:104B90000048704716FCFFFF00487047A4640110EE
:104BA00000487047B864011070B590B0040040220E
:104BB0006946C0680FF0DCFD002830DD6B461D78CB
:104BC000A36A1A88002A0FD069B200292BDB3F267E
:104BD00082212E4090194900884207DDDC200CF02C
:104BE0006BFEA36A1A8801E03F262E40181D6B4613
:104BF0008018591C32000AF05BFFA26A002013885B
:104C00009E193F2316809D4309D0402D09D0802D49
:104C10000FD0022393700022A36A18881A8010B064
:104C200070BD9070F7E7DA200CF046FEA36A1A8890
:104C3000CDE701239370EEE7F0B5D6464F464646E2
:104C40000500C0B590B010F06BFFEB69002B39D0B8
:104C50004523994602239846A8680FF083FE002852
:104C600030D04B464146AA68D35C0B434946535467
:104C7000EC696B6AA6889A46F61A002E2ADD6F4602
:104C80004022002138000AF00DFF3F2E2FDDA379CE
:104C9000402B4AD03F22134321003B606B46083132
:104CA0003F225144581C0AF003FF40223900A868F3
:104CB0000FF002FE002802D16B6A3F336B62EC6991
:104CC000002CC9D110F044FF10B01CBC904699468E
:104CD000A246F0BD90206F4640000CF0EDFD402252
:104CE000002138000AF0DEFE6B6AEC699A46A3796F
:104CF000210033433B606B46083132005144581C5D
:104D00000AF0D6FE40223900A8680FF0D5FD002831
:104D1000D5D16862E8692B6A8288103B04689B1AC7
:104D20002B620AF0B3FEEC61CAE73F23B4E7C0464A
:104D300000B50649837802000868054983B00091F0
:104D40000C33012110F024FF03B000BD2019002016
:104D50002000800030B5047D0D0083B0002C0CD005
:104D6000591E8B4140215B42194001235B42009355
:104D7000803113002A0010F00BFF002003B030BD7B
:104D8000802330B55B000500140083B09A4210DC2C
:104D9000806A08300AF08CFE0121AA6A494200911B
:104DA0002800231D0432413110F0F2FE002003B030
:104DB00030BD836A5B68009313000A00402110F045
:104DC000E7FEF3E7F0B5040087B0FFF735FF2000FA
:104DD000FFF7EAFE061E04D0A76ABB78002B03D0BB
:104DE0000026300007B0F0BD3A897D68BA80FB80AC
:104DF000FFF7F6FC0122A0612275212D07D8002DB6
:104E000038D0212D36D87B4BAD005B599F467A4B6D
:104E10009D4200D1CFE00BD9784B9D422AD1784BEF
:104E200020001A68774B1968FFF7AAFF0600D8E739
:104E3000754B9D4200D1B8E0744B9D421AD1744B22
:104E4000F9681B681960734B1A70A36A40211A1D18
:104E500001235B4200932000053310F099FE0026E9
:104E6000BFE76D4B1B68002B00D1C0E038000C3051
:104E70009847EAE70123FB80E7E7102E03D0922052
:104E8000FF300CF019FD3D69402D00D9A6E0390036
:104E9000F86808316A1E002D05D00023C658CE5090
:104EA0000433013AFAD20121A26A4942AD000091CD
:104EB00020002B1D0432413110F06AFE002690E7DD
:104EC000F82356495B014A1EFF3A9A4200D283E01A
:104ED000032253492000FFF753FF060081E7022316
:104EE000BB600023FB603B610533FF337B614D4BAF
:104EF0004021BB61A36A20001A1D01235B4200937D
:104F0000193310F045FE00266BE7474904C9E1E775
:104F10003B7B002B5DD0454B454A1C60454B1A60DE
:104F200093E739698B001033B34204D08C20FF30F3
:104F30000CF0C2FC3969FB684A1EFF1A10370029C1
:104F400083D019000433D8590860013AF9D27CE7BC
:104F5000A36A40211A1D01235B4200932000053300
:104F600010F016FEF82234495201CB68013BFF3B9A
:104F700093420CD24B68591EFF39914207D2DA078F
:104F800005D544220F20A1688A5C10409847C320B1
:104F900040000CF091FC58E7BFF34F8F274B284A95
:104FA000DA60BFF34F8FC046FDE7264B264A1A60F2
:104FB0000FF0E6FC49E7FFF78FFA154B04901B68EA
:104FC0000822200004A903930593FFF7D9FE0600E9
:104FD00007E7184A136038E73D227BE79420FF304B
:104FE0000CF06AFC3900F86808316A1E55E70223A4
:104FF000FB802AE71C640110E066FC5310159070DA
:10500000281900202419002093BD20113159A5270B
:10501000D41A00204123002048190020DC6301102D
:10502000D863011056FF8BE4401E00202019002099
:10503000314D001044190020F01F000000ED00E089
:105040000400FA05040004207FACEBF0084A0023BA
:105050000832026081622C22002103718360C360E8
:105060000361838281548361C36103624362704739
:10507000E8640110F8B505000E00002814D00029DE
:1050800012D01E4F3C68002C03D124E0E469002CB0
:1050900021D023689D42F9D163689E42F6D1184819
:1050A0000AF046FF2000F8BD16480AF041FF012132
:1050B00019204942FDF798F9FF24204000F02CFA0E
:1050C0000121050049421820FDF78EF9204000F02B
:1050D00023FA0600D5E70C480AF02AFF20200AF040
:1050E000EDFC0400056046603200290008300EF037
:1050F00063FB3B683C60E361D4E7C046581B00207B
:1051000020650110046501103865011010B5FFF726
:10511000B1FF083010BDC046F0B5C64600B5060068
:1051200082B00D000020110017009846FCF7BCFB70
:105130000400FEF79DFE4346220030006D00A9B238
:105140000832009308303B000EF0FAFA0500200008
:10515000FEF7A0FE684245416D422C40200002B09F
:1051600004BC9046F0BDC04610B51C0082B049009A
:10517000536889B20832009408300EF0CBFA02B0BE
:1051800010BDC046012110B5494204001320FDF7AF
:105190002BF9FF23184000F0BFF9001B4342584190
:1051A000C0B210BDF0B557464E46DE4645465300E8
:1051B000E0B59B181700F0229146994485B08246CD
:1051C000484688460AF07EFC4A46002106000AF05E
:1051D00069FC002F30DDBC46802380247825002028
:1051E00047460EE03A5C20230135224203D0725D2F
:1051F00080390A43725564101BD1013080346045F8
:105200001ADA721990464146725D1A430A705910B3
:10521000E8D0C9B20391395C9B10214203D00399B5
:105220000A4341460A70002B23D1013540336410F4
:10523000E3D0E4B26045E4DB00220021504600F0F8
:105240005DFC036804001B680D4998470022236831
:10525000009231004A46DD6820000023A847300054
:105260000AF034FC05B03CBC90469946A246AB46D9
:10527000F0BD5A10D3B2002ABDD180230135BAE760
:10528000009F240070B504000D001600FFF77AFFA0
:10529000002800D170BD320029002000FFF782FFF6
:1052A000F8E7C046F0B5D6464F464646C0B51E00A4
:1052B00003680C001B68002107002025984722681E
:1052C0000121126820009047226800212000126806
:1052D000013D9047002DF2D1089B002B22D0B14612
:1052E0004B449A464B461B780826984680254146F3
:1052F00029404B1E99413B6838001B68984723683A
:1053000001211B68200098472368002120001B68AA
:10531000013E98476D08002EE9D101239C46E144E7
:10532000CA45DFD13B68012138001B68984720251A
:10533000236801211B682000984723680021200072
:105340001B68013D9847002DF2D11CBC9046994640
:10535000A246F0BDF0B5CE46474680B50A0083B000
:1053600000211E0000F0CAFB002504000368009520
:10537000184FDB683900984604220023C047236891
:105380000095DB68310098460A9A00232000C04748
:10539000236800953900DD68042200232000A84717
:1053A0000A9BDF0810D00C4B002599460023984635
:1053B000424623680092DE6804220023494620000A
:1053C0002035B047BD42F3D303B00CBC904699469C
:1053D000F0BDC046141D0020FC170020F0B50400ED
:1053E0000D0017001E0083B0002814D0002912D031
:1053F000002B10D0089B002B0DD0182B0DD9FFF7D8
:10540000C1FE002809D0089B3A0000932900330010
:105410002000FFF79FFF03B0F0BD089B3A00009308
:10542000290033002000FFF73DFFF4E710B582B0FC
:1054300000280BD0002B09D05C68002C06D0083364
:10544000042A05D019002200FFF71CFF02B010BD8E
:105450000094FFF7C3FFF9E7F0B5C646040400B5B2
:10546000240C1D2C0DDC1E4D2B5D002B11D01D4A74
:1054700012681D498C4663449B00985804BC9046B2
:10548000F0BDE320800005F065FB154D2B5D002B82
:10549000EDD1144B154F98463978186801318900C1
:1054A000FEF794FC4346186018200AF007FB0E4BE9
:1054B0000600234102202100DB07DB170340643193
:1054C000E2B2013330000EF0B7FD434639781A6876
:1054D0004B1CDBB289003B708E502B55C9E7C04690
:1054E000041B0020481B0020FFFFFF3F4423002037
:1054F000012170B549420500FCF776FF0400431C0A
:1055000003D02000FFF7A8FF70BD290001480AF072
:105510000FFDF6E75465011010B5002806DBFF28E3
:1055200004D00004000CFFF797FF10BD0020FCE73B
:10553000012110B54942FCF757FF002806DBFF2880
:1055400004D00004000CFFF787FF10BD0020FCE72B
:10555000084B10B5591C0400FF3102E004338B42A4
:1055600006D018680028F9D08288A242F6D110BD72
:105570000020FCE7681B002010B5FFF7D9FF10BD25
:1055800010B501000020FCF78FF910BD014B9868A1
:105590007047C046E018002010B503685B69984763
:1055A00010BDC04610B50368DB68984710BDC04603
:1055B0007047C0460048704716FCFFFF044B10B50B
:1055C000036000230400C3800AF0D6FB200010BD56
:1055D000A46E0110064B10B5036000230400C380C5
:1055E0000AF0CAFB20000AF071FA200010BDC04684
:1055F000A46E0110F0B5CE4647462C2380B5C35C9F
:10560000040085B0002B04D105B00CBC904699462F
:10561000F0BD80680021036808261B689847A068D1
:105620000121036800251B68984720690121036850
:105630006D009B689847002801D001231D43E06856
:1056400000210368013E1B689847E0680121036858
:105650001B689847002EE8D1A3695D4063699D42AD
:10566000D2D0270001231C37994612E02B420CD1DF
:105670000F4B984601234146684610F019FA012362
:1056800000224146684610F013FA01360237082E10
:105690000CD03A88002AF8D04B46B34061691942D1
:1056A000E4D12B42F1D0034B9846E3E76561ABE7C9
:1056B0000208000003080000036810B55B68984703
:1056C000431E9841C0B210BD10B503681B689847CF
:1056D00010BDC04670B50D0016000400036803211C
:1056E0001B6D98473200290010232089FFF79EF98F
:1056F00070BDC04670B505000C00160003290EDD14
:105700000B1F012B0AD8032103681B6D2800984743
:105710001023320021002889FFF788F970BD012984
:10572000FCDD036802211B6DF0E7C046F0B50439CB
:105730004F464646D6464B424B419146C0B59846E9
:10574000040010F01DFA4B4606000F00DD1706E0BE
:1057500010F016FA801BB941A9421ED81BD023684D
:1057600020005B6898474045F2D110F009FA824664
:1057700006E010F005FA801BB941A9420DD812D0FD
:10578000236820005B6898474045F2D010F0F8F994
:105790005346C01A02E08145E1D200201CBC90466D
:1057A0009946A246F0BD8145EAD2F6E70B0010B556
:1057B0000121002B03D0013B5942594149000368A4
:1057C0001B6C984710BDC046F8B5294D2C68002CBD
:1057D00001D02000F8BD30200AF070F90027254BD9
:1057E0004760036004000AF04DFA0121224B494250
:1057F00023604720FCF7F8FDFF263040FFF78CFEC2
:105800000121A06049424820FCF7EEFD3040FFF73F
:1058100083FE0121E06049424920FCF7E5FD30406C
:10582000FFF77AFEFA231B01A3808023E2889B0105
:10583000134306002061E38001222C232000002175
:105840006761A7611C30E2540F320AF02BF933680C
:1058500001219B6830009847A068012103681B68FC
:105860009847E068012103681B6898472C60B0E7FF
:10587000F81A0020A46E01106C6501100D4B70B574
:10588000C4180D00072C05D90B4BC4180020072C99
:1058900007D970BDFFF798FF0123A3408269134326
:1058A0008361FFF791FF0C3464000419A580012087
:1058B000EFE7C046E6FBFFFF18FCFFFF0C4B10B5FF
:1058C0001C68002C09D0220000231C321188884259
:1058D00005D001330232082BF8D1002010BD012081
:1058E0009840030060691840431E98414002F5E764
:1058F000F81A00200121F8B5494206004820FCF7BB
:1059000073FDFF231840FFF707FE0025002826D06F
:10591000FFF75AFF04008068002103681B6898475E
:10592000A068012103681B689847002E17DD002737
:105930002069012103686D009B689847002801D009
:1059400001231D43E0680021036801371B68984765
:10595000E068012103681B689847BE42E8D128002F
:10596000F8BDC046012110B548204942FCF73CFD76
:10597000FF231840FFF7D0FD002814D0FFF724FFC5
:1059800004000069002103689B689847A068002113
:1059900003689B689847E068002103689B68984704
:1059A0002C230022E25410BD10B503685B6B9847AE
:1059B00010BDC046FA2210B50368D2001C69014B25
:1059C000A04710BDDC05000010B50368DB6A9847EE
:1059D00010BDC0467047C04610B518200AF06EF8DA
:1059E00004000EF01FF8200010BDC0467047C046EE
:1059F000F0B585B06A46002501200D4C04AE0821A3
:105A000000231570E7695B00DBB2002F01D0034370
:105A1000DBB201390029F5D113700132B242EED167
:105A200010316846FDF714FCFBF75EFF05B0F0BDD2
:105A3000000006400F4B30B51A78002A17D101320A
:105A40001A700D4901230D4C063203E0013A5B0048
:105A5000002A0CD00A4D1805AC46604405688D42FA
:105A6000F4D14568A542F1D1064B186001E0054B21
:105A7000186830BD49230020F1109E1E797A22203B
:105A800000F0FF0F3C1D00207047C046F0B5C64631
:105A9000164B05001C680E001700984600B5002C38
:105AA00003D10FE0A46B002C0CD023689D42F9D1E8
:105AB00063689E42F6D1A3689F42F3D1200004BCE4
:105AC0009046F0BD3C2009F0F9FF3B000400056062
:105AD00046608760320029000C300EF03BFB4346E5
