:020000040801F1
:1000000000800120895A020895810208D99A0108C6
:10001000E5060308E5060308E506030800000000FE
:1000200000000000000000000000000099810208AC
:100030009D81020800000000A1810208A58102083C
:10004000E5060308E5060308E5060308E5060308D8
:10005000E5060308E506030841770208457702082C
:10006000497702084D77020851770208BD7E0208E1
:10007000CD7E0208DD7E0208ED7E0208FD7E0208CC
:100080000D7F02081D7F0208E5060308E506030848
:10009000E5060308E5060308E506030855770208A8
:1000A000E5060308E5060308E5060308E506030878
:1000B000BD610208C5610208CD610208E5060308BA
:1000C000E5060308E5060308E5060308CD7C0208FB
:1000D000D97C0208E5060308E5060308E5060308DF
:1000E00059770208E5060308E5060308E506030854
:1000F000E5060308E5060308E50603082D7F020868
:10010000E5060308E5060308D5610208E57C020858
:10011000E5060308E5060308E5060308E506030807
:100120003D7F02084D7F02085D7F02086D7F020857
:100130007D7F0208E5060308E5060308E5060308D7
:10014000E5060308E5060308E5060308FD63020863
:100150008D7F02089D7F0208AD7F0208E506030837
:10016000E5060308E5060308E5060308E5060308B7
:10017000E5060308E5060308E5060308000000009D
:10018000E5060308E5060308E5060308E506030897
:10019000F17C0208E5060308E5060308E506030806
:1001A000E5060308E5060308E5060308E506030877
:1001B000E5060308000000002DE9F04F85B003912B
:1001C0000778A7F10903042B044607F07F0200F12A
:1001D0000100F5D9202AF3D02B2F04BF67780446FD
:1001E0002D2F75D09FED427B8DED007B4FF00008E9
:1001F0004FF000099FB34FF0000C25464FF0000A66
:10020000DFF8FCB0644619E01DF000F8804689462E
:1002100030461CF091FF42464B461CF041FE5246D0
:10022000804689465B46DDE900013CB31DF018F9C4
:10023000CDE90001A44615F8017F7FB1A7F1300692
:10024000092E52465B4640464946DDD9CCB92E2F91
:1002500017D115F8017F0124002FEFD12C4642461B
:100260004B46DDE900011CF0D1FF80468946039B27
:10027000404649461C6005B0BDE8F08F4FF0010CC8
:10028000D9E72C46BCF1000F29D042464B46DDE9A8
:1002900000011CF0BBFF07F0DF07452F80468946B1
:1002A000E5D10399681C0A221FF04EFE144902464C
:1002B00000201DF05BFB02460B46404649461CF001
:1002C000A5FF804689464046494605B0BDE8F08F07
:1002D0009FED097B67788DED007B013486E7DFF8C1
:1002E00024904FF000084046494605B0BDE8F08F25
:1002F000000000000000F03F000000000000F0BF20
:10030000000024400000F87F2DE9F0470023144648
:100310000022804689461DF0EBF928B109F100431F
:1003200099462D232370013400220023404649467C
:100330001DF0D4F928B13022002322706370BDE88B
:10034000F087404649461EF00DF91DF00FFA73A3E1
:10035000D3E900230746494640461DF0C9F9002865
:100360004ED170A3D3E90023404649461DF0DEF983
:10037000002845D10E2F07F1010540F3B980A7F100
:100380000E063246002062491DF0F0FA02460B4686
:10039000404649461DF064F800225E4B1CF080FD8B
:1003A0001DF020FB002DA7F10F0E4FF0010C4DDDCD
:1003B000594FDFF87881012245F6F3294FF02E0AD4
:1003C000494508BF40454FF030030AD3B0EB080061
:1003D00061EB0901494508BF404503F10103F5D22E
:1003E000DBB2237050EA010304F101084AD19542BF
:1003F00052DD0132102A4FD0444677E90289DFE707
:10040000002F33DB3A46002041491DF0AFFA024687
:100410000B46404649461DF023F83BA3D3E9002391
:100420008046894601250026404649461CF0EEFEDE
:100430000022384B1CF034FD1DF0D4FA002DBC46D0
:100440004FF0FF3E37464FF00006B1DC2346302226
:100450004FF02E0803F8022B84F80180FC4345D0AE
:100460001C4403F8012BA342FBD1A1E77A420020F0
:1004700027491DF07BFA02460B46404649461CF0D0
:10048000C5FECAE7954202F1010204BF84F801A04B
:1004900004F10208102AAFD16EB14246302102F8B1
:1004A000011BC2F1010373444344002BF7DC2EEA25
:1004B000EE7301339844BCF1010F12D0BCF1000F70
:1004C0004FF0650388F80030C5BF2B2388F8013052
:1004D00008F1010108F102016046BDE8F04710F0A3
:1004E0007FBE002388F80030BDE8F0871C465FE738
:1004F000C7F10E02002006491DF038FA3E460246BA
:100500000B46012790E700BF0000901EC4BCD642F6
:10051000000024400000E03F100F03088DEDB5A05F
:10052000F7C6B03E50EFE2D6E41A4B4400407A10D2
:1005300070B54FF0FF3006F0F3F804466FF07F40DF
:1005400006F0EEF8064620461CF0E6FD00220C4BB5
:100550001CF05CFE044630460D461CF0DDFD06A393
:10056000D3E900231CF07CFF02460B4620462946B7
:100570001CF096FC70BD00BF0000E0DFFFFF6F4382
:100580000000F03D000000002DE9F04F1D461389EA
:10059000AB4288BF536885B004468CBF53F8250032
:1005A000002090468A4606F02FFD0022904B1CF05A
:1005B0002DFE1DF0DBF8B8F808206B1C9A4288BFAE
:1005C000D8F8042006468CBF52F82300002006F01D
:1005D0001BFD0022864B1CF019FE1DF0C7F8B8F871
:1005E00008300235AB4288BFD8F8043007468CBFCC
:1005F00053F82500002006F007FD002EC4E900672F
:1006000040F3E280002F40F3DF8071A3D3E90023A1
:10061000002584F828501DF0C9FE002200238046E2
:1006200089461DF065F840B14046494668A3D3E9C4
:1006300000231CF035FC8046894667A3D3E90023DC
:10064000404649461DF072F8C0B165A3D3E90023C6
:10065000404649461DF056F880B1012340464946C0
:1006600084F8283060A3D3E900231CF019FC58A3B8
:10067000D3E900231DF09AFE8046894600225D4B97
:10068000404649461CF0C2FD1DF0C8FB01F1004385
:1006900000221946564B1CF0B9FD1DF067F849467B
:1006A000054640461DF076FB0022514B1CF0AEFD86
:1006B0001DF05CF8DAF804304F49B3F80CB0B3F829
:1006C0000AA0A56007FB0BF303EB010806FB0AF683
:1006D000019388FB05234FEA124C00960E444CEA26
:1006E000034C06EA010383FB009A06EB0C0E0EEAAC
:1006F000010ED346CA468EFB00675246CDE902671B
:10070000120C42EA0B42DDE902AB0CEA010C8CFB55
:1007100000674FEA164956460A40360C46EA0B4631
:1007200049EA074982FB05AB5F46C144B0445646DF
:10073000CDE90267039FE060360C09EA010908EA87
:10074000010846EA074689FB05AB334488FB05569A
:10075000CDE9025655462D0C45EA0B45DDE902ABC5
:100760000B40AC4403EAE3770CEA010C554623EA5C
:10077000E37367454FEA154502EAE276A8BF67468C
:1007800045EA0B45634522EAE272B8BF6346AE44D0
:100790004E450EEA010EA8BF4E464A45B8BF4A462E
:1007A0007745A8BF77467345B8BF73464645A8BF8F
:1007B0004646C4E905634245B8BF424600980199E0
:1007C000206261622761E261204605B0BDE8F08FDA
:1007D000EA2E4454FB211940F4D64354FB21F93F3F
:1007E000320D337F7CD91240EA2E4454FB2109405C
:1007F0000000F0400000E03F0000FFFF00000000AC
:100800002DE9F04F2DED028B044683B0C0681CF03B
:1008100093FC8046206989461CF08EFC8246606904
:100820008B461CF089FC024601F1004306460F4648
:10083000404649461DF04CFD1CF0E0FFE0620546D5
:100840001DF00EFC019028461DF0CEFB019B0546D5
:1008500018461CF083FC42464B461CF0D7FC8046F1
:10086000284689461CF07AFC32463B461CF0CEFCFA
:1008700002460B46404649461CF010FB02460B461A
:10088000504659461DF024FD1CF0B8FF002208EE2A
:10089000100A0023304639461CF048FF28B3B5EE55
:1008A000C08AF1EE10FA1CDD11A7D7E9006718EE37
:1008B000100A1CF053FC02460B46304639461CF029
:1008C000EDFA32463B461CF0EBFA1CF097FFA062B3
:1008D000E38843F00203E38003B0BDEC028BBDE884
:1008E000F08F05A7D7E90067E1E784ED0A8AEFE713
:1008F000EA2E4454FB21F93FEA2E4454FB21F9BF70
:1009000008B511F0DBFEDFED0C7A07EE100A67EE9A
:10091000277A17EE900A1CF021FC05A3D3E90023E7
:100920001CF09EFD1CF022FF08BD00BFAFF300804D
:10093000EA2E4454FB2119400000B443000000009B
:1009400008B511F0CFFEDFED0C7A07EE100A67EE66
:10095000277A17EE900A1CF001FC05A3D3E90023C7
:100960001CF07EFD1CF002FF08BD00BFAFF300804D
:10097000EA2E4454FB2119400000B443000000005B
:100980004F4A21F0004393422DE970430D4604463F
:100990004DDC4C4A93420E460FDC45A3D3E90023BD
:1009A0001CF07EFA0022484B1CF0C0FE002854D0F8
:1009B0002B4620461946BDE87083444A934240DCEA
:1009C000B3F1804F49DD1DF0E1F9224680468946AA
:1009D0002B46204629461CF019FC00223A4B1CF0FD
:1009E0005FFA1EF0F3F942464B461CF059FA0246F4
:1009F0000B46002034491CF033FD424604460D46A8
:100A00004B46404649461CF04BFA0B4602462946E7
:100A100020461CF045FA01F0C7FE04460B46002EA6
:100A20000BDC03F1004320461946BDE870830B46FA
:100A300002461CF035FA04460B4620461946BDE82E
:100A400070831DF0A3F901F0AFFE1BA3D3E90023CF
:100A50001CF026FA04460B46E1E722462B462046C8
:100A600029461CF0D3FB80468946204629461DF0C6
:100A70008DF900220446144B0D46404649461CF0B1
:100A80000FFA1EF0A3F900220F4B1CF009FA0246E0
:100A90000B46404649461CF0E3FC22462B461CF020
:100AA000FFF900F0B1FA04460B46B8E7AFF3008057
:100AB0009C7500883CE4377EEF39FAFE422EE63F13
:100AC000FFFFEF7FFFFF2F3E0000F03F0000B0412F
:100AD0002DE9F84FB84B21F000469E420D468A465C
:100AE00004460EDDB54B9E4200F3B08000F0AB80B3
:100AF000B34BB449B448BAF1000FC8BF1946BDE8BA
:100B0000F88FB24B9E4200F3B980A3F1DE739E4290
:100B100040F3A4804FF0FF3B22462B462046294657
:100B20001CF074FB02460B46804689461CF06EFBA7
:100B300089A3D3E9002306460F461CF067FB88A370
:100B4000D3E900231CF0ACF932463B461CF05EFBB7
:100B500085A3D3E900231CF0A3F932463B461CF0E1
:100B600055FB83A3D3E900231CF09AF932463B4698
:100B70001CF04CFB80A3D3E900231CF091F9324612
:100B80003B461CF043FB7EA3D3E900231CF088F90D
:100B900042464B461CF03AFB7BA3D3E90023804638
:100BA0008946304639461CF031FB79A3D3E900234E
:100BB0001CF074F932463B461CF028FB76A3D3E9BF
:100BC00000231CF06BF932463B461CF01FFB74A35C
:100BD000D3E900231CF062F932463B461CF016FBB9
:100BE00071A3D3E900231CF059F932463B461CF0AF
:100BF0000DFB02460B46404649461CF051F9224681
:100C00002B461CF003FBBBF1FF3F02460B465CD0BA
:100C10006F4B704E4FEACB0B5B44D3E900231CF0C3
:100C20003DF922462B461CF039F9B34402460B46E7
:100C3000DBE900011CF032F9BAF1000F0CDA01F126
:100C40000041BDE8F88F00283FF452AF224620460D
:100C50002B4629461CF024F9BDE8F88F54A3D3E9AC
:100C600000231CF01DF900225B4B1CF05FFD0028E7
:100C70003FF450AF20462946BDE8F88F1DF086F8B6
:100C8000564B9E4204460D4625DCA3F550239E425A
:100C90004ADC02460B461CF003F900224E4B1CF0C6
:100CA000FDF8002206460F464FF0804320462946B5
:100CB0001CF0F6F802460B46304639461CF0D0FBD5
:100CC0004FF0000B04460D4626E7204629461CF04F
:100CD000E5F8BDE8F88F424B9E421ADC0022414BFA
:100CE0001CF0DCF8002206460F463E4B2046294603
:100CF0001CF08CFA0022384B1CF0D2F802460B464E
:100D0000304639461CF0ACFB4FF0020B04460D4652
:100D100002E702460B46002033491CF0A1FB4FF0CE
:100D2000030B04460D46F7E600222B4B1CF0B6F8E9
:100D3000002206460F46284B204629461CF0B0F8F4
:100D400002460B46304639461CF08AFB4FF0010B39
:100D500004460D46E0E600BF11DA22E33AAD903FCB
:100D6000EB0D76244B7BA93F513DD0A0660DB13FE2
:100D70006E204CC5CD45B73FFF8300922449C23F4A
:100D80000D5555555555D53F2F6C6A2C44B4A2BF0F
:100D90009AFDDE522DDEAD3F6D9A74AFF2B0B33FD7
:100DA000711623FEC671BC3FC4EB98999999C93F4F
:100DB0009C7500883CE4377EFFFF0F440000F07F05
:100DC000FB21F93FFB21F9BF182D4454FFFFDB3F06
:100DD000380F0308180F03080000F03FFFFFF23F31
:100DE000FF7F03400000F83F0000F0BF000000005C
:100DF000C1F30A522DE9F843A2F2FF36132E0B4637
:100E00000D4604468846074621DC002E4CDB3A4A54
:100E100042FA06F901EA090202431DD034A3D3E9DC
:100E200000231CF03DF8002200231CF07FFC48B199
:100E3000002D04DD4FF4801343FA06F6B04428EA8F
:100E4000090500273C4629462046BDE8F883332E95
:100E500006DDB6F5806F3AD019462046BDE8F88326
:100E6000A2F213424FF0FF3929FA02F919EA000FF2
:100E7000F2D01FA3D3E900231CF012F800220023B4
:100E80001CF054FC0028DDD0002D09DD142E25D0E7
:100E90000123C6F1340603FA06F6371928BF984431
:100EA00027EA09074546CDE711A3D3E900231BF044
:100EB000F7FF002200231CF039FC0028C2D0002DCF
:100EC0000FDB55EA040707D000270C4DBAE70246AE
:100ED0001BF0E6FF0446C0E73D46B3E705F1010815
:100EE000DEE700274FF00045ACE700BFAFF300801E
:100EF0009C7500883CE4377EFFFF0F000000F03F48
:100F0000C1F30A522DE9F843A2F2FF36132E0B4625
:100F10000D460446884607461DDC002E3DDB384A58
:100F200042FA06F901EA0902024319D032A3D3E9D1
:100F300000231BF0B5FF002200231CF0F7FBD0B309
:100F4000002D04DA4FF4801343FA06F6B04428EA81
:100F5000090500272FE0332E06DDB6F5806F2FD070
:100F600019462046BDE8F883A2F213424FF0FF393C
:100F700029FA02F919EA000FF2D01FA3D3E90023DE
:100F80001BF08EFF002200231CF0D0FB98B1002D37
:100F900024DB27EA090745460DE017A3D3E9002320
:100FA0001BF07EFF002200231CF0C0FB18B1002DB7
:100FB0000BDB00273D463C4629462046BDE8F8832A
:100FC00002461BF06DFF0446CBE725F000430D4AB7
:100FD0001F43002F18BF15460027ECE7142E08D03A
:100FE0000123C6F1340603FA06F6371928BF9844E0
:100FF000CFE705F10108CCE79C7500883CE4377E1B
:10100000FFFF0F000000F0BF2DE9F04FD84B9942D1
:1010100087B00E46074643DDD64B99428A4600F319
:10102000F680D54B994240F330810B15A3F2FF3B7C
:1010300000220023CDE902230446D04BCAF3130A51
:101040009A454AF07F5500F3158145F44015204636
:1010500029460022CA4B1BF021FF002204460D4600
:10106000C84B1CF0D3F822462B461CF0CFF8804624
:10107000894627462E46CDE90089BAF1000F3AD1BC
:1010800000220023204629461CF028FB002800F0FF
:101090001D81BBF1000F40F0858100200146BAE0C0
:1010A000B94B21F000449C420A460FDD0022B74BA9
:1010B0001CF014FB002800F0B18000220023002067
:1010C000B3491CF0CDF907B0BDE8F08FB14B9C429D
:1010D00040F3B180B04B1A449A4240F2D6800022CD
:1010E000A84B1CF093F83A4633461CF08FF8CDE934
:1010F00000014FF0000B00224FF08043384631468C
:101100001BF0CEFE02460B46384631461CF0A8F9CD
:1011100002460B46804689461CF078F880A3D3E946
:10112000002304460D461CF071F87FA3D3E9002389
:101130001BF0B6FE22462B461CF068F87CA3D3E9D0
:1011400000231BF0ADFE22462B461CF05FF87AA36D
:10115000D3E900231BF0A4FE22462B461CF056F8D0
:1011600077A3D3E900231BF09BFE22462B461CF0FD
:101170004DF875A3D3E900231BF092FE22462B46BF
:101180001CF044F872A3D3E900231BF089FE224629
:101190002B461CF03BF8DDE9004522462B461BF0B0
:1011A0007FFE42464B461CF031F8CDE90401BBF10D
:1011B000000F00F0A88058461BF0BEFF66A3D3E9DD
:1011C0000023804689461CF021F865A3D3E900235B
:1011D00004460D46404649461CF018F8DDE9022356
:1011E0001BF05EFEDDE904231BF05AFE02460B46AF
:1011F000DDE900011BF052FE3A4633461BF04EFE7D
:1012000002460B46204629461BF048FE03E00246F4
:101210000B461BF045FE07B0BDE8F08F3A4633465B
:10122000384631461BF03AFE02460B461CF018F9D0
:1012300007B0BDE8F08F0022584B1BF031FE0022B2
:1012400000231CF073FA10B1554B9C4262DD3A4604
:101250003346384631461BF0D9FF0022494B1BF07C
:10126000D5FF02460B46384631461BF017FE07B045
:10127000BDE8F08F45F40015CAF5801A20462946CE
:101280004FEAAA0A0BF1010BE3E63D4B3846314623
:1012900000221BF005FE0B15A3F2FF3BBBF1000F74
:1012A00004460D468A4640F3C3803A4633461BF057
:1012B000F5FD02460B46002031491BF0EFFD2246AA
:1012C0002B461CF0CDF8CDE90201B6E626A3D3E902
:1012D0000023204629461BF099FF02460B460020BA
:1012E00027491BF0DBFD42464B461BF08FFF0646AD
:1012F0000F46BBF1000F73D102460B46204629462C
:101300001BF0CCFD87E702460B46204629461BF022
:10131000C5FDA6E7384631467DE700BFAFF3008044
:1013200044523EDF12F1C23F9FC678D0099AC33FB4
:10133000DE03CB966446C73FAF788E1DC571CC3FA8
:10134000599322942449D23F04FA97999999D93F05
:10135000935555555555E53F0000E0FE422EE63FBA
:10136000763C7935EF39EA3D555555555555E53FAC
:101370007982DA3FFFFFEF7FFFFF3F439DA006002A
:101380000000F03F0000E03FFFFFEF3F0000F0BF34
:10139000000050C3FFFF1F3E3C412D400000504362
:1013A000FFFF8F3C58461BF0C7FE27A3D3E900235D
:1013B00006460F461BF02AFFDDE902231BF070FDF5
:1013C00023A3D3E9002304460D46304639461BF0DB
:1013D0001DFF02460B46204629461BF061FD1AE719
:1013E00058461BF0A9FE1AA3D3E9002382468B4678
:1013F0001BF00CFF14A3D3E9002380468946504616
:1014000059461BF003FFDDE902231BF049FD0246AC
:101410000B46304639461BF041FD22462B461BF059
:101420003DFD02460B46404649461BF037FDF2E6BD
:101430000022094B1BF032FD02460B46384631466E
:101440001BF02CFD3BE700BF763C7935EF39EA3DD8
:101450000000E0FE422EE63F0000F03F00000000EA
:1014600008B51DF003F804A3D3E900231BF0F8FF2F
:1014700008BD00BFAFF30080EF39FAFE422EE63F11
:101480002DE9F043DFF8B4808BB004460D4600F040
:1014900057FF98F90030013306460F462CD02246FC
:1014A0002B46204629461CF04BF9814620BB20469E
:1014B00029461CF06BFC1CA3D3E900231CF036F971
:1014C000D0B11B4A98F90030CDF820900321CDE926
:1014D0000445CDE90245CDE9001293B1154900203C
:1014E000022BCDE9060111D11EF0EAFC2223036094
:1014F000089B9BB9DDE90667304639460BB0BDE86D
:10150000F0830D4B4FF06042CDE9062368461EF094
:1015100087FB0028E8D0089B002BEBD01EF0D0FC06
:10152000089B0360E6E700BF7DF8B98FCE338640A5
:10153000B42A03080000F07FFFFFEF479A03002062
:101540002DE9F043DFF8E4808BB004460D4600F04F
:10155000A3FF98F90030013306460F4633D02046EA
:1015600029461EF057FB70B329A3D3E90023204678
:1015700029461CF0DBF8814650BB27A3D3E90023A2
:10158000204629461CF0B4F8E8B198F90030244A06
:10159000CDF82090042600200021022BCDE904453F
:1015A000CDE90245CDE90062CDE9060129D06846C2
:1015B0001EF036FB28B3089B1BB11EF081FC089B74
:1015C0000360DDE90667304639460BB0BDE8F083BD
:1015D000134A98F90030019203210022CDE9044515
:1015E000CDE90245009108922BB90E4B4FF06042B5
:1015F000CDE90623DBE70C490020022BCDE90601EB
:10160000D5D11EF05DFC22230360D4E7AFF3008048
:10161000EF39FAFE422E864051302DD5104987C051
:10162000BC2A0308FFFFEF470000F07F9A03002069
:101630002DE9F84FC44E21F00043B3420C46054655
:101640000DDD03F1404303F58013034340F0B980FF
:10165000002940F3408100200021BDE8F88FBB4EF7
:10166000B34208DCBA4A934200F3B5809CA1D1E9A9
:101670000001BDE8F88F0029C0F2708102460B46D8
:101680000020B4491BF00AFC0022B34B1BF0BEFD46
:1016900004460D461DF09AFB93A3D3E90023894627
:1016A0008046294620461BF0B1FD91A3D3E90023D3
:1016B0001BF0F6FB22462B461BF0A8FD8EA3D3E9B8
:1016C00000231BF0EBFB22462B461BF09FFD8CA357
:1016D000D3E900231BF0E4FB22462B461BF096FDCA
:1016E00089A3D3E900231BF0D9FB22462B461BF02C
:1016F0008DFD87A3D3E900231BF0D2FB22462B46A6
:101700001BF084FD84A3D3E9002382468B46204648
:1017100029461BF07BFD82A3D3E900231BF0BEFB0F
:1017200022462B461BF072FD7FA3D3E900231BF05A
:10173000B7FB22462B461BF069FD7DA3D3E90023AE
:101740001BF0ACFB22462B461BF060FD0022814BB8
:101750001BF0A6FB02460B46504659461BF080FE86
:1017600042464B461BF052FD002682468B463246CF
:101770004B46304649461BF049FD02460B46204683
:1017800029461BF08BFB324604460D464B4640462D
:1017900049461BF085FB02460B46204629461BF0B6
:1017A0005FFE02460B46504659461BF079FB324617
:1017B0004B461BF075FB02460B461BF071FBBDE868
:1017C000F88F02460B461BF069FB02460B461BF0E6
:1017D00047FEBDE8F88F02460B461BF017FD42A3FB
:1017E000D3E9002306460F461BF010FD40A3D3E9C2
:1017F00000231BF055FB32463B461BF007FD3EA382
:10180000D3E900231BF04AFB32463B461BF0FEFCAB
:101810003BA3D3E900231BF043FB32463B461BF0BE
:10182000F5FC39A3D3E900231BF038FB32463B46D5
:101830001BF0ECFC36A3D3E900231BF031FB32464E
:101840003B461BF0E3FC34A3D3E9002380468946E2
:10185000304639461BF0DAFC31A3D3E900231BF0F4
:101860001DFB32463B461BF0D1FC2FA3D3E90023DE
:101870001BF016FB32463B461BF0C8FC2CA3D3E9F9
:1018800000231BF00BFB32463B461BF0BFFC002243
:10189000304B1BF005FB02460B46404649461BF009
:1018A000DFFD2A4623461BF0B1FC02460B4622A16F
:1018B000D1E900011BF0F2FA02460B462846214608
:1018C0001BF0ECFA02460B4605A1D1E900011BF022
:1018D000E5FABDE8F88F1AA1D1E9000179E700BF68
:1018E000182D4454FB21F93F09F7FD0DE13D023F5E
:1018F00088B20175E0EF493F3B8F68B52882A43F6D
:101900005544880E55C1C93F7D6FEB0312D6D43FB5
:10191000555555555555C53F82922EB1C5B8B33F63
:1019200059018D1B6C06E63FC88A599CE52A004088
:101930004B2D8A1C273A0340075C143326A6913CA2
:10194000182D4454FB210940FFFFEF3FFFFFDF3F0D
:101950000000603C0000F03F0000E03F00225C4BD4
:101960001BF09EFA00225B4B1BF050FC40A3D3E916
:10197000002304460D461BF049FC3FA3D3E9002396
:101980001BF08EFA22462B461BF040FC3CA3D3E909
:1019900000231BF083FA22462B461BF037FC3AA3A8
:1019A000D3E900231BF07CFA22462B461BF02EFCC9
:1019B00037A3D3E900231BF071FA22462B461BF014
:1019C00025FC35A3D3E900231BF06AFA22462B46F7
:1019D0001BF01CFC80468946204629461DF0F6F97E
:1019E0002FA3D3E9002306460F46204629461BF0C5
:1019F0000DFC2DA3D3E900231BF050FA22462B4601
:101A00001BF004FC2AA3D3E900231BF049FA224669
:101A10002B461BF0FBFB28A3D3E900231BF03EFA67
:101A200022462B461BF0F2FB0022294B1BF038FA12
:101A300002460B46404649461BF012FD32463B46E5
:101A40001BF0E4FB1EA3D3E900231BF027FA324668
:101A50003B461BF025FA02460B461BF021FA0246D4
:101A60000B4619A1D1E900011BF018FAB1E600BF3D
:101A700009F7FD0DE13D023F88B20175E0EF493FF6
:101A80003B8F68B52882A43F5544880E55C1C93F95
:101A90007D6FEB0312D6D43F555555555555C53F6F
:101AA00082922EB1C5B8B33F59018D1B6C06E63F3B
:101AB000C88A599CE52A00404B2D8A1C273A0340CE
:101AC000075C143326A6913C182D4454FB21094091
:101AD0000000F03F0000E03F414A91422DE9F84309
:101AE0000C46054637DD3F4A914209DD02F1795245
:101AF00091423EDD02460B461BF0D2F9BDE8F88369
:101B000001F1404202F5801202432ED0B1F1804F24
:101B100037DC0022344B1BF0C1F902460B46044669
:101B20000D461BF0BDF9224606460F462B462046C1
:101B300029461BF06BFB02460B46304639461BF02C
:101B4000AFF91DF043F922462B461BF0A9F9BDE879
:101B5000F843FFF759BA02460B461BF09FF90246BD
:101B60000B461BF07DFCBDE8F88300200021BDE89A
:101B7000F88300F019FE18A3D3E900231BF090F9B5
:101B8000F1E702460B461BF041FB0022164B1BF00F
:101B900085F91DF01BF92A468046894623462846CA
:101BA00021461BF07DF92A4606460F46234640464D
:101BB00049461BF075F902460B4600200A491BF006
:101BC0004FFC0B460246394630461BF067F9BDE82C
:101BD000F84300F0E9BD00BFEF39FAFE422EE63FC0
:101BE000FFFFEF3FFFFFAF410000F03F00000000AC
:101BF0002DE9F04FB24B21F000479F4287B00D46D0
:101C0000044615DD07F1404707F5801703463B43BF
:101C100026D002460B461BF041F90B4602461BF04C
:101C20001FFC04460B462046194607B0BDE8F08F5E
:101C3000A44B9F420E462EDCB7F1795F80F24A81B9
:101C400083A3D3E900231BF02BF900229E4B1BF04A
:101C50006DFD00B32B462046194607B0BDE8F08F56
:101C60007DA3D3E900231BF0D1FA7DA3D3E90023A0
:101C700006460F46204629461BF0C8FA02460B4688
:101C8000304639461BF00CF904460B4620461946EF
:101C900007B0BDE8F08F204629461CF077F80246D1
:101CA0000B46002088491BF0F9F80022874B1BF0F7
:101CB000ADFA6DA3D3E9002304460D461BF0A6FA46
:101CC0006BA3D3E900231BF0EBF822462B461BF055
:101CD0009DFA69A3D3E900231BF0E0F822462B46C6
:101CE0001BF094FA66A3D3E900231BF0D9F822462F
:101CF0002B461BF08BFA64A3D3E900231BF0CEF82C
:101D000022462B461BF082FA61A3D3E900231BF085
:101D1000C7F822462B461BF079FA5FA3D3E90023CC
:101D2000CDE90001204629461BF070FA5CA3D3E9F7
:101D300000231BF0B3F822462B461BF067FA5AA388
:101D4000D3E900231BF0ACF822462B461BF05EFAC9
:101D500057A3D3E900231BF0A1F822462B461BF022
:101D600055FA594B00221BF09BF882468B462046C1
:101D70002946CDE902AB1DF029F8554B9F4280461C
:101D8000894600F31C8102460B461BF089F8DDE909
:101D90000223CDE90401DDE900011BF061FB0246ED
:101DA0000B46DDE904011BF031FA4FF0000ACDE9E2
:101DB000000152464B46504649461BF027FA024660
:101DC0000B46204629461BF069F8524604460D464C
:101DD0004B46404649461BF063F802460B462046F8
:101DE00029461BF03DFB02460B461BF059F8024604
:101DF0000B461BA1D1E900011BF050F802460B462F
:101E0000DDE900011BF04AF8524604460D464B46F8
:101E1000504649461BF044F802460B4626A1D1E93C
:101E200000011BF03BF802460B46204629461BF0FA
:101E300035F80B46024620A1D1E900011BF02EF82F
:101E400004460B46002E3FF7EEAE03F10043EAE6F0
:101E50009C7500883CE4377E182D4454FB21F93FE3
:101E6000075C143326A6913C09F7FD0DE13D023FC6
:101E700088B20175E0EF493F3B8F68B52882A43FE7
:101E80005544880E55C1C93F7D6FEB0312D6D43F30
:101E9000555555555555C53F82922EB1C5B8B33FDE
:101EA00059018D1B6C06E63FC88A599CE52A004003
:101EB0004B2D8A1C273A0340182D4454FB21E93F3F
:101EC000FFFFEF3FFFFFDF3F0000F03F0000E03F7C
:101ED0003233EF3F02460B461BF098F948A3D3E993
:101EE000002306460F461BF091F947A3D3E90023D0
:101EF0001AF0D6FF32463B461BF088F944A3D3E9DB
:101F000000231AF0CBFF32463B461BF07FF942A379
:101F1000D3E900231AF0C4FF32463B461BF076F9A2
:101F20003FA3D3E900231AF0B9FF32463B461BF02A
:101F30006DF93DA3D3E900231AF0B2FF32463B46C8
:101F40001BF064F93AA3D3E9002380468946304662
:101F500039461BF05BF938A3D3E900231AF09EFF42
:101F600032463B461BF052F935A3D3E900231AF061
:101F700097FF32463B461BF049F933A3D3E90023D0
:101F80001AF08CFF32463B461BF040F90022344BDE
:101F90001AF086FF02460B46404649461BF060FA9F
:101FA00022462B461BF032F922462B461AF078FFC8
:101FB00004460B462046194607B0BDE8F08F52464E
:101FC0005B46DDE900011BF04BFA42464B461BF035
:101FD0001DF942464B461AF063FF02460B461AF0C3
:101FE0005FFF1BA3D3E900231AF058FF0B460246FC
:101FF00019A1D1E900011AF051FF04460B4621E76F
:1020000009F7FD0DE13D023F88B20175E0EF493F60
:102010003B8F68B52882A43F5544880E55C1C93FFF
:102020007D6FEB0312D6D43F555555555555C53FD9
:1020300082922EB1C5B8B33F59018D1B6C06E63FA5
:10204000C88A599CE52A00404B2D8A1C273A034038
:10205000075C143326A6913C182D4454FB21F93F0C
:102060000000F03F000000002DE9F84F54421443F7
:1020700023F00048684E48EAD474B44284460F46C0
:102080001FD84442044321F0004A4AEAD474B442BF
:102090008B4616D803F1404404F5801414439E4641
:1020A0003DD09C1704F0020444EAD1745AEA0001BE
:1020B0000FD1022C50D0032C3CD145A1D1E9000115
:1020C00005E01046194662463B461AF0E9FEBDE8B7
:1020D000F88F58EA020126D0B0452DD0B24522D063
:1020E000AAEB08084FEA2858B8F13C0F38DC002B5F
:1020F0003ADA18F13C0F37DA00200021012C49D0E0
:10210000022C3AD0002CE2D033A3D3E900231AF0FA
:10211000C5FE33A3D3E900231AF0C0FED7E7BDE81C
:10212000F84FFEF7D5BCBBF1000F11DB2EA1D1E9B2
:102130000001CCE73946CAE7C2452FD0022C0BD0AC
:10214000032CBAD0012C4FF0000031D00021BEE7A3
:1021500027A1D1E90001BAE721A1D1E90001B6E741
:1021600021A1D1E90001C9E7604639461BF078F9A1
:102170001BF00CFEFEF7ACFCC0E717A3D3E900236D
:102180001AF08CFE02460B4615A1D1E900011AF0A7
:1021900085FE9CE701F10043194698E7022C12D016
:1021A000032C0CD0012C06D013A1D1E900018EE73D
:1021B0004FF000418BE712A1D1E9000187E712A19E
:1021C000D1E9000183E712A1D1E900017FE700BF57
:1021D000182D4454FB2109C0075C143326A6A13CEA
:1021E000182D4454FB210940182D4454FB21F93F7C
:1021F000182D4454FB21F9BF182D4454FB21E93F0D
:10220000182D4454FB21E9BFD221337F7CD902C071
:10221000D221337F7CD902400000F07F0000000013
:1022200043422DE9F047034321F00048404A48EA81
:10223000D37393420F462ED890454AD03D4B9845D4
:102240008A4636DD3C4B9845044645464CDD024601
:10225000434641461AF024FE224606460F464346B0
:10226000002033491AF01AFE02460B463046394622
:102270001BF0F6F8FEF7C8FE304B00221AF0C6FF3E
:10228000BAF1000F04460B460FDA01F10043204675
:102290001946BDE8F08702460B461AF0FFFD0B46D3
:1022A00002461BF0DDF804460B4620461946BDE801
:1022B000F0871DA3D3E9002304461AF0F1FD0022A4
:1022C00000231BF033FA70B13B4620461946BDE8A7
:1022D000F087002200231BF0C3F804460B4620467B
:1022E0001946BDE8F087454622462B46204629463A
:1022F0001AF0D6FD22462B4606460F461AF086FFF8
:102300002246804689462B46002009491AF0C6FD20
:1023100002460B46404649461BF0A2F832463B4671
:102320001AF0BEFDA6E700BF9C7500883CE4377E2E
:102330000000F03FFFFF2F3EFFFFDF3F0000E03FC8
:102340004D4A2DE9F84321F0004494420B460646DD
:102350001BDC4A4A944224DD494A944256DD494AEC
:10236000944248DD484A944271DD013294426BD078
:102370003FA3D3E90023104619461AF047FF06464B
:102380000F4630463946BDE8F88304460D462246DE
:102390002B461AF03BFF06460F4630463946BDE84D
:1023A000F8831BF0F3FC02F06FFC0022374B8046F1
:1023B00089461AF075FDB4F1725F06460F46ECDBF4
:1023C00042464B46404649461AF020FF32463B46BD
:1023D00004460D46304639461AF062FD02460B4669
:1023E000204629461BF03CF80022284B1AF058FDE5
:1023F00006460F46D1E71BF0C9FC00F04DF800225D
:10240000234B1AF003FF06460F46C6E71BF0BEFC3F
:1024100000F042F800221E4B06460F461AF0F6FE68
:10242000324604460D463B46002019491BF018F879
:1024300002460B46204629461AF032FD06460F4654
:1024400030463946BDE8F883124A904290D830466B
:1024500019461BF09BFC00220D4B1AF0D7FE00F032
:102460001BF800220A4B04460D461AF0CFFE8EE7F9
:102470009C7500883CE4377EFFFFEF7F422ED63FFD
:10248000FFFF3540412E8640CD3386400000F03FAF
:102490000000E03F7DF8B98F2DE9F047B84F21F0FB
:1024A0000042BA4284B00C464FEAD176054612D9B2
:1024B000B44FBA4240F28E80C1F313030343024685
:1024C00040F0F780002E00F0818000252946284644
:1024D00004B0BDE8F087AC4B9A4200F2B880AB4B39
:1024E0009A4240F2D3804FF0000A2A4623462846FB
:1024F00021461AF08BFE8CA3D3E9002306460F4633
:102500001AF084FE8AA3D3E900231AF0C7FC3246EE
:102510003B461AF07BFE88A3D3E900231AF0C0FCE7
:1025200032463B461AF072FE85A3D3E900231AF027
:10253000B5FC32463B461AF069FE83A3D3E900237B
:102540001AF0AEFC32463B461AF060FE02460B46DD
:10255000284621461AF0A2FC02460B4606460F46C4
:10256000284621461AF052FE80468946BAF1000FED
:1025700000F0B38032463B4600204FF080411AF015
:102580008DFC02460B46404649461AF069FF02465A
:102590000B46DDE902011AF081FCDDE900231AF0A7
:1025A0007DFC0B4602467A4900201AF077FC6FF456
:1025B0007F739A4580F2AD800AF57A7A01EB0A5171
:1025C00000224FF0B8731AF021FE0546284604B0E9
:1025D000BDE8F0875EA3D3E900231BF0A7F800282D
:1025E0006FD1284621465CA3D3E900231BF080F875
:1025F00000287FF46AAF674B284603EBC6062146E6
:1026000057A3D3E900231AF001FED6E900231AF0FC
:1026100047FC1BF0ABF882461AF08EFD52A3D3E9BB
:10262000002306460F461AF0F1FD02460B462846E7
:1026300021461AF033FC4EA3D3E90023CDE9000173
:10264000304639461AF0E2FDCDE9020115E0524B61
:102650009A42D0D8514BF4002344D3E900231AF016
:102660001DFC4F4B2344D3E90034CDE90001CDE9F3
:102670000234C6F1010AAAEB060ADDE90223DDE90C
:1026800000011AF00BFC05460C462EE73AA3D3E9ED
:1026900000231AF005FC00223D4B1BF047F80028F0
:1026A0003ED0284621460022394B1AF0F9FB054658
:1026B0008CE70B461AF0F4FB0546284604B0BDE84B
:1026C000F0872DA3D3E90023104619461AF09EFD8A
:1026D0000546284604B0BDE8F0873046394600225A
:1026E0004FF080431AF0DAFB02460B46404649465B
:1026F0001AF0B6FE2A4623461AF0D0FB02460B46D5
:10270000002023491AF0CAFB0546284604B0BDE85C
:10271000F087054601EB0A51284604B0BDE8F08772
:102720008246E2E6AFF30080D0A4BE726937663E0F
:10273000F16BD2C541BDBB3E2CDE25AF6A56113FC1
:1027400093BDBE166CC1663F3E5555555555C53FA8
:10275000EF39FAFE422E864051302DD5104987C000
:10276000FE822B654715F73F0000E0FE422EE63F54
:10277000763C7935EF39EA3D9C7500883CE4377E3C
:10278000412E8640FFFFEF7F422ED63FFFFF2F3EB8
:102790000000F03F580F0308B1A2F03F680F030894
:1027A000780F0308000000002DE9F04FB1F5801FFD
:1027B00085B006460F460B4680F2D08021F00042DD
:1027C000024300F0DA800029C0F2E9800022D64BF3
:1027D0001AF01CFDD54A0B46934206460F466FF091
:1027E000350E00F3C180C3F3130505F5152C0CF667
:1027F000647C0CF4801C8CF07F5282F440121C1517
:1028000042EA0507A4F2FF3474440022C84B304664
:10281000394604EB1C541AF041FBAB1CC3F3130301
:10282000022B82468B464FF0000240F3AF804FF000
:1028300080431AF035FB02460B46504659461AF0C3
:102840000FFE064620460F461AF076FC3246CDE9CA
:1028500002013B4630463946CDE900671AF0D6FC06
:1028600002460B46804689461AF0D0FC9AA3D3E96B
:10287000002306460F461AF0C9FC99A3D3E90023AA
:102880001AF00EFB32463B461AF0C0FC96A3D3E981
:1028900000231AF005FB32463B461AF0B7FC94A31E
:1028A000D3E900231AF0FCFA42464B461AF0AEFC7C
:1028B00091A3D3E9002380468946304639461AF071
:1028C000A5FC8FA3D3E900231AF0EAFA32463B466F
:1028D0001AF09CFC8CA3D3E900231AF0E1FA3246EB
:1028E0003B461AF093FC0B460246494640461AF016
:1028F000D7FAA5F5C223C5F5D725A3F27A435135FA
:102900001D43002D06460F4640F387800022894B69
:10291000504659461AF07AFC52465B461AF076FC4D
:1029200002460B4680468946304639461AF0B8FAC8
:10293000DDE900231AF06AFC06460F46002C40F041
:10294000818002460B46404649461AF0A7FA0246E5
:102950000B46504659461AF0A1FA0BE0734A9342CF
:102960004FF0000E7FF73FAF32463B4630463946C8
:102970001AF096FA05B0BDE8F08F0022002300207F
:102980006D491AF06DFD05B0BDE8F08F00231AF017
:10299000A5FE60B1002C7CD100200021EAE70246B0
:1029A0001AF07CFA002200231AF05AFDE2E758A33D
:1029B000D3E90023504659461AF028FC02460B463C
:1029C00000205C491AF06AFA524606460F465B46FA
:1029D000504659461AF01AFC02460B463046394614
:1029E0001AF014FC06460F462CB320461AF0A4FB3E
:1029F00049A3D3E90023804689461AF007FC48A37F
:102A0000D3E9002304460D46404649461AF0FEFB32
:102A100002460B46304639462CE002460B465046ED
:102A200059461AF03BFADDE900231AF0EFFB06469F
:102A30000F46002C47D132463B46504659461AF0C5
:102A40002DFA97E734A3D3E90023DDE902011AF058
:102A5000DDFB33A3D3E9002304460D46DDE9020183
:102A60001AF0D4FB32463B461AF01AFA02460B46DD
:102A7000404649461AF012FA52465B461AF00EFAE0
:102A800002460B46204629461AF008FA05B0BDE872
:102A9000F08F20461AF050FB1FA3D3E9002306460F
:102AA0000F461AF0B3FB1EA3D3E9002304460D46DC
:102AB000304639461AF0AAFB02460B462046294604
:102AC0001AF0EEF956E7DDE9028913A3D3E90023F2
:102AD0004046494691E700BF44523EDF12F1C23FF3
:102AE000DE03CB966446C73F599322942449D23FD4
:102AF000935555555555E53F9FC678D0099AC33F24
:102B0000AF788E1DC571CC3F04FA97999999D93F3A
:102B1000555555555555D53F0000E0FE422EE63F30
:102B2000763C7935EF39EA3D00005043FFFFEF7FF7
:102B30000000F03F0000E03F000050C30000000034
:102B4000B1F5801F2DE9F84304460D460B4619DA0E
:102B500021F00042024359D000295FDB00223A4BAA
:102B60001AF054FB394A0B4693420D4604466FF067
:102B700035010CDD22462B46204629461AF090F9F5
:102B8000BDE8F883314A93424FF00001F2DC18159A
:102B9000A0F2FF3008444FEAD0794844C3F3130849
:102BA0001AF0CAFAC9F57F73033348EA035506469B
:102BB0000F4620462946FFF7F7FD1DA3D3E9002362
:102BC00080468946304639461AF020FB1AA3D3E9DD
:102BD000002304460D46404649461AF017FB0246BC
:102BE0000B46204629461AF05BF915A3D3E90023CA
:102BF00004460D46304639461AF008FB02460B469D
:102C0000204629461AF04CF9BDE8F883002200233B
:102C100000200F491AF024FCBDE8F88302461AF0A0
:102C20003DF9002200231AF01BFCA9E7AFF3008056
:102C3000362BF111F3FE593D0EE526157BCBDB3F1C
:102C400000609F501344D33F00005043FFFFEF7FCD
:102C5000000050C3000000002DE9F04F23F00045B4
:102C600055EA020493B00DD0794E21F00044B442ED
:102C70000F4682460FDD04F1404404F5801454EA07
:102C80000A035BD1734C0023CDE90034DDE9000178
:102C900013B0BDE8F08F984694464ED0B542EADCBA
:102CA0006B4EB54266D0002F8B468146CDE902239C
:102CB00064DB0026BCF1000F0ED1654B9D4246D06F
:102CC000644B9D4200F09780B8F1804F00F0B280D5
:102CD000614B984500F0CC83484659461BF056F8A6
:102CE000CDE90001BAF1000F06D1002C60D0594B9C
:102CF00027F040429A425BD0FF0F013F56EA07039C
:102D000000F08280554B9D4240F3B08003F1047384
:102D10009D4240F34184524B9C4240F38280B8F183
:102D2000000F40F3828048A3D3E9002310461946E0
:102D30001AF06CFACDE90001A8E728B1494813B0B0
:102D4000BDE8F04F1CF06EBFA542F7DCA8E704F128
:102D5000404303F5801353EA0A0393D0404B9C424F
:102D600040F39083B8F1000F5FDBDDE90234CDE979
:102D700000348BE7BCF1000F95D07CE73A4B9D42C5
:102D800037DCA3F154739D4293DD2B15A3F2FF337F
:102D9000142B40F3E983C3F134032CFA03F202FA53
:102DA00003F3634585D102F00102C2F1020681E717
:102DB000B8F1000F07DADDE90023002025491AF0F9
:102DC0004FFBCDE90001002FBFF660AF04F1404496
:102DD00004F5801454EA060300F03C84012E7FF4CD
:102DE00055AFDDE90045224605F10043CDE900235A
:102DF0004CE702265EE7B8F1000FC0F24F83484669
:102E00005946CDE9000141E74A4648465B465946E6
:102E10001AF044F802460B461AF022FBCDE90001F5
:102E200034E7B8F1000FFFF67EAF00230024CDE9B0
:102E300000342BE74A4648465B4659461AF0E6F905
:102E4000CDE9000122E700BF9C7500883CE4377E95
:102E50000000F07F0000F03F0000E03F0000E04194
:102E6000FFFFEF3F78180308FFFF3F43B4F5801FD3
:102E700080F28F83DDE900010022CF4B1AF0C6F902
:102E8000CDE900010C466FF0340C2315CB4DC4F393
:102E90001302A3F2FF3342F07F5403EB0C01AA426A
:102EA0000B9144F4401440F36F83C54B9A4240F3B6
:102EB000F38300220023CDE9082301310B91A4F50F
:102EC0008014CDE91023BF4B0022CDE90623002555
:102ED000DDE90001DDE906232146824619F0DEFF27
:102EE000A346DDE906238046894650462146CDE9C2
:102EF0000CAB19F0D5FF02460B460020B1491AF081
:102F0000AFFA0A460146CDE90E121346494602467B
:102F100040461AF07BF9631043F0005382468B461B
:102F200003F500238C46CDE904AB5919D3460023A1
:102F3000CDE900BC0093DDE900AB002004460D465E
:102F400002460B46504659461AF060F902460B46B7
:102F50004046494619F0A2FFDDE90623804689462E
:102F60002046294619F09AFF02460B46DDE90C017E
:102F700019F094FF52465B461AF048F902460B4698
:102F80004046494619F08AFFDDE90E231AF03EF962
:102F9000DDE90445CDE9060122462B4620462946B7
:102FA0001AF034F972A3D3E9002304460D461AF04F
:102FB0002DF971A3D3E9002319F072FF22462B46A5
:102FC0001AF024F96EA3D3E9002319F069FF224611
:102FD0002B461AF01BF96CA3D3E9002319F060FF0C
:102FE00022462B461AF012F969A3D3E9002319F0FF
:102FF00057FF22462B461AF009F967A3D3E90023AD
:1030000019F04EFF2246804689462B462046294627
:103010001AF0FCF802460B46404649461AF0F6F80C
:10302000524604460D465B46DDE9040119F038FFBF
:10303000DDE906231AF0EAF822462B4619F030FFA4
:103040005246804689465B46504659461AF0DEF89D
:1030500000225D4BCDE90C0119F022FF42464B46A0
:1030600019F01EFF00980D46044622462B46504696
:1030700059461AF0CBF8002282468B46524B204626
:10308000294619F00BFFDDE90C2319F007FF024672
:103090000B464046494619F001FFDDE904231AF0CA
:1030A000B5F82246804689462B46DDE906011AF02E
:1030B000ADF802460B464046494619F0F1FE8046FF
:1030C000894602460B465046594619F0E9FE0098DB
:1030D00033A3D3E9002304460D461AF097F852466D
:1030E000CDE904015B462046294619F0D7FE024689
:1030F0000B464046494619F0D1FE2BA3D3E90023E5
:103100001AF084F82AA3D3E9002380468946204692
:1031100029461AF07BF802460B464046494619F00C
:10312000BFFEDDE9102319F0BBFE80460B988946EF
:103130001AF002F8424682468B464B46DDE904010E
:1031400019F0AEFEDDE9082319F0AAFE52465B46EF
:1031500019F0A6FE009852465B4604460D4619F04B
:103160009DFEDDE9082319F099FEDDE904232DE039
:10317000EF4E454A287ECA3F65DBC9934A86CD3F5C
:1031800001411DA96074D13F4D268F515555D53F42
:10319000FFAB6FDBB66DDB3F033333333333E33FDA
:1031A000000000E009C7EE3FFD033ADC09C7EE3F2F
:1031B000F5015B14E02F3EBE000040438E980300F3
:1031C00079B60B000000F03F0000084019F066FEE1
:1031D0000B4602464946404619F060FE013E56EA5B
:1031E000070382468B46DDE9020114BFD84BD94B59
:1031F0000022CDE9042302460B46CDE9002300233B
:103200000093DDE9006732463B4619F047FE22464F
:103210002B4619F0FBFFDDE9022380468946504624
:10322000594619F0F3FF02460B464046494619F04D
:1032300037FE3246804689463B4620462946CDE940
:10324000028919F0E3FF0B46024606460F46404648
:10325000494619F025FEC04B994204460D468A4660
:1032600040F3268101F13F4303F5E003034340F0BF
:10327000F781A3A3D3E90023DDE9020119F010FED1
:103280003246804689463B462046294619F006FECE
:1032900002460B46404649461AF048FA002840F0DC
:1032A000DF81A8464FEA2853A3F2FE324FF4801381
:1032B00013415344C3F30A52A84DA2F2FF32154101
:1032C000C3F3130423EA05010020C2F1140B44F4F4
:1032D0008014BAF1000F02460B4644FA0BFB30464D
:1032E0003946B8BFCBF1000B19F0D8FD02460B46AA
:1032F00006460F46DDE9020119F0D2FD4FEA0B5AEE
:103300000D46002480A3D3E900232046294619F066
:103310007DFF3246804689463B462046294619F0C5
:10332000BDFD02460B46DDE9020119F0B7FD78A3A9
:10333000D3E9002319F06AFF77A3D3E900230646F7
:103340000F462046294619F061FF02460B463046DB
:10335000394619F0A5FD06460F4602460B46404683
:10336000494619F09DFD42464B4604460D4619F06C
:1033700095FD02460B463046394619F08FFD224630
:10338000804689462B462046294619F03FFF64A314
:10339000D3E9002306460F4619F038FF62A3D3E9AC
:1033A000002319F07BFD32463B4619F02FFF60A346
:1033B000D3E9002319F074FD32463B4619F026FF8D
:1033C0005DA3D3E9002319F069FD32463B4619F0AD
:1033D0001DFF5BA3D3E9002319F062FD32463B4693
:1033E00019F014FF02460B462046294619F056FDF7
:1033F00006460F4602460B462046294619F006FFB0
:103400000022CDE900014FF080433046394619F0E3
:1034100045FD02460B46DDE900011AF021F842465F
:1034200006460F464B462046294619F0EFFE424617
:103430004B4619F035FD02460B463046394619F029
:103440002DFD22462B4619F029FD02460B46002091
:103450003F4919F023FD8A44BAF5801FC0F22D813F
:103460005146DDE9042319F0D1FECDE900010DE458
:10347000002FFFF631AC4846594613B0BDE8F04F77
:103480001BF0A4BCB8F1000FBFF6CFACDDE90234ED
:10349000009304F100430193FFF7F8BB4A465B46F3
:1034A00000202B4919F0DCFFCDE90001FFF7EEBB4E
:1034B0002B4B21F00048984540F3E280294B0B4408
:1034C00003430AD132463B4619F0E8FCDDE902230A
:1034D0001AF022F900283FF4E5AE1BA3D3E900233C
:1034E000DDE9040119F092FE17A3D3E9002319F0D6
:1034F0008DFECDE90001FFF7C9BB00BFAFF300802F
:10350000FE822B654715973C00000000432EE63FE6
:10351000EF39FAFE422EE63F396CA80C615C20BE02
:10352000D0A4BE726937663EF16BD2C541BDBB3EC9
:103530002CDE25AF6A56113F93BDBE166CC1663FA7
:103540003E5555555555C53F59F3F8C21F6EA50157
:103550000000F03F0000F0BFFFFF8F40FFFF0F00B3
:10356000FFCB904000346F3FBCF1000F40F09180E2
:10357000C3F1140345FA03F202FA03F3AB4200F07D
:10358000A0806646FFF79CBB00220023CDE90823FC
:1035900097E44FF0000C78E45B4B9C427FF741AC22
:1035A0005A4B9C423FF7BBABDDE900010022574B71
:1035B00019F074FC46A3D3E9002304460D4619F024
:1035C00025FE45A3D3E9002382468B4620462946A3
:1035D00019F01CFE0022CDE900014D4B2046294682
:1035E00019F014FE02460B463DA1D1E9000119F085
:1035F00055FC22462B4619F009FE02460B460020D8
:10360000444919F04BFC2246804689462B46204609
:10361000294619F0FBFD02460B464046494619F083
:10362000F5FD31A3D3E9002319F0F0FD02460B4666
:10363000DDE9000119F032FC02460B46804689465E
:103640005046594619F02CFC002004460D465246BF
:103650005B46BBE5DDE9002310461946FFF7D8BB02
:1036600023A3D3E90023DDE9040119F0CFFD20A352
:10367000D3E9002319F0CAFDCDE90001FFF706BB2D
:10368000244B98453FF70EAEDDE900239246934662
:1036900037E60026FFF720BB17A3D3E90023CDE9C7
:1036A000082317A3D3E90023CDE910231A4B0022E6
:1036B0004FF48025CDE906230AE45A4601F02CFD9B
:1036C000CFE602F00102C2F10206FFF7F9BA00BF2D
:1036D000000000604715F73F44DF5DF80BAE543E35
:1036E000555555555555D53FFE822B654715F73F26
:1036F0009C7500883CE4377E0000004003B8E23F40
:1037000006D0CF43EBFD4C3EFEFFEF3F0000F03F05
:103710000000D03F0000E03F0000F83F0000000044
:103720002DE9F04FC84E21F00047B7428FB00B464D
:1037300040F38F809246C54A97420C4626DC00290A
:10374000B7A3D3E9002340F38F8019F0A7FBC04B48
:103750009F4204460D4600F04681B3A3D3E90023FF
:1037600019F09CFB02460B46CAE900232046294675
:1037700019F094FBACA3D3E9002319F08FFB0125CA
:10378000CAE9020128460FB0BDE8F08FB14A97425E
:1037900040F38980B04A974200F31C813D15A5F2A1
:1037A0001645A7EB055319461F46064619F0DEFFDE
:1037B00019F0C2FC8046894602460B46304639461F
:1037C000CDE9088919F06AFB0022A44B19F01EFD0F
:1037D0008946804619F0CAFF19F0AEFC02460B4636
:1037E00006460F4640464946CDE90A6719F056FBA2
:1037F00000229A4B19F00AFD00220023CDE90C01AA
:1038000019F06CFF002800F05D8100233046394636
:10381000002219F063FF002814BF01230223904AFD
:10382000019202212A46009108A8514600F080FB2F
:10383000002C054614DADAF80420DAF80C3002F12C
:10384000004203F100434542CAF80420CAF80C3094
:1038500006E0C2E9000100250024C2E90245002576
:1038600028460FB0BDE8F08F19F01AFB784B9F4245
:1038700004460D4600F008816BA3D3E9002319F03C
:103880000FFB02460B46CAE900232946204619F0E1
:1038900005FB65A3D3E9002319F002FB4FF0FF35C8
:1038A000CAE90201DCE71AF071FA61A3D3E9002347
:1038B0008046894619F0AAFC00226A4B19F0F0FAFA
:1038C00019F054FF054619F037FC55A3D3E900233E
:1038D000CDE9040119F09AFC02460B4640464946E0
:1038E00019F0DCFA50A3D3E90023CDE90201DDE9A8
:1038F000040119F08BFC1F2D8046894602460B46B9
:10390000DDE9020140F3B08019F0C8FA83460E46A3
:103910003F15C6F30A53FB1A102B40F3B08046A3A1
:10392000D3E90023DDE9040119F070FC80468946E3
:1039300002460B46DDE9020119F0B0FA02460B46D9
:10394000DDE90201CDE9062319F0A8FA42464B460B
:1039500019F0A4FA3AA3D3E9002380468946DDE9A9
:10396000040119F053FC42464B4619F097FA0B46F6
:10397000024680468946DDE9060119F08FFAC1F357
:103980000A53FF1A312F83460E4600F39D800246EC
:103990000B46CAE90023DDE90623CDE902235A4696
:1039A0003346DDE9020119F079FA42464B4619F037
:1039B00075FA002C02460B46CAE90223BFF650AF47
:1039C00006F1004601F10041CAE900B6CAE9020168
:1039D0006D4245E7024619F061FA0025CAE9020185
:1039E000CAE900013CE714A3D3E9002319F056FA11
:1039F00013A3D3E900230D46044619F04FFA0246FB
:103A00000B46CAE900232946204619F047FA0CA3C1
:103A1000D3E9002319F042FA0125CAE902011FE7A0
:103A200000004054FB21F93F3163621A61B4D03D7C
:103A300083C8C96D305FE43F0000601A61B4D03DB7
:103A40007370032E8A19A33BFB21E93F7BD9024007
:103A5000FB21F93FFB213941FFFFEF7F000070415F
:103A6000702B03080000E03F19F018FA3A4B6A1E69
:103A7000834653F82230BB420E463FF449AF5A46C4
:103A80003346CAE900238AE72BA3D3E9002319F0C0
:103A900007FA2BA3D3E900230D46044619F000FAD8
:103AA00002460B46CAE900232946204619F0F6F9DA
:103AB00023A3D3E9002319F0F3F94FF0FF35CAE946
:103AC0000201CDE60323AAE61FA3D3E90023DDE923
:103AD000040119F09BFBDDE9068906460F46024604
:103AE0000B464046494619F0D9F902460B46404676
:103AF0004946CDE9022319F0D1F932463B4619F087
:103B0000CDF913A3D3E9002306460F46DDE90401EE
:103B100019F07CFB32463B4619F0C0F902460B46D1
:103B200080468946DDE9020119F0B8F983460E4660
:103B3000A5E700BFAFF300800000601A61B4D03D7C
:103B40007370032E8A19A33B0000002E8A19A33B31
:103B5000C14920259A837B39F02A03080000000020
:103B6000574A2DE9F84F21F0004890450E46074688
:103B70002CDC544B0029B4BF534D544D98454FF0A5
:103B8000000411DC524B984526DC4BA3D3E90023FB
:103B900019F086F900224F4B19F0C8FD002840D0DB
:103BA00038463146BDE8F88F4B4B984530DD4B4BDE
:103BB000984568DD0133984562D0384631463EA3CA
:103BC000D3E9002319F022FBBDE8F88F02460B462B
:103BD00019F066F9BDE8F88F1AF0D8F801F054F83A
:103BE0003F4B984506460F4623DD0022394B19F01E
:103BF00057F902460B463046394619F031FC324639
:103C00003B4619F04DF922462B4619F0FFFAE1E741
:103C10001AF0BCF8FEF740FC22462B4619F0F6FAE3
:103C2000D8E7384631461AF0B1F801F02DF80646CB
:103C30000F4632463B463046394619F031F9324696
:103C400082468B463B463046394619F0DFFA002261
:103C5000804689461F4B3046394619F021F9024605
:103C60000B464046494619F0FBFB02460B465046C0
:103C7000594619F013F922462B4619F0C7FAA9E75D
:103C8000184B984299D8384631461AF07FF80022EE
:103C90000E4B19F0BBFAFEF7FFFB06460F46024635
:103CA0000B462046294619F0B1FA32463B4619F038
:103CB000ADFA8FE7AFF300803374AC3C1F7BAC7F71
:103CC000FFFFEF7FFFFF35400000E0BF0000E03F57
:103CD000FFFF2F3E0000F03F412E8640CD3386404F
:103CE000FFFFEF3F7DF8B98F2DE9F04F21F000463F
:103CF000B6F1795F85B00C4692469B4605466BDA75
:103D000019F034FD002800F0E2802A4623462846B8
:103D1000214619F07BFA74A3D3E900238046894633
:103D200019F074FA72A3D3E9002319F0B9F84246E6
:103D30004B4619F06BFA70A3D3E9002319F0AEF8E3
:103D400042464B4619F062FA6DA3D3E9002319F0FD
:103D5000A7F842464B4619F059FA6BA3D3E9002362
:103D600019F09CF842464B4619F050FA68A3D3E983
:103D7000002319F095F842464B4619F047FACDE971
:103D800000010022644B4046494619F03FFADDE944
:103D9000002306460F464046494619F037FA524678
:103DA000804689465B462846214619F02FFA02468E
:103DB0000B464046494619F071F802460B4630461C
:103DC000394619F06BF802460B460020534919F0AA
:103DD00065F805B0BDE8F08F02460B4619F016FAFB
:103DE00041A3D3E900238046894619F00FFA40A386
:103DF000D3E9002319F054F842464B4619F006FA6D
:103E00003DA3D3E9002319F049F842464B4619F087
:103E1000FDF93BA3D3E9002319F042F842464B4693
:103E200019F0F4F938A3D3E9002319F037F8424622
:103E30004B4619F0EBF936A3D3E9002319F030F81B
:103E40004B46424619F0E2F9354B9E42CDE900015E
:103E500097DD344B9E424FF000023DDCA6F5001387
:103E600000202E4916461F4619F018F8CDE9020128
:103E70000022294B4046494619F0C8F932463B46D4
:103E800019F00CF8DDE9002306460F464046494686
:103E900019F0BCF95246804689465B4628462146C1
:103EA00019F0B4F902460B464046494618F0F6FFB1
:103EB00002460B463046394618F0F0FF02460B46E4
:103EC000DDE9020118F0EAFF05B0BDE8F08F134903
:103ED000002005B0BDE8F08F134B144FCDE902234D
:103EE0000026C5E7AFF30080D43888BEE9FAA8BD44
:103EF000C4B1B4BD9EEE213EAD529C804F7E923E39
:103F00009015CB19A001FA3E7751C1166CC1563FEE
:103F10004C5555555555A53F0000E03F0000F03F7A
:103F20003233D33F0000E93F0000E73F0000D23FBB
:103F30002DE9F04FADF5197DBE4CA29EBE4D54F853
:103F400026700793D41E85FB0465E417C4EBA50413
:103F500024EAE4741D46631CA3EB8303013D02EBDA
:103F6000C30305937B1909940497019506460B91A9
:103F7000A4EB05041BD423445D1C20AF4FF00008C4
:103F80004FF00009DDF88CA208E05AF8240019F07F
:103F9000D3F80134AC42E7E8020108D0002CF4DA8F
:103FA000013440464946AC42E7E80201F6D1049BA1
:103FB000002BC0F2B083079BA6F10802DB0011467C
:103FC000039220AA02EB0309029301EB0308049B6E
:103FD00072AA02EBC30B0DF5E07A019B002BC0F235
:103FE0009581039C4D460026002775E90223F4E9DC
:103FF000020119F00BF902460B463046394618F01B
:104000004FFF444506460F46EFD1EAE80267DA451E
:1040100009F10809E1D1DDE90204049920448B008B
:1040200082460BA8A3F10802C31808930CAB1344F3
:104030000A938B4698AB03EBCB03BBF1000F53E91C
:10404000284529DD70AB03EBCB080DF130090022C8
:104050007A4B2046294619F0D9F819F087FB19F058
:104060006BF80022764B06460F4619F0CFF8024651
:104070000B462046294618F011FF19F077FB78E926
:10408000022349F8040B3946304618F009FF70AB9B
:10409000984504460D46DAD1DDF8149020462946AD
:1040A0004A4601F039F800224FF07F5304460D468E
:1040B00019F0ACF8FCF724FF0022624B19F0A6F8C7
:1040C00002460B462046294618F0E8FE0D460446F7
:1040D00019F04CFB804619F02FF80B460246294692
:1040E000204618F0DBFE4B46002B06460F4640F3F9
:1040F000E1800BF1FF320CA9C9F1180351F82250ED
:1041000045FA03F101FA03F30CA8EB1A40F8223048
:10411000C9F11705884443FA05F5002D2CDDBBF1E4
:10412000000F08F1010840F394820C9C002C40F031
:10413000A780BBF1010F0AD00CA9012251F8044F4E
:10414000531C002C40F09E809B451A46F6D1059BDF
:10415000002B0EDD012B00F09C81022B09D10BF10D
:10416000FF320CAB0CA953F82230C3F3150341F80E
:104170002230022D00F0AF80002200233046394665
:1041800019F0ACFA002800F06682049B0BF1FF39AD
:104190004B4510DC0BF180430CAA013B089802EB65
:1041A0008303002253F80419834242EA0102F9D141
:1041B000002A40F0B580049B0CAA013B52F8233042
:1041C000002B40F0A1800A9A012352F80419013310
:1041D0000029FAD05B440BF101099945069349DCAB
:1041E000099A079909EB020801EB0B0508F18048D1
:1041F00002EB030BA39B08F1FF3803EB880870ABBD
:1042000003EBC909A39B20A903EB8B0301EBC505B5
:10421000029358F8040F18F08FFF019B002BC5E99B
:10422000000105F1080B28DB083D039C0026002750
:104230000CE000BF10300308ABAAAA2A0000703EB1
:10424000000070410000204075E80201F4E90223FB
:1042500018F0DCFF02460B463046394618F020FEC7
:10426000544506460F46EFD1029B9845E9E80267A0
:104270005D46CED1DDF818B0DCE600260027F3E776
:10428000012300220CA9C4F180749B4541F822400F
:104290000EDD51F8232001EB8B0001EB83036FF05F
:1042A0007F4100E01A688A1A43F8042B8342F9D14F
:1042B00001244CE706D10BF1FF330CAA52F823502E
:1042C000ED152AE70022BE4B19F026FA002840F02F
:1042D000B981054650E732463B460020B94918F0FF
:1042E000DDFD06460F46002C3FF446AF059AB54962
:1042F000002000F011FF02460B463046394618F008
:10430000CDFD06460F4637E7012363E70026002769
:10431000EAE80267DA4509F108097FF45EAE7AE659
:104320000CAB059A53F82930183ACDE90685059269
:104330006BB909F18043013B0CA901EB830353F8EE
:10434000041909F1FF39183A0029F8D00592059AA5
:104350009C49002000F0E0FEB9F1000F04460D4634
:10436000C0F2E0814FEAC90370AA02EB0308089388
:104370000CAB03EB8906DFF850B208F108070436EE
:104380004FF0000A56F8040D18F0D6FE22462B46D0
:1043900018F03CFF5B4667E9020152462046294679
:1043A00018F034FF0CAB9E4204460D46EAD148ABF0
:1043B00003930193CDF8149009F10103DDF81090F7
:1043C0000293C3464FF0000AB9F1000FC0F23781E3
:1043D000DFF8F8815D4678A3D3E9002300260027A3
:1043E000002403E0544510DCF8E80223F5E802015C
:1043F00018F00CFF02460B463046394618F050FDC7
:104400000134A14506460F46ECDA019BE3E802675A
:104410000193029B0AF1010A9A45ABF1080BD3D133
:10442000A29BDDF81490032B2CD8DFE813F0E800F2
:10443000D300D3003F00079B00200146002B40F033
:1044400043810D460B460B990446C1E9004503998B
:104450000246D1E9000118F021FDB9F1000F0CDD91
:10446000039D0124F5E90223013418F019FDA1454B
:10447000F8DA079B002B40F037810B460B99024678
:10448000C1E90223069B03F007000DF5197DBDE885
:10449000F08F0BF1FF320CAB0CA953F82230C3F3B1
:1044A000160341F8223064E648AB0393B9F1000FDC
:1044B00040F35581039ACDF808904FEAC90302EB07
:1044C0000308D8E900AB0193914658E902675246C8
:1044D0005B463046394618F0E3FC04460D4602467A
:1044E0000B463046394618F0D9FC52465B4618F068
:1044F000D7FCC8E9000168E90245C145A246AB46C0
:10450000E3D1DDF80890B9F1010F40F32881019B58
:10451000039A1344D3E9006701939A460DF5947BFF
:104520005AE9028932463B464046494618F0B8FCF3
:1045300004460D4602460B464046494618F0AEFC7E
:1045400032463B4618F0ACFCCAE900016AE9024574
:10455000D34526462F46E3D10399019C002301F160
:104560001005083419461E46304674E9022318F037
:1045700097FCA5420346F6D10A460399D1E9008C7F
:10458000D1E902E90799002900F0B1800B9C236171
:10459000069BC4F800800CF1004009F1004102F1D3
:1045A0000042606003F00700E1606261C4F808E067
:1045B0000DF5197DBDE8F08F00000040FB21F93FAB
:1045C0000000E03F0000F03F0000703EA00F030835
:1045D00048AB0393B9F1000FFFF62DAF039F002006
:1045E00007EBC9060836014676E9022318F058FCA5
:1045F000B742F9D1079B002B3FF423AF64E0089C3E
:10460000039D083400222C4411461646304674E9B6
:10461000022318F045FCA5420246F6D10B46079945
:1046200009B103F1004319460B9B1046C3E9000191
:10463000069B03F007000DF5197DBDE8F08F0026FD
:104640000027E2E6BBF1000F08F101087DDD02253D
:104650006BE500247BE5CDE90685059D30463946AE
:104660006A4200F059FD00223E4B06460F4619F003
:1046700053F800B300223C4B3046394618F0C6FDD3
:1046800019F074F8044618F057FD0022354B18F065
:10469000BDFD0B4602463946304618F0FFFB19F0C7
:1046A00065F80BF101090CAB183543F82B000595A3
:1046B00043F829404BE63046394619F057F80CAB21
:1046C000D94643F82B0042E60B9C0B4601F1004112
:1046D000C4E9000103990246D1E9000118F0DEFBAC
:1046E000B9F1000F3FF7BCAE01F10041C5E6184635
:1046F0000B9B4646744667464D461146C3E9040186
:10470000C3E90067C3E90245069B03F007000DF506
:10471000197DBDE8F08FA6F108030393079BDB002A
:10472000029378E4A29B032B3FF6ACAE01A252F8B1
:1047300023F000BF45470108D1450108D1450108D4
:10474000A94401080022134669E732463B4600208F
:10475000064918F0A3FB022506460F460CE5002388
:104760001A460AE7000070410000703E0000F03F6A
:104770002DE9F04F21F00046B6F1795F85B00C4687
:1047800090469946054604DA18F0F0FF002800F03C
:1047900085802A4623462846214618F037FD0646DE
:1047A0000F4602460B462846214618F02FFD3EA331
:1047B000D3E9002382468B463046394618F026FD61
:1047C0003BA3D3E9002318F069FB32463B4618F0BF
:1047D0001DFD39A3D3E9002318F062FB32463B46A6
:1047E00018F014FD36A3D3E9002318F057FB324626
:1047F0003B4618F00BFD34A3D3E9002318F050FB1F
:104800000E9BCDE900019BB30022334B4046494645
:1048100018F0FCFCDDE90023CDE9020150465946C1
:1048200018F0F4FC02460B46DDE9020118F036FBF5
:1048300032463B4618F0EAFC42464B4618F02EFB47
:1048400023A3D3E9002306460F465046594618F0E5
:10485000DDFC02460B463046394618F021FB024685
:104860000B462846214618F019FB05B0BDE8F08F2D
:1048700002460B463046394618F0C8FC14A3D3E96B
:10488000002318F00BFB52465B4618F0BFFC2A468B
:10489000234618F005FB05B0BDE8F08F28462146F9
:1048A00005B0BDE8F08F00BF7CD5CF5A3AD9E53DC1
:1048B000EB9C2B8AE6E55A3E7DFEB157E31DC73ED1
:1048C000D561C119A0012A3FA6F810111111813F2D
:1048D000495555555555C53F0000E03F00000000C3
:1048E0002DE9F04FDA4C21F00046A64287B08A4607
:1048F00089461746984683461BDC18F037FF002888
:1049000039D1109B5A4601331343334300F0A88139
:10491000109B012B00F0B1815A4653460020CD492F
:1049200018F09EFD04460D462046294607B0BDE816
:10493000F08FC94B9E421EDD002904DA01F10043CD
:1049400008F100489A465A465346A3A1D1E900010E
:1049500018F0A4FA3A46434604460D46A0A1D1E910
:10496000000118F09BFA22462B4618F099FA00270E
:1049700083468A46B8465A4653465846514618F02A
:1049800045FC03460C46CDE9003402460B4618F0C0
:104990003DFCDDE9002304460D465846514618F01B
:1049A00035FC91A3D3E90023CDE902012046294635
:1049B00018F02CFC8EA3D3E9002318F071FA2246DC
:1049C0002B4618F023FC8CA3D3E9002318F068FAD7
:1049D00022462B4618F01AFC89A3D3E9002318F0CD
:1049E0005FFA22462B4618F011FC87A3D3E9002377
:1049F00018F056FA22462B4618F008FC84A3D3E997
:104A0000002318F04DFADDE9002318F0FFFB82A324
:104A1000D3E90023CDE904012046294618F0F6FB2E
:104A20007FA3D3E9002318F03BFA22462B4618F067
:104A3000EDFB7DA3D3E9002318F032FA22462B4682
:104A400018F0E4FB7AA3D3E9002318F029FA2246F0
:104A50002B4618F0DBFB78A3D3E9002318F020FAEB
:104A600022462B4618F0D2FB75A3D3E9002318F099
:104A700017FA02460B46DDE9040118F011FADDE9E8
:104A8000022318F0C3FB3A46434618F009FADDE961
:104A9000002318F0BBFB3A46434618F001FA6AA31C
:104AA000D3E9002304460D46DDE9020118F0AEFB10
:104AB00022462B4618F0F4F9CDE900010B460246D8
:104AC0005146584618F0ECF9634B9E4204460D4699
:104AD0003EDC109B012B36D002460B4600205D4980
:104AE00018F0BEFC00240F4606465A4653462046A0
:104AF000294618F0D3F9A04602460B46DDE900012D
:104B000018F0CCF942463B4618F080FBA946044613
:104B10000D4642463B464046494618F077FB002288
:104B20004E4B18F0BDF902460B462046294618F0B8
:104B3000B7F932463B4618F069FB42463B4618F04F
:104B4000AFF904460D462046294607B0BDE8F08F70
:104B5000109818F0F1FA224606460F462B462046DA
:104B6000294618F053FB3246CDE902013B46204668
:104B7000294618F095F902460B46DDE9020118F0C6
:104B80006FFCDDE9002318F089F902460B46584610
:104B9000514618F083F902460B4618F081F9024697
:104BA0000B463046394618F079F904464FEAA970A9
:104BB00000F00200C0F101000D4618F0BDFA0246F7
:104BC0000B462046294618F021FB04460D46204698
:104BD000294607B0BDE8F08F182D4454FB21E93F6A
:104BE000075C143326A6813CD47ABF74702AFB3E3E
:104BF000E9A7F0320FB8123F68108D1AF726303F40
:104C00001583E0FEC8DB573F93846EE9E326823FBD
:104C1000FE41B31BBAA1AB3F735360DBCB75F3BE50
:104C2000A69237A0887E143F0165F2F2D844433F34
:104C3000280356C9226D6D3F37D60684F464963F2B
:104C40007AFE10111111C13F635555555555D53F89
:104C5000FFFF2F3E0000F0BF2794E53F0000F03F2C
:104C60005846514619F092F802460B460020044976
:104C700018F0F6FB04460D4665E75C46554662E7CC
:104C80000000F03F000000002DE9F04FCA4A21F07B
:104C90000043934285B00C460E46054620D9C74ACC
:104CA000934200F2D480002E80F2A081AAA3D3E91F
:104CB00000232846214618F0F3F80022002318F0BC
:104CC00017FD002840F0CE80A5A3D3E90023284695
:104CD000214618F09BFA02460B460020B84990E1A5
:104CE000B84A934200F2E280B74A934240F22B81E5
:104CF000002301930022B54B2846214618F086FA7E
:104D000006460F4602460B462846214618F07EFA14
:104D100095A3D3E9002382468B4618F077FA94A333
:104D2000D3E9002318F0BCF852465B4618F06EFA3F
:104D300091A3D3E9002318F0B1F852465B4618F06E
:104D400065FA8FA3D3E9002318F0AAF852465B4610
:104D500018F05CFA8CA3D3E9002318F09FF85246B0
:104D60005B4618F053FA0022994B18F099F88046E8
:104D7000894602460B463046394618F047FA024645
:104D80000B460020934918F089F8064602460B4668
:104D90000F464046494618F081F83246804689461B
:104DA0003B462846214618F031FA02460B460020C1
:104DB000894918F073F802460B464046494618F0F8
:104DC0004FFB52465B4618F021FA019E02460B4605
:104DD000002E4AD0DDE9026732463B4618F05EF805
:104DE0002A46234618F012FA32463B4618F056F887
:104DF0005B46524618F052F8019B013306460F46B7
:104E000000F01F81019B012B78D0019A531C392B94
:104E10004FEA025600F22481019F132F40F3518183
:104E2000019BC3F57F7A0AF1030A00224FEA0A5375
:104E300018F036F802460B462846214618F02EF8A0
:104E40000022634B18F02CF8731819461BE0634AD4
:104E500093421BD9C1F313030343024640F011816F
:104E6000002910DA00205E490DE02846214618F09E
:104E7000CDF952465B4618F011F802460B4628461B
:104E8000214618F00BF805B0BDE8F08F40A3D3E938
:104E9000002318F04BFC00283FF405AF3EA3D3E9F4
:104EA00000231046194618F0B1F9ECE74D4A934239
:104EB00000F2EB8000293AA3D3E9002339DA17F096
:104EC000EFFF39A7D7E900674FF0FF3380468946E7
:104ED000019332463B464046494617F0DFFF024603
:104EE0000B4605460C464046494617F0D7FF32466A
:104EF0003B4617F0D3FFCDE90201FBE628462146E9
:104F00000022394B18F0F4FB002800F0CB80284633
:104F1000214600222D4B17F0C3FF02460B463046B8
:104F2000394617F0BBFF00224FF0404318F06EF9EE
:104F3000A9E717F0B3FF01238046894601931CA718
:104F4000D7E90067C5E714A3D3E9002317F0A8FF4A
:104F500002460B468FE700BF59F3F8C21F6EA5014A
:104F6000FE822B654715F73F2DC3096EB7FD8ABE3C
:104F70003952E686CACFD03EB7DBAA9E19CE143F7F
:104F80008555FE19A0015A3FF41011111111A13FCE
:104F9000EF39FAFE422E86409C7500883CE4377E4D
:104FA0000000E0FE422EE63F763C7935EF39EABD5F
:104FB000763C7935EF39EA3D79684340412E8640A9
:104FC0000000E0BF422ED63FFFFF8F3C0000E03FD5
:104FD0000000F03F0000084000001840FFFFEF7F96
:104FE0000000F0BFB1A2F03F0000D0BF40A3D3E962
:104FF00000232846214618F009F902460B460020F6
:10500000414917F04DFF18F0B1FB019018F094F8EA
:1050100039A3D3E9002306460F4618F0F7F80246F5
:105020000B462846214617F039FF35A3D3E9002364
:10503000804689463046394618F0E8F806460F465D
:1050400047E732463B462846214617F027FF002215
:105050002D4B18F0DBF800222B4B17F01FFF12E747
:105060002A46234617F01AFF02460B46002027491E
:1050700017F014FF731819460022244B17F00EFF87
:1050800001E70B4617F00CFFFDE619A3D3E9002357
:1050900018F0BCF8002C02460B464FF00000AFDAC7
:1050A0001B49AEE732463B462846214617F0F6FE3E
:1050B00002460B4617F0F4FE0022144B17F0F0FEE8
:1050C000E1E64FF4001C2A4623464CFA07FA17F093
:1050D000E5FECAF17F594FF0000809F54019024674
:1050E0000B464046494617F0D9FEADE6AFF30080C7
:1050F000FE822B654715F73F0000E0FE422EE63F9B
:10510000763C7935EF39EA3D0000E03F0000F03FA2
:105110000000E0BF00000000F8B5C1F30A530446E8
:105120000D460E4617460BBB21F00046034633439F
:105130001BD0354B002218F069F8344B9F420446CF
:105140000D4635DBC1F30A530E46363B3B4440F275
:10515000FE72934232DC002B11DD26F0FF4626F46E
:10516000E00646EA035520462946F8BD40F2FF72A4
:105170009342EBD102460B4617F092FEF8BD13F1B5
:10518000350F28DA4CF250339F4222462B460ADD77
:1051900019A1D1E900011AF077FE17A3D3E9002382
:1051A00018F034F8F8BD16A1D1E900011AF06CFE30
:1051B00013A3D3E9002318F029F8F8BD22462B46A3
:1051C0000DA1D1E900011AF05FFE0BA3D3E9002382
:1051D00018F01CF8F8BD26F0FF4626F4E00636333A
:1051E00046EA0355204629460022094B18F00EF8DE
:1051F000F8BD00BFAFF300809C7500883CE4377EAB
:1052000059F3F8C21F6EA50100005043B03CFFFFE8
:105210000000903C10B5054C237833B9044B13B112
:105220000448AFF300800123237010BDC0030020A9
:10523000000000009035030808B5034B1BB103497B
:105240000348AFF3008008BD00000000C403002045
:105250009035030870B504460E4600F043FA88B155
:105260000368DB6A05469847082C0CD0A4F10903B3
:10527000012B14D93246214610230D20BDE8704081
:1052800004F074B870BD2B6828465B6A9847022802
:10529000F0DC2B6828461B6A04219847EAE72B6854
:1052A00028465B6A98470528E4DC2B6828461B6A79
:1052B00008219847DEE700BF38B52DED028B054683
:1052C00000F010FA044640B10368DB6A9847032DEA
:1052D00003D8DFE805F02F363D06BDEC028B002039
:1052E00038BD20460DF0C0F907EE900A2046F8EED2
:1052F000E78A0DF0C7F907EE900A2046B8EEE78A74
:105300000DF0CEF968EE087A07EE100AE8EEA87AFA
:10531000B8EEC77AE7EE077AF5EE407AF1EE10FACA
:10532000B1EEE78A1BD4FDEEC87ABDEC028B17EE16
:10533000900A38BDBDEC028B2046BDE838400DF028
:1053400093B9BDEC028B2046BDE838400DF09AB908
:10535000BDEC028B2046BDE838400DF0A1B917EE38
:10536000900A19F0CBFBDEE738B5044600F0BAF935
:1053700058B10368DB6A0546984744B1012C04D153
:105380002846BDE83840FBF7DBBA002038BD284688
:10539000BDE83840FBF7B4BA10B5044600F0A2F9F6
:1053A00028B1036821461B6ABDE81040184710BDAC
:1053B0000048704716FCFFFF704700BF10B5034B55
:1053C000036004460CF04CFF204610BD6C1F030820
:1053D00010B5054B036004460CF042FF20461BF05D
:1053E00082F9204610BD00BF6C1F03082DE9F04173
:1053F0004FF0FF3184B00546462001F0D3FC682809
:105400000CBF33210321512001F0CCFCDFF8D0C2C6
:10541000A84B044604F00F06C4F3031714F4807479
:1054200008BF6346A44831463A460CF009F9221CED
:1054300018BF012231463B4628460FF065FD002388
:10544000AB609E480CF0FCF84FF0FF31032001F0F8
:10545000A9FC04F0E9FE4FF0FF310446022001F000
:10546000A1FC04F0E1FE002C39D0002837D0014621
:10547000204604F07DFB0646002849D0382146200E
:1054800001F090FC322804464BD048DD382800F06B
:10549000AC8068285BD14FF0FF31012001F082FC25
:1054A00004F0C2FE80465C201BF026F90523019320
:1054B0004246009431462B4607460EF09DFDAF60F4
:1054C0003B6838469B6A9847A8680368DB6A984738
:1054D0007B480CF0B5F8284604B0BDE8F081794867
:1054E0000CF0AEF84FF0FF31192001F05BFC04F036
:1054F0009BFE4FF0FF310446182001F053FC04F0EE
:1055000093FE0146204604F033FB06460028B5D141
:105510006D480CF095F8284604B0BDE8F0813028BD
:1055200015D14FF0FF31012001F03CFC04F07CFE6E
:10553000804650201BF0E0F8A4B2074605230193F3
:105540004246009431462B460EF000FBB7E701249B
:105550003268CDE900440023576AAB600F220DF199
:105560000F0332213046B847002800F081803368AD
:10557000CDE900440F225F6A30210DF10F03304660
:10558000B847002848D03368CDE900440D225F6A4F
:1055900038210DF10F033046B84700286ED032682D
:1055A000CDE900440DF10F03576A6821752230469A
:1055B000B847002842D1682144480CF041F84FF028
:1055C000FF31204601F0EEFB04F02EFE80465C2009
:1055D0001BF092F805246823CDE900344246314699
:1055E0002B4607460EF008FD69E74FF0FF3101201A
:1055F00001F0D8FB04F018FE804650201BF07CF828
:1056000005230746019342462B46009431460EF08F
:10561000D3FB2F4B3B6052E730212C480CF010F8A5
:1056200030244FF0FF31012001F0BCFB04F0FCFD01
:10563000804650201BF060F807467FE725480BF0B6
:10564000FFFFAF68002F7FF43BAF4FF0FF31032027
:1056500001F0A8FB04F0E8FD30B11F480BF0F0FFAB
:10566000284604B0BDE8F0811C480BF0E9FF52E782
:10567000322116480BF0E4FF3224D2E738211348D8
:105680000BF0DEFF4FF0FF31204601F08BFB04F002
:10569000CBFD804650201BF02FF805243823074609
:1056A000CDE9003442462B4631460EF085FB084BCF
:1056B0003B6004E724100308341003085410030867
:1056C000141103086410030878100308A4100308D9
:1056D000F00F030890100308B8100308F410030833
:1056E0002C10030838B5104C23680BB1986838BDEE
:1056F0004FF0FF31012001F055FB04F095FD40B162
:105700000C201AF0F9FF0546FFF770FE2560A86827
:1057100038BD4FF0FF31032001F044FB04F084FD5D
:105720000028EDD138BD00BFDC03002008B501F032
:105730006BFCFBF795FEBDE8084001F0C5B900BF62
:1057400008B501F061FCFBF7FBFEBDE8084001F085
:10575000BBB900BF08B501F057FC18F08DFBBDE8E0
:10576000084001F0B1B900BF08B501F04DFC19F0D7
:1057700001F9BDE8084001F0A7B900BF08B501F084
:1057800043FCFBF77DFEBDE8084001F09DB900BF7A
:1057900008B501F039FC18F09DFDBDE8084001F0A6
:1057A00093B900BF08B501F02FFCFBF7E9F8BDE89D
:1057B000084001F089B900BF08B501F025FC18F0D8
:1057C000DFFCBDE8084001F07FB900BF70B5049E62
:1057D00096420C4624DB15466BB9042A19D0022ADE
:1057E00002D110F0010310D001462A46204608F0ED
:1057F00061FB002070BD10440D4410F8013D01F81C
:10580000013B8D42F9D1002070BD02880A80184604
:1058100070BD10F00303E7D102680A60184670BD3E
:105820000846002109F0D8FC4FF0FF3070BD00BFE2
:105830000830704740B1002905DB43688B4202DD28
:105840000844007A70470020704700BF30B100293B
:1058500004DB43688B42C4BF40180272704700BF2C
:1058600040B1002905DB4368994202DA0844007A16
:1058700070470020704700BF830704D1030F0CBF9F
:105880000120002070470120704700BF30B100297F
:1058900004DB43689942BCBF40180272704700BFE6
:1058A000F8B5002B20DB00291EDB46688E421BDB8F
:1058B0005468761AE51AB542A8BF3546002D13DBA9
:1058C000824202F108070C4600F108062A4605D07C
:1058D000F918301908F0EEFA0020F8BDF11838195F
:1058E0001AF03DFF0020F8BD4FF0FF30F8BD00BFBB
:1058F0004068704710B4141E10DB4268A2420DDBF2
:1059000033EA230328BF1346121B08309A4220446F
:10591000A8BF1A465DF8044B09F05EBC5DF8044B65
:10592000704700BF10B443688B4200F1080418466A
:10593000A8BF084632EA220128BF19461B1A99421D
:105940002044A8BF19465DF8044B00F0B5BE00BF67
:1059500070B5002BBCBF43689B1A002A0E4620DBA3
:1059600044689918A1421CDC91421ADBCBB136F095
:10597000004116D05942B14214DAB34212DD083068
:10598000002E00EB020515DB9C1B2246A9192846B8
:105990001AF0E5FE324628190021BDE8704009F0F2
:1059A0001BBC70BD002211464FF0FF33BDE87040B4
:1059B000FFF7A0BF74429A19294628191AF0CFFEA2
:1059C000224628460021BDE8704009F005BC00BF12
:1059D00003460830596800F0EBBD00BF70B50546BE
:1059E00000206968490000F069FD6B68002B14DD38
:1059F0000A4EEB1D02465C782411991F345D9471A8
:105A00005C7804F00F04491B345DD4716C688C42DF
:105A100002F1020203F10103EDDC70BD2411030861
:105A2000002BBCBF43689B1A002A30DB70B445686A
:105A30009C18AC4229DC944227DB33B331F000449C
:105A400023D00029B8BF01EB032191FBF3F403FB42
:105A50001411002900F10800B8BFC918024411440C
:105A60008A42134411D00C4604E08A4204460FD007
:105A700094420AD02046157810F8016B02F8016BA9
:105A800083422570F1D10C46F2E770BC7047704735
:105A90000146EDE700B583B04FF0FF3300930023DC
:105AA000FFF7FEFE03B05DF804FB00BF10B50C1E4F
:105AB0000EDD4168083002F0CFF81F2C07DC01230F
:105AC000A34020FA04F4013B444004EA030010BD63
:105AD000002010BD0146002000F0EEBD38B50021C9
