:020000040002F8
:10600000000004207DB90300A5B90300A7B903006F
:10601000A9B90300ABB90300ADB90300000000004B
:10602000000000000000000000000000AFB9030005
:10603000B1B9030000000000B3B90300B5B9030013
:10604000B7B9030019AB03001DB80300E1B70300A3
:10605000F5B70300B7B903001DA60300B7B90300E5
:1060600071B4030079B4030081B40300B7B903002D
:10607000B7B90300B7B90300B7B90300B7B9030054
:10608000B7B90300B7B90300B7B90300B7B9030044
:10609000B7B90300B7B90300B7B90300B7B9030034
:1060A000B7B90300B7B9030089B4030091B4030082
:1060B000B7B90300B7B903000000000000000000FA
:1060C000B7B90300B7B90300B7B9030009B80300B3
:1060D000B7B90300B7B90300B7B90300B7B90300F4
:1060E00045B80300B7B90300B7B9030000000000CA
:1060F00000000000B7B903000000000031B8030041
:10610000000000000000000000000000000000008F
:10611000000000000000000000000000000000007F
:10612000000000000000000000000000000000006F
:10613000000000000000000000000000000000005F
:10614000000000000000000000000000000000004F
:10615000000000000000000000000000000000003F
:10616000000000000000000000000000000000002F
:10617000000000000000000000000000000000001F
:10618000000000000000000000000000000000000F
:1061900000000000000000000000000000000000FF
:1061A00000000000000000000000000000000000EF
:1061B00000000000000000000000000000000000DF
:1061C00000000000000000000000000000000000CF
:1061D00000000000000000000000000000000000BF
:1061E00000000000000000000000000000000000AF
:1061F000000000000000000000000000000000009F
:106200007CB0EE877CB0EE87FF00FF00FF00FF0050
:10621000FF00FF00FF00FF00FF00FF00FF00FF0086
:10622000FF00FF00FF00FF00FF00FF00FF00FF0076
:10623000FF00FF00FF00FF002DE9F04F85B0039144
:106240000778A7F10903042B044607F07F0200F149
:106250000100F5D9202AF3D02B2F04BF677804461C
:106260002D2F75D09FED427B8DED007B4FF0000808
:106270004FF000099FB34FF0000C25464FF0000A85
:10628000DFF8FCB0644619E018F03AF88046894619
:10629000304617F0CBFF42464B4617F07BFE524686
:1062A000804689465B46DDE900013CB318F052F9AF
:1062B000CDE90001A44615F8017F7FB1A7F13006B2
:1062C000092E52465B4640464946DDD9CCB92E2FB1
:1062D00017D115F8017F0124002FEFD12C4642463B
:1062E0004B46DDE9000118F00BF880468946039B18
:1062F000404649461C6005B0BDE8F08F4FF0010CE8
:10630000D9E72C46BCF1000F29D042464B46DDE9C7
:10631000000117F0F5FF07F0DF07452F804689469B
:10632000E5D10399681C0A2217F018FE14490246A9
:10633000002018F095FB02460B464046494617F0F0
:10634000DFFF804689464046494605B0BDE8F08FEC
:106350009FED097B67788DED007B013486E7DFF8E0
:1063600024904FF000084046494605B0BDE8F08F44
:10637000000000000000F03F000000000000F0BF3F
:10638000000024400000F87F2DE9F0470023144668
:1063900000228046894618F025FA28B109F1004309
:1063A00099462D232370013400220023404649469C
:1063B00018F00EFA28B13022002322706370BDE875
:1063C000F0874046494616F00DFB18F049FA73A3D2
:1063D000D3E9002307464946404618F003FA00284F
:1063E0004ED170A3D3E900234046494618F018FA6D
:1063F000002845D10E2F07F1010540F3B980A7F120
:106400000E0632460020624918F02AFB02460B466F
:106410004046494618F09EF800225E4B17F0BAFD40
:1064200018F05AFB002DA7F10F0E4FF0010C4DDDB7
:10643000594FDFF87881012245F6F3294FF02E0AF3
:10644000494508BF40454FF030030AD3B0EB080080
:1064500061EB0901494508BF404503F10103F5D24D
:10646000DBB2237050EA010304F101084AD19542DE
:1064700052DD0132102A4FD0444677E90289DFE726
:10648000002F33DB3A460020414918F0E9FA024672
:106490000B464046494618F05DF83BA3D3E900237C
:1064A00080468946012500264046494617F028FFC8
:1064B0000022384B17F06EFD18F00EFB002DBC4685
:1064C0004FF0FF3E37464FF00006B1DC2346302246
:1064D0004FF02E0803F8022B84F80180FC4345D0CE
:1064E0001C4403F8012BA342FBD1A1E77A42002010
:1064F000274918F0B5FA02460B464046494617F0C0
:10650000FFFECAE7954202F1010204BF84F801A030
:1065100004F10208102AAFD16EB14246302102F8D0
:10652000011BC2F1010373444344002BF7DC2EEA44
:10653000EE7301339844BCF1010F12D0BCF1000F8F
:106540004FF0650388F80030C5BF2B2388F8013071
:1065500008F1010108F102016046BDE8F0470FF0C3
:1065600087BE002388F80030BDE8F0871C465FE74F
:10657000C7F10E020020064918F072FA3E460246A4
:106580000B46012790E700BF0000901EC4BCD64216
:10659000000024400000E03F00F603008DEDB5A0B0
:1065A000F7C6B03E50EFE2D6E41A4B4400407A10F2
:1065B00070B54FF0FF3006F017FA04466FF07F40D9
:1065C00006F012FA0646204617F020FE00220C4B79
:1065D00017F096FE044630460D4617F017FE06A348
:1065E000D3E9002317F0B6FF02460B4620462946A2
:1065F00017F0D0FC70BD00BF0000E0DFFFFF6F436D
:106600000000F03D000000002DE9F04F1D46138909
:10661000AB4288BF536885B004468CBF53F8250051
:10662000002090468A4606F053FE0022904B17F059
:1066300067FE18F015F9B8F808206B1C9A4288BF5D
:10664000D8F8042006468CBF52F82300002006F03C
:106650003FFE0022864B17F053FE18F001F9B8F800
:1066600008300235AB4288BFD8F8043007468CBFEB
:1066700053F82500002006F02BFE002EC4E9006729
:1066800040F3E280002F40F3DF8071A3D3E90023C1
:10669000002584F8285016F0C7F800220023804611
:1066A000894618F09FF840B14046494668A3D3E9AF
:1066B000002317F06FFC8046894667A3D3E90023C7
:1066C0004046494618F0ACF8C0B165A3D3E90023B1
:1066D0004046494618F090F880B1012340464946AB
:1066E00084F8283060A3D3E9002317F053FC58A3A3
:1066F000D3E9002316F098F88046894600225D4BC6
:106700004046494617F0FCFD15F0C2FD01F100437B
:1067100000221946564B17F0F3FD18F0A1F8494630
:106720000546404615F070FD0022514B17F0E8FD7C
:1067300018F096F8DAF804304F49B3F80CB0B3F813
:106740000AA0A56007FB0BF303EB010806FB0AF6A2
:10675000019388FB05234FEA124C00960E444CEA45
:10676000034C06EA010383FB009A06EB0C0E0EEACB
:10677000010ED346CA468EFB00675246CDE902673A
:10678000120C42EA0B42DDE902AB0CEA010C8CFB75
:1067900000674FEA164956460A40360C46EA0B4651
:1067A00049EA074982FB05AB5F46C144B0445646FF
:1067B000CDE90267039FE060360C09EA010908EAA7
:1067C000010846EA074689FB05AB334488FB0556BA
:1067D000CDE9025655462D0C45EA0B45DDE902ABE5
:1067E0000B40AC4403EAE3770CEA010C554623EA7C
:1067F000E37367454FEA154502EAE276A8BF6746AC
:1068000045EA0B45634522EAE272B8BF6346AE44EF
:106810004E450EEA010EA8BF4E464A45B8BF4A464D
:106820007745A8BF77467345B8BF73464645A8BFAE
:106830004646C4E905634245B8BF424600980199FF
:10684000206261622761E261204605B0BDE8F08FF9
:10685000EA2E4454FB211940F4D64354FB21F93F5E
:10686000320D337F7CD91240EA2E4454FB2109407B
:106870000000F0400000E03F0000FFFF00000000CB
:1068800008B510F0BDFFDFED0C7A07EE100A67EED9
:10689000277A17EE900A17F0DBFC05A3D3E9002353
:1068A00017F058FE17F0DCFF08BD00BFAFF3008003
:1068B000EA2E4454FB2119400000B44300000000BC
:1068C00008B510F0B1FFDFED0C7A07EE100A67EEA5
:1068D000277A17EE900A17F0BBFC05A3D3E9002333
:1068E00017F038FE17F0BCFF08BD00BFAFF3008003
:1068F000EA2E4454FB2119400000B443000000007C
:10690000494A21F0004393422DE9704304460D4665
:1069100049DC464A93420E460EDC3FA3D3E90023EE
:1069200017F038FB0022424B17F07AFF00284AD0BC
:1069300020462946BDE870833E4A934239DCB3F1D4
:10694000804F40DD15F05CFC2246804689462B4690
:106950002046294617F0D4FC0022354B17F01AFBCD
:1069600016F0EAFA42464B4617F014FB02460B4675
:1069700000202F4917F0EEFD424604460D464B46D7
:106980004046494617F006FB02460B46204629467C
:1069900017F000FB02F040F8002E08DC01F1004384
:1069A0001946BDE8708302460B4617F0F3FABDE8BE
:1069B000708315F025FC02F02FF819A3D3E900230A
:1069C00017F0E8FAE8E722462B462046294617F05A
:1069D00097FC804689462046294615F011FC002286
:1069E00004460D46124B4046494617F0D3FA16F0BE
:1069F000A3FA00220E4B17F0CDFA02460B46404692
:106A0000494617F0A7FD22462B4617F0C3FA00F0BF
:106A1000A7FAC1E7AFF300809C7500883CE4377E9D
:106A2000EF39FAFE422EE63FFFFFEF7FFFFF2F3EDA
:106A30000000F03F0000B0412DE9F84FBE4B21F0BF
:106A400000469E4204460D468A460EDDBB4B9E42E2
:106A500000F3B18000F0AC80BAF1000F40F3EA809F
:106A600099A1D1E90001BDE8F88FB54B9E4200F332
:106A7000BA80A3F1DE739E4240F3A5804FF0FF3B46
:106A800022462B462046294617F03AFC02460B4682
:106A90008046894617F034FC8DA3D3E900230646CF
:106AA0000F4617F02DFC8CA3D3E9002317F072FAE0
:106AB00032463B4617F024FC89A3D3E9002317F0A4
:106AC00069FA32463B4617F01BFC87A3D3E9002343
:106AD00017F060FA32463B4617F012FC84A3D3E964
:106AE000002317F057FA32463B4617F009FC82A301
:106AF000D3E9002317F04EFA42464B4617F000FC4C
:106B00007FA3D3E90023804689463046394617F0F3
:106B1000F7FB7DA3D3E9002317F03AFA32463B4650
:106B200017F0EEFB7AA3D3E9002317F031FA3246CF
:106B30003B4617F0E5FB78A3D3E9002317F028FACA
:106B400032463B4617F0DCFB75A3D3E9002317F070
:106B50001FFA32463B4617F0D3FB02460B4640462F
:106B6000494617F017FA22462B4617F0C9FBBBF12E
:106B7000FF3F02460B4661D0724B734E4FEACB0B80
:106B80005B44D3E9002317F003FA22462B4617F0A3
:106B9000FFF9B34402460B46DBE9000117F0F8F9B0
:106BA000BAF1000F0DDA01F100431946BDE8F88F84
:106BB00000283FF451AF22462B462046294617F0C5
:106BC000E9F9BDE8F88F58A3D3E9002317F0E2F9FB
:106BD00000225E4B17F024FE00283FF44FAF204602
:106BE0002946BDE8F88F15F00BFB594B9E42044631
:106BF0000D4629DCA3F550239E424EDC02460B468F
:106C000017F0C8F90022514B17F0C2F900220646CE
:106C10000F464FF080432046294617F0BBF9024645
:106C20000B463046394617F095FC4FF0000B0446F2
:106C30000D4625E73EA1D1E90001C2E720462946DD
:106C400017F0A6F9BDE8F88F424B9E421ADC0022ED
:106C5000414B17F09DF9002206460F463E4B204659
:106C6000294617F04DFB0022384B17F093F90246E6
:106C70000B463046394617F06DFC4FF0020B0446C8
:106C80000D46FDE602460B460020344917F062FC33
:106C90004FF0030B04460D46F2E600222B4B17F093
:106CA00077F9002206460F46284B2046294617F062
:106CB00071F902460B463046394617F04BFC4FF04F
:106CC000010B04460D46DBE6182D4454FB21F93F29
:106CD00011DA22E33AAD903FEB0D76244B7BA93FCE
:106CE000513DD0A0660DB13F6E204CC5CD45B73F9C
:106CF000FF8300922449C23F0D5555555555D53F48
:106D00002F6C6A2C44B4A2BF9AFDDE522DDEAD3F3B
:106D10006D9A74AFF2B0B33F711623FEC671BC3FDB
:106D2000C4EB98999999C93F9C7500883CE4377EDB
:106D3000182D4454FB21F9BFFFFF0F440000F07FE2
:106D4000FFFFDB3F28F6030008F603000000F03FDA
:106D5000FFFFF23FFF7F03400000F83F0000F0BF5D
:106D60002DE9F041C1F30A57A7F2FF35132D024672
:106D70000B460C468846064620DC002D4ADB364F83
:106D80002F4101EA070C5CEA000C1CD030A3D3E9C8
:106D9000002317F0FFF80022002317F041FD48B14F
:106DA000002C04DD4FF4801343FA05F5A84428EACB
:106DB0000704002621463046BDE8F081332D06DD6C
:106DC000B5F5806F38D010461946BDE8F081A7F2BE
:106DD00013474FF0FF3C2CFA07F70742F3D01CA3F0
:106DE000D3E9002317F0D6F80022002317F018FD8E
:106DF0000028DFD0002C09DD142D22D00123C5F19D
:106E0000340503FA05F5AE1928BF984426EA0706AB
:106E10004446CFE70EA3D3E9002317F0BBF80022C6
:106E2000002317F0FDFC0028C4D0002C0CDB264307
:106E300005D00026094CBDE717F0ACF8C5E734468D
:106E4000B8E704F10108E1E700264FF00044B1E79C
:106E50009C7500883CE4377EFFFF0F000000F03F88
:106E60002DE9F041C1F30A57A7F2FF35132D024671
:106E70000B460C46884606461DDC002D3CDB364F93
:106E80002F4101EA070C5CEA000C19D030A3D3E9CA
:106E9000002317F07FF80022002317F0C1FCC8B3CD
:106EA000002C04DA4FF4801343FA05F5A84428EACD
:106EB000070400262EE0332D06DDB5F5806F2DD0BA
:106EC00010461946BDE8F081A7F213474FF0FF3C8A
:106ED0002CFA07F70742F3D01DA3D3E9002317F0DC
:106EE00059F80022002317F09BFC98B1002C21DBFD
:106EF00026EA070644460DE015A3D3E9002317F060
:106F000049F80022002317F08BFC18B1002C08DB95
:106F10000026344621463046BDE8F08117F03AF8A5
:106F2000D0E724F000430D4A1E43002E18BF14463C
:106F30000026EFE7142D08D00123C5F1340503FA2C
:106F400005F5AE1928BF9844D2E704F10108CFE750
:106F50009C7500883CE4377EFFFF0F000000F0BF07
:106F60002DE9F04FD84B994287B08046894643DDE2
:106F7000D64B99420E4600F3F480D54B994240F32C
:106F80002D819FEDBB7B8DED047B4FEA215A04469A
:106F9000AAF2FF3ACF4BC6F313069E4246F07F5546
:106FA00000F3128145F44015204629460022CA4BC1
:106FB00016F0EEFF002204460D46C84B17F0A0F96C
:106FC00022462B4617F09CF9A046CDE90201A946BE
:106FD000CDE90001002E3AD10022002320462946A7
:106FE00017F0F6FB002800F01B81BAF1000F40F00B
:106FF000858100200021B8E0B94B21F000449C427B
:107000000A460FDD0022B74B17F0E2FB002800F024
:10701000AF80002200230020B34917F09BFA07B08D
:10702000BDE8F08FB14B9C4240F3AF80B04B1A44A7
:107030009A4240F2D3800022A84B17F061F94246F1
:107040004B4617F05DF9CDE900014FF0000A002230
:107050004FF080434046494616F09CFF02460B46DF
:107060004046494617F076FA02460B4606460F465A
:1070700017F046F980A3D3E9002304460D4617F024
:107080003FF97FA3D3E9002316F084FF22462B4665
:1070900017F036F97CA3D3E9002316F07BFF2246D4
:1070A0002B4617F02DF97AA3D3E9002316F072FFCF
:1070B00022462B4617F024F977A3D3E9002316F0D4
:1070C00069FF22462B4617F01BF975A3D3E900236D
:1070D00016F060FF22462B4617F012F972A3D3E98F
:1070E000002316F057FF22462B4617F009F9DDE979
:1070F000002316F04FFF32463B4617F001F90446D5
:107100000D46BAF1000F00F0A880504617F08EF837
:1071100067A3D3E9002382468B4617F0F1F866A3F4
:10712000D3E9002306460F465046594617F0E8F8C3
:10713000DDE9042316F02EFF22462B4616F02AFF27
:1071400002460B46DDE9000116F022FF42464B469F
:1071500016F01EFF02460B463046394616F018FF61
:1071600003E002460B4616F015FF07B0BDE8F08FAE
:1071700042464B464046494616F00AFF02460B4639
:1071800017F0E8F907B0BDE8F08F0022594B16F070
:1071900001FF0022002317F043FB10B1564B9C4225
:1071A00062DD42464B464046494617F0A9F80022A8
:1071B0004A4B17F0A5F802460B464046494616F0E2
:1071C000E7FE07B0BDE8F08F45F40015C6F5801660
:1071D00020462946B6100AF1010AE7E600223E4B96
:1071E0004046494616F0D6FE4FEA215AAAF2FF3A27
:1071F000BAF1000F04460D460E4640F3BD804246EC
:107200004B4616F0C5FE02460B460020324916F0EA
:10721000BFFE22462B4617F09DF9CDE90401B9E6E1
:1072200027A3D3E900232046294617F069F8024630
:107230000B460020284916F0ABFEDDE9022317F0CB
:107240005FF806460F46BAF1000F75D102460B46AD
:107250002046294616F09CFE87E702460B46DDE9EC
:10726000000116F095FEA6E7404649467DE700BFBF
:10727000000000000000000044523EDF12F1C23F57
:107280009FC678D0099AC33FDE03CB966446C73FBA
:10729000AF788E1DC571CC3F599322942449D23FBB
:1072A00004FA97999999D93F935555555555E53F06
:1072B0000000E0FE422EE63F763C7935EF39EA3DAC
:1072C000555555555555E53F7982DA3FFFFFEF7F1C
:1072D000FFFF3F439DA006000000F03F0000E03F9D
:1072E000FFFFEF3F0000F0BF000050C3FFFF1F3E55
:1072F0003C412D4000005043FFFF8F3C504616F0AC
:1073000095FF24A3D3E9002306460F4616F0F8FFA5
:10731000DDE9042316F03EFE20A3D3E90023044652
:107320000D463046394616F0EBFF02460B46204626
:10733000294616F02FFE18E7504616F077FF17A3E0
:10734000D3E9002382468B4616F0DAFF11A3D3E976
:107350000023804689465046594616F0D1FFDDE9A4
:10736000042316F017FE02460B463046394616F047
:107370000FFE22462B4674E70022054B16F008FE4E
:1073800002460B464046494616F002FE41E700BF62
:107390000000F03F763C7935EF39EA3D0000E0FE31
:1073A000422EE63F0000000008B515F09DFA04A348
:1073B000D3E9002317F0CEF808BD00BFAFF300807B
:1073C000EF39FAFE422EE63F2DE9F043DFF8B480B4
:1073D0008BB004460D4601F0F7F898F90030013300
:1073E00006460F462CD022462B462046294617F04B
:1073F00021FA814620BB2046294614F001FF1FA335
:10740000D3E9002317F00CFAD0B1194A98F90030EB
:10741000CDF820900321CDE90445CDE90245CDE921
:10742000001293B113490020022BCDE9060111D1BE
:1074300016F03CFD22230360089B9BB9DDE906673B
:10744000304639460BB0BDE8F0830B4B4FF060423D
:10745000CDE90623684616F0A5FB0028E8D0089B76
:10746000002BEBD016F022FD089B0360E6E700BF7F
:10747000E00704000000F07FFFFFEF477DF8B98FC1
:10748000CE338640FB8100202DE9F043DFF8E48015
:107490008BB004460D4601F047F998F900300133EE
:1074A00006460F4633D02046294616F075FB70B3CA
:1074B0002CA3D3E900232046294617F0B1F98146D1
:1074C00050BB2AA3D3E900232046294617F08AF9A6
:1074D000E8B198F90030204ACDF820900020002132
:1074E0000426022BCDE90445CDE902450096CDE9FD
:1074F0000601019229D0684616F054FB28B3089B78
:107500001BB116F0D3FC089B0360DDE9066730462B
:1075100039460BB0BDE8F0830F4A98F9003001926C
:1075200003210022CDE90445CDE9024500910892EE
:107530002BB90A4B4FF06042CDE90623DBE708493F
:107540000020022BCDE90601D5D116F0AFFC222395
:107550000360D4E7AFF30080E8070400FFFFEF47C4
:107560000000F07FEF39FAFE422E864051302DD5D3
:10757000104987C0FB8100202DE9F04FDFF82C93E4
:107580008DB006460F4614461D4601F09DFC99F944
:107590000080B8F1FF3FCDE9000136D022462B46EE
:1075A0002046294617F046F9834670BB32463B46D3
:1075B0003046394617F03EF98246002840F0A28056
:1075C000304639460022002317F002F910B300229A
:1075D00000232046294617F0FBF88346002867D091
:1075E0009FEDA77B0122AC4BCDF828A00292CDE9FC
:1075F0000467CDE906458DED087B0393B8F1000FD4
:1076000041D09FEDA17B8DED007BDDE900010DB048
:10761000BDE8F08FDDE9000116F0BEFA80460028D3
:1076200000F08D804FF0000A4FF0000BDDE9000103
:1076300052465B4617F0CCF80028E6D03046394673
:1076400016F0AAFA0028E0D02046294616F0A4FA3F
:107650000028DAD099F900308F4A039204210022E1
:10766000022BCDE90467CDE90645CDE908AB0291CF
:107670000A9203D002A816F095FA50B916F016FC3B
:107680002223036005E002A816F08CFA002800F01F
:107690009B800A9B1BB116F009FC0A9B03609DEDC1
:1076A000087B8DED007BDDE900010DB0BDE8F08FBA
:1076B0002046294616F070FA0028A6D000220023A2
:1076C0002046294617F08EF800289ED0724A99F974
:1076D0000030CDF828B00121CDE90467CDE9064599
:1076E000CDE90212002B74D06C490020022BCDE9A9
:1076F000080172D116F0DAFB212303600A9B002BEC
:10770000CDD0C8E7002200232046294617F060F8B4
:1077100000283FF47AAF624B5F49CDF828B00022D1
:107720000120B8F1020FCDE904670290CDE90645CA
:10773000CDE908230391A6D1CDE9002365E73046C2
:10774000394616F029FA00283FF46CAF2046294646
:1077500016F022FA00283FF465AFDDE90023104659
:10776000194617F067F899F900A000286BD1032398
:10777000DFF824C10A902946204602930022494B93
:10778000CDF80CC0CDE90645CDE9046716F0B8FD8B
:1077900004460D46BAF1000F25D1DFF814B14FF0C1
:1077A000604A0022002330463946CDE908AB17F085
:1077B00019F838BB02A816F0F5F900289ED116F08A
:1077C00075FB2223036099E716F070FB2123036009
:1077D0005FE79FED2B7B8DED087B02A816F0E2F9A9
:1077E00000288BD186E79FED2A7B002200233046BC
:1077F00039468DED087B16F0F5FFA0B9BAF1020FFE
:10780000DDD0D7E72046294616F0D4F922462B468C
:1078100016F0DEFFA0B9244B99F900A04FF06042AA
:10782000CDE90823EAE72046294616F0C3F92246A7
:107830002B4616F0CDFF18B9184B0022CDE90823CE
:1078400099F900A0DAE70122134BCDF828800292C3
:10785000CDE90467CDE906450393BAF1000FB8D02E
:10786000002200231046194616F074FEBAF1020FEA
:10787000CDE908013FF43EAFAFE700BFAFF30080B2
:107880000000000000000000000000000000F03FC9
:10789000000000000000F07F000804000000F0FF7E
:1078A0000000F03F0000E03FFFFFEFC7FB8100203A
:1078B000FFFFEF47000000002DE9F84FC44E21F014
:1078C0000043B34204460D460DDD03F1404303F58A
:1078D0008013034340F0B980002940F34081002029
:1078E0000021BDE8F88FBB4EB34208DCBA4A934290
:1078F00000F3B5809CA1D1E90001BDE8F88F002913
:10790000C0F2708102460B460020B44916F040FBDD
:107910000022B34B16F0F4FC04460D4615F00CFBA8
:1079200093A3D3E90023894680462946204616F0D2
:10793000E7FC91A3D3E9002316F02CFB22462B464B
:1079400016F0DEFC8EA3D3E9002316F021FB2246BD
:107950002B4616F0D5FC8CA3D3E9002316F01AFBB6
:1079600022462B4616F0CCFC89A3D3E9002316F05F
:107970000FFB22462B4616F0C3FC87A3D3E9002356
:1079800016F008FB22462B4616F0BAFC84A3D3E976
:10799000002382468B462046294616F0B1FC82A37E
:1079A000D3E9002316F0F4FA22462B4616F0A8FC81
:1079B0007FA3D3E9002316F0EDFA22462B4616F0FA
:1079C0009FFC7DA3D3E9002316F0E2FA22462B4662
:1079D00016F096FC0022814B16F0DCFA02460B46AC
:1079E0005046594616F0B6FD42464B4616F088FC06
:1079F000002682468B4632464B463046494616F0B4
:107A00007FFC02460B462046294616F0C1FA324654
:107A100004460D464B464046494616F0BBFA024620
:107A20000B462046294616F095FD02460B46504669
:107A3000594616F0AFFA32464B4616F0ABFA0246FC
:107A40000B4616F0A7FABDE8F88F02460B4616F073
:107A50009FFA02460B4616F07DFDBDE8F88F024600
:107A60000B4616F04DFC42A3D3E9002306460F4611
:107A700016F046FC40A3D3E9002316F08BFA3246F9
:107A80003B4616F03DFC3EA3D3E9002316F080FAF6
:107A900032463B4616F034FC3BA3D3E9002316F0F4
:107AA00079FA32463B4616F02BFC39A3D3E9002382
:107AB00016F06EFA32463B4616F022FC36A3D3E9A6
:107AC000002316F067FA32463B4616F019FC34A341
:107AD000D3E90023804689463046394616F010FC2B
:107AE00031A3D3E9002316F053FA32463B4616F091
:107AF00007FC2FA3D3E9002316F04CFA32463B468D
:107B000016F0FEFB2CA3D3E9002316F041FA32460F
:107B10003B4616F0F5FB0022304B16F03BFA0246CE
:107B20000B464046494616F015FD22462B4616F0F8
:107B3000E7FB02460B4622A1D1E9000116F028FA24
:107B400002460B462046294616F022FA02460B460C
:107B500005A1D1E9000116F01BFABDE8F88F1AA1C2
:107B6000D1E9000179E700BF182D4454FB21F93F0A
:107B700009F7FD0DE13D023F88B20175E0EF493F95
:107B80003B8F68B52882A43F5544880E55C1C93F34
:107B90007D6FEB0312D6D43F555555555555C53F0E
:107BA00082922EB1C5B8B33F59018D1B6C06E63FDA
:107BB000C88A599CE52A00404B2D8A1C273A03406D
:107BC000075C143326A6913C182D4454FB21094030
:107BD000FFFFEF3FFFFFDF3F0000603C0000F03F92
:107BE0000000E03F00225C4B16F0D4F900225B4B12
:107BF00016F086FB40A3D3E9002304460D4616F099
:107C00007FFB3FA3D3E9002316F0C4F922462B469D
:107C100016F076FB3CA3D3E9002316F0B9F922460F
:107C20002B4616F06DFB3AA3D3E9002316F0B2F908
:107C300022462B4616F064FB37A3D3E9002316F047
:107C4000A7F922462B4616F05BFB35A3D3E90023A8
:107C500016F0A0F922462B4616F052FB80468946C4
:107C60002046294615F068F92FA3D3E900230646DC
:107C70000F462046294616F043FB2DA3D3E90023E7
:107C800016F086F922462B4616F03AFB2AA3D3E9D2
:107C9000002316F07FF922462B4616F031FB28A36D
:107CA000D3E9002316F074F922462B4616F028FB80
:107CB0000022294B16F06EF902460B464046494613
:107CC00016F048FC32463B4616F01AFB1EA3D3E9D9
:107CD000002316F05DF932463B4616F05BF902468A
:107CE0000B4616F057F902460B4619A1D1E90001DF
:107CF00016F04EF9B1E600BF09F7FD0DE13D023F78
:107D000088B20175E0EF493F3B8F68B52882A43FF8
:107D10005544880E55C1C93F7D6FEB0312D6D43F41
:107D2000555555555555C53F82922EB1C5B8B33FEF
:107D300059018D1B6C06E63FC88A599CE52A004014
:107D40004B2D8A1C273A0340075C143326A6913C2E
:107D5000182D4454FB2109400000F03F0000E03F93
:107D6000414A91422DE9F84304460D4637DD3F4A2A
:107D700091420B4608DD02F1795291423DDD024607
:107D800016F008F9BDE8F88301F1404202F58012CF
:107D900002432ED0B1F1804F37DC0022344B16F075
:107DA000F7F802460B4604460D4616F0F3F8224655
:107DB00006460F462B462046294616F0A1FA0246F3
:107DC0000B463046394616F0E5F815F0B5F8224670
:107DD0002B4616F0DFF8BDE8F843FFF7C1B80246BE
:107DE0000B4616F0D5F802460B4616F0B3FBBDE87D
:107DF000F88300200021BDE8F88300F00DFE18A3F1
:107E0000D3E9002316F0C6F8F1E7024616F078FA37
:107E10000022174B16F0BCF815F08EF8224680466B
:107E200089462B462046294616F0B4F822460646D7
:107E30000F462B464046494616F0ACF802460B4624
:107E400000200B4916F086FB0B46024639463046A9
:107E500016F09EF8BDE8F84300F0DEBDAFF30080F9
:107E6000EF39FAFE422EE63FFFFFEF3FFFFFAF4143
:107E70000000F03F000000002DE9F04FAE4B21F074
:107E800000479F4287B004460D4611DD07F1404789
:107E900007F5801703463B4321D002460B4616F0F8
:107EA00077F802460B4616F055FB07B0BDE8F08F99
:107EB000A24B9F420E4629DCB7F1795F80F24681E2
:107EC00081A3D3E9002316F065F800229C4B16F03D
:107ED000A7FCD8B12046294607B0BDE8F08F7CA3A7
:107EE000D3E9002316F00CFA7BA3D3E9002306465E
:107EF0000F462046294616F003FA02460B46304646
:107F0000394616F047F807B0BDE8F08F20462946FD
:107F100014F076F902460B460020894916F038F82D
:107F20000022884B16F0ECF96DA3D3E90023044638
:107F30000D4616F0E5F96CA3D3E9002316F02AF8F4
:107F400022462B4616F0DCF969A3D3E9002316F08C
:107F50001FF822462B4616F0D3F967A3D3E9002376
:107F600016F018F822462B4616F0CAF964A3D3E996
:107F7000002316F00DF822462B4616F0C1F962A335
:107F8000D3E9002316F006F822462B4616F0B8F97E
:107F90005FA3D3E90023CDE900012046294616F06E
:107FA000AFF95DA3D3E9002315F0F2FF22462B467B
:107FB00016F0A6F95AA3D3E9002315F0EBFF2246E9
:107FC0002B4616F09DF958A3D3E9002315F0E0FFE6
:107FD00022462B4616F094F9594B002215F0DAFF91
:107FE00082468B4620462946CDE902AB14F0A4FF19
:107FF000554B9F428046894600F3198102460B4645
:1080000015F0C8FFDDE90223CDE90401DDE9000137
:1080100016F0A0FA02460B46DDE9040116F070F9ED
:108020004FF0000ACDE9000152464B465046494602
:1080300016F066F902460B462046294615F0A8FFC1
:10804000524604460D464B464046494615F0A2FFAF
:1080500002460B462046294616F07CFA02460B469D
:1080600015F098FF02460B461BA1D1E9000115F05F
:108070008FFF02460B46DDE9000115F089FF5246ED
:1080800004460D464B465046494615F083FF0246CE
:108090000B4627A1D1E9000115F07AFF02460B46F5
:1080A0002046294615F074FF02460B4620A1D1E96F
:1080B000000115F06DFF002E3FF7F7AE01F1004310
:1080C0001946F2E6AFF300809C7500883CE4377EE9
:1080D000182D4454FB21F93F075C143326A6913C2C
:1080E00009F7FD0DE13D023F88B20175E0EF493F20
:1080F0003B8F68B52882A43F5544880E55C1C93FBF
:108100007D6FEB0312D6D43F555555555555C53F98
:1081100082922EB1C5B8B33F59018D1B6C06E63F64
:10812000C88A599CE52A00404B2D8A1C273A0340F7
:10813000182D4454FB21E93FFFFFEF3FFFFFDF3FD6
:108140000000F03F0000E03F3233EF3F02460B46B5
:1081500016F0D6F84BA3D3E9002306460F4616F0D7
:10816000CFF84AA3D3E9002315F014FF32463B466B
:1081700016F0C6F847A3D3E9002315F009FF3246ED
:108180003B4616F0BDF845A3D3E9002315F002FFE6
:1081900032463B4616F0B4F842A3D3E9002315F06B
:1081A000F7FE32463B4616F0ABF840A3D3E9002376
:1081B00015F0F0FE32463B4616F0A2F83DA3D3E997
:1081C0000023804689463046394616F099F83BA38D
:1081D000D3E9002315F0DCFE32463B4616F090F85A
:1081E00038A3D3E9002315F0D5FE32463B4616F0FE
:1081F00087F836A3D3E9002315F0CAFE32463B4682
:1082000016F07EF800221E4B15F0C4FE02460B4607
:108210004046494616F09EF922462B4616F070F865
:1082200022462B4615F0B6FE07B0BDE8F08F524649
:108230005B46DDE9000116F08DF942464B4616F02B
:108240005FF842464B4615F0A5FE02460B4615F078
:10825000A1FE07A3D3E9002315F09AFE02460B46C0
:1082600005A1D1E9000115F093FE24E7AFF30080EA
:10827000075C143326A6913C182D4454FB21F93F8A
:108280000000F03F09F7FD0DE13D023F88B20175A6
:10829000E0EF493F3B8F68B52882A43F5544880EE4
:1082A00055C1C93F7D6FEB0312D6D43F5555555587
:1082B0005555C53F82922EB1C5B8B33F59018D1BAC
:1082C0006C06E63FC88A599CE52A00404B2D8A1C63
:1082D000273A0340000000002DE9F84F1D465342A5
:1082E000134325F00049DFF8C8C149EAD373634559
:1082F000144606460F4626D8C0F1000848EA000892
:1083000021F0004A4AEAD878E04503468B461AD85D
:1083100005F1404808F5801858EA0208AE4643D0F7
:108320004FEAA57808F002085AEA030348EAD17830
:1083300011D1B8F1020F55D0B8F1030F09D14AA1FC
:10834000D1E9000105E032463B462046294615F0BA
:1083500021FEBDE8F88F59EA020329D0E1452ED06D
:10836000E24525D0AAEB09094FEA2959B9F13C0F9A
:108370003CDC002D3EDA19F13C0F3BDA00200021F5
:10838000B8F1010F4ED0B8F1020F3ED0B8F1000F96
:10839000DFD037A3D3E9002315F0FAFD36A3D3E9E4
:1083A000002315F0F5FDD4E7BDE8F84FFEF744BB18
:1083B000BBF1000F12DB32A1D1E90001C9E7CA45C8
:1083C00034D0B8F1020F0DD0B8F1030FB7D0B8F127
:1083D000010F4FF0000036D00021BAE72AA1D1E901
:1083E0000001B6E724A1D1E90001B2E724A1D1E957
:1083F0000001C5E722462B463046394616F0AAF85A
:1084000013F0FEFEFEF718FBBAE719A3D3E9002329
:1084100015F0BEFD02460B4617A1D1E9000115F08B
:10842000B7FD96E701F10043194692E7B8F1020F54
:1084300014D0B8F1030F0DD0B8F1010F06D014A17C
:10844000D1E9000185E74FF0004182E712A1D1E9AF
:1084500000017EE712A1D1E900017AE712A1D1E97A
:10846000000176E7AFF30080182D4454FB2109C0CA
:10847000075C143326A6A13C182D4454FB21094067
:10848000182D4454FB21F93F182D4454FB21F9BF0A
:10849000182D4454FB21E93F182D4454FB21E9BF1A
:1084A000D221337F7CD902C0D221337F7CD90240D4
:1084B0000000F07F0000000043422DE9F047034335
:1084C00021F000463C4A46EAD373934204460D46E7
:1084D0002AD8964240D0394B9E428A462EDD384BF0
:1084E0009E4235463FDD33460246314615F052FD89
:1084F000224606460F462B4600202F4915F048FD20
:1085000002460B463046394616F024F8FEF728FDA1
:1085100000222C4B15F0F4FEBAF1000F0CDA01F139
:1085200000431946BDE8F08702460B4615F030FDC2
:1085300002460B4616F00EF8BDE8F0871CA3D3E9FF
:10854000002315F027FD0022002316F069F948B139
:1085500020462946BDE8F0870022002315F0FAFFE7
:10856000BDE8F087354622462B462046294615F0C1
:1085700011FD22462B4606460F4615F0C1FE224647
:10858000804689462B4600200B4915F001FD024626
:108590000B464046494615F0DDFF32463B4615F096
:1085A000F9FCFEF7DDFC0022064B15F0A9FEB3E74F
:1085B0009C7500883CE4377E0000F03FFFFF2F3EB3
:1085C000FFFFDF3F0000E03F2DE9F8434E4B21F075
:1085D00000449C4206460F461BDC4C4B9C4222DD6D
:1085E0004B4B9C4254DD4B4B9C4246DD4A4B9C42DC
:1085F0006FDD01339C4269D041A3D3E900231046CB
:10860000194615F07DFE06460F4630463946BDE850
:10861000F88302460B4615F073FE06460F463046B9
:108620003946BDE8F88313F0EBFD02F04DFC002263
:108630003A4B8046894615F0ADFCB4F1725F0646B0
:108640000F46ECDB42464B464046494615F058FE85
:1086500032463B4604460D463046394615F09AFCF4
:1086600002460B462046294615F074FF00222B4B8C
:1086700015F090FC06460F46D1E713F0C1FD00F05F
:1086800053F80022264B15F03BFE06460F46C6E780
:1086900013F0B6FD00F048F80022214B06460F46C5
:1086A00015F02EFE324604460D463B4600201C497E
:1086B00015F050FF02460B462046294615F06AFC8D
:1086C00006460F4630463946BDE8F883154B9842BA
:1086D00092D83046394613F093FD0022104B15F026
:1086E0000FFE00F021F8002204460D460C4B15F059
:1086F00007FE22462B4615F003FE06460F468EE780
:108700009C7500883CE4377EFFFFEF7F422ED63F0A
:10871000FFFF3540412E8640CD3386400000F03FBC
:108720000000E03F7DF8B98F2DE9F047B04F21F010
:108730000042BA4284B004460D464FEAD17610D9C1
:10874000AC4FBA4240F28A80C1F31303034302469E
:1087500040F0F180002E7ED00020002104B0BDE862
:10876000F087A54B9A4200F2B680A44B9A4240F2A1
:10877000D1804FF0000A22462B462046294615F0AC
:10878000BFFD85A3D3E9002306460F4615F0B8FDCB
:1087900083A3D3E9002315F0FBFB32463B4615F0DB
:1087A000AFFD81A3D3E9002315F0F4FB32463B462D
:1087B00015F0A6FD7EA3D3E9002315F0E9FB3246B0
:1087C0003B4615F09DFD7CA3D3E9002315F0E2FBA9
:1087D00032463B4615F094FD02460B46204629469C
:1087E00015F0D6FB02460B4606460F4620462946A4
:1087F00015F086FD80468946BAF1000F00F0AB8087
:1088000032463B4600204FF0804115F0C1FB024646
:108810000B464046494615F09DFE02460B46DDE9F3
:10882000020115F0B5FBDDE9002315F0B1FB0B46A5
:1088300002467349002015F0ABFB6FF47F739A4535
:1088400080F2A3800AF57A7A01EB0A5100224FF0F8
:10885000B87315F055FD04B0BDE8F08758A3D3E90F
:10886000002315F0DDFF00286BD157A3D3E90023C7
:108870002046294615F0B6FF00287FF46DAF614908
:1088800053A3D3E9002301EBC6062046294615F081
:1088900037FDD6E9002315F07DFB15F0E1FF824698
:1088A00015F0C4FC4CA3D3E9002306460F4615F08F
:1088B00027FD02460B462046294615F069FB48A3D2
:1088C000D3E90023CDE900013046394615F018FD03
:1088D000CDE9020115E04C4B9A42D0D84B4BF40045
:1088E0002344D3E9002315F053FB494B234493ED74
:1088F000007BCDE900018DED027BC6F1010AAAEBF8
:10890000060ADDE90223DDE9000115F041FB04461A
:108910000D4630E734A3D3E9002315F03BFB0022DA
:10892000374B15F07DFFA8B3204629460022344B73
:1089300015F030FB8FE70B4615F02CFB04B0BDE8BB
:10894000F08729A3D3E900231046194615F0D8FC77
:1089500004B0BDE8F0873046394600224FF080432E
:1089600015F016FB02460B464046494615F0F2FD4F
:1089700022462B4615F00CFB02460B4600202049F0
:1089800015F006FB04B0BDE8F08701EB0A5104B016
:10899000BDE8F0878246EEE6D0A4BE726937663E37
:1089A000F16BD2C541BDBB3E2CDE25AF6A56113FEF
:1089B00093BDBE166CC1663F3E5555555555C53FD6
:1089C000EF39FAFE422E864051302DD5104987C02E
:1089D000FE822B654715F73F0000E0FE422EE63F82
:1089E000763C7935EF39EA3D9C7500883CE4377E6A
:1089F000412E8640FFFFEF7F422ED63FFFFF2F3EE6
:108A00000000F03F48F60300B1A2F03F58F6030023
:108A100068F60300000000002DE9F04FB1F5801F5B
:108A200085B006460F460B4680F2D08021F000420A
:108A3000024300F0DA800029C0F2E9800022D64B20
:108A400015F05EFCD54A0B46934206460F466FF082
:108A5000350E00F3C180C3F3130505F5152C0CF694
:108A6000647C0CF4801C8CF07F5282F440121C1544
:108A700042EA0507A4F2FF3474440022C84B304692
:108A8000394604EB1C5415F083FAAB1CC3F31303F3
:108A9000022B82468B464FF0000240F3AF804FF02E
:108AA000804315F077FA02460B465046594615F0BA
:108AB00051FD064620460F4615F0B8FB3246CDE97B
:108AC00002013B4630463946CDE9006715F018FCF7
:108AD00002460B468046894615F012FC9AA3D3E95C
:108AE000002306460F4615F00BFC99A3D3E900239B
:108AF00015F050FA32463B4615F002FC96A3D3E936
:108B0000002315F047FA32463B4615F0F9FB94A3D3
:108B1000D3E9002315F03EFA42464B4615F0F0FB30
:108B200091A3D3E90023804689463046394615F0A3
:108B3000E7FB8FA3D3E9002315F02CFA32463B461E
:108B400015F0DEFB8CA3D3E9002315F023FA32469F
:108B50003B4615F0D5FB0B4602464946404615F00C
:108B600019FAA5F5C223C5F5D725A3F27A435135E5
:108B70001D43002D06460F4640F387800022894B97
:108B80005046594615F0BCFB52465B4615F0B8FB03
:108B900002460B46804689463046394615F0FAF9BA
:108BA000DDE9002315F0ACFB06460F46002C40F033
:108BB000818002460B464046494615F0E9F90246D7
:108BC0000B465046594615F0E3F90BE0734A9342C1
:108BD0004FF0000E7FF73FAF32463B4630463946F6
:108BE00015F0D8F905B0BDE8F08F00220023002071
:108BF0006D4915F0AFFC05B0BDE8F08F002315F00E
:108C0000E7FD60B1002C7CD100200021EAE702469C
:108C100015F0BEF90022002315F09CFCE2E758A3F2
:108C2000D3E900235046594615F06AFB02460B462D
:108C300000205C4915F0ACF9524606460F465B46EB
:108C40005046594615F05CFB02460B463046394605
:108C500015F056FB06460F462CB3204615F0E6FAF3
:108C600049A3D3E900238046894615F049FB48A370
:108C7000D3E9002304460D464046494615F040FB23
:108C800002460B46304639462CE002460B4650461B
:108C9000594615F07DF9DDE9002315F031FB064654
:108CA0000F46002C47D132463B465046594615F0F8
:108CB0006FF997E734A3D3E90023DDE9020115F04A
:108CC0001FFB33A3D3E9002304460D46DDE902016F
:108CD00015F016FB32463B4615F05CF902460B4692
:108CE0004046494615F054F952465B4615F050F996
:108CF00002460B462046294615F04AF905B0BDE864
:108D0000F08F204615F092FA1FA3D3E90023064600
:108D10000F4615F0F5FA1EA3D3E9002304460D46CD
:108D20003046394615F0ECFA02460B4620462946F5
:108D300015F030F956E7DDE9028913A3D3E90023E2
:108D40004046494691E700BF44523EDF12F1C23F20
:108D5000DE03CB966446C73F599322942449D23F01
:108D6000935555555555E53F9FC678D0099AC33F51
:108D7000AF788E1DC571CC3F04FA97999999D93F68
:108D8000555555555555D53F0000E0FE422EE63F5E
:108D9000763C7935EF39EA3D00005043FFFFEF7F25
:108DA0000000F03F0000E03F000050C30000000062
:108DB000B1F5801F2DE9F84304460D460B4619DA3C
:108DC00021F00042024359D000295FDB00223A4BD8
:108DD00015F096FA394A0D462B46934204466FF039
:108DE00035010CDD22462B462046294615F0D2F8E7
:108DF000BDE8F883314A93424FF00001F2DC1815C8
:108E0000A0F2FF3008444FEAD0794844C3F3130876
:108E100015F00CFAC9F57F73033348EA035506468B
:108E20000F4620462946FFF7F7FD1DA3D3E900238F
:108E3000804689463046394615F062FA1AA3D3E9CE
:108E4000002304460D464046494615F059FA0246AD
:108E50000B462046294615F09DF815A3D3E90023BB
:108E600004460D463046394615F04AFA02460B468E
:108E70002046294615F08EF8BDE8F883002200232D
:108E800000200F4915F066FBBDE8F883024615F097
:108E90007FF80022002315F05DFBA9E7AFF3008007
:108EA000362BF111F3FE593D0EE526157BCBDB3F4A
:108EB00000609F501344D33F00005043FFFFEF7FFB
:108EC000000050C3000000002DE9F04F23F00045E2
:108ED00055EA020493B00DD06B4E21F00044B44229
:108EE0000F4682460BDD04F1404404F5801454EA39
:108EF0000A0350D16549002013B0BDE8F08F9B46AE
:108F0000944647D0B542EEDC5F4EB5425DD0002FAF
:108F100080468946CDE900235BDB0026BCF1000FCB
:108F20000ED1594B9D423FD0584B9D4200F0888056
:108F3000BBF1804F00F09C80554B9B4500F0B883FF
:108F40004046494613F05CF9BAF1000F06D1002CF7
:108F500059D04E4B27F040429A4254D0FF0F013F68
:108F600056EA070373D04B4B9D4240F39B8003F1BD
:108F700004739D4240F33E84474B9C4272DDBBF13B
:108F8000000F72DD3EA3D3E900231046194615F009
:108F9000B7F9B1E728B1414813B0BDE8F04F14F07C
:108FA00003BEA542F7DCAFE704F1404303F58013AD
:108FB00053EA0A039ED0384B9C4240F38383BBF1B3
:108FC000000F52DBDDE9000196E7BCF1000F9ED0F7
:108FD00089E7334B9D4231DCA3F154739D429CDD04
:108FE0002B15A3F2FF33142B40F3A583C3F13403F5
:108FF0002CFA03F202FA03F363458ED102F0010268
:10900000C2F102068AE7BBF1000F05DA02460B4601
:1090100000201E4915F09EFA002FBFF66DAF04F137
:10902000404404F5801454EA060300F03F84012E06
:109030007FF462AF01F1004319465DE702266DE758
:10904000BBF1000FC0F248834046494654E7424610
:109050004B461046194614F09BFF02460B4615F08E
:1090600079FA49E7BBF1000F8CDB0020002143E7D0
:1090700042464B464046494615F042F93CE700BFA0
:109080009C7500883CE4377E0000F07F0000F03FD4
:109090000000E03F0000E041FFFFEF3F88FE0300DB
:1090A000FFFF3F43B4F5801F80F261830022D24B63
:1090B00015F026F96FF0340C0C462315CF4DC4F390
:1090C0001302A3F2FF3342F07F546344AA420B938E
:1090D00044F4401440F33F83C94B9A4240F3048464
:1090E0009FEDAF7B8DED087B8DED107B9FEDAE7B13
:1090F0000B9B8DED067B01330B93A4F580140025AB
:10910000DDE906232146824614F042FFA346DDE94D
:1091100006238046894650462146CDE90CAB14F023
:1091200039FF02460B460020B64915F013FA0A46ED
:109130000146CDE90E12134649460246404615F057
:10914000DFF8631043F0005382468B4603F500239B
:109150008C46CDE904AB5919D3460023CDE902BCB6
:109160000293DDE902AB002004460D4602460B46A1
:109170005046594615F0C4F802460B46404649464B
:1091800014F006FFDDE9062380468946204629467D
:1091900014F0FEFE02460B46DDE90C0114F0F8FE69
:1091A00052465B4615F0ACF802460B46404649462F
:1091B00014F0EEFEDDE90E2315F0A2F8DDE904451A
:1091C000CDE9060122462B462046294615F098F89F
:1091D00077A3D3E9002304460D4615F091F876A352
:1091E000D3E9002314F0D6FE22462B4615F088F86A
:1091F00073A3D3E9002314F0CDFE22462B4615F0CD
:109200007FF871A3D3E9002314F0C4FE22462B4655
:1092100015F076F86EA3D3E9002314F0BBFE2246C6
:109220002B4615F06DF86CA3D3E9002314F0B2FEC1
:109230002246804689462B462046294615F060F88E
:1092400002460B464046494615F05AF85246044637
:109250000D465B46DDE9040114F09CFEDDE90623C2
:1092600015F04EF822462B4614F094FE52468046E6
:1092700089465B465046594615F042F80022624B3B
:10928000CDE90C0114F086FE42464B4614F082FEF6
:1092900002980D46044622462B465046594615F084
:1092A0002FF8002282468B46574B2046294614F061
:1092B0006FFEDDE90C2314F06BFE02460B464046C0
:1092C000494614F065FEDDE9042315F019F822463D
:1092D000804689462B46DDE9060115F011F8024665
:1092E0000B464046494614F055FE804689460246E4
:1092F0000B465046594614F04DFE029838A3D3E968
:10930000002304460D4614F0FBFF5246CDE904014C
:109310005B462046294614F03BFE02460B4640467B
:10932000494614F035FE30A3D3E9002314F0E8FFDA
:109330002FA3D3E90023804689462046294614F00E
:10934000DFFF02460B464046494614F023FEDDE9A6
:10935000102314F01FFE80460B98894614F066FF18
:10936000424682468B464B46DDE9040114F012FE6C
:10937000DDE9082314F00EFE52465B4614F00AFEA7
:10938000029852465B4604460D4614F001FEDDE9A4
:10939000082314F0FDFDDDE9042337E0AFF300807E
:1093A0000000000000000000000000000000F03F8E
:1093B000EF4E454A287ECA3F65DBC9934A86CD3FBA
:1093C00001411DA96074D13F4D268F515555D53FA0
:1093D000FFAB6FDBB66DDB3F033333333333E33F38
:1093E000000000E009C7EE3FFD033ADC09C7EE3F8D
:1093F000F5015B14E02F3EBE000040438E98030051
:1094000079B60B000000F03F0000084014F0C0FDEA
:109410000B4602464946404614F0BAFD013E56EA64
:10942000070382468B4600F05E819FEDD37B8DED76
:10943000047BDDE9001200230E461746CDE90267E2
:109440000293DDE9026708463B461146324614F0B6
:109450009FFD22462B4614F053FFDDE90023804692
:1094600089465046594614F04BFF02460B4640468B
:10947000494614F08FFD3246804689463B462046D9
:109480002946CDE9008914F03BFF0B46024606460B
:109490000F464046494614F07DFDD14B99420446A3
:1094A0000D468A4640F3248101F13F4303F5E00372
:1094B000034340F0FF81B2A3D3E90023DDE90001BB
:1094C00014F068FD3246804689463B4620462946D0
:1094D00014F05EFD02460B464046494615F0A0F9E1
:1094E000002840F0E781A8464FEA2853A3F2FE3255
:1094F0004FF4801313415344C3F30A52B94DA2F2FF
:10950000FF321541C3F3130423EA05010020C2F121
:10951000140B44F48014BAF1000F02460B4644FACF
:109520000BFB30463946B8BFCBF1000B14F030FDD1
:1095300006460F463246DDE900013B4614F02AFD9F
:109540004FEA0B5A0D4600248FA3D3E9002320468F
:10955000294614F0D5FE3246804689463B462046D1
:10956000294614F015FD02460B46DDE9000114F012
:109570000FFD87A3D3E9002314F0C2FE86A3D3E92D
:10958000002306460F462046294614F0B9FE02463F
:109590000B463046394614F0FDFC06460F4602469F
:1095A0000B464046494614F0F5FC42464B460446FD
:1095B0000D4614F0EDFC02460B463046394614F0D9
:1095C000E7FC2246804689462B462046294614F071
:1095D00097FE73A3D3E9002306460F4614F090FECE
:1095E00071A3D3E9002314F0D3FC32463B4614F0B8
:1095F00087FE6FA3D3E9002314F0CCFC32463B4630
:1096000014F07EFE6CA3D3E9002314F0C1FC3246B3
:109610003B4614F075FE6AA3D3E9002314F0BAFCAC
:1096200032463B4614F06CFE02460B462046294665
:1096300014F0AEFC06460F4602460B46204629466D
:1096400014F05EFE0022CDE900014FF08043304669
:10965000394614F09DFC02460B46DDE9000114F08A
:1096600079FF424606460F464B462046294614F0EF
:1096700047FE42464B4614F08DFC02460B463046F0
:10968000394614F085FC22462B4614F081FC024634
:109690000B460020544914F07BFC8A44BAF5801F25
:1096A000C0F232815146DDE9042314F029FE23E49F
:1096B000002FFFF645AC4046494613B0BDE8F04FD9
:1096C00013F03ABCBBF1000FBFF6CFACDDE90034BC
:1096D000184604F100410FE442464B46002042493F
:1096E00014F038FF08E49FED387B8DED047BA0E695
:1096F0003E4B21F00048984540F3EA803C4B0B4438
:1097000003430AD132463B4614F042FCDDE9002314
:1097100015F07CF800283FF4E7AEDDE904012CA346
:10972000D3E9002314F0ECFD29A3D3E9002314F0BE
:10973000E7FDFFF7E1BBBCF1000F40F0D280C3F1C1
:10974000140345FA03F202FA03F3AB4200F0E0809F
:109750006646FFF7E9BB9FED207B8DED087B8DED25
:10976000107B9FED057B00258DED067BC8E44FF057
:10977000000CA2E4AFF30080000000000000F03F06
:10978000FE822B654715973C00000000432EE63F04
:10979000EF39FAFE422EE63F396CA80C615C20BE20
:1097A000D0A4BE726937663EF16BD2C541BDBB3EE7
:1097B0002CDE25AF6A56113F93BDBE166CC1663FC5
:1097C0003E5555555555C53F000000000000F0BFFF
:1097D00059F3F8C21F6EA501000000000000000050
:1097E000FFFF8F40FFFF0F000000F03FFFCB9040D6
:1097F00000346F3F5A4B9C427FF734AC594B9C422C
:109800003FF7BDAB0022574B14F0C2FB44A3D3E992
:10981000002304460D4614F073FD43A3D3E900234F
:1098200082468B462046294614F06AFD0022CDE987
:1098300002014D4B2046294614F062FD02460B46BC
:109840003BA1D1E9000114F0A3FB22462B4614F002
:1098500057FD02460B460020444914F099FB22466E
:10986000804689462B462046294614F049FD02468B
:109870000B464046494614F043FD2FA3D3E900238D
:1098800014F03EFD02460B46DDE9020114F080FBB8
:1098900002460B46804689465046594614F07AFBEC
:1098A000002004460D4652465B46AFE502460B4695
:1098B000FFF7CFBBDDE9040121A3D3E9002314F0B6
:1098C0001FFD1FA3D3E9002314F01AFDFFF714BBFB
:1098D000264B98453FF708AEDDE9022392469346B2
:1098E00031E60026FFF72CBB9FED177B8DED087B43
:1098F0009FED177B8DED107B9FED177B4FF480253F
:109900008DED067BFFF7FCBB5A4601F029FDCAE648
:1099100002F00102C2F10206FFF706BBAFF30080BE
:10992000000000604715F73F44DF5DF80BAE543E82
:10993000555555555555D53FFE822B654715F73F73
:109940009C7500883CE4377E0000004003B8E23F8D
:1099500006D0CF43EBFD4C3E000000000000F83F76
:10996000FEFFEF3F0000F03F0000D03F0000E03F6F
:109970002DE9F047CA4B21F000479F4290B0804646
:10998000894640F38F80C74B9F420C46924626DCA7
:109990000029B9A3D3E9002340F38F8014F0F8FA2B
:1099A000C14B9F4204460D4600F04781B4A3D3E962
:1099B000002314F0EDFA02460B46CAE900232046C4
:1099C000294614F0E5FAAEA3D3E9002314F0E0FA37
:1099D0000125CAE90201284610B0BDE8F087B34B63
:1099E0009F4240F38980B24B9F4200F31C813D159A
:1099F000A5F21645A7EB055319461F46064614F077
:109A00002FFF14F013FC8046894642464B463046F1
:109A10003946CDE90A8914F0BBFA0022A54B14F0AF
:109A20006FFC8946804614F01BFF14F0FFFB0646CE
:109A30000F4632463B4640464946CDE90C6714F096
:109A4000A7FA00229B4B14F05BFC00220023CDE917
:109A50000E0114F0BDFE002800F0608100233046A6
:109A60003946002214F0B4FE002814BF012302235B
:109A7000914A019202212A4600910AA8514600F01B
:109A800087FB002C054614DADAF80420DAF80C30EB
:109A900002F1004203F100434542CAF80420CAF82B
:109AA0000C3006E000200021C2E90089C2E9020171
:109AB0000025284610B0BDE8F08714F06BFA7A4B09
:109AC0009F4204460D4600F00B816DA3D3E90023AD
:109AD00014F060FA02460B46CAE9002329462046E4
:109AE00014F056FA66A3D3E9002314F053FA4FF0AA
:109AF000FF35CAE90201DCE712F082FB62A3D3E979
:109B000000238046894614F0FBFB00226B4B14F0C7
:109B100041FA14F0A5FE054614F088FB56A3D3E9DC
:109B20000023CDE9060114F0EBFB02460B4640464C
:109B3000494614F02DFA52A3D3E900238046894602
:109B4000DDE90601CDE9028914F0DAFB1F2D02469A
:109B50000B46CDE9042340F3B380DDE90423DDE9BE
:109B6000020114F015FA804689463F15C9F30A53DD
:109B7000FB1A102B40F3B18045A3D3E90023DDE9A4
:109B8000060114F0BDFB8046894602460B46DDE91E
:109B9000020114F0FDF902460B46DDE90201CDE9B0
:109BA000082314F0F5F942464B4614F0F1F93AA3B4
:109BB000D3E9002380468946DDE9060114F0A0FBC5
:109BC00042464B4614F0E4F90B46CDE90401024647
:109BD000DDE9080114F0DCF9C1F30A53FF1A312F53
:109BE0008046894600F39C809DED087BCAE9008988
:109BF0008DED027B42464B46DDE9020114F0C8F9C7
:109C0000DDE9042314F0C4F9002CCAE90201BFF60F
:109C100050AF09F1004401F100436D42CAE90084EC
:109C2000CAE9020345E702460B4614F0B1F90025E4
:109C3000CAE90201CAE900013BE715A3D3E9002301
:109C400014F0A6F914A3D3E900230D46044614F03A
:109C50009FF902460B46CAE900232946204614F024
:109C600097F90DA3D3E9002314F092F90125CAE96D
:109C700002011EE7AFF3008000004054FB21F93FD2
:109C80003163621A61B4D03D83C8C96D305FE43F6F
:109C90000000601A61B4D03D7370032E8A19A33B93
:109CA000FB21E93F7BD90240FB21F93FFB213941F0
:109CB000FFFFEF7F000070419C0804000000E03FC0
:109CC0004046494614F064F9394B6A1E804653F801
:109CD0002230BB4289463FF448AFCAE9008989E790
:109CE0002BA3D3E9002314F055F92BA3D3E90023C8
:109CF0000D46044614F04EF902460B46CAE900230D
:109D00002946204614F044F923A3D3E9002314F094
:109D100041F94FF0FF35CAE90201CAE60323A7E67D
:109D20001FA3D3E90023DDE9060114F0E9FA064692
:109D30000F4602460B46DDE9080114F029F980467A
:109D4000894602460B46DDE90801CDE9028914F097
:109D50001FF932463B4614F01BF913A3D3E9002345
:109D600006460F46DDE9060114F0CAFA32463B46C4
:109D700014F00EF902460B4640464946CDE904234D
:109D800014F006F980468946A7E700BFAFF30080CC
:109D90000000601A61B4D03D7370032E8A19A33B92
:109DA0000000002E8A19A33BC14920259A837B39E4
:109DB0001C08040000000000574A2DE9F84F21F06C
:109DC0000048904506460F462CDC544B0029B4BF92
:109DD000534D544D98454FF0000411DC524B9845BB
:109DE00026DC4BA3D3E9002314F0D4F800224F4B18
:109DF00014F016FD002840D030463946BDE8F88FF3
:109E00004B4B984530DD4B4B984568DD0133984509
:109E100062D0304639463EA3D3E9002314F070FAED
:109E2000BDE8F88F02460B4614F0B4F8BDE8F88F91
:109E300012F0E6F901F048F83F4B984506460F4608
:109E400023DD0022394B14F0A5F802460B463046BC
:109E5000394614F07FFB32463B4614F09BF822460D
:109E60002B4614F04DFAE1E712F0CAF9FEF75CFC5C
:109E700022462B4614F044FAD8E73046394612F011
:109E8000BFF901F021F806460F4632463B46304600
:109E9000394614F07FF8324682468B463B463046C0
:109EA000394614F02DFA0022804689461F4B304671
:109EB000394614F06FF802460B464046494614F006
:109EC00049FB02460B465046594614F061F82246BB
:109ED0002B4614F015FAA9E7184B984299D830464A
:109EE000394612F08DF900220E4B14F009FAFEF7F4
:109EF0001BFC06460F4602460B462046294614F038
:109F0000FFF932463B4614F0FBF98FE7AFF30080D0
:109F10003374AC3C1F7BAC7FFFFFEF7FFFFF35400E
:109F20000000E0BF0000E03FFFFF2F3E0000F03FD9
:109F3000412E8640CD338640FFFFEF3F7DF8B98F3D
:109F40002DE9F04F21F00048B8F1795F85B0064661
:109F50000F4692469B466BDA14F082FC002800F014
:109F6000E18032463B463046394614F0C9F974A3C5
:109F7000D3E9002304460D4614F0C2F972A3D3E9D5
:109F8000002314F007F822462B4614F0B9F970A309
:109F9000D3E9002313F0FCFF22462B4614F0B0F95E
:109FA0006DA3D3E9002313F0F5FF22462B4614F0EE
:109FB000A7F96BA3D3E9002313F0EAFF22462B464F
:109FC00014F09EF968A3D3E9002313F0E3FF2246BF
:109FD0002B4614F095F9CDE900010022664B20468E
:109FE000294614F08DF9DDE9002380468946204694
:109FF000294614F085F9524604460D465B46304624
:10A00000394614F07DF902460B462046294613F0E6
:10A01000BFFF02460B464046494613F0B9FF0246D1
:10A020000B460020554913F0B3FF05B0BDE8F08F93
:10A0300002460B4614F064F941A3D3E90023044619
:10A040000D4614F05DF940A3D3E9002313F0A2FFFD
:10A0500022462B4614F054F93DA3D3E9002313F014
:10A0600097FF22462B4614F04BF93BA3D3E900237C
:10A0700013F090FF22462B4614F042F938A3D3E99F
:10A08000002313F085FF22462B4614F039F936A33E
:10A09000D3E9002313F07EFF2B46224614F030F95B
:10A0A000374B9845CDE9000197DD364B98453EDCAE
:10A0B000A8F500130022002030499046994613F07D
:10A0C00067FFCDE9020100222B4B2046294614F000
:10A0D00017F942464B4613F05BFFDDE9002380464B
:10A0E00089462046294614F00BF9524604460D468F
:10A0F0005B463046394614F003F902460B462046CB
:10A10000294613F045FF02460B464046494613F0E8
:10A110003FFF02460B46DDE9020113F039FF05B0AF
:10A12000BDE8F08F1549002005B0BDE8F08F9FED28
:10A13000107B4FF000088DED027BDFF84C90C2E7FA
:10A14000D43888BEE9FAA8BDC4B1B4BD9EEE213EA4
:10A15000AD529C804F7E923E9015CB19A001FA3EE5
:10A160007751C1166CC1563F4C5555555555A53FB5
:10A17000000000000000E73F0000E03F0000F03F6B
:10A180003233D33F0000E93F0000D23F000000001F
:10A190002DE9F04FADF5197DBE4CA29EBE4D54F891
:10A1A00026600793D41E85FB0475E417C4EBA50451
:10A1B00024EAE4741D46631CA3EB8303013D02EB18
:10A1C000C3030593731904960994019503900B91A9
:10A1D000A4EB05071AD43B44002400255E1C0DF1B6
:10A1E0008008DDF88C9208E059F8270014F01EF87A
:10A1F0000137B742E8E8020108D0002FF4DA01374E
:10A2000020462946B742E8E80201F6D1049B002B1C
:10A21000079B4FEAC30302932ADB039A20A902EBB0
:10A22000030801EB0309049B72AA02EBC30B0DF5B3
:10A23000E07A019B002B4FF000064FF0000711DB86
:10A24000039C4D4675E90223F4E8020114F058F826
:10A2500002460B463046394613F09CFE44450646FE
:10A260000F46EFD1EAE80267DA4509F10809E0D1C3
:10A27000DDE90204049920448B0082460BA8A3F177
:10A280000802C31808930CAB13440A938B4698AB8F
:10A2900003EBCB03BBF1000F53E9284529DD70AB7D
:10A2A00003EBCB080DF1300900227C4B20462946F8
:10A2B00014F026F814F0D4FA13F0B8FF0022784B0B
:10A2C00006460F4614F01CF802460B462046294667
:10A2D00013F05EFE14F0C4FA78E9022349F8040B87
:10A2E0003946304613F056FE70AB984504460D468D
:10A2F000DAD1DDF81490204629464A4601F030F8BC
:10A3000000224FF07F5304460D4613F0F9FFFCF78F
:10A31000A7FD0022634B13F0F3FF02460B462046D5
:10A32000294613F035FE0D46044614F099FA80468E
:10A3300013F07CFF0B4602462946204613F028FE08
:10A340004B46002B06460F4640F3E1800BF1FF32EF
:10A350000CA9C9F1180351F8225045FA03F101FA8A
:10A3600003F30CA8EB1A40F82230C9F11705884412
:10A3700043FA05F5002D2CDDBBF1000F08F10108B3
:10A3800040F381820C9C002C40F0A780BBF1010FB0
:10A390000AD00CA9012251F8044F531C002C40F0A4
:10A3A0009E809B451A46F6D1059B002B0EDD012BA6
:10A3B00000F0D980022B09D10BF1FF320CAB0CA9B4
:10A3C00053F82230C3F3150341F82230022D00F078
:10A3D000AF80002200233046394614F0F9F90028F6
:10A3E00000F05382049B0BF1FF394B4510DC0BF15D
:10A3F00080430CAA013B089802EB8303002253F828
:10A400000419834242EA0102F9D1002A40F0B680E1
:10A41000049B0CAA013B52F82330002B40F0A18092
:10A420000A9A012352F8041901330029FAD05B4437
:10A430000BF10109994506934CDC099A079909EB40
:10A44000020801EB0B0508F1804802EB030BA39B0C
:10A4500008F1FF3803EB880870AB03EBC909A39B35
:10A4600020A903EB8B0301EBC505029358F8040FF9
:10A4700013F0DCFE0B4601990246002905F1080B9A
:10A48000C5E900234FF000064FF000071CDB039CDA
:10A490000CE000BF3C0D0400ABAAAA2A0000703EED
:10A4A000000070410000204075E90223F4E8020139
:10A4B00013F026FF02460B463046394613F06AFD7C
:10A4C000544506460F46EFD1029B9845E9E80267DE
:10A4D0005D46CBD1DDF818B0D9E6012300220CA9E6
:10A4E000C4F180749B4541F822400EDD51F82320D1
:10A4F00001EB8B0001EB83036FF07F4100E01A68F2
:10A500008A1A43F8042B8342F9D101244CE706D17F
:10A510000BF1FF330CAA52F82350ED152AE7002265
:10A520007B4B14F073F9002840F0A381054650E7F7
:10A5300032463B460020774913F02AFD06460F4677
:10A54000002C3FF446AF059A7249002000F008FF46
:10A5500002460B463046394613F01AFD06460F46B2
:10A5600037E7012363E70BF1FF320CAB0CA953F87B
:10A570002230C3F3160341F8223027E70CAB059ACB
:10A5800053F82930183ACDE9068505926BB909F1DF
:10A590008043013B0CA901EB830353F8041909F133
:10A5A000FF39183A0029F8D00592059A5949002038
:10A5B00000F0D6FEB9F1000F04460D46C0F2C0818E
:10A5C0004FEAC90370AA02EB030808930CAB03EB34
:10A5D0008906DFF844B14FF0000A08F10807043695
:10A5E00056F8040D13F022FE22462B4613F088FE87
:10A5F0005B4667E9020152462046294613F080FE79
:10A600000CAB9E4204460D46EAD148AB039301933E
:10A61000CDF8149009F10103DDF810900293C346C0
:10A620004FF0000AB9F1000FC0F22A81DFF8EC8088
:10A630005D4635A3D3E9002300260027002403E06C
:10A64000544510DCF8E80223F5E8020113F058FE47
:10A6500002460B463046394613F09CFC0134A145B6
:10A6600006460F46ECDA019BE3E802670193029B82
:10A670000AF1010A9A45ABF1080BD3D1A29BDDF890
:10A680001490032B39D8DFE813F0D9000600060038
:10A690004D0048AB0393B9F1000F4FF000004FF0AD
:10A6A000000109DB039D05EBC904083474E90223AA
:10A6B00013F070FCA542F9D1079B002B40F01E81DE
:10A6C0000B9BC3E900010B4603990246D1E9000147
:10A6D00013F05EFCB9F1000F0CDD4AAD012401342A
:10A6E000F5E8022313F056FCA145F8DA079B002B8E
:10A6F00040F014810B9BC3E90201069B03F00700A5
:10A700000DF5197DBDE8F08F00000040FB21F93FF9
:10A710000000E03F0000F03F0000703E90F60300B4
:10A7200048AB0393B9F1000F40F32781039ACDF8AA
:10A7300010904FEAC9030193D318D3E900AB09F194
:10A740000053013B02EBC9080293914678E9026786
:10A7500052465B463046394613F01CFC04460D4613
:10A7600002460B463046394613F012FC52465B4611
:10A7700013F010FCC145A246AB46C8E90201C8E986
:10A780000045E3D1DDF81090B9F1010F40F3F580F9
:10A79000019B039A02991344C900D3E9006701F1B0
:10A7A000080A019192440DF5947B7AE902893246B8
:10A7B0003B464046494613F0EDFB04460D46024633
:10A7C0000B464046494613F0E3FB32463B4613F046
:10A7D000E1FBD34526462F46CAE90201CAE90045F6
:10A7E000E3D1019C039B1034002000211C4403F1A1
:10A7F000100574E9022313F0CDFBA542F9D1039CA7
:10A80000079ED4E90023D4E90245002E00F08A8097
:10A8100003F1004701F100430B99C1E90403069BD2
:10A820002646944605F1004403F00700C1E900C73D
:10A83000C1E902640DF5197DBDE8F08F089C039D08
:10A840000834002000212C4474E9022313F0A2FBF9
:10A85000A542F9D1079B13B101F1004319460B9BA7
:10A86000C3E90001069B03F007000DF5197DBDE863
:10A87000F08FBBF1000F08F1010874DD022581E5BE
:10A8800000260027EFE600248EE5CDE90685059D2C
:10A89000304639466A4200F063FD0022384B0646D6
:10A8A0000F4613F0B3FF00B30022364B3046394653
:10A8B00013F026FD13F0D4FF044613F0B7FC00227A
:10A8C0002F4B13F01DFD0B4602463946304613F060
:10A8D0005FFB13F0C5FF0BF101090CAB183543F812
:10A8E0002B00059543F829405FE63046394613F0C2
:10A8F000B7FF0CABD94643F82B0056E60B9C01F191
:10A900000043C4E900030B4603990246D1E9000164
:10A9100013F03EFBB9F1000F3FF7DFAE01F100434A
:10A920001946E7E60B9EC6E90023069BC6E904012B
:10A9300003F00700C6E902450DF5197DBDE8F08F6B
:10A94000A29B032B3FF6D9AE01A252F823F000BF21
:10A9500061A9020093A6020093A6020021A70200AB
:10A960000020002176E732463B460020064913F0DE
:10A970000FFB022506460F462BE5002000213EE78F
:10A98000000070410000703E0000F03F0000000039
:10A990002DE9F04F21F00046B6F1795F85B004460D
:10A9A0000D469046994604DA13F05AFF002800F04D
:10A9B000858022462B462046294613F0A1FC0646F8
:10A9C0000F4602460B462046294613F099FC41A348
:10A9D000D3E9002382468B463046394613F090FC7B
:10A9E0003EA3D3E9002313F0D3FA32463B4613F0DB
:10A9F00087FC3CA3D3E9002313F0CCFA32463B4654
:10AA000013F07EFC39A3D3E9002313F0C1FA3246D8
:10AA10003B4613F075FC37A3D3E9002313F0BAFAD1
:10AA20000E9BCDE900019BB30022294B40464946CD
:10AA300013F066FCDDE90023CDE9020150465946DA
:10AA400013F05EFC02460B46DDE9020113F0A0FAAA
:10AA500032463B4613F054FC42464B4613F098FAFC
:10AA600019A3D3E9002306460F465046594613F072
:10AA700047FC02460B463046394613F08BFA024635
:10AA80000B462046294613F083FA05B0BDE8F08F47
:10AA900002460B463046394613F032FC0AA3D3E98E
:10AAA000002313F075FA52465B4613F029FC224648
:10AAB0002B4613F06FFA05B0BDE8F08F204629460B
:10AAC00005B0BDE8F08F00BF495555555555C53FF8
:10AAD0000000E03F7CD5CF5A3AD9E53DEB9C2B8A6C
:10AAE000E6E55A3E7DFEB157E31DC73ED561C1196B
:10AAF000A0012A3FA6F810111111813F00000000AB
:10AB00002DE9F04FC04C21F0004687B0A6428246A6
:10AB10008B460F46CDE900231ADC13F0A1FE002876
:10AB20003FD1109B524601331343334300F0B781AA
:10AB3000109B012B00F0C0815B460020B34913F04D
:10AB400009FD04460D462046294607B0BDE8F08FB2
:10AB5000AF4B9E4225DD002909DADDE9004522469A
:10AB600005F10043CDE900230BF100418B4652462D
:10AB70005B4685A1D1E9000113F00AFADDE9002363
:10AB800004460D4682A1D1E9000113F001FA9FEDC0
:10AB9000827B22462B468DED007B13F0FBF982462B
:10ABA0008B4652465B465046594613F0A9FB024677
:10ABB0000B468046894613F0A3FB424604460D46E9
:10ABC0004B465046594613F09BFB75A3D3E900232F
:10ABD000CDE902012046294613F092FB72A3D3E986
:10ABE000002313F0D7F922462B4613F089FB70A3FC
:10ABF000D3E9002313F0CEF922462B4613F080FB55
:10AC00006DA3D3E9002313F0C5F922462B4613F0B8
:10AC100077FB6BA3D3E9002313F0BCF922462B4644
:10AC200013F06EFB68A3D3E9002313F0B3F9424697
:10AC30004B4613F065FB66A3D3E90023CDE904017D
:10AC40002046294613F05CFB63A3D3E9002313F0ED
:10AC5000A1F922462B4613F053FB61A3D3E900234D
:10AC600013F098F922462B4613F04AFB5EA3D3E972
:10AC7000002313F08FF922462B4613F041FB5CA30F
:10AC8000D3E9002313F086F922462B4613F038FB54
:10AC900059A3D3E9002313F07DF902460B46DDE901
:10ACA000040113F077F9DDE9022313F029FBDDE954
:10ACB000004522462B4613F06DF942464B4613F0F1
:10ACC0001FFB22462B4613F065F94DA3D3E9002361
:10ACD00004460D46DDE9020113F012FB22462B4625
:10ACE00013F058F90B4602468046894650465946AD
:10ACF00013F050F9464B9E4204460D4600F38C80FB
:10AD0000109B012B3BD002460B4600203F4913F01D
:10AD100021FC002406460F462046294652465B4643
:10AD2000CDE90067CDE90201009413F031F9DDE9C6
:10AD300000AB02460B464046494613F029F95246FD
:10AD40005B4613F0DDFA524604460D465B46DDE9EC
:10AD5000020113F0D5FA00222E4B13F01BF9024624
:10AD60000B462046294613F015F932463B4613F0B0
:10AD7000C7FA52465B4613F00DF904460D462046CD
:10AD8000294607B0BDE8F08F182D4454FB21E93F58
:10AD9000075C143326A6813C000000000000000080
:10ADA000D47ABF74702AFB3EE9A7F0320FB8123F85
:10ADB00068108D1AF726303F1583E0FEC8DB573F39
:10ADC00093846EE9E326823FFE41B31BBAA1AB3FF9
:10ADD000735360DBCB75F3BEA69237A0887E143F19
:10ADE0000165F2F2D844433F280356C9226D6D3FF6
:10ADF00037D60684F464963F7AFE10111111C13FD4
:10AE0000635555555555D53FFFFF2F3E0000F0BF08
:10AE10002794E53F0000F03F109813F007FA224610
:10AE2000CDE900012B462046294613F069FADDE9F9
:10AE30000023CDE902012046294613F0ABF8024673
:10AE40000B46DDE9020113F085FB42464B4613F049
:10AE50009FF802460B465046594613F099F80246B1
:10AE60000B4613F097F802460B46DDE9000113F09C
:10AE70008FF80446B81700F00200C0F101000D463B
:10AE800013F0D4F902460B462046294613F038FA4F
:10AE900004460D462046294607B0BDE8F08F5046CF
:10AEA000594611F0ADF902460B460020044913F053
:10AEB00051FB04460D4662E754465D465FE700BF1E
:10AEC0000000F03F000000002DE9F04FCC4A21F0D7
:10AED0000043934285B082468B460C4620D9C94A2E
:10AEE000934200F2D780002C80F2A481ACA3D3E976
:10AEF00000235046594613F04DF80022002313F06A
:10AF000071FC002840F0D180A7A3D3E9002350466C
:10AF1000594613F0F5F902460B460020BA4994E170
:10AF2000BA4A934200F2E580B94A934240F22E8138
:10AF3000002301930022B74B5046594613F0E0F925
:10AF400006460F4602460B465046594613F0D8F9BE
:10AF500097A3D3E9002304460D4613F0D1F996A335
:10AF6000D3E9002313F016F822462B4613F0C8F954
:10AF700093A3D3E9002313F00BF822462B4613F0DA
:10AF8000BFF991A3D3E9002313F004F822462B461E
:10AF900013F0B6F98EA3D3E9002312F0F9FF22468D
:10AFA0002B4613F0ADF900229B4B12F0F3FF8046C5
:10AFB000894602460B463046394613F0A1F902464F
:10AFC0000B460020954912F0E3FF064602460B4669
:10AFD0000F464046494612F0DBFF3246804689461E
:10AFE0003B465046594613F08BF902460B4600206B
:10AFF0008B4912F0CDFF02460B464046494613F0FE
:10B00000A9FA22462B4613F07BF9019E02460B4615
:10B01000002E4DD0DDE9026732463B4612F0B8FF04
:10B0200052465B4613F06CF932463B4612F0B0FFD5
:10B030002B46224612F0ACFF019B013306460F4619
:10B0400000F02381019B012B7BD0019A531C392BEB
:10B050004FEA025500F22881019A132A40F35581E4
:10B06000019BC3F57F7403340022230512F092FF85
:10B0700002460B465046594612F08AFF0022664BA4
:10B0800012F088FF824605EB010B5046594605B089
:10B09000BDE8F08F634A93421BD9C1F31303034306
:10B0A000024640F012810029EFDA00205E490DE0EF
:10B0B0005046594613F024F922462B4612F068FFF9
:10B0C00002460B465046594612F062FF05B0BDE8F5
:10B0D000F08F41A3D3E9002313F0A2FB00283FF433
:10B0E00002AF3FA3D3E900231046194613F008F935
:10B0F000ECE74E4A934200F2EC8000293AA3D3E9F0
:10B10000002339DA12F046FF39A7D7E900674FF07C
:10B11000FF3380468946019332463B4640464946C6
:10B1200012F036FF02460B4682468B4640464946A1
:10B1300012F02EFF32463B4612F02AFFCDE9020103
:10B14000F8E600223A4B5046594613F04BFB0028D4
:10B1500000F0CC805046594600222E4B12F01AFFC8
:10B1600002460B463046394612F012FF00224FF0DD
:10B17000404313F0C5F8A9E712F00AFF0123804607
:10B18000894601931CA7D7E90067C5E714A3D3E953
:10B19000002312F0FFFE02460B468FE7AFF300805C
:10B1A00059F3F8C21F6EA501FE822B654715F73FC4
:10B1B0002DC3096EB7FD8ABE3952E686CACFD03E8E
:10B1C000B7DBAA9E19CE143F8555FE19A0015A3F40
:10B1D000F41011111111A13FEF39FAFE422E8640F1
:10B1E0009C7500883CE4377E0000E0FE422EE63F7E
:10B1F000763C7935EF39EABD763C7935EF39EA3D71
:10B2000079684340412E86400000E0BF422ED63F81
:10B21000FFFF8F3C0000E03F0000F03F00000840CF
:10B2200000001840FFFFEF7F0000F0BFB1A2F03F29
:10B230000000D0BF44A3D3E900235046594613F081
:10B240005FF802460B460020414912F0A3FE13F0BE
:10B2500007FB019012F0EAFF37A3D3E9002306466B
:10B260000F4613F04DF802460B465046594612F071
:10B270008FFE33A3D3E90023804689463046394602
:10B2800013F03EF806460F4646E702460B46504688
:10B29000594612F07DFE00222D4B13F031F80022AA
:10B2A0002B4B12F075FE11E752465B4612F070FE12
:10B2B00002460B460020274912F06AFE6B18194619
:10B2C0000022244B12F064FE00E70B4612F062FEEF
:10B2D000FCE61DA3D3E9002313F012F8002C02466C
:10B2E0000B464FF00000AFDA1B49AEE732463B4653
:10B2F0005046594612F04CFE02460B4612F04AFEEA
:10B300000022144B12F046FEE0E64FF4001343FA1D
:10B3100002F452465B4612F03BFEC4F17F57002612
:10B3200007F5401702460B463046394612F030FE0C
:10B33000A8E600BFAFF300800000E0FE422EE63F2B
:10B34000763C7935EF39EA3DFE822B654715F73FAC
:10B350000000E03F0000F03F0000E0BF0000000000
:10B36000F8B5C1F30A5304460D460E4617460BBB0B
:10B3700021F00046034633431BD0354B002212F028
:10B38000BFFF344B9F4204460D4635DBC1F30A53E1
:10B390000E46363B3B4440F2FE72934232DC002BB9
:10B3A00011DD26F0FF4626F4E00646EA0355204666
:10B3B0002946F8BD40F2FF729342EBD102460B469C
:10B3C00012F0E8FDF8BD13F1350F28DA4CF25033D6
:10B3D0009F4222462B460ADD19A1D1E9000112F055
:10B3E00049FD17A3D3E9002312F08AFFF8BD16A187
:10B3F000D1E9000112F03EFD13A3D3E9002312F0BE
:10B400007FFFF8BD22462B460DA1D1E9000112F0C5
:10B4100031FD0BA3D3E9002312F072FFF8BD26F033
:10B42000FF4626F4E006363346EA03552046294611
:10B430000022094B12F064FFF8BD00BFAFF300809B
:10B440009C7500883CE4377E59F3F8C21F6EA50155
:10B4500000005043B03CFFFF0000903C10B5054C8D
:10B46000237833B9044B13B10448AFF300800123B0
:10B47000237010BD1085002000000000940E040011
:10B4800008B5034B1BB103490348AFF3008008BD67
:10B490000000000014850020940E0400154B002BC2
:10B4A00008BF134B9D46A3F5803A00218B460F46FB
:10B4B0001348144A121A09F009FA0F4B002B00D056
:10B4C00098470E4B002B00D0984700200021040025
:10B4D0000D000D48002802D00C48AFF3008012F098
:10B4E000FFFC2000290005F025F912F0E5FC00BF63
:10B4F0000000080000000420000000000000000020
:10B5000000840020888C0020000000000000000063
:10B5100070B504460E4600F047FA88B10368DB6A4E
:10B5200005469847082C0CD0A4F10903012B14D927
:10B530003246214610230D20BDE8704004F058B873
:10B5400070BD2B6828465B6A98470228F0DC2B68A0
:10B5500028461B6A04219847EAE72B6828465B6A5D
:10B5600098470528E4DC2B6828461B6A0821984781
:10B57000DEE700BF38B52DED028B054600F014FA6A
:10B58000044640B10368DB6A9847032D03D8DFE81F
:10B5900005F02F363D06BDEC028B002038BD20465D
:10B5A0000CF0A6F807EE900A2046F8EEE78A0CF0B9
:10B5B000AFF807EE900A2046B8EEE78A0CF0B8F82C
:10B5C00068EE087A07EE100AE8EEA87AB8EEC77AB5
:10B5D000E7EE077AF5EE407AF1EE10FAB1EEE78A7F
:10B5E0001BD4FDEEC87ABDEC028B17EE900A38BD75
:10B5F000BDEC028B2046BDE838400CF079B8BDECBC
:10B60000028B2046BDE838400CF082B8BDEC028BBE
:10B610002046BDE838400CF08BB817EE900A11F0C8
:10B6200025FBDEE738B5044600F0BEF958B10368E3
:10B63000DB6A0546984744B1012C04D12846BDE891
:10B640003840FBF73DB9002038BD2846BDE83840FA
:10B65000FBF716B910B5044600F0A6F928B1036847
:10B6600021461B6ABDE81040184710BD00487047CE
:10B6700016FCFFFF704700BF10B5034B0360044684
:10B680000BF012FE204610BD9003040010B5054BD0
:10B69000036004460BF008FE204613F0B9FB204679
:10B6A00010BD00BF900304002DE9F041032184B0D8
:10B6B0000546512001F0DAFCDFF8E8C2AE4B044643
:10B6C00004F00F06C4F3031714F4807408BF634634
:10B6D000AA4831463A460AF0C7FF221C18BF012289
:10B6E00031463B4628460DF005FF0023AB60A448D9
:10B6F0000AF0BAFF4FF0FF31032001F0B7FCC0B2EF
:10B7000004F08CFA4FF0FF310446022001F0AEFC49
:10B71000C0B204F083FA002C3BD0002839D0014697
:10B72000204604F041F8064600284DD04FF0FF3186
:10B73000462001F09BFC322804464ED04BDD3828D1
:10B7400000F0B18068285FD14FF0FF31012001F097
:10B750008DFCC0B204F062FA80464C2013F061FB0D
:10B76000052301934246009431462B4607460CF0D0
:10B77000B7FEAF603B6838469B6A9847A868036885
:10B78000DB6A98477F480AF06FFF284604B0BDE89F
:10B79000F0817D480AF068FF4FF0FF31192001F079
:10B7A00065FCC0B204F03AFA4FF0FF3104461820AD
:10B7B00001F05CFCC0B204F031FA0146204603F00F
:10B7C000F3FF06460028B1D170480AF04DFF284625
:10B7D00004B0BDE8F081302816D14FF0FF310120D0
:10B7E00001F044FCC0B204F019FA80464C2013F07A
:10B7F00018FBA4B207460523019342460094314644
:10B800002B460CF023FCB4E701243268CDE9004458
:10B810000023176AAB600F220DF10F03322130466F
:10B82000B847002800F085803368CDE900440F2236
:10B830001F6A30210DF10F033046B84700284AD067
:10B840003368CDE900440D221F6A38210DF10F0342
:10B850003046B847002872D03268CDE900440DF177
:10B860000F03176A682175223046B847002845D172
:10B87000682147480AF0F8FE4FF0FF31204601F0FA
:10B88000F5FBC0B204F0CAF980464C2013F0C9FAA7
:10B8900005246823CDE90034424631462B4607464D
:10B8A0000CF01EFE65E74FF0FF31012001F0DEFBDA
:10B8B000C0B204F0B3F98046442013F0B2FA052375
:10B8C0000746019342462B46009431460CF060FD3A
:10B8D000304B3B604DE730212D480AF0C5FE302447
:10B8E0004FF0FF31012001F0C1FBC0B204F096F926
:10B8F00080464C2013F095FA07467CE726480AF06C
:10B90000B3FEAF68002F7FF435AF4FF0FF31032057
:10B9100001F0ACFBC0B204F081F930B11F480AF06D
:10B92000A3FE284604B0BDE8F0811D480AF09CFE45
:10B930004DE7322116480AF097FE3224D0E738212D
:10B9400013480AF091FE4FF0FF31204601F08EFBC4
:10B95000C0B204F063F98046442013F062FA052473
:10B9600038230746CDE9003442462B4631460CF0D9
:10B970000FFD084B3B60FCE614F7030024F70300BF
:10B9800044F7030004F8030054F7030068F70300CA
:10B9900094F70300E0F6030080F70300A8F7030024
:10B9A000E4F703001CF7030038B5114C23680BB112
:10B9B000986838BD4FF0FF31012001F057FBC0B24D
:10B9C00004F02CF940B10C2013F02BFA0546FFF7D8
:10B9D0006BFE2560A86838BD4FF0FF31032001F0F1
:10B9E00045FBC0B204F01AF90028ECD138BD00BF05
:10B9F0002C85002008B501F06BFCFBF7D5FCBDE8F9
:10BA0000084001F0C5B900BF08B501F061FCFBF7C3
:10BA10003BFDBDE8084001F0BBB900BF08B501F02F
:10BA200057FC10F063FCBDE8084001F0B1B900BF5D
:10BA300008B501F04DFC11F055F8BDE8084001F0E3
:10BA4000A7B900BF08B501F043FCFBF7BDFCBDE89A
:10BA5000084001F09DB900BF08B501F039FC10F0B5
:10BA600077FEBDE8084001F093B900BF08B501F0CA
:10BA70002FFCFAF745FFBDE8084001F089B900BF87
:10BA800008B501F025FC10F0B9FDBDE8084001F053
:10BA90007FB900BF70B5049E96420C4624DB154664
:10BAA0006BB9042A19D0022A02D110F0010310D078
:10BAB00001462A46204607F077FD002070BD10445D
:10BAC0000D4410F8013D01F8013B8D42F9D10020F1
:10BAD00070BD02880A80184670BD10F00303E7D1DC
