:1000000000000220A5780100CD780100CF78010022
:10001000D1780100D3780100D578010000000000FC
:10002000000000000000000000000000D778010080
:10003000D978010000000000DB780100DD780100C4
:10004000DF780100DF7801004577010009770100C2
:100050001D770100DF780100E9600100F17E0100F9
:10006000A5720100AD720100B5720100DF780100D8
:10007000DF780100DF780100DF780100DF78010020
:10008000DF780100DF780100DF780100DF78010010
:10009000DF780100DF780100DF780100DF78010000
:1000A000DF780100DF780100BD720100C572010038
:1000B000DF780100DF780100000000000000000090
:1000C000DF780100DF780100DF780100317701007F
:1000D000DF780100DF780100DF780100DF780100C0
:1000E0006D7701000000000000000000000000002B
:1000F00000000000DF7801000000000059770100D7
:1001000000000000000000000000000000000000EF
:1001100000000000000000000000000000000000DF
:1001200000000000000000000000000000000000CF
:1001300000000000000000000000000000000000BF
:1001400000000000000000000000000000000000AF
:10015000000000000000000000000000000000009F
:10016000000000000000000000000000000000008F
:10017000000000000000000000000000000000007F
:10018000000000000000000000000000000000006F
:10019000000000000000000000000000000000005F
:1001A000000000000000000000000000000000004F
:1001B000000000000000000000000000000000003F
:1001C000000000000000000000000000000000002F
:1001D000000000000000000000000000000000001F
:1001E000000000000000000000000000000000000F
:1001F00000000000000000000000000000000000FF
:100200002DE9F04F85B003910778A7F10903042B7E
:10021000044607F07F0200F10100F5D9202AF3D04F
:100220002B2F04BF677804462D2F75D09FED427B9E
:100230008DED007B4FF000084FF000099FB34FF0A9
:10024000000C25464FF0000ADFF8FCB0644619E0C8
:100250001AF07EFD8046894630461AF00FFD424670
:100260004B461AF0BFFB5246804689465B46DDE9A5
:1002700000013CB31AF096FECDE90001A44615F842
:10028000017F7FB1A7F13006092E52465B464046FA
:100290004946DDD9CCB92E2F17D115F8017F01249D
:1002A000002FEFD12C4642464B46DDE900011AF003
:1002B0004FFD80468946039B404649461C6005B079
:1002C000BDE8F08F4FF0010CD9E72C46BCF1000FD0
:1002D00029D042464B46DDE900011AF039FD07F00E
:1002E000DF07452F80468946E5D10399681C0A221D
:1002F0001AF05CFB1449024600201BF0D9F80246B4
:100300000B46404649461AF023FD80468946404642
:10031000494605B0BDE8F08F9FED097B67788DED0C
:10032000007B013486E7DFF824904FF00008404658
:10033000494605B0BDE8F08F000000000000F03F26
:10034000000000000000F0BF000024400000F87F23
:100350002DE9F047002314460022804689461AF012
:1003600069FF28B109F1004399462D232370013418
:1003700000220023404649461AF052FF28B130229D
:10038000002322706370BDE8F0874046494619F0AB
:1003900051F81AF08DFF73A3D3E9002307464946AD
:1003A00040461AF047FF00284ED170A3D3E900233E
:1003B000404649461AF05CFF002845D10E2F07F150
:1003C000010540F3B980A7F10E06324600206249CC
:1003D0001BF06EF802460B46404649461AF0E2FD15
:1003E00000225E4B1AF0FEFA1BF09EF8002DA7F1DA
:1003F0000F0E4FF0010C4DDD594FDFF878810122CF
:1004000045F6F3294FF02E0A494508BF40454FF005
:1004100030030AD3B0EB080061EB0901494508BF7E
:10042000404503F10103F5D2DBB2237050EA01032A
:1004300004F101084AD1954252DD0132102A4FD011
:10044000444677E90289DFE7002F33DB3A46002094
:1004500041491BF02DF802460B46404649461AF02A
:10046000A1FD3BA3D3E90023804689460125002650
:10047000404649461AF06CFC0022384B1AF0B2FA9A
:100480001BF052F8002DBC464FF0FF3E37464FF0B0
:100490000006B1DC234630224FF02E0803F8022B71
:1004A00084F80180FC4345D01C4403F8012BA3428F
:1004B000FBD1A1E77A42002027491AF0F9FF024652
:1004C0000B46404649461AF043FCCAE7954202F102
:1004D000010204BF84F801A004F10208102AAFD180
:1004E0006EB14246302102F8011BC2F10103734490
:1004F0004344002BF7DC2EEAEE7301339844BCF141
:10050000010F12D0BCF1000F4FF0650388F80030E6
:10051000C5BF2B2388F8013008F1010108F1020161
:100520006046BDE8F04710F061BA002388F800305B
:10053000BDE8F0871C465FE7C7F10E0200200649C0
:100540001AF0B6FF3E4602460B46012790E700BF71
:100550000000901EC4BCD642000024400000E03FD2
:1005600060C001008DEDB5A0F7C6B03E50EFE2D6F9
:10057000E41A4B4400407A1070B54FF0FF3006F09B
:1005800057FA04466FF07F4006F052FA06462046BE
:100590001AF064FB00220C4B1AF0DAFB04463046DA
:1005A0000D461AF05BFB06A3D3E900231AF0FAFC10
:1005B00002460B46204629461AF014FA70BD00BFC9
:1005C0000000E0DFFFFF6F430000F03D000000008F
:1005D0002DE9F04F1D461389AB4288BF536885B0A3
:1005E00004468CBF53F82500002090468A4606F04A
:1005F00093FE0022904B1AF0ABFB1AF059FEB8F8AC
:1006000008206B1C9A4288BFD8F8042006468CBF8D
:1006100052F82300002006F07FFE0022864B1AF0DD
:1006200097FB1AF045FEB8F808300235AB4288BF98
:10063000D8F8043007468CBF53F82500002006F098
:100640006BFE002EC4E9006740F3E280002F40F308
:10065000DF8071A3D3E90023002584F8285018F027
:100660000BFE00220023804689461AF0E3FD40B1CC
:100670004046494668A3D3E900231AF0B3F98046FF
:10068000894667A3D3E90023404649461AF0F0FDA6
:10069000C0B165A3D3E90023404649461AF0D4FD12
:1006A00080B101234046494684F8283060A3D3E94D
:1006B00000231AF097F958A3D3E9002318F0DCFDC2
:1006C0008046894600225D4B404649461AF040FB71
:1006D00018F006FB01F1004300221946564B1AF0B0
:1006E00037FB1AF0E5FD49460546404618F0B4FAD6
:1006F0000022514B1AF02CFB1AF0DAFDDAF8043024
:100700004F49B3F80CB0B3F80AA0A56007FB0BF390
:1007100003EB010806FB0AF6019388FB05234FEA69
:10072000124C00960E444CEA034C06EA010383FB8C
:10073000009A06EB0C0E0EEA010ED346CA468EFB5B
:1007400000675246CDE90267120C42EA0B42DDE92E
:1007500002AB0CEA010C8CFB00674FEA16495646C7
:100760000A40360C46EA0B4649EA074982FB05ABCC
:100770005F46C144B0445646CDE90267039FE0603E
:10078000360C09EA010908EA010846EA074689FB2E
:1007900005AB334488FB0556CDE9025655462D0C72
:1007A00045EA0B45DDE902AB0B40AC4403EAE377D5
:1007B0000CEA010C554623EAE37367454FEA1545F9
:1007C00002EAE276A8BF674645EA0B45634522EA9E
:1007D000E272B8BF6346AE444E450EEA010EA8BFB2
:1007E0004E464A45B8BF4A467745A8BF7746734547
:1007F000B8BF73464645A8BF4646C4E905634245AF
:10080000B8BF424600980199206261622761E261A7
:10081000204605B0BDE8F08FEA2E4454FB21194074
:10082000F4D64354FB21F93F320D337F7CD912407B
:10083000EA2E4454FB2109400000F0400000E03F54
:100840000000FFFF000000002DE9F04F2DED028BAE
:10085000044683B0C0681AF011FA804620698946C0
:100860001AF00CFA824660698B461AF007FA0246C3
:1008700001F1004306460F464046494618F08EFCFB
:100880001AF05EFDE062054618F040FB0190284634
:1008900018F0F0FA019B054618461AF001FA424694
:1008A0004B461AF055FA8046284689461AF0F8F960
:1008B00032463B461AF04CFA02460B464046494641
:1008C0001AF08EF802460B465046594618F066FC60
:1008D0001AF036FD002208EE100A00233046394691
:1008E0001AF0C6FC28B3B5EEC08AF1EE10FA1CDD92
:1008F00011A7D7E9006718EE100A1AF0D1F90246DD
:100900000B46304639461AF06BF832463B461AF031
:1009100069F81AF015FDA062E38843F00203E38052
:1009200003B0BDEC028BBDE8F08F05A7D7E90067E7
:10093000E1E784ED0A8AEFE7EA2E4454FB21F93F10
:10094000EA2E4454FB21F9BF494A21F00043934267
:100950002DE9704304460D4649DC464A93420E4653
:100960000EDC3FA3D3E900231AF03CF80022424BEF
:100970001AF07EFC00284AD020462946BDE8708344
:100980003E4A934239DCB3F1804F40DD18F060F904
:100990002246804689462B46204629461AF0D8F939
:1009A0000022354B1AF01EF818F0EEFF42464B4677
:1009B0001AF018F802460B4600202F491AF0F2FAF6
:1009C000424604460D464B46404649461AF00AF850
:1009D00002460B46204629461AF004F802F040F879
:1009E000002E08DC01F100431946BDE87083024681
:1009F0000B4619F0F7FFBDE8708318F029F902F0F3
:100A00002FF819A3D3E9002319F0ECFFE8E72246F9
:100A10002B46204629461AF09BF9804689462046F7
:100A2000294618F015F9002204460D46124B40469F
:100A3000494619F0D7FF18F0A7FF00220E4B19F016
:100A4000D1FF02460B46404649461AF0ABFA224611
:100A50002B4619F0C7FF00F0A7FAC1E7AFF30080FB
:100A60009C7500883CE4377EEF39FAFE422EE63F63
:100A7000FFFFEF7FFFFF2F3E0000F03F0000B0417F
:100A80002DE9F84FBE4B21F000469E4204460D462C
:100A90008A460EDDBB4B9E4200F3B18000F0AC8075
:100AA000BAF1000F40F3EA8099A1D1E90001BDE855
:100AB000F88FB54B9E4200F3BA80A3F1DE739E42DD
:100AC00040F3A5804FF0FF3B22462B4620462946A7
:100AD0001AF03EF902460B46804689461AF038F96C
:100AE0008DA3D3E9002306460F461AF031F98CA3F3
:100AF000D3E9002319F076FF32463B461AF028F975
:100B000089A3D3E9002319F06DFF32463B461AF062
:100B10001FF987A3D3E9002319F064FF32463B464F
:100B20001AF016F984A3D3E9002319F05BFF3246CB
:100B30003B461AF00DF982A3D3E9002319F052FFC6
:100B400042464B461AF004F97FA3D3E900238046BE
:100B50008946304639461AF0FBF87DA3D3E90023D5
:100B600019F03EFF32463B461AF0F2F87AA3D3E979
:100B7000002319F035FF32463B461AF0E9F878A316
:100B8000D3E9002319F02CFF32463B461AF0E0F877
:100B900075A3D3E9002319F023FF32463B461AF030
:100BA000D7F802460B464046494619F01BFF22463D
:100BB0002B461AF0CDF8BBF1FF3F02460B4661D041
:100BC000724B734E4FEACB0B5B44D3E9002319F011
:100BD00007FF22462B4619F003FFB34402460B469B
:100BE000DBE9000119F0FCFEBAF1000F0DDA01F1AA
:100BF00000431946BDE8F88F00283FF451AF224664
:100C00002B462046294619F0EDFEBDE8F88F58A383
:100C1000D3E9002319F0E6FE00225E4B1AF028FB10
:100C200000283FF44FAF20462946BDE8F88F18F062
:100C30000FF8594B9E4204460D4629DCA3F550237C
:100C40009E424EDC02460B4619F0CCFE0022514B70
:100C500019F0C6FE002206460F464FF0804320469C
:100C6000294619F0BFFE02460B46304639461AF0B7
:100C700099F94FF0000B04460D4625E73EA1D1E956
:100C80000001C2E72046294619F0AAFEBDE8F88F08
:100C9000424B9E421ADC0022414B19F0A1FE002279
:100CA00006460F463E4B204629461AF051F80022D0
:100CB000384B19F097FE02460B46304639461AF07B
:100CC00071F94FF0020B04460D46FDE602460B4655
:100CD000002034491AF066F94FF0030B04460D4624
:100CE000F2E600222B4B19F07BFE002206460F464F
:100CF000284B2046294619F075FE02460B46304621
:100D000039461AF04FF94FF0010B04460D46DBE669
:100D1000182D4454FB21F93F11DA22E33AAD903FFC
:100D2000EB0D76244B7BA93F513DD0A0660DB13F22
:100D30006E204CC5CD45B73FFF8300922449C23F8A
:100D40000D5555555555D53F2F6C6A2C44B4A2BF4F
:100D50009AFDDE522DDEAD3F6D9A74AFF2B0B33F17
:100D6000711623FEC671BC3FC4EB98999999C93F8F
:100D70009C7500883CE4377E182D4454FB21F9BF54
:100D8000FFFF0F440000F07FFFFFDB3F88C0010042
:100D900068C001000000F03FFFFFF23FFF7F03400B
:100DA0000000F83F0000F0BF2DE9F041C1F30A5701
:100DB000A7F2FF35132D02460B460C468846064621
:100DC00020DC002D4ADB364F2F4101EA070C5CEA9C
:100DD000000C1CD030A3D3E9002319F003FE00223D
:100DE00000231AF045FA48B1002C04DD4FF48013BB
:100DF00043FA05F5A84428EA0704002621463046B0
:100E0000BDE8F081332D06DDB5F5806F38D0104692
:100E10001946BDE8F081A7F213474FF0FF3C2CFACA
:100E200007F70742F3D01CA3D3E9002319F0DAFD3A
:100E3000002200231AF01CFA0028DFD0002C09DD64
:100E4000142D22D00123C5F1340503FA05F5AE199E
:100E500028BF984426EA07064446CFE70EA3D3E905
:100E6000002319F0BFFD002200231AF001FA002828
:100E7000C4D0002C0CDB264305D00026094CBDE76E
:100E800019F0B0FDC5E73446B8E704F10108E1E721
:100E900000264FF00044B1E79C7500883CE4377EA3
:100EA000FFFF0F000000F03F2DE9F041C1F30A57AA
:100EB000A7F2FF35132D02460B460C468846064620
:100EC0001DDC002D3CDB364F2F4101EA070C5CEAAC
:100ED000000C19D030A3D3E9002319F083FD0022C0
:100EE00000231AF0C5F9C8B3002C04DA4FF48013BC
:100EF00043FA05F5A84428EA070400262EE0332D1E
:100F000006DDB5F5806F2DD010461946BDE8F0819D
:100F1000A7F213474FF0FF3C2CFA07F70742F3D034
:100F20001DA3D3E9002319F05DFD002200231AF070
:100F30009FF998B1002C21DB26EA070644460DE014
:100F400015A3D3E9002319F04DFD002200231AF068
:100F50008FF918B1002C08DB0026344621463046B4
:100F6000BDE8F08119F03EFDD0E724F000430D4AC2
:100F70001E43002E18BF14460026EFE7142D08D09C
:100F80000123C5F1340503FA05F5AE1928BF9844CD
:100F9000D2E704F10108CFE79C7500883CE4377E76
:100FA000FFFF0F000000F0BF2DE9F04FD84B994232
:100FB00087B08046894643DDD64B99420E4600F302
:100FC000F480D54B994240F32D819FEDBB7B8DED95
:100FD000047B4FEA215A0446AAF2FF3ACF4BC6F3EC
:100FE00013069E4246F07F5500F3128145F44015EA
:100FF000204629460022CA4B19F0F2FC0022044682
:101000000D46C84B19F0A4FE22462B4619F0A0FE4F
:10101000A046CDE90201A946CDE90001002E3AD152
:1010200000220023204629461AF0FAF8002800F092
:101030001B81BAF1000F40F0858100200021B8E04B
:10104000B94B21F000449C420A460FDD0022B74B09
:101050001AF0E6F8002800F0AF80002200230020FC
:10106000B34919F09FFF07B0BDE8F08FB14B9C4228
:1010700040F3AF80B04B1A449A4240F2D380002232
:10108000A84B19F065FE42464B4619F061FECDE9CA
:1010900000014FF0000A00224FF0804340464946CD
:1010A00019F0A0FC02460B464046494619F07AFF6B
:1010B00002460B4606460F4619F04AFE80A3D3E9C6
:1010C000002304460D4619F043FE7FA3D3E9002315
:1010D00019F088FC22462B4619F03AFE7CA3D3E98E
:1010E000002319F07FFC22462B4619F031FE7AA32B
:1010F000D3E9002319F076FC22462B4619F028FE8E
:1011000077A3D3E9002319F06DFC22462B4619F092
:101110001FFE75A3D3E9002319F064FC22462B4679
:1011200019F016FE72A3D3E9002319F05BFC2246E6
:101130002B4619F00DFEDDE9002319F053FC324671
:101140003B4619F005FE04460D46BAF1000F00F0CB
:10115000A880504619F092FD67A3D3E90023824688
:101160008B4619F0F5FD66A3D3E9002306460F462A
:101170005046594619F0ECFDDDE9042319F032FC24
:1011800022462B4619F02EFC02460B46DDE90001F3
:1011900019F026FC42464B4619F022FC02460B464B
:1011A0003046394619F01CFC03E002460B4619F0A4
:1011B00019FC07B0BDE8F08F42464B464046494611
:1011C00019F00EFC02460B4619F0ECFE07B0BDE824
:1011D000F08F0022594B19F005FC002200231AF071
:1011E00047F810B1564B9C4262DD42464B464046A2
:1011F000494619F0ADFD00224A4B19F0A9FD0246FF
:101200000B464046494619F0EBFB07B0BDE8F08FAE
:1012100045F40015C6F5801620462946B6100AF199
:10122000010AE7E600223E4B4046494619F0DAFB48
:101230004FEA215AAAF2FF3ABAF1000F04460D46CE
:101240000E4640F3BD8042464B4619F0C9FB0246AC
:101250000B460020324919F0C3FB22462B4619F0F9
:10126000A1FECDE90401B9E627A3D3E90023204676
:10127000294619F06DFD02460B460020284919F059
:10128000AFFBDDE9022319F063FD06460F46BAF114
:10129000000F75D102460B462046294619F0A0FBE7
:1012A00087E702460B46DDE9000119F099FBA6E746
:1012B000404649467DE700BF0000000000000000F6
:1012C00044523EDF12F1C23F9FC678D0099AC33F15
:1012D000DE03CB966446C73FAF788E1DC571CC3F09
:1012E000599322942449D23F04FA97999999D93F66
:1012F000935555555555E53F0000E0FE422EE63F1B
:10130000763C7935EF39EA3D555555555555E53F0C
:101310007982DA3FFFFFEF7FFFFF3F439DA006008A
:101320000000F03F0000E03FFFFFEF3F0000F0BF94
:10133000000050C3FFFF1F3E3C412D4000005043C2
:10134000FFFF8F3C504619F099FC24A3D3E90023FA
:1013500006460F4619F0FCFCDDE9042319F042FBB8
:1013600020A3D3E9002304460D463046394619F040
:10137000EFFC02460B462046294619F033FB18E7DE
:10138000504619F07BFC17A3D3E9002382468B4615
:1013900019F0DEFC11A3D3E90023804689465046AC
:1013A000594619F0D5FCDDE9042319F01BFB024670
:1013B0000B463046394619F013FB22462B4674E79C
:1013C0000022054B19F00CFB02460B4640464946ED
:1013D00019F006FB41E700BF0000F03F763C79358D
:1013E000EF39EA3D0000E0FE422EE63F000000003B
:1013F00008B517F0A1FF04A3D3E9002319F0D2FD2B
:1014000008BD00BFAFF30080EF39FAFE422EE63F81
:101410002DE9F043DFF8B4808BB004460D4601F0AF
:10142000F7F898F90030013306460F462CD02246D3
:101430002B462046294619F025FF814620BB204631
:10144000294617F005FC1FA3D3E9002319F010FF6C
:10145000D0B1194A98F90030CDF820900321CDE998
:101460000445CDE90245CDE9001293B113490020AE
:10147000022BCDE9060111D119F040FA22230360B5
:10148000089B9BB9DDE90667304639460BB0BDE8DD
:10149000F0830B4B4FF06042CDE90623684619F00C
:1014A000A9F80028E8D0089B002BEBD019F026FA09
:1014B000089B0360E6E700BF48D401000000F07F0E
:1014C000FFFFEF477DF8B98FCE3386400F02002033
:1014D0002DE9F043DFF8E4808BB004460D4601F0BF
:1014E00047F998F90030013306460F4633D02046BD
:1014F000294619F079F870B32CA3D3E900232046CC
:10150000294619F0B5FE814650BB2AA3D3E9002332
:101510002046294619F08EFEE8B198F90030204A9D
:10152000CDF82090002000210426022BCDE90445AF
:10153000CDE902450096CDE90601019229D0684621
:1015400019F058F828B3089B1BB119F0D7F9089B7C
:101550000360DDE90667304639460BB0BDE8F0832D
:101560000F4A98F90030019203210022CDE9044589
:10157000CDE90245009108922BB90A4B4FF0604229
:10158000CDE90623DBE708490020022BCDE906015F
:10159000D5D119F0B3F922230360D4E7AFF300806B
:1015A00050D40100FFFFEF470000F07FEF39FAFE53
:1015B000422E864051302DD5104987C00F020020A1
:1015C0002DE9F04FDFF82C938DB006460F461446F8
:1015D0001D4601F09DFC99F90080B8F1FF3FCDE96F
:1015E000000136D022462B462046294619F04AFEF5
:1015F000834670BB32463B463046394619F042FEC0
:101600008246002840F0A28030463946002200235E
:1016100019F006FE10B3002200232046294619F0D7
:10162000FFFD8346002867D09FEDA77B0122AC4BCE
:10163000CDF828A00292CDE90467CDE906458DEDED
:10164000087B0393B8F1000F41D09FEDA17B8DED96
:10165000007BDDE900010DB0BDE8F08FDDE90001A0
:1016600018F0C2FF8046002800F08D804FF0000A7D
:101670004FF0000BDDE9000152465B4619F0D0FD4A
:101680000028E6D03046394618F0AEFF0028E0D0FA
:101690002046294618F0A8FF0028DAD099F9003032
:1016A0008F4A039204210022022BCDE90467CDE981
:1016B0000645CDE908AB02910A9203D002A818F0C2
:1016C00099FF50B919F01AF92223036005E002A826
:1016D00018F090FF002800F09B800A9B1BB119F0C6
:1016E0000DF90A9B03609DED087B8DED007BDDE924
:1016F00000010DB0BDE8F08F2046294618F074FFB8
:101700000028A6D0002200232046294619F092FD89
:1017100000289ED0724A99F90030CDF828B00121F6
:10172000CDE90467CDE90645CDE90212002B74D05E
:101730006C490020022BCDE9080172D119F0DEF8C6
:10174000212303600A9B002BCDD0C8E70022002391
:101750002046294619F064FD00283FF47AAF624B19
:101760005F49CDF828B000220120B8F1020FCDE981
:1017700004670290CDE90645CDE908230391A6D17F
:10178000CDE9002365E73046394618F02DFF0028E3
:101790003FF46CAF2046294618F026FF00283FF49E
:1017A00065AFDDE900231046194619F06BFD99F984
:1017B00000A000286BD10323DFF824C10A9029463A
:1017C000204602930022494BCDF80CC0CDE90645D6
:1017D000CDE9046719F0BCFA04460D46BAF1000FD2
:1017E00025D1DFF814B14FF0604A002200233046C3
:1017F0003946CDE908AB19F01DFD38BB02A818F039
:10180000F9FE00289ED119F079F82223036099E7A8
:1018100019F074F8212303605FE79FED2B7B8DEDBA
:10182000087B02A818F0E6FE00288BD186E79FED22
:101830002A7B00220023304639468DED087B19F0C3
:10184000F9FCA0B9BAF1020FDDD0D7E7204629464E
:1018500018F0D8FE22462B4619F0E2FCA0B9244B22
:1018600099F900A04FF06042CDE90823EAE720464D
:10187000294618F0C7FE22462B4619F0D1FC18B9AC
:10188000184B0022CDE9082399F900A0DAE70122DC
:10189000134BCDF828800292CDE90467CDE90645C7
:1018A0000393BAF1000FB8D0002200231046194666
:1018B00019F078FBBAF1020FCDE908013FF43EAF11
:1018C000AFE700BFAFF300800000000000000000A1
:1018D000000000000000F03F000000000000F07F6A
:1018E00068D401000000F0FF0000F03F0000E03F7E
:1018F000FFFFEFC70F020020FFFFEF4700000000CF
:101900002DE9F84FC44E21F00043B34204460D4682
:101910000DDD03F1404303F58013034340F0B9802C
:10192000002940F3408100200021BDE8F88FBB4E24
:10193000B34208DCBA4A934200F3B5809CA1D1E9D6
:101940000001BDE8F88F0029C0F2708102460B4605
:101950000020B44919F044F80022B34B19F0F8F90B
:1019600004460D4618F010F893A3D3E900238946E6
:1019700080462946204619F0EBF991A3D3E90023CC
:1019800019F030F822462B4619F0E2F98EA3D3E97C
:10199000002319F025F822462B4619F0D9F98CA31B
:1019A000D3E9002319F01EF822462B4619F0D0F98E
:1019B00089A3D3E9002319F013F822462B4619F026
:1019C000C7F987A3D3E9002319F00CF822462B4668
:1019D00019F0BEF984A3D3E9002382468B46204642
:1019E000294619F0B5F982A3D3E9002318F0F8FFCE
:1019F00022462B4619F0ACF97FA3D3E9002318F057
:101A0000F1FF22462B4619F0A3F97DA3D3E9002369
:101A100018F0E6FF22462B4619F09AF90022814B76
:101A200018F0E0FF02460B465046594619F0BAFA44
:101A300042464B4619F08CF9002682468B463246C8
:101A40004B463046494619F083F902460B4620467C
:101A5000294618F0C5FF324604460D464B4640461F
:101A6000494618F0BFFF02460B462046294619F0AA
:101A700099FA02460B465046594618F0B3FF3246D3
:101A80004B4618F0AFFF02460B4618F0ABFFBDE81F
:101A9000F88F02460B4618F0A3FF02460B4619F0DA
:101AA00081FABDE8F88F02460B4619F051F942A3BE
:101AB000D3E9002306460F4619F04AF940A3D3E9BB
:101AC000002318F08FFF32463B4619F041F93EA340
:101AD000D3E9002318F084FF32463B4619F038F969
:101AE0003BA3D3E9002318F07DFF32463B4619F0B3
:101AF0002FF939A3D3E9002318F072FF32463B4691
:101B000019F026F936A3D3E9002318F06BFF32460B
:101B10003B4619F01DF934A3D3E9002380468946DA
:101B20003046394619F014F931A3D3E9002318F0EF
:101B300057FF32463B4619F00BF92FA3D3E9002398
:101B400018F050FF32463B4619F002F92CA3D3E9B6
:101B5000002318F045FF32463B4619F0F9F8002201
:101B6000304B18F03FFF02460B464046494619F0FD
:101B700019FA22462B4619F0EBF802460B4622A131
:101B8000D1E9000118F02CFF02460B4620462946F9
:101B900018F026FF02460B4605A1D1E9000118F016
:101BA0001FFFBDE8F88F1AA1D1E9000179E700BF56
:101BB000182D4454FB21F93F09F7FD0DE13D023F8B
:101BC00088B20175E0EF493F3B8F68B52882A43F9A
:101BD0005544880E55C1C93F7D6FEB0312D6D43FE3
:101BE000555555555555C53F82922EB1C5B8B33F91
:101BF00059018D1B6C06E63FC88A599CE52A0040B6
:101C00004B2D8A1C273A0340075C143326A6913CCF
:101C1000182D4454FB210940FFFFEF3FFFFFDF3F3A
:101C20000000603C0000F03F0000E03F00225C4B01
:101C300018F0D8FE00225B4B19F08AF840A3D3E9D4
:101C4000002304460D4619F083F83FA3D3E900238F
:101C500018F0C8FE22462B4619F07AF83CA3D3E9C7
:101C6000002318F0BDFE22462B4619F071F83AA366
:101C7000D3E9002318F0B6FE22462B4619F068F887
:101C800037A3D3E9002318F0ABFE22462B4619F008
:101C90005FF835A3D3E9002318F0A4FE22462B46B3
:101CA00019F056F8804689462046294617F06CFE02
:101CB0002FA3D3E9002306460F462046294619F0F4
:101CC00047F82DA3D3E9002318F08AFE22462B46BD
:101CD00019F03EF82AA3D3E9002318F083FE224628
:101CE0002B4619F035F828A3D3E9002318F078FE25
:101CF00022462B4619F02CF80022294B18F072FED0
:101D000002460B464046494619F04CF932463B46DE
:101D100019F01EF81EA3D3E9002318F061FE324625
:101D20003B4618F05FFE02460B4618F05BFE02468B
:101D30000B4619A1D1E9000118F052FEB1E600BF2F
:101D400009F7FD0DE13D023F88B20175E0EF493F23
:101D50003B8F68B52882A43F5544880E55C1C93FC2
:101D60007D6FEB0312D6D43F555555555555C53F9C
:101D700082922EB1C5B8B33F59018D1B6C06E63F68
:101D8000C88A599CE52A00404B2D8A1C273A0340FB
:101D9000075C143326A6913C182D4454FB210940BE
:101DA0000000F03F0000E03F414A91422DE9F84336
:101DB00004460D4637DD3F4A91420B4608DD02F1ED
:101DC000795291423DDD024618F00CFEBDE8F883E1
:101DD00001F1404202F5801202432ED0B1F1804F52
:101DE00037DC0022344B18F0FBFD02460B4604465C
:101DF0000D4618F0F7FD224606460F462B462046B4
:101E0000294618F0A5FF02460B463046394618F021
:101E1000E9FD17F0B9FD22462B4618F0E3FDBDE8B9
:101E2000F843FFF7C1B802460B4618F0D9FD024649
:101E30000B4619F0B7F8BDE8F88300200021BDE893
:101E4000F88300F00DFE18A3D3E9002318F0CAFDB3
:101E5000F1E7024618F07CFF0022174B18F0C0FD96
:101E600017F092FD2246804689462B462046294699
:101E700018F0B8FD224606460F462B464046494616
:101E800018F0B0FD02460B4600200B4919F08AF805
:101E90000B4602463946304618F0A2FDBDE8F8432D
:101EA00000F0DEBDAFF30080EF39FAFE422EE63FD0
:101EB000FFFFEF3FFFFFAF410000F03F00000000D9
:101EC0002DE9F04FAE4B21F000479F4287B004460A
:101ED0000D4611DD07F1404707F5801703463B43E8
:101EE00021D002460B4618F07BFD02460B4619F046
:101EF00059F807B0BDE8F08FA24B9F420E4629DC8F
:101F0000B7F1795F80F2468181A3D3E9002318F00D
:101F100069FD00229C4B19F0ABF9D8B12046294647
:101F200007B0BDE8F08F7CA3D3E9002318F010FFC1
:101F30007BA3D3E9002306460F462046294618F026
:101F400007FF02460B463046394618F04BFD07B0F6
:101F5000BDE8F08F2046294616F07AFE02460B4671
:101F60000020894918F03CFD0022884B18F0F0FE53
:101F70006DA3D3E9002304460D4618F0E9FE6CA3D7
:101F8000D3E9002318F02EFD22462B4618F0E0FE80
:101F900069A3D3E9002318F023FD22462B4618F04D
:101FA000D7FE67A3D3E9002318F01CFD22462B4679
:101FB00018F0CEFE64A3D3E9002318F011FD2246E9
:101FC0002B4618F0C5FE62A3D3E9002318F00AFDE2
:101FD00022462B4618F0BCFE5FA3D3E90023CDE9CF
:101FE00000012046294618F0B3FE5DA3D3E9002383
:101FF00018F0F6FC22462B4618F0AAFE5AA3D3E9A5
:10200000002318F0EFFC22462B4618F0A1FE58A33F
:10201000D3E9002318F0E4FC22462B4618F098FE82
:10202000594B002218F0DEFC82468B46204629469A
:10203000CDE902AB17F0A8FC554B9F42804689467C
:1020400000F3198102460B4618F0CCFCDDE90223AF
:10205000CDE90401DDE9000118F0A4FF02460B46BA
:10206000DDE9040118F074FE4FF0000ACDE900012B
:1020700052464B465046494618F06AFE02460B4609
:102080002046294618F0ACFC524604460D464B4605
:102090004046494618F0A6FC02460B462046294613
:1020A00018F080FF02460B4618F09CFC02460B46D7
:1020B0001BA1D1E9000118F093FC02460B46DDE9B3
:1020C000000118F08DFC524604460D464B46504622
:1020D000494618F087FC02460B4627A1D1E90001CA
:1020E00018F07EFC02460B462046294618F078FC84
:1020F00002460B4620A1D1E9000118F071FC002E28
:102100003FF7F7AE01F100431946F2E6AFF3008066
:102110009C7500883CE4377E182D4454FB21F93F20
:10212000075C143326A6913C09F7FD0DE13D023F03
:1021300088B20175E0EF493F3B8F68B52882A43F24
:102140005544880E55C1C93F7D6FEB0312D6D43F6D
:10215000555555555555C53F82922EB1C5B8B33F1B
:1021600059018D1B6C06E63FC88A599CE52A004040
:102170004B2D8A1C273A0340182D4454FB21E93F7C
:10218000FFFFEF3FFFFFDF3F0000F03F0000E03FB9
:102190003233EF3F02460B4618F0DAFD4BA3D3E98A
:1021A000002306460F4618F0D3FD4AA3D3E90023C7
:1021B00018F018FC32463B4618F0CAFD47A3D3E995
:1021C000002318F00DFC32463B4618F0C1FD45A334
:1021D000D3E9002318F006FC32463B4618F0B8FD60
:1021E00042A3D3E9002318F0FBFB32463B4618F02C
:1021F000AFFD40A3D3E9002318F0F4FB32463B4681
:1022000018F0A6FD3DA3D3E9002380468946304659
:10221000394618F09DFD3BA3D3E9002318F0E0FBFD
:1022200032463B4618F094FD38A3D3E9002318F05A
:10223000D9FB32463B4618F08BFD36A3D3E9002389
:1022400018F0CEFB32463B4618F082FD00221E4BB2
:1022500018F0C8FB02460B464046494618F0A2FE5D
:1022600022462B4618F074FD22462B4618F0BAFB86
:1022700007B0BDE8F08F52465B46DDE9000118F07B
:1022800091FE42464B4618F063FD42464B4618F01D
:10229000A9FB02460B4618F0A5FB07A3D3E90023D0
:1022A00018F09EFB02460B4605A1D1E9000118F08B
:1022B00097FB24E7AFF30080075C143326A6913C1C
:1022C000182D4454FB21F93F0000F03F09F7FD0DA4
:1022D000E13D023F88B20175E0EF493F3B8F68B5B1
:1022E0002882A43F5544880E55C1C93F7D6FEB033A
:1022F00012D6D43F555555555555C53F82922EB1EE
:10230000C5B8B33F59018D1B6C06E63FC88A599C7E
:10231000E52A00404B2D8A1C273A034000000000AC
:102320002DE9F84F1D465342134325F00049DFF8CD
:10233000C8C149EAD3736345144606460F4626D8FA
:10234000C0F1000848EA000821F0004A4AEAD878BB
:10235000E04503468B461AD805F1404808F5801839
:1023600058EA0208AE4643D04FEAA57808F00208C2
:102370005AEA030348EAD17811D1B8F1020F55D0D7
:10238000B8F1030F09D14AA1D1E9000105E03246B5
:102390003B462046294618F025FBBDE8F88F59EA50
:1023A000020329D0E1452ED0E24525D0AAEB090948
:1023B0004FEA2959B9F13C0F3CDC002D3EDA19F106
:1023C0003C0F3BDA00200021B8F1010F4ED0B8F1EC
:1023D000020F3ED0B8F1000FDFD037A3D3E90023BE
:1023E00018F0FEFA36A3D3E9002318F0F9FAD4E77F
:1023F000BDE8F84FFEF744BBBBF1000F12DB32A182
:10240000D1E90001C9E7CA4534D0B8F1020F0DD0B7
:10241000B8F1030FB7D0B8F1010F4FF0000036D07C
:102420000021BAE72AA1D1E90001B6E724A1D1E948
:102430000001B2E724A1D1E90001C5E722462B46FD
:102440003046394618F0AEFD16F002FCFEF718FBD8
:10245000BAE719A3D3E9002318F0C2FA02460B46E3
:1024600017A1D1E9000118F0BBFA96E701F100438A
:10247000194692E7B8F1020F14D0B8F1030F0DD04E
:10248000B8F1010F06D014A1D1E9000185E74FF0A2
:10249000004182E712A1D1E900017EE712A1D1E952
:1024A00000017AE712A1D1E9000176E7AFF30080DD
:1024B000182D4454FB2109C0075C143326A6A13C07
:1024C000182D4454FB210940182D4454FB21F93F99
:1024D000182D4454FB21F9BF182D4454FB21E93F2A
:1024E000182D4454FB21E9BFD221337F7CD902C08F
:1024F000D221337F7CD902400000F07F0000000031
:1025000043422DE9F047034321F000463C4A46EAA6
:10251000D373934204460D462AD8964240D0394B95
:102520009E428A462EDD384B9E4235463FDD33467D
:102530000246314618F056FA224606460F462B460A
:1025400000202F4918F04CFA02460B463046394617
:1025500018F028FDFEF728FD00222C4B18F0F8FBA0
:10256000BAF1000F0CDA01F100431946BDE8F0871B
:1025700002460B4618F034FA02460B4618F012FDDC
:10258000BDE8F0871CA3D3E9002318F02BFA002242
:10259000002318F06DFE48B120462946BDE8F087BB
:1025A0000022002318F0FEFCBDE8F08735462246E5
:1025B0002B462046294618F015FA22462B46064699
:1025C0000F4618F0C5FB2246804689462B46002060
:1025D0000B4918F005FA02460B464046494618F0EA
:1025E000E1FC32463B4618F0FDF9FEF7DDFC002227
:1025F000064B18F0ADFBB3E79C7500883CE4377ED2
:102600000000F03FFFFF2F3EFFFFDF3F0000E03FF5
:102610002DE9F8434E4B21F000449C4206460F46FC
:102620001BDC4C4B9C4222DD4B4B9C4254DD4B4B04
:102630009C4246DD4A4B9C426FDD01339C4269D08F
:1026400041A3D3E900231046194618F081FB064642
:102650000F4630463946BDE8F88302460B4618F06F
:1026600077FB06460F4630463946BDE8F88316F03C
:10267000EFFA02F04DFC00223A4B8046894618F0F2
:10268000B1F9B4F1725F06460F46ECDB42464B46A9
:102690004046494618F05CFB32463B4604460D4630
:1026A0003046394618F09EF902460B462046294628
:1026B00018F078FC00222B4B18F094F906460F46D0
:1026C000D1E716F0C5FA00F053F80022264B18F0B7
:1026D0003FFB06460F46C6E716F0BAFA00F048F888
:1026E0000022214B06460F4618F032FB32460446C4
:1026F0000D463B4600201C4918F054FC02460B4690
:102700002046294618F06EF906460F4630463946EF
:10271000BDE8F883154B984292D83046394616F0FA
:1027200097FA0022104B18F013FB00F021F800225A
:1027300004460D460C4B18F00BFB22462B4618F0B6
:1027400007FB06460F468EE79C7500883CE4377E03
:10275000FFFFEF7F422ED63FFFFF3540412E8640E0
:10276000CD3386400000F03F0000E03F7DF8B98F98
:102770002DE9F047B04F21F00042BA4284B0044640
:102780000D464FEAD17610D9AC4FBA4240F28A805A
:10279000C1F313030343024640F0F180002E7ED0C4
:1027A0000020002104B0BDE8F087A54B9A4200F25A
:1027B000B680A44B9A4240F2D1804FF0000A2246E4
:1027C0002B462046294618F0C3FA85A3D3E90023F7
:1027D00006460F4618F0BCFA83A3D3E9002318F08D
:1027E000FFF832463B4618F0B3FA81A3D3E9002341
:1027F00018F0F8F832463B4618F0AAFA7EA3D3E95F
:10280000002318F0EDF832463B4618F0A1FA7CA3FD
:10281000D3E9002318F0E6F832463B4618F098FA60
:1028200002460B462046294618F0DAF802460B46C7
:1028300006460F462046294618F08AFA8046894601
:10284000BAF1000F00F0AB8032463B4600204FF05B
:10285000804118F0C5F802460B464046494618F03C
:10286000A1FB02460B46DDE9020118F0B9F8DDE9EB
:10287000002318F0B5F80B4602467349002018F003
:10288000AFF86FF47F739A4580F2A3800AF57A7AE5
:1028900001EB0A5100224FF0B87318F059FA04B056
:1028A000BDE8F08758A3D3E9002318F0E1FC002825
:1028B0006BD157A3D3E900232046294618F0BAFC70
:1028C00000287FF46DAF614953A3D3E9002301EBE6
:1028D000C6062046294618F03BFAD6E9002318F030
:1028E00081F818F0E5FC824618F0C8F94CA3D3E94A
:1028F000002306460F4618F02BFA02460B462046E8
:10290000294618F06DF848A3D3E90023CDE900016A
:102910003046394618F01CFACDE9020115E04C4B5F
:102920009A42D0D84B4BF4002344D3E9002318F04B
:1029300057F8494B234493ED007BCDE900018DED21
:10294000027BC6F1010AAAEB060ADDE90223DDE9F2
:10295000000118F045F804460D4630E734A3D3E9EA
:10296000002318F03FF80022374B18F081FCA8B381
:10297000204629460022344B18F034F88FE70B46E6
:1029800018F030F804B0BDE8F08729A3D3E900239C
:102990001046194618F0DCF904B0BDE8F08730465F
:1029A000394600224FF0804318F01AF802460B46D1
:1029B0004046494618F0F6FA22462B4618F010F821
:1029C00002460B460020204918F00AF804B0BDE882
:1029D000F08701EB0A5104B0BDE8F0878246EEE6CD
:1029E000D0A4BE726937663EF16BD2C541BDBB3E15
:1029F0002CDE25AF6A56113F93BDBE166CC1663FF3
:102A00003E5555555555C53FEF39FAFE422E864085
:102A100051302DD5104987C0FE822B654715F73FF1
:102A20000000E0FE422EE63F763C7935EF39EA3D84
:102A30009C7500883CE4377E412E8640FFFFEF7F87
:102A4000422ED63FFFFF2F3E0000F03FA8C00100FE
:102A5000B1A2F03FB8C00100C8C0010000000000F2
:102A60002DE9F04FB1F5801F85B006460F460B46A5
:102A700080F2D08021F00042024300F0DA80002989
:102A8000C0F2E9800022D64B18F062F9D54A0B4615
:102A9000934206460F466FF0350E00F3C180C3F334
:102AA000130505F5152C0CF6647C0CF4801C8CF0D9
:102AB0007F5282F440121C1542EA0507A4F2FF344B
:102AC00074440022C84B3046394604EB1C5417F0BE
:102AD00087FFAB1CC3F31303022B82468B464FF0D8
:102AE000000240F3AF804FF0804317F07BFF0246B7
:102AF0000B465046594618F055FA064620460F46F2
:102B000018F0BCF83246CDE902013B463046394662
:102B1000CDE9006718F01CF902460B46804689464D
:102B200018F016F99AA3D3E9002306460F4618F0C9
:102B30000FF999A3D3E9002317F054FF32463B461F
:102B400018F006F996A3D3E9002317F04BFF32469D
:102B50003B4618F0FDF894A3D3E9002317F042FF99
:102B600042464B4618F0F4F891A3D3E9002380467F
:102B700089463046394618F0EBF88FA3D3E9002395
:102B800017F030FF32463B4618F0E2F88CA3D3E949
:102B9000002317F027FF32463B4618F0D9F80B46C2
:102BA00002464946404617F01DFFA5F5C223C5F56C
:102BB000D725A3F27A4351351D43002D06460F4613
:102BC00040F387800022894B5046594618F0C0F8E0
:102BD00052465B4618F0BCF802460B4680468946D2
:102BE0003046394617F0FEFEDDE9002318F0B0F854
:102BF00006460F46002C40F0818002460B464046B8
:102C0000494617F0EDFE02460B465046594617F06E
:102C1000E7FE0BE0734A93424FF0000E7FF73FAFA1
:102C200032463B463046394617F0DCFE05B0BDE87B
:102C3000F08F0022002300206D4918F0B3F905B091
:102C4000BDE8F08F002318F0EBFA60B1002C7CD1C6
:102C500000200021EAE7024617F0C2FE002200230E
:102C600018F0A0F9E2E758A3D3E9002350465946EB
:102C700018F06EF802460B4600205C4917F0B0FED3
:102C8000524606460F465B465046594618F060F8D5
:102C900002460B463046394618F05AF806460F46AB
:102CA0002CB3204617F0EAFF49A3D3E9002380465E
:102CB000894618F04DF848A3D3E9002304460D4691
:102CC0004046494618F044F802460B46304639461D
:102CD0002CE002460B465046594617F081FEDDE9CE
:102CE000002318F035F806460F46002C47D132462F
:102CF0003B465046594617F073FE97E734A3D3E995
:102D00000023DDE9020118F023F833A3D3E90023FF
:102D100004460D46DDE9020118F01AF832463B463A
:102D200017F060FE02460B464046494617F058FE33
:102D300052465B4617F054FE02460B462046294693
:102D400017F04EFE05B0BDE8F08F204617F096FF55
:102D50001FA3D3E9002306460F4617F0F9FF1EA371
:102D6000D3E9002304460D463046394617F0F0FFFC
:102D700002460B462046294617F034FE56E7DDE9A9
:102D8000028913A3D3E900234046494691E700BFD7
:102D900044523EDF12F1C23FDE03CB966446C73F8A
:102DA000599322942449D23F935555555555E53FA3
:102DB0009FC678D0099AC33FAF788E1DC571CC3FAE
:102DC00004FA97999999D93F555555555555D53F79
:102DD0000000E0FE422EE63F763C7935EF39EA3DD1
:102DE00000005043FFFFEF7F0000F03F0000E03F96
:102DF000000050C300000000B1F5801F2DE9F8432A
:102E000004460D460B4619DA21F00042024359D020
:102E100000295FDB00223A4B17F09AFF394A0D4632
:102E20002B46934204466FF035010CDD22462B46BB
:102E30002046294617F0D6FDBDE8F883314A934273
:102E40004FF00001F2DC1815A0F2FF3008444FEA01
:102E5000D0794844C3F3130817F010FFC9F57F7306
:102E6000033348EA035506460F4620462946FFF736
:102E7000F7FD1DA3D3E90023804689463046394635
:102E800017F066FF1AA3D3E9002304460D46404617
:102E9000494617F05DFF02460B462046294617F0CB
:102EA000A1FD15A3D3E9002304460D46304639465B
:102EB00017F04EFF02460B462046294617F092FDBA
:102EC000BDE8F8830022002300200F4918F06AF8BB
:102ED000BDE8F883024617F083FD0022002318F0B6
:102EE00061F8A9E7AFF30080362BF111F3FE593DED
:102EF0000EE526157BCBDB3F00609F501344D33F8C
:102F000000005043FFFFEF7F000050C300000000AF
:102F10002DE9F04F23F0004555EA020493B00DD09F
:102F20006B4E21F00044B4420F4682460BDD04F1A3
:102F3000404404F5801454EA0A0350D16549002046
:102F400013B0BDE8F08F9B46944647D0B542EEDC07
:102F50005F4EB5425DD0002F80468946CDE9002303
:102F60005BDB0026BCF1000F0ED1594B9D423FD0D8
:102F7000584B9D4200F08880BBF1804F00F09C8050
:102F8000554B9B4500F0B8834046494615F060FE1E
:102F9000BAF1000F06D1002C59D04E4B27F0404219
:102FA0009A4254D0FF0F013F56EA070373D04B4BB0
:102FB0009D4240F39B8003F104739D4240F33E84A5
:102FC000474B9C4272DDBBF1000F72DD3EA3D3E99B
:102FD00000231046194617F0BBFEB1E728B141485F
:102FE00013B0BDE8F04F17F007BBA542F7DCAFE721
:102FF00004F1404303F5801353EA0A039ED0384B93
:103000009C4240F38383BBF1000F52DBDDE90001FA
:1030100096E7BCF1000F9ED089E7334B9D4231DC2F
:10302000A3F154739D429CDD2B15A3F2FF33142BA7
:1030300040F3A583C3F134032CFA03F202FA03F33D
:1030400063458ED102F00102C2F102068AE7BBF1AC
:10305000000F05DA02460B4600201E4917F0A2FFBA
:10306000002FBFF66DAF04F1404404F5801454EA1C
:10307000060300F03F84012E7FF462AF01F10043AC
:1030800019465DE702266DE7BBF1000FC0F24883E9
:103090004046494654E742464B461046194617F00B
:1030A0009FFC02460B4617F07DFF49E7BBF1000F7E
:1030B0008CDB0020002143E742464B464046494610
:1030C00017F046FE3CE700BF9C7500883CE4377E65
:1030D0000000F07F0000F03F0000E03F0000E04112
:1030E000FFFFEF3FD0C80100FFFF3F43B4F5801F53
:1030F00080F261830022D24B17F02AFE6FF0340C6D
:103100000C462315CF4DC4F31302A3F2FF3342F054
:103110007F546344AA420B9344F4401440F33F832A
:10312000C94B9A4240F304849FEDAF7B8DED087B41
:103130008DED107B9FEDAE7B0B9B8DED067B013300
:103140000B93A4F580140025DDE906232146824671
:1031500017F046FCA346DDE9062380468946504623
:103160002146CDE90CAB17F03DFC02460B46002092
:10317000B64917F017FF0A460146CDE90E1213466D
:1031800049460246404617F0E3FD631043F0005302
:1031900082468B4603F500238C46CDE904AB5919D2
:1031A000D3460023CDE902BC0293DDE902AB002047
:1031B00004460D4602460B465046594617F0C8FDD8
:1031C00002460B464046494617F00AFCDDE9062355
:1031D000804689462046294617F002FC02460B46E7
:1031E000DDE90C0117F0FCFB52465B4617F0B0FD21
:1031F00002460B464046494617F0F2FBDDE90E2336
:1032000017F0A6FDDDE90445CDE9060122462B466F
:103210002046294617F09CFD77A3D3E900230446F6
:103220000D4617F095FD76A3D3E9002317F0DAFBDE
:1032300022462B4617F08CFD73A3D3E9002317F029
:10324000D1FB22462B4617F083FD71A3D3E900235F
:1032500017F0C8FB22462B4617F07AFD6EA3D3E980
:10326000002317F0BFFB22462B4617F071FD6CA31D
:10327000D3E9002317F0B6FB2246804689462B4649
:103280002046294617F064FD02460B464046494653
:1032900017F05EFD524604460D465B46DDE904012B
:1032A00017F0A0FBDDE9062317F052FD22462B465E
:1032B00017F098FB5246804689465B465046594671
:1032C00017F046FD0022624BCDE90C0117F08AFB96
:1032D00042464B4617F086FB02980D4604462246AE
:1032E0002B465046594617F033FD002282468B4646
:1032F000574B2046294617F073FBDDE90C2317F0E6
:103300006FFB02460B464046494617F069FBDDE974
:10331000042317F01DFD2246804689462B46DDE931
:10332000060117F015FD02460B464046494617F0C8
:1033300059FB8046894602460B465046594617F0CF
:1033400051FB029838A3D3E9002304460D4617F039
:10335000FFFC5246CDE904015B462046294617F0A2
:103360003FFB02460B464046494617F039FB30A367
:10337000D3E9002317F0ECFC2FA3D3E90023804608
:1033800089462046294617F0E3FC02460B46404694
:10339000494617F027FBDDE9102317F023FB804691
:1033A0000B98894617F06AFC424682468B464B468C
:1033B000DDE9040117F016FBDDE9082317F012FB25
:1033C00052465B4617F00EFB029852465B46044697
:1033D0000D4617F005FBDDE9082317F001FBDDE9D9
:1033E000042337E0AFF3008000000000000000007D
:1033F000000000000000F03FEF4E454A287ECA3F23
:1034000065DBC9934A86CD3F01411DA96074D13F58
:103410004D268F515555D53FFFAB6FDBB66DDB3F6A
:10342000033333333333E33F000000E009C7EE3F9B
:10343000FD033ADC09C7EE3FF5015B14E02F3EBE09
:10344000000040438E98030079B60B000000F03F67
:103450000000084017F0C4FA0B46024649464046B1
:1034600017F0BEFA013E56EA070382468B4600F08B
:103470005E819FEDD37B8DED047BDDE9001200239F
:103480000E461746CDE902670293DDE9026708465A
:103490003B461146324617F0A3FA22462B4617F058
:1034A00057FCDDE90023804689465046594617F00F
:1034B0004FFC02460B464046494617F093FA324607
:1034C000804689463B4620462946CDE9008917F0CB
:1034D0003FFC0B46024606460F464046494617F05B
:1034E00081FAD14B994204460D468A4640F3248125
:1034F00001F13F4303F5E003034340F0FF81B2A332
:10350000D3E90023DDE9000117F06CFA324680466A
:1035100089463B462046294617F062FA02460B468A
:103520004046494617F0A4FE002840F0E781A8462F
:103530004FEA2853A3F2FE324FF480131341534451
:10354000C3F30A52B94DA2F2FF321541C3F313047B
:1035500023EA05010020C2F1140B44F48014BAF1EF
:10356000000F02460B4644FA0BFB30463946B8BF03
:10357000CBF1000B17F034FA06460F463246DDE970
:1035800000013B4617F02EFA4FEA0B5A0D46002475
:103590008FA3D3E900232046294617F0D9FB3246F2
:1035A000804689463B462046294617F019FA0246CE
:1035B0000B46DDE9000117F013FA87A3D3E90023D6
:1035C00017F0C6FB86A3D3E9002306460F46204624
:1035D000294617F0BDFB02460B463046394617F028
:1035E00001FA06460F4602460B464046494617F08A
:1035F000F9F942464B4604460D4617F0F1F90246EA
:103600000B463046394617F0EBF92246804689468C
:103610002B462046294617F09BFB73A3D3E90023D2
:1036200006460F4617F094FB71A3D3E9002317F069
:10363000D7F932463B4617F08BFB6FA3D3E9002343
:1036400017F0D0F932463B4617F082FB6CA3D3E962
:10365000002317F0C5F932463B4617F079FB6AA301
:10366000D3E9002317F0BEF932463B4617F070FB52
:1036700002460B462046294617F0B2F906460F4689
:1036800002460B462046294617F062FB0022CDE990
:1036900000014FF080433046394617F0A1F9024649
:1036A0000B46DDE9000117F07DFC424606460F4659
:1036B0004B462046294617F04BFB42464B4617F037
:1036C00091F902460B463046394617F089F92246F1
:1036D0002B4617F085F902460B460020544917F097
:1036E0007FF98A44BAF5801FC0F232815146DDE984
:1036F000042317F02DFB23E4002FFFF645AC4046D2
:10370000494613B0BDE8F04F16F03EB9BBF1000FCB
:10371000BFF6CFACDDE90034184604F100410FE4F8
:1037200042464B460020424917F03CFC08E49FED1E
:10373000387B8DED047BA0E63E4B21F00048984598
:1037400040F3EA803C4B0B4403430AD132463B46EC
:1037500017F046F9DDE9002317F080FD00283FF45B
:10376000E7AEDDE904012CA3D3E9002317F0F0FA5A
:1037700029A3D3E9002317F0EBFAFFF7E1BBBCF173
:10378000000F40F0D280C3F1140345FA03F202FAAD
:1037900003F3AB4200F0E0806646FFF7E9BB9FED24
:1037A000207B8DED087B8DED107B9FED057B00254B
:1037B0008DED067BC8E44FF0000CA2E4AFF300806F
:1037C000000000000000F03FFE822B654715973C8B
:1037D00000000000432EE63FEF39FAFE422EE63F9E
:1037E000396CA80C615C20BED0A4BE726937663EFD
:1037F000F16BD2C541BDBB3E2CDE25AF6A56113FF1
:1038000093BDBE166CC1663F3E5555555555C53FD7
:10381000000000000000F0BF59F3F8C21F6EA501C0
:103820000000000000000000FFFF8F40FFFF0F00BE
:103830000000F03FFFCB904000346F3F5A4B9C425A
:103840007FF734AC594B9C423FF7BDAB0022574B3E
:1038500017F0C6F844A3D3E9002304460D4617F039
:1038600077FA43A3D3E9002382468B4620462946B4
:1038700017F06EFA0022CDE902014D4B2046294691
:1038800017F066FA02460B463BA1D1E9000117F09A
:10389000A7F822462B4617F05BFA02460B4600209B
:1038A000444917F09DF82246804689462B4620461B
:1038B000294617F04DFA02460B464046494617F096
:1038C00047FA2FA3D3E9002317F042FA02460B462A
:1038D000DDE9020117F084F802460B46804689466E
:1038E0005046594617F07EF8002004460D465246D1
:1038F0005B46AFE502460B46FFF7CFBBDDE90401AF
:1039000021A3D3E9002317F023FA1FA3D3E900234F
:1039100017F01EFAFFF714BB264B98453FF708AE89
:10392000DDE902239246934631E60026FFF72CBBE1
:103930009FED177B8DED087B9FED177B8DED107B49
:103940009FED177B4FF480258DED067BFFF7FCBBC9
:103950005A4601F029FDCAE602F00102C2F1020650
:10396000FFF706BBAFF30080000000604715F73F8C
:1039700044DF5DF80BAE543E555555555555D53F72
:10398000FE822B654715F73F9C7500883CE4377E27
:103990000000004003B8E23F06D0CF43EBFD4C3EB1
:1039A000000000000000F83FFEFFEF3F0000F03F86
:1039B0000000D03F0000E03F2DE9F047CA4B21F066
:1039C00000479F4290B08046894640F38F80C74BA6
:1039D0009F420C46924626DC0029B9A3D3E9002376
:1039E00040F38F8016F0FCFFC14B9F4204460D460A
:1039F00000F04781B4A3D3E9002316F0F1FF02469B
:103A00000B46CAE900232046294616F0E9FFAEA37B
:103A1000D3E9002316F0E4FF0125CAE90201284694
:103A200010B0BDE8F087B34B9F4240F38980B24BA2
:103A30009F4200F31C813D15A5F21645A7EB0553E7
:103A400019461F46064617F033FC17F017F9804653
:103A5000894642464B4630463946CDE90A8916F03A
:103A6000BFFF0022A54B17F073F98946804617F077
:103A70001FFC17F003F906460F4632463B46404608
:103A80004946CDE90C6716F0ABFF00229B4B17F0BF
:103A90005FF900220023CDE90E0117F0C1FB0028D9
:103AA00000F06081002330463946002217F0B8FB51
:103AB000002814BF01230223914A019202212A46C1
:103AC00000910AA8514600F087FB002C054614DA45
:103AD000DAF80420DAF80C3002F1004203F1004376
:103AE0004542CAF80420CAF80C3006E00020002144
:103AF000C2E90089C2E902010025284610B0BDE8EC
:103B0000F08716F06FFF7A4B9F4204460D4600F097
:103B10000B816DA3D3E9002316F064FF02460B4628
:103B2000CAE900232946204616F05AFF66A3D3E9C6
:103B3000002316F057FF4FF0FF35CAE90201DCE71A
:103B400015F086F862A3D3E900238046894617F072
:103B5000FFF800226B4B16F045FF17F0A9FB054656
:103B600017F08CF856A3D3E90023CDE9060117F02E
:103B7000EFF802460B464046494616F031FF52A385
:103B8000D3E9002380468946DDE90601CDE90289B3
:103B900017F0DEF81F2D02460B46CDE9042340F353
:103BA000B380DDE90423DDE9020116F019FF804648
:103BB00089463F15C9F30A53FB1A102B40F3B18015
:103BC00045A3D3E90023DDE9060117F0C1F88046DB
:103BD000894602460B46DDE9020116F001FF024666
:103BE0000B46DDE90201CDE9082316F0F9FE424655
:103BF0004B4616F0F5FE3AA3D3E9002380468946EA
:103C0000DDE9060117F0A4F842464B4616F0E8FE3F
:103C10000B46CDE904010246DDE9080116F0E0FE9D
:103C2000C1F30A53FF1A312F8046894600F39C8066
:103C30009DED087BCAE900898DED027B42464B462B
:103C4000DDE9020116F0CCFEDDE9042316F0C8FE22
:103C5000002CCAE90201BFF650AF09F1004401F19E
:103C600000436D42CAE90084CAE9020345E70246FF
:103C70000B4616F0B5FE0025CAE90201CAE90001AB
:103C80003BE715A3D3E9002316F0AAFE14A3D3E95A
:103C900000230D46044616F0A3FE02460B46CAE971
:103CA00000232946204616F09BFE0DA3D3E90023EE
:103CB00016F096FE0125CAE902011EE7AFF3008067
:103CC00000004054FB21F93F3163621A61B4D03DDA
:103CD00083C8C96D305FE43F0000601A61B4D03D15
:103CE0007370032E8A19A33BFB21E93F7BD9024065
:103CF000FB21F93FFB213941FFFFEF7F00007041BD
:103D000004D501000000E03F4046494616F068FE39
:103D1000394B6A1E804653F82230BB4289463FF435
:103D200048AFCAE9008989E72BA3D3E9002316F03D
:103D300059FE2BA3D3E900230D46044616F052FE8C
:103D400002460B46CAE900232946204616F048FEE3
:103D500023A3D3E9002316F045FE4FF0FF35CAE94F
:103D60000201CAE60323A7E61FA3D3E90023DDE986
:103D7000060116F0EDFF06460F4602460B46DDE94A
:103D8000080116F02DFE8046894602460B46DDE905
:103D90000801CDE9028916F023FE32463B4616F0B3
:103DA0001FFE13A3D3E9002306460F46DDE90601F3
:103DB00016F0CEFF32463B4616F012FE02460B4688
:103DC00040464946CDE9042316F00AFE804689465E
:103DD000A7E700BFAFF300800000601A61B4D03DD8
:103DE0007370032E8A19A33B0000002E8A19A33B8F
:103DF000C14920259A837B3984D40100000000004A
:103E0000574A2DE9F84F21F00048904506460F46E5
:103E10002CDC544B0029B4BF534D544D98454FF002
:103E2000000411DC524B984526DC4BA3D3E9002358
:103E300016F0D8FD00224F4B17F01AFA002840D098
:103E400030463946BDE8F88F4B4B984530DD4B4B3B
:103E5000984568DD0133984562D0304639463EA327
:103E6000D3E9002316F074FFBDE8F88F02460B4635
:103E700016F0B8FDBDE8F88F14F0EAFE01F048F83E
:103E80003F4B984506460F4623DD0022394B16F07E
:103E9000A9FD02460B463046394617F083F83246F4
:103EA0003B4616F09FFD22462B4616F051FFE1E7F8
:103EB00014F0CEFEFEF75CFC22462B4616F048FFBF
:103EC000D8E73046394614F0C3FE01F021F8064623
:103ED0000F4632463B463046394616F083FD3246A1
:103EE00082468B463B463046394616F031FF00226B
:103EF000804689461F4B3046394616F073FD024610
:103F00000B464046494617F04DF802460B465046D0
:103F1000594616F065FD22462B4616F019FFA9E713
:103F2000184B984299D83046394614F091FE002239
:103F30000E4B16F00DFFFEF71BFC06460F46024621
:103F40000B462046294616F003FF32463B4616F044
:103F5000FFFE8FE7AFF300803374AC3C1F7BAC7F78
:103F6000FFFFEF7FFFFF35400000E0BF0000E03FB4
:103F7000FFFF2F3E0000F03F412E8640CD338640AC
:103F8000FFFFEF3F7DF8B98F2DE9F04F21F000489A
:103F9000B8F1795F85B006460F4692469B466BDACC
:103FA00017F086F9002800F0E18032463B463046A3
:103FB000394616F0CDFE74A3D3E9002304460D461E
:103FC00016F0C6FE72A3D3E9002316F00BFD2246BD
:103FD0002B4616F0BDFE70A3D3E9002316F000FDBA
:103FE00022462B4616F0B4FE6DA3D3E9002316F04B
:103FF000F9FC22462B4616F0ABFE6BA3D3E9002357
:1040000016F0EEFC22462B4616F0A2FE68A3D3E97A
:10401000002316F0E7FC22462B4616F099FECDE968
:1040200000010022664B2046294616F091FEDDE98C
:104030000023804689462046294616F089FE5246CE
:1040400004460D465B463046394616F081FE024670
:104050000B462046294616F0C3FC02460B46404656
:10406000494616F0BDFC02460B460020554916F0A5
:10407000B7FC05B0BDE8F08F02460B4616F068FEAF
:1040800041A3D3E9002304460D4616F061FE40A388
:10409000D3E9002316F0A6FC22462B4616F058FE64
:1040A0003DA3D3E9002316F09BFC22462B4616F0D5
:1040B0004FFE3BA3D3E9002316F094FC22462B4687
:1040C00016F046FE38A3D3E9002316F089FC2246F9
:1040D0002B4616F03DFE36A3D3E9002316F082FCF2
:1040E0002B46224616F034FE374B9845CDE90001A9
:1040F00097DD364B98453EDCA8F5001300220020E2
:1041000030499046994616F06BFCCDE90201002239
:104110002B4B2046294616F01BFE42464B4616F016
:104120005FFCDDE90023804689462046294616F0DB
:104130000FFE524604460D465B463046394616F0A1
:1041400007FE02460B462046294616F049FC024669
:104150000B464046494616F043FC02460B46DDE955
:10416000020116F03DFC05B0BDE8F08F15490020B6
:1041700005B0BDE8F08F9FED107B4FF000088DED8E
:10418000027BDFF84C90C2E7D43888BEE9FAA8BDBC
:10419000C4B1B4BD9EEE213EAD529C804F7E923E96
:1041A0009015CB19A001FA3E7751C1166CC1563F4C
:1041B0004C5555555555A53F000000000000E73F00
:1041C0000000E03F0000F03F3233D33F0000E93F02
:1041D0000000D23F000000002DE9F04FADF5197D41
:1041E000BE4CA29EBE4D54F826600793D41E85FB9C
:1041F0000475E417C4EBA50424EAE4741D46631CAB
:10420000A3EB8303013D02EBC303059373190496EB
:104210000994019503900B91A4EB05071AD43B4434
:10422000002400255E1C0DF18008DDF88C9208E06A
:1042300059F8270016F022FD0137B742E8E80201DD
:1042400008D0002FF4DA013720462946B742E8E8C3
:104250000201F6D1049B002B079B4FEAC303029394
:104260002ADB039A20A902EB030801EB0309049B54
:1042700072AA02EBC30B0DF5E07A019B002B4FF005
:1042800000064FF0000711DB039C4D4675E9022341
:10429000F4E8020116F05CFD02460B463046394652
:1042A00016F0A0FB444506460F46EFD1EAE8026748
:1042B000DA4509F10809E0D1DDE902040499204456
:1042C0008B0082460BA8A3F10802C31808930CAB1D
:1042D00013440A938B4698AB03EBCB03BBF1000F5F
:1042E00053E9284529DD70AB03EBCB080DF130090C
:1042F00000227C4B2046294616F02AFD16F0D8FFF6
:1043000016F0BCFC0022784B06460F4616F020FD46
:1043100002460B462046294616F062FB16F0C8FFFF
:1043200078E9022349F8040B3946304616F05AFB67
:1043300070AB984504460D46DAD1DDF8149020465E
:1043400029464A4601F030F800224FF07F530446D8
:104350000D4616F0FDFCFCF7A7FD0022634B16F09E
:10436000F7FC02460B462046294616F039FB0D465F
:10437000044616F09DFF804616F080FC0B46024670
:104380002946204616F02CFB4B46002B06460F46CE
:1043900040F3E1800BF1FF320CA9C9F1180351F889
:1043A000225045FA03F101FA03F30CA8EB1A40F886
:1043B0002230C9F11705884443FA05F5002D2CDD9C
:1043C000BBF1000F08F1010840F381820C9C002C26
:1043D00040F0A780BBF1010F0AD00CA9012251F8CF
:1043E000044F531C002C40F09E809B451A46F6D18A
:1043F000059B002B0EDD012B00F0D980022B09D18B
:104400000BF1FF320CAB0CA953F82230C3F31503A8
:1044100041F82230022D00F0AF8000220023304608
:10442000394616F0FDFE002800F05382049B0BF184
:10443000FF394B4510DC0BF180430CAA013B089877
:1044400002EB8303002253F80419834242EA01027B
:10445000F9D1002A40F0B680049B0CAA013B52F827
:104460002330002B40F0A1800A9A012352F804194E
:1044700001330029FAD05B440BF1010999450693F9
:104480004CDC099A079909EB020801EB0B0508F1CE
:10449000804802EB030BA39B08F1FF3803EB88086D
:1044A00070AB03EBC909A39B20A903EB8B0301EBC2
:1044B000C505029358F8040F16F0E0FB0B4601996E
:1044C0000246002905F1080BC5E900234FF000065C
:1044D0004FF000071CDB039C0CE000BFA4D90100D7
:1044E000ABAAAA2A0000703E0000704100002040E4
:1044F00075E90223F4E8020116F02AFC02460B4695
:104500003046394616F06EFA544506460F46EFD14E
:10451000029B9845E9E802675D46CBD1DDF818B00B
:10452000D9E6012300220CA9C4F180749B4541F80F
:1045300022400EDD51F8232001EB8B0001EB8303B9
:104540006FF07F4100E01A688A1A43F8042B834217
:10455000F9D101244CE706D10BF1FF330CAA52F834
:104560002350ED152AE700227B4B16F077FE00283A
:1045700040F0A381054650E732463B46002077498C
:1045800016F02EFA06460F46002C3FF446AF059A69
:104590007249002000F008FF02460B4630463946BB
:1045A00016F01EFA06460F4637E7012363E70BF1C4
:1045B000FF320CAB0CA953F82230C3F3160341F8B9
:1045C000223027E70CAB059A53F82930183ACDE989
:1045D000068505926BB909F18043013B0CA901EBFB
:1045E000830353F8041909F1FF39183A0029F8D068
:1045F0000592059A5949002000F0D6FEB9F1000F46
:1046000004460D46C0F2C0814FEAC90370AA02EB0E
:10461000030808930CAB03EB8906DFF844B14FF0B5
:10462000000A08F10807043656F8040D16F026FBB8
:1046300022462B4616F08CFB5B4667E90201524688
:104640002046294616F084FB0CAB9E4204460D46DC
:10465000EAD148AB03930193CDF8149009F101031B
:10466000DDF810900293C3464FF0000AB9F1000F35
:10467000C0F22A81DFF8EC805D4635A3D3E9002340
:1046800000260027002403E0544510DCF8E802234C
:10469000F5E8020116F05CFB02460B46304639464F
:1046A00016F0A0F90134A14506460F46ECDA019B4D
:1046B000E3E802670193029B0AF1010A9A45ABF114
:1046C000080BD3D1A29BDDF81490032B39D8DFE877
:1046D00013F0D900060006004D0048AB0393B9F172
:1046E000000F4FF000004FF0000109DB039D05EBC8
:1046F000C904083474E9022316F074F9A542F9D10B
:10470000079B002B40F01E810B9BC3E900010B4669
:1047100003990246D1E9000116F062F9B9F1000FE0
:104720000CDD4AAD01240134F5E8022316F05AF9F4
:10473000A145F8DA079B002B40F014810B9BC3E9DD
:104740000201069B03F007000DF5197DBDE8F08F0F
:1047500000000040FB21F93F0000E03F0000F03F77
:104760000000703EF0C0010048AB0393B9F1000FA8
:1047700040F32781039ACDF810904FEAC9030193C3
:10478000D318D3E900AB09F10053013B02EBC90890
:104790000293914678E9026752465B4630463946B5
:1047A00016F020F904460D4602460B4630463946BF
:1047B00016F016F952465B4616F014F9C145A246AA
:1047C000AB46C8E90201C8E90045E3D1DDF8109025
:1047D000B9F1010F40F3F580019B039A029913444C
:1047E000C900D3E9006701F1080A019192440DF56F
:1047F000947B7AE9028932463B464046494616F0A8
:10480000F1F804460D4602460B464046494616F06E
:10481000E7F832463B4616F0E5F8D34526462F46E4
:10482000CAE90201CAE90045E3D1019C039B1034A7
:10483000002000211C4403F1100574E9022316F046
:10484000D1F8A542F9D1039C079ED4E90023D4E90D
:104850000245002E00F08A8003F1004701F1004379
:104860000B99C1E90403069B2646944605F10044D2
:1048700003F00700C1E900C7C1E902640DF5197D25
:10488000BDE8F08F089C039D0834002000212C44D3
:1048900074E9022316F0A6F8A542F9D1079B13B1DB
:1048A00001F1004319460B9BC3E90001069B03F08D
:1048B00007000DF5197DBDE8F08FBBF1000F08F181
:1048C000010874DD022581E500260027EFE60024BB
:1048D0008EE5CDE90685059D304639466A4200F0F1
:1048E00063FD0022384B06460F4616F0B7FC00B3B6
:1048F0000022364B3046394616F02AFA16F0D8FC1C
:10490000044616F0BBF900222F4B16F021FA0B4695
:1049100002463946304616F063F816F0C9FC0BF132
:1049200001090CAB183543F82B00059543F82940D5
:104930005FE63046394616F0BBFC0CABD94643F86F
:104940002B0056E60B9C01F10043C4E900030B4623
:1049500003990246D1E9000116F042F8B9F1000FBF
:104960003FF7DFAE01F100431946E7E60B9EC6E9CB
:104970000023069BC6E9040103F00700C6E90245CF
:104980000DF5197DBDE8F08FA29B032B3FF6D9AE44
:1049900001A252F823F000BFA9490000DB46000045
:1049A000DB460000694700000020002176E7324620
:1049B0003B460020064916F013F8022506460F462E
:1049C0002BE5002000213EE7000070410000703E12
:1049D0000000F03F000000002DE9F04F21F00046FC
:1049E000B6F1795F85B004460D469046994604DAE3
:1049F00016F05EFC002800F0858022462B462046FB
:104A0000294616F0A5F906460F4602460B462046F3
:104A1000294616F09DF941A3D3E9002382468B462F
:104A20003046394616F094F93EA3D3E9002315F039
:104A3000D7FF32463B4616F08BF93CA3D3E900235F
:104A400015F0D0FF32463B4616F082F939A3D3E980
:104A5000002315F0C5FF32463B4616F079F937A31F
:104A6000D3E9002315F0BEFF0E9BCDE900019BB3F7
:104A70000022294B4046494616F06AF9DDE9002339
:104A8000CDE902015046594616F062F902460B463E
:104A9000DDE9020115F0A4FF32463B4616F058F955
:104AA00042464B4615F09CFF19A3D3E90023064666
:104AB0000F465046594616F04BF902460B46304613
:104AC000394615F08FFF02460B462046294615F061
:104AD00087FF05B0BDE8F08F02460B4630463946E9
:104AE00016F036F90AA3D3E9002315F079FF5246F0
:104AF0005B4616F02DF922462B4615F073FF05B0E4
:104B0000BDE8F08F2046294605B0BDE8F08F00BF14
:104B1000495555555555C53F0000E03F7CD5CF5A06
:104B20003AD9E53DEB9C2B8AE6E55A3E7DFEB1572E
:104B3000E31DC73ED561C119A0012A3FA6F8101197
:104B40001111813F000000002DE9F04FC04C21F011
:104B5000004687B0A64282468B460F46CDE9002329
:104B60001ADC16F0A5FB00283FD1109B52460133FA
:104B70001343334300F0B781109B012B00F0C08139
:104B80005B460020B34916F00DFA04460D46204658
:104B9000294607B0BDE8F08FAF4B9E4225DD0029C6
:104BA00009DADDE90045224605F10043CDE900239D
:104BB0000BF100418B4652465B4685A1D1E90001CD
:104BC00015F00EFFDDE9002304460D4682A1D1E970
:104BD000000115F005FF9FED827B22462B468DEDEF
:104BE000007B15F0FFFE82468B4652465B465046E0
:104BF000594616F0ADF802460B468046894616F037
:104C0000A7F8424604460D464B465046594616F014
:104C10009FF875A3D3E90023CDE902012046294678
:104C200016F096F872A3D3E9002315F0DBFE2246B6
:104C30002B4616F08DF870A3D3E9002315F0D2FEB1
:104C400022462B4616F084F86DA3D3E9002315F015
:104C5000C9FE22462B4616F07BF86BA3D3E900234E
:104C600015F0C0FE22462B4616F072F868A3D3E971
:104C7000002315F0B7FE42464B4616F069F866A3CE
:104C8000D3E90023CDE904012046294616F060F857
:104C900063A3D3E9002315F0A5FE22462B4616F0A8
:104CA00057F861A3D3E9002315F09CFE22462B465A
:104CB00016F04EF85EA3D3E9002315F093FE2246CA
:104CC0002B4616F045F85CA3D3E9002315F08AFEC5
:104CD00022462B4616F03CF859A3D3E9002315F0E1
:104CE00081FE02460B46DDE9040115F07BFEDDE99D
:104CF000022316F02DF8DDE9004522462B4615F07B
:104D000071FE42464B4616F023F822462B4615F01C
:104D100069FE4DA3D3E9002304460D46DDE90201F7
:104D200016F016F822462B4615F05CFE0B4602469E
:104D3000804689465046594615F054FE464B9E42E1
:104D400004460D4600F38C80109B012B3BD002469D
:104D50000B4600203F4916F025F9002406460F4671
:104D60002046294652465B46CDE90067CDE902015F
:104D7000009415F035FEDDE900AB02460B464046D7
:104D8000494615F02DFE52465B4615F0E1FF5246AE
:104D900004460D465B46DDE9020115F0D9FF00220D
:104DA0002E4B15F01FFE02460B462046294615F0F5
:104DB00019FE32463B4615F0CBFF52465B4615F0D6
:104DC00011FE04460D462046294607B0BDE8F08F87
:104DD000182D4454FB21E93F075C143326A6813C7F
:104DE0000000000000000000D47ABF74702AFB3E6F
:104DF000E9A7F0320FB8123F68108D1AF726303F3E
:104E00001583E0FEC8DB573F93846EE9E326823FBB
:104E1000FE41B31BBAA1AB3F735360DBCB75F3BE4E
:104E2000A69237A0887E143F0165F2F2D844433F32
:104E3000280356C9226D6D3F37D60684F464963F29
:104E40007AFE10111111C13F635555555555D53F87
:104E5000FFFF2F3E0000F0BF2794E53F0000F03F2A
:104E6000109815F00BFF2246CDE900012B46204695
:104E7000294615F06DFFDDE90023CDE9020120464A
:104E8000294615F0AFFD02460B46DDE9020116F09A
:104E900089F842464B4615F0A3FD02460B465046A4
:104EA000594615F09DFD02460B4615F09BFD024646
:104EB0000B46DDE9000115F093FD0446B81700F03C
:104EC0000200C0F101000D4615F0D8FE02460B4667
:104ED0002046294615F03CFF04460D46204629464B
:104EE00007B0BDE8F08F5046594613F0B1FE0246B8
:104EF0000B460020044916F055F804460D4662E7BB
:104F000054465D465FE700BF0000F03F0000000030
:104F10002DE9F04FCC4A21F00043934285B0824600
:104F20008B460C4620D9C94A934200F2D780002C08
:104F300080F2A481ACA3D3E900235046594615F072
:104F400051FD0022002316F075F9002840F0D180B1
:104F5000A7A3D3E900235046594615F0F9FE0246AF
:104F60000B460020BA4994E1BA4A934200F2E58028
:104F7000B94A934240F22E81002301930022B74B9D
:104F80005046594615F0E4FE06460F4602460B46CB
:104F90005046594615F0DCFE97A3D3E9002304469A
:104FA0000D4615F0D5FE96A3D3E9002315F01AFDA2
:104FB00022462B4615F0CCFE93A3D3E9002315F02F
:104FC0000FFD22462B4615F0C3FE91A3D3E9002323
:104FD00015F008FD22462B4615F0BAFE8EA3D3E944
:104FE000002315F0FDFC22462B4615F0B1FE0022F1
:104FF0009B4B15F0F7FC8046894602460B4630462F
:10500000394615F0A5FE02460B460020954915F0DD
:10501000E7FC064602460B460F464046494615F059
:10502000DFFC3246804689463B465046594615F0DD
:105030008FFE02460B4600208B4915F0D1FC02463C
:105040000B464046494615F0ADFF22462B4615F06B
:105050007FFE019E02460B46002E4DD0DDE9026721
:1050600032463B4615F0BCFC52465B4615F070FEDE
:1050700032463B4615F0B4FC2B46224615F0B0FCF8
:10508000019B013306460F4600F02381019B012B53
:105090007BD0019A531C392B4FEA025500F228812C
:1050A000019A132A40F35581019BC3F57F740334A1
:1050B0000022230515F096FC02460B465046594641
:1050C00015F08EFC0022664B15F08CFC824605EB39
:1050D000010B5046594605B0BDE8F08F634A934234
:1050E0001BD9C1F313030343024640F01281002988
:1050F000EFDA00205E490DE05046594615F028FED3
:1051000022462B4615F06CFC02460B46504659468B
:1051100015F066FC05B0BDE8F08F41A3D3E900238C
:1051200016F0A6F800283FF402AF3FA3D3E900230E
:105130001046194615F00CFEECE74E4A934200F279
:10514000EC8000293AA3D3E9002339DA15F04AFCB0
:1051500039A7D7E900674FF0FF33804689460193AE
:1051600032463B464046494615F03AFC02460B465D
:1051700082468B464046494615F032FC32463B4655
:1051800015F02EFCCDE90201F8E600223A4B50461C
:10519000594616F04FF8002800F0CC80504659468A
:1051A00000222E4B15F01EFC02460B4630463946B7
:1051B00015F016FC00224FF0404315F0C9FDA9E799
:1051C00015F00EFC01238046894601931CA7D7E900
:1051D0000067C5E714A3D3E9002315F003FC0246DA
:1051E0000B468FE7AFF3008059F3F8C21F6EA5019D
:1051F000FE822B654715F73F2DC3096EB7FD8ABEAA
:105200003952E686CACFD03EB7DBAA9E19CE143FEC
:105210008555FE19A0015A3FF41011111111A13F3B
:10522000EF39FAFE422E86409C7500883CE4377EBA
:105230000000E0FE422EE63F763C7935EF39EABDCC
:10524000763C7935EF39EA3D79684340412E864016
:105250000000E0BF422ED63FFFFF8F3C0000E03F42
:105260000000F03F0000084000001840FFFFEF7F03
:105270000000F0BFB1A2F03F0000D0BF44A3D3E9CB
:1052800000235046594615F063FD02460B460020A8
:10529000414915F0A7FB16F00BF8019015F0EEFC54
:1052A00037A3D3E9002306460F4615F051FD024609
:1052B0000B465046594615F093FB33A3D3E9002320
:1052C000804689463046394615F042FD06460F466F
:1052D00046E702460B465046594615F081FB002230
:1052E0002D4B15F035FD00222B4B15F079FB11E706
:1052F00052465B4615F074FB02460B4600202749D8
:1053000015F06EFB6B1819460022244B15F068FB54
:1053100000E70B4615F066FBFCE61DA3D3E900236E
:1053200015F016FD002C02460B464FF00000AFDAD8
:105330001B49AEE732463B465046594615F050FBF6
:1053400002460B4615F04EFB0022144B15F04AFBAB
:10535000E0E64FF4001343FA02F452465B4615F0C0
:105360003FFBC4F17F57002607F5401702460B4666
:105370003046394615F034FBA8E600BFAFF3008095
:105380000000E0FE422EE63F763C7935EF39EA3DFB
:10539000FE822B654715F73F0000E03F0000F03F1D
:1053A0000000E0BF00000000F8B5C1F30A53044656
:1053B0000D460E4617460BBB21F00046034633430D
:1053C0001BD0354B002215F0C3FC344B9F420446E2
:1053D0000D4635DBC1F30A530E46363B3B4440F2E3
:1053E000FE72934232DC002B11DD26F0FF4626F4DC
:1053F000E00646EA035520462946F8BD40F2FF7212
:105400009342EBD102460B4615F0ECFAF8BD13F1CE
:10541000350F28DA4CF250339F4222462B460ADDE4
:1054200019A1D1E9000115F04DFA17A3D3E9002322
:1054300015F08EFCF8BD16A1D1E9000115F042FA75
:1054400013A3D3E9002315F083FCF8BD22462B46B5
:105450000DA1D1E9000115F035FA0BA3D3E9002322
:1054600015F076FCF8BD26F0FF4626F4E00636334C
:1054700046EA0355204629460022094B15F068FCF0
:10548000F8BD00BFAFF300809C7500883CE4377E18
:1054900059F3F8C21F6EA50100005043B03CFFFF56
:1054A0000000903C10B5054C237833B9044B13B180
:1054B0000448AFF300800123237010BD10050020C5
:1054C00000000000FCDA010008B5034B1BB10349E2
:1054D0000348AFF3008008BD000000001405002061
:1054E000FCDA0100154B002B08BF134B9D46A3F5BA
:1054F000803A00218B460F461348144A121A09F0CD
:10550000CDF80F4B002B00D098470E4B002B00D04E
:1055100098470020002104000D000D48002802D00B
:105520000C48AFF3008015F003FA2000290005F0C5
:10553000CDF815F0E9F900BF0000080000000220D6
:10554000000000000000000000040020B00C00205B
:10555000000000000000000070B504460E4600F098
:1055600047FA88B103681B6B05469847082C0CD096
:10557000A4F10903012B14D93246214610230D2032
:10558000BDE8704004F07AB870BD2B6828469B6A6D
:1055900098470228F0DC2B6828465B6A042198476C
:1055A000EAE72B6828469B6A98470528E4DC2B68C5
:1055B00028465B6A08219847DEE700BF38B52DED25
:1055C000028B054600F014FA044640B103681B6BD9
:1055D0009847032D03D8DFE805F02F363D06BDECD4
:1055E000028B002038BD20460CF016FD07EE900A15
:1055F0002046F8EEE78A0CF017FD07EE900A2046E9
:10560000B8EEE78A0CF018FD68EE087A07EE100A8B
:10561000E8EEA87AB8EEC77AE7EE077AF5EE407AB8
:10562000F1EE10FAB1EEE78A1BD4FDEEC87ABDECBC
:10563000028B17EE900A38BDBDEC028B2046BDE808
:1056400038400CF0E9BCBDEC028B2046BDE8384088
:105650000CF0EABCBDEC028B2046BDE838400CF0F3
:10566000EBBC17EE900A14F029F8DEE738B50446D3
:1056700000F0BEF958B103681B6B0546984744B16A
:10568000012C04D12846BDE838400CF00FBD0020A5
:1056900038BD2846BDE838400CF0E4BC10B50446DF
:1056A00000F0A6F928B1036821465B6ABDE8104006
:1056B000184710BD0048704716FCFFFF704700BF39
:1056C00010B5034B036004460CF006FD204610BDE8
:1056D00010CF010010B5054B036004460CF0FCFC34
:1056E000204616F0BDF8204610BD00BF10CF0100C7
:1056F0002DE9F041032184B00546512001F0DAFC88
:10570000DFF8E8C2AE4B044604F00F06C4F30317FB
:1057100014F4807408BF6346AA4831463A460BF039
:1057200037FC221C18BF012231463B4628460FF0A9
:10573000A1F80023AB60A4480BF02AFC4FF0FF3126
:10574000032001F0B7FCC0B204F052FA4FF0FF3171
:105750000446022001F0AEFCC0B204F049FA002C6D
:105760003BD0002839D00146204604F063F80646B5
:1057700000284DD04FF0FF31462001F09BFC32282D
:1057800004464ED04BDD382800F0B18068285FD148
:105790004FF0FF31012001F08DFCC0B204F028FA77
:1057A00080465C2016F065F805230193424600947C
:1057B00031462B4607460EF017F9AF603B68384676
:1057C000DB6A9847A86803681B6B98477F480BF013
:1057D000DFFB284604B0BDE8F0817D480BF0D8FB24
:1057E0004FF0FF31192001F065FCC0B204F000FA5F
:1057F0004FF0FF310446182001F05CFCC0B204F009
:10580000F7F90146204604F015F806460028B1D104
:1058100070480BF0BDFB284604B0BDE8F08130288D
:1058200016D14FF0FF31012001F044FCC0B204F06A
:10583000DFF98046502016F01CF8A4B20746052375
:1058400001934246009431462B460DF077FEB4E7B3
:1058500001243268CDE900440023D76AAB600F22EF
:105860000DF10F0332213046B847002800F0858043
:105870003368CDE900440F22DF6A30210DF10F03B8
:105880003046B84700284AD03368CDE900440D229D
:10589000DF6A38210DF10F033046B847002872D077
:1058A0003268CDE900440DF10F03D76A68217522F3
:1058B0003046B847002845D1682147480BF068FBBF
:1058C0004FF0FF31204601F0F5FBC0B204F090F933
:1058D00080465C2015F0CDFF05246823CDE9003417
:1058E000424631462B4607460EF07EF865E74FF0FC
:1058F000FF31012001F0DEFBC0B204F079F98046EF
:10590000502015F0B6FF05230746019342462B466B
:10591000009431460DF048FF304B3B604DE730219D
:105920002D480BF035FB30244FF0FF31012001F002
:10593000C1FBC0B204F05CF98046502015F099FF1D
:1059400007467CE726480BF023FBAF68002F7FF467
:1059500035AF4FF0FF31032001F0ACFBC0B204F0D3
:1059600047F930B11F480BF013FB284604B0BDE8DF
:10597000F0811D480BF00CFB4DE7322116480BF06F
:1059800007FB3224D0E7382113480BF001FB4FF01E
:10599000FF31204601F08EFBC0B204F029F98046A9
:1059A000502015F066FF052438230746CDE9003462
:1059B00042462B4631460DF0F7FE084B3B60FCE6B5
:1059C00078C1010088C10100A8C1010068C20100BE
:1059D000B8C10100CCC10100F8C1010040C1010003
:1059E000E4C101000CC2010048C2010080C10100F5
:1059F00038B5114C23680BB1986838BD4FF0FF31B2
:105A0000012001F057FBC0B204F0F2F840B10C20C5
:105A100015F02FFF0546FFF76BFE2560A86838BD1F
:105A20004FF0FF31032001F045FBC0B204F0E0F875
:105A30000028ECD138BD00BF2C05002008B501F0CE
:105A40006BFCFBF7D5FCBDE8084001F0C5B900BF11
:105A500008B501F061FCFBF73BFDBDE8084001F033
:105A6000BBB900BF08B501F057FC13F067F9BDE8FA
:105A7000084001F0B1B900BF08B501F04DFC13F0CA
:105A800059FDBDE8084001F0A7B900BF08B501F015
:105A900043FCFBF7BDFCBDE8084001F09DB900BF29
:105AA00008B501F039FC13F07BFBBDE8084001F0BC
:105AB00093B900BF08B501F02FFCFAF745FFBDE828
:105AC000084001F089B900BF08B501F025FC13F0CA
:105AD000BDFABDE8084001F07FB900BF70B5049E73
