:020000040801F1
:10000000008001207D540208897B0208D99A0108EA
:10001000D9000308D9000308D90003080000000034
:100020000000000000000000000000008D7B0208BE
:10003000917B020800000000957B0208997B020872
:10004000D9000308D9000308D9000308D900030820
:10005000D9000308D9000308357102083971020874
:100060003D7102084171020845710208B178020829
:10007000C1780208D1780208E1780208F178020814
:100080000179020811790208D9000308D900030890
:10009000D9000308D9000308D900030849710208F0
:1000A000D9000308D9000308D9000308D9000308C0
:1000B000B15B0208B95B0208C15B0208D900030802
:1000C000D9000308D9000308D9000308C176020843
:1000D000CD760208D9000308D9000308D900030827
:1000E0004D710208D9000308D9000308D90003089C
:1000F000D9000308D9000308D900030821790208B0
:10010000D9000308D9000308C95B0208D9760208A0
:10011000D9000308D9000308D9000308D90003084F
:10012000317902084179020851790208617902089F
:1001300071790208D9000308D9000308D90003081F
:10014000D9000308D9000308D9000308F15D0208AB
:100150008179020891790208A1790208D90003087F
:10016000D9000308D9000308D9000308D9000308FF
:10017000D9000308D9000308D900030800000000D3
:10018000D9000308D9000308D9000308D9000308DF
:10019000E5760208D9000308D9000308D90003084E
:1001A000D9000308D9000308D9000308D9000308BF
:1001B000D9000308000000002DE9F04F85B003913D
:1001C0000778A7F10903042B044607F07F0200F12A
:1001D0000100F5D9202AF3D02B2F04BF67780446FD
:1001E0002D2F75D09FED427B8DED007B4FF00008E9
:1001F0004FF000099FB34FF0000C25464FF0000A66
:10020000DFF8FCB0644619E01CF0FAFC8046894631
:1002100030461CF08BFC42464B461CF03BFB5246E2
:10022000804689465B46DDE900013CB31CF012FEC6
:10023000CDE90001A44615F8017F7FB1A7F1300692
:10024000092E52465B4640464946DDD9CCB92E2F91
:1002500017D115F8017F0124002FEFD12C4642461B
:100260004B46DDE900011CF0CBFC80468946039B30
:10027000404649461C6005B0BDE8F08F4FF0010CC8
:10028000D9E72C46BCF1000F29D042464B46DDE9A8
:1002900000011CF0B5FC07F0DF07452F80468946BA
:1002A000E5D10399681C0A221FF048FB1449024655
:1002B00000201DF055F802460B46404649461CF00A
:1002C0009FFC804689464046494605B0BDE8F08F10
:1002D0009FED097B67788DED007B013486E7DFF8C1
:1002E00024904FF000084046494605B0BDE8F08F25
:1002F000000000000000F03F000000000000F0BF20
:10030000000024400000F87F2DE9F0470023144648
:100310000022804689461CF0E5FE28B109F1004321
:1003200099462D232370013400220023404649467C
:100330001CF0CEFE28B13022002322706370BDE88D
:10034000F087404649461DF007FE1CF009FF73A3E5
:10035000D3E900230746494640461CF0C3FE002867
:100360004ED170A3D3E90023404649461CF0D8FE85
:10037000002845D10E2F07F1010540F3B980A7F100
:100380000E063246002062491CF0EAFF02460B4688
:10039000404649461CF05EFD00225E4B1CF07AFA96
:1003A0001DF01AF8002DA7F10F0E4FF0010C4DDDD6
:1003B000594FDFF87881012245F6F3294FF02E0AD4
:1003C000494508BF40454FF030030AD3B0EB080061
:1003D00061EB0901494508BF404503F10103F5D22E
:1003E000DBB2237050EA010304F101084AD19542BF
:1003F00052DD0132102A4FD0444677E90289DFE707
:10040000002F33DB3A46002041491CF0A9FF024689
:100410000B46404649461CF01DFD3BA3D3E9002393
:100420008046894601250026404649461CF0E8FBE7
:100430000022384B1CF02EFA1CF0CEFF002DBC46DB
:100440004FF0FF3E37464FF00006B1DC2346302226
:100450004FF02E0803F8022B84F80180FC4345D0AE
:100460001C4403F8012BA342FBD1A1E77A420020F0
:1004700027491CF075FF02460B46404649461CF0D2
:10048000BFFBCAE7954202F1010204BF84F801A054
:1004900004F10208102AAFD16EB14246302102F8B1
:1004A000011BC2F1010373444344002BF7DC2EEA25
:1004B000EE7301339844BCF1010F12D0BCF1000F70
:1004C0004FF0650388F80030C5BF2B2388F8013052
:1004D00008F1010108F102016046BDE8F04710F0A3
:1004E00079BB002388F80030BDE8F0871C465FE741
:1004F000C7F10E02002006491CF032FF3E460246BC
:100500000B46012790E700BF0000901EC4BCD642F6
:10051000000024400000E03F080903088DEDB5A06D
:10052000F7C6B03E50EFE2D6E41A4B4400407A10D2
:1005300070B54FF0FF3006F0F3F804466FF07F40DF
:1005400006F0EEF8064620461CF0E0FA00220C4BBE
:100550001CF056FB044630460D461CF0D7FA06A3A5
:10056000D3E900231CF076FC02460B4620462946C0
:100570001CF090F970BD00BF0000E0DFFFFF6F438B
:100580000000F03D000000002DE9F04F1D461389EA
:10059000AB4288BF536885B004468CBF53F8250032
:1005A000002090468A4606F02FFD0022904B1CF05A
:1005B00027FB1CF0D5FDB8F808206B1C9A4288BFB9
:1005C000D8F8042006468CBF52F82300002006F01D
:1005D0001BFD0022864B1CF013FB1CF0C1FDB8F87C
:1005E00008300235AB4288BFD8F8043007468CBFCC
:1005F00053F82500002006F007FD002EC4E900672F
:1006000040F3E280002F40F3DF8071A3D3E90023A1
:10061000002584F828501DF0C3FB002200238046EB
:1006200089461CF05FFD40B14046494668A3D3E9C6
:1006300000231CF02FF98046894667A3D3E90023E5
:10064000404649461CF06CFDC0B165A3D3E90023C8
:10065000404649461CF050FD80B1012340464946C2
:1006600084F8283060A3D3E900231CF013F958A3C1
:10067000D3E900231DF094FB8046894600225D4BA0
:10068000404649461CF0BCFA1DF0C2F801F1004397
:1006900000221946564B1CF0B3FA1CF061FD494686
:1006A000054640461DF070F80022514B1CF0A8FA98
:1006B0001CF056FDDAF804304F49B3F80CB0B3F82B
:1006C0000AA0A56007FB0BF303EB010806FB0AF683
:1006D000019388FB05234FEA124C00960E444CEA26
:1006E000034C06EA010383FB009A06EB0C0E0EEAAC
:1006F000010ED346CA468EFB00675246CDE902671B
:10070000120C42EA0B42DDE902AB0CEA010C8CFB55
:1007100000674FEA164956460A40360C46EA0B4631
:1007200049EA074982FB05AB5F46C144B0445646DF
:10073000CDE90267039FE060360C09EA010908EA87
:10074000010846EA074689FB05AB334488FB05569A
:10075000CDE9025655462D0C45EA0B45DDE902ABC5
:100760000B40AC4403EAE3770CEA010C554623EA5C
:10077000E37367454FEA154502EAE276A8BF67468C
:1007800045EA0B45634522EAE272B8BF6346AE44D0
:100790004E450EEA010EA8BF4E464A45B8BF4A462E
:1007A0007745A8BF77467345B8BF73464645A8BF8F
:1007B0004646C4E905634245B8BF424600980199E0
:1007C000206261622761E261204605B0BDE8F08FDA
:1007D000EA2E4454FB211940F4D64354FB21F93F3F
:1007E000320D337F7CD91240EA2E4454FB2109405C
:1007F0000000F0400000E03F0000FFFF00000000AC
:100800002DE9F04F2DED028B044683B0C0681CF03B
:100810008DF98046206989461CF088F98246606916
:100820008B461CF083F9024601F1004306460F4651
:10083000404649461DF046FA1CF0DAFCE0620546E7
:100840001DF008F9019028461DF0C8F8019B0546E7
:1008500018461CF07DF942464B461CF0D1F9804603
:10086000284689461CF074F932463B461CF0C8F90C
:1008700002460B46404649461CF00AF802460B4623
:10088000504659461DF01EFA1CF0B2FC002208EE3C
:10089000100A0023304639461CF042FC28B3B5EE5E
:1008A000C08AF1EE10FA1CDD11A7D7E9006718EE37
:1008B000100A1CF04DF902460B46304639461BF033
:1008C000E7FF32463B461BF0E5FF1CF091FCA062BF
:1008D000E38843F00203E38003B0BDEC028BBDE884
:1008E000F08F05A7D7E90067E1E784ED0A8AEFE713
:1008F000EA2E4454FB21F93FEA2E4454FB21F9BF70
:1009000008B511F0D5FBDFED0C7A07EE100A67EEA3
:10091000277A17EE900A1CF01BF905A3D3E90023F0
:100920001CF098FA1CF01CFC08BD00BFAFF300805F
:10093000EA2E4454FB2119400000B443000000009B
:1009400008B511F0C9FBDFED0C7A07EE100A67EE6F
:10095000277A17EE900A1CF0FBF805A3D3E90023D1
:100960001CF078FA1CF0FCFB08BD00BFAFF3008060
:10097000EA2E4454FB2119400000B443000000005B
:100980004F4A21F0004393422DE970430D4604463F
:100990004DDC4C4A93420E460FDC45A3D3E90023BD
:1009A0001BF078FF0022484B1CF0BAFB002854D003
:1009B0002B4620461946BDE87083444A934240DCEA
:1009C000B3F1804F49DD1CF0DBFE224680468946AC
:1009D0002B46204629461CF013F900223A4B1BF007
:1009E00059FF1DF0EDFE42464B461BF053FF0246F9
:1009F0000B46002034491CF02DFA424604460D46B1
:100A00004B46404649461BF045FF0B4602462946E9
:100A100020461BF03FFF01F0C7FE04460B46002EA8
:100A20000BDC03F1004320461946BDE870830B46FA
:100A300002461BF02FFF04460B4620461946BDE830
:100A400070831CF09DFE01F0AFFE1BA3D3E90023D1
:100A50001BF020FF04460B46E1E722462B462046CA
:100A600029461CF0CDF880468946204629461CF0D0
:100A700087FE00220446144B0D46404649461BF0B3
:100A800009FF1DF09DFE00220F4B1BF003FF0246E5
:100A90000B46404649461CF0DDF922462B461BF02A
:100AA000F9FE00F0B1FA04460B46B8E7AFF3008058
:100AB0009C7500883CE4377EEF39FAFE422EE63F13
:100AC000FFFFEF7FFFFF2F3E0000F03F0000B0412F
:100AD0002DE9F84FB84B21F000469E420D468A465C
:100AE00004460EDDB54B9E4200F3B08000F0AB80B3
:100AF000B34BB449B448BAF1000FC8BF1946BDE8BA
:100B0000F88FB24B9E4200F3B980A3F1DE739E4290
:100B100040F3A4804FF0FF3B22462B462046294657
:100B20001CF06EF802460B46804689461CF068F8B9
:100B300089A3D3E9002306460F461CF061F888A379
:100B4000D3E900231BF0A6FE32463B461CF058F8C2
:100B500085A3D3E900231BF09DFE32463B461CF0E3
:100B60004FF883A3D3E900231BF094FE32463B46A3
:100B70001CF046F880A3D3E900231BF08BFE32461D
:100B80003B461CF03DF87EA3D3E900231BF082FE18
:100B900042464B461CF034F87BA3D3E90023804641
:100BA0008946304639461CF02BF879A3D3E9002357
:100BB0001BF06EFE32463B461CF022F876A3D3E9CA
:100BC00000231BF065FE32463B461CF019F874A367
:100BD000D3E900231BF05CFE32463B461CF010F8C4
:100BE00071A3D3E900231BF053FE32463B461CF0B1
:100BF00007F802460B46404649461BF04BFE22468C
:100C00002B461BF0FDFFBBF1FF3F02460B465CD0BD
:100C10006F4B704E4FEACB0B5B44D3E900231BF0C4
:100C200037FE22462B461BF033FEB34402460B46EA
:100C3000DBE900011BF02CFEBAF1000F0CDA01F128
:100C40000041BDE8F88F00283FF452AF224620460D
:100C50002B4629461BF01EFEBDE8F88F54A3D3E9AE
:100C600000231BF017FE00225B4B1CF059FA0028F2
:100C70003FF450AF20462946BDE8F88F1CF080FDB8
:100C8000564B9E4204460D4625DCA3F550239E425A
:100C90004ADC02460B461BF0FDFD00224E4B1BF0CA
:100CA000F7FD002206460F464FF0804320462946B6
:100CB0001BF0F0FD02460B46304639461CF0CAF8E0
:100CC0004FF0000B04460D4626E7204629461BF050
:100CD000DFFDBDE8F88F424B9E421ADC0022414BFB
:100CE0001BF0D6FD002206460F463E4B2046294605
:100CF0001BF086FF0022384B1BF0CCFD02460B4652
:100D0000304639461CF0A6F84FF0020B04460D465B
:100D100002E702460B46002033491CF09BF84FF0D7
:100D2000030B04460D46F7E600222B4B1BF0B0FDEB
:100D3000002206460F46284B204629461BF0AAFDF6
:100D400002460B46304639461CF084F84FF0010B42
:100D500004460D46E0E600BF11DA22E33AAD903FCB
:100D6000EB0D76244B7BA93F513DD0A0660DB13FE2
:100D70006E204CC5CD45B73FFF8300922449C23F4A
:100D80000D5555555555D53F2F6C6A2C44B4A2BF0F
:100D90009AFDDE522DDEAD3F6D9A74AFF2B0B33FD7
:100DA000711623FEC671BC3FC4EB98999999C93F4F
:100DB0009C7500883CE4377EFFFF0F440000F07F05
:100DC000FB21F93FFB21F9BF182D4454FFFFDB3F06
:100DD00030090308100903080000F03FFFFFF23F4D
:100DE000FF7F03400000F83F0000F0BF000000005C
:100DF000C1F30A522DE9F843A2F2FF36132E0B4637
:100E00000D4604468846074621DC002E4CDB3A4A54
:100E100042FA06F901EA090202431DD034A3D3E9DC
:100E200000231BF037FD002200231CF079F948B1A4
:100E3000002D04DD4FF4801343FA06F6B04428EA8F
:100E4000090500273C4629462046BDE8F883332E95
:100E500006DDB6F5806F3AD019462046BDE8F88326
:100E6000A2F213424FF0FF3929FA02F919EA000FF2
:100E7000F2D01FA3D3E900231BF00CFD00220023B6
:100E80001CF04EF90028DDD0002D09DD142E25D0F0
:100E90000123C6F1340603FA06F6371928BF984431
:100EA00027EA09074546CDE711A3D3E900231BF044
:100EB000F1FC002200231CF033F90028C2D0002DE1
:100EC0000FDB55EA040707D000270C4DBAE70246AE
:100ED0001BF0E0FC0446C0E73D46B3E705F101081E
:100EE000DEE700274FF00045ACE700BFAFF300801E
:100EF0009C7500883CE4377EFFFF0F000000F03F48
:100F0000C1F30A522DE9F843A2F2FF36132E0B4625
:100F10000D460446884607461DDC002E3DDB384A58
:100F200042FA06F901EA0902024319D032A3D3E9D1
:100F300000231BF0AFFC002200231CF0F1F8D0B31B
:100F4000002D04DA4FF4801343FA06F6B04428EA81
:100F5000090500272FE0332E06DDB6F5806F2FD070
:100F600019462046BDE8F883A2F213424FF0FF393C
:100F700029FA02F919EA000FF2D01FA3D3E90023DE
:100F80001BF088FC002200231CF0CAF898B1002D49
:100F900024DB27EA090745460DE017A3D3E9002320
:100FA0001BF078FC002200231CF0BAF818B1002DC9
:100FB0000BDB00273D463C4629462046BDE8F8832A
:100FC00002461BF067FC0446CBE725F000430D4AC0
:100FD0001F43002F18BF15460027ECE7142E08D03A
:100FE0000123C6F1340603FA06F6371928BF9844E0
:100FF000CFE705F10108CCE79C7500883CE4377E1B
:10100000FFFF0F000000F0BF2DE9F04FD84B9942D1
:1010100087B00E46074643DDD64B99428A4600F319
:10102000F680D54B994240F330810B15A3F2FF3B7C
:1010300000220023CDE902230446D04BCAF3130A51
:101040009A454AF07F5500F3158145F44015204636
:1010500029460022CA4B1BF01BFC002204460D4609
:10106000C84B1BF0CDFD22462B461BF0C9FD804628
:10107000894627462E46CDE90089BAF1000F3AD1BC
:1010800000220023204629461CF022F8002800F008
:101090001D81BBF1000F40F0858100200146BAE0C0
:1010A000B94B21F000449C420A460FDD0022B74BA9
:1010B0001CF00EF8002800F0B18000220023002070
:1010C000B3491BF0C7FE07B0BDE8F08FB14B9C429F
:1010D00040F3B180B04B1A449A4240F2D6800022CD
:1010E000A84B1BF08DFD3A4633461BF089FDCDE938
:1010F00000014FF0000B00224FF08043384631468C
:101100001BF0C8FB02460B46384631461BF0A2FED8
:1011100002460B46804689461BF072FD80A3D3E948
:10112000002304460D461BF06BFD7FA3D3E900238B
:101130001BF0B0FB22462B461BF062FD7CA3D3E9DB
:1011400000231BF0A7FB22462B461BF059FD7AA378
:10115000D3E900231BF09EFB22462B461BF050FDDB
:1011600077A3D3E900231BF095FB22462B461BF007
:1011700047FD75A3D3E900231BF08CFB22462B46C9
:101180001BF03EFD72A3D3E900231BF083FB224634
:101190002B461BF035FDDDE9004522462B461BF0B2
:1011A00079FB42464B461BF02BFDCDE90401BBF118
:1011B000000F00F0A88058461BF0B8FC66A3D3E9E6
:1011C0000023804689461BF01BFD65A3D3E900235D
:1011D00004460D46404649461BF012FDDDE9022358
:1011E0001BF058FBDDE904231BF054FB02460B46C1
:1011F000DDE900011BF04CFB3A4633461BF048FB8F
:1012000002460B46204629461BF042FB03E00246FD
:101210000B461BF03FFB07B0BDE8F08F3A46334664
:10122000384631461BF034FB02460B461BF012FEDB
:1012300007B0BDE8F08F0022584B1BF02BFB0022BB
:1012400000231BF06DFF10B1554B9C4262DD3A4606
:101250003346384631461BF0D3FC0022494B1BF085
:10126000CFFC02460B46384631461BF011FB07B057
:10127000BDE8F08F45F40015CAF5801A20462946CE
:101280004FEAAA0A0BF1010BE3E63D4B3846314623
:1012900000221BF0FFFA0B15A3F2FF3BBBF1000F7E
:1012A00004460D468A4640F3C3803A4633461BF057
:1012B000EFFA02460B46002031491BF0E9FA2246BC
:1012C0002B461BF0C7FDCDE90201B6E626A3D3E904
:1012D0000023204629461BF093FC02460B460020C3
:1012E00027491BF0D5FA42464B461BF089FC0646BF
:1012F0000F46BBF1000F73D102460B46204629462C
:101300001BF0C6FA87E702460B46204629461BF02B
:10131000BFFAA6E7384631467DE700BFAFF300804D
:1013200044523EDF12F1C23F9FC678D0099AC33FB4
:10133000DE03CB966446C73FAF788E1DC571CC3FA8
:10134000599322942449D23F04FA97999999D93F05
:10135000935555555555E53F0000E0FE422EE63FBA
:10136000763C7935EF39EA3D555555555555E53FAC
:101370007982DA3FFFFFEF7FFFFF3F439DA006002A
:101380000000F03F0000E03FFFFFEF3F0000F0BF34
:10139000000050C3FFFF1F3E3C412D400000504362
:1013A000FFFF8F3C58461BF0C1FB27A3D3E9002366
:1013B00006460F461BF024FCDDE902231BF06AFA07
:1013C00023A3D3E9002304460D46304639461BF0DB
:1013D00017FC02460B46204629461BF05BFA1AE72B
:1013E00058461BF0A3FB1AA3D3E9002382468B4681
:1013F0001BF006FC14A3D3E900238046894650461F
:1014000059461BF0FDFBDDE902231BF043FA0246BF
:101410000B46304639461BF03BFA22462B461BF062
:1014200037FA02460B46404649461BF031FAF2E6CF
:101430000022094B1BF02CFA02460B463846314677
:101440001BF026FA3BE700BF763C7935EF39EA3DE1
:101450000000E0FE422EE63F0000F03F00000000EA
:1014600008B51CF0FDFC04A3D3E900231BF0F2FC3B
:1014700008BD00BFAFF30080EF39FAFE422EE63F11
:101480002DE9F043DFF8B4808BB004460D4600F040
:1014900057FF98F90030013306460F462CD02246FC
:1014A0002B46204629461BF045FE814620BB2046A0
:1014B00029461CF065F91CA3D3E900231BF030FE7C
:1014C000D0B11B4A98F90030CDF820900321CDE926
:1014D0000445CDE90245CDE9001293B1154900203C
:1014E000022BCDE9060111D11EF0E4F9222303609D
:1014F000089B9BB9DDE90667304639460BB0BDE86D
:10150000F0830D4B4FF06042CDE9062368461EF094
:1015100081F80028E8D0089B002BEBD01EF0CAF918
:10152000089B0360E6E700BF7DF8B98FCE338640A5
:10153000AC2403080000F07FFFFFEF479A03002070
:101540002DE9F043DFF8E4808BB004460D4600F04F
:10155000A3FF98F90030013306460F4633D02046EA
:1015600029461EF051F870B329A3D3E90023204681
:1015700029461BF0D5FD814650BB27A3D3E90023A4
:10158000204629461BF0AEFDE8B198F90030244A08
:10159000CDF82090042600200021022BCDE904453F
:1015A000CDE90245CDE90062CDE9060129D06846C2
:1015B0001EF030F828B3089B1BB11EF07BF9089B86
:1015C0000360DDE90667304639460BB0BDE8F083BD
:1015D000134A98F90030019203210022CDE9044515
:1015E000CDE90245009108922BB90E4B4FF06042B5
:1015F000CDE90623DBE70C490020022BCDE90601EB
:10160000D5D11EF057F922230360D4E7AFF3008051
:10161000EF39FAFE422E864051302DD5104987C051
:10162000B4240308FFFFEF470000F07F9A03002077
:101630002DE9F84FC44E21F00043B3420C46054655
:101640000DDD03F1404303F58013034340F0B980FF
:10165000002940F3408100200021BDE8F88FBB4EF7
:10166000B34208DCBA4A934200F3B5809CA1D1E9A9
:101670000001BDE8F88F0029C0F2708102460B46D8
:101680000020B4491BF004F90022B34B1BF0B8FA58
:1016900004460D461DF094F893A3D3E90023894630
:1016A0008046294620461BF0ABFA91A3D3E90023DC
:1016B0001BF0F0F822462B461BF0A2FA8EA3D3E9CA
:1016C00000231BF0E5F822462B461BF099FA8CA369
:1016D000D3E900231BF0DEF822462B461BF090FADC
:1016E00089A3D3E900231BF0D3F822462B461BF035
:1016F00087FA87A3D3E900231BF0CCF822462B46B8
:101700001BF07EFA84A3D3E9002382468B46204651
:1017100029461BF075FA82A3D3E900231BF0B8F821
:1017200022462B461BF06CFA7FA3D3E900231BF063
:10173000B1F822462B461BF063FA7DA3D3E90023C0
:101740001BF0A6F822462B461BF05AFA0022814BCA
:101750001BF0A0F802460B46504659461BF07AFB98
:1017600042464B461BF04CFA002682468B463246D8
:101770004B46304649461BF043FA02460B4620468C
:1017800029461BF085F8324604460D464B46404636
:1017900049461BF07FF802460B46204629461BF0BF
:1017A00059FB02460B46504659461BF073F8324629
:1017B0004B461BF06FF802460B461BF06BF8BDE87A
:1017C000F88F02460B461BF063F802460B461BF0EF
:1017D00041FBBDE8F88F02460B461BF011FA42A30D
:1017E000D3E9002306460F461BF00AFA40A3D3E9CB
:1017F00000231BF04FF832463B461BF001FA3EA394
:10180000D3E900231BF044F832463B461BF0F8F9BD
:101810003BA3D3E900231BF03DF832463B461BF0C7
:10182000EFF939A3D3E900231BF032F832463B46E7
:101830001BF0E6F936A3D3E900231BF02BF8324660
:101840003B461BF0DDF934A3D3E9002380468946EB
:10185000304639461BF0D4F931A3D3E900231BF0FD
:1018600017F832463B461BF0CBF92FA3D3E90023F0
:101870001BF010F832463B461BF0C2F92CA3D3E90B
:1018800000231BF005F832463B461BF0B9F9002255
:10189000304B1AF0FFFF02460B46404649461BF00C
:1018A000D9FA2A4623461BF0ABF902460B4622A181
:1018B000D1E900011AF0ECFF02460B46284621460A
:1018C0001AF0E6FF02460B4605A1D1E900011AF025
:1018D000DFFFBDE8F88F1AA1D1E9000179E700BF69
:1018E000182D4454FB21F93F09F7FD0DE13D023F5E
:1018F00088B20175E0EF493F3B8F68B52882A43F6D
:101900005544880E55C1C93F7D6FEB0312D6D43FB5
:10191000555555555555C53F82922EB1C5B8B33F63
:1019200059018D1B6C06E63FC88A599CE52A004088
:101930004B2D8A1C273A0340075C143326A6913CA2
:10194000182D4454FB210940FFFFEF3FFFFFDF3F0D
:101950000000603C0000F03F0000E03F00225C4BD4
:101960001AF098FF00225B4B1BF04AF940A3D3E921
:10197000002304460D461BF043F93FA3D3E900239F
:101980001AF088FF22462B461BF03AF93CA3D3E914
:1019900000231AF07DFF22462B461BF031F93AA3B3
:1019A000D3E900231AF076FF22462B461BF028F9D4
:1019B00037A3D3E900231AF06BFF22462B461BF016
:1019C0001FF935A3D3E900231AF064FF22462B4602
:1019D0001BF016F980468946204629461CF0F0FE89
:1019E0002FA3D3E9002306460F46204629461BF0C5
:1019F00007F92DA3D3E900231AF04AFF22462B460C
:101A00001BF0FEF82AA3D3E900231AF043FF224675
:101A10002B461BF0F5F828A3D3E900231AF038FF72
:101A200022462B461BF0ECF80022294B1AF032FF1D
:101A300002460B46404649461BF00CFA32463B46EE
:101A40001BF0DEF81EA3D3E900231AF021FF324673
:101A50003B461AF01FFF02460B461AF01BFF0246D8
:101A60000B4619A1D1E900011AF012FFB1E600BF3F
:101A700009F7FD0DE13D023F88B20175E0EF493FF6
:101A80003B8F68B52882A43F5544880E55C1C93F95
:101A90007D6FEB0312D6D43F555555555555C53F6F
:101AA00082922EB1C5B8B33F59018D1B6C06E63F3B
:101AB000C88A599CE52A00404B2D8A1C273A0340CE
:101AC000075C143326A6913C182D4454FB21094091
:101AD0000000F03F0000E03F414A91422DE9F84309
:101AE0000C46054637DD3F4A914209DD02F1795245
:101AF00091423EDD02460B461AF0CCFEBDE8F8836B
:101B000001F1404202F5801202432ED0B1F1804F24
:101B100037DC0022344B1AF0BBFE02460B4604466B
:101B20000D461AF0B7FE224606460F462B462046C3
:101B300029461BF065F802460B46304639461AF036
:101B4000A9FE1CF03DFE22462B461AF0A3FEBDE87E
:101B5000F843FFF759BA02460B461AF099FE0246BF
:101B60000B461BF077F9BDE8F88300200021BDE8A3
:101B7000F88300F019FE18A3D3E900231AF08AFEB7
:101B8000F1E702460B461BF03BF80022164B1AF019
:101B90007FFE1CF015FE2A468046894623462846CD
:101BA00021461AF077FE2A4606460F46234640464F
:101BB00049461AF06FFE02460B4600200A491BF008
:101BC00049F90B460246394630461AF061FEBDE837
:101BD000F84300F0E9BD00BFEF39FAFE422EE63FC0
:101BE000FFFFEF3FFFFFAF410000F03F00000000AC
:101BF0002DE9F04FB24B21F000479F4287B00D46D0
:101C0000044615DD07F1404707F5801703463B43BF
:101C100026D002460B461AF03BFE0B4602461BF04E
:101C200019F904460B462046194607B0BDE8F08F67
:101C3000A44B9F420E462EDCB7F1795F80F24A81B9
:101C400083A3D3E900231AF025FE00229E4B1BF04C
:101C500067FA00B32B462046194607B0BDE8F08F5F
:101C60007DA3D3E900231AF0CBFF7DA3D3E90023A2
:101C700006460F46204629461AF0C2FF02460B468A
:101C8000304639461AF006FE04460B4620461946F1
:101C900007B0BDE8F08F204629461BF071FD0246D3
:101CA0000B46002088491AF0F3FD0022874B1AF0FA
:101CB000A7FF6DA3D3E9002304460D461AF0A0FF49
:101CC0006BA3D3E900231AF0E5FD22462B461AF058
:101CD00097FF69A3D3E900231AF0DAFD22462B46C9
:101CE0001AF08EFF66A3D3E900231AF0D3FD224633
:101CF0002B461AF085FF64A3D3E900231AF0C8FD30
:101D000022462B461AF07CFF61A3D3E900231AF088
:101D1000C1FD22462B461AF073FF5FA3D3E90023CF
:101D2000CDE90001204629461AF06AFF5CA3D3E9F9
:101D300000231AF0ADFD22462B461AF061FF5AA38C
:101D4000D3E900231AF0A6FD22462B461AF058FFCD
:101D500057A3D3E900231AF09BFD22462B461AF025
:101D60004FFF594B00221AF095FD82468B462046C4
:101D70002946CDE902AB1CF023FD554B9F4280461E
:101D8000894600F31C8102460B461AF083FDDDE90B
:101D90000223CDE90401DDE900011BF05BF80246F6
:101DA0000B46DDE904011AF02BFF4FF0000ACDE9E4
:101DB000000152464B46504649461AF021FF024662
:101DC0000B46204629461AF063FD524604460D464E
:101DD0004B46404649461AF05DFD02460B462046FA
:101DE00029461BF037F802460B461AF053FD02460F
:101DF0000B461BA1D1E900011AF04AFD02460B4631
:101E0000DDE900011AF044FD524604460D464B46FA
:101E1000504649461AF03EFD02460B4626A1D1E93E
:101E200000011AF035FD02460B46204629461AF0FD
:101E30002FFD0B46024620A1D1E900011AF028FD32
:101E400004460B46002E3FF7EEAE03F10043EAE6F0
:101E50009C7500883CE4377E182D4454FB21F93FE3
:101E6000075C143326A6913C09F7FD0DE13D023FC6
:101E700088B20175E0EF493F3B8F68B52882A43FE7
:101E80005544880E55C1C93F7D6FEB0312D6D43F30
:101E9000555555555555C53F82922EB1C5B8B33FDE
:101EA00059018D1B6C06E63FC88A599CE52A004003
:101EB0004B2D8A1C273A0340182D4454FB21E93F3F
:101EC000FFFFEF3FFFFFDF3F0000F03F0000E03F7C
:101ED0003233EF3F02460B461AF092FE48A3D3E995
:101EE000002306460F461AF08BFE47A3D3E90023D2
:101EF0001AF0D0FC32463B461AF082FE44A3D3E9E6
:101F000000231AF0C5FC32463B461AF079FE42A384
:101F1000D3E900231AF0BEFC32463B461AF070FEAD
:101F20003FA3D3E900231AF0B3FC32463B461AF034
:101F300067FE3DA3D3E900231AF0ACFC32463B46D2
:101F40001AF05EFE3AA3D3E9002380468946304664
:101F500039461AF055FE38A3D3E900231AF098FC4D
:101F600032463B461AF04CFE35A3D3E900231AF063
:101F700091FC32463B461AF043FE33A3D3E90023DB
:101F80001AF086FC32463B461AF03AFE0022344BE9
:101F90001AF080FC02460B46404649461AF05AFFAA
:101FA00022462B461AF02CFE22462B461AF072FCD3
:101FB00004460B462046194607B0BDE8F08F52464E
:101FC0005B46DDE900011AF045FF42464B461AF038
:101FD00017FE42464B461AF05DFC02460B461AF0CD
:101FE00059FC1BA3D3E900231AF052FC0B4602460E
:101FF00019A1D1E900011AF04BFC04460B4621E778
:1020000009F7FD0DE13D023F88B20175E0EF493F60
:102010003B8F68B52882A43F5544880E55C1C93FFF
:102020007D6FEB0312D6D43F555555555555C53FD9
:1020300082922EB1C5B8B33F59018D1B6C06E63FA5
:10204000C88A599CE52A00404B2D8A1C273A034038
:10205000075C143326A6913C182D4454FB21F93F0C
:102060000000F03F000000002DE9F84F54421443F7
:1020700023F00048684E48EAD474B44284460F46C0
:102080001FD84442044321F0004A4AEAD474B442BF
:102090008B4616D803F1404404F5801414439E4641
:1020A0003DD09C1704F0020444EAD1745AEA0001BE
:1020B0000FD1022C50D0032C3CD145A1D1E9000115
:1020C00005E01046194662463B461AF0E3FBBDE8C0
:1020D000F88F58EA020126D0B0452DD0B24522D063
:1020E000AAEB08084FEA2858B8F13C0F38DC002B5F
:1020F0003ADA18F13C0F37DA00200021012C49D0E0
:10210000022C3AD0002CE2D033A3D3E900231AF0FA
:10211000BFFB33A3D3E900231AF0BAFBD7E7BDE82E
:10212000F84FFEF7D5BCBBF1000F11DB2EA1D1E9B2
:102130000001CCE73946CAE7C2452FD0022C0BD0AC
:10214000032CBAD0012C4FF0000031D00021BEE7A3
:1021500027A1D1E90001BAE721A1D1E90001B6E741
:1021600021A1D1E90001C9E7604639461AF072FEA3
:102170001BF006FBFEF7ACFCC0E717A3D3E9002376
:102180001AF086FB02460B4615A1D1E900011AF0B0
:102190007FFB9CE701F10043194698E7022C12D01F
:1021A000032C0CD0012C06D013A1D1E900018EE73D
:1021B0004FF000418BE712A1D1E9000187E712A19E
:1021C000D1E9000183E712A1D1E900017FE700BF57
:1021D000182D4454FB2109C0075C143326A6A13CEA
:1021E000182D4454FB210940182D4454FB21F93F7C
:1021F000182D4454FB21F9BF182D4454FB21E93F0D
:10220000182D4454FB21E9BFD221337F7CD902C071
:10221000D221337F7CD902400000F07F0000000013
:1022200043422DE9F047034321F00048404A48EA81
:10223000D37393420F462ED890454AD03D4B9845D4
:102240008A4636DD3C4B9845044645464CDD024601
:10225000434641461AF01EFB224606460F464346B9
:10226000002033491AF014FB02460B46304639462B
:102270001AF0F0FDFEF7C8FE304B00221AF0C0FC49
:10228000BAF1000F04460B460FDA01F10043204675
:102290001946BDE8F08702460B461AF0F9FA0B46DC
:1022A00002461AF0D7FD04460B4620461946BDE803
:1022B000F0871DA3D3E9002304461AF0EBFA0022AD
:1022C00000231AF02DFF70B13B4620461946BDE8A9
:1022D000F087002200231AF0BDFD04460B4620467D
:1022E0001946BDE8F087454622462B46204629463A
:1022F0001AF0D0FA22462B4606460F461AF080FC0A
:102300002246804689462B46002009491AF0C0FA29
:1023100002460B46404649461AF09CFD32463B4673
:102320001AF0B8FAA6E700BF9C7500883CE4377E37
:102330000000F03FFFFF2F3EFFFFDF3F0000E03FC8
:102340004D4A2DE9F84321F0004494420B460646DD
:102350001BDC4A4A944224DD494A944256DD494AEC
:10236000944248DD484A944271DD013294426BD078
:102370003FA3D3E90023104619461AF041FC064654
:102380000F4630463946BDE8F88304460D462246DE
:102390002B461AF035FC06460F4630463946BDE856
:1023A000F8831BF0EDF902F06FFC0022374B8046FA
:1023B00089461AF06FFAB4F1725F06460F46ECDBFD
:1023C00042464B46404649461AF01AFC32463B46C6
:1023D00004460D46304639461AF05CFA02460B4672
:1023E000204629461AF036FD0022284B1AF052FAF0
:1023F00006460F46D1E71BF0C3F900F04DF8002266
:10240000234B1AF0FDFB06460F46C6E71BF0B8F952
:1024100000F042F800221E4B06460F461AF0F0FB71
:10242000324604460D463B46002019491AF012FD7B
:1024300002460B46204629461AF02CFA06460F465D
:1024400030463946BDE8F883124A904290D830466B
:1024500019461BF095F900220D4B1AF0D1FB00F044
:102460001BF800220A4B04460D461AF0C9FB8EE702
:102470009C7500883CE4377EFFFFEF7F422ED63FFD
:10248000FFFF3540412E8640CD3386400000F03FAF
:102490000000E03F7DF8B98F2DE9F047B84F21F0FB
:1024A0000042BA4284B00C464FEAD176054612D9B2
:1024B000B44FBA4240F28E80C1F313030343024685
:1024C00040F0F780002E00F0818000252946284644
:1024D00004B0BDE8F087AC4B9A4200F2B880AB4B39
:1024E0009A4240F2D3804FF0000A2A4623462846FB
:1024F00021461AF085FB8CA3D3E9002306460F463C
:102500001AF07EFB8AA3D3E900231AF0C1F9324600
:102510003B461AF075FB88A3D3E900231AF0BAF9F9
:1025200032463B461AF06CFB85A3D3E900231AF030
:10253000AFF932463B461AF063FB83A3D3E900238D
:102540001AF0A8F932463B461AF05AFB02460B46EF
:10255000284621461AF09CF902460B4606460F46CD
:10256000284621461AF04CFB80468946BAF1000FF6
:1025700000F0B38032463B4600204FF080411AF015
:1025800087F902460B46404649461AF063FC02466C
:102590000B46DDE902011AF07BF9DDE900231AF0B0
:1025A00077F90B4602467A4900201AF071F96FF468
:1025B0007F739A4580F2AD800AF57A7A01EB0A5171
:1025C00000224FF0B8731AF01BFB0546284604B0F2
:1025D000BDE8F0875EA3D3E900231AF0A1FD00282F
:1025E0006FD1284621465CA3D3E900231AF07AFD77
:1025F00000287FF46AAF674B284603EBC6062146E6
:1026000057A3D3E900231AF0FBFAD6E900231AF006
:1026100041F91AF0A5FD82461AF088FA52A3D3E9CF
:10262000002306460F461AF0EBFA02460B462846F0
:1026300021461AF02DF94EA3D3E90023CDE900017C
:10264000304639461AF0DCFACDE9020115E0524B6A
:102650009A42D0D8514BF4002344D3E900231AF016
:1026600017F94F4B2344D3E90034CDE90001CDE9FC
:102670000234C6F1010AAAEB060ADDE90223DDE90C
:1026800000011AF005F905460C462EE73AA3D3E9F6
:1026900000231AF0FFF800223D4B1AF041FD0028FC
:1026A0003ED0284621460022394B1AF0F3F8054661
:1026B0008CE70B461AF0EEF80546284604B0BDE854
:1026C000F0872DA3D3E90023104619461AF098FA93
:1026D0000546284604B0BDE8F0873046394600225A
:1026E0004FF080431AF0D4F802460B464046494664
:1026F0001AF0B0FB2A4623461AF0CAF802460B46E7
:10270000002023491AF0C4F80546284604B0BDE865
:10271000F087054601EB0A51284604B0BDE8F08772
:102720008246E2E6AFF30080D0A4BE726937663E0F
:10273000F16BD2C541BDBB3E2CDE25AF6A56113FC1
:1027400093BDBE166CC1663F3E5555555555C53FA8
:10275000EF39FAFE422E864051302DD5104987C000
:10276000FE822B654715F73F0000E0FE422EE63F54
:10277000763C7935EF39EA3D9C7500883CE4377E3C
:10278000412E8640FFFFEF7F422ED63FFFFF2F3EB8
:102790000000F03F50090308B1A2F03F60090308B0
:1027A00070090308000000002DE9F04FB1F5801F0B
:1027B00085B006460F460B4680F2D08021F00042DD
:1027C000024300F0DA800029C0F2E9800022D64BF3
:1027D0001AF016FAD54A0B46934206460F466FF09A
:1027E000350E00F3C180C3F3130505F5152C0CF667
:1027F000647C0CF4801C8CF07F5282F440121C1517
:1028000042EA0507A4F2FF3474440022C84B304664
:10281000394604EB1C541AF03BF8AB1CC3F313030A
:10282000022B82468B464FF0000240F3AF804FF000
:1028300080431AF02FF802460B46504659461AF0CC
:1028400009FB064620460F461AF070F93246CDE9DC
:1028500002013B4630463946CDE900671AF0D0F90F
:1028600002460B46804689461AF0CAF99AA3D3E974
:10287000002306460F461AF0C3F999A3D3E90023B3
:102880001AF008F832463B461AF0BAF996A3D3E993
:10289000002319F0FFFF32463B461AF0B1F994A32A
:1028A000D3E9002319F0F6FF42464B461AF0A8F987
:1028B00091A3D3E9002380468946304639461AF071
:1028C0009FF98FA3D3E9002319F0E4FF32463B467A
:1028D0001AF096F98CA3D3E9002319F0DBFF3246F6
:1028E0003B461AF08DF90B4602464946404619F020
:1028F000D1FFA5F5C223C5F5D725A3F27A435135FB
:102900001D43002D06460F4640F387800022894B69
:10291000504659461AF074F952465B461AF070F95F
:1029200002460B46804689463046394619F0B2FFCA
:10293000DDE900231AF064F906460F46002C40F04A
:10294000818002460B464046494619F0A1FF0246E7
:102950000B465046594619F09BFF0BE0734A9342D1
:102960004FF0000E7FF73FAF32463B4630463946C8
:1029700019F090FF05B0BDE8F08F00220023002081
:102980006D491AF067FA05B0BDE8F08F00231AF020
:102990009FFB60B1002C7CD100200021EAE70246B9
:1029A00019F076FF002200231AF054FAE2E758A348
:1029B000D3E90023504659461AF022F902460B4645
:1029C00000205C4919F064FF524606460F465B46FC
:1029D000504659461AF014F902460B46304639461D
:1029E0001AF00EF906460F462CB320461AF09EF850
:1029F00049A3D3E90023804689461AF001F948A388
:102A0000D3E9002304460D46404649461AF0F8F83B
:102A100002460B46304639462CE002460B465046ED
:102A2000594619F035FFDDE900231AF0E9F80646AA
:102A30000F46002C47D132463B465046594619F0C6
:102A400027FF97E734A3D3E90023DDE902011AF059
:102A5000D7F833A3D3E9002304460D46DDE902018C
:102A60001AF0CEF832463B4619F014FF02460B46E8
:102A70004046494619F00CFF52465B4619F008FFE4
:102A800002460B462046294619F002FF05B0BDE874
:102A9000F08F20461AF04AF81FA3D3E90023064618
:102AA0000F461AF0ADF81EA3D3E9002304460D46E5
:102AB000304639461AF0A4F802460B46204629460D
:102AC00019F0E8FE56E7DDE9028913A3D3E90023F4
:102AD0004046494691E700BF44523EDF12F1C23FF3
:102AE000DE03CB966446C73F599322942449D23FD4
:102AF000935555555555E53F9FC678D0099AC33F24
:102B0000AF788E1DC571CC3F04FA97999999D93F3A
:102B1000555555555555D53F0000E0FE422EE63F30
:102B2000763C7935EF39EA3D00005043FFFFEF7FF7
:102B30000000F03F0000E03F000050C30000000034
:102B4000B1F5801F2DE9F84304460D460B4619DA0E
:102B500021F00042024359D000295FDB00223A4BAA
:102B60001AF04EF8394A0B4693420D4604466FF070
:102B700035010CDD22462B462046294619F08AFEF7
:102B8000BDE8F883314A93424FF00001F2DC18159A
:102B9000A0F2FF3008444FEAD0794844C3F3130849
:102BA00019F0C4FFC9F57F73033348EA035506469D
:102BB0000F4620462946FFF7F7FD1DA3D3E9002362
:102BC00080468946304639461AF01AF81AA3D3E9E6
:102BD000002304460D46404649461AF011F80246C5
:102BE0000B462046294619F055FE15A3D3E90023CC
:102BF00004460D46304639461AF002F802460B46A6
:102C00002046294619F046FEBDE8F883002200233D
:102C100000200F491AF01EF9BDE8F883024619F0AA
:102C200037FE002200231AF015F9A9E7AFF3008060
:102C3000362BF111F3FE593D0EE526157BCBDB3F1C
:102C400000609F501344D33F00005043FFFFEF7FCD
:102C5000000050C3000000002DE9F04F23F00045B4
:102C600055EA020493B00DD0794E21F00044B442ED
:102C70000F4682460FDD04F1404404F5801454EA07
:102C80000A035BD1734C0023CDE90034DDE9000178
:102C900013B0BDE8F08F984694464ED0B542EADCBA
:102CA0006B4EB54266D0002F8B468146CDE902239C
:102CB00064DB0026BCF1000F0ED1654B9D4246D06F
:102CC000644B9D4200F09780B8F1804F00F0B280D5
:102CD000614B984500F0CC83484659461AF050FDA8
:102CE000CDE90001BAF1000F06D1002C60D0594B9C
:102CF00027F040429A425BD0FF0F013F56EA07039C
:102D000000F08280554B9D4240F3B08003F1047384
:102D10009D4240F34184524B9C4240F38280B8F183
:102D2000000F40F3828048A3D3E9002310461946E0
:102D300019F066FFCDE90001A8E728B1494813B0B2
:102D4000BDE8F04F1CF068BCA542F7DCA8E704F131
:102D5000404303F5801353EA0A0393D0404B9C424F
:102D600040F39083B8F1000F5FDBDDE90234CDE979
:102D700000348BE7BCF1000F95D07CE73A4B9D42C5
:102D800037DCA3F154739D4293DD2B15A3F2FF337F
:102D9000142B40F3E983C3F134032CFA03F202FA53
:102DA00003F3634585D102F00102C2F1020681E717
:102DB000B8F1000F07DADDE90023002025491AF0F9
:102DC00049F8CDE90001002FBFF660AF04F140449F
:102DD00004F5801454EA060300F03C84012E7FF4CD
:102DE00055AFDDE90045224605F10043CDE900235A
:102DF0004CE702265EE7B8F1000FC0F24F83484669
:102E00005946CDE9000141E74A4648465B465946E6
:102E100019F03EFD02460B461AF01CF8CDE9000100
:102E200034E7B8F1000FFFF67EAF00230024CDE9B0
:102E300000342BE74A4648465B46594619F0E0FE07
:102E4000CDE9000122E700BF9C7500883CE4377E95
:102E50000000F07F0000F03F0000E03F0000E04194
:102E6000FFFFEF3F70120308FFFF3F43B4F5801FE1
:102E700080F28F83DDE900010022CF4B19F0C0FE04
:102E8000CDE900010C466FF0340C2315CB4DC4F393
:102E90001302A3F2FF3342F07F5403EB0C01AA426A
:102EA0000B9144F4401440F36F83C54B9A4240F3B6
:102EB000F38300220023CDE9082301310B91A4F50F
:102EC0008014CDE91023BF4B0022CDE90623002555
:102ED000DDE90001DDE906232146824619F0D8FC30
:102EE000A346DDE906238046894650462146CDE9C2
:102EF0000CAB19F0CFFC02460B460020B14919F08B
:102F0000A9FF0A460146CDE90E121346494602467C
:102F1000404619F075FE631043F0005382468B461D
:102F200003F500238C46CDE904AB5919D3460023A1
:102F3000CDE900BC0093DDE900AB002004460D465E
:102F400002460B465046594619F05AFE02460B46B9
:102F50004046494619F09CFCDDE906238046894637
:102F60002046294619F094FC02460B46DDE90C0187
:102F700019F08EFC52465B4619F042FE02460B46A3
:102F80004046494619F084FCDDE90E2319F038FE6D
:102F9000DDE90445CDE9060122462B4620462946B7
:102FA00019F02EFE72A3D3E9002304460D4619F052
:102FB00027FE71A3D3E9002319F06CFC22462B46AF
:102FC00019F01EFE6EA3D3E9002319F063FC22461C
:102FD0002B4619F015FE6CA3D3E9002319F05AFC17
:102FE00022462B4619F00CFE69A3D3E9002319F001
:102FF00051FC22462B4619F003FE67A3D3E90023B8
:1030000019F048FC2246804689462B462046294630
:1030100019F0F6FD02460B464046494619F0F0FD10
:10302000524604460D465B46DDE9040119F032FCC8
:10303000DDE9062319F0E4FD22462B4619F02AFCAF
:103040005246804689465B465046594619F0D8FD9F
:1030500000225D4BCDE90C0119F01CFC42464B46A9
:1030600019F018FC00980D46044622462B4650469F
:10307000594619F0C5FD002282468B46524B204628
:10308000294619F005FCDDE90C2319F001FC024684
:103090000B464046494619F0FBFBDDE9042319F0D5
:1030A000AFFD2246804689462B46DDE9060119F030
:1030B000A7FD02460B464046494619F0EBFB804609
:1030C000894602460B465046594619F0E3FB0098E4
:1030D00033A3D3E9002304460D4619F091FD52466F
:1030E000CDE904015B462046294619F0D1FB024692
:1030F0000B464046494619F0CBFB2BA3D3E90023EE
:1031000019F07EFD2AA3D3E9002380468946204694
:10311000294619F075FD02460B464046494619F00E
:10312000B9FBDDE9102319F0B5FB80460B98894601
:1031300019F0FCFC424682468B464B46DDE9040111
:1031400019F0A8FBDDE9082319F0A4FB52465B4601
:1031500019F0A0FB009852465B4604460D4619F054
:1031600097FBDDE9082319F093FBDDE904232DE04B
:10317000EF4E454A287ECA3F65DBC9934A86CD3F5C
:1031800001411DA96074D13F4D268F515555D53F42
:10319000FFAB6FDBB66DDB3F033333333333E33FDA
:1031A000000000E009C7EE3FFD033ADC09C7EE3F2F
:1031B000F5015B14E02F3EBE000040438E980300F3
:1031C00079B60B000000F03F0000084019F060FBEA
:1031D0000B4602464946404619F05AFB013E56EA64
:1031E000070382468B46DDE9020114BFD84BD94B59
:1031F0000022CDE9042302460B46CDE9002300233B
:103200000093DDE9006732463B4619F041FB224658
:103210002B4619F0F5FCDDE902238046894650462D
:10322000594619F0EDFC02460B464046494619F056
:1032300031FB3246804689463B4620462946CDE949
:10324000028919F0DDFC0B46024606460F46404651
:10325000494619F01FFBC04B994204460D468A4669
:1032600040F3268101F13F4303F5E003034340F0BF
:10327000F781A3A3D3E90023DDE9020119F00AFBDA
:103280003246804689463B462046294619F000FBD7
:1032900002460B464046494619F042FF002840F0DE
:1032A000DF81A8464FEA2853A3F2FE324FF4801381
:1032B00013415344C3F30A52A84DA2F2FF32154101
:1032C000C3F3130423EA05010020C2F1140B44F4F4
:1032D0008014BAF1000F02460B4644FA0BFB30464D
:1032E0003946B8BFCBF1000B19F0D2FA02460B46B3
:1032F00006460F46DDE9020119F0CCFA4FEA0B5AF7
:103300000D46002480A3D3E900232046294619F066
:1033100077FC3246804689463B462046294619F0CE
:10332000B7FA02460B46DDE9020119F0B1FA78A3BB
:10333000D3E9002319F064FC77A3D3E90023064600
:103340000F462046294619F05BFC02460B463046E4
:10335000394619F09FFA06460F4602460B4640468C
:10336000494619F097FA42464B4604460D4619F075
:103370008FFA02460B463046394619F089FA224642
:10338000804689462B462046294619F039FC64A31D
:10339000D3E9002306460F4619F032FC62A3D3E9B5
:1033A000002319F075FA32463B4619F029FC60A358
:1033B000D3E9002319F06EFA32463B4619F020FC9F
:1033C0005DA3D3E9002319F063FA32463B4619F0B6
:1033D00017FC5BA3D3E9002319F05CFA32463B46A5
:1033E00019F00EFC02460B462046294619F050FA09
:1033F00006460F4602460B462046294619F000FCB9
:103400000022CDE900014FF080433046394619F0E3
:103410003FFA02460B46DDE9000119F01BFD42466A
:1034200006460F464B462046294619F0E9FB424620
:103430004B4619F02FFA02460B463046394619F032
:1034400027FA22462B4619F023FA02460B460020A3
:103450003F4919F01DFA8A44BAF5801FC0F22D8148
:103460005146DDE9042319F0CBFBCDE900010DE461
:10347000002FFFF631AC4846594613B0BDE8F04F77
:103480001BF09EB9B8F1000FBFF6CFACDDE90234F6
:10349000009304F100430193FFF7F8BB4A465B46F3
:1034A00000202B4919F0D6FCCDE90001FFF7EEBB57
:1034B0002B4B21F00048984540F3E280294B0B4408
:1034C00003430AD132463B4619F0E2F9DDE9022313
:1034D00019F01CFE00283FF4E5AE1BA3D3E900233E
:1034E000DDE9040119F08CFB17A3D3E9002319F0DF
:1034F00087FBCDE90001FFF7C9BB00BFAFF3008038
:10350000FE822B654715973C00000000432EE63FE6
:10351000EF39FAFE422EE63F396CA80C615C20BE02
:10352000D0A4BE726937663EF16BD2C541BDBB3EC9
:103530002CDE25AF6A56113F93BDBE166CC1663FA7
:103540003E5555555555C53F59F3F8C21F6EA50157
:103550000000F03F0000F0BFFFFF8F40FFFF0F00B3
:10356000FFCB904000346F3FBCF1000F40F09180E2
:10357000C3F1140345FA03F202FA03F3AB4200F07D
:10358000A0806646FFF79CBB00220023CDE90823FC
:1035900097E44FF0000C78E45B4B9C427FF741AC22
:1035A0005A4B9C423FF7BBABDDE900010022574B71
:1035B00019F06EF946A3D3E9002304460D4619F02D
:1035C0001FFB45A3D3E9002382468B4620462946AC
:1035D00019F016FB0022CDE900014D4B204629468B
:1035E00019F00EFB02460B463DA1D1E9000119F08E
:1035F0004FF922462B4619F003FB02460B460020EA
:10360000444919F045F92246804689462B46204612
:10361000294619F0F5FA02460B464046494619F08C
:10362000EFFA31A3D3E9002319F0EAFA02460B4678
:10363000DDE9000119F02CF902460B468046894667
:103640005046594619F026F9002004460D465246C8
:103650005B46BBE5DDE9002310461946FFF7D8BB02
:1036600023A3D3E90023DDE9040119F0C9FA20A35B
:10367000D3E9002319F0C4FACDE90001FFF706BB36
:10368000244B98453FF70EAEDDE900239246934662
:1036900037E60026FFF720BB17A3D3E90023CDE9C7
:1036A000082317A3D3E90023CDE910231A4B0022E6
:1036B0004FF48025CDE906230AE45A4601F02CFD9B
:1036C000CFE602F00102C2F10206FFF7F9BA00BF2D
:1036D000000000604715F73F44DF5DF80BAE543E35
:1036E000555555555555D53FFE822B654715F73F26
:1036F0009C7500883CE4377E0000004003B8E23F40
:1037000006D0CF43EBFD4C3EFEFFEF3F0000F03F05
:103710000000D03F0000E03F0000F83F0000000044
:103720002DE9F04FC84E21F00047B7428FB00B464D
:1037300040F38F809246C54A97420C4626DC00290A
:10374000B7A3D3E9002340F38F8019F0A1F8C04B51
:103750009F4204460D4600F04681B3A3D3E90023FF
:1037600019F096F802460B46CAE90023204629467E
:1037700019F08EF8ACA3D3E9002319F089F80125DC
:10378000CAE9020128460FB0BDE8F08FB14A97425E
:1037900040F38980B04A974200F31C813D15A5F2A1
:1037A0001645A7EB055319461F46064619F0D8FCE7
:1037B00019F0BCF98046894602460B463046394628
:1037C000CDE9088919F064F80022A44B19F018FA21
:1037D0008946804619F0C4FC19F0A8F902460B4648
:1037E00006460F4640464946CDE90A6719F050F8AB
:1037F00000229A4B19F004FA00220023CDE90C01B3
:1038000019F066FC002800F05D810023304639463F
:10381000002219F05DFC002814BF01230223904A06
:10382000019202212A46009108A8514600F080FB2F
:10383000002C054614DADAF80420DAF80C3002F12C
:10384000004203F100434542CAF80420CAF80C3094
:1038500006E0C2E9000100250024C2E90245002576
:1038600028460FB0BDE8F08F19F014F8784B9F424E
:1038700004460D4600F008816BA3D3E9002319F03C
:1038800009F802460B46CAE900232946204618F0EB
:10389000FFFF65A3D3E9002318F0FCFF4FF0FF35CD
:1038A000CAE90201DCE719F06BFF61A3D3E9002349
:1038B0008046894619F0A4F900226A4B18F0EAFF05
:1038C00019F04EFC054619F031F955A3D3E9002350
:1038D000CDE9040119F094F902460B4640464946E9
:1038E00018F0D6FF50A3D3E90023CDE90201DDE9AA
:1038F000040119F085F91F2D8046894602460B46C2
:10390000DDE9020140F3B08018F0C2FF83460E46A5
:103910003F15C6F30A53FB1A102B40F3B08046A3A1
:10392000D3E90023DDE9040119F06AF980468946EC
:1039300002460B46DDE9020118F0AAFF02460B46DB
:10394000DDE90201CDE9062318F0A2FF42464B460D
:1039500018F09EFF3AA3D3E9002380468946DDE9AB
:10396000040119F04DF942464B4618F091FF0B4601
:10397000024680468946DDE9060118F089FFC1F359
:103980000A53FF1A312F83460E4600F39D800246EC
:103990000B46CAE90023DDE90623CDE902235A4696
:1039A0003346DDE9020118F073FF42464B4618F03A
:1039B0006FFF002C02460B46CAE90223BFF650AF48
:1039C00006F1004601F10041CAE900B6CAE9020168
:1039D0006D4245E7024618F05BFF0025CAE9020187
:1039E000CAE900013CE714A3D3E9002318F050FF13
:1039F00013A3D3E900230D46044618F049FF0246FD
:103A00000B46CAE900232946204618F041FF0CA3C3
:103A1000D3E9002318F03CFF0125CAE902011FE7A2
:103A200000004054FB21F93F3163621A61B4D03D7C
:103A300083C8C96D305FE43F0000601A61B4D03DB7
:103A40007370032E8A19A33BFB21E93F7BD9024007
:103A5000FB21F93FFB213941FFFFEF7F000070415F
:103A6000682503080000E03F18F012FF3A4B6A1E79
:103A7000834653F82230BB420E463FF449AF5A46C4
:103A80003346CAE900238AE72BA3D3E9002318F0C1
:103A900001FF2BA3D3E900230D46044618F0FAFEDC
:103AA00002460B46CAE900232946204618F0F0FEDC
:103AB00023A3D3E9002318F0EDFE4FF0FF35CAE948
:103AC0000201CDE60323AAE61FA3D3E90023DDE923
:103AD000040119F095F8DDE9068906460F4602460D
:103AE0000B464046494618F0D3FE02460B46404678
:103AF0004946CDE9022318F0CBFE32463B4618F08A
:103B0000C7FE13A3D3E9002306460F46DDE90401EF
:103B100019F076F832463B4618F0BAFE02460B46DC
:103B200080468946DDE9020118F0B2FE83460E4662
:103B3000A5E700BFAFF300800000601A61B4D03D7C
:103B40007370032E8A19A33B0000002E8A19A33B31
:103B5000C14920259A837B39E8240308000000002E
:103B6000574A2DE9F84F21F0004890450E46074688
:103B70002CDC544B0029B4BF534D544D98454FF0A5
:103B8000000411DC524B984526DC4BA3D3E90023FB
:103B900018F080FE00224F4B19F0C2FA002840D0E6
:103BA00038463146BDE8F88F4B4B984530DD4B4BDE
:103BB000984568DD0133984562D0384631463EA3CA
:103BC000D3E9002319F01CF8BDE8F88F02460B4634
:103BD00018F060FEBDE8F88F19F0D2FD01F054F83E
:103BE0003F4B984506460F4623DD0022394B18F01F
:103BF00051FE02460B463046394619F02BF9324643
:103C00003B4618F047FE22462B4618F0F9FFE1E745
:103C100019F0B6FDFEF740FC22462B4618F0F0FFE7
:103C2000D8E73846314619F0ABFD01F02DF80646CD
:103C30000F4632463B463046394618F02BFE324698
:103C400082468B463B463046394618F0D9FF002263
:103C5000804689461F4B3046394618F01BFE024607
:103C60000B464046494619F0F5F802460B465046C9
:103C7000594618F00DFE22462B4618F0C1FFA9E761
:103C8000184B984299D83846314619F079FD0022F0
:103C90000E4B18F0B5FFFEF7FFFB06460F46024637
:103CA0000B462046294618F0ABFF32463B4618F03B
:103CB000A7FF8FE7AFF300803374AC3C1F7BAC7F72
:103CC000FFFFEF7FFFFF35400000E0BF0000E03F57
:103CD000FFFF2F3E0000F03F412E8640CD3386404F
:103CE000FFFFEF3F7DF8B98F2DE9F04F21F000463F
:103CF000B6F1795F85B00C4692469B4605466BDA75
:103D000019F02EFA002800F0E2802A4623462846C1
:103D1000214618F075FF74A3D3E900238046894635
:103D200018F06EFF72A3D3E9002318F0B3FD4246EA
:103D30004B4618F065FF70A3D3E9002318F0A8FDE7
:103D400042464B4618F05CFF6DA3D3E9002318F000
:103D5000A1FD42464B4618F053FF6BA3D3E9002365
:103D600018F096FD42464B4618F04AFF68A3D3E987
:103D7000002318F08FFD42464B4618F041FFCDE975
:103D800000010022644B4046494618F039FFDDE946
:103D9000002306460F464046494618F031FF52467A
:103DA000804689465B462846214618F029FF024690
:103DB0000B464046494618F06BFD02460B4630461E
:103DC000394618F065FD02460B460020534918F0AD
:103DD0005FFD05B0BDE8F08F02460B4618F010FFFE
:103DE00041A3D3E900238046894618F009FF40A388
:103DF000D3E9002318F04EFD42464B4618F000FF71
:103E00003DA3D3E9002318F043FD42464B4618F08A
:103E1000F7FE3BA3D3E9002318F03CFD42464B4696
:103E200018F0EEFE38A3D3E9002318F031FD424626
:103E30004B4618F0E5FE36A3D3E9002318F02AFD1F
:103E40004B46424618F0DCFE354B9E42CDE9000160
:103E500097DD344B9E424FF000023DDCA6F5001387
:103E600000202E4916461F4618F012FDCDE902012A
:103E70000022294B4046494618F0C2FE32463B46D6
:103E800018F006FDDDE9002306460F464046494688
:103E900018F0B6FE5246804689465B4628462146C3
:103EA00018F0AEFE02460B464046494618F0F0FCBC
:103EB00002460B463046394618F0EAFC02460B46ED
:103EC000DDE9020118F0E4FC05B0BDE8F08F13490C
:103ED000002005B0BDE8F08F134B144FCDE902234D
:103EE0000026C5E7AFF30080D43888BEE9FAA8BD44
:103EF000C4B1B4BD9EEE213EAD529C804F7E923E39
:103F00009015CB19A001FA3E7751C1166CC1563FEE
:103F10004C5555555555A53F0000E03F0000F03F7A
:103F20003233D33F0000E93F0000E73F0000D23FBB
:103F30002DE9F04FADF5197DBE4CA29EBE4D54F853
:103F400026700793D41E85FB0465E417C4EBA50413
:103F500024EAE4741D46631CA3EB8303013D02EBDA
:103F6000C30305937B1909940497019506460B91A9
:103F7000A4EB05041BD423445D1C20AF4FF00008C4
:103F80004FF00009DDF88CA208E05AF8240018F080
:103F9000CDFD0134AC42E7E8020108D0002CF4DA90
:103FA000013440464946AC42E7E80201F6D1049BA1
:103FB000002BC0F2B083079BA6F10802DB0011467C
:103FC000039220AA02EB0309029301EB0308049B6E
:103FD00072AA02EBC30B0DF5E07A019B002BC0F235
:103FE0009581039C4D460026002775E90223F4E9DC
:103FF000020118F005FE02460B463046394618F01D
:1040000049FC444506460F46EFD1EAE80267DA4527
:1040100009F10809E1D1DDE90204049920448B008B
:1040200082460BA8A3F10802C31808930CAB1344F3
:104030000A938B4698AB03EBCB03BBF1000F53E91C
:10404000284529DD70AB03EBCB080DF130090022C8
:104050007A4B2046294618F0D3FD19F081F818F064
:1040600065FD0022764B06460F4618F0C9FD024654
:104070000B462046294618F00BFC19F071F878E938
:10408000022349F8040B3946304618F003FC70ABA4
:10409000984504460D46DAD1DDF8149020462946AD
:1040A0004A4601F039F800224FF07F5304460D468E
:1040B00018F0A6FDFCF724FF0022624B18F0A0FDCB
:1040C00002460B462046294618F0E2FB0D46044600
:1040D00019F046F8804618F029FD0B46024629469D
:1040E000204618F0D5FB4B46002B06460F4640F302
:1040F000E1800BF1FF320CA9C9F1180351F82250ED
:1041000045FA03F101FA03F30CA8EB1A40F8223048
:10411000C9F11705884443FA05F5002D2CDDBBF1E4
:10412000000F08F1010840F394820C9C002C40F031
:10413000A780BBF1010F0AD00CA9012251F8044F4E
:10414000531C002C40F09E809B451A46F6D1059BDF
:10415000002B0EDD012B00F09C81022B09D10BF10D
:10416000FF320CAB0CA953F82230C3F3150341F80E
:104170002230022D00F0AF80002200233046394665
:1041800018F0A6FF002800F06682049B0BF1FF39AF
:104190004B4510DC0BF180430CAA013B089802EB65
:1041A0008303002253F80419834242EA0102F9D141
:1041B000002A40F0B580049B0CAA013B52F8233042
:1041C000002B40F0A1800A9A012352F80419013310
:1041D0000029FAD05B440BF101099945069349DCAB
:1041E000099A079909EB020801EB0B0508F18048D1
:1041F00002EB030BA39B08F1FF3803EB880870ABBD
:1042000003EBC909A39B20A903EB8B0301EBC505B5
:10421000029358F8040F18F089FC019B002BC5E9A4
:10422000000105F1080B28DB083D039C0026002750
:104230000CE000BF082A0308ABAAAA2A0000703EBF
:10424000000070410000204075E80201F4E90223FB
:1042500018F0D6FC02460B463046394618F01AFBD9
:10426000544506460F46EFD1029B9845E9E80267A0
:104270005D46CED1DDF818B0DCE600260027F3E776
:10428000012300220CA9C4F180749B4541F822400F
:104290000EDD51F8232001EB8B0001EB83036FF05F
:1042A0007F4100E01A688A1A43F8042B8342F9D14F
:1042B00001244CE706D10BF1FF330CAA52F823502E
:1042C000ED152AE70022BE4B18F020FF002840F031
:1042D000B981054650E732463B460020B94918F0FF
:1042E000D7FA06460F46002C3FF446AF059AB5496B
:1042F000002000F011FF02460B463046394618F008
:10430000C7FA06460F4637E7012363E70026002772
:10431000EAE80267DA4509F108097FF45EAE7AE659
:104320000CAB059A53F82930183ACDE90685059269
:104330006BB909F18043013B0CA901EB830353F8EE
:10434000041909F1FF39183A0029F8D00592059AA5
:104350009C49002000F0E0FEB9F1000F04460D4634
:10436000C0F2E0814FEAC90370AA02EB0308089388
:104370000CAB03EB8906DFF850B208F108070436EE
:104380004FF0000A56F8040D18F0D0FB22462B46D9
:1043900018F036FC5B4667E9020152462046294682
:1043A00018F02EFC0CAB9E4204460D46EAD148ABF9
:1043B00003930193CDF8149009F10103DDF81090F7
:1043C0000293C3464FF0000AB9F1000FC0F23781E3
:1043D000DFF8F8815D4678A3D3E9002300260027A3
:1043E000002403E0544510DCF8E80223F5E802015C
:1043F00018F006FC02460B463046394618F04AFAD9
:104400000134A14506460F46ECDA019BE3E802675A
:104410000193029B0AF1010A9A45ABF1080BD3D133
:10442000A29BDDF81490032B2CD8DFE813F0E800F2
:10443000D300D3003F00079B00200146002B40F033
:1044400043810D460B460B990446C1E9004503998B
:104450000246D1E9000118F01BFAB9F1000F0CDD9A
:10446000039D0124F5E90223013418F013FAA14554
:10447000F8DA079B002B40F037810B460B99024678
:10448000C1E90223069B03F007000DF5197DBDE885
:10449000F08F0BF1FF320CAB0CA953F82230C3F3B1
:1044A000160341F8223064E648AB0393B9F1000FDC
:1044B00040F35581039ACDF808904FEAC90302EB07
:1044C0000308D8E900AB0193914658E902675246C8
:1044D0005B463046394618F0DDF904460D46024683
:1044E0000B463046394618F0D3F952465B4618F071
:1044F000D1F9C8E9000168E90245C145A246AB46C9
:10450000E3D1DDF80890B9F1010F40F32881019B58
:10451000039A1344D3E9006701939A460DF5947BFF
:104520005AE9028932463B464046494618F0B2F9FC
:1045300004460D4602460B464046494618F0A8F987
:1045400032463B4618F0A6F9CAE900016AE902457D
:10455000D34526462F46E3D10399019C002301F160
:104560001005083419461E46304674E9022318F037
:1045700091F9A5420346F6D10A460399D1E9008C88
:10458000D1E902E90799002900F0B1800B9C236171
:10459000069BC4F800800CF1004009F1004102F1D3
:1045A0000042606003F00700E1606261C4F808E067
:1045B0000DF5197DBDE8F08F00000040FB21F93FAB
:1045C0000000E03F0000F03F0000703E9809030843
:1045D00048AB0393B9F1000FFFF62DAF039F002006
:1045E00007EBC9060836014676E9022318F052F9AE
:1045F000B742F9D1079B002B3FF423AF64E0089C3E
:10460000039D083400222C4411461646304674E9B6
:10461000022318F03FF9A5420246F6D10B4607994E
:1046200009B103F1004319460B9B1046C3E9000191
:10463000069B03F007000DF5197DBDE8F08F0026FD
:104640000027E2E6BBF1000F08F101087DDD02253D
:104650006BE500247BE5CDE90685059D30463946AE
:104660006A4200F059FD00223E4B06460F4618F004
:104670004DFD00B300223C4B3046394618F0C0FADD
:1046800018F06EFD044618F051FA0022354B18F070
:10469000B7FA0B4602463946304618F0F9F818F0DA
:1046A0005FFD0BF101090CAB183543F82B000595A4
:1046B00043F829404BE63046394618F051FD0CAB23
:1046C000D94643F82B0042E60B9C0B4601F1004112
:1046D000C4E9000103990246D1E9000118F0D8F8B5
:1046E000B9F1000F3FF7BCAE01F10041C5E6184635
:1046F0000B9B4646744667464D461146C3E9040186
:10470000C3E90067C3E90245069B03F007000DF506
:10471000197DBDE8F08FA6F108030393079BDB002A
:10472000029378E4A29B032B3FF6ACAE01A252F8B1
:1047300023F000BF45470108D1450108D1450108D4
:10474000A94401080022134669E732463B4600208F
:10475000064918F09DF8022506460F460CE5002391
:104760001A460AE7000070410000703E0000F03F6A
:104770002DE9F04F21F00046B6F1795F85B00C4687
:1047800090469946054604DA18F0EAFC002800F045
:1047900085802A4623462846214618F031FA0646E7
:1047A0000F4602460B462846214618F029FA3EA33A
:1047B000D3E9002382468B463046394618F020FA6A
:1047C0003BA3D3E9002318F063F832463B4618F0C8
:1047D00017FA39A3D3E9002318F05CF832463B46B8
:1047E00018F00EFA36A3D3E9002318F051F8324638
:1047F0003B4618F005FA34A3D3E9002318F04AF831
:104800000E9BCDE900019BB30022334B4046494645
:1048100018F0F6F9DDE90023CDE9020150465946CA
:1048200018F0EEF902460B46DDE9020118F030F807
:1048300032463B4618F0E4F942464B4618F028F859
:1048400023A3D3E9002306460F465046594618F0E5
:10485000D7F902460B463046394618F01BF8024697
:104860000B462846214618F013F805B0BDE8F08F36
:1048700002460B463046394618F0C2F914A3D3E974
:10488000002318F005F852465B4618F0B9F92A469D
:10489000234617F0FFFF05B0BDE8F08F28462146FC
:1048A00005B0BDE8F08F00BF7CD5CF5A3AD9E53DC1
:1048B000EB9C2B8AE6E55A3E7DFEB157E31DC73ED1
:1048C000D561C119A0012A3FA6F810111111813F2D
:1048D000495555555555C53F0000E03F00000000C3
:1048E0002DE9F04FDA4C21F00046A64287B08A4607
:1048F00089461746984683461BDC18F031FC002891
:1049000039D1109B5A4601331343334300F0A88139
:10491000109B012B00F0B1815A4653460020CD492F
:1049200018F098FA04460D462046294607B0BDE81F
:10493000F08FC94B9E421EDD002904DA01F10043CD
:1049400008F100489A465A465346A3A1D1E900010E
:1049500017F09EFF3A46434604460D46A0A1D1E912
:10496000000117F095FF22462B4617F093FF002712
:1049700083468A46B8465A4653465846514618F02A
:104980003FF903460C46CDE9003402460B4618F0C9
:1049900037F9DDE9002304460D465846514618F024
:1049A0002FF991A3D3E90023CDE90201204629463E
:1049B00018F026F98EA3D3E9002317F06BFF2246E7
:1049C0002B4618F01DF98CA3D3E9002317F062FFE2
:1049D00022462B4618F014F989A3D3E9002317F0D7
:1049E00059FF22462B4618F00BF987A3D3E9002381
:1049F00017F050FF22462B4618F002F984A3D3E9A2
:104A0000002317F047FFDDE9002318F0F9F882A32F
:104A1000D3E90023CDE904012046294618F0F0F837
:104A20007FA3D3E9002317F035FF22462B4618F069
:104A3000E7F87DA3D3E9002317F02CFF22462B468D
:104A400018F0DEF87AA3D3E9002317F023FF2246FB
:104A50002B4618F0D5F878A3D3E9002317F01AFFF6
:104A600022462B4618F0CCF875A3D3E9002317F0A3
:104A700011FF02460B46DDE9040117F00BFFDDE9EB
:104A8000022318F0BDF83A46434617F003FFDDE96C
:104A9000002318F0B5F83A46434617F0FBFE6AA328
:104AA000D3E9002304460D46DDE9020118F0A8F819
:104AB00022462B4617F0EEFECDE900010B460246DA
:104AC0005146584617F0E6FE634B9E4204460D469B
:104AD0003EDC109B012B36D002460B4600205D4980
:104AE00018F0B8F900240F4606465A4653462046A9
:104AF000294617F0CDFEA04602460B46DDE900012F
:104B000017F0C6FE42463B4618F07AF8A94604461E
:104B10000D4642463B464046494618F071F8002291
:104B20004E4B17F0B7FE02460B462046294617F0BB
:104B3000B1FE32463B4618F063F842463B4617F05A
:104B4000A9FE04460D462046294607B0BDE8F08F71
:104B5000109817F0EBFF224606460F462B462046DC
:104B6000294618F04DF83246CDE902013B46204671
:104B7000294617F08FFE02460B46DDE9020118F0C8
:104B800069F9DDE9002317F083FE02460B4658461B
:104B9000514617F07DFE02460B4617F07BFE02469B
:104BA0000B463046394617F073FE04464FEAA970AB
:104BB00000F00200C0F101000D4617F0B7FF0246F9
:104BC0000B462046294618F01BF804460D462046A1
:104BD000294607B0BDE8F08F182D4454FB21E93F6A
:104BE000075C143326A6813CD47ABF74702AFB3E3E
:104BF000E9A7F0320FB8123F68108D1AF726303F40
:104C00001583E0FEC8DB573F93846EE9E326823FBD
:104C1000FE41B31BBAA1AB3F735360DBCB75F3BE50
:104C2000A69237A0887E143F0165F2F2D844433F34
:104C3000280356C9226D6D3F37D60684F464963F2B
:104C40007AFE10111111C13F635555555555D53F89
:104C5000FFFF2F3E0000F0BF2794E53F0000F03F2C
:104C60005846514618F08CFD02460B460020044978
:104C700018F0F0F804460D4665E75C46554662E7D5
:104C80000000F03F000000002DE9F04FCA4A21F07B
:104C90000043934285B00C460E46054620D9C74ACC
:104CA000934200F2D480002E80F2A081AAA3D3E91F
:104CB00000232846214617F0EDFD0022002318F0BE
:104CC00011FA002840F0CE80A5A3D3E9002328469E
:104CD000214617F095FF02460B460020B84990E1A7
:104CE000B84A934200F2E280B74A934240F22B81E5
:104CF000002301930022B54B2846214617F080FF80
:104D000006460F4602460B462846214617F078FF16
:104D100095A3D3E9002382468B4617F071FF94A335
:104D2000D3E9002317F0B6FD52465B4617F068FF43
:104D300091A3D3E9002317F0ABFD52465B4617F071
:104D40005FFF8FA3D3E9002317F0A4FD52465B4613
:104D500017F056FF8CA3D3E9002317F099FD5246B4
:104D60005B4617F04DFF0022994B17F093FD8046EC
:104D7000894602460B463046394617F041FF024647
:104D80000B460020934917F083FD064602460B466A
:104D90000F464046494617F07BFD3246804689461D
:104DA0003B462846214617F02BFF02460B460020C3
:104DB000894917F06DFD02460B464046494618F0FA
:104DC00049F852465B4617F01BFF019E02460B4610
:104DD000002E4AD0DDE9026732463B4617F058FD07
:104DE0002A46234617F00CFF32463B4617F050FD8B
:104DF0005B46524617F04CFD019B013306460F46B9
:104E000000F01F81019B012B78D0019A531C392B94
:104E10004FEA025600F22481019F132F40F3518183
:104E2000019BC3F57F7A0AF1030A00224FEA0A5375
:104E300017F030FD02460B462846214617F028FDA4
:104E40000022634B17F026FD731819461BE0634AD6
:104E500093421BD9C1F313030343024640F011816F
:104E6000002910DA00205E490DE02846214617F09F
:104E7000C7FE52465B4617F00BFD02460B4628461E
:104E8000214617F005FD05B0BDE8F08F40A3D3E93A
:104E9000002318F045F900283FF405AF3EA3D3E9FD
:104EA00000231046194617F0ABFEECE74D4A93423B
:104EB00000F2EB8000293AA3D3E9002339DA17F096
:104EC000E9FC39A7D7E900674FF0FF3380468946F0
:104ED000019332463B464046494617F0D9FC02460C
:104EE0000B4605460C464046494617F0D1FC324673
:104EF0003B4617F0CDFCCDE90201FBE628462146F2
:104F00000022394B18F0EEF8002800F0CB8028463C
:104F1000214600222D4B17F0BDFC02460B463046C1
:104F2000394617F0B5FC00224FF0404317F068FEF9
:104F3000A9E717F0ADFC01238046894601931CA721
:104F4000D7E90067C5E714A3D3E9002317F0A2FC53
:104F500002460B468FE700BF59F3F8C21F6EA5014A
:104F6000FE822B654715F73F2DC3096EB7FD8ABE3C
:104F70003952E686CACFD03EB7DBAA9E19CE143F7F
:104F80008555FE19A0015A3FF41011111111A13FCE
:104F9000EF39FAFE422E86409C7500883CE4377E4D
:104FA0000000E0FE422EE63F763C7935EF39EABD5F
:104FB000763C7935EF39EA3D79684340412E8640A9
:104FC0000000E0BF422ED63FFFFF8F3C0000E03FD5
:104FD0000000F03F0000084000001840FFFFEF7F96
:104FE0000000F0BFB1A2F03F0000D0BF40A3D3E962
:104FF00000232846214617F003FE02460B460020F8
:10500000414917F047FC18F0ABF8019017F08EFDFE
:1050100039A3D3E9002306460F4617F0F1FD0246F7
:105020000B462846214617F033FC35A3D3E900236D
:10503000804689463046394617F0E2FD06460F465F
:1050400047E732463B462846214617F021FC00221E
:105050002D4B17F0D5FD00222B4B17F019FC12E752
:105060002A46234617F014FC02460B460020274927
:1050700017F00EFC731819460022244B17F008FC99
:1050800001E70B4617F006FCFDE619A3D3E9002360
:1050900017F0B6FD002C02460B464FF00000AFDAC9
:1050A0001B49AEE732463B462846214617F0F0FB47
:1050B00002460B4617F0EEFB0022144B17F0EAFBFA
:1050C000E1E64FF4001C2A4623464CFA07FA17F093
:1050D000DFFBCAF17F594FF0000809F5401902467D
:1050E0000B464046494617F0D3FBADE6AFF30080D0
:1050F000FE822B654715F73F0000E0FE422EE63F9B
:10510000763C7935EF39EA3D0000E03F0000F03FA2
:105110000000E0BF00000000F8B5C1F30A530446E8
:105120000D460E4617460BBB21F00046034633439F
:105130001BD0354B002217F063FD344B9F420446D1
:105140000D4635DBC1F30A530E46363B3B4440F275
:10515000FE72934232DC002B11DD26F0FF4626F46E
:10516000E00646EA035520462946F8BD40F2FF72A4
:105170009342EBD102460B4617F08CFBF8BD13F1BE
:10518000350F28DA4CF250339F4222462B460ADD77
:1051900019A1D1E900011AF071FB17A3D3E900238B
:1051A00017F02EFDF8BD16A1D1E900011AF066FB3B
:1051B00013A3D3E9002317F023FDF8BD22462B46A5
:1051C0000DA1D1E900011AF059FB0BA3D3E900238B
:1051D00017F016FDF8BD26F0FF4626F4E00636333C
:1051E00046EA0355204629460022094B17F008FDE0
:1051F000F8BD00BFAFF300809C7500883CE4377EAB
:1052000059F3F8C21F6EA50100005043B03CFFFFE8
:105210000000903C10B5054C237833B9044B13B112
:105220000448AFF300800123237010BDC0030020A9
:1052300000000000882F030808B5034B1BB1034989
:105240000348AFF3008008BD00000000C403002045
:10525000882F030870B504460E4600F043FA88B163
:105260000368DB6A05469847082C0CD0A4F10903B3
:10527000012B14D93246214610230D20BDE8704081
:1052800004F074B870BD2B6828465B6A9847022802
:10529000F0DC2B6828461B6A04219847EAE72B6854
:1052A00028465B6A98470528E4DC2B6828461B6A79
:1052B00008219847DEE700BF38B52DED028B054683
:1052C00000F010FA044640B10368DB6A9847032DEA
:1052D00003D8DFE805F02F363D06BDEC028B002039
:1052E00038BD20460CF0BAFE07EE900A2046F8EED4
:1052F000E78A0CF0C1FE07EE900A2046B8EEE78A76
:105300000CF0C8FE68EE087A07EE100AE8EEA87AFC
:10531000B8EEC77AE7EE077AF5EE407AF1EE10FACA
:10532000B1EEE78A1BD4FDEEC87ABDEC028B17EE16
:10533000900A38BDBDEC028B2046BDE838400CF029
:105340008DBEBDEC028B2046BDE838400CF094BE0B
:10535000BDEC028B2046BDE838400CF09BBE17EE3A
:10536000900A19F0C5F8DEE738B5044600F0BAF93E
:1053700058B10368DB6A0546984744B1012C04D153
:105380002846BDE83840FBF7DBBA002038BD284688
:10539000BDE83840FBF7B4BA10B5044600F0A2F9F6
:1053A00028B1036821461B6ABDE81040184710BDAC
:1053B0000048704716FCFFFF704700BF10B5034B55
:1053C000036004460CF046FC204610BD6419030837
:1053D00010B5054B036004460CF03CFC20461AF067
:1053E0007CFE204610BD00BF641903082DE9F04182
:1053F0004FF0FF3184B00546462001F0D3FC682809
:105400000CBF33210321512001F0CCFCDFF8D0C2C6
:10541000A84B044604F00F06C4F3031714F4807479
:1054200008BF6346A44831463A460BF003FE221CEF
:1054300018BF012231463B4628460FF05FFA002391
:10544000AB609E480BF0F6FD4FF0FF31032001F0FA
:10545000A9FC04F0E9FE4FF0FF310446022001F000
:10546000A1FC04F0E1FE002C39D0002837D0014621
:10547000204604F07DFB0646002849D0382146200E
:1054800001F090FC322804464BD048DD382800F06B
:10549000AC8068285BD14FF0FF31012001F082FC25
:1054A00004F0C2FE80465C201AF020FE0523019322
:1054B0004246009431462B4607460EF097FAAF60FD
:1054C0003B6838469B6A9847A8680368DB6A984738
:1054D0007B480BF0AFFD284604B0BDE8F081794869
:1054E0000BF0A8FD4FF0FF31192001F05BFC04F038
:1054F0009BFE4FF0FF310446182001F053FC04F0EE
:1055000093FE0146204604F033FB06460028B5D141
:105510006D480BF08FFD284604B0BDE8F0813028BF
:1055200015D14FF0FF31012001F03CFC04F07CFE6E
:10553000804650201AF0DAFDA4B2074605230193F5
:105540004246009431462B460DF0FAFFB7E701249E
:105550003268CDE900440023576AAB600F220DF199
:105560000F0332213046B847002800F081803368AD
:10557000CDE900440F225F6A30210DF10F03304660
:10558000B847002848D03368CDE900440D225F6A4F
:1055900038210DF10F033046B84700286ED032682D
:1055A000CDE900440DF10F03576A6821752230469A
:1055B000B847002842D1682144480BF03BFD4FF02A
:1055C000FF31204601F0EEFB04F02EFE80465C2009
:1055D0001AF08CFD05246823CDE90034424631469B
:1055E0002B4607460EF002FA69E74FF0FF31012023
:1055F00001F0D8FB04F018FE804650201AF076FD2A
:1056000005230746019342462B46009431460EF08F
:10561000CDF82F4B3B6052E730212C480BF00AFDB0
:1056200030244FF0FF31012001F0BCFB04F0FCFD01
:10563000804650201AF05AFD07467FE725480BF0B8
:10564000F9FCAF68002F7FF43BAF4FF0FF31032030
:1056500001F0A8FB04F0E8FD30B11F480BF0EAFCB4
:10566000284604B0BDE8F0811C480BF0E3FC52E78B
:10567000322116480BF0DEFC3224D2E738211348E1
:105680000BF0D8FC4FF0FF31204601F08BFB04F00B
:10569000CBFD804650201AF029FD0524382307460B
:1056A000CDE9003442462B4631460EF07FF8084BD8
:1056B0003B6004E71C0A03082C0A03084C0A030891
:1056C0000C0B03085C0A0308700A03089C0A030811
:1056D000E8090308880A0308B00A0308EC0A03086B
:1056E000240A030838B5104C23680BB1986838BDFC
:1056F0004FF0FF31012001F055FB04F095FD40B162
:105700000C201AF0F3FC0546FFF770FE2560A86830
:1057100038BD4FF0FF31032001F044FB04F084FD5D
:105720000028EDD138BD00BFDC03002008B501F032
:105730006BFCFBF795FEBDE8084001F0C5B900BF62
:1057400008B501F061FCFBF7FBFEBDE8084001F085
:10575000BBB900BF08B501F057FC18F087F8BDE8E9
:10576000084001F0B1B900BF08B501F04DFC18F0D8
:10577000FBFDBDE8084001F0A7B900BF08B501F086
:1057800043FCFBF77DFEBDE8084001F09DB900BF7A
:1057900008B501F039FC18F097FABDE8084001F0AF
:1057A00093B900BF08B501F02FFCFBF7E9F8BDE89D
:1057B000084001F089B900BF08B501F025FC18F0D8
:1057C000D9F9BDE8084001F07FB900BF70B5049E6B
:1057D00096420C4624DB15466BB9042A19D0022ADE
:1057E00002D110F0010310D001462A46204608F0ED
:1057F00061FB002070BD10440D4410F8013D01F81C
:10580000013B8D42F9D1002070BD02880A80184604
:1058100070BD10F00303E7D102680A60184670BD3E
:105820000846002109F0D8FC4FF0FF3070BD00BFE2
:105830000830704740B1002905DB43688B4202DD28
:105840000844007A70470020704700BF30B100293B
:1058500004DB43688B42C4BF40180272704700BF2C
:1058600040B1002905DB4368994202DA0844007A16
:1058700070470020704700BF830704D1030F0CBF9F
:105880000120002070470120704700BF30B100297F
:1058900004DB43689942BCBF40180272704700BFE6
:1058A000F8B5002B20DB00291EDB46688E421BDB8F
:1058B0005468761AE51AB542A8BF3546002D13DBA9
:1058C000824202F108070C4600F108062A4605D07C
:1058D000F918301908F0EEFA0020F8BDF11838195F
:1058E0001AF037FC0020F8BD4FF0FF30F8BD00BFC4
:1058F0004068704710B4141E10DB4268A2420DDBF2
:1059000033EA230328BF1346121B08309A4220446F
:10591000A8BF1A465DF8044B09F05EBC5DF8044B65
:10592000704700BF10B443688B4200F1080418466A
:10593000A8BF084632EA220128BF19461B1A99421D
:105940002044A8BF19465DF8044B00F0B5BE00BF67
:1059500070B5002BBCBF43689B1A002A0E4620DBA3
:1059600044689918A1421CDC91421ADBCBB136F095
:10597000004116D05942B14214DAB34212DD083068
:10598000002E00EB020515DB9C1B2246A9192846B8
:105990001AF0DFFB324628190021BDE8704009F0FB
:1059A0001BBC70BD002211464FF0FF33BDE87040B4
:1059B000FFF7A0BF74429A19294628191AF0C9FBAB
:1059C000224628460021BDE8704009F005BC00BF12
:1059D00003460830596800F0EBBD00BF70B50546BE
:1059E00000206968490000F069FD6B68002B14DD38
:1059F0000A4EEB1D02465C782411991F345D9471A8
:105A00005C7804F00F04491B345DD4716C688C42DF
:105A100002F1020203F10103EDDC70BD1C0B03086F
:105A2000002BBCBF43689B1A002A30DB70B445686A
:105A30009C18AC4229DC944227DB33B331F000449C
:105A400023D00029B8BF01EB032191FBF3F403FB42
:105A50001411002900F10800B8BFC918024411440C
:105A60008A42134411D00C4604E08A4204460FD007
:105A700094420AD02046157810F8016B02F8016BA9
:105A800083422570F1D10C46F2E770BC7047704735
:105A90000146EDE700B583B04FF0FF3300930023DC
:105AA000FFF7FEFE03B05DF804FB00BF10B50C1E4F
:105AB0000EDD4168083002F0CFF81F2C07DC01230F
:105AC000A34020FA04F4013B444004EA030010BD63
:105AD000002010BD0146002000F0EEBD38B50021C9
