:020000040002F8
:106000000000042045B703006DB703006FB703001D
:1060100071B7030073B7030075B7030000000000F9
:1060200000000000000000000000000077B703003F
:1060300079B70300000000007BB703007DB70300C1
:106040007FB703007FB70300E5B50300A9B50300E0
:10605000BDB503007FB70300EDA903007FB70300C0
:1060600039B2030041B2030049B203007FB7030015
:106070007FB703007FB703007FB703007FB703003C
:106080007FB703007FB703007FB703007FB703002C
:106090007FB703007FB703007FB703007FB703001C
:1060A0007FB703007FB7030051B2030059B203006A
:1060B0007FB703007FB7030000000000000000006E
:1060C0007FB703007FB703007FB70300D1B503009C
:1060D0007FB703007FB703007FB703007FB70300DC
:1060E0000DB603007FB703007FB703000000000078
:1060F000000000007FB7030000000000F9B50300B6
:10610000000000000000000000000000000000008F
:10611000000000000000000000000000000000007F
:10612000000000000000000000000000000000006F
:10613000000000000000000000000000000000005F
:10614000000000000000000000000000000000004F
:10615000000000000000000000000000000000003F
:10616000000000000000000000000000000000002F
:10617000000000000000000000000000000000001F
:10618000000000000000000000000000000000000F
:1061900000000000000000000000000000000000FF
:1061A00000000000000000000000000000000000EF
:1061B00000000000000000000000000000000000DF
:1061C00000000000000000000000000000000000CF
:1061D00000000000000000000000000000000000BF
:1061E00000000000000000000000000000000000AF
:1061F000000000000000000000000000000000009F
:106200007CB0EE877CB0EE87FF00FF00FF00FF0050
:10621000FF00FF00FF00FF00FF00FF00FF00FF0086
:10622000FF00FF00FF00FF00FF00FF00FF00FF0076
:10623000FF00FF00FF00FF002DE9F04F85B0039144
:106240000778A7F10903042B044607F07F0200F149
:106250000100F5D9202AF3D02B2F04BF677804461C
:106260002D2F75D09FED427B8DED007B4FF0000808
:106270004FF000099FB34FF0000C25464FF0000A85
:10628000DFF8FCB0644619E017F01EFF804689462F
:10629000304617F0AFFE42464B4617F05FFD5246C0
:1062A000804689465B46DDE900013CB318F036F8CC
:1062B000CDE90001A44615F8017F7FB1A7F13006B2
:1062C000092E52465B4640464946DDD9CCB92E2FB1
:1062D00017D115F8017F0124002FEFD12C4642463B
:1062E0004B46DDE9000117F0EFFE80468946039B2F
:1062F000404649461C6005B0BDE8F08F4FF0010CE8
:10630000D9E72C46BCF1000F29D042464B46DDE9C7
:10631000000117F0D9FE07F0DF07452F80468946B8
:10632000E5D10399681C0A2217F0FCFC14490246C7
:10633000002018F079FA02460B464046494617F00D
:10634000C3FE804689464046494605B0BDE8F08F09
:106350009FED097B67788DED007B013486E7DFF8E0
:1063600024904FF000084046494605B0BDE8F08F44
:10637000000000000000F03F000000000000F0BF3F
:10638000000024400000F87F2DE9F0470023144668
:1063900000228046894618F009F928B109F1004326
:1063A00099462D232370013400220023404649469C
:1063B00018F0F2F828B13022002322706370BDE893
:1063C000F0874046494616F0F1F918F02DF973A30D
:1063D000D3E9002307464946404618F0E7F800286D
:1063E0004ED170A3D3E900234046494618F0FCF88B
:1063F000002845D10E2F07F1010540F3B980A7F120
:106400000E0632460020624918F00EFA02460B468C
:106410004046494617F082FF00225E4B17F09EFC73
:1064200018F03EFA002DA7F10F0E4FF0010C4DDDD4
:10643000594FDFF87881012245F6F3294FF02E0AF3
:10644000494508BF40454FF030030AD3B0EB080080
:1064500061EB0901494508BF404503F10103F5D24D
:10646000DBB2237050EA010304F101084AD19542DE
:1064700052DD0132102A4FD0444677E90289DFE726
:10648000002F33DB3A460020414918F0CDF902468F
:106490000B464046494617F041FF3BA3D3E9002392
:1064A00080468946012500264046494617F00CFEE5
:1064B0000022384B17F052FC18F0F2F9002DBC46C0
:1064C0004FF0FF3E37464FF00006B1DC2346302246
:1064D0004FF02E0803F8022B84F80180FC4345D0CE
:1064E0001C4403F8012BA342FBD1A1E77A42002010
:1064F000274918F099F902460B464046494617F0DD
:10650000E3FDCAE7954202F1010204BF84F801A04D
:1065100004F10208102AAFD16EB14246302102F8D0
:10652000011BC2F1010373444344002BF7DC2EEA44
:10653000EE7301339844BCF1010F12D0BCF1000F8F
:106540004FF0650388F80030C5BF2B2388F8013071
:1065500008F1010108F102016046BDE8F04710F0C2
:106560007DB8002388F80030BDE8F0871C465FE75F
:10657000C7F10E020020064918F056F93E460246C1
:106580000B46012790E700BF0000901EC4BCD64216
:10659000000024400000E03FA0F303008DEDB5A013
:1065A000F7C6B03E50EFE2D6E41A4B4400407A10F2
:1065B00070B54FF0FF3006F017FA04466FF07F40D9
:1065C00006F012FA0646204617F004FD00220C4B96
:1065D00017F07AFD044630460D4617F0FBFC06A383
:1065E000D3E9002317F09AFE02460B4620462946BF
:1065F00017F0B4FB70BD00BF0000E0DFFFFF6F438A
:106600000000F03D000000002DE9F04F1D46138909
:10661000AB4288BF536885B004468CBF53F8250051
:10662000002090468A4606F053FE0022904B17F059
:106630004BFD17F0F9FFB8F808206B1C9A4288BF91
:10664000D8F8042006468CBF52F82300002006F03C
:106650003FFE0022864B17F037FD17F0E5FFB8F834
:1066600008300235AB4288BFD8F8043007468CBFEB
:1066700053F82500002006F02BFE002EC4E9006729
:1066800040F3E280002F40F3DF8071A3D3E90023C1
:10669000002584F8285015F0ABFF00220023804627
:1066A000894617F083FF40B14046494668A3D3E9C5
:1066B000002317F053FB8046894667A3D3E90023E4
:1066C0004046494617F090FFC0B165A3D3E90023C7
:1066D0004046494617F074FF80B1012340464946C1
:1066E00084F8283060A3D3E9002317F037FB58A3C0
:1066F000D3E9002315F07CFF8046894600225D4BDC
:106700004046494617F0E0FC15F0A6FC01F10043B5
:1067100000221946564B17F0D7FC17F085FF494663
:106720000546404615F054FC0022514B17F0CCFCB6
:1067300017F07AFFDAF804304F49B3F80CB0B3F829
:106740000AA0A56007FB0BF303EB010806FB0AF6A2
:10675000019388FB05234FEA124C00960E444CEA45
:10676000034C06EA010383FB009A06EB0C0E0EEACB
:10677000010ED346CA468EFB00675246CDE902673A
:10678000120C42EA0B42DDE902AB0CEA010C8CFB75
:1067900000674FEA164956460A40360C46EA0B4651
:1067A00049EA074982FB05AB5F46C144B0445646FF
:1067B000CDE90267039FE060360C09EA010908EAA7
:1067C000010846EA074689FB05AB334488FB0556BA
:1067D000CDE9025655462D0C45EA0B45DDE902ABE5
:1067E0000B40AC4403EAE3770CEA010C554623EA7C
:1067F000E37367454FEA154502EAE276A8BF6746AC
:1068000045EA0B45634522EAE272B8BF6346AE44EF
:106810004E450EEA010EA8BF4E464A45B8BF4A464D
:106820007745A8BF77467345B8BF73464645A8BFAE
:106830004646C4E905634245B8BF424600980199FF
:10684000206261622761E261204605B0BDE8F08FF9
:10685000EA2E4454FB211940F4D64354FB21F93F5E
:10686000320D337F7CD91240EA2E4454FB2109407B
:106870000000F0400000E03F0000FFFF00000000CB
:1068800008B511F0B3F9DFED0C7A07EE100A67EEE8
:10689000277A17EE900A17F0BFFB05A3D3E9002370
:1068A00017F03CFD17F0C0FE08BD00BFAFF300803D
:1068B000EA2E4454FB2119400000B44300000000BC
:1068C00008B511F0A7F9DFED0C7A07EE100A67EEB4
:1068D000277A17EE900A17F09FFB05A3D3E9002350
:1068E00017F01CFD17F0A0FE08BD00BFAFF300803D
:1068F000EA2E4454FB2119400000B443000000007C
:10690000494A21F0004393422DE9704304460D4665
:1069100049DC464A93420E460EDC3FA3D3E90023EE
:1069200017F01CFA0022424B17F05EFE00284AD0F6
:1069300020462946BDE870833E4A934239DCB3F1D4
:10694000804F40DD15F040FB2246804689462B46AD
:106950002046294617F0B8FB0022354B17F0FEF908
:1069600016F0CEF942464B4617F0F8F902460B46B0
:1069700000202F4917F0D2FC424604460D464B46F4
:106980004046494617F0EAF902460B46204629469A
:1069900017F0E4F902F040F8002E08DC01F10043A2
:1069A0001946BDE8708302460B4617F0D7F9BDE8DB
:1069B000708315F009FB02F02FF819A3D3E9002327
:1069C00017F0CCF9E8E722462B462046294617F077
:1069D0007BFB804689462046294615F0F5FA0022C1
:1069E00004460D46124B4046494617F0B7F916F0DB
:1069F00087F900220E4B17F0B1F902460B464046CC
:106A0000494617F08BFC22462B4617F0A7F900F0F9
:106A1000A7FAC1E7AFF300809C7500883CE4377E9D
:106A2000EF39FAFE422EE63FFFFFEF7FFFFF2F3EDA
:106A30000000F03F0000B0412DE9F84FBE4B21F0BF
:106A400000469E4204460D468A460EDDBB4B9E42E2
:106A500000F3B18000F0AC80BAF1000F40F3EA809F
:106A600099A1D1E90001BDE8F88FB54B9E4200F332
:106A7000BA80A3F1DE739E4240F3A5804FF0FF3B46
:106A800022462B462046294617F01EFB02460B469F
:106A90008046894617F018FB8DA3D3E900230646EC
:106AA0000F4617F011FB8CA3D3E9002317F056F91A
:106AB00032463B4617F008FB89A3D3E9002317F0C1
:106AC0004DF932463B4617F0FFFA87A3D3E900237E
:106AD00017F044F932463B4617F0F6FA84A3D3E99F
:106AE000002317F03BF932463B4617F0EDFA82A33C
:106AF000D3E9002317F032F942464B4617F0E4FA87
:106B00007FA3D3E90023804689463046394617F0F3
:106B1000DBFA7DA3D3E9002317F01EF932463B468A
:106B200017F0D2FA7AA3D3E9002317F015F9324609
:106B30003B4617F0C9FA78A3D3E9002317F00CF904
:106B400032463B4617F0C0FA75A3D3E9002317F08D
:106B500003F932463B4617F0B7FA02460B46404669
:106B6000494617F0FBF822462B4617F0ADFABBF169
:106B7000FF3F02460B4661D0724B734E4FEACB0B80
:106B80005B44D3E9002317F0E7F822462B4617F0C1
:106B9000E3F8B34402460B46DBE9000117F0DCF8EA
:106BA000BAF1000F0DDA01F100431946BDE8F88F84
:106BB00000283FF451AF22462B462046294617F0C5
:106BC000CDF8BDE8F88F58A3D3E9002317F0C6F835
:106BD00000225E4B17F008FD00283FF44FAF20461F
:106BE0002946BDE8F88F15F0EFF9594B9E4204464F
:106BF0000D4629DCA3F550239E424EDC02460B468F
:106C000017F0ACF80022514B17F0A6F80022064608
:106C10000F464FF080432046294617F09FF8024662
:106C20000B463046394617F079FB4FF0000B04460F
:106C30000D4625E73EA1D1E90001C2E720462946DD
:106C400017F08AF8BDE8F88F424B9E421ADC00220A
:106C5000414B17F081F8002206460F463E4B204676
:106C6000294617F031FA0022384B17F077F8024620
:106C70000B463046394617F051FB4FF0020B0446E5
:106C80000D46FDE602460B460020344917F046FB50
:106C90004FF0030B04460D46F2E600222B4B17F093
:106CA0005BF8002206460F46284B2046294617F07F
:106CB00055F802460B463046394617F02FFB4FF089
:106CC000010B04460D46DBE6182D4454FB21F93F29
:106CD00011DA22E33AAD903FEB0D76244B7BA93FCE
:106CE000513DD0A0660DB13F6E204CC5CD45B73F9C
:106CF000FF8300922449C23F0D5555555555D53F48
:106D00002F6C6A2C44B4A2BF9AFDDE522DDEAD3F3B
:106D10006D9A74AFF2B0B33F711623FEC671BC3FDB
:106D2000C4EB98999999C93F9C7500883CE4377EDB
:106D3000182D4454FB21F9BFFFFF0F440000F07FE2
:106D4000FFFFDB3FC8F30300A8F303000000F03FA0
:106D5000FFFFF23FFF7F03400000F83F0000F0BF5D
:106D60002DE9F041C1F30A57A7F2FF35132D024672
:106D70000B460C468846064620DC002D4ADB364F83
:106D80002F4101EA070C5CEA000C1CD030A3D3E9C8
:106D9000002316F0E3FF0022002317F025FC48B182
:106DA000002C04DD4FF4801343FA05F5A84428EACB
:106DB0000704002621463046BDE8F081332D06DD6C
:106DC000B5F5806F38D010461946BDE8F081A7F2BE
:106DD00013474FF0FF3C2CFA07F70742F3D01CA3F0
:106DE000D3E9002316F0BAFF0022002317F0FCFBC2
:106DF0000028DFD0002C09DD142D22D00123C5F19D
:106E0000340503FA05F5AE1928BF984426EA0706AB
:106E10004446CFE70EA3D3E9002316F09FFF0022DC
:106E2000002317F0E1FB0028C4D0002C0CDB264324
:106E300005D00026094CBDE716F090FFC5E73446A3
:106E4000B8E704F10108E1E700264FF00044B1E79C
:106E50009C7500883CE4377EFFFF0F000000F03F88
:106E60002DE9F041C1F30A57A7F2FF35132D024671
:106E70000B460C46884606461DDC002D3CDB364F93
:106E80002F4101EA070C5CEA000C19D030A3D3E9CA
:106E9000002316F063FF0022002317F0A5FBC8B300
:106EA000002C04DA4FF4801343FA05F5A84428EACD
:106EB000070400262EE0332D06DDB5F5806F2DD0BA
:106EC00010461946BDE8F081A7F213474FF0FF3C8A
:106ED0002CFA07F70742F3D01DA3D3E9002316F0DD
:106EE0003DFF0022002317F07FFB98B1002C21DB2F
:106EF00026EA070644460DE015A3D3E9002316F061
:106F00002DFF0022002317F06FFB18B1002C08DBC7
:106F10000026344621463046BDE8F08116F01EFFBB
:106F2000D0E724F000430D4A1E43002E18BF14463C
:106F30000026EFE7142D08D00123C5F1340503FA2C
:106F400005F5AE1928BF9844D2E704F10108CFE750
:106F50009C7500883CE4377EFFFF0F000000F0BF07
:106F60002DE9F04FD84B994287B08046894643DDE2
:106F7000D64B99420E4600F3F480D54B994240F32C
:106F80002D819FEDBB7B8DED047B4FEA215A04469A
:106F9000AAF2FF3ACF4BC6F313069E4246F07F5546
:106FA00000F3128145F44015204629460022CA4BC1
:106FB00016F0D2FE002204460D46C84B17F084F8A6
:106FC00022462B4617F080F8A046CDE90201A946DB
:106FD000CDE90001002E3AD10022002320462946A7
:106FE00017F0DAFA002800F01B81BAF1000F40F028
:106FF000858100200021B8E0B94B21F000449C427B
:107000000A460FDD0022B74B17F0C6FA002800F041
:10701000AF80002200230020B34917F07FF907B0AA
:10702000BDE8F08FB14B9C4240F3AF80B04B1A44A7
:107030009A4240F2D3800022A84B17F045F842460E
:107040004B4617F041F8CDE900014FF0000A00224D
:107050004FF080434046494616F080FE02460B46FC
:107060004046494617F05AF902460B4606460F4677
:1070700017F02AF880A3D3E9002304460D4617F041
:1070800023F87FA3D3E9002316F068FE22462B469F
:1070900017F01AF87CA3D3E9002316F05FFE22460E
:1070A0002B4617F011F87AA3D3E9002316F056FE09
:1070B00022462B4617F008F877A3D3E9002316F0F1
:1070C0004DFE22462B4616F0FFFF75A3D3E90023A1
:1070D00016F044FE22462B4616F0F6FF72A3D3E9C3
:1070E000002316F03BFE22462B4616F0EDFFDDE9AD
:1070F000002316F033FE32463B4616F0E5FF044609
:107100000D46BAF1000F00F0A880504616F072FF4D
:1071100067A3D3E9002382468B4616F0D5FF66A30A
:10712000D3E9002306460F465046594616F0CCFFD9
:10713000DDE9042316F012FE22462B4616F00EFE61
:1071400002460B46DDE9000116F006FE42464B46BC
:1071500016F002FE02460B463046394616F0FCFD9C
:1071600003E002460B4616F0F9FD07B0BDE8F08FCC
:1071700042464B464046494616F0EEFD02460B4657
:1071800017F0CCF807B0BDE8F08F0022594B16F08D
:10719000E5FD0022002317F027FA10B1564B9C4260
:1071A00062DD42464B464046494616F08DFF0022BE
:1071B0004A4B16F089FF02460B464046494616F0F8
:1071C000CBFD07B0BDE8F08F45F40015C6F580167D
:1071D00020462946B6100AF1010AE7E600223E4B96
:1071E0004046494616F0BAFD4FEA215AAAF2FF3A44
:1071F000BAF1000F04460D460E4640F3BD804246EC
:107200004B4616F0A9FD02460B460020324916F007
:10721000A3FD22462B4617F081F8CDE90401B9E61B
:1072200027A3D3E900232046294616F04DFF024646
:107230000B460020284916F08FFDDDE9022316F0E9
:1072400043FF06460F46BAF1000F75D102460B46C2
:107250002046294616F080FD87E702460B46DDE909
:10726000000116F079FDA6E7404649467DE700BFDC
:10727000000000000000000044523EDF12F1C23F57
:107280009FC678D0099AC33FDE03CB966446C73FBA
:10729000AF788E1DC571CC3F599322942449D23FBB
:1072A00004FA97999999D93F935555555555E53F06
:1072B0000000E0FE422EE63F763C7935EF39EA3DAC
:1072C000555555555555E53F7982DA3FFFFFEF7F1C
:1072D000FFFF3F439DA006000000F03F0000E03F9D
:1072E000FFFFEF3F0000F0BF000050C3FFFF1F3E55
:1072F0003C412D4000005043FFFF8F3C504616F0AC
:1073000079FE24A3D3E9002306460F4616F0DCFEDF
:10731000DDE9042316F022FD20A3D3E9002304466F
:107320000D463046394616F0CFFE02460B46204643
:10733000294616F013FD18E7504616F05BFE17A31A
:10734000D3E9002382468B4616F0BEFE11A3D3E993
:107350000023804689465046594616F0B5FEDDE9C1
:10736000042316F0FBFC02460B463046394616F065
:10737000F3FC22462B4674E70022054B16F0ECFC8A
:1073800002460B464046494616F0E6FC41E700BF80
:107390000000F03F763C7935EF39EA3D0000E0FE31
:1073A000422EE63F0000000008B515F081F904A365
:1073B000D3E9002316F0B2FF08BD00BFAFF3008091
:1073C000EF39FAFE422EE63F2DE9F043DFF8B480B4
:1073D0008BB004460D4601F0F7F898F90030013300
:1073E00006460F462CD022462B462046294617F04B
:1073F00005F9814620BB2046294614F0E5FD1FA370
:10740000D3E9002317F0F0F8D0B1194A98F9003009
:10741000CDF820900321CDE90445CDE90245CDE921
:10742000001293B113490020022BCDE9060111D1BE
:1074300016F020FC22230360089B9BB9DDE9066758
:10744000304639460BB0BDE8F0830B4B4FF060423D
:10745000CDE90623684616F089FA0028E8D0089B93
:10746000002BEBD016F006FC089B0360E6E700BF9C
:107470000C0504000000F07FFFFFEF477DF8B98F97
:10748000CE338640FB8100202DE9F043DFF8E48015
:107490008BB004460D4601F047F998F900300133EE
:1074A00006460F4633D02046294616F059FA70B3E7
:1074B0002CA3D3E900232046294617F095F88146EE
:1074C00050BB2AA3D3E900232046294617F06EF8C3
:1074D000E8B198F90030204ACDF820900020002132
:1074E0000426022BCDE90445CDE902450096CDE9FD
:1074F0000601019229D0684616F038FA28B3089B95
:107500001BB116F0B7FB089B0360DDE90667304648
:1075100039460BB0BDE8F0830F4A98F9003001926C
:1075200003210022CDE90445CDE9024500910892EE
:107530002BB90A4B4FF06042CDE90623DBE708493F
:107540000020022BCDE90601D5D116F093FB2223B2
:107550000360D4E7AFF3008014050400FFFFEF479A
:107560000000F07FEF39FAFE422E864051302DD5D3
:10757000104987C0FB8100202DE9F04FDFF82C93E4
:107580008DB006460F4614461D4601F09DFC99F944
:107590000080B8F1FF3FCDE9000136D022462B46EE
:1075A0002046294617F02AF8834670BB32463B46F0
:1075B0003046394617F022F88246002840F0A28073
:1075C000304639460022002316F0E6FF10B30022B1
:1075D00000232046294616F0DFFF8346002867D0A7
:1075E0009FEDA77B0122AC4BCDF828A00292CDE9FC
:1075F0000467CDE906458DED087B0393B8F1000FD4
:1076000041D09FEDA17B8DED007BDDE900010DB048
:10761000BDE8F08FDDE9000116F0A2F980460028F0
:1076200000F08D804FF0000A4FF0000BDDE9000103
:1076300052465B4616F0B0FF0028E6D03046394689
:1076400016F08EF90028E0D02046294616F088F979
:107650000028DAD099F900308F4A039204210022E1
:10766000022BCDE90467CDE90645CDE908AB0291CF
:107670000A9203D002A816F079F950B916F0FAFA76
:107680002223036005E002A816F070F9002800F03C
:107690009B800A9B1BB116F0EDFA0A9B03609DEDDF
:1076A000087B8DED007BDDE900010DB0BDE8F08FBA
:1076B0002046294616F054F90028A6D000220023BF
:1076C0002046294616F072FF00289ED0724A99F98A
:1076D0000030CDF828B00121CDE90467CDE9064599
:1076E000CDE90212002B74D06C490020022BCDE9A9
:1076F000080172D116F0BEFA212303600A9B002B09
:10770000CDD0C8E7002200232046294616F044FFCA
:1077100000283FF47AAF624B5F49CDF828B00022D1
:107720000120B8F1020FCDE904670290CDE90645CA
:10773000CDE908230391A6D1CDE9002365E73046C2
:10774000394616F00DF900283FF46CAF2046294663
:1077500016F006F900283FF465AFDDE90023104676
:10776000194616F04BFF99F900A000286BD10323AE
:10777000DFF824C10A902946204602930022494B93
:10778000CDF80CC0CDE90645CDE9046716F09CFCA8
:1077900004460D46BAF1000F25D1DFF814B14FF0C1
:1077A000604A0022002330463946CDE908AB16F086
:1077B000FDFE38BB02A816F0D9F800289ED116F0BD
:1077C00059FA2223036099E716F054FA2123036043
:1077D0005FE79FED2B7B8DED087B02A816F0C6F8C6
:1077E00000288BD186E79FED2A7B002200233046BC
:1077F00039468DED087B16F0D9FEA0B9BAF1020F1B
:10780000DDD0D7E72046294616F0B8F822462B46A9
:1078100016F0C2FEA0B9244B99F900A04FF06042C7
:10782000CDE90823EAE72046294616F0A7F82246C4
:107830002B4616F0B1FE18B9184B0022CDE90823EB
:1078400099F900A0DAE70122134BCDF828800292C3
:10785000CDE90467CDE906450393BAF1000FB8D02E
:10786000002200231046194616F058FDBAF1020F07
:10787000CDE908013FF43EAFAFE700BFAFF30080B2
:107880000000000000000000000000000000F03FC9
:10789000000000000000F07F2C0504000000F0FF55
:1078A0000000F03F0000E03FFFFFEFC7FB8100203A
:1078B000FFFFEF47000000002DE9F84FC44E21F014
:1078C0000043B34204460D460DDD03F1404303F58A
:1078D0008013034340F0B980002940F34081002029
:1078E0000021BDE8F88FBB4EB34208DCBA4A934290
:1078F00000F3B5809CA1D1E90001BDE8F88F002913
:10790000C0F2708102460B460020B44916F024FAFA
:107910000022B34B16F0D8FB04460D4615F0F0F9E3
:1079200093A3D3E90023894680462946204616F0D2
:10793000CBFB91A3D3E9002316F010FA22462B4685
:1079400016F0C2FB8EA3D3E9002316F005FA2246F7
:107950002B4616F0B9FB8CA3D3E9002316F0FEF9F1
:1079600022462B4616F0B0FB89A3D3E9002316F07C
:10797000F3F922462B4616F0A7FB87A3D3E9002391
:1079800016F0ECF922462B4616F09EFB84A3D3E9B1
:10799000002382468B462046294616F095FB82A39B
:1079A000D3E9002316F0D8F922462B4616F08CFBBB
:1079B0007FA3D3E9002316F0D1F922462B4616F017
:1079C00083FB7DA3D3E9002316F0C6F922462B469C
:1079D00016F07AFB0022814B16F0C0F902460B46E6
:1079E0005046594616F09AFC42464B4616F06CFB40
:1079F000002682468B4632464B463046494616F0B4
:107A000063FB02460B462046294616F0A5F932468E
:107A100004460D464B464046494616F09FF902463D
:107A20000B462046294616F079FC02460B46504686
:107A3000594616F093F932464B4616F08FF9024636
:107A40000B4616F08BF9BDE8F88F02460B4616F090
:107A500083F902460B4616F061FCBDE8F88F02463A
:107A60000B4616F031FB42A3D3E9002306460F462E
:107A700016F02AFB40A3D3E9002316F06FF9324633
:107A80003B4616F021FB3EA3D3E9002316F064F930
:107A900032463B4616F018FB3BA3D3E9002316F011
:107AA0005DF932463B4616F00FFB39A3D3E90023BC
:107AB00016F052F932463B4616F006FB36A3D3E9E0
:107AC000002316F04BF932463B4616F0FDFA34A37C
:107AD000D3E90023804689463046394616F0F4FA49
:107AE00031A3D3E9002316F037F932463B4616F0AE
:107AF000EBFA2FA3D3E9002316F030F932463B46C8
:107B000016F0E2FA2CA3D3E9002316F025F9324649
:107B10003B4616F0D9FA0022304B16F01FF9024608
:107B20000B464046494616F0F9FB22462B4616F016
:107B3000CBFA02460B4622A1D1E9000116F00CF95E
:107B400002460B462046294616F006F902460B4629
:107B500005A1D1E9000116F0FFF8BDE8F88F1AA1E0
:107B6000D1E9000179E700BF182D4454FB21F93F0A
:107B700009F7FD0DE13D023F88B20175E0EF493F95
:107B80003B8F68B52882A43F5544880E55C1C93F34
:107B90007D6FEB0312D6D43F555555555555C53F0E
:107BA00082922EB1C5B8B33F59018D1B6C06E63FDA
:107BB000C88A599CE52A00404B2D8A1C273A03406D
:107BC000075C143326A6913C182D4454FB21094030
:107BD000FFFFEF3FFFFFDF3F0000603C0000F03F92
:107BE0000000E03F00225C4B16F0B8F800225B4B2F
:107BF00016F06AFA40A3D3E9002304460D4616F0B6
:107C000063FA3FA3D3E9002316F0A8F822462B46D7
:107C100016F05AFA3CA3D3E9002316F09DF8224649
:107C20002B4616F051FA3AA3D3E9002316F096F842
:107C300022462B4616F048FA37A3D3E9002316F064
:107C40008BF822462B4616F03FFA35A3D3E90023E2
:107C500016F084F822462B4616F036FA80468946FE
:107C60002046294615F04CF82FA3D3E900230646F9
:107C70000F462046294616F027FA2DA3D3E9002304
:107C800016F06AF822462B4616F01EFA2AA3D3E90C
:107C9000002316F063F822462B4616F015FA28A3A7
:107CA000D3E9002316F058F822462B4616F00CFABA
:107CB0000022294B16F052F802460B464046494630
:107CC00016F02CFB32463B4616F0FEF91EA3D3E914
:107CD000002316F041F832463B4616F03FF80246C4
:107CE0000B4616F03BF802460B4619A1D1E90001FC
:107CF00016F032F8B1E600BF09F7FD0DE13D023F95
:107D000088B20175E0EF493F3B8F68B52882A43FF8
:107D10005544880E55C1C93F7D6FEB0312D6D43F41
:107D2000555555555555C53F82922EB1C5B8B33FEF
:107D300059018D1B6C06E63FC88A599CE52A004014
:107D40004B2D8A1C273A0340075C143326A6913C2E
:107D5000182D4454FB2109400000F03F0000E03F93
:107D6000414A91422DE9F84304460D4637DD3F4A2A
:107D700091420B4608DD02F1795291423DDD024607
:107D800015F0ECFFBDE8F88301F1404202F58012E6
:107D900002432ED0B1F1804F37DC0022344B15F076
:107DA000DBFF02460B4604460D4615F0D7FF224680
:107DB00006460F462B462046294616F085F9024610
:107DC0000B463046394615F0C9FF14F099FF22469C
:107DD0002B4615F0C3FFBDE8F843FFF7C1B80246D4
:107DE0000B4615F0B9FF02460B4616F097FABDE8B0
:107DF000F88300200021BDE8F88300F00DFE18A3F1
:107E0000D3E9002315F0AAFFF1E7024616F05CF96A
:107E10000022174B15F0A0FF14F072FF2246804697
:107E200089462B462046294615F098FF22460646ED
:107E30000F462B464046494615F090FF02460B463A
:107E400000200B4916F06AFA0B46024639463046C6
:107E500015F082FFBDE8F84300F0DEBDAFF300800F
:107E6000EF39FAFE422EE63FFFFFEF3FFFFFAF4143
:107E70000000F03F000000002DE9F04FAE4B21F074
:107E800000479F4287B004460D4611DD07F1404789
:107E900007F5801703463B4321D002460B4615F0F9
:107EA0005BFF02460B4616F039FA07B0BDE8F08FCB
:107EB000A24B9F420E4629DCB7F1795F80F24681E2
:107EC00081A3D3E9002315F049FF00229C4B16F053
:107ED0008BFBD8B12046294607B0BDE8F08F7CA3C4
:107EE000D3E9002316F0F0F87BA3D3E9002306467C
:107EF0000F462046294616F0E7F802460B46304664
:107F0000394615F02BFF07B0BDE8F08F2046294613
:107F100014F05AF802460B460020894915F01CFF60
:107F20000022884B16F0D0F86DA3D3E90023044655
:107F30000D4616F0C9F86CA3D3E9002315F00EFF27
:107F400022462B4616F0C0F869A3D3E9002315F0AA
:107F500003FF22462B4616F0B7F867A3D3E90023A8
:107F600015F0FCFE22462B4616F0AEF864A3D3E9CA
:107F7000002315F0F1FE22462B4616F0A5F862A369
:107F8000D3E9002315F0EAFE22462B4616F09CF8B2
:107F90005FA3D3E90023CDE900012046294616F06E
:107FA00093F85DA3D3E9002315F0D6FE22462B46B5
:107FB00016F08AF85AA3D3E9002315F0CFFE224623
:107FC0002B4616F081F858A3D3E9002315F0C4FE20
:107FD00022462B4616F078F8594B002215F0BEFECB
:107FE00082468B4620462946CDE902AB14F088FE36
:107FF000554B9F428046894600F3198102460B4645
:1080000015F0ACFEDDE90223CDE90401DDE9000154
:1080100016F084F902460B46DDE9040116F054F827
:108020004FF0000ACDE9000152464B465046494602
:1080300016F04AF802460B462046294615F08CFEFB
:10804000524604460D464B464046494615F086FECC
:1080500002460B462046294616F060F902460B46BA
:1080600015F07CFE02460B461BA1D1E9000115F07C
:1080700073FE02460B46DDE9000115F06DFE524627
:1080800004460D464B465046494615F067FE0246EB
:108090000B4627A1D1E9000115F05EFE02460B4612
:1080A0002046294615F058FE02460B4620A1D1E98C
:1080B000000115F051FE002E3FF7F7AE01F100432D
:1080C0001946F2E6AFF300809C7500883CE4377EE9
:1080D000182D4454FB21F93F075C143326A6913C2C
:1080E00009F7FD0DE13D023F88B20175E0EF493F20
:1080F0003B8F68B52882A43F5544880E55C1C93FBF
:108100007D6FEB0312D6D43F555555555555C53F98
:1081100082922EB1C5B8B33F59018D1B6C06E63F64
:10812000C88A599CE52A00404B2D8A1C273A0340F7
:10813000182D4454FB21E93FFFFFEF3FFFFFDF3FD6
:108140000000F03F0000E03F3233EF3F02460B46B5
:1081500015F0BAFF4BA3D3E9002306460F4615F0EE
:10816000B3FF4AA3D3E9002315F0F8FD32463B469E
:1081700015F0AAFF47A3D3E9002315F0EDFD324621
:108180003B4615F0A1FF45A3D3E9002315F0E6FD1A
:1081900032463B4615F098FF42A3D3E9002315F081
:1081A000DBFD32463B4615F08FFF40A3D3E90023A9
:1081B00015F0D4FD32463B4615F086FF3DA3D3E9CA
:1081C0000023804689463046394615F07DFF3BA3A3
:1081D000D3E9002315F0C0FD32463B4615F074FF8D
:1081E00038A3D3E9002315F0B9FD32463B4615F01C
:1081F0006BFF36A3D3E9002315F0AEFD32463B46B4
:1082000015F062FF00221E4B15F0A8FD02460B463A
:108210004046494616F082F822462B4615F054FF98
:1082200022462B4615F09AFD07B0BDE8F08F524666
:108230005B46DDE9000116F071F842464B4615F049
:1082400043FF42464B4615F089FD02460B4615F0AA
:1082500085FD07A3D3E9002315F07EFD02460B46FA
:1082600005A1D1E9000115F077FD24E7AFF3008007
:10827000075C143326A6913C182D4454FB21F93F8A
:108280000000F03F09F7FD0DE13D023F88B20175A6
:10829000E0EF493F3B8F68B52882A43F5544880EE4
:1082A00055C1C93F7D6FEB0312D6D43F5555555587
:1082B0005555C53F82922EB1C5B8B33F59018D1BAC
:1082C0006C06E63FC88A599CE52A00404B2D8A1C63
:1082D000273A0340000000002DE9F84F1D465342A5
:1082E000134325F00049DFF8C8C149EAD373634559
:1082F000144606460F4626D8C0F1000848EA000892
:1083000021F0004A4AEAD878E04503468B461AD85D
:1083100005F1404808F5801858EA0208AE4643D0F7
:108320004FEAA57808F002085AEA030348EAD17830
:1083300011D1B8F1020F55D0B8F1030F09D14AA1FC
:10834000D1E9000105E032463B462046294615F0BA
:1083500005FDBDE8F88F59EA020329D0E1452ED08A
:10836000E24525D0AAEB09094FEA2959B9F13C0F9A
:108370003CDC002D3EDA19F13C0F3BDA00200021F5
:10838000B8F1010F4ED0B8F1020F3ED0B8F1000F96
:10839000DFD037A3D3E9002315F0DEFC36A3D3E901
:1083A000002315F0D9FCD4E7BDE8F84FFEF744BB35
:1083B000BBF1000F12DB32A1D1E90001C9E7CA45C8
:1083C00034D0B8F1020F0DD0B8F1030FB7D0B8F127
:1083D000010F4FF0000036D00021BAE72AA1D1E901
:1083E0000001B6E724A1D1E90001B2E724A1D1E957
:1083F0000001C5E722462B463046394615F08EFF70
:1084000013F0E2FDFEF718FBBAE719A3D3E9002346
:1084100015F0A2FC02460B4617A1D1E9000115F0A8
:108420009BFC96E701F10043194692E7B8F1020F71
:1084300014D0B8F1030F0DD0B8F1010F06D014A17C
:10844000D1E9000185E74FF0004182E712A1D1E9AF
:1084500000017EE712A1D1E900017AE712A1D1E97A
:10846000000176E7AFF30080182D4454FB2109C0CA
:10847000075C143326A6A13C182D4454FB21094067
:10848000182D4454FB21F93F182D4454FB21F9BF0A
:10849000182D4454FB21E93F182D4454FB21E9BF1A
:1084A000D221337F7CD902C0D221337F7CD90240D4
:1084B0000000F07F0000000043422DE9F047034335
:1084C00021F000463C4A46EAD373934204460D46E7
:1084D0002AD8964240D0394B9E428A462EDD384BF0
:1084E0009E4235463FDD33460246314615F036FCA6
:1084F000224606460F462B4600202F4915F02CFC3D
:1085000002460B463046394615F008FFFEF728FDB7
:1085100000222C4B15F0D8FDBAF1000F0CDA01F156
:1085200000431946BDE8F08702460B4615F014FCDF
:1085300002460B4615F0F2FEBDE8F0871CA3D3E916
:10854000002315F00BFC0022002316F04DF848B173
:1085500020462946BDE8F0870022002315F0DEFE04
:10856000BDE8F087354622462B462046294615F0C1
:10857000F5FB22462B4606460F4615F0A5FD224682
:10858000804689462B4600200B4915F0E5FB024644
:108590000B464046494615F0C1FE32463B4615F0B3
:1085A000DDFBFEF7DDFC0022064B15F08DFDB3E789
:1085B0009C7500883CE4377E0000F03FFFFF2F3EB3
:1085C000FFFFDF3F0000E03F2DE9F8434E4B21F075
:1085D00000449C4206460F461BDC4C4B9C4222DD6D
:1085E0004B4B9C4254DD4B4B9C4246DD4A4B9C42DC
:1085F0006FDD01339C4269D041A3D3E900231046CB
:10860000194615F061FD06460F4630463946BDE86D
:10861000F88302460B4615F057FD06460F463046D6
:108620003946BDE8F88313F0CFFC02F04DFC002280
:108630003A4B8046894615F091FBB4F1725F0646CD
:108640000F46ECDB42464B464046494615F03CFDA2
:1086500032463B4604460D463046394615F07EFB11
:1086600002460B462046294615F058FE00222B4BA9
:1086700015F074FB06460F46D1E713F0A5FC00F099
:1086800053F80022264B15F01FFD06460F46C6E79D
:1086900013F09AFC00F048F80022214B06460F46E2
:1086A00015F012FD324604460D463B4600201C499B
:1086B00015F034FE02460B462046294615F04EFBC7
:1086C00006460F4630463946BDE8F883154B9842BA
:1086D00092D83046394613F077FC0022104B15F043
:1086E000F3FC00F021F8002204460D460C4B15F077
:1086F000EBFC22462B4615F0E7FC06460F468EE7BC
:108700009C7500883CE4377EFFFFEF7F422ED63F0A
:10871000FFFF3540412E8640CD3386400000F03FBC
:108720000000E03F7DF8B98F2DE9F047B04F21F010
:108730000042BA4284B004460D464FEAD17610D9C1
:10874000AC4FBA4240F28A80C1F31303034302469E
:1087500040F0F180002E7ED00020002104B0BDE862
:10876000F087A54B9A4200F2B680A44B9A4240F2A1
:10877000D1804FF0000A22462B462046294615F0AC
:10878000A3FC85A3D3E9002306460F4615F09CFC05
:1087900083A3D3E9002315F0DFFA32463B4615F0F8
:1087A00093FC81A3D3E9002315F0D8FA32463B4667
:1087B00015F08AFC7EA3D3E9002315F0CDFA3246EA
:1087C0003B4615F081FC7CA3D3E9002315F0C6FAE3
:1087D00032463B4615F078FC02460B4620462946B9
:1087E00015F0BAFA02460B4606460F4620462946C1
:1087F00015F06AFC80468946BAF1000F00F0AB80A4
:1088000032463B4600204FF0804115F0A5FA024663
:108810000B464046494615F081FD02460B46DDE910
:10882000020115F099FADDE9002315F095FA0B46DF
:1088300002467349002015F08FFA6FF47F739A4552
:1088400080F2A3800AF57A7A01EB0A5100224FF0F8
:10885000B87315F039FC04B0BDE8F08758A3D3E92C
:10886000002315F0C1FE00286BD157A3D3E90023E4
:108870002046294615F09AFE00287FF46DAF614925
:1088800053A3D3E9002301EBC6062046294615F081
:108890001BFCD6E9002315F061FA15F0C5FE8246EF
:1088A00015F0A8FB4CA3D3E9002306460F4615F0AC
:1088B0000BFC02460B462046294615F04DFA48A30C
:1088C000D3E90023CDE900013046394615F0FCFB21
:1088D000CDE9020115E04C4B9A42D0D84B4BF40045
:1088E0002344D3E9002315F037FA494B234493ED91
:1088F000007BCDE900018DED027BC6F1010AAAEBF8
:10890000060ADDE90223DDE9000115F025FA044637
:108910000D4630E734A3D3E9002315F01FFA0022F7
:10892000374B15F061FEA8B3204629460022344B90
:1089300015F014FA8FE70B4615F010FA04B0BDE8F5
:10894000F08729A3D3E900231046194615F0BCFB94
:1089500004B0BDE8F0873046394600224FF080432E
:1089600015F0FAF902460B464046494615F0D6FC8A
:1089700022462B4615F0F0F902460B46002020490E
:1089800015F0EAF904B0BDE8F08701EB0A5104B034
:10899000BDE8F0878246EEE6D0A4BE726937663E37
:1089A000F16BD2C541BDBB3E2CDE25AF6A56113FEF
:1089B00093BDBE166CC1663F3E5555555555C53FD6
:1089C000EF39FAFE422E864051302DD5104987C02E
:1089D000FE822B654715F73F0000E0FE422EE63F82
:1089E000763C7935EF39EA3D9C7500883CE4377E6A
:1089F000412E8640FFFFEF7F422ED63FFFFF2F3EE6
:108A00000000F03FE8F30300B1A2F03FF8F30300E9
:108A100008F40300000000002DE9F04FB1F5801FBD
:108A200085B006460F460B4680F2D08021F000420A
:108A3000024300F0DA800029C0F2E9800022D64B20
:108A400015F042FBD54A0B46934206460F466FF09F
:108A5000350E00F3C180C3F3130505F5152C0CF694
:108A6000647C0CF4801C8CF07F5282F440121C1544
:108A700042EA0507A4F2FF3474440022C84B304692
:108A8000394604EB1C5415F067F9AB1CC3F3130310
:108A9000022B82468B464FF0000240F3AF804FF02E
:108AA000804315F05BF902460B465046594615F0D7
:108AB00035FC064620460F4615F09CFA3246CDE9B5
:108AC00002013B4630463946CDE9006715F0FCFA15
:108AD00002460B468046894615F0F6FA9AA3D3E97A
:108AE000002306460F4615F0EFFA99A3D3E90023B9
:108AF00015F034F932463B4615F0E6FA96A3D3E971
:108B0000002315F02BF932463B4615F0DDFA94A30D
:108B1000D3E9002315F022F942464B4615F0D4FA6A
:108B200091A3D3E90023804689463046394615F0A3
:108B3000CBFA8FA3D3E9002315F010F932463B4658
:108B400015F0C2FA8CA3D3E9002315F007F93246D9
:108B50003B4615F0B9FA0B4602464946404615F029
:108B6000FDF8A5F5C223C5F5D725A3F27A43513503
:108B70001D43002D06460F4640F387800022894B97
:108B80005046594615F0A0FA52465B4615F09CFA3D
:108B900002460B46804689463046394615F0DEF8D7
:108BA000DDE9002315F090FA06460F46002C40F050
:108BB000818002460B464046494615F0CDF80246F4
:108BC0000B465046594615F0C7F80BE0734A9342DE
:108BD0004FF0000E7FF73FAF32463B4630463946F6
:108BE00015F0BCF805B0BDE8F08F0022002300208E
:108BF0006D4915F093FB05B0BDE8F08F002315F02B
:108C0000CBFC60B1002C7CD100200021EAE70246B9
:108C100015F0A2F80022002315F080FBE2E758A32C
:108C2000D3E900235046594615F04EFA02460B464A
:108C300000205C4915F090F8524606460F465B4608
:108C40005046594615F040FA02460B463046394622
:108C500015F03AFA06460F462CB3204615F0CAF92D
:108C600049A3D3E900238046894615F02DFA48A38D
:108C7000D3E9002304460D464046494615F024FA40
:108C800002460B46304639462CE002460B4650461B
:108C9000594615F061F8DDE9002315F015FA06468E
:108CA0000F46002C47D132463B465046594615F0F8
:108CB00053F897E734A3D3E90023DDE9020115F067
:108CC00003FA33A3D3E9002304460D46DDE902018C
:108CD00015F0FAF932463B4615F040F802460B46CD
:108CE0004046494615F038F852465B4615F034F8D0
:108CF00002460B462046294615F02EF805B0BDE881
:108D0000F08F204615F076F91FA3D3E9002306461D
:108D10000F4615F0D9F91EA3D3E9002304460D46EA
:108D20003046394615F0D0F902460B462046294612
:108D300015F014F856E7DDE9028913A3D3E90023FF
:108D40004046494691E700BF44523EDF12F1C23F20
:108D5000DE03CB966446C73F599322942449D23F01
:108D6000935555555555E53F9FC678D0099AC33F51
:108D7000AF788E1DC571CC3F04FA97999999D93F68
:108D8000555555555555D53F0000E0FE422EE63F5E
:108D9000763C7935EF39EA3D00005043FFFFEF7F25
:108DA0000000F03F0000E03F000050C30000000062
:108DB000B1F5801F2DE9F84304460D460B4619DA3C
:108DC00021F00042024359D000295FDB00223A4BD8
:108DD00015F07AF9394A0D462B46934204466FF056
:108DE00035010CDD22462B462046294614F0B6FFFD
:108DF000BDE8F883314A93424FF00001F2DC1815C8
:108E0000A0F2FF3008444FEAD0794844C3F3130876
:108E100015F0F0F8C9F57F73033348EA03550646A9
:108E20000F4620462946FFF7F7FD1DA3D3E900238F
:108E3000804689463046394615F046F91AA3D3E9EB
:108E4000002304460D464046494615F03DF90246CA
:108E50000B462046294614F081FF15A3D3E90023D1
:108E600004460D463046394615F02EF902460B46AB
:108E70002046294614F072FFBDE8F8830022002343
:108E800000200F4915F04AFABDE8F883024614F0B5
:108E900063FF0022002315F041FAA9E7AFF3008039
:108EA000362BF111F3FE593D0EE526157BCBDB3F4A
:108EB00000609F501344D33F00005043FFFFEF7FFB
:108EC000000050C3000000002DE9F04F23F00045E2
:108ED00055EA020493B00DD06B4E21F00044B44229
:108EE0000F4682460BDD04F1404404F5801454EA39
:108EF0000A0350D16549002013B0BDE8F08F9B46AE
:108F0000944647D0B542EEDC5F4EB5425DD0002FAF
:108F100080468946CDE900235BDB0026BCF1000FCB
:108F20000ED1594B9D423FD0584B9D4200F0888056
:108F3000BBF1804F00F09C80554B9B4500F0B883FF
:108F40004046494613F040F8BAF1000F06D1002C14
:108F500059D04E4B27F040429A4254D0FF0F013F68
:108F600056EA070373D04B4B9D4240F39B8003F1BD
:108F700004739D4240F33E84474B9C4272DDBBF13B
:108F8000000F72DD3EA3D3E900231046194615F009
:108F90009BF8B1E728B1414813B0BDE8F04F14F099
:108FA000E7BCA542F7DCAFE704F1404303F58013CB
:108FB00053EA0A039ED0384B9C4240F38383BBF1B3
:108FC000000F52DBDDE9000196E7BCF1000F9ED0F7
:108FD00089E7334B9D4231DCA3F154739D429CDD04
:108FE0002B15A3F2FF33142B40F3A583C3F13403F5
:108FF0002CFA03F202FA03F363458ED102F0010268
:10900000C2F102068AE7BBF1000F05DA02460B4601
:1090100000201E4915F082F9002FBFF66DAF04F154
:10902000404404F5801454EA060300F03F84012E06
:109030007FF462AF01F1004319465DE702266DE758
:10904000BBF1000FC0F248834046494654E7424610
:109050004B461046194614F07FFE02460B4615F0AB
:109060005DF949E7BBF1000F8CDB0020002143E7ED
:1090700042464B464046494615F026F83CE700BFBD
:109080009C7500883CE4377E0000F07F0000F03FD4
:109090000000E03F0000E041FFFFEF3F28FC03003D
:1090A000FFFF3F43B4F5801F80F261830022D24B63
:1090B00015F00AF86FF0340C0C462315CF4DC4F3AD
:1090C0001302A3F2FF3342F07F546344AA420B938E
:1090D00044F4401440F33F83C94B9A4240F3048464
:1090E0009FEDAF7B8DED087B8DED107B9FEDAE7B13
:1090F0000B9B8DED067B01330B93A4F580140025AB
:10910000DDE906232146824614F026FEA346DDE96A
:1091100006238046894650462146CDE90CAB14F023
:109120001DFE02460B460020B64915F0F7F80A4628
:109130000146CDE90E12134649460246404614F058
:10914000C3FF631043F0005382468B4603F50023B0
:109150008C46CDE904AB5919D3460023CDE902BCB6
:109160000293DDE902AB002004460D4602460B46A1
:109170005046594614F0A8FF02460B464046494661
:1091800014F0EAFDDDE9062380468946204629469B
:1091900014F0E2FD02460B46DDE90C0114F0DCFDA3
:1091A00052465B4614F090FF02460B464046494645
:1091B00014F0D2FDDDE90E2314F086FFDDE904454D
:1091C000CDE9060122462B462046294614F07CFFB5
:1091D00077A3D3E9002304460D4614F075FF76A368
:1091E000D3E9002314F0BAFD22462B4614F06CFF9D
:1091F00073A3D3E9002314F0B1FD22462B4614F0EB
:1092000063FF71A3D3E9002314F0A8FD22462B4687
:1092100014F05AFF6EA3D3E9002314F09FFD2246F9
:109220002B4614F051FF6CA3D3E9002314F096FDF4
:109230002246804689462B462046294614F044FFA4
:1092400002460B464046494614F03EFF524604464D
:109250000D465B46DDE9040114F080FDDDE90623DF
:1092600014F032FF22462B4614F078FD5246804619
:1092700089465B465046594614F026FF0022624B51
:10928000CDE90C0114F06AFD42464B4614F066FD30
:1092900002980D46044622462B465046594614F085
:1092A00013FF002282468B46574B2046294614F076
:1092B00053FDDDE90C2314F04FFD02460B464046FA
:1092C000494614F049FDDDE9042314F0FDFE224671
:1092D000804689462B46DDE9060114F0F5FE02467C
:1092E0000B464046494614F039FD80468946024601
:1092F0000B465046594614F031FD029838A3D3E985
:10930000002304460D4614F0DFFE5246CDE9040169
:109310005B462046294614F01FFD02460B46404698
:10932000494614F019FD30A3D3E9002314F0CCFE14
:109330002FA3D3E90023804689462046294614F00E
:10934000C3FE02460B464046494614F007FDDDE9E0
:10935000102314F003FD80460B98894614F04AFE52
:10936000424682468B464B46DDE9040114F0F6FC8A
:10937000DDE9082314F0F2FC52465B4614F0EEFCE3
:10938000029852465B4604460D4614F0E5FCDDE9C2
:10939000082314F0E1FCDDE9042337E0AFF300809B
:1093A0000000000000000000000000000000F03F8E
:1093B000EF4E454A287ECA3F65DBC9934A86CD3FBA
:1093C00001411DA96074D13F4D268F515555D53FA0
:1093D000FFAB6FDBB66DDB3F033333333333E33F38
:1093E000000000E009C7EE3FFD033ADC09C7EE3F8D
:1093F000F5015B14E02F3EBE000040438E98030051
:1094000079B60B000000F03F0000084014F0A4FC07
:109410000B4602464946404614F09EFC013E56EA81
:10942000070382468B4600F05E819FEDD37B8DED76
:10943000047BDDE9001200230E461746CDE90267E2
:109440000293DDE9026708463B461146324614F0B6
:1094500083FC22462B4614F037FEDDE900238046CC
:1094600089465046594614F02FFE02460B464046A8
:10947000494614F073FC3246804689463B462046F6
:109480002946CDE9008914F01FFE0B460246064628
:109490000F464046494614F061FCD14B99420446C0
:1094A0000D468A4640F3248101F13F4303F5E00372
:1094B000034340F0FF81B2A3D3E90023DDE90001BB
:1094C00014F04CFC3246804689463B4620462946ED
:1094D00014F042FC02460B464046494615F084F81B
:1094E000002840F0E781A8464FEA2853A3F2FE3255
:1094F0004FF4801313415344C3F30A52B94DA2F2FF
:10950000FF321541C3F3130423EA05010020C2F121
:10951000140B44F48014BAF1000F02460B4644FACF
:109520000BFB30463946B8BFCBF1000B14F014FCEE
:1095300006460F463246DDE900013B4614F00EFCBC
:109540004FEA0B5A0D4600248FA3D3E9002320468F
:10955000294614F0B9FD3246804689463B462046EE
:10956000294614F0F9FB02460B46DDE9000114F030
:10957000F3FB87A3D3E9002314F0A6FD86A3D3E968
:10958000002306460F462046294614F09DFD02465C
:109590000B463046394614F0E1FB06460F460246BC
:1095A0000B464046494614F0D9FB42464B4604461A
:1095B0000D4614F0D1FB02460B463046394614F0F6
:1095C000CBFB2246804689462B462046294614F08E
:1095D0007BFD73A3D3E9002306460F4614F074FD08
:1095E00071A3D3E9002314F0B7FB32463B4614F0D5
:1095F0006BFD6FA3D3E9002314F0B0FB32463B466A
:1096000014F062FD6CA3D3E9002314F0A5FB3246ED
:109610003B4614F059FD6AA3D3E9002314F09EFBE6
:1096200032463B4614F050FD02460B462046294682
:1096300014F092FB06460F4602460B46204629468A
:1096400014F042FD0022CDE900014FF08043304686
:10965000394614F081FB02460B46DDE9000114F0A7
:109660005DFE424606460F464B462046294614F00C
:109670002BFD42464B4614F071FB02460B4630462A
:10968000394614F069FB22462B4614F065FB02466E
:109690000B460020544914F05FFB8A44BAF5801F42
:1096A000C0F232815146DDE9042314F00DFD23E4BC
:1096B000002FFFF645AC4046494613B0BDE8F04FD9
:1096C00013F01EBBBBF1000FBFF6CFACDDE90034D9
:1096D000184604F100410FE442464B46002042493F
:1096E00014F01CFE08E49FED387B8DED047BA0E6B2
:1096F0003E4B21F00048984540F3EA803C4B0B4438
:1097000003430AD132463B4614F026FBDDE9002331
:1097100014F060FF00283FF4E7AEDDE904012CA35C
:10972000D3E9002314F0D0FC29A3D3E9002314F0DB
:10973000CBFCFFF7E1BBBCF1000F40F0D280C3F1DE
:10974000140345FA03F202FA03F3AB4200F0E0809F
:109750006646FFF7E9BB9FED207B8DED087B8DED25
:10976000107B9FED057B00258DED067BC8E44FF057
:10977000000CA2E4AFF30080000000000000F03F06
:10978000FE822B654715973C00000000432EE63F04
:10979000EF39FAFE422EE63F396CA80C615C20BE20
:1097A000D0A4BE726937663EF16BD2C541BDBB3EE7
:1097B0002CDE25AF6A56113F93BDBE166CC1663FC5
:1097C0003E5555555555C53F000000000000F0BFFF
:1097D00059F3F8C21F6EA501000000000000000050
:1097E000FFFF8F40FFFF0F000000F03FFFCB9040D6
:1097F00000346F3F5A4B9C427FF734AC594B9C422C
:109800003FF7BDAB0022574B14F0A6FA44A3D3E9AF
:10981000002304460D4614F057FC43A3D3E900236C
:1098200082468B462046294614F04EFC0022CDE9A4
:1098300002014D4B2046294614F046FC02460B46D9
:109840003BA1D1E9000114F087FA22462B4614F01F
:109850003BFC02460B460020444914F07DFA2246A8
:10986000804689462B462046294614F02DFC0246A8
:109870000B464046494614F027FC2FA3D3E90023AA
:1098800014F022FC02460B46DDE9020114F064FAF2
:1098900002460B46804689465046594614F05EFA09
:1098A000002004460D4652465B46AFE502460B4695
:1098B000FFF7CFBBDDE9040121A3D3E9002314F0B6
:1098C00003FC1FA3D3E9002314F0FEFBFFF714BB36
:1098D000264B98453FF708AEDDE9022392469346B2
:1098E00031E60026FFF72CBB9FED177B8DED087B43
:1098F0009FED177B8DED107B9FED177B4FF480253F
:109900008DED067BFFF7FCBB5A4601F029FDCAE648
:1099100002F00102C2F10206FFF706BBAFF30080BE
:10992000000000604715F73F44DF5DF80BAE543E82
:10993000555555555555D53FFE822B654715F73F73
:109940009C7500883CE4377E0000004003B8E23F8D
:1099500006D0CF43EBFD4C3E000000000000F83F76
:10996000FEFFEF3F0000F03F0000D03F0000E03F6F
:109970002DE9F047CA4B21F000479F4290B0804646
:10998000894640F38F80C74B9F420C46924626DCA7
:109990000029B9A3D3E9002340F38F8014F0DCF948
:1099A000C14B9F4204460D4600F04781B4A3D3E962
:1099B000002314F0D1F902460B46CAE900232046E1
:1099C000294614F0C9F9AEA3D3E9002314F0C4F971
:1099D0000125CAE90201284610B0BDE8F087B34B63
:1099E0009F4240F38980B24B9F4200F31C813D159A
:1099F000A5F21645A7EB055319461F46064614F077
:109A000013FE14F0F7FA8046894642464B4630462C
:109A10003946CDE90A8914F09FF90022A54B14F0CC
:109A200053FB8946804614F0FFFD14F0E3FA064626
:109A30000F4632463B4640464946CDE90C6714F096
:109A40008BF900229B4B14F03FFB00220023CDE951
:109A50000E0114F0A1FD002800F0608100233046C3
:109A60003946002214F098FD002814BF0123022378
:109A7000914A019202212A4600910AA8514600F01B
:109A800087FB002C054614DADAF80420DAF80C30EB
:109A900002F1004203F100434542CAF80420CAF82B
:109AA0000C3006E000200021C2E90089C2E9020171
:109AB0000025284610B0BDE8F08714F04FF97A4B26
:109AC0009F4204460D4600F00B816DA3D3E90023AD
:109AD00014F044F902460B46CAE900232946204601
:109AE00014F03AF966A3D3E9002314F037F94FF0E4
:109AF000FF35CAE90201DCE712F066FA62A3D3E996
:109B000000238046894614F0DFFA00226B4B14F0E4
:109B100025F914F089FD054614F06CFA56A3D3E933
:109B20000023CDE9060114F0CFFA02460B46404669
:109B3000494614F011F952A3D3E90023804689461F
:109B4000DDE90601CDE9028914F0BEFA1F2D0246B7
:109B50000B46CDE9042340F3B380DDE90423DDE9BE
:109B6000020114F0F9F8804689463F15C9F30A53FB
:109B7000FB1A102B40F3B18045A3D3E90023DDE9A4
:109B8000060114F0A1FA8046894602460B46DDE93B
:109B9000020114F0E1F802460B46DDE90201CDE9CD
:109BA000082314F0D9F842464B4614F0D5F83AA3EE
:109BB000D3E9002380468946DDE9060114F084FAE2
:109BC00042464B4614F0C8F80B46CDE90401024664
:109BD000DDE9080114F0C0F8C1F30A53FF1A312F70
:109BE0008046894600F39C809DED087BCAE9008988
:109BF0008DED027B42464B46DDE9020114F0ACF8E4
:109C0000DDE9042314F0A8F8002CCAE90201BFF62C
:109C100050AF09F1004401F100436D42CAE90084EC
:109C2000CAE9020345E702460B4614F095F8002501
:109C3000CAE90201CAE900013BE715A3D3E9002301
:109C400014F08AF814A3D3E900230D46044614F057
:109C500083F802460B46CAE900232946204614F041
:109C60007BF80DA3D3E9002314F076F80125CAE9A7
:109C700002011EE7AFF3008000004054FB21F93FD2
:109C80003163621A61B4D03D83C8C96D305FE43F6F
:109C90000000601A61B4D03D7370032E8A19A33B93
:109CA000FB21E93F7BD90240FB21F93FFB213941F0
:109CB000FFFFEF7F00007041C80504000000E03F97
:109CC0004046494614F048F8394B6A1E804653F81E
:109CD0002230BB4289463FF448AFCAE9008989E790
:109CE0002BA3D3E9002314F039F82BA3D3E90023E5
:109CF0000D46044614F032F802460B46CAE900232A
:109D00002946204614F028F823A3D3E9002314F0B1
:109D100025F84FF0FF35CAE90201CAE60323A7E69A
:109D20001FA3D3E90023DDE9060114F0CDF90646AF
:109D30000F4602460B46DDE9080114F00DF8804697
:109D4000894602460B46DDE90801CDE9028914F097
:109D500003F832463B4613F0FFFF13A3D3E9002379
:109D600006460F46DDE9060114F0AEF932463B46E1
:109D700013F0F2FF02460B4640464946CDE9042364
:109D800013F0EAFF80468946A7E700BFAFF30080E3
:109D90000000601A61B4D03D7370032E8A19A33B92
:109DA0000000002E8A19A33BC14920259A837B39E4
:109DB0004805040000000000574A2DE9F84F21F043
:109DC0000048904506460F462CDC544B0029B4BF92
:109DD000534D544D98454FF0000411DC524B9845BB
:109DE00026DC4BA3D3E9002313F0B8FF00224F4B2E
:109DF00014F0FAFB002840D030463946BDE8F88F11
:109E00004B4B984530DD4B4B984568DD0133984509
:109E100062D0304639463EA3D3E9002314F054F90A
:109E2000BDE8F88F02460B4613F098FFBDE8F88FA7
:109E300012F0CAF801F048F83F4B984506460F4625
:109E400023DD0022394B13F089FF02460B463046D2
:109E5000394614F063FA32463B4613F07FFF224640
:109E60002B4614F031F9E1E712F0AEF8FEF75CFC96
:109E700022462B4614F028F9D8E73046394612F02E
:109E8000A3F801F021F806460F4632463B4630461D
:109E9000394613F063FF324682468B463B463046D6
:109EA000394614F011F90022804689461F4B30468E
:109EB000394613F053FF02460B464046494614F01C
:109EC0002DFA02460B465046594613F045FF2246EE
:109ED0002B4614F0F9F8A9E7184B984299D8304668
:109EE000394612F071F800220E4B14F0EDF8FEF72F
:109EF0001BFC06460F4602460B462046294614F038
:109F0000E3F832463B4614F0DFF88FE7AFF300800A
:109F10003374AC3C1F7BAC7FFFFFEF7FFFFF35400E
:109F20000000E0BF0000E03FFFFF2F3E0000F03FD9
:109F3000412E8640CD338640FFFFEF3F7DF8B98F3D
:109F40002DE9F04F21F00048B8F1795F85B0064661
:109F50000F4692469B466BDA14F066FB002800F031
:109F6000E18032463B463046394614F0ADF874A3E2
:109F7000D3E9002304460D4614F0A6F872A3D3E9F2
:109F8000002313F0EBFE22462B4614F09DF870A33D
:109F9000D3E9002313F0E0FE22462B4614F094F898
:109FA0006DA3D3E9002313F0D9FE22462B4614F00B
:109FB0008BF86BA3D3E9002313F0CEFE22462B4689
:109FC00014F082F868A3D3E9002313F0C7FE2246F9
:109FD0002B4614F079F8CDE900010022664B2046AB
:109FE000294614F071F8DDE90023804689462046B1
:109FF000294614F069F8524604460D465B46304641
:10A00000394614F061F802460B462046294613F003
:10A01000A3FE02460B464046494613F09DFE02460B
:10A020000B460020554913F097FE05B0BDE8F08FB0
:10A0300002460B4614F048F841A3D3E90023044636
:10A040000D4614F041F840A3D3E9002313F086FE37
:10A0500022462B4614F038F83DA3D3E9002313F031
:10A060007BFE22462B4614F02FF83BA3D3E90023B6
:10A0700013F074FE22462B4614F026F838A3D3E9D9
:10A08000002313F069FE22462B4614F01DF836A378
:10A09000D3E9002313F062FE2B46224614F014F895
:10A0A000374B9845CDE9000197DD364B98453EDCAE
:10A0B000A8F500130022002030499046994613F07D
:10A0C0004BFECDE9020100222B4B2046294613F01E
:10A0D000FBFF42464B4613F03FFEDDE9002380467E
:10A0E00089462046294613F0EFFF524604460D46A6
:10A0F0005B463046394613F0E7FF02460B462046E2
:10A10000294613F029FE02460B464046494613F005
:10A1100023FE02460B46DDE9020113F01DFE05B0E9
:10A12000BDE8F08F1549002005B0BDE8F08F9FED28
:10A13000107B4FF000088DED027BDFF84C90C2E7FA
:10A14000D43888BEE9FAA8BDC4B1B4BD9EEE213EA4
:10A15000AD529C804F7E923E9015CB19A001FA3EE5
:10A160007751C1166CC1563F4C5555555555A53FB5
:10A17000000000000000E73F0000E03F0000F03F6B
:10A180003233D33F0000E93F0000D23F000000001F
:10A190002DE9F04FADF5197DBE4CA29EBE4D54F891
:10A1A00026600793D41E85FB0475E417C4EBA50451
:10A1B00024EAE4741D46631CA3EB8303013D02EB18
:10A1C000C3030593731904960994019503900B91A9
:10A1D000A4EB05071AD43B44002400255E1C0DF1B6
:10A1E0008008DDF88C9208E059F8270013F002FF90
:10A1F0000137B742E8E8020108D0002FF4DA01374E
:10A2000020462946B742E8E80201F6D1049B002B1C
:10A21000079B4FEAC30302932ADB039A20A902EBB0
:10A22000030801EB0309049B72AA02EBC30B0DF5B3
:10A23000E07A019B002B4FF000064FF0000711DB86
:10A24000039C4D4675E90223F4E8020113F03CFF3C
:10A2500002460B463046394613F080FD444506461B
:10A260000F46EFD1EAE80267DA4509F10809E0D1C3
:10A27000DDE90204049920448B0082460BA8A3F177
:10A280000802C31808930CAB13440A938B4698AB8F
:10A2900003EBCB03BBF1000F53E9284529DD70AB7D
:10A2A00003EBCB080DF1300900227C4B20462946F8
:10A2B00013F00AFF14F0B8F913F09CFE0022784B5B
:10A2C00006460F4613F000FF02460B46204629467D
:10A2D00013F042FD14F0A8F978E9022349F8040BC1
:10A2E0003946304613F03AFD70AB984504460D46AA
:10A2F000DAD1DDF81490204629464A4601F030F8BC
:10A3000000224FF07F5304460D4613F0DDFEFCF7AC
:10A31000A7FD0022634B13F0D7FE02460B462046F2
:10A32000294613F019FD0D46044614F07DF98046C8
:10A3300013F060FE0B4602462946204613F00CFD42
:10A340004B46002B06460F4640F3E1800BF1FF32EF
:10A350000CA9C9F1180351F8225045FA03F101FA8A
:10A3600003F30CA8EB1A40F82230C9F11705884412
:10A3700043FA05F5002D2CDDBBF1000F08F10108B3
:10A3800040F381820C9C002C40F0A780BBF1010FB0
:10A390000AD00CA9012251F8044F531C002C40F0A4
:10A3A0009E809B451A46F6D1059B002B0EDD012BA6
:10A3B00000F0D980022B09D10BF1FF320CAB0CA9B4
:10A3C00053F82230C3F3150341F82230022D00F078
:10A3D000AF80002200233046394614F0DDF8002813
:10A3E00000F05382049B0BF1FF394B4510DC0BF15D
:10A3F00080430CAA013B089802EB8303002253F828
:10A400000419834242EA0102F9D1002A40F0B680E1
:10A41000049B0CAA013B52F82330002B40F0A18092
:10A420000A9A012352F8041901330029FAD05B4437
:10A430000BF10109994506934CDC099A079909EB40
:10A44000020801EB0B0508F1804802EB030BA39B0C
:10A4500008F1FF3803EB880870AB03EBC909A39B35
:10A4600020A903EB8B0301EBC505029358F8040FF9
:10A4700013F0C0FD0B4601990246002905F1080BB7
:10A48000C5E900234FF000064FF000071CDB039CDA
:10A490000CE000BF680A0400ABAAAA2A0000703EC4
:10A4A000000070410000204075E90223F4E8020139
:10A4B00013F00AFE02460B463046394613F04EFCB6
:10A4C000544506460F46EFD1029B9845E9E80267DE
:10A4D0005D46CBD1DDF818B0D9E6012300220CA9E6
:10A4E000C4F180749B4541F822400EDD51F82320D1
:10A4F00001EB8B0001EB83036FF07F4100E01A68F2
:10A500008A1A43F8042B8342F9D101244CE706D17F
:10A510000BF1FF330CAA52F82350ED152AE7002265
:10A520007B4B14F057F8002840F0A381054650E714
:10A5300032463B460020774913F00EFC06460F4694
:10A54000002C3FF446AF059A7249002000F008FF46
:10A5500002460B463046394613F0FEFB06460F46D0
:10A5600037E7012363E70BF1FF320CAB0CA953F87B
:10A570002230C3F3160341F8223027E70CAB059ACB
:10A5800053F82930183ACDE9068505926BB909F1DF
:10A590008043013B0CA901EB830353F8041909F133
:10A5A000FF39183A0029F8D00592059A5949002038
:10A5B00000F0D6FEB9F1000F04460D46C0F2C0818E
:10A5C0004FEAC90370AA02EB030808930CAB03EB34
:10A5D0008906DFF844B14FF0000A08F10807043695
:10A5E00056F8040D13F006FD22462B4613F06CFDC1
:10A5F0005B4667E9020152462046294613F064FD96
:10A600000CAB9E4204460D46EAD148AB039301933E
:10A61000CDF8149009F10103DDF810900293C346C0
:10A620004FF0000AB9F1000FC0F22A81DFF8EC8088
:10A630005D4635A3D3E9002300260027002403E06C
:10A64000544510DCF8E80223F5E8020113F03CFD64
:10A6500002460B463046394613F080FB0134A145D3
:10A6600006460F46ECDA019BE3E802670193029B82
:10A670000AF1010A9A45ABF1080BD3D1A29BDDF890
:10A680001490032B39D8DFE813F0D9000600060038
:10A690004D0048AB0393B9F1000F4FF000004FF0AD
:10A6A000000109DB039D05EBC904083474E90223AA
:10A6B00013F054FBA542F9D1079B002B40F01E81FB
:10A6C0000B9BC3E900010B4603990246D1E9000147
:10A6D00013F042FBB9F1000F0CDD4AAD0124013447
:10A6E000F5E8022313F03AFBA145F8DA079B002BAB
:10A6F00040F014810B9BC3E90201069B03F00700A5
:10A700000DF5197DBDE8F08F00000040FB21F93FF9
:10A710000000E03F0000F03F0000703E30F4030016
:10A7200048AB0393B9F1000F40F32781039ACDF8AA
:10A7300010904FEAC9030193D318D3E900AB09F194
:10A740000053013B02EBC9080293914678E9026786
:10A7500052465B463046394613F000FB04460D4630
:10A7600002460B463046394613F0F6FA52465B462F
:10A7700013F0F4FAC145A246AB46C8E90201C8E9A4
:10A780000045E3D1DDF81090B9F1010F40F3F580F9
:10A79000019B039A02991344C900D3E9006701F1B0
:10A7A000080A019192440DF5947B7AE902893246B8
:10A7B0003B464046494613F0D1FA04460D46024650
:10A7C0000B464046494613F0C7FA32463B4613F063
:10A7D000C5FAD34526462F46CAE90201CAE9004513
:10A7E000E3D1019C039B1034002000211C4403F1A1
:10A7F000100574E9022313F0B1FAA542F9D1039CC4
:10A80000079ED4E90023D4E90245002E00F08A8097
:10A8100003F1004701F100430B99C1E90403069BD2
:10A820002646944605F1004403F00700C1E900C73D
:10A83000C1E902640DF5197DBDE8F08F089C039D08
:10A840000834002000212C4474E9022313F086FA16
:10A85000A542F9D1079B13B101F1004319460B9BA7
:10A86000C3E90001069B03F007000DF5197DBDE863
:10A87000F08FBBF1000F08F1010874DD022581E5BE
:10A8800000260027EFE600248EE5CDE90685059D2C
:10A89000304639466A4200F063FD0022384B0646D6
:10A8A0000F4613F097FE00B30022364B3046394670
:10A8B00013F00AFC13F0B8FE044613F09BFB0022D1
:10A8C0002F4B13F001FC0B4602463946304613F07D
:10A8D00043FA13F0A9FE0BF101090CAB183543F84C
:10A8E0002B00059543F829405FE63046394613F0C2
:10A8F0009BFE0CABD94643F82B0056E60B9C01F1AE
:10A900000043C4E900030B4603990246D1E9000164
:10A9100013F022FAB9F1000F3FF7DFAE01F1004367
:10A920001946E7E60B9EC6E90023069BC6E904012B
:10A9300003F00700C6E902450DF5197DBDE8F08F6B
:10A94000A29B032B3FF6D9AE01A252F823F000BF21
:10A9500061A9020093A6020093A6020021A70200AB
:10A960000020002176E732463B460020064913F0DE
:10A97000F3F9022506460F462BE5002000213EE7AD
:10A98000000070410000703E0000F03F0000000039
:10A990002DE9F04F21F00046B6F1795F85B004460D
:10A9A0000D469046994604DA13F03EFE002800F06A
:10A9B000858022462B462046294613F085FB064615
:10A9C0000F4602460B462046294613F07DFB41A365
:10A9D000D3E9002382468B463046394613F074FB98
:10A9E0003EA3D3E9002313F0B7F932463B4613F0F8
:10A9F0006BFB3CA3D3E9002313F0B0F932463B468E
:10AA000013F062FB39A3D3E9002313F0A5F9324612
:10AA10003B4613F059FB37A3D3E9002313F09EF90B
:10AA20000E9BCDE900019BB30022294B40464946CD
:10AA300013F04AFBDDE90023CDE9020150465946F7
:10AA400013F042FB02460B46DDE9020113F084F9E4
:10AA500032463B4613F038FB42464B4613F07CF936
:10AA600019A3D3E9002306460F465046594613F072
:10AA70002BFB02460B463046394613F06FF902466F
:10AA80000B462046294613F067F905B0BDE8F08F64
:10AA900002460B463046394613F016FB0AA3D3E9AB
:10AAA000002313F059F952465B4613F00DFB224682
:10AAB0002B4613F053F905B0BDE8F08F2046294628
:10AAC00005B0BDE8F08F00BF495555555555C53FF8
:10AAD0000000E03F7CD5CF5A3AD9E53DEB9C2B8A6C
:10AAE000E6E55A3E7DFEB157E31DC73ED561C1196B
:10AAF000A0012A3FA6F810111111813F00000000AB
:10AB00002DE9F04FC04C21F0004687B0A6428246A6
:10AB10008B460F46CDE900231ADC13F085FD002893
:10AB20003FD1109B524601331343334300F0B781AA
:10AB3000109B012B00F0C0815B460020B34913F04D
:10AB4000EDFB04460D462046294607B0BDE8F08FD0
:10AB5000AF4B9E4225DD002909DADDE9004522469A
:10AB600005F10043CDE900230BF100418B4652462D
:10AB70005B4685A1D1E9000113F0EEF8DDE9002381
:10AB800004460D4682A1D1E9000113F0E5F89FEDDE
:10AB9000827B22462B468DED007B13F0DFF8824648
:10ABA0008B4652465B465046594613F08DFA024694
:10ABB0000B468046894613F087FA424604460D4606
:10ABC0004B465046594613F07FFA75A3D3E900234C
:10ABD000CDE902012046294613F076FA72A3D3E9A3
:10ABE000002313F0BBF822462B4613F06DFA70A336
:10ABF000D3E9002313F0B2F822462B4613F064FA8F
:10AC00006DA3D3E9002313F0A9F822462B4613F0D5
:10AC10005BFA6BA3D3E9002313F0A0F822462B467E
:10AC200013F052FA68A3D3E9002313F097F84246D1
:10AC30004B4613F049FA66A3D3E90023CDE904019A
:10AC40002046294613F040FA63A3D3E9002313F00A
:10AC500085F822462B4613F037FA61A3D3E9002387
:10AC600013F07CF822462B4613F02EFA5EA3D3E9AC
:10AC7000002313F073F822462B4613F025FA5CA349
:10AC8000D3E9002313F06AF822462B4613F01CFA8E
:10AC900059A3D3E9002313F061F802460B46DDE91E
:10ACA000040113F05BF8DDE9022313F00DFADDE98E
:10ACB000004522462B4613F051F842464B4613F00E
:10ACC00003FA22462B4613F049F84DA3D3E900239B
:10ACD00004460D46DDE9020113F0F6F922462B4643
:10ACE00013F03CF80B4602468046894650465946CA
:10ACF00013F034F8464B9E4204460D4600F38C8018
:10AD0000109B012B3BD002460B4600203F4913F01D
:10AD100005FB002406460F462046294652465B4660
:10AD2000CDE90067CDE90201009413F015F8DDE9E3
:10AD300000AB02460B464046494613F00DF852461A
:10AD40005B4613F0C1F9524604460D465B46DDE909
:10AD5000020113F0B9F900222E4B12F0FFFF024658
:10AD60000B462046294612F0F9FF32463B4613F0C7
:10AD7000ABF952465B4612F0F1FF04460D46204601
:10AD8000294607B0BDE8F08F182D4454FB21E93F58
:10AD9000075C143326A6813C000000000000000080
:10ADA000D47ABF74702AFB3EE9A7F0320FB8123F85
:10ADB00068108D1AF726303F1583E0FEC8DB573F39
:10ADC00093846EE9E326823FFE41B31BBAA1AB3FF9
:10ADD000735360DBCB75F3BEA69237A0887E143F19
:10ADE0000165F2F2D844433F280356C9226D6D3FF6
:10ADF00037D60684F464963F7AFE10111111C13FD4
:10AE0000635555555555D53FFFFF2F3E0000F0BF08
:10AE10002794E53F0000F03F109813F0EBF822462E
:10AE2000CDE900012B462046294613F04DF9DDE916
:10AE30000023CDE902012046294612F08FFF024689
:10AE40000B46DDE9020113F069FA42464B4612F067
:10AE500083FF02460B465046594612F07DFF0246DC
:10AE60000B4612F07BFF02460B46DDE9000112F0B3
:10AE700073FF0446B81700F00200C0F101000D4650
:10AE800013F0B8F802460B462046294613F01CF989
:10AE900004460D462046294607B0BDE8F08F5046CF
:10AEA000594611F091F802460B460020044913F070
:10AEB00035FA04460D4662E754465D465FE700BF3B
:10AEC0000000F03F000000002DE9F04FCC4A21F0D7
:10AED0000043934285B082468B460C4620D9C94A2E
:10AEE000934200F2D780002C80F2A481ACA3D3E976
:10AEF00000235046594612F031FF0022002313F080
:10AF000055FB002840F0D180A7A3D3E90023504689
:10AF1000594613F0D9F802460B460020BA4994E18D
:10AF2000BA4A934200F2E580B94A934240F22E8138
:10AF3000002301930022B74B5046594613F0C4F842
:10AF400006460F4602460B465046594613F0BCF8DB
:10AF500097A3D3E9002304460D4613F0B5F896A352
:10AF6000D3E9002312F0FAFE22462B4613F0ACF888
:10AF700093A3D3E9002312F0EFFE22462B4613F0F1
:10AF8000A3F891A3D3E9002312F0E8FE22462B4652
:10AF900013F09AF88EA3D3E9002312F0DDFE2246C7
:10AFA0002B4613F091F800229B4B12F0D7FE8046FF
:10AFB000894602460B463046394613F085F802466C
:10AFC0000B460020954912F0C7FE064602460B4686
:10AFD0000F464046494612F0BFFE3246804689463B
:10AFE0003B465046594613F06FF802460B46002088
:10AFF0008B4912F0B1FE02460B464046494613F01B
:10B000008DF922462B4613F05FF8019E02460B464F
:10B01000002E4DD0DDE9026732463B4612F09CFE21
:10B0200052465B4613F050F832463B4612F094FE0F
:10B030002B46224612F090FE019B013306460F4636
:10B0400000F02381019B012B7BD0019A531C392BEB
:10B050004FEA025500F22881019A132A40F35581E4
:10B06000019BC3F57F7403340022230512F076FEA2
:10B0700002460B465046594612F06EFE0022664BC1
:10B0800012F06CFE824605EB010B5046594605B0A6
:10B09000BDE8F08F634A93421BD9C1F31303034306
:10B0A000024640F012810029EFDA00205E490DE0EF
:10B0B0005046594613F008F822462B4612F04CFE33
:10B0C00002460B465046594612F046FE05B0BDE812
:10B0D000F08F41A3D3E9002313F086FA00283FF450
:10B0E00002AF3FA3D3E900231046194612F0ECFF4C
:10B0F000ECE74E4A934200F2EC8000293AA3D3E9F0
:10B10000002339DA12F02AFE39A7D7E900674FF099
:10B11000FF3380468946019332463B4640464946C6
:10B1200012F01AFE02460B4682468B4640464946BE
:10B1300012F012FE32463B4612F00EFECDE902013D
:10B14000F8E600223A4B5046594613F02FFA0028F1
:10B1500000F0CC805046594600222E4B12F0FEFDE6
:10B1600002460B463046394612F0F6FD00224FF0FB
:10B17000404312F0A9FFA9E712F0EEFD012380463B
:10B18000894601931CA7D7E90067C5E714A3D3E953
:10B19000002312F0E3FD02460B468FE7AFF3008079
:10B1A00059F3F8C21F6EA501FE822B654715F73FC4
:10B1B0002DC3096EB7FD8ABE3952E686CACFD03E8E
:10B1C000B7DBAA9E19CE143F8555FE19A0015A3F40
:10B1D000F41011111111A13FEF39FAFE422E8640F1
:10B1E0009C7500883CE4377E0000E0FE422EE63F7E
:10B1F000763C7935EF39EABD763C7935EF39EA3D71
:10B2000079684340412E86400000E0BF422ED63F81
:10B21000FFFF8F3C0000E03F0000F03F00000840CF
:10B2200000001840FFFFEF7F0000F0BFB1A2F03F29
:10B230000000D0BF44A3D3E900235046594612F082
:10B2400043FF02460B460020414912F087FD13F0F0
:10B25000EBF9019012F0CEFE37A3D3E900230646A6
:10B260000F4612F031FF02460B465046594612F087
:10B2700073FD33A3D3E9002380468946304639461F
:10B2800012F022FF06460F4646E702460B4650469E
:10B29000594612F061FD00222D4B12F015FF0022DD
:10B2A0002B4B12F059FD11E752465B4612F054FD4C
:10B2B00002460B460020274912F04EFD6B18194636
:10B2C0000022244B12F048FD00E70B4612F046FD29
:10B2D000FCE61DA3D3E9002312F0F6FE002C024683
:10B2E0000B464FF00000AFDA1B49AEE732463B4653
:10B2F0005046594612F030FD02460B4612F02EFD24
:10B300000022144B12F02AFDE0E64FF4001343FA3A
:10B3100002F452465B4612F01FFDC4F17F5700262F
:10B3200007F5401702460B463046394612F014FD29
:10B33000A8E600BFAFF300800000E0FE422EE63F2B
:10B34000763C7935EF39EA3DFE822B654715F73FAC
:10B350000000E03F0000F03F0000E0BF0000000000
:10B36000F8B5C1F30A5304460D460E4617460BBB0B
:10B3700021F00046034633431BD0354B002212F028
:10B38000A3FE344B9F4204460D4635DBC1F30A53FE
:10B390000E46363B3B4440F2FE72934232DC002BB9
:10B3A00011DD26F0FF4626F4E00646EA0355204666
:10B3B0002946F8BD40F2FF729342EBD102460B469C
:10B3C00012F0CCFCF8BD13F1350F28DA4CF25033F3
:10B3D0009F4222462B460ADD19A1D1E9000112F055
:10B3E0002DFC17A3D3E9002312F06EFEF8BD16A1C1
:10B3F000D1E9000112F022FC13A3D3E9002312F0DB
:10B4000063FEF8BD22462B460DA1D1E9000112F0E2
:10B4100015FC0BA3D3E9002312F056FEF8BD26F06D
:10B42000FF4626F4E006363346EA03552046294611
:10B430000022094B12F048FEF8BD00BFAFF30080B8
:10B440009C7500883CE4377E59F3F8C21F6EA50155
:10B4500000005043B03CFFFF0000903C10B5054C8D
:10B46000237833B9044B13B10448AFF300800123B0
:10B47000237010BD1085002000000000C00B0400E8
:10B4800008B5034B1BB103490348AFF3008008BD67
:10B490000000000014850020C00B0400154B002B99
:10B4A00008BF134B9D46A3F5803A00218B460F46FB
:10B4B0001348144A121A09F0F9F80F4B002B00D068
:10B4C00098470E4B002B00D0984700200021040025
:10B4D0000D000D48002802D00C48AFF3008012F098
:10B4E000E3FB2000290005F025F912F0C9FB00BF9D
:10B4F0000000080000000420000000000000000020
:10B50000008400207C8C002000000000000000006F
:10B5100070B504460E4600F047FA88B10368DB6A4E
:10B5200005469847082C0CD0A4F10903012B14D927
:10B530003246214610230D20BDE8704004F058B873
:10B5400070BD2B6828465B6A98470228F0DC2B68A0
:10B5500028461B6A04219847EAE72B6828465B6A5D
:10B5600098470528E4DC2B6828461B6A0821984781
:10B57000DEE700BF38B52DED028B054600F014FA6A
:10B58000044640B10368DB6A9847032D03D8DFE81F
:10B5900005F02F363D06BDEC028B002038BD20465D
:10B5A0000CF09CFA07EE900A2046F8EEE78A0CF0C1
:10B5B000A5FA07EE900A2046B8EEE78A0CF0AEFA3C
:10B5C00068EE087A07EE100AE8EEA87AB8EEC77AB5
:10B5D000E7EE077AF5EE407AF1EE10FAB1EEE78A7F
:10B5E0001BD4FDEEC87ABDEC028B17EE900A38BD75
:10B5F000BDEC028B2046BDE838400CF06FBABDECC4
:10B60000028B2046BDE838400CF078BABDEC028BC6
:10B610002046BDE838400CF081BA17EE900A11F0D0
:10B6200009FADEE738B5044600F0BEF958B1036800
:10B63000DB6A0546984744B1012C04D12846BDE891
:10B640003840FBF73DB9002038BD2846BDE83840FA
:10B65000FBF716B910B5044600F0A6F928B1036847
:10B6600021461B6ABDE81040184710BD00487047CE
:10B6700016FCFFFF704700BF10B5034B0360044684
:10B680000CF008F8204610BD3001040010B5054B41
:10B69000036004460BF0FEFF204613F09DFA20469F
:10B6A00010BD00BF300104002DE9F041032184B03A
:10B6B0000546512001F0DAFCDFF8E8C2AE4B044643
:10B6C00004F00F06C4F3031714F4807408BF634634
:10B6D000AA4831463A460BF0BDF9221C18BF012298
:10B6E00031463B4628460EF0FBF80023AB60A448E9
:10B6F0000BF0B0F94FF0FF31032001F0B7FCC0B2FE
:10B7000004F08CFA4FF0FF310446022001F0AEFC49
:10B71000C0B204F083FA002C3BD0002839D0014697
:10B72000204604F041F8064600284DD04FF0FF3186
:10B73000462001F09BFC322804464ED04BDD3828D1
:10B7400000F0B18068285FD14FF0FF31012001F097
:10B750008DFCC0B204F062FA80464C2013F045FA2A
:10B76000052301934246009431462B4607460DF0CF
:10B77000ADF8AF603B6838469B6A9847A868036895
:10B78000DB6A98477F480BF065F9284604B0BDE8AE
:10B79000F0817D480BF05EF94FF0FF31192001F088
:10B7A00065FCC0B204F03AFA4FF0FF3104461820AD
:10B7B00001F05CFCC0B204F031FA0146204603F00F
:10B7C000F3FF06460028B1D170480BF043F9284634
:10B7D00004B0BDE8F081302816D14FF0FF310120D0
:10B7E00001F044FCC0B204F019FA80464C2013F07A
:10B7F000FCF9A4B207460523019342460094314662
:10B800002B460CF019FEB4E701243268CDE9004460
:10B810000023176AAB600F220DF10F03322130466F
:10B82000B847002800F085803368CDE900440F2236
:10B830001F6A30210DF10F033046B84700284AD067
:10B840003368CDE900440D221F6A38210DF10F0342
:10B850003046B847002872D03268CDE900440DF177
:10B860000F03176A682175223046B847002845D172
:10B87000682147480BF0EEF84FF0FF31204601F009
:10B88000F5FBC0B204F0CAF980464C2013F0ADF9C4
:10B8900005246823CDE90034424631462B4607464D
:10B8A0000DF014F865E74FF0FF31012001F0DEFBE9
:10B8B000C0B204F0B3F98046442013F096F9052392
:10B8C0000746019342462B46009431460CF056FF42
:10B8D000304B3B604DE730212D480BF0BBF8302456
:10B8E0004FF0FF31012001F0C1FBC0B204F096F926
:10B8F00080464C2013F079F907467CE726480BF088
:10B90000A9F8AF68002F7FF435AF4FF0FF31032067
:10B9100001F0ACFBC0B204F081F930B11F480BF06C
:10B9200099F8284604B0BDE8F0811D480BF092F864
:10B930004DE7322116480BF08DF83224D0E738213C
:10B9400013480BF087F84FF0FF31204601F08EFBD3
:10B95000C0B204F063F98046442013F046F9052490
:10B9600038230746CDE9003442462B4631460CF0D9
:10B9700005FF084B3B60FCE6B4F40300C4F403008D
:10B98000E4F40300A4F50300F4F4030008F5030055
:10B9900034F5030080F4030020F5030048F50300AC
:10B9A00084F50300BCF4030038B5114C23680BB1D7
:10B9B000986838BD4FF0FF31012001F057FBC0B24D
:10B9C00004F02CF940B10C2013F00FF90546FFF7F5
:10B9D0006BFE2560A86838BD4FF0FF31032001F0F1
:10B9E00045FBC0B204F01AF90028ECD138BD00BF05
:10B9F0002C85002008B501F06BFCFBF7D5FCBDE8F9
:10BA0000084001F0C5B900BF08B501F061FCFBF7C3
:10BA10003BFDBDE8084001F0BBB900BF08B501F02F
:10BA200057FC10F047FBBDE8084001F0B1B900BF7A
:10BA300008B501F04DFC10F039FFBDE8084001F0F9
:10BA4000A7B900BF08B501F043FCFBF7BDFCBDE89A
:10BA5000084001F09DB900BF08B501F039FC10F0B5
:10BA60005BFDBDE8084001F093B900BF08B501F0E7
:10BA70002FFCFAF745FFBDE8084001F089B900BF87
:10BA800008B501F025FC10F09DFCBDE8084001F070
:10BA90007FB900BF70B5049E96420C4624DB154664
:10BAA0006BB9042A19D0022A02D110F0010310D078
:10BAB00001462A46204607F067FC002070BD10446E
:10BAC0000D4410F8013D01F8013B8D42F9D10020F1
:10BAD00070BD02880A80184670BD10F00303E7D1DC
