:1040000000000320814801007D48010001DC000020
:104010007D4801007D4801007D480100000000004E
:104020000000000000000000000000007D480100CA
:104030007D480100000000007D4801007D4801002E
:104040007D4801007D4801007D4801007D48010058
:104050007D4801007D4801007D4801007D48010048
:104060007D4801007D4801007D4801007D48010038
:104070006DCF010075CF01007DCF010085CF01001C
:104080008DCF010095CF01009DCF0100A5CF01008C
:10409000ADCF0100B5CF0100BDCF0100C5CF0100FC
:1040A000CDCF0100D5CF0100DDCF0100E5CF01006C
:1040B0007D4801007D4801007D48010021CA0100C2
:1040C00025CA010029CA01002DCA010031CA010018
:1040D0007D4801007D4801007D4801007D480100C8
:1040E0007D4801007D4801007D4801007D480100B8
:1040F000000000007D48010099C50100A5C5010030
:10410000A9C50100ADC50100B1C50100BDC50100D3
:10411000C1C50100C5C50100C9C50100D5C5010063
:10412000D9C50100DDC50100E1C50100EDC50100F3
:10413000F1C50100F5C50100F9C5010005C6010082
:1041400009C601000DC6010011C601001DC601000F
:1041500021C6010025C6010000000000000000008B
:10416000000000000000000000000000000000004F
:10417000000000000000000000000000000000003F
:104180008D9B0100959B0100999B0100919B010073
:10419000000000007D4801007D4801007D480100CD
:1041A0007D4801007D4801007D4801007D480100F7
:1041B0007D4801007D4801007D4801007D480100E7
:1041C0007D4801007D4801007D4801007D480100D7
:1041D0007D4801007D4801007D4801007D480100C7
:1041E0007D4801007D4801007D48010085BC01003B
:1041F0008DBC010095BC01009DBC0100A5BC010067
:10420000ADBC010000000000000000007D4801007E
:104210007D4801007D4801007D4801007D48010086
:104220007D4801007D4801007D4801007D48010076
:104230007D4801007D4801007D4801007D48010066
:104240007D4801007D4801007D4801007D48010056
:104250007D4801007D4801007D4801007D48010046
:10426000000000007CB0EE877CB0EE87FF00FF000E
:10427000FF00FF00FF00FF00FF00FF00FF00FF0046
:10428000FF00FF00FF00FF00FF00FF00FF00FF0036
:10429000FF00FF00FF00FF00FF00FF000000000024
:1042A0002DE9F04F85B003910778A7F10903042B9E
:1042B000044607F07F0200F10100F5D9202AF3D06F
:1042C0002B2F04BF677804462D2F75D09FED427BBE
:1042D0008DED007B4FF000084FF000099FB34FF0C9
:1042E000000C25464FF0000ADFF8FCB0644619E0E8
:1042F00019F046F980468946304619F0D7F842460B
:104300004B4618F087FF5246804689465B46DDE9FA
:1043100000013CB319F05EFACDE90001A44615F89E
:10432000017F7FB1A7F13006092E52465B46404619
:104330004946DDD9CCB92E2F17D115F8017F0124BC
:10434000002FEFD12C4642464B46DDE9000119F023
:1043500017F980468946039B404649461C6005B0D4
:10436000BDE8F08F4FF0010CD9E72C46BCF1000FEF
:1043700029D042464B46DDE9000119F001F907F06A
:10438000DF07452F80468946E5D10399681C0A223C
:104390001BF094FF14490246002019F0A1FC0246CC
:1043A0000B464046494619F0EBF8804689464046A0
:1043B000494605B0BDE8F08F9FED097B67788DED2C
:1043C000007B013486E7DFF824904FF00008404678
:1043D000494605B0BDE8F08F000000000000F03F46
:1043E000000000000000F0BF000024400000F87F43
:1043F0002DE9F0470023144600228046894619F033
:1044000031FB28B109F1004399462D232370013473
:10441000002200234046494619F01AFB28B13022F9
:10442000002322706370BDE8F087404649461AF0C9
:1044300053FA19F055FB73A3D3E900230746494605
:10444000404619F00FFB00284ED170A3D3E900239A
:104450004046494619F024FB002845D10E2F07F1AC
:10446000010540F3B980A7F10E06324600206249EB
:1044700019F036FC02460B464046494619F0AAF9A7
:1044800000225E4B18F0C6FE19F066FC002DA7F165
:104490000F0E4FF0010C4DDD594FDFF878810122EE
:1044A00045F6F3294FF02E0A494508BF40454FF025
:1044B00030030AD3B0EB080061EB0901494508BF9E
:1044C000404503F10103F5D2DBB2237050EA01034A
:1044D00004F101084AD1954252DD0132102A4FD031
:1044E000444677E90289DFE7002F33DB3A460020B4
:1044F000414919F0F5FB02460B464046494619F082
:1045000069F93BA3D3E900238046894601250026AB
:104510004046494619F034F80022384B18F07AFE2C
:1045200019F01AFC002DBC464FF0FF3E37464FF005
:104530000006B1DC234630224FF02E0803F8022B90
:1045400084F80180FC4345D01C4403F8012BA342AE
:10455000FBD1A1E77A420020274919F0C1FB0246AE
:104560000B464046494619F00BF8CAE7954202F15E
:10457000010204BF84F801A004F10208102AAFD19F
:104580006EB14246302102F8011BC2F101037344AF
:104590004344002BF7DC2EEAEE7301339844BCF160
:1045A000010F12D0BCF1000F4FF0650388F8003006
:1045B000C5BF2B2388F8013008F1010108F1020181
:1045C0006046BDE8F04710F0C9B9002388F8003014
:1045D000BDE8F0871C465FE7C7F10E0200200649E0
:1045E00019F07EFB3E4602460B46012790E700BFCE
:1045F0000000901EC4BCD642000024400000E03FF2
:10460000481302008DEDB5A0F7C6B03E50EFE2D6DC
:10461000E41A4B4400407A1070B54FF0FF3006F0BA
:1046200039F904466FF07F4006F034F9064620461B
:1046300018F02CFF00220C4B18F0A2FF0446304665
:104640000D4618F023FF06A3D3E9002319F0C2F8A2
:1046500002460B462046294618F0DCFD70BD00BF1F
:104660000000E0DFFFFF6F430000F03D00000000AE
:104670002DE9F04F1D461389AB4288BF536885B0C2
:1046800004468CBF53F82500002090468A4606F069
:1046900077FD0022904B18F073FF19F021FAB8F85B
:1046A00008206B1C9A4288BFD8F8042006468CBFAD
:1046B00052F82300002006F063FD0022864B18F01C
:1046C0005FFF19F00DFAB8F808300235AB4288BF29
:1046D000D8F8043007468CBF53F82500002006F0B8
:1046E0004FFD002EC4E9006740F3E280002F40F345
:1046F000DF8071A3D3E90023002584F828501AF045
:104700000FF8002200238046894619F0ABF940B12A
:104710004046494668A3D3E9002318F07BFD804654
:10472000894667A3D3E900234046494619F0B8F902
:10473000C0B165A3D3E900234046494619F09CF96E
:1047400080B101234046494684F8283060A3D3E96C
:10475000002318F05FFD58A3D3E9002319F0E0FF10
:104760008046894600225D4B4046494618F008FFC6
:1047700019F00EFD01F1004300221946564B18F0C6
:10478000FFFE19F0ADF949460546404619F0BCFC5C
:104790000022514B18F0F4FE19F0A2F9DAF80430B7
:1047A0004F49B3F80CB0B3F80AA0A56007FB0BF3B0
:1047B00003EB010806FB0AF6019388FB05234FEA89
:1047C000124C00960E444CEA034C06EA010383FBAC
:1047D000009A06EB0C0E0EEA010ED346CA468EFB7B
:1047E00000675246CDE90267120C42EA0B42DDE94E
:1047F00002AB0CEA010C8CFB00674FEA16495646E7
:104800000A40360C46EA0B4649EA074982FB05ABEB
:104810005F46C144B0445646CDE90267039FE0605D
:10482000360C09EA010908EA010846EA074689FB4D
:1048300005AB334488FB0556CDE9025655462D0C91
:1048400045EA0B45DDE902AB0B40AC4403EAE377F4
:104850000CEA010C554623EAE37367454FEA154518
:1048600002EAE276A8BF674645EA0B45634522EABD
:10487000E272B8BF6346AE444E450EEA010EA8BFD1
:104880004E464A45B8BF4A467745A8BF7746734566
:10489000B8BF73464645A8BF4646C4E905634245CE
:1048A000B8BF424600980199206261622761E261C7
:1048B000204605B0BDE8F08FEA2E4454FB21194094
:1048C000F4D64354FB21F93F320D337F7CD912409B
:1048D000EA2E4454FB2109400000F0400000E03F74
:1048E0000000FFFF0000000008B511F007FBDFED3E
:1048F0000C7A07EE100A67EE277A17EE900A18F086
:10490000E7FD05A3D3E9002318F064FF19F0E8F8E8
:1049100008BD00BFAFF30080EA2E4454FB211940CC
:104920000000B4430000000008B511F0FBFADFED11
:104930000C7A07EE100A67EE277A17EE900A18F045
:10494000C7FD05A3D3E9002318F044FF19F0C8F808
:1049500008BD00BFAFF30080EA2E4454FB2119408C
:104960000000B443000000002DE9F04F046985B059
:10497000E3699B07FCD12368C3F3400BBBF1000F35
:1049800040F0AF80B0F80CA015468046BAF1000F99
:1049900023D0BAF1010F62D0BAF1020F40F0A48027
:1049A0005500E1685448C5F53B438033B3FBF5F54A
:1049B0002A0421F47F0102F47F020A43E260E268E4
:1049C0006B00A0FB03135B0822F07F4242EA036303
:1049D0005846E36005B0BDE8F08FE2684BF6803BD7
:1049E00005EB850022F0FF03ABEB4000019318F0CC
:1049F0004DFD0646B8F80E000F4618F057FD3CA3D3
:104A0000D3E9002318F0BCFD80460BFB05F0894676
:104A100018F03CFD02460B464046494618F0B0FDF2
:104A200002460B463046394618F0F2FB064668004F
:104A30000F4618F02BFD02460B463046394618F05B
:104A4000C9FE19F075F8019BC0B21843E060E36835
:104A5000504623F47F43E36005B0BDE8F08FE26881
:104A60004BF6803A05EB850022F0FF03AAEB4000ED
:104A7000019318F00BFDCDE90201B8F80E0018F013
:104A800015FD1BA3D3E9002318F07AFD06460AFBA7
:104A900005F00F4618F0FAFC02460B463046394640
:104AA00018F06EFD02460B46DDE9020118F0B0FB7E
:104AB000064668000F4618F0E9FC02460B463046F1
:104AC000394618F087FE19F033F8019BC0B218433D
:104AD000E060E368584623F47F43E36005B0BDE837
:104AE000F08F6FF0100075E76FF00C0072E700BFF9
:104AF00095D626E80B2E113EABAAAAAA000000000C
:104B00004F4A21F0004393422DE970430D4604467D
:104B10004DDC4C4A93420E460FDC45A3D3E90023FB
:104B200018F078FB0022484B18F0BAFF002854D048
:104B30002B4620461946BDE87083444A934240DC28
:104B4000B3F1804F49DD19F0DBFA224680468946F1
:104B50002B462046294618F013FD00223A4B18F048
:104B600059FB1AF0EDFA42464B4618F053FB024649
:104B70000B460020344918F02DFE424604460D46EF
:104B80004B464046494618F045FB0B46024629462F
:104B9000204618F03FFB01F0C7FE04460B46002EEE
:104BA0000BDC03F1004320461946BDE870830B4639
:104BB000024618F02FFB04460B4620461946BDE876
:104BC000708319F09DFA01F0AFFE1BA3D3E9002317
:104BD00018F020FB04460B46E1E722462B46204610
:104BE000294618F0CDFC804689462046294619F012
:104BF00087FA00220446144B0D464046494618F0F9
:104C000009FB1AF09DFA00220F4B18F003FB024635
:104C10000B464046494618F0DDFD22462B4618F06B
:104C2000F9FA00F0B1FA04460B46B8E7AFF300809A
:104C30009C7500883CE4377EEF39FAFE422EE63F51
:104C4000FFFFEF7FFFFF2F3E0000F03F0000B0416D
:104C50002DE9F84FB84B21F000469E420D468A469A
:104C600004460EDDB54B9E4200F3B08000F0AB80F1
:104C7000B34BB449B448BAF1000FC8BF1946BDE8F8
:104C8000F88FB24B9E4200F3B980A3F1DE739E42CF
:104C900040F3A4804FF0FF3B22462B462046294696
:104CA00018F06EFC02460B468046894618F068FCF8
:104CB00089A3D3E9002306460F4618F061FC88A3B8
:104CC000D3E9002318F0A6FA32463B4618F058FC08
:104CD00085A3D3E9002318F09DFA32463B4618F02D
:104CE0004FFC83A3D3E9002318F094FA32463B46E5
:104CF00018F046FC80A3D3E9002318F08BFA324663
:104D00003B4618F03DFC7EA3D3E9002318F082FA5D
:104D100042464B4618F034FC7BA3D3E9002380467F
:104D200089463046394618F02BFC79A3D3E9002395
:104D300018F06EFA32463B4618F022FC76A3D3E90F
:104D4000002318F065FA32463B4618F019FC74A3AC
:104D5000D3E9002318F05CFA32463B4618F010FC09
:104D600071A3D3E9002318F053FA32463B4618F0FA
:104D700007FC02460B464046494618F04BFA2246CD
:104D80002B4618F0FDFBBBF1FF3F02460B465CD003
:104D90006F4B704E4FEACB0B5B44D3E9002318F006
:104DA00037FA22462B4618F033FAB34402460B4634
:104DB000DBE9000118F02CFABAF1000F0CDA01F16E
:104DC0000041BDE8F88F00283FF452AF224620464C
:104DD0002B46294618F01EFABDE8F88F54A3D3E9F4
:104DE000002318F017FA00225B4B18F059FE002838
:104DF0003FF450AF20462946BDE8F88F19F080F9FE
:104E0000564B9E4204460D4625DCA3F550239E4298
:104E10004ADC02460B4618F0FDF900224E4B18F012
:104E2000F7F9002206460F464FF0804320462946F8
:104E300018F0F0F902460B463046394618F0CAFC25
:104E40004FF0000B04460D4626E72046294618F091
:104E5000DFF9BDE8F88F424B9E421ADC0022414B3D
:104E600018F0D6F9002206460F463E4B204629464A
:104E700018F086FB0022384B18F0CCF902460B469E
:104E80003046394618F0A6FC4FF0020B04460D469A
:104E900002E702460B460020334918F09BFC4FF016
:104EA000030B04460D46F7E600222B4B18F0B0F931
:104EB000002206460F46284B2046294618F0AAF93C
:104EC00002460B463046394618F084FC4FF0010B81
:104ED00004460D46E0E600BF11DA22E33AAD903F0A
:104EE000EB0D76244B7BA93F513DD0A0660DB13F21
:104EF0006E204CC5CD45B73FFF8300922449C23F89
:104F00000D5555555555D53F2F6C6A2C44B4A2BF4D
:104F10009AFDDE522DDEAD3F6D9A74AFF2B0B33F15
:104F2000711623FEC671BC3FC4EB98999999C93F8D
:104F30009C7500883CE4377EFFFF0F440000F07F43
:104F4000FB21F93FFB21F9BF182D4454FFFFDB3F44
:104F500070130200501302000000F03FFFFFF23F09
:104F6000FF7F03400000F83F0000F0BF000000009A
:104F7000C1F30A522DE9F843A2F2FF36132E0B4675
:104F80000D4604468846074621DC002E4CDB3A4A93
:104F900042FA06F901EA090202431DD034A3D3E91B
:104FA000002318F037F90022002318F079FD48B1EA
:104FB000002D04DD4FF4801343FA06F6B04428EACE
:104FC000090500273C4629462046BDE8F883332ED4
:104FD00006DDB6F5806F3AD019462046BDE8F88365
:104FE000A2F213424FF0FF3929FA02F919EA000F31
:104FF000F2D01FA3D3E9002318F00CF900220023FC
:1050000018F04EFD0028DDD0002D09DD142E25D02E
:105010000123C6F1340603FA06F6371928BF98446F
:1050200027EA09074546CDE711A3D3E9002318F085
:10503000F1F80022002318F033FD0028C2D0002D23
:105040000FDB55EA040707D000270C4DBAE70246EC
:1050500018F0E0F80446C0E73D46B3E705F1010863
:10506000DEE700274FF00045ACE700BFAFF300805C
:105070009C7500883CE4377EFFFF0F000000F03F86
:10508000C1F30A522DE9F843A2F2FF36132E0B4664
:105090000D460446884607461DDC002E3DDB384A97
:1050A00042FA06F901EA0902024319D032A3D3E910
:1050B000002318F0AFF80022002318F0F1FCD0B361
:1050C000002D04DA4FF4801343FA06F6B04428EAC0
:1050D000090500272FE0332E06DDB6F5806F2FD0AF
:1050E00019462046BDE8F883A2F213424FF0FF397B
:1050F00029FA02F919EA000FF2D01FA3D3E900231D
:1051000018F088F80022002318F0CAFC98B1002D8E
:1051100024DB27EA090745460DE017A3D3E900235E
:1051200018F078F80022002318F0BAFC18B1002D0E
:105130000BDB00273D463C4629462046BDE8F88368
:10514000024618F067F80446CBE725F000430D4A05
:105150001F43002F18BF15460027ECE7142E08D078
:105160000123C6F1340603FA06F6371928BF98441E
:10517000CFE705F10108CCE79C7500883CE4377E59
:10518000FFFF0F000000F0BF2DE9F04FD84B994210
:1051900087B00E46074643DDD64B99428A4600F358
:1051A000F680D54B994240F330810B15A3F2FF3BBB
:1051B00000220023CDE902230446D04BCAF3130A90
:1051C0009A454AF07F5500F3158145F44015204675
:1051D00029460022CA4B18F01BF8002204460D464F
:1051E000C84B18F0CDF922462B4618F0C9F9804675
:1051F000894627462E46CDE90089BAF1000F3AD1FB
:10520000002200232046294618F022FC002800F046
:105210001D81BBF1000F40F0858100200146BAE0FE
:10522000B94B21F000449C420A460FDD0022B74BE7
:1052300018F00EFC002800F0B180002200230020AE
:10524000B34918F0C7FA07B0BDE8F08FB14B9C42E4
:1052500040F3B180B04B1A449A4240F2D68000220B
:10526000A84B18F08DF93A46334618F089F9CDE984
:1052700000014FF0000B00224FF0804338463146CA
:1052800017F0C8FF02460B463846314618F0A2FA1E
:1052900002460B468046894618F072F980A3D3E98E
:1052A000002304460D4618F06BF97FA3D3E90023D1
:1052B00017F0B0FF22462B4618F062F97CA3D3E921
:1052C000002317F0A7FF22462B4618F059F97AA3BE
:1052D000D3E9002317F09EFF22462B4618F050F921
:1052E00077A3D3E9002317F095FF22462B4618F049
:1052F00047F975A3D3E9002317F08CFF22462B460C
:1053000018F03EF972A3D3E9002317F083FF224679
:105310002B4618F035F9DDE9004522462B4617F0FB
:1053200079FF42464B4618F02BF9CDE90401BBF159
:10533000000F00F0A880584618F0B8F866A3D3E92B
:1053400000238046894618F01BF965A3D3E90023A2
:1053500004460D464046494618F012F9DDE902239D
:1053600017F058FFDDE9042317F054FF02460B46FF
:10537000DDE9000117F04CFF3A46334617F048FFCD
:1053800002460B462046294617F042FF03E002463C
:105390000B4617F03FFF07B0BDE8F08F3A463346A3
:1053A0003846314617F034FF02460B4618F012FA21
:1053B00007B0BDE8F08F0022584B17F02BFF0022FA
:1053C000002318F06DFB10B1554B9C4262DD3A464C
:1053D00033463846314618F0D3F80022494B18F0CE
:1053E000CFF802460B463846314617F011FF07B09A
:1053F000BDE8F08F45F40015CAF5801A204629460D
:105400004FEAAA0A0BF1010BE3E63D4B3846314661
:10541000002217F0FFFE0B15A3F2FF3BBBF1000FBC
:1054200004460D468A4640F3C3803A46334617F099
:10543000EFFE02460B460020314917F0E9FE2246F6
:105440002B4618F0C7F9CDE90201B6E626A3D3E949
:1054500000232046294618F093F802460B46002008
:10546000274917F0D5FE42464B4618F089F8064604
:105470000F46BBF1000F73D102460B46204629466A
:1054800017F0C6FE87E702460B462046294617F06E
:10549000BFFEA6E7384631467DE700BFAFF3008088
:1054A00044523EDF12F1C23F9FC678D0099AC33FF3
:1054B000DE03CB966446C73FAF788E1DC571CC3FE7
:1054C000599322942449D23F04FA97999999D93F44
:1054D000935555555555E53F0000E0FE422EE63FF9
:1054E000763C7935EF39EA3D555555555555E53FEB
:1054F0007982DA3FFFFFEF7FFFFF3F439DA0060069
:105500000000F03F0000E03FFFFFEF3F0000F0BF72
:10551000000050C3FFFF1F3E3C412D4000005043A0
:10552000FFFF8F3C584617F0C1FF27A3D3E90023A4
:1055300006460F4618F024F8DDE9022317F06AFE4C
:1055400023A3D3E9002304460D463046394618F01C
:1055500017F802460B462046294617F05BFE1AE76D
:10556000584617F0A3FF1AA3D3E9002382468B46BF
:1055700018F006F814A3D3E9002380468946504664
:10558000594617F0FDFFDDE9022317F043FE0246FE
:105590000B463046394617F03BFE22462B4617F0A5
:1055A00037FE02460B464046494617F031FEF2E60A
:1055B0000022094B17F02CFE02460B4638463146B6
:1055C00017F026FE3BE700BF763C7935EF39EA3D20
:1055D0000000E0FE422EE63F0000F03F0000000029
:1055E00008B519F0FDF804A3D3E9002318F0F2F888
:1055F00008BD00BFAFF30080EF39FAFE422EE63F50
:105600002DE9F043DFF8B4808BB004460D4600F07E
:1056100057FF98F90030013306460F462CD022463A
:105620002B462046294618F045FA814620BB2046E5
:10563000294618F065FD1CA3D3E9002318F030FAC1
:10564000D0B11B4A98F90030CDF820900321CDE964
:105650000445CDE90245CDE9001293B1154900207A
:10566000022BCDE9060111D11AF0E4FD22230360DB
:10567000089B9BB9DDE90667304639460BB0BDE8AB
:10568000F0830D4B4FF06042CDE9062368461AF0D7
:1056900081FC0028E8D0089B002BEBD01AF0CAFD53
:1056A000089B0360E6E700BF7DF8B98FCE338640E4
:1056B000082A02000000F07FFFFFEF471E020020D3
:1056C0002DE9F043DFF8E4808BB004460D4600F08E
:1056D000A3FF98F90030013306460F4633D0204629
:1056E00029461AF051FC70B329A3D3E900232046C0
:1056F000294618F0D5F9814650BB27A3D3E90023EA
:105700002046294618F0AEF9E8B198F90030244A4D
:10571000CDF82090042600200021022BCDE904457D
:10572000CDE90245CDE90062CDE9060129D0684600
:105730001AF030FC28B3089B1BB11AF07BFD089BC4
:105740000360DDE90667304639460BB0BDE8F083FB
:10575000134A98F90030019203210022CDE9044553
:10576000CDE90245009108922BB90E4B4FF06042F3
:10577000CDE90623DBE70C490020022BCDE9060129
:10578000D5D11AF057FD22230360D4E7AFF3008090
:10579000EF39FAFE422E864051302DD5104987C090
:1057A000102A0200FFFFEF470000F07F1E020020DA
:1057B0002DE9F84FC44E21F00043B3420C46054694
:1057C0000DDD03F1404303F58013034340F0B9803E
:1057D000002940F3408100200021BDE8F88FBB4E36
:1057E000B34208DCBA4A934200F3B5809CA1D1E9E8
:1057F0000001BDE8F88F0029C0F2708102460B4617
:105800000020B44917F004FD0022B34B17F0B8FE96
:1058100004460D4619F094FC93A3D3E9002389466E
:1058200080462946204617F0ABFE91A3D3E900231A
:1058300017F0F0FC22462B4617F0A2FE8EA3D3E908
:10584000002317F0E5FC22462B4617F099FE8CA3A7
:10585000D3E9002317F0DEFC22462B4617F090FE1A
:1058600089A3D3E9002317F0D3FC22462B4617F077
:1058700087FE87A3D3E9002317F0CCFC22462B46F2
:1058800017F07EFE84A3D3E9002382468B46204690
:10589000294617F075FE82A3D3E9002317F0B8FC60
:1058A00022462B4617F06CFE7FA3D3E9002317F0A6
:1058B000B1FC22462B4617F063FE7DA3D3E90023FB
:1058C00017F0A6FC22462B4617F05AFE0022814B09
:1058D00017F0A0FC02460B465046594617F07AFFD7
:1058E00042464B4617F04CFE002682468B46324617
:1058F0004B463046494617F043FE02460B462046CB
:10590000294617F085FC324604460D464B46404674
:10591000494617F07FFC02460B462046294617F001
:1059200059FF02460B465046594617F073FC324663
:105930004B4617F06FFC02460B4617F06BFCBDE8B8
:10594000F88F02460B4617F063FC02460B4617F031
:1059500041FFBDE8F88F02460B4617F011FE42A347
:10596000D3E9002306460F4617F00AFE40A3D3E909
:10597000002317F04FFC32463B4617F001FE3EA3D2
:10598000D3E9002317F044FC32463B4617F0F8FDFC
:105990003BA3D3E9002317F03DFC32463B4617F00A
:1059A000EFFD39A3D3E9002317F032FC32463B4622
:1059B00017F0E6FD36A3D3E9002317F02BFC32469F
:1059C0003B4617F0DDFD34A3D3E90023804689462A
:1059D0003046394617F0D4FD31A3D3E9002317F040
:1059E00017FC32463B4617F0CBFD2FA3D3E900232B
:1059F00017F010FC32463B4617F0C2FD2CA3D3E94A
:105A0000002317F005FC32463B4617F0B9FD002293
:105A1000304B17F0FFFB02460B464046494617F055
:105A2000D9FE2A46234617F0ABFD02460B4622A1BB
:105A3000D1E9000117F0ECFB02460B46284621464F
:105A400017F0E6FB02460B4605A1D1E9000117F06D
:105A5000DFFBBDE8F88F1AA1D1E9000179E700BFAB
:105A6000182D4454FB21F93F09F7FD0DE13D023F9C
:105A700088B20175E0EF493F3B8F68B52882A43FAB
:105A80005544880E55C1C93F7D6FEB0312D6D43FF4
:105A9000555555555555C53F82922EB1C5B8B33FA2
:105AA00059018D1B6C06E63FC88A599CE52A0040C7
:105AB0004B2D8A1C273A0340075C143326A6913CE1
:105AC000182D4454FB210940FFFFEF3FFFFFDF3F4C
:105AD0000000603C0000F03F0000E03F00225C4B13
:105AE00017F098FB00225B4B17F04AFD40A3D3E967
:105AF000002304460D4617F043FD3FA3D3E90023DE
:105B000017F088FB22462B4617F03AFD3CA3D3E959
:105B1000002317F07DFB22462B4617F031FD3AA3F8
:105B2000D3E9002317F076FB22462B4617F028FD19
:105B300037A3D3E9002317F06BFB22462B4617F05F
:105B40001FFD35A3D3E9002317F064FB22462B4643
:105B500017F016FD804689462046294619F0F0FACE
:105B60002FA3D3E9002306460F462046294617F007
:105B700007FD2DA3D3E9002317F04AFB22462B464D
:105B800017F0FEFC2AA3D3E9002317F043FB2246BB
:105B90002B4617F0F5FC28A3D3E9002317F038FBB8
:105BA00022462B4617F0ECFC0022294B17F032FB63
:105BB00002460B464046494617F00CFE32463B462D
:105BC00017F0DEFC1EA3D3E9002317F021FB3246B9
:105BD0003B4617F01FFB02460B4617F01BFB024625
:105BE0000B4619A1D1E9000117F012FBB1E600BF85
:105BF00009F7FD0DE13D023F88B20175E0EF493F35
:105C00003B8F68B52882A43F5544880E55C1C93FD3
:105C10007D6FEB0312D6D43F555555555555C53FAD
:105C200082922EB1C5B8B33F59018D1B6C06E63F79
:105C3000C88A599CE52A00404B2D8A1C273A03400C
:105C4000075C143326A6913C182D4454FB210940CF
:105C50000000F03F0000E03F414A91422DE9F84347
:105C60000C46054637DD3F4A914209DD02F1795283
:105C700091423EDD02460B4617F0CCFABDE8F883B0
:105C800001F1404202F5801202432ED0B1F1804F63
:105C900037DC0022344B17F0BBFA02460B460446B1
:105CA0000D4617F0B7FA224606460F462B46204609
:105CB000294617F065FC02460B463046394617F078
:105CC000A9FA19F03DFA22462B4617F0A3FABDE8CF
:105CD000F843FFF759BA02460B4617F099FA024605
:105CE0000B4617F077FDBDE8F88300200021BDE8E2
:105CF000F88300F019FE18A3D3E9002317F08AFAFD
:105D0000F1E702460B4617F03BFC0022164B17F05A
:105D10007FFA19F015FA2A46804689462346284616
:105D2000214617F077FA2A4606460F462346404694
:105D3000494617F06FFA02460B4600200A4917F051
:105D400049FD0B4602463946304617F061FABDE878
:105D5000F84300F0E9BD00BFEF39FAFE422EE63FFE
:105D6000FFFFEF3FFFFFAF410000F03F00000000EA
:105D70002DE9F04FB24B21F000479F4287B00D460E
:105D8000044615DD07F1404707F5801703463B43FE
:105D900026D002460B4617F03BFA0B46024617F098
:105DA00019FD04460B462046194607B0BDE8F08FA2
:105DB000A44B9F420E462EDCB7F1795F80F24A81F8
:105DC00083A3D3E9002317F025FA00229E4B17F096
:105DD00067FE00B32B462046194607B0BDE8F08F9A
:105DE0007DA3D3E9002317F0CBFB7DA3D3E90023E8
:105DF00006460F462046294617F0C2FB02460B46D0
:105E00003046394617F006FA04460B462046194636
:105E100007B0BDE8F08F2046294618F071F9024618
:105E20000B460020884917F0F3F90022874B17F042
:105E3000A7FB6DA3D3E9002304460D4617F0A0FB92
:105E40006BA3D3E9002317F0E5F922462B4617F0A0
:105E500097FB69A3D3E9002317F0DAF922462B4612
:105E600017F08EFB66A3D3E9002317F0D3F922467F
:105E70002B4617F085FB64A3D3E9002317F0C8F97C
:105E800022462B4617F07CFB61A3D3E9002317F0D1
:105E9000C1F922462B4617F073FB5FA3D3E9002319
:105EA000CDE900012046294617F06AFB5CA3D3E93F
:105EB000002317F0ADF922462B4617F061FB5AA3D9
:105EC000D3E9002317F0A6F922462B4617F058FB1A
:105ED00057A3D3E9002317F09BF922462B4617F06E
:105EE0004FFB594B002217F095F982468B4620460E
:105EF0002946CDE902AB19F023F9554B9F42804664
:105F0000894600F31C8102460B4617F083F9DDE950
:105F10000223CDE90401DDE9000117F05BFC024634
:105F20000B46DDE9040117F02BFB4FF0000ACDE929
:105F3000000152464B465046494617F021FB0246A7
:105F40000B462046294617F063F9524604460D4693
:105F50004B464046494617F05DF902460B4620463F
:105F6000294617F037FC02460B4617F053F9024654
:105F70000B461BA1D1E9000117F04AF902460B4676
:105F8000DDE9000117F044F9524604460D464B4640
:105F90005046494617F03EF902460B4626A1D1E984
:105FA000000117F035F902460B462046294617F046
:105FB0002FF90B46024620A1D1E9000117F028F97C
:105FC00004460B46002E3FF7EEAE03F10043EAE62F
:105FD0009C7500883CE4377E182D4454FB21F93F22
:105FE000075C143326A6913C09F7FD0DE13D023F05
:105FF00088B20175E0EF493F3B8F68B52882A43F26
:106000005544880E55C1C93F7D6FEB0312D6D43F6E
:10601000555555555555C53F82922EB1C5B8B33F1C
:1060200059018D1B6C06E63FC88A599CE52A004041
:106030004B2D8A1C273A0340182D4454FB21E93F7D
:10604000FFFFEF3FFFFFDF3F0000F03F0000E03FBA
:106050003233EF3F02460B4617F092FA48A3D3E9DA
:10606000002306460F4617F08BFA47A3D3E9002317
:1060700017F0D0F832463B4617F082FA44A3D3E932
:10608000002317F0C5F832463B4617F079FA42A3D1
:10609000D3E9002317F0BEF832463B4617F070FAFA
:1060A0003FA3D3E9002317F0B3F832463B4617F07D
:1060B00067FA3DA3D3E9002317F0ACF832463B461C
:1060C00017F05EFA3AA3D3E90023804689463046AA
:1060D000394617F055FA38A3D3E9002317F098F89A
:1060E00032463B4617F04CFA35A3D3E9002317F0AC
:1060F00091F832463B4617F043FA33A3D3E9002325
:1061000017F086F832463B4617F03AFA0022344B35
:1061100017F080F802460B464046494617F05AFBF6
:1061200022462B4617F02CFA22462B4617F072F81F
:1061300004460B462046194607B0BDE8F08F52468C
:106140005B46DDE9000117F045FB42464B4617F080
:1061500017FA42464B4617F05DF802460B4617F019
:1061600059F81BA3D3E9002317F052F80B46024657
:1061700019A1D1E9000117F04BF804460B4621E7BD
:1061800009F7FD0DE13D023F88B20175E0EF493F9F
:106190003B8F68B52882A43F5544880E55C1C93F3E
:1061A0007D6FEB0312D6D43F555555555555C53F18
:1061B00082922EB1C5B8B33F59018D1B6C06E63FE4
:1061C000C88A599CE52A00404B2D8A1C273A034077
:1061D000075C143326A6913C182D4454FB21F93F4B
:1061E0000000F03F000000002DE9F84F5442144336
:1061F00023F00048684E48EAD474B44284460F46FF
:106200001FD84442044321F0004A4AEAD474B442FD
:106210008B4616D803F1404404F5801414439E467F
:106220003DD09C1704F0020444EAD1745AEA0001FC
:106230000FD1022C50D0032C3CD145A1D1E9000153
:1062400005E01046194662463B4616F0E3FFBDE8FE
:10625000F88F58EA020126D0B0452DD0B24522D0A1
:10626000AAEB08084FEA2858B8F13C0F38DC002B9D
:106270003ADA18F13C0F37DA00200021012C49D01E
:10628000022C3AD0002CE2D033A3D3E9002316F03D
:10629000BFFF33A3D3E9002316F0BAFFD7E7BDE869
:1062A000F84FFEF7D5BCBBF1000F11DB2EA1D1E9F1
:1062B0000001CCE73946CAE7C2452FD0022C0BD0EB
:1062C000032CBAD0012C4FF0000031D00021BEE7E2
:1062D00027A1D1E90001BAE721A1D1E90001B6E780
:1062E00021A1D1E90001C9E76046394617F072FAE9
:1062F00017F006FFFEF7ACFCC0E717A3D3E90023B5
:1063000016F086FF02460B4615A1D1E9000116F0F2
:106310007FFF9CE701F10043194698E7022C12D059
:10632000032C0CD0012C06D013A1D1E900018EE77B
:106330004FF000418BE712A1D1E9000187E712A1DC
:10634000D1E9000183E712A1D1E900017FE700BF95
:10635000182D4454FB2109C0075C143326A6A13C28
:10636000182D4454FB210940182D4454FB21F93FBA
:10637000182D4454FB21F9BF182D4454FB21E93F4B
:10638000182D4454FB21E9BFD221337F7CD902C0B0
:10639000D221337F7CD902400000F07F0000000052
:1063A00043422DE9F047034321F00048404A48EAC0
:1063B000D37393420F462ED890454AD03D4B984513
:1063C0008A4636DD3C4B9845044645464CDD024640
:1063D0004346414616F01EFF224606460F464346F8
:1063E0000020334916F014FF02460B46304639466A
:1063F00017F0F0F9FEF7C8FE304B002217F0C0F896
:10640000BAF1000F04460B460FDA01F100432046B3
:106410001946BDE8F08702460B4616F0F9FE0B461A
:10642000024617F0D7F904460B4620461946BDE848
:10643000F0871DA3D3E90023044616F0EBFE0022EB
:10644000002317F02DFB70B13B4620461946BDE8EE
:10645000F0870022002317F0BDF904460B462046C2
:106460001946BDE8F087454622462B462046294678
:1064700016F0D0FE22462B4606460F4617F080F84F
:106480002246804689462B460020094916F0C0FE68
:1064900002460B464046494617F09CF932463B46B9
:1064A00016F0B8FEA6E700BF9C7500883CE4377E76
:1064B0000000F03FFFFF2F3EFFFFDF3F0000E03F07
:1064C0004D4A2DE9F84321F0004494420B4606461C
:1064D0001BDC4A4A944224DD494A944256DD494A2B
:1064E000944248DD484A944271DD013294426BD0B7
:1064F0003FA3D3E900231046194617F041F806469A
:106500000F4630463946BDE8F88304460D4622461C
:106510002B4617F035F806460F4630463946BDE89B
:10652000F88317F0EDFD02F06FFC0022374B804638
:10653000894616F06FFEB4F1725F06460F46ECDB3B
:1065400042464B464046494617F01AF832463B460B
:1065500004460D463046394616F05CFE02460B46B0
:106560002046294617F036F90022284B16F052FE35
:1065700006460F46D1E717F0C3FD00F04DF80022A4
:10658000234B16F0FDFF06460F46C6E717F0B8FD91
:1065900000F042F800221E4B06460F4616F0F0FFB0
:1065A000324604460D463B460020194917F012F9C1
:1065B00002460B462046294616F02CFE06460F469C
:1065C00030463946BDE8F883124A904290D83046AA
:1065D000194617F095FD00220D4B16F0D1FF00F083
:1065E0001BF800220A4B04460D4616F0C9FF8EE741
:1065F0009C7500883CE4377EFFFFEF7F422ED63F3C
:10660000FFFF3540412E8640CD3386400000F03FED
:106610000000E03F7DF8B98F2DE9F047B84F21F039
:106620000042BA4284B00C464FEAD176054612D9F0
:10663000B44FBA4240F28E80C1F3130303430246C3
:1066400040F0F780002E00F0818000252946284682
:1066500004B0BDE8F087AC4B9A4200F2B880AB4B77
:106660009A4240F2D3804FF0000A2A462346284639
:10667000214616F085FF8CA3D3E9002306460F467A
:1066800016F07EFF8AA3D3E9002316F0C1FD32463F
:106690003B4616F075FF88A3D3E9002316F0BAFD38
:1066A00032463B4616F06CFF85A3D3E9002316F073
:1066B000AFFD32463B4616F063FF83A3D3E90023C8
:1066C00016F0A8FD32463B4616F05AFF02460B462E
:1066D0002846214616F09CFD02460B4606460F460C
:1066E0002846214616F04CFF80468946BAF1000F35
:1066F00000F0B38032463B4600204FF0804116F058
:1067000087FD02460B464046494617F063F80246AD
:106710000B46DDE9020116F07BFDDDE9002316F0F2
:1067200077FD0B4602467A49002016F071FD6FF4A2
:106730007F739A4580F2AD800AF57A7A01EB0A51AF
:1067400000224FF0B87316F01BFF0546284604B030
:10675000BDE8F0875EA3D3E9002317F0A1F9002874
:106760006FD1284621465CA3D3E9002317F07AF9BC
:1067700000287FF46AAF674B284603EBC606214624
:1067800057A3D3E9002316F0FBFED6E9002316F049
:1067900041FD17F0A5F9824616F088FE52A3D3E911
:1067A000002306460F4616F0EBFE02460B4628462F
:1067B000214616F02DFD4EA3D3E90023CDE90001BB
:1067C0003046394616F0DCFECDE9020115E0524BA9
:1067D0009A42D0D8514BF4002344D3E9002316F059
:1067E00017FD4F4B2344D3E90034CDE90001CDE937
:1067F0000234C6F1010AAAEB060ADDE90223DDE94B
:10680000000116F005FD05460C462EE73AA3D3E934
:10681000002316F0FFFC00223D4B17F041F9002841
:106820003ED0284621460022394B16F0F3FC05469F
:106830008CE70B4616F0EEFC0546284604B0BDE892
:10684000F0872DA3D3E900231046194616F098FED1
:106850000546284604B0BDE8F08730463946002298
:106860004FF0804316F0D4FC02460B4640464946A2
:1068700016F0B0FF2A46234616F0CAFC02460B4625
:106880000020234916F0C4FC0546284604B0BDE8A4
:10689000F087054601EB0A51284604B0BDE8F087B1
:1068A0008246E2E6AFF30080D0A4BE726937663E4E
:1068B000F16BD2C541BDBB3E2CDE25AF6A56113F00
:1068C00093BDBE166CC1663F3E5555555555C53FE7
:1068D000EF39FAFE422E864051302DD5104987C03F
:1068E000FE822B654715F73F0000E0FE422EE63F93
:1068F000763C7935EF39EA3D9C7500883CE4377E7B
:10690000412E8640FFFFEF7F422ED63FFFFF2F3EF6
:106910000000F03F90130200B1A2F03FA01302006C
:10692000B0130200000000002DE9F04FB1F5801F08
:1069300085B006460F460B4680F2D08021F000421B
:10694000024300F0DA800029C0F2E9800022D64B31
:1069500016F016FED54A0B46934206460F466FF0D8
:10696000350E00F3C180C3F3130505F5152C0CF6A5
:10697000647C0CF4801C8CF07F5282F440121C1555
:1069800042EA0507A4F2FF3474440022C84B3046A3
:10699000394604EB1C5416F03BFCAB1CC3F3130349
:1069A000022B82468B464FF0000240F3AF804FF03F
:1069B000804316F02FFC02460B465046594616F00F
:1069C00009FF064620460F4616F070FD3246CDE917
:1069D00002013B4630463946CDE9006716F0D0FD4E
:1069E00002460B468046894616F0CAFD9AA3D3E9B3
:1069F000002306460F4616F0C3FD99A3D3E90023F2
:106A000016F008FC32463B4616F0BAFD96A3D3E9D1
:106A1000002316F0FFFB32463B4616F0B1FD94A36F
:106A2000D3E9002316F0F6FB42464B4616F0A8FDCC
:106A300091A3D3E90023804689463046394616F0B3
:106A40009FFD8FA3D3E9002316F0E4FB32463B46BB
:106A500016F096FD8CA3D3E9002316F0DBFB32463B
:106A60003B4616F08DFD0B4602464946404616F061
:106A7000D1FBA5F5C223C5F5D725A3F27A4351353D
:106A80001D43002D06460F4640F387800022894BA8
:106A90005046594616F074FD52465B4616F070FD9E
:106AA00002460B46804689463046394616F0B2FB10
:106AB000DDE9002316F064FD06460F46002C40F089
:106AC000818002460B464046494616F0A1FB02462D
:106AD0000B465046594616F09BFB0BE0734A934217
:106AE0004FF0000E7FF73FAF32463B463046394607
:106AF00016F090FB05B0BDE8F08F002200230020C7
:106B00006D4916F067FE05B0BDE8F08F002316F062
:106B10009FFF60B1002C7CD100200021EAE70246F3
:106B200016F076FB0022002316F054FEE2E758A38D
:106B3000D3E900235046594616F022FD02460B4683
:106B400000205C4916F064FB524606460F465B4641
:106B50005046594616F014FD02460B46304639465B
:106B600016F00EFD06460F462CB3204616F09EFC8E
:106B700049A3D3E900238046894616F001FD48A3C6
:106B8000D3E9002304460D464046494616F0F8FC7A
:106B900002460B46304639462CE002460B4650462C
:106BA000594616F035FBDDE9002316F0E9FC0646F0
:106BB0000F46002C47D132463B465046594616F008
:106BC00027FB97E734A3D3E90023DDE9020116F0A0
:106BD000D7FC33A3D3E9002304460D46DDE90201C7
:106BE00016F0CEFC32463B4616F014FB02460B462E
:106BF0004046494616F00CFB52465B4616F008FB31
:106C000002460B462046294616F002FB05B0BDE8B9
:106C1000F08F204616F04AFC1FA3D3E90023064656
:106C20000F4616F0ADFC1EA3D3E9002304460D4623
:106C30003046394616F0A4FC02460B46204629464B
:106C400016F0E8FA56E7DDE9028913A3D3E9002339
:106C50004046494691E700BF44523EDF12F1C23F31
:106C6000DE03CB966446C73F599322942449D23F12
:106C7000935555555555E53F9FC678D0099AC33F62
:106C8000AF788E1DC571CC3F04FA97999999D93F79
:106C9000555555555555D53F0000E0FE422EE63F6F
:106CA000763C7935EF39EA3D00005043FFFFEF7F36
:106CB0000000F03F0000E03F000050C30000000073
:106CC000B1F5801F2DE9F84304460D460B4619DA4D
:106CD00021F00042024359D000295FDB00223A4BE9
:106CE00016F04EFC394A0B4693420D4604466FF0AF
:106CF00035010CDD22462B462046294616F08AFA3D
:106D0000BDE8F883314A93424FF00001F2DC1815D8
:106D1000A0F2FF3008444FEAD0794844C3F3130887
:106D200016F0C4FBC9F57F73033348EA03550646E2
:106D30000F4620462946FFF7F7FD1DA3D3E90023A0
:106D4000804689463046394616F01AFC1AA3D3E924
:106D5000002304460D464046494616F011FC024603
:106D60000B462046294616F055FA15A3D3E9002311
:106D700004460D463046394616F002FC02460B46E4
:106D80002046294616F046FABDE8F8830022002383
:106D900000200F4916F01EFDBDE8F883024616F0EC
:106DA00037FA0022002316F015FDA9E7AFF30080A3
:106DB000362BF111F3FE593D0EE526157BCBDB3F5B
:106DC00000609F501344D33F00005043FFFFEF7F0C
:106DD000000050C3000000002DE9F04F23F00045F3
:106DE00055EA020493B00DD0794E21F00044B4422C
:106DF0000F4682460FDD04F1404404F5801454EA46
:106E00000A035BD1734C0023CDE90034DDE90001B6
:106E100013B0BDE8F08F984694464ED0B542EADCF8
:106E20006B4EB54266D0002F8B468146CDE90223DA
:106E300064DB0026BCF1000F0ED1654B9D4246D0AD
:106E4000644B9D4200F09780B8F1804F00F0B28013
:106E5000614B984500F0CC834846594617F050F9ED
:106E6000CDE90001BAF1000F06D1002C60D0594BDA
:106E700027F040429A425BD0FF0F013F56EA0703DA
:106E800000F08280554B9D4240F3B08003F10473C3
:106E90009D4240F34184524B9C4240F38280B8F1C2
:106EA000000F40F3828048A3D3E90023104619461F
:106EB00016F066FBCDE90001A8E728B1494813B0F8
:106EC000BDE8F04F19F068B8A542F7DCA8E704F177
:106ED000404303F5801353EA0A0393D0404B9C428E
:106EE00040F39083B8F1000F5FDBDDE90234CDE9B8
:106EF00000348BE7BCF1000F95D07CE73A4B9D4204
:106F000037DCA3F154739D4293DD2B15A3F2FF33BD
:106F1000142B40F3E983C3F134032CFA03F202FA91
:106F200003F3634585D102F00102C2F1020681E755
:106F3000B8F1000F07DADDE900230020254916F03B
:106F400049FCCDE90001002FBFF660AF04F14044D9
:106F500004F5801454EA060300F03C84012E7FF40B
:106F600055AFDDE90045224605F10043CDE9002398
:106F70004CE702265EE7B8F1000FC0F24F834846A7
:106F80005946CDE9000141E74A4648465B46594625
:106F900016F03EF902460B4616F01CFCCDE9000146
:106FA00034E7B8F1000FFFF67EAF00230024CDE9EF
:106FB00000342BE74A4648465B46594616F0E0FA4D
:106FC000CDE9000122E700BF9C7500883CE4377ED4
:106FD0000000F07F0000F03F0000E03F0000E041D3
:106FE000FFFFEF3F9C1C0200FFFF3F43B4F5801FF3
:106FF00080F28F83DDE900010022CF4B16F0C0FA4A
:10700000CDE900010C466FF0340C2315CB4DC4F3D1
:107010001302A3F2FF3342F07F5403EB0C01AA42A8
:107020000B9144F4401440F36F83C54B9A4240F3F4
:10703000F38300220023CDE9082301310B91A4F54D
:107040008014CDE91023BF4B0022CDE90623002593
:10705000DDE90001DDE906232146824616F0D8F875
:10706000A346DDE906238046894650462146CDE900
:107070000CAB16F0CFF802460B460020B14916F0D3
:10708000A9FB0A460146CDE90E12134649460246BF
:10709000404616F075FA631043F0005382468B4663
:1070A00003F500238C46CDE904AB5919D3460023E0
:1070B000CDE900BC0093DDE900AB002004460D469D
:1070C00002460B465046594616F05AFA02460B46FF
:1070D0004046494616F09CF8DDE90623804689467D
:1070E0002046294616F094F802460B46DDE90C01CD
:1070F00016F08EF852465B4616F042FA02460B46F0
:107100004046494616F084F8DDE90E2316F038FAB9
:10711000DDE90445CDE9060122462B4620462946F5
:1071200016F02EFA72A3D3E9002304460D4616F09A
:1071300027FA71A3D3E9002316F06CF822462B46F8
:1071400016F01EFA6EA3D3E9002316F063F8224668
:107150002B4616F015FA6CA3D3E9002316F05AF863
:1071600022462B4616F00CFA69A3D3E9002316F049
:1071700051F822462B4616F003FA67A3D3E9002301
:1071800016F048F82246804689462B462046294676
:1071900016F0F6F902460B464046494616F0F0F95D
:1071A000524604460D465B46DDE9040116F032F80E
:1071B000DDE9062316F0E4F922462B4616F02AF8FC
:1071C0005246804689465B465046594616F0D8F9E5
:1071D00000225D4BCDE90C0116F01CF842464B46EF
:1071E00016F018F800980D46044622462B465046E5
:1071F000594616F0C5F9002282468B46524B20466E
:10720000294616F005F8DDE90C2316F001F80246D0
:107210000B464046494615F0FBFFDDE9042316F016
:10722000AFF92246804689462B46DDE9060116F075
:10723000A7F902460B464046494615F0EBFF80464B
:10724000894602460B465046594615F0E3FF009822
:1072500033A3D3E9002304460D4616F091F95246B4
:10726000CDE904015B462046294615F0D1FF0246D0
:107270000B464046494615F0CBFF2BA3D3E900232C
:1072800016F07EF92AA3D3E90023804689462046DA
:10729000294616F075F902460B464046494615F058
:1072A000B9FFDDE9102315F0B5FF80460B9889463C
:1072B00016F0FCF8424682468B464B46DDE9040157
:1072C00015F0A8FFDDE9082315F0A4FF52465B4640
:1072D00015F0A0FF009852465B4604460D4615F097
:1072E00097FFDDE9082315F093FFDDE904232DE086
:1072F000EF4E454A287ECA3F65DBC9934A86CD3F9B
:1073000001411DA96074D13F4D268F515555D53F80
:10731000FFAB6FDBB66DDB3F033333333333E33F18
:10732000000000E009C7EE3FFD033ADC09C7EE3F6D
:10733000F5015B14E02F3EBE000040438E98030031
:1073400079B60B000000F03F0000084015F060FF28
:107350000B4602464946404615F05AFF013E56EAA2
:10736000070382468B46DDE9020114BFD84BD94B97
:107370000022CDE9042302460B46CDE90023002379
:107380000093DDE9006732463B4615F041FF224697
:107390002B4616F0F5F8DDE9022380468946504673
:1073A000594616F0EDF802460B464046494615F0A0
:1073B00031FF3246804689463B4620462946CDE984
:1073C000028916F0DDF80B46024606460F46404697
:1073D000494615F01FFFC04B994204460D468A46A8
:1073E00040F3268101F13F4303F5E003034340F0FE
:1073F000F781A3A3D3E90023DDE9020115F00AFF19
:107400003246804689463B462046294615F000FF15
:1074100002460B464046494616F042FB002840F023
:10742000DF81A8464FEA2853A3F2FE324FF48013BF
:1074300013415344C3F30A52A84DA2F2FF3215413F
:10744000C3F3130423EA05010020C2F1140B44F432
:107450008014BAF1000F02460B4644FA0BFB30468B
:107460003946B8BFCBF1000B15F0D2FE02460B46F1
:1074700006460F46DDE9020115F0CCFE4FEA0B5A35
:107480000D46002480A3D3E900232046294616F0A8
:1074900077F83246804689463B462046294615F015
:1074A000B7FE02460B46DDE9020115F0B1FE78A3F6
:1074B000D3E9002316F064F877A3D3E90023064646
:1074C0000F462046294616F05BF802460B4630462A
:1074D000394615F09FFE06460F4602460B464046CB
:1074E000494615F097FE42464B4604460D4615F0B8
:1074F0008FFE02460B463046394615F089FE22467D
:10750000804689462B462046294616F039F864A362
:10751000D3E9002306460F4616F032F862A3D3E9FA
:10752000002315F075FE32463B4616F029F860A39D
:10753000D3E9002315F06EFE32463B4616F020F8E4
:107540005DA3D3E9002315F063FE32463B4616F0F7
:1075500017F85BA3D3E9002315F05CFE32463B46E7
:1075600016F00EF802460B462046294615F050FE4E
:1075700006460F4602460B462046294616F000F8FE
:107580000022CDE900014FF080433046394615F026
:107590003FFE02460B46DDE9000116F01BF94246AC
:1075A00006460F464B462046294615F0E9FF42465F
:1075B0004B4615F02FFE02460B463046394615F075
:1075C00027FE22462B4615F023FE02460B460020DE
:1075D0003F4915F01DFE8A44BAF5801FC0F22D8187
:1075E0005146DDE9042315F0CBFFCDE900010DE4A0
:1075F000002FFFF631AC4846594613B0BDE8F04FB6
:1076000017F09EBDB8F1000FBFF6CFACDDE9023434
:10761000009304F100430193FFF7F8BB4A465B4631
:1076200000202B4916F0D6F8CDE90001FFF7EEBB9C
:107630002B4B21F00048984540F3E280294B0B4446
:1076400003430AD132463B4615F0E2FDDDE9022351
:1076500016F01CFA00283FF4E5AE1BA3D3E9002383
:10766000DDE9040115F08CFF17A3D3E9002315F021
:1076700087FFCDE90001FFF7C9BB00BFAFF3008072
:10768000FE822B654715973C00000000432EE63F25
:10769000EF39FAFE422EE63F396CA80C615C20BE41
:1076A000D0A4BE726937663EF16BD2C541BDBB3E08
:1076B0002CDE25AF6A56113F93BDBE166CC1663FE6
:1076C0003E5555555555C53F59F3F8C21F6EA50196
:1076D0000000F03F0000F0BFFFFF8F40FFFF0F00F2
:1076E000FFCB904000346F3FBCF1000F40F0918021
:1076F000C3F1140345FA03F202FA03F3AB4200F0BC
:10770000A0806646FFF79CBB00220023CDE908233A
:1077100097E44FF0000C78E45B4B9C427FF741AC60
:107720005A4B9C423FF7BBABDDE900010022574BAF
:1077300015F06EFD46A3D3E9002304460D4615F06F
:107740001FFF45A3D3E9002382468B4620462946E6
:1077500015F016FF0022CDE900014D4B20462946C9
:1077600015F00EFF02460B463DA1D1E9000115F0D0
:107770004FFD22462B4615F003FF02460B46002024
:10778000444915F045FD2246804689462B46204651
:10779000294615F0F5FE02460B464046494615F0CF
:1077A000EFFE31A3D3E9002315F0EAFE02460B46B3
:1077B000DDE9000115F02CFD02460B4680468946A6
:1077C0005046594615F026FD002004460D46524607
:1077D0005B46BBE5DDE9002310461946FFF7D8BB41
:1077E00023A3D3E90023DDE9040115F0C9FE20A39A
:1077F000D3E9002315F0C4FECDE90001FFF706BB75
:10780000244B98453FF70EAEDDE9002392469346A0
:1078100037E60026FFF720BB17A3D3E90023CDE905
:10782000082317A3D3E90023CDE910231A4B002224
:107830004FF48025CDE906230AE45A4601F02CFDD9
:10784000CFE602F00102C2F10206FFF7F9BA00BF6B
:10785000000000604715F73F44DF5DF80BAE543E73
:10786000555555555555D53FFE822B654715F73F64
:107870009C7500883CE4377E0000004003B8E23F7E
:1078800006D0CF43EBFD4C3EFEFFEF3F0000F03F44
:107890000000D03F0000E03F0000F83F0000000083
:1078A0002DE9F04FC84E21F00047B7428FB00B468C
:1078B00040F38F809246C54A97420C4626DC002949
:1078C000B7A3D3E9002340F38F8015F0A1FCC04B90
:1078D0009F4204460D4600F04681B3A3D3E900233E
:1078E00015F096FC02460B46CAE9002320462946BD
:1078F00015F08EFCACA3D3E9002315F089FC01251B
:10790000CAE9020128460FB0BDE8F08FB14A97429C
:1079100040F38980B04A974200F31C813D15A5F2DF
:107920001645A7EB055319461F46064616F0D8F82C
:1079300015F0BCFD8046894602460B463046394666
:10794000CDE9088915F064FC0022A44B15F018FE5F
:107950008946804616F0C4F815F0A8FD02460B468D
:1079600006460F4640464946CDE90A6715F050FCE9
:1079700000229A4B15F004FE00220023CDE90C01F1
:1079800016F066F8002800F05D8100233046394685
:10799000002216F05DF8002814BF01230223904A4C
:1079A000019202212A46009108A8514600F080FB6E
:1079B000002C054614DADAF80420DAF80C3002F16B
:1079C000004203F100434542CAF80420CAF80C30D3
:1079D00006E0C2E9000100250024C2E902450025B5
:1079E00028460FB0BDE8F08F15F014FC784B9F428D
:1079F00004460D4600F008816BA3D3E9002315F07F
:107A000009FC02460B46CAE900232946204615F028
:107A1000FFFB65A3D3E9002315F0FCFB4FF0FF3516
:107A2000CAE90201DCE716F06BFB61A3D3E900238E
:107A30008046894615F0A4FD00226A4B15F0EAFB4A
:107A400016F04EF8054615F031FD55A3D3E9002395
:107A5000CDE9040115F094FD02460B464046494627
:107A600015F0D6FB50A3D3E90023CDE90201DDE9EF
:107A7000040115F085FD1F2D8046894602460B4600
:107A8000DDE9020140F3B08015F0C2FB83460E46EB
:107A90003F15C6F30A53FB1A102B40F3B08046A3E0
:107AA000D3E90023DDE9040115F06AFD804689462B
:107AB00002460B46DDE9020115F0AAFB02460B4621
:107AC000DDE90201CDE9062315F0A2FB42464B4653
:107AD00015F09EFB3AA3D3E9002380468946DDE9F1
:107AE000040115F04DFD42464B4615F091FB0B4647
:107AF000024680468946DDE9060115F089FBC1F39F
:107B00000A53FF1A312F83460E4600F39D8002462A
:107B10000B46CAE90023DDE90623CDE902235A46D4
:107B20003346DDE9020115F073FB42464B4615F082
:107B30006FFB002C02460B46CAE90223BFF650AF8A
:107B400006F1004601F10041CAE900B6CAE90201A6
:107B50006D4245E7024615F05BFB0025CAE90201CC
:107B6000CAE900013CE714A3D3E9002315F050FB58
:107B700013A3D3E900230D46044615F049FB024642
:107B80000B46CAE900232946204615F041FB0CA309
:107B9000D3E9002315F03CFB0125CAE902011FE7E8
:107BA00000004054FB21F93F3163621A61B4D03DBB
:107BB00083C8C96D305FE43F0000601A61B4D03DF6
:107BC0007370032E8A19A33BFB21E93F7BD9024046
:107BD000FB21F93FFB213941FFFFEF7F000070419E
:107BE000C42A02000000E03F15F012FB3A4B6A1E67
:107BF000834653F82230BB420E463FF449AF5A4603
:107C00003346CAE900238AE72BA3D3E9002315F002
:107C100001FB2BA3D3E900230D46044615F0FAFA25
:107C200002460B46CAE900232946204615F0F0FA21
:107C300023A3D3E9002315F0EDFA4FF0FF35CAE98D
:107C40000201CDE60323AAE61FA3D3E90023DDE961
:107C5000040115F095FCDDE9068906460F4602464B
:107C60000B464046494615F0D3FA02460B464046BD
:107C70004946CDE9022315F0CBFA32463B4615F0D2
:107C8000C7FA13A3D3E9002306460F46DDE9040132
:107C900015F076FC32463B4615F0BAFA02460B4622
:107CA00080468946DDE9020115F0B2FA83460E46A8
:107CB000A5E700BFAFF300800000601A61B4D03DBB
:107CC0007370032E8A19A33B0000002E8A19A33B70
:107CD000C14920259A837B39442A02000000000014
:107CE000574A2DE9F84F21F0004890450E460746C7
:107CF0002CDC544B0029B4BF534D544D98454FF0E4
:107D0000000411DC524B984526DC4BA3D3E9002339
:107D100015F080FA00224F4B15F0C2FE002840D02B
:107D200038463146BDE8F88F4B4B984530DD4B4B1C
:107D3000984568DD0133984562D0384631463EA308
:107D4000D3E9002315F01CFCBDE8F88F02460B4672
:107D500015F060FABDE8F88F16F0D2F901F054F88A
:107D60003F4B984506460F4623DD0022394B15F060
:107D700051FA02460B463046394615F02BFD324685
:107D80003B4615F047FA22462B4615F0F9FBE1E792
:107D900016F0B6F9FEF740FC22462B4615F0F0FB34
:107DA000D8E73846314616F0ABF901F02DF8064613
:107DB0000F4632463B463046394615F02BFA3246DE
:107DC00082468B463B463046394615F0D9FB0022A9
:107DD000804689461F4B3046394615F01BFA02464D
:107DE0000B464046494615F0F5FC02460B46504608
:107DF000594615F00DFA22462B4615F0C1FBA9E7AE
:107E0000184B984299D83846314616F079F9002235
:107E10000E4B15F0B5FBFEF7FFFB06460F4602467C
:107E20000B462046294615F0ABFB32463B4615F083
:107E3000A7FB8FE7AFF300803374AC3C1F7BAC7FB4
:107E4000FFFFEF7FFFFF35400000E0BF0000E03F95
:107E5000FFFF2F3E0000F03F412E8640CD3386408D
:107E6000FFFFEF3F7DF8B98F2DE9F04F21F000467D
:107E7000B6F1795F85B00C4692469B4605466BDAB3
:107E800015F02EFE002800F0E2802A462346284600
:107E9000214615F075FB74A3D3E90023804689467B
:107EA00015F06EFB72A3D3E9002315F0B3F9424637
:107EB0004B4615F065FB70A3D3E9002315F0A8F934
:107EC00042464B4615F05CFB6DA3D3E9002315F049
:107ED000A1F942464B4615F053FB6BA3D3E90023AF
:107EE00015F096F942464B4615F04AFB68A3D3E9D4
:107EF000002315F08FF942464B4615F041FBCDE9C2
:107F000000010022644B4046494615F039FBDDE98B
:107F1000002306460F464046494615F031FB5246BF
:107F2000804689465B462846214615F029FB0246D5
:107F30000B464046494615F06BF902460B46304663
:107F4000394615F065F902460B460020534915F0F5
:107F50005FF905B0BDE8F08F02460B4615F010FB47
:107F600041A3D3E900238046894615F009FB40A3CD
:107F7000D3E9002315F04EF942464B4615F000FBBD
:107F80003DA3D3E9002315F043F942464B4615F0D3
:107F9000F7FA3BA3D3E9002315F03CF942464B46E0
:107FA00015F0EEFA38A3D3E9002315F031F9424673
:107FB0004B4615F0E5FA36A3D3E9002315F02AF96C
:107FC0004B46424615F0DCFA354B9E42CDE90001A6
:107FD00097DD344B9E424FF000023DDCA6F50013C6
:107FE00000202E4916461F4615F012F9CDE9020170
:107FF0000022294B4046494615F0C2FA32463B461C
:1080000015F006F9DDE9002306460F4640464946CD
:1080100015F0B6FA5246804689465B462846214608
:1080200015F0AEFA02460B464046494615F0F0F808
:1080300002460B463046394615F0EAF802460B4632
:10804000DDE9020115F0E4F805B0BDE8F08F134951
:10805000002005B0BDE8F08F134B144FCDE902238B
:108060000026C5E7AFF30080D43888BEE9FAA8BD82
:10807000C4B1B4BD9EEE213EAD529C804F7E923E77
:108080009015CB19A001FA3E7751C1166CC1563F2D
:108090004C5555555555A53F0000E03F0000F03FB9
:1080A0003233D33F0000E93F0000E73F0000D23FFA
:1080B0002DE9F04FADF5197DBE4CA29EBE4D54F892
:1080C00026700793D41E85FB0465E417C4EBA50452
:1080D00024EAE4741D46631CA3EB8303013D02EB19
:1080E000C30305937B1909940497019506460B91E8
:1080F000A4EB05041BD423445D1C20AF4FF0000803
:108100004FF00009DDF88CA208E05AF8240015F0C1
:10811000CDF90134AC42E7E8020108D0002CF4DAD2
:10812000013440464946AC42E7E80201F6D1049BDF
:10813000002BC0F2B083079BA6F10802DB001146BA
:10814000039220AA02EB0309029301EB0308049BAC
:1081500072AA02EBC30B0DF5E07A019B002BC0F273
:108160009581039C4D460026002775E90223F4E91A
:10817000020115F005FA02460B463046394615F065
:1081800049F8444506460F46EFD1EAE80267DA456A
:1081900009F10809E1D1DDE90204049920448B00CA
:1081A00082460BA8A3F10802C31808930CAB134432
:1081B0000A938B4698AB03EBCB03BBF1000F53E95B
:1081C000284529DD70AB03EBCB080DF13009002207
:1081D0007A4B2046294615F0D3F915F081FC15F0AD
:1081E00065F90022764B06460F4615F0C9F902469E
:1081F0000B462046294615F00BF815F071FC78E97E
:10820000022349F8040B3946304615F003F870ABE9
:10821000984504460D46DAD1DDF8149020462946EB
:108220004A4601F039F800224FF07F5304460D46CC
:1082300015F0A6F9FCF724FF0022624B15F0A0F917
:1082400002460B462046294614F0E2FF0D4604463E
:1082500015F046FC804615F029F90B4602462946E2
:10826000204614F0D5FF4B46002B06460F4640F340
:10827000E1800BF1FF320CA9C9F1180351F822502B
:1082800045FA03F101FA03F30CA8EB1A40F8223087
:10829000C9F11705884443FA05F5002D2CDDBBF123
:1082A000000F08F1010840F394820C9C002C40F070
:1082B000A780BBF1010F0AD00CA9012251F8044F8D
:1082C000531C002C40F09E809B451A46F6D1059B1E
:1082D000002B0EDD012B00F09C81022B09D10BF14C
:1082E000FF320CAB0CA953F82230C3F3150341F84D
:1082F0002230022D00F0AF800022002330463946A4
:1083000015F0A6FB002800F06682049B0BF1FF39F4
:108310004B4510DC0BF180430CAA013B089802EBA3
:108320008303002253F80419834242EA0102F9D17F
:10833000002A40F0B580049B0CAA013B52F8233080
:10834000002B40F0A1800A9A012352F8041901334E
:108350000029FAD05B440BF101099945069349DCE9
:10836000099A079909EB020801EB0B0508F180480F
:1083700002EB030BA39B08F1FF3803EB880870ABFB
:1083800003EBC909A39B20A903EB8B0301EBC505F4
:10839000029358F8040F15F089F8019B002BC5E9EA
:1083A000000105F1080B28DB083D039C002600278F
:1083B0000CE000BF642F0200ABAAAA2A0000703EA6
:1083C000000070410000204075E80201F4E902233A
:1083D00015F0D6F802460B463046394614F01AFF1F
:1083E000544506460F46EFD1029B9845E9E80267DF
:1083F0005D46CED1DDF818B0DCE600260027F3E7B5
:10840000012300220CA9C4F180749B4541F822404D
:108410000EDD51F8232001EB8B0001EB83036FF09D
:108420007F4100E01A688A1A43F8042B8342F9D18D
:1084300001244CE706D10BF1FF330CAA52F823506C
:10844000ED152AE70022BE4B15F020FB002840F076
:10845000B981054650E732463B460020B94914F041
:10846000D7FE06460F46002C3FF446AF059AB549A5
:10847000002000F011FF02460B463046394614F04A
:10848000C7FE06460F4637E7012363E700260027AD
:10849000EAE80267DA4509F108097FF45EAE7AE698
:1084A0000CAB059A53F82930183ACDE906850592A8
:1084B0006BB909F18043013B0CA901EB830353F82D
:1084C000041909F1FF39183A0029F8D00592059AE4
:1084D0009C49002000F0E0FEB9F1000F04460D4673
:1084E000C0F2E0814FEAC90370AA02EB03080893C7
:1084F0000CAB03EB8906DFF850B208F1080704362D
:108500004FF0000A56F8040D14F0D0FF22462B4617
:1085100015F036F85B4667E90201524620462946C7
:1085200015F02EF80CAB9E4204460D46EAD148AB3E
:1085300003930193CDF8149009F10103DDF8109035
:108540000293C3464FF0000AB9F1000FC0F2378121
:10855000DFF8F8815D4678A3D3E9002300260027E1
:10856000002403E0544510DCF8E80223F5E802019A
:1085700015F006F802460B463046394614F04AFE1E
:108580000134A14506460F46ECDA019BE3E8026799
:108590000193029B0AF1010A9A45ABF1080BD3D172
:1085A000A29BDDF81490032B2CD8DFE813F0E80031
:1085B000D300D3003F00079B00200146002B40F072
:1085C00043810D460B460B990446C1E900450399CA
:1085D0000246D1E9000114F01BFEB9F1000F0CDDD9
:1085E000039D0124F5E90223013414F013FEA14593
:1085F000F8DA079B002B40F037810B460B990246B7
:10860000C1E90223069B03F007000DF5197DBDE8C3
:10861000F08F0BF1FF320CAB0CA953F82230C3F3EF
:10862000160341F8223064E648AB0393B9F1000F1A
:1086300040F35581039ACDF808904FEAC90302EB45
:108640000308D8E900AB0193914658E90267524606
:108650005B463046394614F0DDFD04460D460246C1
:108660000B463046394614F0D3FD52465B4614F0B3
:10867000D1FDC8E9000168E90245C145A246AB4603
:10868000E3D1DDF80890B9F1010F40F32881019B97
:10869000039A1344D3E9006701939A460DF5947B3E
:1086A0005AE9028932463B464046494614F0B2FD3B
:1086B00004460D4602460B464046494614F0A8FDC6
:1086C00032463B4614F0A6FDCAE900016AE90245BC
:1086D000D34526462F46E3D10399019C002301F19F
:1086E0001005083419461E46304674E9022314F07A
:1086F00091FDA5420346F6D10A460399D1E9008CC3
:10870000D1E902E90799002900F0B1800B9C2361AF
:10871000069BC4F800800CF1004009F1004102F111
:108720000042606003F00700E1606261C4F808E0A5
:108730000DF5197DBDE8F08F00000040FB21F93FE9
:108740000000E03F0000F03F0000703ED813020040
:1087500048AB0393B9F1000FFFF62DAF039F002044
:1087600007EBC9060836014676E9022314F052FDEC
:10877000B742F9D1079B002B3FF423AF64E0089C7C
:10878000039D083400222C4411461646304674E9F5
:10879000022314F03FFDA5420246F6D10B4607998D
:1087A00009B103F1004319460B9B1046C3E90001D0
:1087B000069B03F007000DF5197DBDE8F08F00263C
:1087C0000027E2E6BBF1000F08F101087DDD02257C
:1087D0006BE500247BE5CDE90685059D30463946ED
:1087E0006A4200F059FD00223E4B06460F4615F046
:1087F0004DF900B300223C4B3046394614F0C0FE20
:1088000015F06EF9044614F051FE0022354B14F0B9
:10881000B7FE0B4602463946304614F0F9FC15F017
:108820005FF90BF101090CAB183543F82B000595E6
:1088300043F829404BE63046394615F051F90CAB68
:10884000D94643F82B0042E60B9C0B4601F1004150
:10885000C4E9000103990246D1E9000114F0D8FCF3
:10886000B9F1000F3FF7BCAE01F10041C5E6184673
:108870000B9B4646744667464D461146C3E90401C4
:10888000C3E90067C3E90245069B03F007000DF545
:10889000197DBDE8F08FA6F108030393079BDB0069
:1088A000029378E4A29B032B3FF6ACAE01A252F8F0
:1088B00023F000BFC58800005187000051870000E9
:1088C000298600000022134669E732463B46002015
:1088D000064914F09DFC022506460F460CE50023D0
:1088E0001A460AE7000070410000703E0000F03FA9
:1088F0002DE9F04F21F00046B6F1795F85B00C46C6
:1089000090469946054604DA15F0EAF8002800F08A
:1089100085802A4623462846214614F031FE064625
:108920000F4602460B462846214614F029FE3EA378
:10893000D3E9002382468B463046394614F020FEA8
:108940003BA3D3E9002314F063FC32463B4614F00A
:1089500017FE39A3D3E9002314F05CFC32463B46F2
:1089600014F00EFE36A3D3E9002314F051FC324676
:108970003B4614F005FE34A3D3E9002314F04AFC6F
:108980000E9BCDE900019BB30022334B4046494684
:1089900014F0F6FDDDE90023CDE902015046594609
:1089A00014F0EEFD02460B46DDE9020114F030FC46
:1089B00032463B4614F0E4FD42464B4614F028FC98
:1089C00023A3D3E9002306460F465046594614F028
:1089D000D7FD02460B463046394614F01BFC0246D2
:1089E0000B462846214614F013FC05B0BDE8F08F75
:1089F00002460B463046394614F0C2FD14A3D3E9B3
:108A0000002314F005FC52465B4614F0B9FD2A46DB
:108A1000234614F0FFFB05B0BDE8F08F2846214641
:108A200005B0BDE8F08F00BF7CD5CF5A3AD9E53DFF
:108A3000EB9C2B8AE6E55A3E7DFEB157E31DC73E0F
:108A4000D561C119A0012A3FA6F810111111813F6B
:108A5000495555555555C53F0000E03F0000000001
:108A60002DE9F04FDA4C21F00046A64287B08A4645
:108A700089461746984683461BDC15F031F80028D6
:108A800039D1109B5A4601331343334300F0A88178
:108A9000109B012B00F0B1815A4653460020CD496E
:108AA00014F098FE04460D462046294607B0BDE85E
:108AB000F08FC94B9E421EDD002904DA01F100430C
:108AC00008F100489A465A465346A3A1D1E900014D
:108AD00014F09EFB3A46434604460D46A0A1D1E958
:108AE000000114F095FB22462B4614F093FB00275F
:108AF00083468A46B8465A4653465846514614F06D
:108B00003FFD03460C46CDE9003402460B4614F007
:108B100037FDDDE9002304460D465846514614F062
:108B20002FFD91A3D3E90023CDE902012046294678
:108B300014F026FD8EA3D3E9002314F06BFB22462C
:108B40002B4614F01DFD8CA3D3E9002314F062FB27
:108B500022462B4614F014FD89A3D3E9002314F018
:108B600059FB22462B4614F00BFD87A3D3E90023C3
:108B700014F050FB22462B4614F002FD84A3D3E9E7
:108B8000002314F047FBDDE9002314F0F9FC82A375
:108B9000D3E90023CDE904012046294614F0F0FC76
:108BA0007FA3D3E9002314F035FB22462B4614F0B3
:108BB000E7FC7DA3D3E9002314F02CFB22462B46CF
:108BC00014F0DEFC7AA3D3E9002314F023FB224641
:108BD0002B4614F0D5FC78A3D3E9002314F01AFB3C
:108BE00022462B4614F0CCFC75A3D3E9002314F0E5
:108BF00011FB02460B46DDE9040114F00BFBDDE935
:108C0000022314F0BDFC3A46434614F003FBDDE9B1
:108C1000002314F0B5FC3A46434614F0FBFA6AA36D
:108C2000D3E9002304460D46DDE9020114F0A8FC57
:108C300022462B4614F0EEFACDE900010B4602461F
:108C40005146584614F0E6FA634B9E4204460D46E0
:108C50003EDC109B012B36D002460B4600205D49BE
:108C600014F0B8FD00240F4606465A4653462046E7
:108C7000294614F0CDFAA04602460B46DDE9000174
:108C800014F0C6FA42463B4614F07AFCA946044664
:108C90000D4642463B464046494614F071FC0022D0
:108CA0004E4B14F0B7FA02460B462046294614F004
:108CB000B1FA32463B4614F063FC42463B4614F0A0
:108CC000A9FA04460D462046294607B0BDE8F08FB4
:108CD000109814F0EBFB224606460F462B46204622
:108CE000294614F04DFC3246CDE902013B462046B0
:108CF000294614F08FFA02460B46DDE9020114F012
:108D000069FDDDE9002314F083FA02460B4658465C
:108D1000514614F07DFA02460B4614F07BFA0246E7
:108D20000B463046394614F073FA04464FEAA970F0
:108D300000F00200C0F101000D4614F0B7FB02463E
:108D40000B462046294614F01BFC04460D462046DF
:108D5000294607B0BDE8F08F182D4454FB21E93FA8
:108D6000075C143326A6813CD47ABF74702AFB3E7C
:108D7000E9A7F0320FB8123F68108D1AF726303F7E
:108D80001583E0FEC8DB573F93846EE9E326823FFC
:108D9000FE41B31BBAA1AB3F735360DBCB75F3BE8F
:108DA000A69237A0887E143F0165F2F2D844433F73
:108DB000280356C9226D6D3F37D60684F464963F6A
:108DC0007AFE10111111C13F635555555555D53FC8
:108DD000FFFF2F3E0000F0BF2794E53F0000F03F6B
:108DE0005846514615F08CF902460B4600200449BE
:108DF00014F0F0FC04460D4665E75C46554662E714
:108E00000000F03F000000002DE9F04FCA4A21F0B9
:108E10000043934285B00C460E46054620D9C74A0A
:108E2000934200F2D480002E80F2A081AAA3D3E95D
:108E300000232846214614F0EDF90022002314F007
:108E400011FE002840F0CE80A5A3D3E900232846D8
:108E5000214614F095FB02460B460020B84990E1EC
:108E6000B84A934200F2E280B74A934240F22B8123
:108E7000002301930022B54B2846214614F080FBC5
:108E800006460F4602460B462846214614F078FB5C
:108E900095A3D3E9002382468B4614F071FB94A37B
:108EA000D3E9002314F0B6F952465B4614F068FB90
:108EB00091A3D3E9002314F0ABF952465B4614F0BA
:108EC0005FFB8FA3D3E9002314F0A4F952465B465D
:108ED00014F056FB8CA3D3E9002314F099F9524601
:108EE0005B4614F04DFB0022994B14F093F9804639
:108EF000894602460B463046394614F041FB02468D
:108F00000B460020934914F083F9064602460B46AF
:108F10000F464046494614F07BF932468046894662
:108F20003B462846214614F02BFB02460B46002008
:108F3000894914F06DF902460B464046494614F043
:108F400049FC52465B4614F01BFB019E02460B4651
:108F5000002E4AD0DDE9026732463B4614F058F94C
:108F60002A46234614F00CFB32463B4614F050F9D7
:108F70005B46524614F04CF9019B013306460F46FE
:108F800000F01F81019B012B78D0019A531C392BD3
:108F90004FEA025600F22481019F132F40F35181C2
:108FA000019BC3F57F7A0AF1030A00224FEA0A53B4
:108FB00014F030F902460B462846214614F028F9F1
:108FC0000022634B14F026F9731819461BE0634A1C
:108FD00093421BD9C1F313030343024640F01181AE
:108FE000002910DA00205E490DE02846214614F0E1
:108FF000C7FA52465B4614F00BF902460B46284668
:10900000214614F005F905B0BDE8F08F40A3D3E97F
:10901000002314F045FD00283FF405AF3EA3D3E93B
:1090200000231046194614F0ABFAECE74D4A934280
:1090300000F2EB8000293AA3D3E9002339DA14F0D7
:10904000E9F839A7D7E900674FF0FF338046894632
:10905000019332463B464046494614F0D9F8024651
:109060000B4605460C464046494614F0D1F83246B8
:109070003B4614F0CDF8CDE90201FBE62846214637
:109080000022394B14F0EEFC002800F0CB8028467B
:10909000214600222D4B14F0BDF802460B46304607
:1090A000394614F0B5F800224FF0404314F068FA46
:1090B000A9E714F0ADF801238046894601931CA767
:1090C000D7E90067C5E714A3D3E9002314F0A2F899
:1090D00002460B468FE700BF59F3F8C21F6EA50189
:1090E000FE822B654715F73F2DC3096EB7FD8ABE7B
:1090F0003952E686CACFD03EB7DBAA9E19CE143FBE
:109100008555FE19A0015A3FF41011111111A13F0C
:10911000EF39FAFE422E86409C7500883CE4377E8B
:109120000000E0FE422EE63F763C7935EF39EABD9D
:10913000763C7935EF39EA3D79684340412E8640E7
:109140000000E0BF422ED63FFFFF8F3C0000E03F13
:109150000000F03F0000084000001840FFFFEF7FD4
:109160000000F0BFB1A2F03F0000D0BF40A3D3E9A0
:1091700000232846214614F003FA02460B4600203D
:10918000414914F047F814F0ABFC019014F08EF94B
:1091900039A3D3E9002306460F4614F0F1F902463D
:1091A0000B462846214614F033F835A3D3E90023B3
:1091B000804689463046394614F0E2F906460F46A5
:1091C00047E732463B462846214614F021F8002264
:1091D0002D4B14F0D5F900222B4B14F019F812E79F
:1091E0002A46234614F014F802460B46002027496D
:1091F00014F00EF8731819460022244B14F008F8E6
:1092000001E70B4614F006F8FDE619A3D3E90023A5
:1092100014F0B6F9002C02460B464FF00000AFDA0E
:109220001B49AEE732463B462846214613F0F0FF85
:1092300002460B4613F0EEFF0022144B13F0EAFF38
:10924000E1E64FF4001C2A4623464CFA07FA13F0D5
:10925000DFFFCAF17F594FF0000809F540190246B7
:109260000B464046494613F0D3FFADE6AFF300800E
:10927000FE822B654715F73F0000E0FE422EE63FD9
:10928000763C7935EF39EA3D0000E03F0000F03FE1
:109290000000E0BF00000000F8B5C1F30A53044627
:1092A0000D460E4617460BBB21F0004603463343DE
:1092B0001BD0354B002214F063F9344B9F42044617
:1092C0000D4635DBC1F30A530E46363B3B4440F2B4
:1092D000FE72934232DC002B11DD26F0FF4626F4AD
:1092E000E00646EA035520462946F8BD40F2FF72E3
:1092F0009342EBD102460B4613F08CFFF8BD13F1FD
:10930000350F28DA4CF250339F4222462B460ADDB5
:1093100019A1D1E9000116F071FF17A3D3E90023C9
:1093200014F02EF9F8BD16A1D1E9000116F066FF80
:1093300013A3D3E9002314F023F9F8BD22462B46EA
:109340000DA1D1E9000116F059FF0BA3D3E90023C9
:1093500014F016F9F8BD26F0FF4626F4E006363381
:1093600046EA0355204629460022094B14F008F925
:10937000F8BD00BFAFF300809C7500883CE4377EE9
:1093800059F3F8C21F6EA50100005043B03CFFFF27
:109390000000903C10B5054C237833B9044B13B151
:1093A0000448AFF300800123237010BD3002002079
:1093B00000000000EC30020008B5034B1BB103496C
:1093C0000348AFF3008008BD000000003402002015
:1093D000EC30020070B504460E4600F03DFA88B14C
:1093E0000368DB6A05469847082C0CD0A4F10903F2
:1093F000012B14D93246214610230D20BDE87040C0
:1094000004F04EB870BD2B6828465B6A9847022866
:10941000F0DC2B6828461B6A04219847EAE72B6892
:1094200028465B6A98470528E4DC2B6828461B6AB7
:1094300008219847DEE700BF38B52DED028B0546C1
:1094400000F00AFA044640B10368DB6A9847032D2E
:1094500003D8DFE805F02F363D06BDEC028B002077
:1094600038BD20460CF0C2FC07EE900A2046F8EE0C
:10947000E78A0CF0CBFC07EE900A2046B8EEE78AAC
:109480000CF0D4FC68EE087A07EE100AE8EEA87A31
:10949000B8EEC77AE7EE077AF5EE407AF1EE10FA09
:1094A000B1EEE78A1BD4FDEEC87ABDEC028B17EE55
:1094B000900A38BDBDEC028B2046BDE838400CF068
:1094C00095BCBDEC028B2046BDE838400CF09EBC3C
:1094D000BDEC028B2046BDE838400CF0A7BC17EE6F
:1094E000900A15F0C5FCDEE738B5044600F0B4F983
:1094F00058B10368DB6A0546984744B1012C04D192
:109500002846BDE83840FBF70FBA002038BD284692
:10951000BDE83840FBF7E8B910B5044600F09CF907
:1095200028B1036821461B6ABDE81040184710BDEA
:109530000048704716FCFFFF704700BF10B5034B93
:10954000036004460CF02EFA204610BD842302006E
:1095500010B5054B036004460CF024FA204617F0C2
:10956000EAFA204610BD00BF842302002DE9F04135
:10957000032184B00546512001F0D0FCDFF8D4C2AD
:10958000A94B044604F00F06C4F3031714F48074C7
:1095900008BF6346A54831463A460BF0DBFB221C68
:1095A00018BF012231463B4628460FF0FFF8002342
:1095B000AB609F480BF0CEFB4FF0FF31032001F072
:1095C000ADFC04F00FFD4FF0FF310446022001F026
:1095D000A5FC04F007FD002C3AD0002838D0014645
:1095E000204604F059FB064600284AD04FF0FF31D0
:1095F000462001F093FC322804464BD048DD382841
:1096000000F0AC8068285BD14FF0FF31012001F001
:1096100085FC04F0E7FC80464C2017F095FA052302
:1096200001934246009431462B4607460EF0B4F8AB
:10963000AF603B6838469B6A9847A8680368DB6A56
:1096400098477C480BF086FB284604B0BDE8F081C3
:1096500079480BF07FFB4FF0FF31192001F05EFCE1
:1096600004F0C0FC4FF0FF310446182001F056FC16
:1096700004F0B8FC0146204604F00EFB0646002824
:10968000B4D16E480BF066FB284604B0BDE8F0810B
:10969000302815D14FF0FF31012001F03FFC04F0DC
:1096A000A1FC80464C2017F04FFAA4B207460523D0
:1096B00001934246009431462B460DF023FEB7E756
:1096C00001243268CDE900440023176AAB600F2201
:1096D0000DF10F0332213046B847002800F0818099
:1096E0003368CDE900440F221F6A30210DF10F03CA
:1096F0003046B847002848D03368CDE900440D22F1
:109700001F6A38210DF10F033046B84700286ED08C
:109710003268CDE900440DF10F03176A6821752204
:109720003046B847002842D1682145480BF012FB6B
:109730004FF0FF31204601F0F1FB04F053FC80466E
:109740004C2017F001FA05246823CDE90034424685
:1097500031462B4607460EF01FF869E74FF0FF3100
:10976000012001F0DBFB04F03DFC8046442017F0B3
:10977000EBF905230746019342462B4600943146F8
:109780000DF062FF2F4B3B6052E730212C480BF06D
:10979000E1FA30244FF0FF31012001F0BFFB04F06B
:1097A00021FC80464C2017F0CFF907467FE726487A
:1097B0000BF0D0FAAF68002F7FF43BAF4FF0FF31D2
:1097C000032001F0ABFB04F00DFC30B11F480BF09F
:1097D000C1FA284604B0BDE8F0811D480BF0BAFA82
:1097E00052E7322116480BF0B5FA3224D2E738217D
:1097F00013480BF0AFFA4FF0FF31204601F08EFB1B
:1098000004F0F0FB8046442017F09EF9052438232D
:109810000746CDE9003442462B4631460DF014FF91
:10982000084B3B6004E700BF5C1402006C140200AC
:109830008C1402004C1502009C140200B0140200AB
:10984000DC14020028140200C8140200F014020004
:109850002C1502006414020038B5104C23680BB1BB
:10986000986838BD4FF0FF31012001F057FB04F03C
:10987000B9FB40B10C2017F067F90546FFF776FEFB
:109880002560A86838BD4FF0FF31032001F046FB8A
:1098900004F0A8FB0028EDD138BD00BF4C02002029
:1098A00008B501F06DFCFBF79BFEBDE8084001F038
:1098B000C5B900BF08B501F063FCFBF701FFBDE8C7
:1098C000084001F0BBB900BF08B501F059FC14F025
:1098D0008DFCBDE8084001F0B1B900BF08B501F04A
:1098E0004FFC15F001FABDE8084001F0A7B900BF30
:1098F00008B501F045FCFBF783FEBDE8084001F028
:109900009DB900BF08B501F03BFC14F09DFEBDE819
:10991000084001F093B900BF08B501F031FCFBF736
:10992000EFF8BDE8084001F089B900BF08B501F0C3
:1099300027FC14F0DFFDBDE8084001F07FB900BF4F
:1099400070B5049E96420C4624DB15466BB9042A7A
:1099500019D0022A02D110F0010310D001462A4684
:10996000204608F05DF8002070BD10440D4410F84A
:10997000013D01F8013B8D42F9D1002070BD028804
:109980000A80184670BD10F00303E7D102680A6030
:10999000184670BD0846002109F0D4F94FF0FF3099
:1099A00070BD00BF0830704740B1002905DB436837
:1099B0008B4202DD0844007A70470020704700BFE8
:1099C00030B1002904DB43688B42C4BF40180272E7
:1099D000704700BF40B1002905DB4368994202DAB5
:1099E0000844007A70470020704700BF830704D105
:1099F000030F0CBF0120002070470120704700BFFB
:109A000030B1002904DB43689942BCBF40180272A0
:109A1000704700BFF8B5002B20DB00291EDB46682D
:109A20008E421BDB5468761AE51AB542A8BF35464C
:109A3000002D13DB824202F108070C4600F10806F4
:109A40002A4605D0F918301907F0EAFF0020F8BDC2
:109A5000F118381917F0ABF80020F8BD4FF0FF30BF
:109A6000F8BD00BF4068704710B4141E10DB426898
:109A7000A2420DDB33EA230328BF1346121B083032
:109A80009A422044A8BF1A465DF8044B09F05AB91F
:109A90005DF8044B704700BF10B443688B4200F17F
:109AA00008041846A8BF084632EA220128BF194612
:109AB0001B1A99422044A8BF19465DF8044B00F0D8
:109AC000B5BE00BF70B5002BBCBF43689B1A002A0F
:109AD0000E4620DB44689918A1421CDC91421ADB37
