:1040000000000320814901007D49010001DC00001E
:104010007D4901007D4901007D490100000000004B
:104020000000000000000000000000007D490100C9
:104030007D490100000000007D4901007D4901002B
:104040007D4901007D4901007D4901007D49010054
:104050007D4901007D4901007D4901007D49010044
:104060007D4901007D4901007D4901007D49010034
:104070008DD1010095D101009DD10100A5D1010094
:10408000ADD10100B5D10100BDD10100C5D1010004
:10409000CDD10100D5D10100DDD10100E5D1010074
:1040A000EDD10100F5D10100FDD1010005D20100E3
:1040B0007D4901007D4901007D49010041CC01009D
:1040C00045CC010049CC01004DCC010051CC010090
:1040D0007D4901007D4901007D4901007D490100C4
:1040E0007D4901007D4901007D4901007D490100B4
:1040F000000000007D490100B9C70100C5C70100EB
:10410000C9C70100CDC70100D1C70100DDC701004B
:10411000E1C70100E5C70100E9C70100F5C70100DB
:10412000F9C70100FDC7010001C801000DC8010069
:1041300011C8010015C8010019C8010025C80100F7
:1041400029C801002DC8010031C801003DC8010087
:1041500041C8010045C80100000000000000000047
:10416000000000000000000000000000000000004F
:10417000000000000000000000000000000000003F
:10418000AD9D0100B59D0100B99D0100B19D0100EB
:10419000000000007D4901007D4901007D490100CA
:1041A0007D4901007D4901007D4901007D490100F3
:1041B0007D4901007D4901007D4901007D490100E3
:1041C0007D4901007D4901007D4901007D490100D3
:1041D0007D4901007D4901007D4901007D490100C3
:1041E0007D4901007D4901007D490100A5BE010016
:1041F000ADBE0100B5BE0100BDBE0100C5BE0100DF
:10420000CDBE010000000000000000007D4901005B
:104210007D4901007D4901007D4901007D49010082
:104220007D4901007D4901007D4901007D49010072
:104230007D4901007D4901007D4901007D49010062
:104240007D4901007D4901007D4901007D49010052
:104250007D4901007D4901007D4901007D49010042
:10426000000000007CB0EE877CB0EE87FF00FF000E
:10427000FF00FF00FF00FF00FF00FF00FF00FF0046
:10428000FF00FF00FF00FF00FF00FF00FF00FF0036
:10429000FF00FF00FF00FF00FF00FF000000000024
:1042A0002DE9F04F85B003910778A7F10903042B9E
:1042B000044607F07F0200F10100F5D9202AF3D06F
:1042C0002B2F04BF677804462D2F75D09FED427BBE
:1042D0008DED007B4FF000084FF000099FB34FF0C9
:1042E000000C25464FF0000ADFF8FCB0644619E0E8
:1042F00019F056FA80468946304619F0E7F94246E9
:104300004B4619F097F85246804689465B46DDE9F0
:1043100000013CB319F06EFBCDE90001A44615F88D
:10432000017F7FB1A7F13006092E52465B46404619
:104330004946DDD9CCB92E2F17D115F8017F0124BC
:10434000002FEFD12C4642464B46DDE9000119F023
:1043500027FA80468946039B404649461C6005B0C3
:10436000BDE8F08F4FF0010CD9E72C46BCF1000FEF
:1043700029D042464B46DDE9000119F011FA07F059
:10438000DF07452F80468946E5D10399681C0A223C
:104390001CF046FA14490246002019F0B1FD02460D
:1043A0000B464046494619F0FBF98046894640468F
:1043B000494605B0BDE8F08F9FED097B67788DED2C
:1043C000007B013486E7DFF824904FF00008404678
:1043D000494605B0BDE8F08F000000000000F03F46
:1043E000000000000000F0BF000024400000F87F43
:1043F0002DE9F0470023144600228046894619F033
:1044000041FC28B109F1004399462D232370013462
:10441000002200234046494619F02AFC28B13022E8
:10442000002322706370BDE8F087404649461AF0C9
:1044300063FB19F065FC73A3D3E9002307464946E3
:10444000404619F01FFC00284ED170A3D3E9002389
:104450004046494619F034FC002845D10E2F07F19B
:10446000010540F3B980A7F10E06324600206249EB
:1044700019F046FD02460B464046494619F0BAFA85
:1044800000225E4B18F0D6FF19F076FD002DA7F143
:104490000F0E4FF0010C4DDD594FDFF878810122EE
:1044A00045F6F3294FF02E0A494508BF40454FF025
:1044B00030030AD3B0EB080061EB0901494508BF9E
:1044C000404503F10103F5D2DBB2237050EA01034A
:1044D00004F101084AD1954252DD0132102A4FD031
:1044E000444677E90289DFE7002F33DB3A460020B4
:1044F000414919F005FD02460B464046494619F070
:1045000079FA3BA3D3E9002380468946012500269A
:104510004046494619F044F90022384B18F08AFF0A
:1045200019F02AFD002DBC464FF0FF3E37464FF0F4
:104530000006B1DC234630224FF02E0803F8022B90
:1045400084F80180FC4345D01C4403F8012BA342AE
:10455000FBD1A1E77A420020274919F0D1FC02469D
:104560000B464046494619F01BF9CAE7954202F14D
:10457000010204BF84F801A004F10208102AAFD19F
:104580006EB14246302102F8011BC2F101037344AF
:104590004344002BF7DC2EEAEE7301339844BCF160
:1045A000010F12D0BCF1000F4FF0650388F8003006
:1045B000C5BF2B2388F8013008F1010108F1020181
:1045C0006046BDE8F04710F049BA002388F8003093
:1045D000BDE8F0871C465FE7C7F10E0200200649E0
:1045E00019F08EFC3E4602460B46012790E700BFBD
:1045F0000000901EC4BCD642000024400000E03FF2
:10460000B01802008DEDB5A0F7C6B03E50EFE2D66F
:10461000E41A4B4400407A1070B54FF0FF3006F0BA
:1046200039F904466FF07F4006F034F9064620461B
:1046300019F03CF800220C4B19F0B2F80446304651
:104640000D4619F033F806A3D3E9002319F0D2F987
:1046500002460B462046294618F0ECFE70BD00BF0E
:104660000000E0DFFFFF6F430000F03D00000000AE
:104670002DE9F04F1D461389AB4288BF536885B0C2
:1046800004468CBF53F82500002090468A4606F069
:1046900077FD0022904B19F083F819F031FBB8F840
:1046A00008206B1C9A4288BFD8F8042006468CBFAD
:1046B00052F82300002006F063FD0022864B19F01B
:1046C0006FF819F01DFBB8F808300235AB4288BF0F
:1046D000D8F8043007468CBF53F82500002006F0B8
:1046E0004FFD002EC4E9006740F3E280002F40F345
:1046F000DF8071A3D3E90023002584F828501AF045
:104700001FF9002200238046894619F0BBFA40B108
:104710004046494668A3D3E9002318F08BFE804643
:10472000894667A3D3E900234046494619F0C8FAF1
:10473000C0B165A3D3E900234046494619F0ACFA5D
:1047400080B101234046494684F8283060A3D3E96C
:10475000002318F06FFE58A3D3E900231AF0F0F8F5
:104760008046894600225D4B4046494619F018F8BC
:1047700019F01EFE01F1004300221946564B19F0B4
:104780000FF819F0BDFA49460546404619F0CCFD30
:104790000022514B19F004F819F0B2FADAF804309B
:1047A0004F49B3F80CB0B3F80AA0A56007FB0BF3B0
:1047B00003EB010806FB0AF6019388FB05234FEA89
:1047C000124C00960E444CEA034C06EA010383FBAC
:1047D000009A06EB0C0E0EEA010ED346CA468EFB7B
:1047E00000675246CDE90267120C42EA0B42DDE94E
:1047F00002AB0CEA010C8CFB00674FEA16495646E7
:104800000A40360C46EA0B4649EA074982FB05ABEB
:104810005F46C144B0445646CDE90267039FE0605D
:10482000360C09EA010908EA010846EA074689FB4D
:1048300005AB334488FB0556CDE9025655462D0C91
:1048400045EA0B45DDE902AB0B40AC4403EAE377F4
:104850000CEA010C554623EAE37367454FEA154518
:1048600002EAE276A8BF674645EA0B45634522EABD
:10487000E272B8BF6346AE444E450EEA010EA8BFD1
:104880004E464A45B8BF4A467745A8BF7746734566
:10489000B8BF73464645A8BF4646C4E905634245CE
:1048A000B8BF424600980199206261622761E261C7
:1048B000204605B0BDE8F08FEA2E4454FB21194094
:1048C000F4D64354FB21F93F320D337F7CD912409B
:1048D000EA2E4454FB2109400000F0400000E03F74
:1048E0000000FFFF0000000008B511F087FBDFEDBE
:1048F0000C7A07EE100A67EE277A17EE900A18F086
:10490000F7FE05A3D3E9002319F074F819F0F8F9BC
:1049100008BD00BFAFF30080EA2E4454FB211940CC
:104920000000B4430000000008B511F07BFBDFED90
:104930000C7A07EE100A67EE277A17EE900A18F045
:10494000D7FE05A3D3E9002319F054F819F0D8F9DC
:1049500008BD00BFAFF30080EA2E4454FB2119408C
:104960000000B443000000002DE9F04F046985B059
:10497000E3699B07FCD12368C3F3400BBBF1000F35
:1049800040F0AF80B0F80CA015468046BAF1000F99
:1049900023D0BAF1010F62D0BAF1020F40F0A48027
:1049A0005500E1685448C5F53B438033B3FBF5F54A
:1049B0002A0421F47F0102F47F020A43E260E268E4
:1049C0006B00A0FB03135B0822F07F4242EA036303
:1049D0005846E36005B0BDE8F08FE2684BF6803BD7
:1049E00005EB850022F0FF03ABEB4000019318F0CC
:1049F0005DFE0646B8F80E000F4618F067FE3CA3B1
:104A0000D3E9002318F0CCFE80460BFB05F0894665
:104A100018F04CFE02460B464046494618F0C0FED0
:104A200002460B463046394618F002FD064668003D
:104A30000F4618F03BFE02460B463046394618F04A
:104A4000D9FF19F085F9019BC0B21843E060E36813
:104A5000504623F47F43E36005B0BDE8F08FE26881
:104A60004BF6803A05EB850022F0FF03AAEB4000ED
:104A7000019318F01BFECDE90201B8F80E0018F002
:104A800025FE1BA3D3E9002318F08AFE06460AFB85
:104A900005F00F4618F00AFE02460B46304639462E
:104AA00018F07EFE02460B46DDE9020118F0C0FC5C
:104AB000064668000F4618F0F9FD02460B463046E0
:104AC000394618F097FF19F043F9019BC0B218431B
:104AD000E060E368584623F47F43E36005B0BDE837
:104AE000F08F6FF0100075E76FF00C0072E700BFF9
:104AF00095D626E80B2E113EABAAAAAA000000000C
:104B00004F4A21F0004393422DE970430D4604467D
:104B10004DDC4C4A93420E460FDC45A3D3E90023FB
:104B200018F088FC0022484B19F0CAF8002854D02D
:104B30002B4620461946BDE87083444A934240DC28
:104B4000B3F1804F49DD19F0EBFB224680468946E0
:104B50002B462046294618F023FE00223A4B18F037
:104B600069FC1AF071FC42464B4618F063FC0246A1
:104B70000B460020344918F03DFF424604460D46DE
:104B80004B464046494618F055FC0B46024629461E
:104B9000204618F04FFC01F0C7FE04460B46002EDD
:104BA0000BDC03F1004320461946BDE870830B4639
:104BB000024618F03FFC04460B4620461946BDE865
:104BC000708319F0ADFB01F0AFFE1BA3D3E9002306
:104BD00018F030FC04460B46E1E722462B462046FF
:104BE000294618F0DDFD804689462046294619F001
:104BF00097FB00220446144B0D464046494618F0E8
:104C000019FC1AF021FC00220F4B18F013FC02468D
:104C10000B464046494618F0EDFE22462B4618F05A
:104C200009FC00F0B1FA04460B46B8E7AFF3008088
:104C30009C7500883CE4377EEF39FAFE422EE63F51
:104C4000FFFFEF7FFFFF2F3E0000F03F0000B0416D
:104C50002DE9F84FB84B21F000469E420D468A469A
:104C600004460EDDB54B9E4200F3B08000F0AB80F1
:104C7000B34BB449B448BAF1000FC8BF1946BDE8F8
:104C8000F88FB24B9E4200F3B980A3F1DE739E42CF
:104C900040F3A4804FF0FF3B22462B462046294696
:104CA00018F07EFD02460B468046894618F078FDD6
:104CB00089A3D3E9002306460F4618F071FD88A3A7
:104CC000D3E9002318F0B6FB32463B4618F068FDE6
:104CD00085A3D3E9002318F0ADFB32463B4618F01C
:104CE0005FFD83A3D3E9002318F0A4FB32463B46C3
:104CF00018F056FD80A3D3E9002318F09BFB324641
:104D00003B4618F04DFD7EA3D3E9002318F092FB3B
:104D100042464B4618F044FD7BA3D3E9002380466E
:104D200089463046394618F03BFD79A3D3E9002384
:104D300018F07EFB32463B4618F032FD76A3D3E9ED
:104D4000002318F075FB32463B4618F029FD74A38A
:104D5000D3E9002318F06CFB32463B4618F020FDE7
:104D600071A3D3E9002318F063FB32463B4618F0E9
:104D700017FD02460B464046494618F05BFB2246AB
:104D80002B4618F00DFDBBF1FF3F02460B465CD0F1
:104D90006F4B704E4FEACB0B5B44D3E9002318F006
:104DA00047FB22462B4618F043FBB34402460B4612
:104DB000DBE9000118F03CFBBAF1000F0CDA01F15D
:104DC0000041BDE8F88F00283FF452AF224620464C
:104DD0002B46294618F02EFBBDE8F88F54A3D3E9E3
:104DE000002318F027FB00225B4B18F069FF002816
:104DF0003FF450AF20462946BDE8F88F19F090FAED
:104E0000564B9E4204460D4625DCA3F550239E4298
:104E10004ADC02460B4618F00DFB00224E4B18F000
:104E200007FB002206460F464FF0804320462946E6
:104E300018F000FB02460B463046394618F0DAFD02
:104E40004FF0000B04460D4626E72046294618F091
:104E5000EFFABDE8F88F424B9E421ADC0022414B2C
:104E600018F0E6FA002206460F463E4B2046294639
:104E700018F096FC0022384B18F0DCFA02460B467C
:104E80003046394618F0B6FD4FF0020B04460D4689
:104E900002E702460B460020334918F0ABFD4FF005
:104EA000030B04460D46F7E600222B4B18F0C0FA20
:104EB000002206460F46284B2046294618F0BAFA2B
:104EC00002460B463046394618F094FD4FF0010B70
:104ED00004460D46E0E600BF11DA22E33AAD903F0A
:104EE000EB0D76244B7BA93F513DD0A0660DB13F21
:104EF0006E204CC5CD45B73FFF8300922449C23F89
:104F00000D5555555555D53F2F6C6A2C44B4A2BF4D
:104F10009AFDDE522DDEAD3F6D9A74AFF2B0B33F15
:104F2000711623FEC671BC3FC4EB98999999C93F8D
:104F30009C7500883CE4377EFFFF0F440000F07F43
:104F4000FB21F93FFB21F9BF182D4454FFFFDB3F44
:104F5000D8180200B81802000000F03FFFFFF23F2F
:104F6000FF7F03400000F83F0000F0BF000000009A
:104F7000C1F30A522DE9F843A2F2FF36132E0B4675
:104F80000D4604468846074621DC002E4CDB3A4A93
:104F900042FA06F901EA090202431DD034A3D3E91B
:104FA000002318F047FA0022002318F089FE48B1C8
:104FB000002D04DD4FF4801343FA06F6B04428EACE
:104FC000090500273C4629462046BDE8F883332ED4
:104FD00006DDB6F5806F3AD019462046BDE8F88365
:104FE000A2F213424FF0FF3929FA02F919EA000F31
:104FF000F2D01FA3D3E9002318F01CFA00220023EB
:1050000018F05EFE0028DDD0002D09DD142E25D01D
:105010000123C6F1340603FA06F6371928BF98446F
:1050200027EA09074546CDE711A3D3E9002318F085
:1050300001FA0022002318F043FE0028C2D0002D00
:105040000FDB55EA040707D000270C4DBAE70246EC
:1050500018F0F0F90446C0E73D46B3E705F1010852
:10506000DEE700274FF00045ACE700BFAFF300805C
:105070009C7500883CE4377EFFFF0F000000F03F86
:10508000C1F30A522DE9F843A2F2FF36132E0B4664
:105090000D460446884607461DDC002E3DDB384A97
:1050A00042FA06F901EA0902024319D032A3D3E910
:1050B000002318F0BFF90022002318F001FED0B33E
:1050C000002D04DA4FF4801343FA06F6B04428EAC0
:1050D000090500272FE0332E06DDB6F5806F2FD0AF
:1050E00019462046BDE8F883A2F213424FF0FF397B
:1050F00029FA02F919EA000FF2D01FA3D3E900231D
:1051000018F098F90022002318F0DAFD98B1002D6C
:1051100024DB27EA090745460DE017A3D3E900235E
:1051200018F088F90022002318F0CAFD18B1002DEC
:105130000BDB00273D463C4629462046BDE8F88368
:10514000024618F077F90446CBE725F000430D4AF4
:105150001F43002F18BF15460027ECE7142E08D078
:105160000123C6F1340603FA06F6371928BF98441E
:10517000CFE705F10108CCE79C7500883CE4377E59
:10518000FFFF0F000000F0BF2DE9F04FD84B994210
:1051900087B00E46074643DDD64B99428A4600F358
:1051A000F680D54B994240F330810B15A3F2FF3BBB
:1051B00000220023CDE902230446D04BCAF3130A90
:1051C0009A454AF07F5500F3158145F44015204675
:1051D00029460022CA4B18F02BF9002204460D463E
:1051E000C84B18F0DDFA22462B4618F0D9FA804653
:1051F000894627462E46CDE90089BAF1000F3AD1FB
:10520000002200232046294618F032FD002800F035
:105210001D81BBF1000F40F0858100200146BAE0FE
:10522000B94B21F000449C420A460FDD0022B74BE7
:1052300018F01EFD002800F0B1800022002300209D
:10524000B34918F0D7FB07B0BDE8F08FB14B9C42D3
:1052500040F3B180B04B1A449A4240F2D68000220B
:10526000A84B18F09DFA3A46334618F099FACDE962
:1052700000014FF0000B00224FF0804338463146CA
:1052800018F0D8F802460B463846314618F0B2FB03
:1052900002460B468046894618F082FA80A3D3E97D
:1052A000002304460D4618F07BFA7FA3D3E90023C0
:1052B00018F0C0F822462B4618F072FA7CA3D3E906
:1052C000002318F0B7F822462B4618F069FA7AA3A3
:1052D000D3E9002318F0AEF822462B4618F060FA06
:1052E00077A3D3E9002318F0A5F822462B4618F03F
:1052F00057FA75A3D3E9002318F09CF822462B46F1
:1053000018F04EFA72A3D3E9002318F093F822465E
:105310002B4618F045FADDE9004522462B4618F0E9
:1053200089F842464B4618F03BFACDE90401BBF13F
:10533000000F00F0A880584618F0C8F966A3D3E91A
:1053400000238046894618F02BFA65A3D3E9002391
:1053500004460D464046494618F022FADDE902238C
:1053600018F068F8DDE9042318F064F802460B46EB
:10537000DDE9000118F05CF83A46334618F058F8B9
:1053800002460B462046294618F052F803E0024632
:105390000B4618F04FF807B0BDE8F08F3A46334699
:1053A0003846314618F044F802460B4618F022FB06
:1053B00007B0BDE8F08F0022584B18F03BF80022F0
:1053C000002318F07DFC10B1554B9C4262DD3A463B
:1053D00033463846314618F0E3F90022494B18F0BD
:1053E000DFF902460B463846314618F021F807B07F
:1053F000BDE8F08F45F40015CAF5801A204629460D
:105400004FEAAA0A0BF1010BE3E63D4B3846314661
:10541000002218F00FF80B15A3F2FF3BBBF1000FB1
:1054200004460D468A4640F3C3803A46334617F099
:10543000FFFF02460B460020314917F0F9FF2246D4
:105440002B4618F0D7FACDE90201B6E626A3D3E938
:1054500000232046294618F0A3F902460B460020F7
:10546000274917F0E5FF42464B4618F099F90646E2
:105470000F46BBF1000F73D102460B46204629466A
:1054800017F0D6FF87E702460B462046294617F05D
:10549000CFFFA6E7384631467DE700BFAFF3008077
:1054A00044523EDF12F1C23F9FC678D0099AC33FF3
:1054B000DE03CB966446C73FAF788E1DC571CC3FE7
:1054C000599322942449D23F04FA97999999D93F44
:1054D000935555555555E53F0000E0FE422EE63FF9
:1054E000763C7935EF39EA3D555555555555E53FEB
:1054F0007982DA3FFFFFEF7FFFFF3F439DA0060069
:105500000000F03F0000E03FFFFFEF3F0000F0BF72
:10551000000050C3FFFF1F3E3C412D4000005043A0
:10552000FFFF8F3C584618F0D1F827A3D3E900239A
:1055300006460F4618F034F9DDE9022317F07AFF2A
:1055400023A3D3E9002304460D463046394618F01C
:1055500027F902460B462046294617F06BFF1AE74B
:10556000584618F0B3F81AA3D3E9002382468B46B5
:1055700018F016F914A3D3E9002380468946504653
:10558000594618F00DF9DDE9022317F053FF0246E2
:105590000B463046394617F04BFF22462B4617F094
:1055A00047FF02460B464046494617F041FFF2E6E8
:1055B0000022094B17F03CFF02460B4638463146A5
:1055C00017F036FF3BE700BF763C7935EF39EA3D0F
:1055D0000000E0FE422EE63F0000F03F0000000029
:1055E00008B519F00DFA04A3D3E9002318F002FA64
:1055F00008BD00BFAFF30080EF39FAFE422EE63F50
:105600002DE9F043DFF8B4808BB004460D4600F07E
:1056100057FF98F90030013306460F462CD022463A
:105620002B462046294618F055FB814620BB2046D4
:10563000294618F075FE1CA3D3E9002318F040FB9F
:10564000D0B11B4A98F90030CDF820900321CDE964
:105650000445CDE90245CDE9001293B1154900207A
:10566000022BCDE9060111D11BF096F8222303602D
:10567000089B9BB9DDE90667304639460BB0BDE8AB
:10568000F0830D4B4FF06042CDE9062368461AF0D7
:1056900033FF0028E8D0089B002BEBD01BF07CF8F0
:1056A000089B0360E6E700BF7DF8B98FCE338640E4
:1056B000982F02000000F07FFFFFEF471E0200203E
:1056C0002DE9F043DFF8E4808BB004460D4600F08E
:1056D000A3FF98F90030013306460F4633D0204629
:1056E00029461AF003FF70B329A3D3E9002320460B
:1056F000294618F0E5FA814650BB27A3D3E90023D9
:105700002046294618F0BEFAE8B198F90030244A3C
:10571000CDF82090042600200021022BCDE904457D
:10572000CDE90245CDE90062CDE9060129D0684600
:105730001AF0E2FE28B3089B1BB11BF02DF8089B62
:105740000360DDE90667304639460BB0BDE8F083FB
:10575000134A98F90030019203210022CDE9044553
:10576000CDE90245009108922BB90E4B4FF06042F3
:10577000CDE90623DBE70C490020022BCDE9060129
:10578000D5D11BF009F822230360D4E7AFF30080E2
:10579000EF39FAFE422E864051302DD5104987C090
:1057A000A02F0200FFFFEF470000F07F1E02002045
:1057B0002DE9F84FC44E21F00043B3420C46054694
:1057C0000DDD03F1404303F58013034340F0B9803E
:1057D000002940F3408100200021BDE8F88FBB4E36
:1057E000B34208DCBA4A934200F3B5809CA1D1E9E8
:1057F0000001BDE8F88F0029C0F2708102460B4617
:105800000020B44917F014FE0022B34B17F0C8FF74
:1058100004460D4619F018FE93A3D3E900238946E8
:1058200080462946204617F0BBFF91A3D3E9002309
:1058300017F000FE22462B4617F0B2FF8EA3D3E9E5
:10584000002317F0F5FD22462B4617F0A9FF8CA385
:10585000D3E9002317F0EEFD22462B4617F0A0FFF8
:1058600089A3D3E9002317F0E3FD22462B4617F066
:1058700097FF87A3D3E9002317F0DCFD22462B46D0
:1058800017F08EFF84A3D3E9002382468B4620467F
:10589000294617F085FF82A3D3E9002317F0C8FD3E
:1058A00022462B4617F07CFF7FA3D3E9002317F095
:1058B000C1FD22462B4617F073FF7DA3D3E90023D9
:1058C00017F0B6FD22462B4617F06AFF0022814BE7
:1058D00017F0B0FD02460B465046594618F08AF8BC
:1058E00042464B4617F05CFF002682468B46324606
:1058F0004B463046494617F053FF02460B462046BA
:10590000294617F095FD324604460D464B46404663
:10591000494617F08FFD02460B462046294618F0EF
:1059200069F802460B465046594617F083FD324649
:105930004B4617F07FFD02460B4617F07BFDBDE896
:10594000F88F02460B4617F073FD02460B4618F01F
:1059500051F8BDE8F88F02460B4617F021FF42A32D
:10596000D3E9002306460F4617F01AFF40A3D3E9F8
:10597000002317F05FFD32463B4617F011FF3EA3B0
:10598000D3E9002317F054FD32463B4617F008FFD9
:105990003BA3D3E9002317F04DFD32463B4617F0F9
:1059A000FFFE39A3D3E9002317F042FD32463B4600
:1059B00017F0F6FE36A3D3E9002317F03BFD32467D
:1059C0003B4617F0EDFE34A3D3E900238046894619
:1059D0003046394617F0E4FE31A3D3E9002317F02F
:1059E00027FD32463B4617F0DBFE2FA3D3E9002309
:1059F00017F020FD32463B4617F0D2FE2CA3D3E928
:105A0000002317F015FD32463B4617F0C9FE002271
:105A1000304B17F00FFD02460B464046494617F043
:105A2000E9FF2A46234617F0BBFE02460B4622A199
:105A3000D1E9000117F0FCFC02460B46284621463E
:105A400017F0F6FC02460B4605A1D1E9000117F05C
:105A5000EFFCBDE8F88F1AA1D1E9000179E700BF9A
:105A6000182D4454FB21F93F09F7FD0DE13D023F9C
:105A700088B20175E0EF493F3B8F68B52882A43FAB
:105A80005544880E55C1C93F7D6FEB0312D6D43FF4
:105A9000555555555555C53F82922EB1C5B8B33FA2
:105AA00059018D1B6C06E63FC88A599CE52A0040C7
:105AB0004B2D8A1C273A0340075C143326A6913CE1
:105AC000182D4454FB210940FFFFEF3FFFFFDF3F4C
:105AD0000000603C0000F03F0000E03F00225C4B13
:105AE00017F0A8FC00225B4B17F05AFE40A3D3E945
:105AF000002304460D4617F053FE3FA3D3E90023CD
:105B000017F098FC22462B4617F04AFE3CA3D3E937
:105B1000002317F08DFC22462B4617F041FE3AA3D6
:105B2000D3E9002317F086FC22462B4617F038FEF7
:105B300037A3D3E9002317F07BFC22462B4617F04E
:105B40002FFE35A3D3E9002317F074FC22462B4621
:105B500017F026FE804689462046294619F074FC37
:105B60002FA3D3E9002306460F462046294617F007
:105B700017FE2DA3D3E9002317F05AFC22462B462B
:105B800017F00EFE2AA3D3E9002317F053FC224698
:105B90002B4617F005FE28A3D3E9002317F048FC95
:105BA00022462B4617F0FCFD0022294B17F042FC41
:105BB00002460B464046494617F01CFF32463B461C
:105BC00017F0EEFD1EA3D3E9002317F031FC324697
:105BD0003B4617F02FFC02460B4617F02BFC024603
:105BE0000B4619A1D1E9000117F022FCB1E600BF74
:105BF00009F7FD0DE13D023F88B20175E0EF493F35
:105C00003B8F68B52882A43F5544880E55C1C93FD3
:105C10007D6FEB0312D6D43F555555555555C53FAD
:105C200082922EB1C5B8B33F59018D1B6C06E63F79
:105C3000C88A599CE52A00404B2D8A1C273A03400C
:105C4000075C143326A6913C182D4454FB210940CF
:105C50000000F03F0000E03F414A91422DE9F84347
:105C60000C46054637DD3F4A914209DD02F1795283
:105C700091423EDD02460B4617F0DCFBBDE8F8839F
:105C800001F1404202F5801202432ED0B1F1804F63
:105C900037DC0022344B17F0CBFB02460B460446A0
:105CA0000D4617F0C7FB224606460F462B462046F8
:105CB000294617F075FD02460B463046394617F067
:105CC000B9FB19F0C1FB22462B4617F0B3FBBDE828
:105CD000F843FFF759BA02460B4617F0A9FB0246F4
:105CE0000B4617F087FEBDE8F88300200021BDE8D1
:105CF000F88300F019FE18A3D3E9002317F09AFBEC
:105D0000F1E702460B4617F04BFD0022164B17F049
:105D10008FFB19F099FB2A46804689462346284680
:105D2000214617F087FB2A4606460F462346404683
:105D3000494617F07FFB02460B4600200A4917F040
:105D400059FE0B4602463946304617F071FBBDE856
:105D5000F84300F0E9BD00BFEF39FAFE422EE63FFE
:105D6000FFFFEF3FFFFFAF410000F03F00000000EA
:105D70002DE9F04FB24B21F000479F4287B00D460E
:105D8000044615DD07F1404707F5801703463B43FE
:105D900026D002460B4617F04BFB0B46024617F087
:105DA00029FE04460B462046194607B0BDE8F08F91
:105DB000A44B9F420E462EDCB7F1795F80F24A81F8
:105DC00083A3D3E9002317F035FB00229E4B17F085
:105DD00077FF00B32B462046194607B0BDE8F08F89
:105DE0007DA3D3E9002317F0DBFC7DA3D3E90023D7
:105DF00006460F462046294617F0D2FC02460B46BF
:105E00003046394617F016FB04460B462046194625
:105E100007B0BDE8F08F2046294618F081FA024607
:105E20000B460020884917F003FB0022874B17F030
:105E3000B7FC6DA3D3E9002304460D4617F0B0FC70
:105E40006BA3D3E9002317F0F5FA22462B4617F08F
:105E5000A7FC69A3D3E9002317F0EAFA22462B46F0
:105E600017F09EFC66A3D3E9002317F0E3FA22465D
:105E70002B4617F095FC64A3D3E9002317F0D8FA5A
:105E800022462B4617F08CFC61A3D3E9002317F0C0
:105E9000D1FA22462B4617F083FC5FA3D3E90023F7
:105EA000CDE900012046294617F07AFC5CA3D3E92E
:105EB000002317F0BDFA22462B4617F071FC5AA3B7
:105EC000D3E9002317F0B6FA22462B4617F068FCF8
:105ED00057A3D3E9002317F0ABFA22462B4617F05D
:105EE0005FFC594B002217F0A5FA82468B462046EC
:105EF0002946CDE902AB19F0A7FA554B9F428046DF
:105F0000894600F31C8102460B4617F093FADDE93F
:105F10000223CDE90401DDE9000117F06BFD024623
:105F20000B46DDE9040117F03BFC4FF0000ACDE918
:105F3000000152464B465046494617F031FC024696
:105F40000B462046294617F073FA524604460D4682
:105F50004B464046494617F06DFA02460B4620462E
:105F6000294617F047FD02460B4617F063FA024632
:105F70000B461BA1D1E9000117F05AFA02460B4665
:105F8000DDE9000117F054FA524604460D464B462F
:105F90005046494617F04EFA02460B4626A1D1E973
:105FA000000117F045FA02460B462046294617F035
:105FB0003FFA0B46024620A1D1E9000117F038FA5A
:105FC00004460B46002E3FF7EEAE03F10043EAE62F
:105FD0009C7500883CE4377E182D4454FB21F93F22
:105FE000075C143326A6913C09F7FD0DE13D023F05
:105FF00088B20175E0EF493F3B8F68B52882A43F26
:106000005544880E55C1C93F7D6FEB0312D6D43F6E
:10601000555555555555C53F82922EB1C5B8B33F1C
:1060200059018D1B6C06E63FC88A599CE52A004041
:106030004B2D8A1C273A0340182D4454FB21E93F7D
:10604000FFFFEF3FFFFFDF3F0000F03F0000E03FBA
:106050003233EF3F02460B4617F0A2FB48A3D3E9C9
:10606000002306460F4617F09BFB47A3D3E9002306
:1060700017F0E0F932463B4617F092FB44A3D3E910
:10608000002317F0D5F932463B4617F089FB42A3AF
:10609000D3E9002317F0CEF932463B4617F080FBD8
:1060A0003FA3D3E9002317F0C3F932463B4617F06C
:1060B00077FB3DA3D3E9002317F0BCF932463B46FA
:1060C00017F06EFB3AA3D3E9002380468946304699
:1060D000394617F065FB38A3D3E9002317F0A8F978
:1060E00032463B4617F05CFB35A3D3E9002317F09B
:1060F000A1F932463B4617F053FB33A3D3E9002303
:1061000017F096F932463B4617F04AFB0022344B13
:1061100017F090F902460B464046494617F06AFCD4
:1061200022462B4617F03CFB22462B4617F082F9FD
:1061300004460B462046194607B0BDE8F08F52468C
:106140005B46DDE9000117F055FC42464B4617F06F
:1061500027FB42464B4617F06DF902460B4617F0F7
:1061600069F91BA3D3E9002317F062F90B46024635
:1061700019A1D1E9000117F05BF904460B4621E7AC
:1061800009F7FD0DE13D023F88B20175E0EF493F9F
:106190003B8F68B52882A43F5544880E55C1C93F3E
:1061A0007D6FEB0312D6D43F555555555555C53F18
:1061B00082922EB1C5B8B33F59018D1B6C06E63FE4
:1061C000C88A599CE52A00404B2D8A1C273A034077
:1061D000075C143326A6913C182D4454FB21F93F4B
:1061E0000000F03F000000002DE9F84F5442144336
:1061F00023F00048684E48EAD474B44284460F46FF
:106200001FD84442044321F0004A4AEAD474B442FD
:106210008B4616D803F1404404F5801414439E467F
:106220003DD09C1704F0020444EAD1745AEA0001FC
:106230000FD1022C50D0032C3CD145A1D1E9000153
:1062400005E01046194662463B4617F0F3F8BDE8F4
:10625000F88F58EA020126D0B0452DD0B24522D0A1
:10626000AAEB08084FEA2858B8F13C0F38DC002B9D
:106270003ADA18F13C0F37DA00200021012C49D01E
:10628000022C3AD0002CE2D033A3D3E9002317F03C
:10629000CFF833A3D3E9002317F0CAF8D7E7BDE856
:1062A000F84FFEF7D5BCBBF1000F11DB2EA1D1E9F1
:1062B0000001CCE73946CAE7C2452FD0022C0BD0EB
:1062C000032CBAD0012C4FF0000031D00021BEE7E2
:1062D00027A1D1E90001BAE721A1D1E90001B6E780
:1062E00021A1D1E90001C9E76046394617F082FBD8
:1062F00018F016F8FEF7ACFCC0E717A3D3E90023AB
:1063000017F096F802460B4615A1D1E9000117F0E7
:106310008FF89CE701F10043194698E7022C12D050
:10632000032C0CD0012C06D013A1D1E900018EE77B
:106330004FF000418BE712A1D1E9000187E712A1DC
:10634000D1E9000183E712A1D1E900017FE700BF95
:10635000182D4454FB2109C0075C143326A6A13C28
:10636000182D4454FB210940182D4454FB21F93FBA
:10637000182D4454FB21F9BF182D4454FB21E93F4B
:10638000182D4454FB21E9BFD221337F7CD902C0B0
:10639000D221337F7CD902400000F07F0000000052
:1063A00043422DE9F047034321F00048404A48EAC0
:1063B000D37393420F462ED890454AD03D4B984513
:1063C0008A4636DD3C4B9845044645464CDD024640
:1063D0004346414617F02EF8224606460F464346EE
:1063E0000020334917F024F802460B463046394660
:1063F00017F000FBFEF7C8FE304B002217F0D0F973
:10640000BAF1000F04460B460FDA01F100432046B3
:106410001946BDE8F08702460B4617F009F80B460F
:10642000024617F0E7FA04460B4620461946BDE837
:10643000F0871DA3D3E90023044616F0FBFF0022DA
:10644000002317F03DFC70B13B4620461946BDE8DD
:10645000F0870022002317F0CDFA04460B462046B1
:106460001946BDE8F087454622462B462046294678
:1064700016F0E0FF22462B4606460F4617F090F92D
:106480002246804689462B460020094916F0D0FF57
:1064900002460B464046494617F0ACFA32463B46A8
:1064A00016F0C8FFA6E700BF9C7500883CE4377E65
:1064B0000000F03FFFFF2F3EFFFFDF3F0000E03F07
:1064C0004D4A2DE9F84321F0004494420B4606461C
:1064D0001BDC4A4A944224DD494A944256DD494A2B
:1064E000944248DD484A944271DD013294426BD0B7
:1064F0003FA3D3E900231046194617F051F9064689
:106500000F4630463946BDE8F88304460D4622461C
:106510002B4617F045F906460F4630463946BDE88A
:10652000F88317F0FDFE02F06FFC0022374B804627
:10653000894616F07FFFB4F1725F06460F46ECDB2A
:1065400042464B464046494617F02AF932463B46FA
:1065500004460D463046394616F06CFF02460B469F
:106560002046294617F046FA0022284B16F062FF13
:1065700006460F46D1E717F0D3FE00F04DF8002293
:10658000234B17F00DF906460F46C6E717F0C8FE75
:1065900000F042F800221E4B06460F4617F000F9A5
:1065A000324604460D463B460020194917F022FAB0
:1065B00002460B462046294616F03CFF06460F468B
:1065C00030463946BDE8F883124A904290D83046AA
:1065D000194617F0A5FE00220D4B17F0E1F800F068
:1065E0001BF800220A4B04460D4617F0D9F88EE737
:1065F0009C7500883CE4377EFFFFEF7F422ED63F3C
:10660000FFFF3540412E8640CD3386400000F03FED
:106610000000E03F7DF8B98F2DE9F047B84F21F039
:106620000042BA4284B00C464FEAD176054612D9F0
:10663000B44FBA4240F28E80C1F3130303430246C3
:1066400040F0F780002E00F0818000252946284682
:1066500004B0BDE8F087AC4B9A4200F2B880AB4B77
:106660009A4240F2D3804FF0000A2A462346284639
:10667000214617F095F88CA3D3E9002306460F4670
:1066800017F08EF88AA3D3E9002316F0D1FE324624
:106690003B4617F085F888A3D3E9002316F0CAFE1D
:1066A00032463B4617F07CF885A3D3E9002316F069
:1066B000BFFE32463B4617F073F883A3D3E90023AD
:1066C00016F0B8FE32463B4617F06AF802460B4613
:1066D0002846214616F0ACFE02460B4606460F46FB
:1066E0002846214617F05CF880468946BAF1000F2B
:1066F00000F0B38032463B4600204FF0804116F058
:1067000097FE02460B464046494617F073F902468B
:106710000B46DDE9020116F08BFEDDE9002316F0E1
:1067200087FE0B4602467A49002016F081FE6FF480
:106730007F739A4580F2AD800AF57A7A01EB0A51AF
:1067400000224FF0B87317F02BF80546284604B026
:10675000BDE8F0875EA3D3E9002317F0B1FA002863
:106760006FD1284621465CA3D3E9002317F08AFAAB
:1067700000287FF46AAF674B284603EBC606214624
:1067800057A3D3E9002317F00BF8D6E9002316F03E
:1067900051FE17F0B5FA824616F098FF52A3D3E9DE
:1067A000002306460F4616F0FBFF02460B4628461E
:1067B000214616F03DFE4EA3D3E90023CDE90001AA
:1067C0003046394616F0ECFFCDE9020115E0524B98
:1067D0009A42D0D8514BF4002344D3E9002316F059
:1067E00027FE4F4B2344D3E90034CDE90001CDE926
:1067F0000234C6F1010AAAEB060ADDE90223DDE94B
:10680000000116F015FE05460C462EE73AA3D3E923
:10681000002316F00FFE00223D4B17F051FA00281E
:106820003ED0284621460022394B16F003FE05468D
:106830008CE70B4616F0FEFD0546284604B0BDE881
:10684000F0872DA3D3E900231046194616F0A8FFC0
:106850000546284604B0BDE8F08730463946002298
:106860004FF0804316F0E4FD02460B464046494691
:1068700017F0C0F82A46234616F0DAFD02460B460A
:106880000020234916F0D4FD0546284604B0BDE893
:10689000F087054601EB0A51284604B0BDE8F087B1
:1068A0008246E2E6AFF30080D0A4BE726937663E4E
:1068B000F16BD2C541BDBB3E2CDE25AF6A56113F00
:1068C00093BDBE166CC1663F3E5555555555C53FE7
:1068D000EF39FAFE422E864051302DD5104987C03F
:1068E000FE822B654715F73F0000E0FE422EE63F93
:1068F000763C7935EF39EA3D9C7500883CE4377E7B
:10690000412E8640FFFFEF7F422ED63FFFFF2F3EF6
:106910000000F03FF8180200B1A2F03F0819020091
:1069200018190200000000002DE9F04FB1F5801F9A
:1069300085B006460F460B4680F2D08021F000421B
:10694000024300F0DA800029C0F2E9800022D64B31
:1069500016F026FFD54A0B46934206460F466FF0C7
:10696000350E00F3C180C3F3130505F5152C0CF6A5
:10697000647C0CF4801C8CF07F5282F440121C1555
:1069800042EA0507A4F2FF3474440022C84B3046A3
:10699000394604EB1C5416F04BFDAB1CC3F3130338
:1069A000022B82468B464FF0000240F3AF804FF03F
:1069B000804316F03FFD02460B465046594617F0FD
:1069C00019F8064620460F4616F080FE3246CDE9FD
:1069D00002013B4630463946CDE9006716F0E0FE3D
:1069E00002460B468046894616F0DAFE9AA3D3E9A2
:1069F000002306460F4616F0D3FE99A3D3E90023E1
:106A000016F018FD32463B4616F0CAFE96A3D3E9AF
:106A1000002316F00FFD32463B4616F0C1FE94A34C
:106A2000D3E9002316F006FD42464B4616F0B8FEA9
:106A300091A3D3E90023804689463046394616F0B3
:106A4000AFFE8FA3D3E9002316F0F4FC32463B4699
:106A500016F0A6FE8CA3D3E9002316F0EBFC324619
:106A60003B4616F09DFE0B4602464946404616F050
:106A7000E1FCA5F5C223C5F5D725A3F27A4351352C
:106A80001D43002D06460F4640F387800022894BA8
:106A90005046594616F084FE52465B4616F080FE7C
:106AA00002460B46804689463046394616F0C2FCFF
:106AB000DDE9002316F074FE06460F46002C40F078
:106AC000818002460B464046494616F0B1FC02461C
:106AD0000B465046594616F0ABFC0BE0734A934206
:106AE0004FF0000E7FF73FAF32463B463046394607
:106AF00016F0A0FC05B0BDE8F08F002200230020B6
:106B00006D4916F077FF05B0BDE8F08F002317F050
:106B1000AFF860B1002C7CD100200021EAE70246EA
:106B200016F086FC0022002316F064FFE2E758A36B
:106B3000D3E900235046594616F032FE02460B4672
:106B400000205C4916F074FC524606460F465B4630
:106B50005046594616F024FE02460B46304639464A
:106B600016F01EFE06460F462CB3204616F0AEFD6C
:106B700049A3D3E900238046894616F011FE48A3B5
:106B8000D3E9002304460D464046494616F008FE68
:106B900002460B46304639462CE002460B4650462C
:106BA000594616F045FCDDE9002316F0F9FD0646CE
:106BB0000F46002C47D132463B465046594616F008
:106BC00037FC97E734A3D3E90023DDE9020116F08F
:106BD000E7FD33A3D3E9002304460D46DDE90201B6
:106BE00016F0DEFD32463B4616F024FC02460B460C
:106BF0004046494616F01CFC52465B4616F018FC0F
:106C000002460B462046294616F012FC05B0BDE8A8
:106C1000F08F204616F05AFD1FA3D3E90023064645
:106C20000F4616F0BDFD1EA3D3E9002304460D4612
:106C30003046394616F0B4FD02460B46204629463A
:106C400016F0F8FB56E7DDE9028913A3D3E9002328
:106C50004046494691E700BF44523EDF12F1C23F31
:106C6000DE03CB966446C73F599322942449D23F12
:106C7000935555555555E53F9FC678D0099AC33F62
:106C8000AF788E1DC571CC3F04FA97999999D93F79
:106C9000555555555555D53F0000E0FE422EE63F6F
:106CA000763C7935EF39EA3D00005043FFFFEF7F36
:106CB0000000F03F0000E03F000050C30000000073
:106CC000B1F5801F2DE9F84304460D460B4619DA4D
:106CD00021F00042024359D000295FDB00223A4BE9
:106CE00016F05EFD394A0B4693420D4604466FF09E
:106CF00035010CDD22462B462046294616F09AFB2C
:106D0000BDE8F883314A93424FF00001F2DC1815D8
:106D1000A0F2FF3008444FEAD0794844C3F3130887
:106D200016F0D4FCC9F57F73033348EA03550646D1
:106D30000F4620462946FFF7F7FD1DA3D3E90023A0
:106D4000804689463046394616F02AFD1AA3D3E913
:106D5000002304460D464046494616F021FD0246F2
:106D60000B462046294616F065FB15A3D3E9002300
:106D700004460D463046394616F012FD02460B46D3
:106D80002046294616F056FBBDE8F8830022002372
:106D900000200F4916F02EFEBDE8F883024616F0DB
:106DA00047FB0022002316F025FEA9E7AFF3008081
:106DB000362BF111F3FE593D0EE526157BCBDB3F5B
:106DC00000609F501344D33F00005043FFFFEF7F0C
:106DD000000050C3000000002DE9F04F23F00045F3
:106DE00055EA020493B00DD0794E21F00044B4422C
:106DF0000F4682460FDD04F1404404F5801454EA46
:106E00000A035BD1734C0023CDE90034DDE90001B6
:106E100013B0BDE8F08F984694464ED0B542EADCF8
:106E20006B4EB54266D0002F8B468146CDE90223DA
:106E300064DB0026BCF1000F0ED1654B9D4246D0AD
:106E4000644B9D4200F09780B8F1804F00F0B28013
:106E5000614B984500F0CC834846594617F060FADC
:106E6000CDE90001BAF1000F06D1002C60D0594BDA
:106E700027F040429A425BD0FF0F013F56EA0703DA
:106E800000F08280554B9D4240F3B08003F10473C3
:106E90009D4240F34184524B9C4240F38280B8F1C2
:106EA000000F40F3828048A3D3E90023104619461F
:106EB00016F076FCCDE90001A8E728B1494813B0E7
:106EC000BDE8F04F19F01ABBA542F7DCA8E704F1C2
:106ED000404303F5801353EA0A0393D0404B9C428E
:106EE00040F39083B8F1000F5FDBDDE90234CDE9B8
:106EF00000348BE7BCF1000F95D07CE73A4B9D4204
:106F000037DCA3F154739D4293DD2B15A3F2FF33BD
:106F1000142B40F3E983C3F134032CFA03F202FA91
:106F200003F3634585D102F00102C2F1020681E755
:106F3000B8F1000F07DADDE900230020254916F03B
:106F400059FDCDE90001002FBFF660AF04F14044C8
:106F500004F5801454EA060300F03C84012E7FF40B
:106F600055AFDDE90045224605F10043CDE9002398
:106F70004CE702265EE7B8F1000FC0F24F834846A7
:106F80005946CDE9000141E74A4648465B46594625
:106F900016F04EFA02460B4616F02CFDCDE9000124
:106FA00034E7B8F1000FFFF67EAF00230024CDE9EF
:106FB00000342BE74A4648465B46594616F0F0FB3C
:106FC000CDE9000122E700BF9C7500883CE4377ED4
:106FD0000000F07F0000F03F0000E03F0000E041D3
:106FE000FFFFEF3F04220200FFFF3F43B4F5801F85
:106FF00080F28F83DDE900010022CF4B16F0D0FB39
:10700000CDE900010C466FF0340C2315CB4DC4F3D1
:107010001302A3F2FF3342F07F5403EB0C01AA42A8
:107020000B9144F4401440F36F83C54B9A4240F3F4
:10703000F38300220023CDE9082301310B91A4F54D
:107040008014CDE91023BF4B0022CDE90623002593
:10705000DDE90001DDE906232146824616F0E8F964
:10706000A346DDE906238046894650462146CDE900
:107070000CAB16F0DFF902460B460020B14916F0C2
:10708000B9FC0A460146CDE90E12134649460246AE
:10709000404616F085FB631043F0005382468B4652
:1070A00003F500238C46CDE904AB5919D3460023E0
:1070B000CDE900BC0093DDE900AB002004460D469D
:1070C00002460B465046594616F06AFB02460B46EE
:1070D0004046494616F0ACF9DDE90623804689466C
:1070E0002046294616F0A4F902460B46DDE90C01BC
:1070F00016F09EF952465B4616F052FB02460B46CE
:107100004046494616F094F9DDE90E2316F048FB97
:10711000DDE90445CDE9060122462B4620462946F5
:1071200016F03EFB72A3D3E9002304460D4616F089
:1071300037FB71A3D3E9002316F07CF922462B46D6
:1071400016F02EFB6EA3D3E9002316F073F9224646
:107150002B4616F025FB6CA3D3E9002316F06AF941
:1071600022462B4616F01CFB69A3D3E9002316F038
:1071700061F922462B4616F013FB67A3D3E90023DF
:1071800016F058F92246804689462B462046294665
:1071900016F006FB02460B464046494616F000FB39
:1071A000524604460D465B46DDE9040116F042F9FD
:1071B000DDE9062316F0F4FA22462B4616F03AF9DA
:1071C0005246804689465B465046594616F0E8FAD4
:1071D00000225D4BCDE90C0116F02CF942464B46DE
:1071E00016F028F900980D46044622462B465046D4
:1071F000594616F0D5FA002282468B46524B20465D
:10720000294616F015F9DDE90C2316F011F90246AE
:107210000B464046494616F00BF9DDE9042316F00B
:10722000BFFA2246804689462B46DDE9060116F064
:10723000B7FA02460B464046494616F0FBF8804630
:10724000894602460B465046594616F0F3F8009818
:1072500033A3D3E9002304460D4616F0A1FA5246A3
:10726000CDE904015B462046294616F0E1F80246C6
:107270000B464046494616F0DBF82BA3D3E9002322
:1072800016F08EFA2AA3D3E90023804689462046C9
:10729000294616F085FA02460B464046494616F046
:1072A000C9F8DDE9102316F0C5F880460B98894629
:1072B00016F00CFA424682468B464B46DDE9040145
:1072C00016F0B8F8DDE9082316F0B4F852465B462C
:1072D00016F0B0F8009852465B4604460D4616F08C
:1072E000A7F8DDE9082316F0A3F8DDE904232DE073
:1072F000EF4E454A287ECA3F65DBC9934A86CD3F9B
:1073000001411DA96074D13F4D268F515555D53F80
:10731000FFAB6FDBB66DDB3F033333333333E33F18
:10732000000000E009C7EE3FFD033ADC09C7EE3F6D
:10733000F5015B14E02F3EBE000040438E98030031
:1073400079B60B000000F03F0000084016F070F81E
:107350000B4602464946404616F06AF8013E56EA98
:10736000070382468B46DDE9020114BFD84BD94B97
:107370000022CDE9042302460B46CDE90023002379
:107380000093DDE9006732463B4616F051F822468D
:107390002B4616F005FADDE9022380468946504661
:1073A000594616F0FDF902460B464046494616F08E
:1073B00041F83246804689463B4620462946CDE97B
:1073C000028916F0EDF90B46024606460F46404686
:1073D000494616F02FF8C04B994204460D468A469E
:1073E00040F3268101F13F4303F5E003034340F0FE
:1073F000F781A3A3D3E90023DDE9020116F01AF80F
:107400003246804689463B462046294616F010F80B
:1074100002460B464046494616F052FC002840F012
:10742000DF81A8464FEA2853A3F2FE324FF48013BF
:1074300013415344C3F30A52A84DA2F2FF3215413F
:10744000C3F3130423EA05010020C2F1140B44F432
:107450008014BAF1000F02460B4644FA0BFB30468B
:107460003946B8BFCBF1000B15F0E2FF02460B46E0
:1074700006460F46DDE9020115F0DCFF4FEA0B5A24
:107480000D46002480A3D3E900232046294616F0A8
:1074900087F93246804689463B462046294615F004
:1074A000C7FF02460B46DDE9020115F0C1FF78A3D4
:1074B000D3E9002316F074F977A3D3E90023064635
:1074C0000F462046294616F06BF902460B46304619
:1074D000394615F0AFFF06460F4602460B464046BA
:1074E000494615F0A7FF42464B4604460D4615F0A7
:1074F0009FFF02460B463046394615F099FF22465B
:10750000804689462B462046294616F049F964A351
:10751000D3E9002306460F4616F042F962A3D3E9E9
:10752000002315F085FF32463B4616F039F960A37B
:10753000D3E9002315F07EFF32463B4616F030F9C2
:107540005DA3D3E9002315F073FF32463B4616F0E6
:1075500027F95BA3D3E9002315F06CFF32463B46C5
:1075600016F01EF902460B462046294615F060FF2C
:1075700006460F4602460B462046294616F010F9ED
:107580000022CDE900014FF080433046394615F026
:107590004FFF02460B46DDE9000116F02BFA42468A
:1075A00006460F464B462046294616F0F9F8424655
:1075B0004B4615F03FFF02460B463046394615F064
:1075C00037FF22462B4615F033FF02460B460020BC
:1075D0003F4915F02DFF8A44BAF5801FC0F22D8176
:1075E0005146DDE9042316F0DBF8CDE900010DE496
:1075F000002FFFF631AC4846594613B0BDE8F04FB6
:1076000017F022BFB8F1000FBFF6CFACDDE90234AE
:10761000009304F100430193FFF7F8BB4A465B4631
:1076200000202B4916F0E6F9CDE90001FFF7EEBB8B
:107630002B4B21F00048984540F3E280294B0B4446
:1076400003430AD132463B4615F0F2FEDDE9022340
:1076500016F02CFB00283FF4E5AE1BA3D3E9002372
:10766000DDE9040116F09CF817A3D3E9002316F016
:1076700097F8CDE90001FFF7C9BB00BFAFF3008069
:10768000FE822B654715973C00000000432EE63F25
:10769000EF39FAFE422EE63F396CA80C615C20BE41
:1076A000D0A4BE726937663EF16BD2C541BDBB3E08
:1076B0002CDE25AF6A56113F93BDBE166CC1663FE6
:1076C0003E5555555555C53F59F3F8C21F6EA50196
:1076D0000000F03F0000F0BFFFFF8F40FFFF0F00F2
:1076E000FFCB904000346F3FBCF1000F40F0918021
:1076F000C3F1140345FA03F202FA03F3AB4200F0BC
:10770000A0806646FFF79CBB00220023CDE908233A
:1077100097E44FF0000C78E45B4B9C427FF741AC60
:107720005A4B9C423FF7BBABDDE900010022574BAF
:1077300015F07EFE46A3D3E9002304460D4616F05D
:107740002FF845A3D3E9002382468B4620462946DD
:1077500016F026F80022CDE900014D4B20462946BF
:1077600016F01EF802460B463DA1D1E9000115F0C6
:107770005FFE22462B4616F013F802460B46002009
:10778000444915F055FE2246804689462B46204640
:10779000294616F005F802460B464046494615F0C4
:1077A000FFFF31A3D3E9002315F0FAFF02460B4691
:1077B000DDE9000115F03CFE02460B468046894695
:1077C0005046594615F036FE002004460D465246F6
:1077D0005B46BBE5DDE9002310461946FFF7D8BB41
:1077E00023A3D3E90023DDE9040115F0D9FF20A389
:1077F000D3E9002315F0D4FFCDE90001FFF706BB64
:10780000244B98453FF70EAEDDE9002392469346A0
:1078100037E60026FFF720BB17A3D3E90023CDE905
:10782000082317A3D3E90023CDE910231A4B002224
:107830004FF48025CDE906230AE45A4601F02CFDD9
:10784000CFE602F00102C2F10206FFF7F9BA00BF6B
:10785000000000604715F73F44DF5DF80BAE543E73
:10786000555555555555D53FFE822B654715F73F64
:107870009C7500883CE4377E0000004003B8E23F7E
:1078800006D0CF43EBFD4C3EFEFFEF3F0000F03F44
:107890000000D03F0000E03F0000F83F0000000083
:1078A0002DE9F04FC84E21F00047B7428FB00B468C
:1078B00040F38F809246C54A97420C4626DC002949
:1078C000B7A3D3E9002340F38F8015F0B1FDC04B7F
:1078D0009F4204460D4600F04681B3A3D3E900233E
:1078E00015F0A6FD02460B46CAE9002320462946AC
:1078F00015F09EFDACA3D3E9002315F099FD0125F9
:10790000CAE9020128460FB0BDE8F08FB14A97429C
:1079100040F38980B04A974200F31C813D15A5F2DF
:107920001645A7EB055319461F46064616F0E8F91B
:1079300015F0CCFE8046894602460B463046394655
:10794000CDE9088915F074FD0022A44B15F028FF3D
:107950008946804616F0D4F915F0B8FE02460B466B
:1079600006460F4640464946CDE90A6715F060FDD8
:1079700000229A4B15F014FF00220023CDE90C01E0
:1079800016F076F9002800F05D8100233046394674
:10799000002216F06DF9002814BF01230223904A3B
:1079A000019202212A46009108A8514600F080FB6E
:1079B000002C054614DADAF80420DAF80C3002F16B
:1079C000004203F100434542CAF80420CAF80C30D3
:1079D00006E0C2E9000100250024C2E902450025B5
:1079E00028460FB0BDE8F08F15F024FD784B9F427C
:1079F00004460D4600F008816BA3D3E9002315F07F
:107A000019FD02460B46CAE900232946204615F017
:107A10000FFD65A3D3E9002315F00CFD4FF0FF35F2
:107A2000CAE90201DCE716F07BFC61A3D3E900237D
:107A30008046894615F0B4FE00226A4B15F0FAFC28
:107A400016F05EF9054615F041FE55A3D3E9002373
:107A5000CDE9040115F0A4FE02460B464046494616
:107A600015F0E6FC50A3D3E90023CDE90201DDE9DE
:107A7000040115F095FE1F2D8046894602460B46EF
:107A8000DDE9020140F3B08015F0D2FC83460E46DA
:107A90003F15C6F30A53FB1A102B40F3B08046A3E0
:107AA000D3E90023DDE9040115F07AFE804689461A
:107AB00002460B46DDE9020115F0BAFC02460B4610
:107AC000DDE90201CDE9062315F0B2FC42464B4642
:107AD00015F0AEFC3AA3D3E9002380468946DDE9E0
:107AE000040115F05DFE42464B4615F0A1FC0B4625
:107AF000024680468946DDE9060115F099FCC1F38E
:107B00000A53FF1A312F83460E4600F39D8002462A
:107B10000B46CAE90023DDE90623CDE902235A46D4
:107B20003346DDE9020115F083FC42464B4615F071
:107B30007FFC002C02460B46CAE90223BFF650AF79
:107B400006F1004601F10041CAE900B6CAE90201A6
:107B50006D4245E7024615F06BFC0025CAE90201BB
:107B6000CAE900013CE714A3D3E9002315F060FC47
:107B700013A3D3E900230D46044615F059FC024631
:107B80000B46CAE900232946204615F051FC0CA3F8
:107B9000D3E9002315F04CFC0125CAE902011FE7D7
:107BA00000004054FB21F93F3163621A61B4D03DBB
:107BB00083C8C96D305FE43F0000601A61B4D03DF6
:107BC0007370032E8A19A33BFB21E93F7BD9024046
:107BD000FB21F93FFB213941FFFFEF7F000070419E
:107BE0005C3002000000E03F15F022FC3A4B6A1EB8
:107BF000834653F82230BB420E463FF449AF5A4603
:107C00003346CAE900238AE72BA3D3E9002315F002
:107C100011FC2BA3D3E900230D46044615F00AFC02
:107C200002460B46CAE900232946204615F000FC0F
:107C300023A3D3E9002315F0FDFB4FF0FF35CAE97C
:107C40000201CDE60323AAE61FA3D3E90023DDE961
:107C5000040115F0A5FDDDE9068906460F4602463A
:107C60000B464046494615F0E3FB02460B464046AC
:107C70004946CDE9022315F0DBFB32463B4615F0C1
:107C8000D7FB13A3D3E9002306460F46DDE9040121
:107C900015F086FD32463B4615F0CAFB02460B4600
:107CA00080468946DDE9020115F0C2FB83460E4697
:107CB000A5E700BFAFF300800000601A61B4D03DBB
:107CC0007370032E8A19A33B0000002E8A19A33B70
:107CD000C14920259A837B39DC2F02000000000077
:107CE000574A2DE9F84F21F0004890450E460746C7
:107CF0002CDC544B0029B4BF534D544D98454FF0E4
:107D0000000411DC524B984526DC4BA3D3E9002339
:107D100015F090FB00224F4B15F0D2FF002840D009
:107D200038463146BDE8F88F4B4B984530DD4B4B1C
:107D3000984568DD0133984562D0384631463EA308
:107D4000D3E9002315F02CFDBDE8F88F02460B4661
:107D500015F070FBBDE8F88F16F0E2FA01F054F868
:107D60003F4B984506460F4623DD0022394B15F060
:107D700061FB02460B463046394615F03BFE324663
:107D80003B4615F057FB22462B4615F009FDE1E76F
:107D900016F0C6FAFEF740FC22462B4615F000FD11
:107DA000D8E73846314616F0BBFA01F02DF8064602
:107DB0000F4632463B463046394615F03BFB3246CD
:107DC00082468B463B463046394615F0E9FC002298
:107DD000804689461F4B3046394615F02BFB02463C
:107DE0000B464046494615F005FE02460B465046F6
:107DF000594615F01DFB22462B4615F0D1FCA9E78C
:107E0000184B984299D83846314616F089FA002224
:107E10000E4B15F0C5FCFEF7FFFB06460F4602466B
:107E20000B462046294615F0BBFC32463B4615F072
:107E3000B7FC8FE7AFF300803374AC3C1F7BAC7FA3
:107E4000FFFFEF7FFFFF35400000E0BF0000E03F95
:107E5000FFFF2F3E0000F03F412E8640CD3386408D
:107E6000FFFFEF3F7DF8B98F2DE9F04F21F000467D
:107E7000B6F1795F85B00C4692469B4605466BDAB3
:107E800015F03EFF002800F0E2802A4623462846EF
:107E9000214615F085FC74A3D3E90023804689466A
:107EA00015F07EFC72A3D3E9002315F0C3FA424615
:107EB0004B4615F075FC70A3D3E9002315F0B8FA12
:107EC00042464B4615F06CFC6DA3D3E9002315F038
:107ED000B1FA42464B4615F063FC6BA3D3E900238D
:107EE00015F0A6FA42464B4615F05AFC68A3D3E9B2
:107EF000002315F09FFA42464B4615F051FCCDE9A0
:107F000000010022644B4046494615F049FCDDE97A
:107F1000002306460F464046494615F041FC5246AE
:107F2000804689465B462846214615F039FC0246C4
:107F30000B464046494615F07BFA02460B46304652
:107F4000394615F075FA02460B460020534915F0E4
:107F50006FFA05B0BDE8F08F02460B4615F020FC25
:107F600041A3D3E900238046894615F019FC40A3BC
:107F7000D3E9002315F05EFA42464B4615F010FC9B
:107F80003DA3D3E9002315F053FA42464B4615F0C2
:107F900007FC3BA3D3E9002315F04CFA42464B46BD
:107FA00015F0FEFB38A3D3E9002315F041FA424651
:107FB0004B4615F0F5FB36A3D3E9002315F03AFA4A
:107FC0004B46424615F0ECFB354B9E42CDE9000195
:107FD00097DD344B9E424FF000023DDCA6F50013C6
:107FE00000202E4916461F4615F022FACDE902015F
:107FF0000022294B4046494615F0D2FB32463B460B
:1080000015F016FADDE9002306460F4640464946BC
:1080100015F0C6FB5246804689465B4628462146F7
:1080200015F0BEFB02460B464046494615F000FAE5
:1080300002460B463046394615F0FAF902460B4621
:10804000DDE9020115F0F4F905B0BDE8F08F134940
:10805000002005B0BDE8F08F134B144FCDE902238B
:108060000026C5E7AFF30080D43888BEE9FAA8BD82
:10807000C4B1B4BD9EEE213EAD529C804F7E923E77
:108080009015CB19A001FA3E7751C1166CC1563F2D
:108090004C5555555555A53F0000E03F0000F03FB9
:1080A0003233D33F0000E93F0000E73F0000D23FFA
:1080B0002DE9F04FADF5197DBE4CA29EBE4D54F892
:1080C00026700793D41E85FB0465E417C4EBA50452
:1080D00024EAE4741D46631CA3EB8303013D02EB19
:1080E000C30305937B1909940497019506460B91E8
:1080F000A4EB05041BD423445D1C20AF4FF0000803
:108100004FF00009DDF88CA208E05AF8240015F0C1
:10811000DDFA0134AC42E7E8020108D0002CF4DAC1
:10812000013440464946AC42E7E80201F6D1049BDF
:10813000002BC0F2B083079BA6F10802DB001146BA
:10814000039220AA02EB0309029301EB0308049BAC
:1081500072AA02EBC30B0DF5E07A019B002BC0F273
:108160009581039C4D460026002775E90223F4E91A
:10817000020115F015FB02460B463046394615F054
:1081800059F9444506460F46EFD1EAE80267DA4559
:1081900009F10809E1D1DDE90204049920448B00CA
:1081A00082460BA8A3F10802C31808930CAB134432
:1081B0000A938B4698AB03EBCB03BBF1000F53E95B
:1081C000284529DD70AB03EBCB080DF13009002207
:1081D0007A4B2046294615F0E3FA15F091FD15F08B
:1081E00075FA0022764B06460F4615F0D9FA02467C
:1081F0000B462046294615F01BF915F081FD78E95C
:10820000022349F8040B3946304615F013F970ABD8
:10821000984504460D46DAD1DDF8149020462946EB
:108220004A4601F039F800224FF07F5304460D46CC
:1082300015F0B6FAFCF724FF0022624B15F0B0FAF5
:1082400002460B462046294615F0F2F80D46044634
:1082500015F056FD804615F039FA0B4602462946C0
:10826000204615F0E5F84B46002B06460F4640F336
:10827000E1800BF1FF320CA9C9F1180351F822502B
:1082800045FA03F101FA03F30CA8EB1A40F8223087
:10829000C9F11705884443FA05F5002D2CDDBBF123
:1082A000000F08F1010840F394820C9C002C40F070
:1082B000A780BBF1010F0AD00CA9012251F8044F8D
:1082C000531C002C40F09E809B451A46F6D1059B1E
:1082D000002B0EDD012B00F09C81022B09D10BF14C
:1082E000FF320CAB0CA953F82230C3F3150341F84D
:1082F0002230022D00F0AF800022002330463946A4
:1083000015F0B6FC002800F06682049B0BF1FF39E3
:108310004B4510DC0BF180430CAA013B089802EBA3
:108320008303002253F80419834242EA0102F9D17F
:10833000002A40F0B580049B0CAA013B52F8233080
:10834000002B40F0A1800A9A012352F8041901334E
:108350000029FAD05B440BF101099945069349DCE9
:10836000099A079909EB020801EB0B0508F180480F
:1083700002EB030BA39B08F1FF3803EB880870ABFB
:1083800003EBC909A39B20A903EB8B0301EBC505F4
:10839000029358F8040F15F099F9019B002BC5E9D9
:1083A000000105F1080B28DB083D039C002600278F
:1083B0000CE000BFFC340200ABAAAA2A0000703E09
:1083C000000070410000204075E80201F4E902233A
:1083D00015F0E6F902460B463046394615F02AF804
:1083E000544506460F46EFD1029B9845E9E80267DF
:1083F0005D46CED1DDF818B0DCE600260027F3E7B5
:10840000012300220CA9C4F180749B4541F822404D
:108410000EDD51F8232001EB8B0001EB83036FF09D
:108420007F4100E01A688A1A43F8042B8342F9D18D
:1084300001244CE706D10BF1FF330CAA52F823506C
:10844000ED152AE70022BE4B15F030FC002840F065
:10845000B981054650E732463B460020B94914F041
:10846000E7FF06460F46002C3FF446AF059AB54994
:10847000002000F011FF02460B463046394614F04A
:10848000D7FF06460F4637E7012363E7002600279C
:10849000EAE80267DA4509F108097FF45EAE7AE698
:1084A0000CAB059A53F82930183ACDE906850592A8
:1084B0006BB909F18043013B0CA901EB830353F82D
:1084C000041909F1FF39183A0029F8D00592059AE4
:1084D0009C49002000F0E0FEB9F1000F04460D4673
:1084E000C0F2E0814FEAC90370AA02EB03080893C7
:1084F0000CAB03EB8906DFF850B208F1080704362D
:108500004FF0000A56F8040D15F0E0F822462B460D
:1085100015F046F95B4667E90201524620462946B6
:1085200015F03EF90CAB9E4204460D46EAD148AB2D
:1085300003930193CDF8149009F10103DDF8109035
:108540000293C3464FF0000AB9F1000FC0F2378121
:10855000DFF8F8815D4678A3D3E9002300260027E1
:10856000002403E0544510DCF8E80223F5E802019A
:1085700015F016F902460B463046394614F05AFFFC
:108580000134A14506460F46ECDA019BE3E8026799
:108590000193029B0AF1010A9A45ABF1080BD3D172
:1085A000A29BDDF81490032B2CD8DFE813F0E80031
:1085B000D300D3003F00079B00200146002B40F072
:1085C00043810D460B460B990446C1E900450399CA
:1085D0000246D1E9000114F02BFFB9F1000F0CDDC8
:1085E000039D0124F5E90223013414F023FFA14582
:1085F000F8DA079B002B40F037810B460B990246B7
:10860000C1E90223069B03F007000DF5197DBDE8C3
:10861000F08F0BF1FF320CAB0CA953F82230C3F3EF
:10862000160341F8223064E648AB0393B9F1000F1A
:1086300040F35581039ACDF808904FEAC90302EB45
:108640000308D8E900AB0193914658E90267524606
:108650005B463046394614F0EDFE04460D460246B0
:108660000B463046394614F0E3FE52465B4614F0A2
:10867000E1FEC8E9000168E90245C145A246AB46F2
:10868000E3D1DDF80890B9F1010F40F32881019B97
:10869000039A1344D3E9006701939A460DF5947B3E
:1086A0005AE9028932463B464046494614F0C2FE2A
:1086B00004460D4602460B464046494614F0B8FEB5
:1086C00032463B4614F0B6FECAE900016AE90245AB
:1086D000D34526462F46E3D10399019C002301F19F
:1086E0001005083419461E46304674E9022314F07A
:1086F000A1FEA5420346F6D10A460399D1E9008CB2
:10870000D1E902E90799002900F0B1800B9C2361AF
:10871000069BC4F800800CF1004009F1004102F111
:108720000042606003F00700E1606261C4F808E0A5
:108730000DF5197DBDE8F08F00000040FB21F93FE9
:108740000000E03F0000F03F0000703E40190200D2
:1087500048AB0393B9F1000FFFF62DAF039F002044
:1087600007EBC9060836014676E9022314F062FEDB
:10877000B742F9D1079B002B3FF423AF64E0089C7C
:10878000039D083400222C4411461646304674E9F5
:10879000022314F04FFEA5420246F6D10B4607997C
:1087A00009B103F1004319460B9B1046C3E90001D0
:1087B000069B03F007000DF5197DBDE8F08F00263C
:1087C0000027E2E6BBF1000F08F101087DDD02257C
:1087D0006BE500247BE5CDE90685059D30463946ED
:1087E0006A4200F059FD00223E4B06460F4615F046
:1087F0005DFA00B300223C4B3046394614F0D0FFFE
:1088000015F07EFA044614F061FF0022354B14F097
:10881000C7FF0B4602463946304614F009FE15F0F4
:108820006FFA0BF101090CAB183543F82B000595D5
:1088300043F829404BE63046394615F061FA0CAB57
:10884000D94643F82B0042E60B9C0B4601F1004150
:10885000C4E9000103990246D1E9000114F0E8FDE2
:10886000B9F1000F3FF7BCAE01F10041C5E6184673
:108870000B9B4646744667464D461146C3E90401C4
:10888000C3E90067C3E90245069B03F007000DF545
:10889000197DBDE8F08FA6F108030393079BDB0069
:1088A000029378E4A29B032B3FF6ACAE01A252F8F0
:1088B00023F000BFC58800005187000051870000E9
:1088C000298600000022134669E732463B46002015
:1088D000064914F0ADFD022506460F460CE50023BF
:1088E0001A460AE7000070410000703E0000F03FA9
:1088F0002DE9F04F21F00046B6F1795F85B00C46C6
:1089000090469946054604DA15F0FAF9002800F079
:1089100085802A4623462846214614F041FF064614
:108920000F4602460B462846214614F039FF3EA367
:10893000D3E9002382468B463046394614F030FF97
:108940003BA3D3E9002314F073FD32463B4614F0F9
:1089500027FF39A3D3E9002314F06CFD32463B46D0
:1089600014F01EFF36A3D3E9002314F061FD324654
:108970003B4614F015FF34A3D3E9002314F05AFD4D
:108980000E9BCDE900019BB30022334B4046494684
:1089900014F006FFDDE90023CDE9020150465946F7
:1089A00014F0FEFE02460B46DDE9020114F040FD24
:1089B00032463B4614F0F4FE42464B4614F038FD76
:1089C00023A3D3E9002306460F465046594614F028
:1089D000E7FE02460B463046394614F02BFD0246B0
:1089E0000B462846214614F023FD05B0BDE8F08F64
:1089F00002460B463046394614F0D2FE14A3D3E9A2
:108A0000002314F015FD52465B4614F0C9FE2A46B9
:108A1000234614F00FFD05B0BDE8F08F284621462F
:108A200005B0BDE8F08F00BF7CD5CF5A3AD9E53DFF
:108A3000EB9C2B8AE6E55A3E7DFEB157E31DC73E0F
:108A4000D561C119A0012A3FA6F810111111813F6B
:108A5000495555555555C53F0000E03F0000000001
:108A60002DE9F04FDA4C21F00046A64287B08A4645
:108A700089461746984683461BDC15F041F90028C5
:108A800039D1109B5A4601331343334300F0A88178
:108A9000109B012B00F0B1815A4653460020CD496E
:108AA00014F0A8FF04460D462046294607B0BDE84D
:108AB000F08FC94B9E421EDD002904DA01F100430C
:108AC00008F100489A465A465346A3A1D1E900014D
:108AD00014F0AEFC3A46434604460D46A0A1D1E947
:108AE000000114F0A5FC22462B4614F0A3FC00273D
:108AF00083468A46B8465A4653465846514614F06D
:108B00004FFE03460C46CDE9003402460B4614F0F6
:108B100047FEDDE9002304460D465846514614F051
:108B20003FFE91A3D3E90023CDE902012046294667
:108B300014F036FE8EA3D3E9002314F07BFC22460A
:108B40002B4614F02DFE8CA3D3E9002314F072FC05
:108B500022462B4614F024FE89A3D3E9002314F007
:108B600069FC22462B4614F01BFE87A3D3E90023A1
:108B700014F060FC22462B4614F012FE84A3D3E9C5
:108B8000002314F057FCDDE9002314F009FE82A352
:108B9000D3E90023CDE904012046294614F000FE64
:108BA0007FA3D3E9002314F045FC22462B4614F0A2
:108BB000F7FD7DA3D3E9002314F03CFC22462B46AD
:108BC00014F0EEFD7AA3D3E9002314F033FC22461F
:108BD0002B4614F0E5FD78A3D3E9002314F02AFC1A
:108BE00022462B4614F0DCFD75A3D3E9002314F0D4
:108BF00021FC02460B46DDE9040114F01BFCDDE913
:108C0000022314F0CDFD3A46434614F013FCDDE98F
:108C1000002314F0C5FD3A46434614F00BFC6AA34A
:108C2000D3E9002304460D46DDE9020114F0B8FD46
:108C300022462B4614F0FEFBCDE900010B4602460E
:108C40005146584614F0F6FB634B9E4204460D46CF
:108C50003EDC109B012B36D002460B4600205D49BE
:108C600014F0C8FE00240F4606465A4653462046D6
:108C7000294614F0DDFBA04602460B46DDE9000163
:108C800014F0D6FB42463B4614F08AFDA946044642
:108C90000D4642463B464046494614F081FD0022BF
:108CA0004E4B14F0C7FB02460B462046294614F0F3
:108CB000C1FB32463B4614F073FD42463B4614F07E
:108CC000B9FB04460D462046294607B0BDE8F08FA3
:108CD000109814F0FBFC224606460F462B46204611
:108CE000294614F05DFD3246CDE902013B4620469F
:108CF000294614F09FFB02460B46DDE9020114F001
:108D000079FEDDE9002314F093FB02460B4658463A
:108D1000514614F08DFB02460B4614F08BFB0246C5
:108D20000B463046394614F083FB04464FEAA970DF
:108D300000F00200C0F101000D4614F0C7FC02462D
:108D40000B462046294614F02BFD04460D462046CE
:108D5000294607B0BDE8F08F182D4454FB21E93FA8
:108D6000075C143326A6813CD47ABF74702AFB3E7C
:108D7000E9A7F0320FB8123F68108D1AF726303F7E
:108D80001583E0FEC8DB573F93846EE9E326823FFC
:108D9000FE41B31BBAA1AB3F735360DBCB75F3BE8F
:108DA000A69237A0887E143F0165F2F2D844433F73
:108DB000280356C9226D6D3F37D60684F464963F6A
:108DC0007AFE10111111C13F635555555555D53FC8
:108DD000FFFF2F3E0000F0BF2794E53F0000F03F6B
:108DE0005846514615F09CFA02460B4600200449AD
:108DF00014F000FE04460D4665E75C46554662E702
:108E00000000F03F000000002DE9F04FCA4A21F0B9
:108E10000043934285B00C460E46054620D9C74A0A
:108E2000934200F2D480002E80F2A081AAA3D3E95D
:108E300000232846214614F0FDFA0022002314F0F6
:108E400021FF002840F0CE80A5A3D3E900232846C7
:108E5000214614F0A5FC02460B460020B84990E1DB
:108E6000B84A934200F2E280B74A934240F22B8123
:108E7000002301930022B54B2846214614F090FCB4
:108E800006460F4602460B462846214614F088FC4B
:108E900095A3D3E9002382468B4614F081FC94A36A
:108EA000D3E9002314F0C6FA52465B4614F078FC6E
:108EB00091A3D3E9002314F0BBFA52465B4614F0A9
:108EC0006FFC8FA3D3E9002314F0B4FA52465B463B
:108ED00014F066FC8CA3D3E9002314F0A9FA5246DF
:108EE0005B4614F05DFC0022994B14F0A3FA804617
:108EF000894602460B463046394614F051FC02467C
:108F00000B460020934914F093FA064602460B469E
:108F10000F464046494614F08BFA32468046894651
:108F20003B462846214614F03BFC02460B460020F7
:108F3000894914F07DFA02460B464046494614F032
:108F400059FD52465B4614F02BFC019E02460B462F
:108F5000002E4AD0DDE9026732463B4614F068FA3B
:108F60002A46234614F01CFC32463B4614F060FAB5
:108F70005B46524614F05CFA019B013306460F46ED
:108F800000F01F81019B012B78D0019A531C392BD3
:108F90004FEA025600F22481019F132F40F35181C2
:108FA000019BC3F57F7A0AF1030A00224FEA0A53B4
:108FB00014F040FA02460B462846214614F038FACF
:108FC0000022634B14F036FA731819461BE0634A0B
:108FD00093421BD9C1F313030343024640F01181AE
:108FE000002910DA00205E490DE02846214614F0E1
:108FF000D7FB52465B4614F01BFA02460B46284646
:10900000214614F015FA05B0BDE8F08F40A3D3E96E
:10901000002314F055FE00283FF405AF3EA3D3E92A
:1090200000231046194614F0BBFBECE74D4A93426F
:1090300000F2EB8000293AA3D3E9002339DA14F0D7
:10904000F9F939A7D7E900674FF0FF338046894621
:10905000019332463B464046494614F0E9F9024640
:109060000B4605460C464046494614F0E1F93246A7
:109070003B4614F0DDF9CDE90201FBE62846214626
:109080000022394B14F0FEFD002800F0CB8028466A
:10909000214600222D4B14F0CDF902460B463046F6
:1090A000394614F0C5F900224FF0404314F078FB24
:1090B000A9E714F0BDF901238046894601931CA756
:1090C000D7E90067C5E714A3D3E9002314F0B2F988
:1090D00002460B468FE700BF59F3F8C21F6EA50189
:1090E000FE822B654715F73F2DC3096EB7FD8ABE7B
:1090F0003952E686CACFD03EB7DBAA9E19CE143FBE
:109100008555FE19A0015A3FF41011111111A13F0C
:10911000EF39FAFE422E86409C7500883CE4377E8B
:109120000000E0FE422EE63F763C7935EF39EABD9D
:10913000763C7935EF39EA3D79684340412E8640E7
:109140000000E0BF422ED63FFFFF8F3C0000E03F13
:109150000000F03F0000084000001840FFFFEF7FD4
:109160000000F0BFB1A2F03F0000D0BF40A3D3E9A0
:1091700000232846214614F013FB02460B4600202C
:10918000414914F057F914F0BBFD019014F09EFA18
:1091900039A3D3E9002306460F4614F001FB02462B
:1091A0000B462846214614F043F935A3D3E90023A2
:1091B000804689463046394614F0F2FA06460F4694
:1091C00047E732463B462846214614F031F9002253
:1091D0002D4B14F0E5FA00222B4B14F029F912E77D
:1091E0002A46234614F024F902460B46002027495C
:1091F00014F01EF9731819460022244B14F018F9C4
:1092000001E70B4614F016F9FDE619A3D3E9002394
:1092100014F0C6FA002C02460B464FF00000AFDAFD
:109220001B49AEE732463B462846214614F000F97A
:1092300002460B4614F0FEF80022144B14F0FAF824
:10924000E1E64FF4001C2A4623464CFA07FA14F0D4
:10925000EFF8CAF17F594FF0000809F540190246AE
:109260000B464046494614F0E3F8ADE6AFF3008004
:10927000FE822B654715F73F0000E0FE422EE63FD9
:10928000763C7935EF39EA3D0000E03F0000F03FE1
:109290000000E0BF00000000F8B5C1F30A53044627
:1092A0000D460E4617460BBB21F0004603463343DE
:1092B0001BD0354B002214F073FA344B9F42044606
:1092C0000D4635DBC1F30A530E46363B3B4440F2B4
:1092D000FE72934232DC002B11DD26F0FF4626F4AD
:1092E000E00646EA035520462946F8BD40F2FF72E3
:1092F0009342EBD102460B4614F09CF8F8BD13F1F3
:10930000350F28DA4CF250339F4222462B460ADDB5
:1093100019A1D1E9000117F023FA17A3D3E900231B
:1093200014F03EFAF8BD16A1D1E9000117F018FAC1
:1093300013A3D3E9002314F033FAF8BD22462B46D9
:109340000DA1D1E9000117F00BFA0BA3D3E900231B
:1093500014F026FAF8BD26F0FF4626F4E006363370
:1093600046EA0355204629460022094B14F018FA14
:10937000F8BD00BFAFF300809C7500883CE4377EE9
:1093800059F3F8C21F6EA50100005043B03CFFFF27
:109390000000903C10B5054C237833B9044B13B151
:1093A0000448AFF300800123237010BD3002002079
:1093B000000000008436020008B5034B1BB10349CE
:1093C0000348AFF3008008BD000000003402002015
:1093D0008436020070B504460E4600F03DFA88B1AE
:1093E0000368DB6A05469847082C0CD0A4F10903F2
:1093F000012B14D93246214610230D20BDE87040C0
:1094000004F04EB870BD2B6828465B6A9847022866
:10941000F0DC2B6828461B6A04219847EAE72B6892
:1094200028465B6A98470528E4DC2B6828461B6AB7
:1094300008219847DEE700BF38B52DED028B0546C1
:1094400000F00AFA044640B10368DB6A9847032D2E
:1094500003D8DFE805F02F363D06BDEC028B002077
:1094600038BD20460CF042FD07EE900A2046F8EE8B
:10947000E78A0CF04BFD07EE900A2046B8EEE78A2B
:109480000CF054FD68EE087A07EE100AE8EEA87AB0
:10949000B8EEC77AE7EE077AF5EE407AF1EE10FA09
:1094A000B1EEE78A1BD4FDEEC87ABDEC028B17EE55
:1094B000900A38BDBDEC028B2046BDE838400CF068
:1094C00015BDBDEC028B2046BDE838400CF01EBD3A
:1094D000BDEC028B2046BDE838400CF027BD17EEEE
:1094E000900A15F049FEDEE738B5044600F0B4F9FD
:1094F00058B10368DB6A0546984744B1012C04D192
:109500002846BDE83840FBF70FBA002038BD284692
:10951000BDE83840FBF7E8B910B5044600F09CF907
:1095200028B1036821461B6ABDE81040184710BDEA
:109530000048704716FCFFFF704700BF10B5034B93
:10954000036004460CF0AEFA204610BDEC28020081
:1095500010B5054B036004460CF0A4FA204617F042
:109560009CFD204610BD00BFEC2802002DE9F04113
:10957000032184B00546512001F0D0FCDFF8D4C2AD
:10958000A94B044604F00F06C4F3031714F48074C7
:1095900008BF6346A54831463A460BF05BFC221CE7
:1095A00018BF012231463B4628460FF00FFA002330
:1095B000AB609F480BF04EFC4FF0FF31032001F0F1
:1095C000ADFC04F00FFD4FF0FF310446022001F026
:1095D000A5FC04F007FD002C3AD0002838D0014645
:1095E000204604F059FB064600284AD04FF0FF31D0
:1095F000462001F093FC322804464BD048DD382841
:1096000000F0AC8068285BD14FF0FF31012001F001
:1096100085FC04F0E7FC80464C2017F047FD05234D
:1096200001934246009431462B4607460EF034F92A
:10963000AF603B6838469B6A9847A8680368DB6A56
:1096400098477C480BF006FC284604B0BDE8F08142
:1096500079480BF0FFFB4FF0FF31192001F05EFC61
:1096600004F0C0FC4FF0FF310446182001F056FC16
:1096700004F0B8FC0146204604F00EFB0646002824
:10968000B4D16E480BF0E6FB284604B0BDE8F0818B
:10969000302815D14FF0FF31012001F03FFC04F0DC
:1096A000A1FC80464C2017F001FDA4B2074605231B
:1096B00001934246009431462B460DF0A3FEB7E7D6
:1096C00001243268CDE900440023176AAB600F2201
:1096D0000DF10F0332213046B847002800F0818099
:1096E0003368CDE900440F221F6A30210DF10F03CA
:1096F0003046B847002848D03368CDE900440D22F1
:109700001F6A38210DF10F033046B84700286ED08C
:109710003268CDE900440DF10F03176A6821752204
:109720003046B847002842D1682145480BF092FBEB
:109730004FF0FF31204601F0F1FB04F053FC80466E
:109740004C2017F0B3FC05246823CDE900344246D1
:1097500031462B4607460EF09FF869E74FF0FF3180
:10976000012001F0DBFB04F03DFC8046442017F0B3
:109770009DFC05230746019342462B460094314643
:109780000DF0E2FF2F4B3B6052E730212C480BF0ED
:1097900061FB30244FF0FF31012001F0BFFB04F0EA
:1097A00021FC80464C2017F081FC07467FE72648C5
:1097B0000BF050FBAF68002F7FF43BAF4FF0FF3151
:1097C000032001F0ABFB04F00DFC30B11F480BF09F
:1097D00041FB284604B0BDE8F0811D480BF03AFB80
:1097E00052E7322116480BF035FB3224D2E73821FC
:1097F00013480BF02FFB4FF0FF31204601F08EFB9A
:1098000004F0F0FB8046442017F050FC0524382378
:109810000746CDE9003442462B4631460DF094FF11
:10982000084B3B6004E700BFC4190200D4190200D2
:10983000F4190200B41A0200041A0200181A0200F5
:10984000441A020090190200301A0200581A02004D
:10985000941A0200CC19020038B5104C23680BB1E1
:10986000986838BD4FF0FF31012001F057FB04F03C
:10987000B9FB40B10C2017F019FC0546FFF776FE46
:109880002560A86838BD4FF0FF31032001F046FB8A
:1098900004F0A8FB0028EDD138BD00BF4C02002029
:1098A00008B501F06DFCFBF79BFEBDE8084001F038
:1098B000C5B900BF08B501F063FCFBF701FFBDE8C7
:1098C000084001F0BBB900BF08B501F059FC14F025
:1098D0009DFDBDE8084001F0B1B900BF08B501F039
:1098E0004FFC15F011FBBDE8084001F0A7B900BF1F
:1098F00008B501F045FCFBF783FEBDE8084001F028
:109900009DB900BF08B501F03BFC14F0ADFFBDE808
:10991000084001F093B900BF08B501F031FCFBF736
:10992000EFF8BDE8084001F089B900BF08B501F0C3
:1099300027FC14F0EFFEBDE8084001F07FB900BF3E
:1099400070B5049E96420C4624DB15466BB9042A7A
:1099500019D0022A02D110F0010310D001462A4684
:10996000204608F05DF8002070BD10440D4410F84A
:10997000013D01F8013B8D42F9D1002070BD028804
:109980000A80184670BD10F00303E7D102680A6030
:10999000184670BD0846002109F0D4F94FF0FF3099
:1099A00070BD00BF0830704740B1002905DB436837
:1099B0008B4202DD0844007A70470020704700BFE8
:1099C00030B1002904DB43688B42C4BF40180272E7
:1099D000704700BF40B1002905DB4368994202DAB5
:1099E0000844007A70470020704700BF830704D105
:1099F000030F0CBF0120002070470120704700BFFB
:109A000030B1002904DB43689942BCBF40180272A0
:109A1000704700BFF8B5002B20DB00291EDB46682D
:109A20008E421BDB5468761AE51AB542A8BF35464C
:109A3000002D13DB824202F108070C4600F10806F4
:109A40002A4605D0F918301907F0EAFF0020F8BDC2
:109A5000F118381917F05DFB0020F8BD4FF0FF300A
:109A6000F8BD00BF4068704710B4141E10DB426898
:109A7000A2420DDB33EA230328BF1346121B083032
:109A80009A422044A8BF1A465DF8044B09F05AB91F
:109A90005DF8044B704700BF10B443688B4200F17F
:109AA00008041846A8BF084632EA220128BF194612
:109AB0001B1A99422044A8BF19465DF8044B00F0D8
:109AC000B5BE00BF70B5002BBCBF43689B1A002A0F
:109AD0000E4620DB44689918A1421CDC91421ADB37
