:020000040002F8
:10600000000004209DB60300C5B60300C7B6030018
:10601000C9B60300CBB60300CDB6030000000000F4
:10602000000000000000000000000000CFB60300E8
:10603000D1B6030000000000D3B60300D5B60300BC
:10604000D7B60300D7B603003DB5030001B5030082
:1060500015B50300D7B6030045A90300D7B6030062
:1060600091B1030099B10300A1B10300D7B60300B9
:10607000D7B60300D7B60300D7B60300D7B60300E0
:10608000D7B60300D7B60300D7B60300D7B60300D0
:10609000D7B60300D7B60300D7B60300D7B60300C0
:1060A000D7B60300D7B60300A9B10300B1B103000E
:1060B000D7B60300D7B603000000000000000000C0
:1060C000D7B60300D7B60300D7B6030029B503003F
:1060D000D7B60300D7B60300D7B60300D7B6030080
:1060E00065B50300D7B60300D7B603000000000073
:1060F00000000000D7B603000000000051B5030007
:10610000000000000000000000000000000000008F
:10611000000000000000000000000000000000007F
:10612000000000000000000000000000000000006F
:10613000000000000000000000000000000000005F
:10614000000000000000000000000000000000004F
:10615000000000000000000000000000000000003F
:10616000000000000000000000000000000000002F
:10617000000000000000000000000000000000001F
:10618000000000000000000000000000000000000F
:1061900000000000000000000000000000000000FF
:1061A00000000000000000000000000000000000EF
:1061B00000000000000000000000000000000000DF
:1061C00000000000000000000000000000000000CF
:1061D00000000000000000000000000000000000BF
:1061E00000000000000000000000000000000000AF
:1061F000000000000000000000000000000000009F
:106200007CB0EE877CB0EE87FF00FF00FF00FF0050
:10621000FF00FF00FF00FF00FF00FF00FF00FF0086
:10622000FF00FF00FF00FF00FF00FF00FF00FF0076
:10623000FF00FF00FF00FF002DE9F04F85B0039144
:106240000778A7F10903042B044607F07F0200F149
:106250000100F5D9202AF3D02B2F04BF677804461C
:106260002D2F75D09FED427B8DED007B4FF0000808
:106270004FF000099FB34FF0000C25464FF0000A85
:10628000DFF8FCB0644619E018F058F880468946FB
:10629000304617F0E9FF42464B4617F099FE52464A
:1062A000804689465B46DDE900013CB318F070F991
:1062B000CDE90001A44615F8017F7FB1A7F13006B2
:1062C000092E52465B4640464946DDD9CCB92E2FB1
:1062D00017D115F8017F0124002FEFD12C4642463B
:1062E0004B46DDE9000118F029F880468946039BFA
:1062F000404649461C6005B0BDE8F08F4FF0010CE8
:10630000D9E72C46BCF1000F29D042464B46DDE9C7
:10631000000118F013F807F0DF07452F8046894683
:10632000E5D10399681C0A2217F036FE144902468B
:10633000002018F0B3FB02460B464046494617F0D2
:10634000FDFF804689464046494605B0BDE8F08FCE
:106350009FED097B67788DED007B013486E7DFF8E0
:1063600024904FF000084046494605B0BDE8F08F44
:10637000000000000000F03F000000000000F0BF3F
:10638000000024400000F87F2DE9F0470023144668
:1063900000228046894618F043FA28B109F10043EB
:1063A00099462D232370013400220023404649469C
:1063B00018F02CFA28B13022002322706370BDE857
:1063C000F0874046494616F0A5F918F067FA73A31E
:1063D000D3E9002307464946404618F021FA002831
:1063E0004ED170A3D3E900234046494618F036FA4F
:1063F000002845D10E2F07F1010540F3B980A7F120
:106400000E0632460020624918F048FB02460B4651
:106410004046494618F0BCF800225E4B17F0D8FD04
:1064200018F078FB002DA7F10F0E4FF0010C4DDD99
:10643000594FDFF87881012245F6F3294FF02E0AF3
:10644000494508BF40454FF030030AD3B0EB080080
:1064500061EB0901494508BF404503F10103F5D24D
:10646000DBB2237050EA010304F101084AD19542DE
:1064700052DD0132102A4FD0444677E90289DFE726
:10648000002F33DB3A460020414918F007FB024653
:106490000B464046494618F07BF83BA3D3E900235E
:1064A00080468946012500264046494617F046FFAA
:1064B0000022384B17F08CFD18F02CFB002DBC4649
:1064C0004FF0FF3E37464FF00006B1DC2346302246
:1064D0004FF02E0803F8022B84F80180FC4345D0CE
:1064E0001C4403F8012BA342FBD1A1E77A42002010
:1064F000274918F0D3FA02460B464046494617F0A2
:106500001DFFCAE7954202F1010204BF84F801A011
:1065100004F10208102AAFD16EB14246302102F8D0
:10652000011BC2F1010373444344002BF7DC2EEA44
:10653000EE7301339844BCF1010F12D0BCF1000F8F
:106540004FF0650388F80030C5BF2B2388F8013071
:1065500008F1010108F102016046BDE8F0470FF0C3
:10656000F9BD002388F80030BDE8F0871C465FE7DE
:10657000C7F10E020020064918F090FA3E46024686
:106580000B46012790E700BF0000901EC4BCD64216
:10659000000024400000E03F40F603008DEDB5A070
:1065A000F7C6B03E50EFE2D6E41A4B4400407A10F2
:1065B00070B54FF0FF3006F017FA04466FF07F40D9
:1065C00006F012FA0646204617F03EFE00220C4B5B
:1065D00017F0B4FE044630460D4617F035FE06A30C
:1065E000D3E9002317F0D4FF02460B462046294684
:1065F00017F0EEFC70BD00BF0000E0DFFFFF6F434F
:106600000000F03D000000002DE9F04F1D46138909
:10661000AB4288BF536885B004468CBF53F8250051
:10662000002090468A4606F053FE0022904B17F059
:1066300085FE18F033F9B8F808206B1C9A4288BF21
:10664000D8F8042006468CBF52F82300002006F03C
:106650003FFE0022864B17F071FE18F01FF9B8F8C4
:1066600008300235AB4288BFD8F8043007468CBFEB
:1066700053F82500002006F02BFE002EC4E9006729
:1066800040F3E280002F40F3DF8071A3D3E90023C1
:10669000002584F8285015F05FFF00220023804673
:1066A000894618F0BDF840B14046494668A3D3E991
:1066B000002317F08DFC8046894667A3D3E90023A9
:1066C0004046494618F0CAF8C0B165A3D3E9002393
:1066D0004046494618F0AEF880B10123404649468D
:1066E00084F8283060A3D3E9002317F071FC58A385
:1066F000D3E9002315F030FF8046894600225D4B28
:106700004046494617F01AFE15F05AFC01F10043C5
:1067100000221946564B17F011FE18F0BFF84946F3
:106720000546404615F008FC0022514B17F006FEC6
:1067300018F0B4F8DAF804304F49B3F80CB0B3F8F5
:106740000AA0A56007FB0BF303EB010806FB0AF6A2
:10675000019388FB05234FEA124C00960E444CEA45
:10676000034C06EA010383FB009A06EB0C0E0EEACB
:10677000010ED346CA468EFB00675246CDE902673A
:10678000120C42EA0B42DDE902AB0CEA010C8CFB75
:1067900000674FEA164956460A40360C46EA0B4651
:1067A00049EA074982FB05AB5F46C144B0445646FF
:1067B000CDE90267039FE060360C09EA010908EAA7
:1067C000010846EA074689FB05AB334488FB0556BA
:1067D000CDE9025655462D0C45EA0B45DDE902ABE5
:1067E0000B40AC4403EAE3770CEA010C554623EA7C
:1067F000E37367454FEA154502EAE276A8BF6746AC
:1068000045EA0B45634522EAE272B8BF6346AE44EF
:106810004E450EEA010EA8BF4E464A45B8BF4A464D
:106820007745A8BF77467345B8BF73464645A8BFAE
:106830004646C4E905634245B8BF424600980199FF
:10684000206261622761E261204605B0BDE8F08FF9
:10685000EA2E4454FB211940F4D64354FB21F93F5E
:10686000320D337F7CD91240EA2E4454FB2109407B
:106870000000F0400000E03F0000FFFF00000000CB
:1068800008B510F02FFFDFED0C7A07EE100A67EE67
:10689000277A17EE900A17F0F9FC05A3D3E9002335
:1068A00017F076FE17F0FAFF08BD00BFAFF30080C7
:1068B000EA2E4454FB2119400000B44300000000BC
:1068C00008B510F023FFDFED0C7A07EE100A67EE33
:1068D000277A17EE900A17F0D9FC05A3D3E9002315
:1068E00017F056FE17F0DAFF08BD00BFAFF30080C7
:1068F000EA2E4454FB2119400000B443000000007C
:10690000494A21F0004393422DE9704304460D4665
:1069100049DC464A93420E460EDC3FA3D3E90023EE
:1069200017F056FB0022424B17F098FF00284AD080
:1069300020462946BDE870833E4A934239DCB3F1D4
:10694000804F40DD15F0F4FA2246804689462B46FA
:106950002046294617F0F2FC0022354B17F038FB91
:1069600016F0FCF942464B4617F032FB02460B4646
:1069700000202F4917F00CFE424604460D464B46B8
:106980004046494617F024FB02460B46204629465E
:1069900017F01EFB02F040F8002E08DC01F1004366
:1069A0001946BDE8708302460B4617F011FBBDE89F
:1069B000708315F0BDFA02F02FF819A3D3E9002374
:1069C00017F006FBE8E722462B462046294617F03B
:1069D000B5FC804689462046294615F0A9FA0022D2
:1069E00004460D46124B4046494617F0F1FA16F0A0
:1069F000B5F900220E4B17F0EBFA02460B46404663
:106A0000494617F0C5FD22462B4617F0E1FA00F083
:106A1000A7FAC1E7AFF300809C7500883CE4377E9D
:106A2000EF39FAFE422EE63FFFFFEF7FFFFF2F3EDA
:106A30000000F03F0000B0412DE9F84FBE4B21F0BF
:106A400000469E4204460D468A460EDDBB4B9E42E2
:106A500000F3B18000F0AC80BAF1000F40F3EA809F
:106A600099A1D1E90001BDE8F88FB54B9E4200F332
:106A7000BA80A3F1DE739E4240F3A5804FF0FF3B46
:106A800022462B462046294617F058FC02460B4664
:106A90008046894617F052FC8DA3D3E900230646B1
:106AA0000F4617F04BFC8CA3D3E9002317F090FAA4
:106AB00032463B4617F042FC89A3D3E9002317F086
:106AC00087FA32463B4617F039FC87A3D3E9002307
:106AD00017F07EFA32463B4617F030FC84A3D3E928
:106AE000002317F075FA32463B4617F027FC82A3C5
:106AF000D3E9002317F06CFA42464B4617F01EFC10
:106B00007FA3D3E90023804689463046394617F0F3
:106B100015FC7DA3D3E9002317F058FA32463B4613
:106B200017F00CFC7AA3D3E9002317F04FFA324692
:106B30003B4617F003FC78A3D3E9002317F046FA8D
:106B400032463B4617F0FAFB75A3D3E9002317F052
:106B50003DFA32463B4617F0F1FB02460B464046F3
:106B6000494617F035FA22462B4617F0E7FBBBF1F2
:106B7000FF3F02460B4661D0724B734E4FEACB0B80
:106B80005B44D3E9002317F021FA22462B4617F085
:106B90001DFAB34402460B46DBE9000117F016FA72
:106BA000BAF1000F0DDA01F100431946BDE8F88F84
:106BB00000283FF451AF22462B462046294617F0C5
:106BC00007FABDE8F88F58A3D3E9002317F000FABD
:106BD00000225E4B17F042FE00283FF44FAF2046E4
:106BE0002946BDE8F88F15F0A3F9594B9E4204469B
:106BF0000D4629DCA3F550239E424EDC02460B468F
:106C000017F0E6F90022514B17F0E0F90022064692
:106C10000F464FF080432046294617F0D9F9024627
:106C20000B463046394617F0B3FC4FF0000B0446D4
:106C30000D4625E73EA1D1E90001C2E720462946DD
:106C400017F0C4F9BDE8F88F424B9E421ADC0022CF
:106C5000414B17F0BBF9002206460F463E4B20463B
:106C6000294617F06BFB0022384B17F0B1F90246AA
:106C70000B463046394617F08BFC4FF0020B0446AA
:106C80000D46FDE602460B460020344917F080FC15
:106C90004FF0030B04460D46F2E600222B4B17F093
:106CA00095F9002206460F46284B2046294617F044
:106CB0008FF902460B463046394617F069FC4FF013
:106CC000010B04460D46DBE6182D4454FB21F93F29
:106CD00011DA22E33AAD903FEB0D76244B7BA93FCE
:106CE000513DD0A0660DB13F6E204CC5CD45B73F9C
:106CF000FF8300922449C23F0D5555555555D53F48
:106D00002F6C6A2C44B4A2BF9AFDDE522DDEAD3F3B
:106D10006D9A74AFF2B0B33F711623FEC671BC3FDB
:106D2000C4EB98999999C93F9C7500883CE4377EDB
:106D3000182D4454FB21F9BFFFFF0F440000F07FE2
:106D4000FFFFDB3F68F6030048F603000000F03F5A
:106D5000FFFFF23FFF7F03400000F83F0000F0BF5D
:106D60002DE9F041C1F30A57A7F2FF35132D024672
:106D70000B460C468846064620DC002D4ADB364F83
:106D80002F4101EA070C5CEA000C1CD030A3D3E9C8
:106D9000002317F01DF90022002317F05FFD48B112
:106DA000002C04DD4FF4801343FA05F5A84428EACB
:106DB0000704002621463046BDE8F081332D06DD6C
:106DC000B5F5806F38D010461946BDE8F081A7F2BE
:106DD00013474FF0FF3C2CFA07F70742F3D01CA3F0
:106DE000D3E9002317F0F4F80022002317F036FD52
:106DF0000028DFD0002C09DD142D22D00123C5F19D
:106E0000340503FA05F5AE1928BF984426EA0706AB
:106E10004446CFE70EA3D3E9002317F0D9F80022A8
:106E2000002317F01BFD0028C4D0002C0CDB2643E8
:106E300005D00026094CBDE717F0CAF8C5E734466F
:106E4000B8E704F10108E1E700264FF00044B1E79C
:106E50009C7500883CE4377EFFFF0F000000F03F88
:106E60002DE9F041C1F30A57A7F2FF35132D024671
:106E70000B460C46884606461DDC002D3CDB364F93
:106E80002F4101EA070C5CEA000C19D030A3D3E9CA
:106E9000002317F09DF80022002317F0DFFCC8B391
:106EA000002C04DA4FF4801343FA05F5A84428EACD
:106EB000070400262EE0332D06DDB5F5806F2DD0BA
:106EC00010461946BDE8F081A7F213474FF0FF3C8A
:106ED0002CFA07F70742F3D01DA3D3E9002317F0DC
:106EE00077F80022002317F0B9FC98B1002C21DBC1
:106EF00026EA070644460DE015A3D3E9002317F060
:106F000067F80022002317F0A9FC18B1002C08DB59
:106F10000026344621463046BDE8F08117F058F887
:106F2000D0E724F000430D4A1E43002E18BF14463C
:106F30000026EFE7142D08D00123C5F1340503FA2C
:106F400005F5AE1928BF9844D2E704F10108CFE750
:106F50009C7500883CE4377EFFFF0F000000F0BF07
:106F60002DE9F04FD84B994287B08046894643DDE2
:106F7000D64B99420E4600F3F480D54B994240F32C
:106F80002D819FEDBB7B8DED047B4FEA215A04469A
:106F9000AAF2FF3ACF4BC6F313069E4246F07F5546
:106FA00000F3128145F44015204629460022CA4BC1
:106FB00017F00CF8002204460D46C84B17F0BEF936
:106FC00022462B4617F0BAF9A046CDE90201A946A0
:106FD000CDE90001002E3AD10022002320462946A7
:106FE00017F014FC002800F01B81BAF1000F40F0EC
:106FF000858100200021B8E0B94B21F000449C427B
:107000000A460FDD0022B74B17F000FC002800F005
:10701000AF80002200230020B34917F0B9FA07B06F
:10702000BDE8F08FB14B9C4240F3AF80B04B1A44A7
:107030009A4240F2D3800022A84B17F07FF94246D3
:107040004B4617F07BF9CDE900014FF0000A002212
:107050004FF080434046494616F0BAFF02460B46C1
:107060004046494617F094FA02460B4606460F463C
:1070700017F064F980A3D3E9002304460D4617F006
:107080005DF97FA3D3E9002316F0A2FF22462B4629
:1070900017F054F97CA3D3E9002316F099FF224698
:1070A0002B4617F04BF97AA3D3E9002316F090FF93
:1070B00022462B4617F042F977A3D3E9002316F0B6
:1070C00087FF22462B4617F039F975A3D3E9002331
:1070D00016F07EFF22462B4617F030F972A3D3E953
:1070E000002316F075FF22462B4617F027F9DDE93D
:1070F000002316F06DFF32463B4617F01FF9044699
:107100000D46BAF1000F00F0A880504617F0ACF819
:1071100067A3D3E9002382468B4617F00FF966A3D5
:10712000D3E9002306460F465046594617F006F9A4
:10713000DDE9042316F04CFF22462B4616F048FFEB
:1071400002460B46DDE9000116F040FF42464B4681
:1071500016F03CFF02460B463046394616F036FF25
:1071600003E002460B4616F033FF07B0BDE8F08F90
:1071700042464B464046494616F028FF02460B461B
:1071800017F006FA07B0BDE8F08F0022594B16F051
:107190001FFF0022002317F061FB10B1564B9C42E9
:1071A00062DD42464B464046494617F0C7F800228A
:1071B0004A4B17F0C3F802460B464046494616F0C4
:1071C00005FF07B0BDE8F08F45F40015C6F5801641
:1071D00020462946B6100AF1010AE7E600223E4B96
:1071E0004046494616F0F4FE4FEA215AAAF2FF3A09
:1071F000BAF1000F04460D460E4640F3BD804246EC
:107200004B4616F0E3FE02460B460020324916F0CC
:10721000DDFE22462B4617F0BBF9CDE90401B9E6A5
:1072200027A3D3E900232046294617F087F8024612
:107230000B460020284916F0C9FEDDE9022317F0AD
:107240007DF806460F46BAF1000F75D102460B468F
:107250002046294616F0BAFE87E702460B46DDE9CE
:10726000000116F0B3FEA6E7404649467DE700BFA1
:10727000000000000000000044523EDF12F1C23F57
:107280009FC678D0099AC33FDE03CB966446C73FBA
:10729000AF788E1DC571CC3F599322942449D23FBB
:1072A00004FA97999999D93F935555555555E53F06
:1072B0000000E0FE422EE63F763C7935EF39EA3DAC
:1072C000555555555555E53F7982DA3FFFFFEF7F1C
:1072D000FFFF3F439DA006000000F03F0000E03F9D
:1072E000FFFFEF3F0000F0BF000050C3FFFF1F3E55
:1072F0003C412D4000005043FFFF8F3C504616F0AC
:10730000B3FF24A3D3E9002306460F4617F016F86F
:10731000DDE9042316F05CFE20A3D3E90023044634
:107320000D463046394617F009F802460B4620460E
:10733000294616F04DFE18E7504616F095FF17A3A4
:10734000D3E9002382468B4616F0F8FF11A3D3E958
:107350000023804689465046594616F0EFFFDDE986
:10736000042316F035FE02460B463046394616F029
:107370002DFE22462B4674E70022054B16F026FE12
:1073800002460B464046494616F020FE41E700BF44
:107390000000F03F763C7935EF39EA3D0000E0FE31
:1073A000422EE63F0000000008B515F035F904A3B1
:1073B000D3E9002317F0ECF808BD00BFAFF300805D
:1073C000EF39FAFE422EE63F2DE9F043DFF8B480B4
:1073D0008BB004460D4601F0F7F898F90030013300
:1073E00006460F462CD022462B462046294617F04B
:1073F0003FFA814620BB2046294614F099FD1FA381
:10740000D3E9002317F02AFAD0B1194A98F90030CD
:10741000CDF820900321CDE90445CDE90245CDE921
:10742000001293B113490020022BCDE9060111D1BE
:1074300016F05AFD22230360089B9BB9DDE906671D
:10744000304639460BB0BDE8F0830B4B4FF060423D
:10745000CDE90623684616F0C3FB0028E8D0089B58
:10746000002BEBD016F040FD089B0360E6E700BF61
:10747000240804000000F07FFFFFEF477DF8B98F7C
:10748000CE338640FF8100202DE9F043DFF8E48011
:107490008BB004460D4601F047F998F900300133EE
:1074A00006460F4633D02046294616F093FB70B3AC
:1074B0002CA3D3E900232046294617F0CFF98146B3
:1074C00050BB2AA3D3E900232046294617F0A8F988
:1074D000E8B198F90030204ACDF820900020002132
:1074E0000426022BCDE90445CDE902450096CDE9FD
:1074F0000601019229D0684616F072FB28B3089B5A
:107500001BB116F0F1FC089B0360DDE9066730460D
:1075100039460BB0BDE8F0830F4A98F9003001926C
:1075200003210022CDE90445CDE9024500910892EE
:107530002BB90A4B4FF06042CDE90623DBE708493F
:107540000020022BCDE90601D5D116F0CDFC222377
:107550000360D4E7AFF300802C080400FFFFEF477F
:107560000000F07FEF39FAFE422E864051302DD5D3
:10757000104987C0FF8100202DE9F04FDFF82C93E0
:107580008DB006460F4614461D4601F09DFC99F944
:107590000080B8F1FF3FCDE9000136D022462B46EE
:1075A0002046294617F064F9834670BB32463B46B5
:1075B0003046394617F05CF98246002840F0A28038
:1075C000304639460022002317F020F910B300227C
:1075D00000232046294617F019F98346002867D072
:1075E0009FEDA77B0122AC4BCDF828A00292CDE9FC
:1075F0000467CDE906458DED087B0393B8F1000FD4
:1076000041D09FEDA17B8DED007BDDE900010DB048
:10761000BDE8F08FDDE9000116F0DCFA80460028B5
:1076200000F08D804FF0000A4FF0000BDDE9000103
:1076300052465B4617F0EAF80028E6D03046394655
:1076400016F0C8FA0028E0D02046294616F0C2FA03
:107650000028DAD099F900308F4A039204210022E1
:10766000022BCDE90467CDE90645CDE908AB0291CF
:107670000A9203D002A816F0B3FA50B916F034FCFF
:107680002223036005E002A816F0AAFA002800F001
:107690009B800A9B1BB116F027FC0A9B03609DEDA3
:1076A000087B8DED007BDDE900010DB0BDE8F08FBA
:1076B0002046294616F08EFA0028A6D00022002384
:1076C0002046294617F0ACF800289ED0724A99F956
:1076D0000030CDF828B00121CDE90467CDE9064599
:1076E000CDE90212002B74D06C490020022BCDE9A9
:1076F000080172D116F0F8FB212303600A9B002BCE
:10770000CDD0C8E7002200232046294617F07EF896
:1077100000283FF47AAF624B5F49CDF828B00022D1
:107720000120B8F1020FCDE904670290CDE90645CA
:10773000CDE908230391A6D1CDE9002365E73046C2
:10774000394616F047FA00283FF46CAF2046294628
:1077500016F040FA00283FF465AFDDE9002310463B
:10776000194617F085F899F900A000286BD103237A
:10777000DFF824C10A902946204602930022494B93
:10778000CDF80CC0CDE90645CDE9046716F0D6FD6D
:1077900004460D46BAF1000F25D1DFF814B14FF0C1
:1077A000604A0022002330463946CDE908AB17F085
:1077B00037F838BB02A816F013FA00289ED116F04D
:1077C00093FB2223036099E716F08EFB21230360CD
:1077D0005FE79FED2B7B8DED087B02A816F000FA8A
:1077E00000288BD186E79FED2A7B002200233046BC
:1077F00039468DED087B17F013F8A0B9BAF1020FE6
:10780000DDD0D7E72046294616F0F2F922462B466E
:1078100016F0FCFFA0B9244B99F900A04FF060428C
:10782000CDE90823EAE72046294616F0E1F9224689
:107830002B4616F0EBFF18B9184B0022CDE90823B0
:1078400099F900A0DAE70122134BCDF828800292C3
:10785000CDE90467CDE906450393BAF1000FB8D02E
:10786000002200231046194616F092FEBAF1020FCC
:10787000CDE908013FF43EAFAFE700BFAFF30080B2
:107880000000000000000000000000000000F03FC9
:10789000000000000000F07F440804000000F0FF3A
:1078A0000000F03F0000E03FFFFFEFC7FF81002036
:1078B000FFFFEF47000000002DE9F84FC44E21F014
:1078C0000043B34204460D460DDD03F1404303F58A
:1078D0008013034340F0B980002940F34081002029
:1078E0000021BDE8F88FBB4EB34208DCBA4A934290
:1078F00000F3B5809CA1D1E90001BDE8F88F002913
:10790000C0F2708102460B460020B44916F05EFBBF
:107910000022B34B16F012FD04460D4615F01EFA78
:1079200093A3D3E90023894680462946204616F0D2
:1079300005FD91A3D3E9002316F04AFB22462B460E
:1079400016F0FCFC8EA3D3E9002316F03FFB224681
:107950002B4616F0F3FC8CA3D3E9002316F038FB7A
:1079600022462B4616F0EAFC89A3D3E9002316F041
:107970002DFB22462B4616F0E1FC87A3D3E900231A
:1079800016F026FB22462B4616F0D8FC84A3D3E93A
:10799000002382468B462046294616F0CFFC82A360
:1079A000D3E9002316F012FB22462B4616F0C6FC44
:1079B0007FA3D3E9002316F00BFB22462B4616F0DB
:1079C000BDFC7DA3D3E9002316F000FB22462B4625
:1079D00016F0B4FC0022814B16F0FAFA02460B4670
:1079E0005046594616F0D4FD42464B4616F0A6FCCA
:1079F000002682468B4632464B463046494616F0B4
:107A00009DFC02460B462046294616F0DFFA324618
:107A100004460D464B464046494616F0D9FA024602
:107A20000B462046294616F0B3FD02460B4650464B
:107A3000594616F0CDFA32464B4616F0C9FA0246C0
:107A40000B4616F0C5FABDE8F88F02460B4616F055
:107A5000BDFA02460B4616F09BFDBDE8F88F0246C4
:107A60000B4616F06BFC42A3D3E9002306460F46F3
:107A700016F064FC40A3D3E9002316F0A9FA3246BD
:107A80003B4616F05BFC3EA3D3E9002316F09EFABA
:107A900032463B4616F052FC3BA3D3E9002316F0D6
:107AA00097FA32463B4616F049FC39A3D3E9002346
:107AB00016F08CFA32463B4616F040FC36A3D3E96A
:107AC000002316F085FA32463B4616F037FC34A305
:107AD000D3E90023804689463046394616F02EFC0D
:107AE00031A3D3E9002316F071FA32463B4616F073
:107AF00025FC2FA3D3E9002316F06AFA32463B4651
:107B000016F01CFC2CA3D3E9002316F05FFA3246D2
:107B10003B4616F013FC0022304B16F059FA024691
:107B20000B464046494616F033FD22462B4616F0DA
:107B300005FC02460B4622A1D1E9000116F046FAE7
:107B400002460B462046294616F040FA02460B46EE
:107B500005A1D1E9000116F039FABDE8F88F1AA1A4
:107B6000D1E9000179E700BF182D4454FB21F93F0A
:107B700009F7FD0DE13D023F88B20175E0EF493F95
:107B80003B8F68B52882A43F5544880E55C1C93F34
:107B90007D6FEB0312D6D43F555555555555C53F0E
:107BA00082922EB1C5B8B33F59018D1B6C06E63FDA
:107BB000C88A599CE52A00404B2D8A1C273A03406D
:107BC000075C143326A6913C182D4454FB21094030
:107BD000FFFFEF3FFFFFDF3F0000603C0000F03F92
:107BE0000000E03F00225C4B16F0F2F900225B4BF4
:107BF00016F0A4FB40A3D3E9002304460D4616F07B
:107C00009DFB3FA3D3E9002316F0E2F922462B4661
:107C100016F094FB3CA3D3E9002316F0D7F92246D3
:107C20002B4616F08BFB3AA3D3E9002316F0D0F9CC
:107C300022462B4616F082FB37A3D3E9002316F029
:107C4000C5F922462B4616F079FB35A3D3E900236C
:107C500016F0BEF922462B4616F070FB8046894688
:107C60002046294615F07AF82FA3D3E900230646CB
:107C70000F462046294616F061FB2DA3D3E90023C9
:107C800016F0A4F922462B4616F058FB2AA3D3E996
:107C9000002316F09DF922462B4616F04FFB28A331
:107CA000D3E9002316F092F922462B4616F046FB44
:107CB0000022294B16F08CF902460B4640464946F5
:107CC00016F066FC32463B4616F038FB1EA3D3E99D
:107CD000002316F07BF932463B4616F079F902464E
:107CE0000B4616F075F902460B4619A1D1E90001C1
:107CF00016F06CF9B1E600BF09F7FD0DE13D023F5A
:107D000088B20175E0EF493F3B8F68B52882A43FF8
:107D10005544880E55C1C93F7D6FEB0312D6D43F41
:107D2000555555555555C53F82922EB1C5B8B33FEF
:107D300059018D1B6C06E63FC88A599CE52A004014
:107D40004B2D8A1C273A0340075C143326A6913C2E
:107D5000182D4454FB2109400000F03F0000E03F93
:107D6000414A91422DE9F84304460D4637DD3F4A2A
:107D700091420B4608DD02F1795291423DDD024607
:107D800016F026F9BDE8F88301F1404202F58012B1
:107D900002432ED0B1F1804F37DC0022344B16F075
:107DA00015F902460B4604460D4616F011F9224617
:107DB00006460F462B462046294616F0BFFA0246D5
:107DC0000B463046394616F003F914F0C7FF224639
:107DD0002B4616F0FDF8BDE8F843FFF7C1B80246A0
:107DE0000B4616F0F3F802460B4616F0D1FBBDE841
:107DF000F88300200021BDE8F88300F00DFE18A3F1
:107E0000D3E9002316F0E4F8F1E7024616F096FAFB
:107E10000022174B16F0DAF814F0A0FF2246804635
:107E200089462B462046294616F0D2F822460646B9
:107E30000F462B464046494616F0CAF802460B4606
:107E400000200B4916F0A4FB0B460246394630468B
:107E500016F0BCF8BDE8F84300F0DEBDAFF30080DB
:107E6000EF39FAFE422EE63FFFFFEF3FFFFFAF4143
:107E70000000F03F000000002DE9F04FAE4B21F074
:107E800000479F4287B004460D4611DD07F1404789
:107E900007F5801703463B4321D002460B4616F0F8
:107EA00095F802460B4616F073FB07B0BDE8F08F5D
:107EB000A24B9F420E4629DCB7F1795F80F24681E2
:107EC00081A3D3E9002316F083F800229C4B16F01F
:107ED000C5FCD8B12046294607B0BDE8F08F7CA389
:107EE000D3E9002316F02AFA7BA3D3E90023064640
:107EF0000F462046294616F021FA02460B46304628
:107F0000394616F065F807B0BDE8F08F20462946DF
:107F100014F00EF802460B460020894916F056F878
:107F20000022884B16F00AFA6DA3D3E90023044619
:107F30000D4616F003FA6CA3D3E9002316F048F8B7
:107F400022462B4616F0FAF969A3D3E9002316F06E
:107F50003DF822462B4616F0F1F967A3D3E900233A
:107F600016F036F822462B4616F0E8F964A3D3E95A
:107F7000002316F02BF822462B4616F0DFF962A3F9
:107F8000D3E9002316F024F822462B4616F0D6F942
:107F90005FA3D3E90023CDE900012046294616F06E
:107FA000CDF95DA3D3E9002316F010F822462B4645
:107FB00016F0C4F95AA3D3E9002316F009F82246B3
:107FC0002B4616F0BBF958A3D3E9002315F0FEFFAA
:107FD00022462B4616F0B2F9594B002215F0F8FF55
:107FE00082468B4620462946CDE902AB14F0B6FE08
:107FF000554B9F428046894600F3198102460B4645
:1080000015F0E6FFDDE90223CDE90401DDE9000119
:1080100016F0BEFA02460B46DDE9040116F08EF9B1
:108020004FF0000ACDE9000152464B465046494602
:1080300016F084F902460B462046294615F0C6FF85
:10804000524604460D464B464046494615F0C0FF91
:1080500002460B462046294616F09AFA02460B467F
:1080600015F0B6FF02460B461BA1D1E9000115F041
:10807000ADFF02460B46DDE9000115F0A7FF5246B1
:1080800004460D464B465046494615F0A1FF0246B0
:108090000B4627A1D1E9000115F098FF02460B46D7
:1080A0002046294615F092FF02460B4620A1D1E951
:1080B000000115F08BFF002E3FF7F7AE01F10043F2
:1080C0001946F2E6AFF300809C7500883CE4377EE9
:1080D000182D4454FB21F93F075C143326A6913C2C
:1080E00009F7FD0DE13D023F88B20175E0EF493F20
:1080F0003B8F68B52882A43F5544880E55C1C93FBF
:108100007D6FEB0312D6D43F555555555555C53F98
:1081100082922EB1C5B8B33F59018D1B6C06E63F64
:10812000C88A599CE52A00404B2D8A1C273A0340F7
:10813000182D4454FB21E93FFFFFEF3FFFFFDF3FD6
:108140000000F03F0000E03F3233EF3F02460B46B5
:1081500016F0F4F84BA3D3E9002306460F4616F0B9
:10816000EDF84AA3D3E9002315F032FF32463B462F
:1081700016F0E4F847A3D3E9002315F027FF3246B1
:108180003B4616F0DBF845A3D3E9002315F020FFAA
:1081900032463B4616F0D2F842A3D3E9002315F04D
:1081A00015FF32463B4616F0C9F840A3D3E9002339
:1081B00015F00EFF32463B4616F0C0F83DA3D3E95A
:1081C0000023804689463046394616F0B7F83BA36F
:1081D000D3E9002315F0FAFE32463B4616F0AEF81E
:1081E00038A3D3E9002315F0F3FE32463B4616F0E0
:1081F000A5F836A3D3E9002315F0E8FE32463B4646
:1082000016F09CF800221E4B15F0E2FE02460B46CB
:108210004046494616F0BCF922462B4616F08EF829
:1082200022462B4615F0D4FE07B0BDE8F08F52462B
:108230005B46DDE9000116F0ABF942464B4616F00D
:108240007DF842464B4615F0C3FE02460B4615F03C
:10825000BFFE07A3D3E9002315F0B8FE02460B4684
:1082600005A1D1E9000115F0B1FE24E7AFF30080CC
:10827000075C143326A6913C182D4454FB21F93F8A
:108280000000F03F09F7FD0DE13D023F88B20175A6
:10829000E0EF493F3B8F68B52882A43F5544880EE4
:1082A00055C1C93F7D6FEB0312D6D43F5555555587
:1082B0005555C53F82922EB1C5B8B33F59018D1BAC
:1082C0006C06E63FC88A599CE52A00404B2D8A1C63
:1082D000273A0340000000002DE9F84F1D465342A5
:1082E000134325F00049DFF8C8C149EAD373634559
:1082F000144606460F4626D8C0F1000848EA000892
:1083000021F0004A4AEAD878E04503468B461AD85D
:1083100005F1404808F5801858EA0208AE4643D0F7
:108320004FEAA57808F002085AEA030348EAD17830
:1083300011D1B8F1020F55D0B8F1030F09D14AA1FC
:10834000D1E9000105E032463B462046294615F0BA
:108350003FFEBDE8F88F59EA020329D0E1452ED04F
:10836000E24525D0AAEB09094FEA2959B9F13C0F9A
:108370003CDC002D3EDA19F13C0F3BDA00200021F5
:10838000B8F1010F4ED0B8F1020F3ED0B8F1000F96
:10839000DFD037A3D3E9002315F018FE36A3D3E9C5
:1083A000002315F013FED4E7BDE8F84FFEF744BBF9
:1083B000BBF1000F12DB32A1D1E90001C9E7CA45C8
:1083C00034D0B8F1020F0DD0B8F1030FB7D0B8F127
:1083D000010F4FF0000036D00021BAE72AA1D1E901
:1083E0000001B6E724A1D1E90001B2E724A1D1E957
:1083F0000001C5E722462B463046394616F0C8F83C
:1084000013F096FDFEF718FBBAE719A3D3E9002392
:1084100015F0DCFD02460B4617A1D1E9000115F06D
:10842000D5FD96E701F10043194692E7B8F1020F36
:1084300014D0B8F1030F0DD0B8F1010F06D014A17C
:10844000D1E9000185E74FF0004182E712A1D1E9AF
:1084500000017EE712A1D1E900017AE712A1D1E97A
:10846000000176E7AFF30080182D4454FB2109C0CA
:10847000075C143326A6A13C182D4454FB21094067
:10848000182D4454FB21F93F182D4454FB21F9BF0A
:10849000182D4454FB21E93F182D4454FB21E9BF1A
:1084A000D221337F7CD902C0D221337F7CD90240D4
:1084B0000000F07F0000000043422DE9F047034335
:1084C00021F000463C4A46EAD373934204460D46E7
:1084D0002AD8964240D0394B9E428A462EDD384BF0
:1084E0009E4235463FDD33460246314615F070FD6B
:1084F000224606460F462B4600202F4915F066FD02
:1085000002460B463046394616F042F8FEF728FD83
:1085100000222C4B15F012FFBAF1000F0CDA01F11A
:1085200000431946BDE8F08702460B4615F04EFDA4
:1085300002460B4616F02CF8BDE8F0871CA3D3E9E1
:10854000002315F045FD0022002316F087F948B1FD
:1085500020462946BDE8F0870022002316F018F8CF
:10856000BDE8F087354622462B462046294615F0C1
:108570002FFD22462B4606460F4615F0DFFE22460B
:10858000804689462B4600200B4915F01FFD024608
:108590000B464046494615F0FBFF32463B4615F078
:1085A00017FDFEF7DDFC0022064B15F0C7FEB3E712
:1085B0009C7500883CE4377E0000F03FFFFF2F3EB3
:1085C000FFFFDF3F0000E03F2DE9F8434E4B21F075
:1085D00000449C4206460F461BDC4C4B9C4222DD6D
:1085E0004B4B9C4254DD4B4B9C4246DD4A4B9C42DC
:1085F0006FDD01339C4269D041A3D3E900231046CB
:10860000194615F09BFE06460F4630463946BDE832
:10861000F88302460B4615F091FE06460F4630469B
:108620003946BDE8F88313F083FC02F04DFC0022CC
:108630003A4B8046894615F0CBFCB4F1725F064692
:108640000F46ECDB42464B464046494615F076FE67
:1086500032463B4604460D463046394615F0B8FCD6
:1086600002460B462046294615F092FF00222B4B6E
:1086700015F0AEFC06460F46D1E713F059FC00F0AA
:1086800053F80022264B15F059FE06460F46C6E762
:1086900013F04EFC00F048F80022214B06460F462E
:1086A00015F04CFE324604460D463B4600201C4960
:1086B00015F06EFF02460B462046294615F088FC51
:1086C00006460F4630463946BDE8F883154B9842BA
:1086D00092D83046394613F02BFC0022104B15F08F
:1086E0002DFE00F021F8002204460D460C4B15F03B
:1086F00025FE22462B4615F021FE06460F468EE744
:108700009C7500883CE4377EFFFFEF7F422ED63F0A
:10871000FFFF3540412E8640CD3386400000F03FBC
:108720000000E03F7DF8B98F2DE9F047B04F21F010
:108730000042BA4284B004460D464FEAD17610D9C1
:10874000AC4FBA4240F28A80C1F31303034302469E
:1087500040F0F180002E7ED00020002104B0BDE862
:10876000F087A54B9A4200F2B680A44B9A4240F2A1
:10877000D1804FF0000A22462B462046294615F0AC
:10878000DDFD85A3D3E9002306460F4615F0D6FD8F
:1087900083A3D3E9002315F019FC32463B4615F0BC
:1087A000CDFD81A3D3E9002315F012FC32463B46F0
:1087B00015F0C4FD7EA3D3E9002315F007FC324673
:1087C0003B4615F0BBFD7CA3D3E9002315F000FC6C
:1087D00032463B4615F0B2FD02460B46204629467E
:1087E00015F0F4FB02460B4606460F462046294686
:1087F00015F0A4FD80468946BAF1000F00F0AB8069
:1088000032463B4600204FF0804115F0DFFB024628
:108810000B464046494615F0BBFE02460B46DDE9D5
:10882000020115F0D3FBDDE9002315F0CFFB0B4669
:1088300002467349002015F0C9FB6FF47F739A4517
:1088400080F2A3800AF57A7A01EB0A5100224FF0F8
:10885000B87315F073FD04B0BDE8F08758A3D3E9F1
:10886000002315F0FBFF00286BD157A3D3E90023A9
:108870002046294615F0D4FF00287FF46DAF6149EA
:1088800053A3D3E9002301EBC6062046294615F081
:1088900055FDD6E9002315F09BFB15F0FFFF82463E
:1088A00015F0E2FC4CA3D3E9002306460F4615F071
:1088B00045FD02460B462046294615F087FB48A396
:1088C000D3E90023CDE900013046394615F036FDE5
:1088D000CDE9020115E04C4B9A42D0D84B4BF40045
:1088E0002344D3E9002315F071FB494B234493ED56
:1088F000007BCDE900018DED027BC6F1010AAAEBF8
:10890000060ADDE90223DDE9000115F05FFB0446FC
:108910000D4630E734A3D3E9002315F059FB0022BC
:10892000374B15F09BFFA8B3204629460022344B55
:1089300015F04EFB8FE70B4615F04AFB04B0BDE87F
:10894000F08729A3D3E900231046194615F0F6FC59
:1089500004B0BDE8F0873046394600224FF080432E
:1089600015F034FB02460B464046494615F010FE12
:1089700022462B4615F02AFB02460B4600202049D2
:1089800015F024FB04B0BDE8F08701EB0A5104B0F8
:10899000BDE8F0878246EEE6D0A4BE726937663E37
:1089A000F16BD2C541BDBB3E2CDE25AF6A56113FEF
:1089B00093BDBE166CC1663F3E5555555555C53FD6
:1089C000EF39FAFE422E864051302DD5104987C02E
:1089D000FE822B654715F73F0000E0FE422EE63F82
:1089E000763C7935EF39EA3D9C7500883CE4377E6A
:1089F000412E8640FFFFEF7F422ED63FFFFF2F3EE6
:108A00000000F03F88F60300B1A2F03F98F60300A3
:108A1000A8F60300000000002DE9F04FB1F5801F1B
:108A200085B006460F460B4680F2D08021F000420A
:108A3000024300F0DA800029C0F2E9800022D64B20
:108A400015F07CFCD54A0B46934206460F466FF064
:108A5000350E00F3C180C3F3130505F5152C0CF694
:108A6000647C0CF4801C8CF07F5282F440121C1544
:108A700042EA0507A4F2FF3474440022C84B304692
:108A8000394604EB1C5415F0A1FAAB1CC3F31303D5
:108A9000022B82468B464FF0000240F3AF804FF02E
:108AA000804315F095FA02460B465046594615F09C
:108AB0006FFD064620460F4615F0D6FB3246CDE93F
:108AC00002013B4630463946CDE9006715F036FCD9
:108AD00002460B468046894615F030FC9AA3D3E93E
:108AE000002306460F4615F029FC99A3D3E900237D
:108AF00015F06EFA32463B4615F020FC96A3D3E9FA
:108B0000002315F065FA32463B4615F017FC94A396
:108B1000D3E9002315F05CFA42464B4615F00EFCF3
:108B200091A3D3E90023804689463046394615F0A3
:108B300005FC8FA3D3E9002315F04AFA32463B46E1
:108B400015F0FCFB8CA3D3E9002315F041FA324663
:108B50003B4615F0F3FB0B4602464946404615F0EE
:108B600037FAA5F5C223C5F5D725A3F27A435135C7
:108B70001D43002D06460F4640F387800022894B97
:108B80005046594615F0DAFB52465B4615F0D6FBC7
:108B900002460B46804689463046394615F018FA9B
:108BA000DDE9002315F0CAFB06460F46002C40F015
:108BB000818002460B464046494615F007FA0246B8
:108BC0000B465046594615F001FA0BE0734A9342A2
:108BD0004FF0000E7FF73FAF32463B4630463946F6
:108BE00015F0F6F905B0BDE8F08F00220023002053
:108BF0006D4915F0CDFC05B0BDE8F08F002315F0F0
:108C000005FE60B1002C7CD100200021EAE702467D
:108C100015F0DCF90022002315F0BAFCE2E758A3B6
:108C2000D3E900235046594615F088FB02460B460F
:108C300000205C4915F0CAF9524606460F465B46CD
:108C40005046594615F07AFB02460B4630463946E7
:108C500015F074FB06460F462CB3204615F004FBB6
:108C600049A3D3E900238046894615F067FB48A352
:108C7000D3E9002304460D464046494615F05EFB05
:108C800002460B46304639462CE002460B4650461B
:108C9000594615F09BF9DDE9002315F04FFB064618
:108CA0000F46002C47D132463B465046594615F0F8
:108CB0008DF997E734A3D3E90023DDE9020115F02C
:108CC0003DFB33A3D3E9002304460D46DDE9020151
:108CD00015F034FB32463B4615F07AF902460B4656
:108CE0004046494615F072F952465B4615F06EF95A
:108CF00002460B462046294615F068F905B0BDE846
:108D0000F08F204615F0B0FA1FA3D3E900230646E2
:108D10000F4615F013FB1EA3D3E9002304460D46AE
:108D20003046394615F00AFB02460B4620462946D6
:108D300015F04EF956E7DDE9028913A3D3E90023C4
:108D40004046494691E700BF44523EDF12F1C23F20
:108D5000DE03CB966446C73F599322942449D23F01
:108D6000935555555555E53F9FC678D0099AC33F51
:108D7000AF788E1DC571CC3F04FA97999999D93F68
:108D8000555555555555D53F0000E0FE422EE63F5E
:108D9000763C7935EF39EA3D00005043FFFFEF7F25
:108DA0000000F03F0000E03F000050C30000000062
:108DB000B1F5801F2DE9F84304460D460B4619DA3C
:108DC00021F00042024359D000295FDB00223A4BD8
:108DD00015F0B4FA394A0D462B46934204466FF01B
:108DE00035010CDD22462B462046294615F0F0F8C9
:108DF000BDE8F883314A93424FF00001F2DC1815C8
:108E0000A0F2FF3008444FEAD0794844C3F3130876
:108E100015F02AFAC9F57F73033348EA035506466D
:108E20000F4620462946FFF7F7FD1DA3D3E900238F
:108E3000804689463046394615F080FA1AA3D3E9B0
:108E4000002304460D464046494615F077FA02468F
:108E50000B462046294615F0BBF815A3D3E900239D
:108E600004460D463046394615F068FA02460B4670
:108E70002046294615F0ACF8BDE8F883002200230F
:108E800000200F4915F084FBBDE8F883024615F079
:108E90009DF80022002315F07BFBA9E7AFF30080CB
:108EA000362BF111F3FE593D0EE526157BCBDB3F4A
:108EB00000609F501344D33F00005043FFFFEF7FFB
:108EC000000050C3000000002DE9F04F23F00045E2
:108ED00055EA020493B00DD06B4E21F00044B44229
:108EE0000F4682460BDD04F1404404F5801454EA39
:108EF0000A0350D16549002013B0BDE8F08F9B46AE
:108F0000944647D0B542EEDC5F4EB5425DD0002FAF
:108F100080468946CDE900235BDB0026BCF1000FCB
:108F20000ED1594B9D423FD0584B9D4200F0888056
:108F3000BBF1804F00F09C80554B9B4500F0B883FF
:108F40004046494612F0F4FFBAF1000F06D1002C5A
:108F500059D04E4B27F040429A4254D0FF0F013F68
:108F600056EA070373D04B4B9D4240F39B8003F1BD
:108F700004739D4240F33E84474B9C4272DDBBF13B
:108F8000000F72DD3EA3D3E900231046194615F009
:108F9000D5F9B1E728B1414813B0BDE8F04F14F05E
:108FA00021BEA542F7DCAFE704F1404303F580138F
:108FB00053EA0A039ED0384B9C4240F38383BBF1B3
:108FC000000F52DBDDE9000196E7BCF1000F9ED0F7
:108FD00089E7334B9D4231DCA3F154739D429CDD04
:108FE0002B15A3F2FF33142B40F3A583C3F13403F5
:108FF0002CFA03F202FA03F363458ED102F0010268
:10900000C2F102068AE7BBF1000F05DA02460B4601
:1090100000201E4915F0BCFA002FBFF66DAF04F119
:10902000404404F5801454EA060300F03F84012E06
:109030007FF462AF01F1004319465DE702266DE758
:10904000BBF1000FC0F248834046494654E7424610
:109050004B461046194614F0B9FF02460B4615F070
:1090600097FA49E7BBF1000F8CDB0020002143E7B2
:1090700042464B464046494615F060F93CE700BF82
:109080009C7500883CE4377E0000F07F0000F03FD4
:109090000000E03F0000E041FFFFEF3FC8FE03009B
:1090A000FFFF3F43B4F5801F80F261830022D24B63
:1090B00015F044F96FF0340C0C462315CF4DC4F372
:1090C0001302A3F2FF3342F07F546344AA420B938E
:1090D00044F4401440F33F83C94B9A4240F3048464
:1090E0009FEDAF7B8DED087B8DED107B9FEDAE7B13
:1090F0000B9B8DED067B01330B93A4F580140025AB
:10910000DDE906232146824614F060FFA346DDE92F
:1091100006238046894650462146CDE90CAB14F023
:1091200057FF02460B460020B64915F031FA0A46B1
:109130000146CDE90E12134649460246404615F057
:10914000FDF8631043F0005382468B4603F500237D
:109150008C46CDE904AB5919D3460023CDE902BCB6
:109160000293DDE902AB002004460D4602460B46A1
:109170005046594615F0E2F802460B46404649462D
:1091800014F024FFDDE9062380468946204629465F
:1091900014F01CFF02460B46DDE90C0114F016FF2B
:1091A00052465B4615F0CAF802460B464046494611
:1091B00014F00CFFDDE90E2315F0C0F8DDE90445DD
:1091C000CDE9060122462B462046294615F0B6F881
:1091D00077A3D3E9002304460D4615F0AFF876A334
:1091E000D3E9002314F0F4FE22462B4615F0A6F82E
:1091F00073A3D3E9002314F0EBFE22462B4615F0AF
:109200009DF871A3D3E9002314F0E2FE22462B4619
:1092100015F094F86EA3D3E9002314F0D9FE22468A
:109220002B4615F08BF86CA3D3E9002314F0D0FE85
:109230002246804689462B462046294615F07EF870
:1092400002460B464046494615F078F85246044619
:109250000D465B46DDE9040114F0BAFEDDE90623A4
:1092600015F06CF822462B4614F0B2FE52468046AA
:1092700089465B465046594615F060F80022624B1D
:10928000CDE90C0114F0A4FE42464B4614F0A0FEBA
:1092900002980D46044622462B465046594615F084
:1092A0004DF8002282468B46574B2046294614F043
:1092B0008DFEDDE90C2314F089FE02460B46404684
:1092C000494614F083FEDDE9042315F037F8224601
:1092D000804689462B46DDE9060115F02FF8024647
:1092E0000B464046494614F073FE804689460246C6
:1092F0000B465046594614F06BFE029838A3D3E94A
:10930000002304460D4615F019F85246CDE9040134
:109310005B462046294614F059FE02460B4640465D
:10932000494614F053FE30A3D3E9002315F006F8A4
:109330002FA3D3E90023804689462046294614F00E
:10934000FDFF02460B464046494614F041FEDDE96A
:10935000102314F03DFE80460B98894614F084FFDC
:10936000424682468B464B46DDE9040114F030FE4E
:10937000DDE9082314F02CFE52465B4614F028FE6B
:10938000029852465B4604460D4614F01FFEDDE986
:10939000082314F01BFEDDE9042337E0AFF300805F
:1093A0000000000000000000000000000000F03F8E
:1093B000EF4E454A287ECA3F65DBC9934A86CD3FBA
:1093C00001411DA96074D13F4D268F515555D53FA0
:1093D000FFAB6FDBB66DDB3F033333333333E33F38
:1093E000000000E009C7EE3FFD033ADC09C7EE3F8D
:1093F000F5015B14E02F3EBE000040438E98030051
:1094000079B60B000000F03F0000084014F0DEFDCC
:109410000B4602464946404614F0D8FD013E56EA46
:10942000070382468B4600F05E819FEDD37B8DED76
:10943000047BDDE9001200230E461746CDE90267E2
:109440000293DDE9026708463B461146324614F0B6
:10945000BDFD22462B4614F071FFDDE90023804656
:1094600089465046594614F069FF02460B4640466D
:10947000494614F0ADFD3246804689463B462046BB
:109480002946CDE9008914F059FF0B4602460646ED
:109490000F464046494614F09BFDD14B9942044685
:1094A0000D468A4640F3248101F13F4303F5E00372
:1094B000034340F0FF81B2A3D3E90023DDE90001BB
:1094C00014F086FD3246804689463B4620462946B2
:1094D00014F07CFD02460B464046494615F0BEF9A5
:1094E000002840F0E781A8464FEA2853A3F2FE3255
:1094F0004FF4801313415344C3F30A52B94DA2F2FF
:10950000FF321541C3F3130423EA05010020C2F121
:10951000140B44F48014BAF1000F02460B4644FACF
:109520000BFB30463946B8BFCBF1000B14F04EFDB3
:1095300006460F463246DDE900013B4614F048FD81
:109540004FEA0B5A0D4600248FA3D3E9002320468F
:10955000294614F0F3FE3246804689463B462046B3
:10956000294614F033FD02460B46DDE9000114F0F4
:109570002DFD87A3D3E9002314F0E0FE86A3D3E9F1
:10958000002306460F462046294614F0D7FE024621
:109590000B463046394614F01BFD06460F46024680
:1095A0000B464046494614F013FD42464B460446DE
:1095B0000D4614F00BFD02460B463046394614F0BA
:1095C00005FD2246804689462B462046294614F052
:1095D000B5FE73A3D3E9002306460F4614F0AEFE92
:1095E00071A3D3E9002314F0F1FC32463B4614F09A
:1095F000A5FE6FA3D3E9002314F0EAFC32463B46F4
:1096000014F09CFE6CA3D3E9002314F0DFFC324677
:109610003B4614F093FE6AA3D3E9002314F0D8FC70
:1096200032463B4614F08AFE02460B462046294647
:1096300014F0CCFC06460F4602460B46204629464F
:1096400014F07CFE0022CDE900014FF0804330464B
:10965000394614F0BBFC02460B46DDE9000114F06C
:1096600097FF424606460F464B462046294614F0D1
:1096700065FE42464B4614F0ABFC02460B463046B4
:10968000394614F0A3FC22462B4614F09FFC0246F8
:109690000B460020544914F099FC8A44BAF5801F07
:1096A000C0F232815146DDE9042314F047FE23E481
:1096B000002FFFF645AC4046494613B0BDE8F04FD9
:1096C00013F04CBBBBF1000FBFF6CFACDDE90034AB
:1096D000184604F100410FE442464B46002042493F
:1096E00014F056FF08E49FED387B8DED047BA0E677
:1096F0003E4B21F00048984540F3EA803C4B0B4438
:1097000003430AD132463B4614F060FCDDE90023F6
:1097100015F09AF800283FF4E7AEDDE904012CA328
:10972000D3E9002314F00AFE29A3D3E9002314F09F
:1097300005FEFFF7E1BBBCF1000F40F0D280C3F1A2
:10974000140345FA03F202FA03F3AB4200F0E0809F
:109750006646FFF7E9BB9FED207B8DED087B8DED25
:10976000107B9FED057B00258DED067BC8E44FF057
:10977000000CA2E4AFF30080000000000000F03F06
:10978000FE822B654715973C00000000432EE63F04
:10979000EF39FAFE422EE63F396CA80C615C20BE20
:1097A000D0A4BE726937663EF16BD2C541BDBB3EE7
:1097B0002CDE25AF6A56113F93BDBE166CC1663FC5
:1097C0003E5555555555C53F000000000000F0BFFF
:1097D00059F3F8C21F6EA501000000000000000050
:1097E000FFFF8F40FFFF0F000000F03FFFCB9040D6
:1097F00000346F3F5A4B9C427FF734AC594B9C422C
:109800003FF7BDAB0022574B14F0E0FB44A3D3E974
:10981000002304460D4614F091FD43A3D3E9002331
:1098200082468B462046294614F088FD0022CDE969
:1098300002014D4B2046294614F080FD02460B469E
:109840003BA1D1E9000114F0C1FB22462B4614F0E4
:1098500075FD02460B460020444914F0B7FB224632
:10986000804689462B462046294614F067FD02466D
:109870000B464046494614F061FD2FA3D3E900236F
:1098800014F05CFD02460B46DDE9020114F09EFB7C
:1098900002460B46804689465046594614F098FBCE
:1098A000002004460D4652465B46AFE502460B4695
:1098B000FFF7CFBBDDE9040121A3D3E9002314F0B6
:1098C0003DFD1FA3D3E9002314F038FDFFF714BBBF
:1098D000264B98453FF708AEDDE9022392469346B2
:1098E00031E60026FFF72CBB9FED177B8DED087B43
:1098F0009FED177B8DED107B9FED177B4FF480253F
:109900008DED067BFFF7FCBB5A4601F029FDCAE648
:1099100002F00102C2F10206FFF706BBAFF30080BE
:10992000000000604715F73F44DF5DF80BAE543E82
:10993000555555555555D53FFE822B654715F73F73
:109940009C7500883CE4377E0000004003B8E23F8D
:1099500006D0CF43EBFD4C3E000000000000F83F76
:10996000FEFFEF3F0000F03F0000D03F0000E03F6F
:109970002DE9F047CA4B21F000479F4290B0804646
:10998000894640F38F80C74B9F420C46924626DCA7
:109990000029B9A3D3E9002340F38F8014F016FB0C
:1099A000C14B9F4204460D4600F04781B4A3D3E962
:1099B000002314F00BFB02460B46CAE900232046A5
:1099C000294614F003FBAEA3D3E9002314F0FEFAFA
:1099D0000125CAE90201284610B0BDE8F087B34B63
:1099E0009F4240F38980B24B9F4200F31C813D159A
:1099F000A5F21645A7EB055319461F46064614F077
:109A00004DFF14F031FC8046894642464B463046B5
:109A10003946CDE90A8914F0D9FA0022A54B14F091
:109A20008DFC8946804614F039FF14F01DFC064673
:109A30000F4632463B4640464946CDE90C6714F096
:109A4000C5FA00229B4B14F079FC00220023CDE9DB
:109A50000E0114F0DBFE002800F060810023304688
:109A60003946002214F0D2FE002814BF012302233D
:109A7000914A019202212A4600910AA8514600F01B
:109A800087FB002C054614DADAF80420DAF80C30EB
:109A900002F1004203F100434542CAF80420CAF82B
:109AA0000C3006E000200021C2E90089C2E9020171
:109AB0000025284610B0BDE8F08714F089FA7A4BEB
:109AC0009F4204460D4600F00B816DA3D3E90023AD
:109AD00014F07EFA02460B46CAE9002329462046C6
:109AE00014F074FA66A3D3E9002314F071FA4FF06E
:109AF000FF35CAE90201DCE712F01AFA62A3D3E9E2
:109B000000238046894614F019FC00226B4B14F0A8
:109B10005FFA14F0C3FE054614F0A6FB56A3D3E982
:109B20000023CDE9060114F009FC02460B4640462D
:109B3000494614F04BFA52A3D3E9002380468946E4
:109B4000DDE90601CDE9028914F0F8FB1F2D02467C
:109B50000B46CDE9042340F3B380DDE90423DDE9BE
:109B6000020114F033FA804689463F15C9F30A53BF
:109B7000FB1A102B40F3B18045A3D3E90023DDE9A4
:109B8000060114F0DBFB8046894602460B46DDE900
:109B9000020114F01BFA02460B46DDE90201CDE991
:109BA000082314F013FA42464B4614F00FFA3AA376
:109BB000D3E9002380468946DDE9060114F0BEFBA7
:109BC00042464B4614F002FA0B46CDE90401024628
:109BD000DDE9080114F0FAF9C1F30A53FF1A312F35
:109BE0008046894600F39C809DED087BCAE9008988
:109BF0008DED027B42464B46DDE9020114F0E6F9A9
:109C0000DDE9042314F0E2F9002CCAE90201BFF6F1
:109C100050AF09F1004401F100436D42CAE90084EC
:109C2000CAE9020345E702460B4614F0CFF90025C6
:109C3000CAE90201CAE900013BE715A3D3E9002301
:109C400014F0C4F914A3D3E900230D46044614F01C
:109C5000BDF902460B46CAE900232946204614F006
:109C6000B5F90DA3D3E9002314F0B0F90125CAE931
:109C700002011EE7AFF3008000004054FB21F93FD2
:109C80003163621A61B4D03D83C8C96D305FE43F6F
:109C90000000601A61B4D03D7370032E8A19A33B93
:109CA000FB21E93F7BD90240FB21F93FFB213941F0
:109CB000FFFFEF7F00007041E80804000000E03F74
:109CC0004046494614F082F9394B6A1E804653F8E3
:109CD0002230BB4289463FF448AFCAE9008989E790
:109CE0002BA3D3E9002314F073F92BA3D3E90023AA
:109CF0000D46044614F06CF902460B46CAE90023EF
:109D00002946204614F062F923A3D3E9002314F076
:109D10005FF94FF0FF35CAE90201CAE60323A7E65F
:109D20001FA3D3E90023DDE9060114F007FB064673
:109D30000F4602460B46DDE9080114F047F980465C
:109D4000894602460B46DDE90801CDE9028914F097
:109D50003DF932463B4614F039F913A3D3E9002309
:109D600006460F46DDE9060114F0E8FA32463B46A6
:109D700014F02CF902460B4640464946CDE904232F
:109D800014F024F980468946A7E700BFAFF30080AE
:109D90000000601A61B4D03D7370032E8A19A33B92
:109DA0000000002E8A19A33BC14920259A837B39E4
:109DB0006808040000000000574A2DE9F84F21F020
:109DC0000048904506460F462CDC544B0029B4BF92
:109DD000534D544D98454FF0000411DC524B9845BB
:109DE00026DC4BA3D3E9002314F0F2F800224F4BFA
:109DF00014F034FD002840D030463946BDE8F88FD5
:109E00004B4B984530DD4B4B984568DD0133984509
:109E100062D0304639463EA3D3E9002314F08EFACF
:109E2000BDE8F88F02460B4614F0D2F8BDE8F88F73
:109E300012F07EF801F048F83F4B984506460F4671
:109E400023DD0022394B14F0C3F802460B4630469E
:109E5000394614F09DFB32463B4614F0B9F82246D1
:109E60002B4614F06BFAE1E712F062F8FEF75CFCA7
:109E700022462B4614F062FAD8E73046394612F0F3
:109E800057F801F021F806460F4632463B46304669
:109E9000394614F09DF8324682468B463B463046A2
:109EA000394614F04BFA0022804689461F4B304653
:109EB000394614F08DF802460B464046494614F0E8
:109EC00067FB02460B465046594614F07FF822467F
:109ED0002B4614F033FAA9E7184B984299D830462C
:109EE000394612F025F800220E4B14F027FAFEF73F
:109EF0001BFC06460F4602460B462046294614F038
:109F00001DFA32463B4614F019FA8FE7AFF3008092
:109F10003374AC3C1F7BAC7FFFFFEF7FFFFF35400E
:109F20000000E0BF0000E03FFFFF2F3E0000F03FD9
:109F3000412E8640CD338640FFFFEF3F7DF8B98F3D
:109F40002DE9F04F21F00048B8F1795F85B0064661
:109F50000F4692469B466BDA14F0A0FC002800F0F6
:109F6000E18032463B463046394614F0E7F974A3A7
:109F7000D3E9002304460D4614F0E0F972A3D3E9B7
:109F8000002314F025F822462B4614F0D7F970A3CD
:109F9000D3E9002314F01AF822462B4614F0CEF928
:109FA0006DA3D3E9002314F013F822462B4614F0D6
:109FB000C5F96BA3D3E9002314F008F822462B4619
:109FC00014F0BCF968A3D3E9002314F001F8224689
:109FD0002B4614F0B3F9CDE900010022664B204670
:109FE000294614F0ABF9DDE9002380468946204676
:109FF000294614F0A3F9524604460D465B46304606
:10A00000394614F09BF902460B462046294613F0C8
:10A01000DDFF02460B464046494613F0D7FF024695
:10A020000B460020554913F0D1FF05B0BDE8F08F75
:10A0300002460B4614F082F941A3D3E900230446FB
:10A040000D4614F07BF940A3D3E9002313F0C0FFC1
:10A0500022462B4614F072F93DA3D3E9002313F0F6
:10A06000B5FF22462B4614F069F93BA3D3E9002340
:10A0700013F0AEFF22462B4614F060F938A3D3E963
:10A08000002313F0A3FF22462B4614F057F936A302
:10A09000D3E9002313F09CFF2B46224614F04EF91F
:10A0A000374B9845CDE9000197DD364B98453EDCAE
:10A0B000A8F500130022002030499046994613F07D
:10A0C00085FFCDE9020100222B4B2046294614F0E2
:10A0D00035F942464B4613F079FFDDE9002380460F
:10A0E00089462046294614F029F9524604460D4671
:10A0F0005B463046394614F021F902460B462046AD
:10A10000294613F063FF02460B464046494613F0CA
:10A110005DFF02460B46DDE9020113F057FF05B073
:10A12000BDE8F08F1549002005B0BDE8F08F9FED28
:10A13000107B4FF000088DED027BDFF84C90C2E7FA
:10A14000D43888BEE9FAA8BDC4B1B4BD9EEE213EA4
:10A15000AD529C804F7E923E9015CB19A001FA3EE5
:10A160007751C1166CC1563F4C5555555555A53FB5
:10A17000000000000000E73F0000E03F0000F03F6B
:10A180003233D33F0000E93F0000D23F000000001F
:10A190002DE9F04FADF5197DBE4CA29EBE4D54F891
:10A1A00026600793D41E85FB0475E417C4EBA50451
:10A1B00024EAE4741D46631CA3EB8303013D02EB18
:10A1C000C3030593731904960994019503900B91A9
:10A1D000A4EB05071AD43B44002400255E1C0DF1B6
:10A1E0008008DDF88C9208E059F8270014F03CF85C
:10A1F0000137B742E8E8020108D0002FF4DA01374E
:10A2000020462946B742E8E80201F6D1049B002B1C
:10A21000079B4FEAC30302932ADB039A20A902EBB0
:10A22000030801EB0309049B72AA02EBC30B0DF5B3
:10A23000E07A019B002B4FF000064FF0000711DB86
:10A24000039C4D4675E90223F4E8020114F076F808
:10A2500002460B463046394613F0BAFE44450646E0
:10A260000F46EFD1EAE80267DA4509F10809E0D1C3
:10A27000DDE90204049920448B0082460BA8A3F177
:10A280000802C31808930CAB13440A938B4698AB8F
:10A2900003EBCB03BBF1000F53E9284529DD70AB7D
:10A2A00003EBCB080DF1300900227C4B20462946F8
:10A2B00014F044F814F0F2FA13F0D6FF0022784BB1
:10A2C00006460F4614F03AF802460B462046294649
:10A2D00013F07CFE14F0E2FA78E9022349F8040B4B
:10A2E0003946304613F074FE70AB984504460D466F
:10A2F000DAD1DDF81490204629464A4601F030F8BC
:10A3000000224FF07F5304460D4614F017F8FCF777
:10A31000A7FD0022634B14F011F802460B462046BD
:10A32000294613F053FE0D46044614F0B7FA804652
:10A3300013F09AFF0B4602462946204613F046FECC
:10A340004B46002B06460F4640F3E1800BF1FF32EF
:10A350000CA9C9F1180351F8225045FA03F101FA8A
:10A3600003F30CA8EB1A40F82230C9F11705884412
:10A3700043FA05F5002D2CDDBBF1000F08F10108B3
:10A3800040F381820C9C002C40F0A780BBF1010FB0
:10A390000AD00CA9012251F8044F531C002C40F0A4
:10A3A0009E809B451A46F6D1059B002B0EDD012BA6
:10A3B00000F0D980022B09D10BF1FF320CAB0CA9B4
:10A3C00053F82230C3F3150341F82230022D00F078
:10A3D000AF80002200233046394614F017FA0028D7
:10A3E00000F05382049B0BF1FF394B4510DC0BF15D
:10A3F00080430CAA013B089802EB8303002253F828
:10A400000419834242EA0102F9D1002A40F0B680E1
:10A41000049B0CAA013B52F82330002B40F0A18092
:10A420000A9A012352F8041901330029FAD05B4437
:10A430000BF10109994506934CDC099A079909EB40
:10A44000020801EB0B0508F1804802EB030BA39B0C
:10A4500008F1FF3803EB880870AB03EBC909A39B35
:10A4600020A903EB8B0301EBC505029358F8040FF9
:10A4700013F0FAFE0B4601990246002905F1080B7C
:10A48000C5E900234FF000064FF000071CDB039CDA
:10A490000CE000BF880D0400ABAAAA2A0000703EA1
:10A4A000000070410000204075E90223F4E8020139
:10A4B00013F044FF02460B463046394613F088FD40
:10A4C000544506460F46EFD1029B9845E9E80267DE
:10A4D0005D46CBD1DDF818B0D9E6012300220CA9E6
:10A4E000C4F180749B4541F822400EDD51F82320D1
:10A4F00001EB8B0001EB83036FF07F4100E01A68F2
:10A500008A1A43F8042B8342F9D101244CE706D17F
:10A510000BF1FF330CAA52F82350ED152AE7002265
:10A520007B4B14F091F9002840F0A381054650E7D9
:10A5300032463B460020774913F048FD06460F4659
:10A54000002C3FF446AF059A7249002000F008FF46
:10A5500002460B463046394613F038FD06460F4694
:10A5600037E7012363E70BF1FF320CAB0CA953F87B
:10A570002230C3F3160341F8223027E70CAB059ACB
:10A5800053F82930183ACDE9068505926BB909F1DF
:10A590008043013B0CA901EB830353F8041909F133
:10A5A000FF39183A0029F8D00592059A5949002038
:10A5B00000F0D6FEB9F1000F04460D46C0F2C0818E
:10A5C0004FEAC90370AA02EB030808930CAB03EB34
:10A5D0008906DFF844B14FF0000A08F10807043695
:10A5E00056F8040D13F040FE22462B4613F0A6FE4B
:10A5F0005B4667E9020152462046294613F09EFE5B
:10A600000CAB9E4204460D46EAD148AB039301933E
:10A61000CDF8149009F10103DDF810900293C346C0
:10A620004FF0000AB9F1000FC0F22A81DFF8EC8088
:10A630005D4635A3D3E9002300260027002403E06C
:10A64000544510DCF8E80223F5E8020113F076FE29
:10A6500002460B463046394613F0BAFC0134A14598
:10A6600006460F46ECDA019BE3E802670193029B82
:10A670000AF1010A9A45ABF1080BD3D1A29BDDF890
:10A680001490032B39D8DFE813F0D9000600060038
:10A690004D0048AB0393B9F1000F4FF000004FF0AD
:10A6A000000109DB039D05EBC904083474E90223AA
:10A6B00013F08EFCA542F9D1079B002B40F01E81C0
:10A6C0000B9BC3E900010B4603990246D1E9000147
:10A6D00013F07CFCB9F1000F0CDD4AAD012401340C
:10A6E000F5E8022313F074FCA145F8DA079B002B70
:10A6F00040F014810B9BC3E90201069B03F00700A5
:10A700000DF5197DBDE8F08F00000040FB21F93FF9
:10A710000000E03F0000F03F0000703ED0F6030074
:10A7200048AB0393B9F1000F40F32781039ACDF8AA
:10A7300010904FEAC9030193D318D3E900AB09F194
:10A740000053013B02EBC9080293914678E9026786
:10A7500052465B463046394613F03AFC04460D46F5
:10A7600002460B463046394613F030FC52465B46F3
:10A7700013F02EFCC145A246AB46C8E90201C8E968
:10A780000045E3D1DDF81090B9F1010F40F3F580F9
:10A79000019B039A02991344C900D3E9006701F1B0
:10A7A000080A019192440DF5947B7AE902893246B8
:10A7B0003B464046494613F00BFC04460D46024614
:10A7C0000B464046494613F001FC32463B4613F027
:10A7D000FFFBD34526462F46CAE90201CAE90045D8
:10A7E000E3D1019C039B1034002000211C4403F1A1
:10A7F000100574E9022313F0EBFBA542F9D1039C89
:10A80000079ED4E90023D4E90245002E00F08A8097
:10A8100003F1004701F100430B99C1E90403069BD2
:10A820002646944605F1004403F00700C1E900C73D
:10A83000C1E902640DF5197DBDE8F08F089C039D08
:10A840000834002000212C4474E9022313F0C0FBDB
:10A85000A542F9D1079B13B101F1004319460B9BA7
:10A86000C3E90001069B03F007000DF5197DBDE863
:10A87000F08FBBF1000F08F1010874DD022581E5BE
:10A8800000260027EFE600248EE5CDE90685059D2C
:10A89000304639466A4200F063FD0022384B0646D6
:10A8A0000F4613F0D1FF00B30022364B3046394635
:10A8B00013F044FD13F0F2FF044613F0D5FC002220
:10A8C0002F4B13F03BFD0B4602463946304613F042
:10A8D0007DFB13F0E3FF0BF101090CAB183543F8D6
:10A8E0002B00059543F829405FE63046394613F0C2
:10A8F000D5FF0CABD94643F82B0056E60B9C01F173
:10A900000043C4E900030B4603990246D1E9000164
:10A9100013F05CFBB9F1000F3FF7DFAE01F100432C
:10A920001946E7E60B9EC6E90023069BC6E904012B
:10A9300003F00700C6E902450DF5197DBDE8F08F6B
:10A94000A29B032B3FF6D9AE01A252F823F000BF21
:10A9500061A9020093A6020093A6020021A70200AB
:10A960000020002176E732463B460020064913F0DE
:10A970002DFB022506460F462BE5002000213EE771
:10A98000000070410000703E0000F03F0000000039
:10A990002DE9F04F21F00046B6F1795F85B004460D
:10A9A0000D469046994604DA13F078FF002800F02F
:10A9B000858022462B462046294613F0BFFC0646DA
:10A9C0000F4602460B462046294613F0B7FC41A32A
:10A9D000D3E9002382468B463046394613F0AEFC5D
:10A9E0003EA3D3E9002313F0F1FA32463B4613F0BD
:10A9F000A5FC3CA3D3E9002313F0EAFA32463B4618
:10AA000013F09CFC39A3D3E9002313F0DFFA32469C
:10AA10003B4613F093FC37A3D3E9002313F0D8FA95
:10AA20000E9BCDE900019BB30022294B40464946CD
:10AA300013F084FCDDE90023CDE9020150465946BC
:10AA400013F07CFC02460B46DDE9020113F0BEFA6E
:10AA500032463B4613F072FC42464B4613F0B6FAC0
:10AA600019A3D3E9002306460F465046594613F072
:10AA700065FC02460B463046394613F0A9FA0246F9
:10AA80000B462046294613F0A1FA05B0BDE8F08F29
:10AA900002460B463046394613F050FC0AA3D3E970
:10AAA000002313F093FA52465B4613F047FC22460C
:10AAB0002B4613F08DFA05B0BDE8F08F20462946ED
:10AAC00005B0BDE8F08F00BF495555555555C53FF8
:10AAD0000000E03F7CD5CF5A3AD9E53DEB9C2B8A6C
:10AAE000E6E55A3E7DFEB157E31DC73ED561C1196B
:10AAF000A0012A3FA6F810111111813F00000000AB
:10AB00002DE9F04FC04C21F0004687B0A6428246A6
:10AB10008B460F46CDE900231ADC13F0BFFE002858
:10AB20003FD1109B524601331343334300F0B781AA
:10AB3000109B012B00F0C0815B460020B34913F04D
:10AB400027FD04460D462046294607B0BDE8F08F94
:10AB5000AF4B9E4225DD002909DADDE9004522469A
:10AB600005F10043CDE900230BF100418B4652462D
:10AB70005B4685A1D1E9000113F028FADDE9002345
:10AB800004460D4682A1D1E9000113F01FFA9FEDA2
:10AB9000827B22462B468DED007B13F019FA82460C
:10ABA0008B4652465B465046594613F0C7FB024659
:10ABB0000B468046894613F0C1FB424604460D46CB
:10ABC0004B465046594613F0B9FB75A3D3E9002311
:10ABD000CDE902012046294613F0B0FB72A3D3E968
:10ABE000002313F0F5F922462B4613F0A7FB70A3C0
:10ABF000D3E9002313F0ECF922462B4613F09EFB19
:10AC00006DA3D3E9002313F0E3F922462B4613F09A
:10AC100095FB6BA3D3E9002313F0DAF922462B4608
:10AC200013F08CFB68A3D3E9002313F0D1F942465B
:10AC30004B4613F083FB66A3D3E90023CDE904015F
:10AC40002046294613F07AFB63A3D3E9002313F0CF
:10AC5000BFF922462B4613F071FB61A3D3E9002311
:10AC600013F0B6F922462B4613F068FB5EA3D3E936
:10AC7000002313F0ADF922462B4613F05FFB5CA3D3
:10AC8000D3E9002313F0A4F922462B4613F056FB18
:10AC900059A3D3E9002313F09BF902460B46DDE9E3
:10ACA000040113F095F9DDE9022313F047FBDDE918
:10ACB000004522462B4613F08BF942464B4613F0D3
:10ACC0003DFB22462B4613F083F94DA3D3E9002325
:10ACD00004460D46DDE9020113F030FB22462B4607
:10ACE00013F076F90B46024680468946504659468F
:10ACF00013F06EF9464B9E4204460D4600F38C80DD
:10AD0000109B012B3BD002460B4600203F4913F01D
:10AD10003FFC002406460F462046294652465B4625
:10AD2000CDE90067CDE90201009413F04FF9DDE9A8
:10AD300000AB02460B464046494613F047F95246DF
:10AD40005B4613F0FBFA524604460D465B46DDE9CE
:10AD5000020113F0F3FA00222E4B13F039F90246E8
:10AD60000B462046294613F033F932463B4613F092
:10AD7000E5FA52465B4613F02BF904460D46204691
:10AD8000294607B0BDE8F08F182D4454FB21E93F58
:10AD9000075C143326A6813C000000000000000080
:10ADA000D47ABF74702AFB3EE9A7F0320FB8123F85
:10ADB00068108D1AF726303F1583E0FEC8DB573F39
:10ADC00093846EE9E326823FFE41B31BBAA1AB3FF9
:10ADD000735360DBCB75F3BEA69237A0887E143F19
:10ADE0000165F2F2D844433F280356C9226D6D3FF6
:10ADF00037D60684F464963F7AFE10111111C13FD4
:10AE0000635555555555D53FFFFF2F3E0000F0BF08
:10AE10002794E53F0000F03F109813F025FA2246F2
:10AE2000CDE900012B462046294613F087FADDE9DB
:10AE30000023CDE902012046294613F0C9F8024655
:10AE40000B46DDE9020113F0A3FB42464B4613F02B
:10AE5000BDF802460B465046594613F0B7F8024675
:10AE60000B4613F0B5F802460B46DDE9000113F07E
:10AE7000ADF80446B81700F00200C0F101000D461D
:10AE800013F0F2F902460B462046294613F056FA13
:10AE900004460D462046294607B0BDE8F08F5046CF
:10AEA000594611F045F802460B460020044913F0BC
:10AEB0006FFB04460D4662E754465D465FE700BF00
:10AEC0000000F03F000000002DE9F04FCC4A21F0D7
:10AED0000043934285B082468B460C4620D9C94A2E
:10AEE000934200F2D780002C80F2A481ACA3D3E976
:10AEF00000235046594613F06BF80022002313F04C
:10AF00008FFC002840F0D180A7A3D3E9002350464E
:10AF1000594613F013FA02460B460020BA4994E151
:10AF2000BA4A934200F2E580B94A934240F22E8138
:10AF3000002301930022B74B5046594613F0FEF907
:10AF400006460F4602460B465046594613F0F6F9A0
:10AF500097A3D3E9002304460D4613F0EFF996A317
:10AF6000D3E9002313F034F822462B4613F0E6F918
:10AF700093A3D3E9002313F029F822462B4613F0BC
:10AF8000DDF991A3D3E9002313F022F822462B46E2
:10AF900013F0D4F98EA3D3E9002313F017F8224657
:10AFA0002B4613F0CBF900229B4B13F011F880468F
:10AFB000894602460B463046394613F0BFF9024631
:10AFC0000B460020954913F001F8064602460B4651
:10AFD0000F464046494612F0F9FF32468046894600
:10AFE0003B465046594613F0A9F902460B4600204D
:10AFF0008B4912F0EBFF02460B464046494613F0E0
:10B00000C7FA22462B4613F099F9019E02460B46D9
:10B01000002E4DD0DDE9026732463B4612F0D6FFE6
:10B0200052465B4613F08AF932463B4612F0CEFF99
:10B030002B46224612F0CAFF019B013306460F46FB
:10B0400000F02381019B012B7BD0019A531C392BEB
:10B050004FEA025500F22881019A132A40F35581E4
:10B06000019BC3F57F7403340022230512F0B0FF67
:10B0700002460B465046594612F0A8FF0022664B86
:10B0800012F0A6FF824605EB010B5046594605B06B
:10B09000BDE8F08F634A93421BD9C1F31303034306
:10B0A000024640F012810029EFDA00205E490DE0EF
:10B0B0005046594613F042F922462B4612F086FFBD
:10B0C00002460B465046594612F080FF05B0BDE8D7
:10B0D000F08F41A3D3E9002313F0C0FB00283FF415
:10B0E00002AF3FA3D3E900231046194613F026F917
:10B0F000ECE74E4A934200F2EC8000293AA3D3E9F0
:10B10000002339DA12F064FF39A7D7E900674FF05E
:10B11000FF3380468946019332463B4640464946C6
:10B1200012F054FF02460B4682468B464046494683
:10B1300012F04CFF32463B4612F048FFCDE90201C7
:10B14000F8E600223A4B5046594613F069FB0028B6
:10B1500000F0CC805046594600222E4B12F038FFAA
:10B1600002460B463046394612F030FF00224FF0BF
:10B17000404313F0E3F8A9E712F028FF01238046CB
:10B18000894601931CA7D7E90067C5E714A3D3E953
:10B19000002312F01DFF02460B468FE7AFF300803D
:10B1A00059F3F8C21F6EA501FE822B654715F73FC4
:10B1B0002DC3096EB7FD8ABE3952E686CACFD03E8E
:10B1C000B7DBAA9E19CE143F8555FE19A0015A3F40
:10B1D000F41011111111A13FEF39FAFE422E8640F1
:10B1E0009C7500883CE4377E0000E0FE422EE63F7E
:10B1F000763C7935EF39EABD763C7935EF39EA3D71
:10B2000079684340412E86400000E0BF422ED63F81
:10B21000FFFF8F3C0000E03F0000F03F00000840CF
:10B2200000001840FFFFEF7F0000F0BFB1A2F03F29
:10B230000000D0BF44A3D3E900235046594613F081
:10B240007DF802460B460020414912F0C1FE13F082
:10B2500025FB019013F008F837A3D3E90023064635
:10B260000F4613F06BF802460B465046594612F053
:10B27000ADFE33A3D3E900238046894630463946E4
:10B2800013F05CF806460F4646E702460B4650466A
:10B29000594612F09BFE00222D4B13F04FF800226E
:10B2A0002B4B12F093FE11E752465B4612F08EFED6
:10B2B00002460B460020274912F088FE6B181946FB
:10B2C0000022244B12F082FE00E70B4612F080FEB3
:10B2D000FCE61DA3D3E9002313F030F8002C02464E
:10B2E0000B464FF00000AFDA1B49AEE732463B4653
:10B2F0005046594612F06AFE02460B4612F068FEAE
:10B300000022144B12F064FEE0E64FF4001343FAFF
:10B3100002F452465B4612F059FEC4F17F570026F4
:10B3200007F5401702460B463046394612F04EFEEE
:10B33000A8E600BFAFF300800000E0FE422EE63F2B
:10B34000763C7935EF39EA3DFE822B654715F73FAC
:10B350000000E03F0000F03F0000E0BF0000000000
:10B36000F8B5C1F30A5304460D460E4617460BBB0B
:10B3700021F00046034633431BD0354B002212F028
:10B38000DDFF344B9F4204460D4635DBC1F30A53C3
:10B390000E46363B3B4440F2FE72934232DC002BB9
:10B3A00011DD26F0FF4626F4E00646EA0355204666
:10B3B0002946F8BD40F2FF729342EBD102460B469C
:10B3C00012F006FEF8BD13F1350F28DA4CF25033B7
:10B3D0009F4222462B460ADD19A1D1E9000112F055
:10B3E00067FD17A3D3E9002312F0A8FFF8BD16A14B
:10B3F000D1E9000112F05CFD13A3D3E9002312F0A0
:10B400009DFFF8BD22462B460DA1D1E9000112F0A7
:10B410004FFD0BA3D3E9002312F090FFF8BD26F0F7
:10B42000FF4626F4E006363346EA03552046294611
:10B430000022094B12F082FFF8BD00BFAFF300807D
:10B440009C7500883CE4377E59F3F8C21F6EA50155
:10B4500000005043B03CFFFF0000903C10B5054C8D
:10B46000237833B9044B13B10448AFF300800123B0
:10B47000237010BD1085002000000000E00E0400C5
:10B4800008B5034B1BB103490348AFF3008008BD67
:10B490000000000014850020E00E0400154B002B76
:10B4A00008BF134B9D46A3F5803A00218B460F46FB
:10B4B0001348144A121A09F0F9F80F4B002B00D068
:10B4C00098470E4B002B00D0984700200021040025
:10B4D0000D000D48002802D00C48AFF3008012F098
:10B4E0001DFD2000290005F025F912F003FD00BF25
:10B4F0000000080000000420000000000000000020
:10B5000000840020808C002000000000000000006B
:10B5100070B504460E4600F047FA88B10368DB6A4E
:10B5200005469847082C0CD0A4F10903012B14D927
:10B530003246214610230D20BDE8704004F058B873
:10B5400070BD2B6828465B6A98470228F0DC2B68A0
:10B5500028461B6A04219847EAE72B6828465B6A5D
:10B5600098470528E4DC2B6828461B6A0821984781
:10B57000DEE700BF38B52DED028B054600F014FA6A
:10B58000044640B10368DB6A9847032D03D8DFE81F
:10B5900005F02F363D06BDEC028B002038BD20465D
:10B5A0000CF018F807EE900A2046F8EEE78A0CF047
:10B5B00021F807EE900A2046B8EEE78A0CF02AF848
:10B5C00068EE087A07EE100AE8EEA87AB8EEC77AB5
:10B5D000E7EE077AF5EE407AF1EE10FAB1EEE78A7F
:10B5E0001BD4FDEEC87ABDEC028B17EE900A38BD75
:10B5F000BDEC028B2046BDE838400BF0EBBFBDEC44
:10B60000028B2046BDE838400BF0F4BFBDEC028B46
:10B610002046BDE838400BF0FDBF17EE900A11F050
:10B6200037FADEE738B5044600F0BEF958B10368D2
:10B63000DB6A0546984744B1012C04D12846BDE891
:10B640003840FBF73DB9002038BD2846BDE83840FA
:10B65000FBF716B910B5044600F0A6F928B1036847
:10B6600021461B6ABDE81040184710BD00487047CE
:10B6700016FCFFFF704700BF10B5034B0360044684
:10B680000BF084FD204610BDF803040010B5054BF7
:10B69000036004460BF07AFD204613F0D7FB2046EA
:10B6A00010BD00BFF80304002DE9F041032184B070
:10B6B0000546512001F0DAFCDFF8E8C2AE4B044643
:10B6C00004F00F06C4F3031714F4807408BF634634
:10B6D000AA4831463A460AF039FF221C18BF012217
:10B6E00031463B4628460EF06BF80023AB60A44879
:10B6F0000AF02CFF4FF0FF31032001F0B7FCC0B27D
:10B7000004F08CFA4FF0FF310446022001F0AEFC49
:10B71000C0B204F083FA002C3BD0002839D0014697
:10B72000204604F041F8064600284DD04FF0FF3186
:10B73000462001F09BFC322804464ED04BDD3828D1
:10B7400000F0B18068285FD14FF0FF31012001F097
:10B750008DFCC0B204F062FA80464C2013F07FFBEF
:10B76000052301934246009431462B4607460CF0D0
:10B770008DFFAF603B6838469B6A9847A8680368AE
:10B78000DB6A98477F480AF0E1FE284604B0BDE82E
:10B79000F0817D480AF0DAFE4FF0FF31192001F008
:10B7A00065FCC0B204F03AFA4FF0FF3104461820AD
:10B7B00001F05CFCC0B204F031FA0146204603F00F
:10B7C000F3FF06460028B1D170480AF0BFFE2846B4
:10B7D00004B0BDE8F081302816D14FF0FF310120D0
:10B7E00001F044FCC0B204F019FA80464C2013F07A
:10B7F00036FBA4B207460523019342460094314626
:10B800002B460CF0F9FCB4E701243268CDE9004482
:10B810000023176AAB600F220DF10F03322130466F
:10B82000B847002800F085803368CDE900440F2236
:10B830001F6A30210DF10F033046B84700284AD067
:10B840003368CDE900440D221F6A38210DF10F0342
:10B850003046B847002872D03268CDE900440DF177
:10B860000F03176A682175223046B847002845D172
:10B87000682147480AF06AFE4FF0FF31204601F088
:10B88000F5FBC0B204F0CAF980464C2013F0E7FA89
:10B8900005246823CDE90034424631462B4607464D
:10B8A0000CF0F4FE65E74FF0FF31012001F0DEFB04
:10B8B000C0B204F0B3F98046442013F0D0FA052357
:10B8C0000746019342462B46009431460CF036FE63
:10B8D000304B3B604DE730212D480AF037FE3024D5
:10B8E0004FF0FF31012001F0C1FBC0B204F096F926
:10B8F00080464C2013F0B3FA07467CE726480AF04E
:10B9000025FEAF68002F7FF435AF4FF0FF310320E5
:10B9100001F0ACFBC0B204F081F930B11F480AF06D
:10B9200015FE284604B0BDE8F0811D480AF00EFE61
:10B930004DE7322116480AF009FE3224D0E73821BB
:10B9400013480AF003FE4FF0FF31204601F08EFB52
:10B95000C0B204F063F98046442013F080FA052455
:10B9600038230746CDE9003442462B4631460CF0D9
:10B97000E5FD084B3B60FCE654F7030064F7030069
:10B9800084F7030044F8030094F70300A8F70300CA
:10B99000D4F7030020F70300C0F70300E8F7030023
:10B9A00024F803005CF7030038B5114C23680BB191
:10B9B000986838BD4FF0FF31012001F057FBC0B24D
:10B9C00004F02CF940B10C2013F049FA0546FFF7BA
:10B9D0006BFE2560A86838BD4FF0FF31032001F0F1
:10B9E00045FBC0B204F01AF90028ECD138BD00BF05
:10B9F0002C85002008B501F06BFCFBF7D5FCBDE8F9
:10BA0000084001F0C5B900BF08B501F061FCFBF7C3
:10BA10003BFDBDE8084001F0BBB900BF08B501F02F
:10BA200057FC10F0FBFABDE8084001F0B1B900BFC7
:10BA300008B501F04DFC10F0EDFEBDE8084001F046
:10BA4000A7B900BF08B501F043FCFBF7BDFCBDE89A
:10BA5000084001F09DB900BF08B501F039FC10F0B5
:10BA60000FFDBDE8084001F093B900BF08B501F033
:10BA70002FFCFAF745FFBDE8084001F089B900BF87
:10BA800008B501F025FC10F051FCBDE8084001F0BC
:10BA90007FB900BF70B5049E96420C4624DB154664
:10BAA0006BB9042A19D0022A02D110F0010310D078
:10BAB00001462A46204607F067FC002070BD10446E
:10BAC0000D4410F8013D01F8013B8D42F9D10020F1
:10BAD00070BD02880A80184670BD10F00303E7D1DC
